{
  "address": "0x8Ef4863624aBeE3f54b10715cAb2Ef80C021a5B0",
  "abi": [
    {
      "anonymous": false,
      "inputs": [
        {
          "indexed": true,
          "internalType": "address",
          "name": "account",
          "type": "address"
        },
        {
          "indexed": true,
          "internalType": "address",
          "name": "operator",
          "type": "address"
        },
        {
          "indexed": false,
          "internalType": "bool",
          "name": "approved",
          "type": "bool"
        }
      ],
      "name": "ApprovalForAll",
      "type": "event"
    },
    {
      "anonymous": false,
      "inputs": [
        {
          "indexed": true,
          "internalType": "bytes32",
          "name": "role",
          "type": "bytes32"
        },
        {
          "indexed": true,
          "internalType": "bytes32",
          "name": "previousAdminRole",
          "type": "bytes32"
        },
        {
          "indexed": true,
          "internalType": "bytes32",
          "name": "newAdminRole",
          "type": "bytes32"
        }
      ],
      "name": "RoleAdminChanged",
      "type": "event"
    },
    {
      "anonymous": false,
      "inputs": [
        {
          "indexed": true,
          "internalType": "bytes32",
          "name": "role",
          "type": "bytes32"
        },
        {
          "indexed": true,
          "internalType": "address",
          "name": "account",
          "type": "address"
        },
        {
          "indexed": true,
          "internalType": "address",
          "name": "sender",
          "type": "address"
        }
      ],
      "name": "RoleGranted",
      "type": "event"
    },
    {
      "anonymous": false,
      "inputs": [
        {
          "indexed": true,
          "internalType": "bytes32",
          "name": "role",
          "type": "bytes32"
        },
        {
          "indexed": true,
          "internalType": "address",
          "name": "account",
          "type": "address"
        },
        {
          "indexed": true,
          "internalType": "address",
          "name": "sender",
          "type": "address"
        }
      ],
      "name": "RoleRevoked",
      "type": "event"
    },
    {
      "anonymous": false,
      "inputs": [
        {
          "indexed": true,
          "internalType": "address",
          "name": "operator",
          "type": "address"
        },
        {
          "indexed": true,
          "internalType": "address",
          "name": "from",
          "type": "address"
        },
        {
          "indexed": true,
          "internalType": "address",
          "name": "to",
          "type": "address"
        },
        {
          "indexed": false,
          "internalType": "uint256[]",
          "name": "ids",
          "type": "uint256[]"
        },
        {
          "indexed": false,
          "internalType": "uint256[]",
          "name": "values",
          "type": "uint256[]"
        }
      ],
      "name": "TransferBatch",
      "type": "event"
    },
    {
      "anonymous": false,
      "inputs": [
        {
          "indexed": true,
          "internalType": "address",
          "name": "operator",
          "type": "address"
        },
        {
          "indexed": true,
          "internalType": "address",
          "name": "from",
          "type": "address"
        },
        {
          "indexed": true,
          "internalType": "address",
          "name": "to",
          "type": "address"
        },
        {
          "indexed": false,
          "internalType": "uint256",
          "name": "id",
          "type": "uint256"
        },
        {
          "indexed": false,
          "internalType": "uint256",
          "name": "value",
          "type": "uint256"
        }
      ],
      "name": "TransferSingle",
      "type": "event"
    },
    {
      "anonymous": false,
      "inputs": [
        {
          "indexed": false,
          "internalType": "string",
          "name": "value",
          "type": "string"
        },
        {
          "indexed": true,
          "internalType": "uint256",
          "name": "id",
          "type": "uint256"
        }
      ],
      "name": "URI",
      "type": "event"
    },
    {
      "inputs": [],
      "name": "ARTIFACT_TOKEN_KIND",
      "outputs": [
        {
          "internalType": "uint256",
          "name": "",
          "type": "uint256"
        }
      ],
      "stateMutability": "view",
      "type": "function"
    },
    {
      "inputs": [],
      "name": "COLLISION_DAMAGE_TOKEN_ID",
      "outputs": [
        {
          "internalType": "uint256",
          "name": "",
          "type": "uint256"
        }
      ],
      "stateMutability": "view",
      "type": "function"
    },
    {
      "inputs": [],
      "name": "CRAFTSMAN_CHARACTER_KIND",
      "outputs": [
        {
          "internalType": "uint256",
          "name": "",
          "type": "uint256"
        }
      ],
      "stateMutability": "view",
      "type": "function"
    },
    {
      "inputs": [],
      "name": "DEFAULT_ADMIN_ROLE",
      "outputs": [
        {
          "internalType": "bytes32",
          "name": "",
          "type": "bytes32"
        }
      ],
      "stateMutability": "view",
      "type": "function"
    },
    {
      "inputs": [],
      "name": "FIGHTER_CHARACTER_KIND",
      "outputs": [
        {
          "internalType": "uint256",
          "name": "",
          "type": "uint256"
        }
      ],
      "stateMutability": "view",
      "type": "function"
    },
    {
      "inputs": [],
      "name": "FUNGIBLE_TOKEN_KIND",
      "outputs": [
        {
          "internalType": "uint256",
          "name": "",
          "type": "uint256"
        }
      ],
      "stateMutability": "view",
      "type": "function"
    },
    {
      "inputs": [],
      "name": "HEALTH_TOKEN_ID",
      "outputs": [
        {
          "internalType": "uint256",
          "name": "",
          "type": "uint256"
        }
      ],
      "stateMutability": "view",
      "type": "function"
    },
    {
      "inputs": [],
      "name": "MANA_TOKEN_ID",
      "outputs": [
        {
          "internalType": "uint256",
          "name": "",
          "type": "uint256"
        }
      ],
      "stateMutability": "view",
      "type": "function"
    },
    {
      "inputs": [],
      "name": "MINTER_ROLE",
      "outputs": [
        {
          "internalType": "bytes32",
          "name": "",
          "type": "bytes32"
        }
      ],
      "stateMutability": "view",
      "type": "function"
    },
    {
      "inputs": [],
      "name": "PET_TOKEN_KIND",
      "outputs": [
        {
          "internalType": "uint256",
          "name": "",
          "type": "uint256"
        }
      ],
      "stateMutability": "view",
      "type": "function"
    },
    {
      "inputs": [],
      "name": "SETTER_ROLE",
      "outputs": [
        {
          "internalType": "bytes32",
          "name": "",
          "type": "bytes32"
        }
      ],
      "stateMutability": "view",
      "type": "function"
    },
    {
      "inputs": [],
      "name": "SKIN_TOKEN_KIND",
      "outputs": [
        {
          "internalType": "uint256",
          "name": "",
          "type": "uint256"
        }
      ],
      "stateMutability": "view",
      "type": "function"
    },
    {
      "inputs": [],
      "name": "SPEED_TOKEN_ID",
      "outputs": [
        {
          "internalType": "uint256",
          "name": "",
          "type": "uint256"
        }
      ],
      "stateMutability": "view",
      "type": "function"
    },
    {
      "inputs": [],
      "name": "SPRINTER_CHARACTER_KIND",
      "outputs": [
        {
          "internalType": "uint256",
          "name": "",
          "type": "uint256"
        }
      ],
      "stateMutability": "view",
      "type": "function"
    },
    {
      "inputs": [
        {
          "internalType": "address",
          "name": "account",
          "type": "address"
        },
        {
          "internalType": "uint256",
          "name": "id",
          "type": "uint256"
        }
      ],
      "name": "balanceOf",
      "outputs": [
        {
          "internalType": "uint256",
          "name": "",
          "type": "uint256"
        }
      ],
      "stateMutability": "view",
      "type": "function"
    },
    {
      "inputs": [
        {
          "internalType": "address[]",
          "name": "accounts",
          "type": "address[]"
        },
        {
          "internalType": "uint256[]",
          "name": "ids",
          "type": "uint256[]"
        }
      ],
      "name": "balanceOfBatch",
      "outputs": [
        {
          "internalType": "uint256[]",
          "name": "",
          "type": "uint256[]"
        }
      ],
      "stateMutability": "view",
      "type": "function"
    },
    {
      "inputs": [
        {
          "internalType": "address",
          "name": "account",
          "type": "address"
        },
        {
          "internalType": "uint256",
          "name": "id",
          "type": "uint256"
        },
        {
          "internalType": "uint256",
          "name": "value",
          "type": "uint256"
        }
      ],
      "name": "burn",
      "outputs": [],
      "stateMutability": "nonpayable",
      "type": "function"
    },
    {
      "inputs": [
        {
          "internalType": "address",
          "name": "account",
          "type": "address"
        },
        {
          "internalType": "uint256[]",
          "name": "ids",
          "type": "uint256[]"
        },
        {
          "internalType": "uint256[]",
          "name": "values",
          "type": "uint256[]"
        }
      ],
      "name": "burnBatch",
      "outputs": [],
      "stateMutability": "nonpayable",
      "type": "function"
    },
    {
      "inputs": [
        {
          "internalType": "uint256",
          "name": "id",
          "type": "uint256"
        }
      ],
      "name": "exists",
      "outputs": [
        {
          "internalType": "bool",
          "name": "",
          "type": "bool"
        }
      ],
      "stateMutability": "view",
      "type": "function"
    },
    {
      "inputs": [
        {
          "internalType": "uint256",
          "name": "id",
          "type": "uint256"
        }
      ],
      "name": "getKind",
      "outputs": [
        {
          "internalType": "uint256",
          "name": "",
          "type": "uint256"
        }
      ],
      "stateMutability": "pure",
      "type": "function"
    },
    {
      "inputs": [
        {
          "internalType": "uint256",
          "name": "kind",
          "type": "uint256"
        }
      ],
      "name": "getKindSupply",
      "outputs": [
        {
          "internalType": "uint256",
          "name": "",
          "type": "uint256"
        }
      ],
      "stateMutability": "view",
      "type": "function"
    },
    {
      "inputs": [
        {
          "internalType": "uint256",
          "name": "id",
          "type": "uint256"
        }
      ],
      "name": "getPerks",
      "outputs": [
        {
          "components": [
            {
              "internalType": "uint256",
              "name": "level",
              "type": "uint256"
            },
            {
              "internalType": "uint256",
              "name": "runs",
              "type": "uint256"
            },
            {
              "internalType": "uint256",
              "name": "wins",
              "type": "uint256"
            },
            {
              "internalType": "uint256",
              "name": "ability",
              "type": "uint256"
            },
            {
              "internalType": "uint256",
              "name": "health",
              "type": "uint256"
            },
            {
              "internalType": "uint256",
              "name": "mana",
              "type": "uint256"
            },
            {
              "internalType": "uint256",
              "name": "speed",
              "type": "uint256"
            },
            {
              "internalType": "uint256",
              "name": "collisionDamage",
              "type": "uint256"
            }
          ],
          "internalType": "struct MetarunCollection.Perks",
          "name": "",
          "type": "tuple"
        }
      ],
      "stateMutability": "view",
      "type": "function"
    },
    {
      "inputs": [
        {
          "internalType": "bytes32",
          "name": "role",
          "type": "bytes32"
        }
      ],
      "name": "getRoleAdmin",
      "outputs": [
        {
          "internalType": "bytes32",
          "name": "",
          "type": "bytes32"
        }
      ],
      "stateMutability": "view",
      "type": "function"
    },
    {
      "inputs": [
        {
          "internalType": "bytes32",
          "name": "role",
          "type": "bytes32"
        },
        {
          "internalType": "address",
          "name": "account",
          "type": "address"
        }
      ],
      "name": "grantRole",
      "outputs": [],
      "stateMutability": "nonpayable",
      "type": "function"
    },
    {
      "inputs": [
        {
          "internalType": "bytes32",
          "name": "role",
          "type": "bytes32"
        },
        {
          "internalType": "address",
          "name": "account",
          "type": "address"
        }
      ],
      "name": "hasRole",
      "outputs": [
        {
          "internalType": "bool",
          "name": "",
          "type": "bool"
        }
      ],
      "stateMutability": "view",
      "type": "function"
    },
    {
      "inputs": [
        {
          "internalType": "string",
          "name": "uri",
          "type": "string"
        }
      ],
      "name": "initialize",
      "outputs": [],
      "stateMutability": "nonpayable",
      "type": "function"
    },
    {
      "inputs": [
        {
          "internalType": "address",
          "name": "account",
          "type": "address"
        },
        {
          "internalType": "address",
          "name": "operator",
          "type": "address"
        }
      ],
      "name": "isApprovedForAll",
      "outputs": [
        {
          "internalType": "bool",
          "name": "",
          "type": "bool"
        }
      ],
      "stateMutability": "view",
      "type": "function"
    },
    {
      "inputs": [
        {
          "internalType": "uint256",
          "name": "id",
          "type": "uint256"
        }
      ],
      "name": "isCharacter",
      "outputs": [
        {
          "internalType": "bool",
          "name": "",
          "type": "bool"
        }
      ],
      "stateMutability": "pure",
      "type": "function"
    },
    {
      "inputs": [
        {
          "internalType": "uint256",
          "name": "id",
          "type": "uint256"
        },
        {
          "internalType": "uint256",
          "name": "kind",
          "type": "uint256"
        }
      ],
      "name": "isKind",
      "outputs": [
        {
          "internalType": "bool",
          "name": "",
          "type": "bool"
        }
      ],
      "stateMutability": "pure",
      "type": "function"
    },
    {
      "inputs": [
        {
          "internalType": "address",
          "name": "to",
          "type": "address"
        },
        {
          "internalType": "uint256",
          "name": "id",
          "type": "uint256"
        },
        {
          "internalType": "uint256",
          "name": "amount",
          "type": "uint256"
        }
      ],
      "name": "mint",
      "outputs": [],
      "stateMutability": "nonpayable",
      "type": "function"
    },
    {
      "inputs": [
        {
          "internalType": "address",
          "name": "to",
          "type": "address"
        },
        {
          "internalType": "uint256",
          "name": "kind",
          "type": "uint256"
        },
        {
          "internalType": "uint256",
          "name": "count",
          "type": "uint256"
        }
      ],
      "name": "mintBatch",
      "outputs": [],
      "stateMutability": "nonpayable",
      "type": "function"
    },
    {
      "inputs": [
        {
          "internalType": "bytes32",
          "name": "role",
          "type": "bytes32"
        },
        {
          "internalType": "address",
          "name": "account",
          "type": "address"
        }
      ],
      "name": "renounceRole",
      "outputs": [],
      "stateMutability": "nonpayable",
      "type": "function"
    },
    {
      "inputs": [
        {
          "internalType": "bytes32",
          "name": "role",
          "type": "bytes32"
        },
        {
          "internalType": "address",
          "name": "account",
          "type": "address"
        }
      ],
      "name": "revokeRole",
      "outputs": [],
      "stateMutability": "nonpayable",
      "type": "function"
    },
    {
      "inputs": [
        {
          "internalType": "address",
          "name": "from",
          "type": "address"
        },
        {
          "internalType": "address",
          "name": "to",
          "type": "address"
        },
        {
          "internalType": "uint256[]",
          "name": "ids",
          "type": "uint256[]"
        },
        {
          "internalType": "uint256[]",
          "name": "amounts",
          "type": "uint256[]"
        },
        {
          "internalType": "bytes",
          "name": "data",
          "type": "bytes"
        }
      ],
      "name": "safeBatchTransferFrom",
      "outputs": [],
      "stateMutability": "nonpayable",
      "type": "function"
    },
    {
      "inputs": [
        {
          "internalType": "address",
          "name": "from",
          "type": "address"
        },
        {
          "internalType": "address",
          "name": "to",
          "type": "address"
        },
        {
          "internalType": "uint256",
          "name": "id",
          "type": "uint256"
        },
        {
          "internalType": "uint256",
          "name": "amount",
          "type": "uint256"
        },
        {
          "internalType": "bytes",
          "name": "data",
          "type": "bytes"
        }
      ],
      "name": "safeTransferFrom",
      "outputs": [],
      "stateMutability": "nonpayable",
      "type": "function"
    },
    {
      "inputs": [
        {
          "internalType": "address",
          "name": "operator",
          "type": "address"
        },
        {
          "internalType": "bool",
          "name": "approved",
          "type": "bool"
        }
      ],
      "name": "setApprovalForAll",
      "outputs": [],
      "stateMutability": "nonpayable",
      "type": "function"
    },
    {
      "inputs": [
        {
          "internalType": "uint256",
          "name": "id",
          "type": "uint256"
        },
        {
          "components": [
            {
              "internalType": "uint256",
              "name": "level",
              "type": "uint256"
            },
            {
              "internalType": "uint256",
              "name": "runs",
              "type": "uint256"
            },
            {
              "internalType": "uint256",
              "name": "wins",
              "type": "uint256"
            },
            {
              "internalType": "uint256",
              "name": "ability",
              "type": "uint256"
            },
            {
              "internalType": "uint256",
              "name": "health",
              "type": "uint256"
            },
            {
              "internalType": "uint256",
              "name": "mana",
              "type": "uint256"
            },
            {
              "internalType": "uint256",
              "name": "speed",
              "type": "uint256"
            },
            {
              "internalType": "uint256",
              "name": "collisionDamage",
              "type": "uint256"
            }
          ],
          "internalType": "struct MetarunCollection.Perks",
          "name": "perks",
          "type": "tuple"
        }
      ],
      "name": "setPerks",
      "outputs": [],
      "stateMutability": "nonpayable",
      "type": "function"
    },
    {
      "inputs": [
        {
          "internalType": "string",
          "name": "newUri",
          "type": "string"
        }
      ],
      "name": "setURI",
      "outputs": [],
      "stateMutability": "nonpayable",
      "type": "function"
    },
    {
      "inputs": [
        {
          "internalType": "bytes4",
          "name": "interfaceId",
          "type": "bytes4"
        }
      ],
      "name": "supportsInterface",
      "outputs": [
        {
          "internalType": "bool",
          "name": "",
          "type": "bool"
        }
      ],
      "stateMutability": "view",
      "type": "function"
    },
    {
      "inputs": [
        {
          "internalType": "uint256",
          "name": "id",
          "type": "uint256"
        }
      ],
      "name": "totalSupply",
      "outputs": [
        {
          "internalType": "uint256",
          "name": "",
          "type": "uint256"
        }
      ],
      "stateMutability": "view",
      "type": "function"
    },
    {
      "inputs": [
        {
          "internalType": "uint256",
          "name": "",
          "type": "uint256"
        }
      ],
      "name": "uri",
      "outputs": [
        {
          "internalType": "string",
          "name": "",
          "type": "string"
        }
      ],
      "stateMutability": "view",
      "type": "function"
    }
  ],
  "transactionHash": "0x1a31f6a6b7373647820790757f737d1c08d19817e5273bc2885cfb0090972fbc",
  "args": [],
  "numDeployments": 1,
  "solcInputHash": "e3c7bf82989ffd770675ff484588ba8c",
  "bytecode": "0x608060405234801561001057600080fd5b506156bc80620000216000396000f3fe608060405234801561001057600080fd5b50600436106102525760003560e01c8063565554ff11610146578063b7569fd5116100c3578063df4b5aeb11610087578063df4b5aeb14610747578063e985e9c514610765578063f242432a14610795578063f5298aca146107b1578063f62d1888146107cd578063fe4ba8c1146107e957610252565b8063b7569fd51461067d578063bd85b039146106ad578063ca16487b146106dd578063d53913931461070d578063d547741f1461072b57610252565b806391d148541161010a57806391d14854146105d7578063a2011b3f14610607578063a217fddf14610625578063a22cb46514610643578063b73eeaf61461065f57610252565b8063565554ff1461051f5780636b20c4541461053d5780636ca8fede14610559578063792f96cf146105895780638a6ad02e146105a757610252565b806327efa6ea116101d45780632f2ff15d116101985780632f2ff15d1461045757806336568abe14610473578063492e17fe1461048f5780634e1273f4146104bf5780634f558e79146104ef57610252565b806327efa6ea146103c55780632b2a43c0146103e35780632d1e97f8146104015780632e81aaea1461041f5780632eb2c2d61461043b57610252565b80630ec6a0931161021b5780630ec6a09314610321578063156e29f61461033f57806317f309df1461035b5780632147e11114610377578063248a9ca31461039557610252565b8062fdd58e1461025757806301ffc9a71461028757806302fe5305146102b75780630e5bda98146102d35780630e89341c146102f1575b600080fd5b610271600480360381019061026c9190613709565b610807565b60405161027e9190613758565b60405180910390f35b6102a1600480360381019061029c91906137cb565b6108d1565b6040516102ae9190613813565b60405180910390f35b6102d160048036038101906102cc9190613974565b6108e3565b005b6102db610942565b6040516102e89190613758565b60405180910390f35b61030b600480360381019061030691906139bd565b610958565b6040516103189190613a72565b60405180910390f35b6103296109ec565b6040516103369190613758565b60405180910390f35b61035960048036038101906103549190613a94565b6109f2565b005b61037560048036038101906103709190613bb6565b610b51565b005b61037f610c88565b60405161038c9190613758565b60405180910390f35b6103af60048036038101906103aa9190613c2d565b610c8d565b6040516103bc9190613c69565b60405180910390f35b6103cd610cad565b6040516103da9190613758565b60405180910390f35b6103eb610cb2565b6040516103f89190613758565b60405180910390f35b610409610cb8565b6040516104169190613758565b60405180910390f35b61043960048036038101906104349190613a94565b610cbe565b005b61045560048036038101906104509190613ded565b610fa1565b005b610471600480360381019061046c9190613ebc565b611042565b005b61048d60048036038101906104889190613ebc565b61106b565b005b6104a960048036038101906104a49190613efc565b6110ee565b6040516104b69190613813565b60405180910390f35b6104d960048036038101906104d49190613fff565b611103565b6040516104e69190614135565b60405180910390f35b610509600480360381019061050491906139bd565b61121c565b6040516105169190613813565b60405180910390f35b610527611230565b6040516105349190613758565b60405180910390f35b61055760048036038101906105529190614157565b611236565b005b610573600480360381019061056e91906139bd565b6112d3565b6040516105809190613758565b60405180910390f35b6105916112e7565b60405161059e9190613758565b60405180910390f35b6105c160048036038101906105bc91906139bd565b6112fd565b6040516105ce9190613758565b60405180910390f35b6105f160048036038101906105ec9190613ebc565b61131b565b6040516105fe9190613813565b60405180910390f35b61060f611386565b60405161061c9190613c69565b60405180910390f35b61062d6113aa565b60405161063a9190613c69565b60405180910390f35b61065d6004803603810190610658919061420e565b6113b1565b005b6106676113c7565b6040516106749190613758565b60405180910390f35b610697600480360381019061069291906139bd565b6113cc565b6040516106a49190613813565b60405180910390f35b6106c760048036038101906106c291906139bd565b611404565b6040516106d49190613758565b60405180910390f35b6106f760048036038101906106f291906139bd565b611421565b60405161070491906142f0565b60405180910390f35b6107156114fb565b6040516107229190613c69565b60405180910390f35b61074560048036038101906107409190613ebc565b61151f565b005b61074f611548565b60405161075c9190613758565b60405180910390f35b61077f600480360381019061077a919061430c565b61155e565b60405161078c9190613813565b60405180910390f35b6107af60048036038101906107aa919061434c565b6115f2565b005b6107cb60048036038101906107c69190613a94565b611693565b005b6107e760048036038101906107e29190613974565b611730565b005b6107f1611894565b6040516107fe9190613758565b60405180910390f35b60008073ffffffffffffffffffffffffffffffffffffffff168373ffffffffffffffffffffffffffffffffffffffff161415610878576040517f08c379a000000000000000000000000000000000000000000000000000000000815260040161086f90614455565b60405180910390fd5b6065600083815260200190815260200160002060008473ffffffffffffffffffffffffffffffffffffffff1673ffffffffffffffffffffffffffffffffffffffff16815260200190815260200160002054905092915050565b60006108dc826118aa565b9050919050565b6108f76000801b6108f2611924565b61131b565b610936576040517f08c379a000000000000000000000000000000000000000000000000000000000815260040161092d906144c1565b60405180910390fd5b61093f8161192c565b50565b60036010610500901b6109559190614510565b81565b60606067805461096790614595565b80601f016020809104026020016040519081016040528092919081815260200182805461099390614595565b80156109e05780601f106109b5576101008083540402835291602001916109e0565b820191906000526020600020905b8154815290600101906020018083116109c357829003601f168201915b50505050509050919050565b61030081565b610a237f9f2df0fed2c77648de5860a4cc508cd0818c85b8b8a1ab4ceeef8d981c8956a6610a1e611924565b61131b565b610a62576040517f08c379a0000000000000000000000000000000000000000000000000000000008152600401610a5990614639565b60405180910390fd5b610a6e826105006110ee565b610aff5760018114610ab5576040517f08c379a0000000000000000000000000000000000000000000000000000000008152600401610aac906146a5565b60405180910390fd5b610abe8261121c565b15610afe576040517f08c379a0000000000000000000000000000000000000000000000000000000008152600401610af5906146a5565b60405180910390fd5b5b610b1a83838360405180602001604052806000815250611946565b61012d6000610b28846112d3565b81526020019081526020016000206000815480929190610b47906146c5565b9190505550505050565b610b5a826113cc565b80610b6d5750610b6c826102006110ee565b5b610bac576040517f08c379a0000000000000000000000000000000000000000000000000000000008152600401610ba390614780565b60405180910390fd5b610bdd7f61c92169ef077349011ff0b1383c894d86c5f0b41d986366b58a6cf31e93beda610bd8611924565b61131b565b610c1c576040517f08c379a0000000000000000000000000000000000000000000000000000000008152600401610c13906147ec565b60405180910390fd5b8061012e6000848152602001908152602001600020600082015181600001556020820151816001015560408201518160020155606082015181600301556080820151816004015560a0820151816005015560c0820151816006015560e082015181600701559050505050565b600081565b600060976000838152602001908152602001600020600101549050919050565b600181565b61020081565b61010081565b610cef7f9f2df0fed2c77648de5860a4cc508cd0818c85b8b8a1ab4ceeef8d981c8956a6610cea611924565b61131b565b610d2e576040517f08c379a0000000000000000000000000000000000000000000000000000000008152600401610d2590614639565b60405180910390fd5b610d3e601083901b6105006110ee565b15610d7e576040517f08c379a0000000000000000000000000000000000000000000000000000000008152600401610d759061487e565b60405180910390fd5b60008111610dc1576040517f08c379a0000000000000000000000000000000000000000000000000000000008152600401610db8906148ea565b60405180910390fd5b60008167ffffffffffffffff811115610ddd57610ddc613849565b5b604051908082528060200260200182016040528015610e0b5781602001602082028036833780820191505090505b50905060008267ffffffffffffffff811115610e2a57610e29613849565b5b604051908082528060200260200182016040528015610e585781602001602082028036833780820191505090505b50905060005b83811015610e9a576001828281518110610e7b57610e7a61490a565b5b6020026020010181815250508080610e92906146c5565b915050610e5e565b50600061012d600086815260200190815260200160002054905060005b84811015610f525760008183610ecd9190614510565b601088901b179050610ede8161121c565b15610f1e576040517f08c379a0000000000000000000000000000000000000000000000000000000008152600401610f15906146a5565b60405180910390fd5b80858381518110610f3257610f3161490a565b5b602002602001018181525050508080610f4a906146c5565b915050610eb7565b50610f6e86848460405180602001604052806000815250611add565b8361012d60008781526020019081526020016000206000828254610f929190614510565b92505081905550505050505050565b610fa9611924565b73ffffffffffffffffffffffffffffffffffffffff168573ffffffffffffffffffffffffffffffffffffffff161480610fef5750610fee85610fe9611924565b61155e565b5b61102e576040517f08c379a0000000000000000000000000000000000000000000000000000000008152600401611025906149ab565b60405180910390fd5b61103b8585858585611cfc565b5050505050565b61104b82610c8d565b61105c81611057611924565b612013565b61106683836120b0565b505050565b611073611924565b73ffffffffffffffffffffffffffffffffffffffff168173ffffffffffffffffffffffffffffffffffffffff16146110e0576040517f08c379a00000000000000000000000000000000000000000000000000000000081526004016110d790614a3d565b60405180910390fd5b6110ea8282612191565b5050565b6000816110fa846112d3565b14905092915050565b60608151835114611149576040517f08c379a000000000000000000000000000000000000000000000000000000000815260040161114090614acf565b60405180910390fd5b6000835167ffffffffffffffff81111561116657611165613849565b5b6040519080825280602002602001820160405280156111945781602001602082028036833780820191505090505b50905060005b8451811015611211576111e18582815181106111b9576111b861490a565b5b60200260200101518583815181106111d4576111d361490a565b5b6020026020010151610807565b8282815181106111f4576111f361490a565b5b6020026020010181815250508061120a906146c5565b905061119a565b508091505092915050565b60008061122883611404565b119050919050565b61050081565b61123e611924565b73ffffffffffffffffffffffffffffffffffffffff168373ffffffffffffffffffffffffffffffffffffffff16148061128457506112838361127e611924565b61155e565b5b6112c3576040517f08c379a00000000000000000000000000000000000000000000000000000000081526004016112ba90614b61565b60405180910390fd5b6112ce838383612273565b505050565b600060108263ffff000016901c9050919050565b60006010610500901b6112fa9190614510565b81565b600061012d6000838152602001908152602001600020549050919050565b60006097600084815260200190815260200160002060000160008373ffffffffffffffffffffffffffffffffffffffff1673ffffffffffffffffffffffffffffffffffffffff16815260200190815260200160002060009054906101000a900460ff16905092915050565b7f61c92169ef077349011ff0b1383c894d86c5f0b41d986366b58a6cf31e93beda81565b6000801b81565b6113c36113bc611924565b8383612526565b5050565b600281565b60006113d98260006110ee565b806113eb57506113ea8260016110ee565b5b806113fd57506113fc8260026110ee565b5b9050919050565b600060fb6000838152602001908152602001600020549050919050565b611429613579565b611432826113cc565b806114455750611444826102006110ee565b5b611484576040517f08c379a000000000000000000000000000000000000000000000000000000000815260040161147b90614780565b60405180910390fd5b61012e600083815260200190815260200160002060405180610100016040529081600082015481526020016001820154815260200160028201548152602001600382015481526020016004820154815260200160058201548152602001600682015481526020016007820154815250509050919050565b7f9f2df0fed2c77648de5860a4cc508cd0818c85b8b8a1ab4ceeef8d981c8956a681565b61152882610c8d565b61153981611534611924565b612013565b6115438383612191565b505050565b60026010610500901b61155b9190614510565b81565b6000606660008473ffffffffffffffffffffffffffffffffffffffff1673ffffffffffffffffffffffffffffffffffffffff16815260200190815260200160002060008373ffffffffffffffffffffffffffffffffffffffff1673ffffffffffffffffffffffffffffffffffffffff16815260200190815260200160002060009054906101000a900460ff16905092915050565b6115fa611924565b73ffffffffffffffffffffffffffffffffffffffff168573ffffffffffffffffffffffffffffffffffffffff161480611640575061163f8561163a611924565b61155e565b5b61167f576040517f08c379a000000000000000000000000000000000000000000000000000000000815260040161167690614b61565b60405180910390fd5b61168c8585858585612693565b5050505050565b61169b611924565b73ffffffffffffffffffffffffffffffffffffffff168373ffffffffffffffffffffffffffffffffffffffff1614806116e157506116e0836116db611924565b61155e565b5b611720576040517f08c379a000000000000000000000000000000000000000000000000000000000815260040161171790614b61565b60405180910390fd5b61172b838383612918565b505050565b600060019054906101000a900460ff166117585760008054906101000a900460ff1615611761565b611760612b37565b5b6117a0576040517f08c379a000000000000000000000000000000000000000000000000000000000815260040161179790614bf3565b60405180910390fd5b60008060019054906101000a900460ff1615905080156117f0576001600060016101000a81548160ff02191690831515021790555060016000806101000a81548160ff0219169083151502179055505b6117f982612b48565b61180d6000801b611808611924565b612ba3565b61183e7f9f2df0fed2c77648de5860a4cc508cd0818c85b8b8a1ab4ceeef8d981c8956a6611839611924565b612ba3565b61186f7f61c92169ef077349011ff0b1383c894d86c5f0b41d986366b58a6cf31e93beda61186a611924565b612ba3565b80156118905760008060016101000a81548160ff0219169083151502179055505b5050565b60016010610500901b6118a79190614510565b81565b60007f7965db0b000000000000000000000000000000000000000000000000000000007bffffffffffffffffffffffffffffffffffffffffffffffffffffffff1916827bffffffffffffffffffffffffffffffffffffffffffffffffffffffff1916148061191d575061191c82612bb1565b5b9050919050565b600033905090565b80606790805190602001906119429291906135be565b5050565b600073ffffffffffffffffffffffffffffffffffffffff168473ffffffffffffffffffffffffffffffffffffffff1614156119b6576040517f08c379a00000000000000000000000000000000000000000000000000000000081526004016119ad90614c85565b60405180910390fd5b60006119c0611924565b90506119e1816000876119d288612c93565b6119db88612c93565b87612d0d565b826065600086815260200190815260200160002060008773ffffffffffffffffffffffffffffffffffffffff1673ffffffffffffffffffffffffffffffffffffffff1681526020019081526020016000206000828254611a419190614510565b925050819055508473ffffffffffffffffffffffffffffffffffffffff16600073ffffffffffffffffffffffffffffffffffffffff168273ffffffffffffffffffffffffffffffffffffffff167fc3d58168c5ae7397731d063d5bbf3d657854427343f4c083240f7aacaa2d0f628787604051611abf929190614ca5565b60405180910390a4611ad681600087878787612d23565b5050505050565b600073ffffffffffffffffffffffffffffffffffffffff168473ffffffffffffffffffffffffffffffffffffffff161415611b4d576040517f08c379a0000000000000000000000000000000000000000000000000000000008152600401611b4490614c85565b60405180910390fd5b8151835114611b91576040517f08c379a0000000000000000000000000000000000000000000000000000000008152600401611b8890614d40565b60405180910390fd5b6000611b9b611924565b9050611bac81600087878787612d0d565b60005b8451811015611c6657838181518110611bcb57611bca61490a565b5b602002602001015160656000878481518110611bea57611be961490a565b5b6020026020010151815260200190815260200160002060008873ffffffffffffffffffffffffffffffffffffffff1673ffffffffffffffffffffffffffffffffffffffff1681526020019081526020016000206000828254611c4c9190614510565b925050819055508080611c5e906146c5565b915050611baf565b508473ffffffffffffffffffffffffffffffffffffffff16600073ffffffffffffffffffffffffffffffffffffffff168273ffffffffffffffffffffffffffffffffffffffff167f4a39dc06d4c0dbc64b70af90fd698a233a518aa5d07e595d983b8c0526c8f7fb8787604051611cde929190614d60565b60405180910390a4611cf581600087878787612efb565b5050505050565b8151835114611d40576040517f08c379a0000000000000000000000000000000000000000000000000000000008152600401611d3790614d40565b60405180910390fd5b600073ffffffffffffffffffffffffffffffffffffffff168473ffffffffffffffffffffffffffffffffffffffff161415611db0576040517f08c379a0000000000000000000000000000000000000000000000000000000008152600401611da790614e09565b60405180910390fd5b6000611dba611924565b9050611dca818787878787612d0d565b60005b8451811015611f7e576000858281518110611deb57611dea61490a565b5b602002602001015190506000858381518110611e0a57611e0961490a565b5b6020026020010151905060006065600084815260200190815260200160002060008b73ffffffffffffffffffffffffffffffffffffffff1673ffffffffffffffffffffffffffffffffffffffff16815260200190815260200160002054905081811015611eac576040517f08c379a0000000000000000000000000000000000000000000000000000000008152600401611ea390614e9b565b60405180910390fd5b8181036065600085815260200190815260200160002060008c73ffffffffffffffffffffffffffffffffffffffff1673ffffffffffffffffffffffffffffffffffffffff16815260200190815260200160002081905550816065600085815260200190815260200160002060008b73ffffffffffffffffffffffffffffffffffffffff1673ffffffffffffffffffffffffffffffffffffffff1681526020019081526020016000206000828254611f639190614510565b9250508190555050505080611f77906146c5565b9050611dcd565b508473ffffffffffffffffffffffffffffffffffffffff168673ffffffffffffffffffffffffffffffffffffffff168273ffffffffffffffffffffffffffffffffffffffff167f4a39dc06d4c0dbc64b70af90fd698a233a518aa5d07e595d983b8c0526c8f7fb8787604051611ff5929190614d60565b60405180910390a461200b818787878787612efb565b505050505050565b61201d828261131b565b6120ac576120428173ffffffffffffffffffffffffffffffffffffffff1660146130d3565b6120508360001c60206130d3565b604051602001612061929190614f8f565b6040516020818303038152906040526040517f08c379a00000000000000000000000000000000000000000000000000000000081526004016120a39190613a72565b60405180910390fd5b5050565b6120ba828261131b565b61218d5760016097600084815260200190815260200160002060000160008373ffffffffffffffffffffffffffffffffffffffff1673ffffffffffffffffffffffffffffffffffffffff16815260200190815260200160002060006101000a81548160ff021916908315150217905550612132611924565b73ffffffffffffffffffffffffffffffffffffffff168173ffffffffffffffffffffffffffffffffffffffff16837f2f8788117e7eff1d82e926ec794901d17c78024a50270940304540a733656f0d60405160405180910390a45b5050565b61219b828261131b565b1561226f5760006097600084815260200190815260200160002060000160008373ffffffffffffffffffffffffffffffffffffffff1673ffffffffffffffffffffffffffffffffffffffff16815260200190815260200160002060006101000a81548160ff021916908315150217905550612214611924565b73ffffffffffffffffffffffffffffffffffffffff168173ffffffffffffffffffffffffffffffffffffffff16837ff6391f5c32d9c69d2a47ea670b442974b53935d1edc7fd64eb21e047a839171b60405160405180910390a45b5050565b600073ffffffffffffffffffffffffffffffffffffffff168373ffffffffffffffffffffffffffffffffffffffff1614156122e3576040517f08c379a00000000000000000000000000000000000000000000000000000000081526004016122da9061503b565b60405180910390fd5b8051825114612327576040517f08c379a000000000000000000000000000000000000000000000000000000000815260040161231e90614d40565b60405180910390fd5b6000612331611924565b905061235181856000868660405180602001604052806000815250612d0d565b60005b83518110156124a05760008482815181106123725761237161490a565b5b6020026020010151905060008483815181106123915761239061490a565b5b6020026020010151905060006065600084815260200190815260200160002060008973ffffffffffffffffffffffffffffffffffffffff1673ffffffffffffffffffffffffffffffffffffffff16815260200190815260200160002054905081811015612433576040517f08c379a000000000000000000000000000000000000000000000000000000000815260040161242a906150cd565b60405180910390fd5b8181036065600085815260200190815260200160002060008a73ffffffffffffffffffffffffffffffffffffffff1673ffffffffffffffffffffffffffffffffffffffff168152602001908152602001600020819055505050508080612498906146c5565b915050612354565b50600073ffffffffffffffffffffffffffffffffffffffff168473ffffffffffffffffffffffffffffffffffffffff168273ffffffffffffffffffffffffffffffffffffffff167f4a39dc06d4c0dbc64b70af90fd698a233a518aa5d07e595d983b8c0526c8f7fb8686604051612518929190614d60565b60405180910390a450505050565b8173ffffffffffffffffffffffffffffffffffffffff168373ffffffffffffffffffffffffffffffffffffffff161415612595576040517f08c379a000000000000000000000000000000000000000000000000000000000815260040161258c9061515f565b60405180910390fd5b80606660008573ffffffffffffffffffffffffffffffffffffffff1673ffffffffffffffffffffffffffffffffffffffff16815260200190815260200160002060008473ffffffffffffffffffffffffffffffffffffffff1673ffffffffffffffffffffffffffffffffffffffff16815260200190815260200160002060006101000a81548160ff0219169083151502179055508173ffffffffffffffffffffffffffffffffffffffff168373ffffffffffffffffffffffffffffffffffffffff167f17307eab39ab6107e8899845ad3d59bd9653f200f220920489ca2b5937696c31836040516126869190613813565b60405180910390a3505050565b600073ffffffffffffffffffffffffffffffffffffffff168473ffffffffffffffffffffffffffffffffffffffff161415612703576040517f08c379a00000000000000000000000000000000000000000000000000000000081526004016126fa90614e09565b60405180910390fd5b600061270d611924565b905061272d81878761271e88612c93565b61272788612c93565b87612d0d565b60006065600086815260200190815260200160002060008873ffffffffffffffffffffffffffffffffffffffff1673ffffffffffffffffffffffffffffffffffffffff168152602001908152602001600020549050838110156127c5576040517f08c379a00000000000000000000000000000000000000000000000000000000081526004016127bc90614e9b565b60405180910390fd5b8381036065600087815260200190815260200160002060008973ffffffffffffffffffffffffffffffffffffffff1673ffffffffffffffffffffffffffffffffffffffff16815260200190815260200160002081905550836065600087815260200190815260200160002060008873ffffffffffffffffffffffffffffffffffffffff1673ffffffffffffffffffffffffffffffffffffffff168152602001908152602001600020600082825461287c9190614510565b925050819055508573ffffffffffffffffffffffffffffffffffffffff168773ffffffffffffffffffffffffffffffffffffffff168373ffffffffffffffffffffffffffffffffffffffff167fc3d58168c5ae7397731d063d5bbf3d657854427343f4c083240f7aacaa2d0f6288886040516128f9929190614ca5565b60405180910390a461290f828888888888612d23565b50505050505050565b600073ffffffffffffffffffffffffffffffffffffffff168373ffffffffffffffffffffffffffffffffffffffff161415612988576040517f08c379a000000000000000000000000000000000000000000000000000000000815260040161297f9061503b565b60405180910390fd5b6000612992611924565b90506129c2818560006129a487612c93565b6129ad87612c93565b60405180602001604052806000815250612d0d565b60006065600085815260200190815260200160002060008673ffffffffffffffffffffffffffffffffffffffff1673ffffffffffffffffffffffffffffffffffffffff16815260200190815260200160002054905082811015612a5a576040517f08c379a0000000000000000000000000000000000000000000000000000000008152600401612a51906150cd565b60405180910390fd5b8281036065600086815260200190815260200160002060008773ffffffffffffffffffffffffffffffffffffffff1673ffffffffffffffffffffffffffffffffffffffff16815260200190815260200160002081905550600073ffffffffffffffffffffffffffffffffffffffff168573ffffffffffffffffffffffffffffffffffffffff168373ffffffffffffffffffffffffffffffffffffffff167fc3d58168c5ae7397731d063d5bbf3d657854427343f4c083240f7aacaa2d0f628787604051612b28929190614ca5565b60405180910390a45050505050565b6000612b423061330f565b15905090565b600060019054906101000a900460ff16612b97576040517f08c379a0000000000000000000000000000000000000000000000000000000008152600401612b8e906151f1565b60405180910390fd5b612ba081613332565b50565b612bad82826120b0565b5050565b60007fd9b67a26000000000000000000000000000000000000000000000000000000007bffffffffffffffffffffffffffffffffffffffffffffffffffffffff1916827bffffffffffffffffffffffffffffffffffffffffffffffffffffffff19161480612c7c57507f0e89341c000000000000000000000000000000000000000000000000000000007bffffffffffffffffffffffffffffffffffffffffffffffffffffffff1916827bffffffffffffffffffffffffffffffffffffffffffffffffffffffff1916145b80612c8c5750612c8b8261338d565b5b9050919050565b60606000600167ffffffffffffffff811115612cb257612cb1613849565b5b604051908082528060200260200182016040528015612ce05781602001602082028036833780820191505090505b5090508281600081518110612cf857612cf761490a565b5b60200260200101818152505080915050919050565b612d1b8686868686866133f7565b505050505050565b612d428473ffffffffffffffffffffffffffffffffffffffff1661330f565b15612ef3578373ffffffffffffffffffffffffffffffffffffffff1663f23a6e6187878686866040518663ffffffff1660e01b8152600401612d88959493929190615275565b6020604051808303816000875af1925050508015612dc457506040513d601f19601f82011682018060405250810190612dc191906152e4565b60015b612e6a57612dd061531e565b806308c379a01415612e2d5750612de5615340565b80612df05750612e2f565b806040517f08c379a0000000000000000000000000000000000000000000000000000000008152600401612e249190613a72565b60405180910390fd5b505b6040517f08c379a0000000000000000000000000000000000000000000000000000000008152600401612e6190615448565b60405180910390fd5b63f23a6e6160e01b7bffffffffffffffffffffffffffffffffffffffffffffffffffffffff1916817bffffffffffffffffffffffffffffffffffffffffffffffffffffffff191614612ef1576040517f08c379a0000000000000000000000000000000000000000000000000000000008152600401612ee8906154da565b60405180910390fd5b505b505050505050565b612f1a8473ffffffffffffffffffffffffffffffffffffffff1661330f565b156130cb578373ffffffffffffffffffffffffffffffffffffffff1663bc197c8187878686866040518663ffffffff1660e01b8152600401612f609594939291906154fa565b6020604051808303816000875af1925050508015612f9c57506040513d601f19601f82011682018060405250810190612f9991906152e4565b60015b61304257612fa861531e565b806308c379a014156130055750612fbd615340565b80612fc85750613007565b806040517f08c379a0000000000000000000000000000000000000000000000000000000008152600401612ffc9190613a72565b60405180910390fd5b505b6040517f08c379a000000000000000000000000000000000000000000000000000000000815260040161303990615448565b60405180910390fd5b63bc197c8160e01b7bffffffffffffffffffffffffffffffffffffffffffffffffffffffff1916817bffffffffffffffffffffffffffffffffffffffffffffffffffffffff1916146130c9576040517f08c379a00000000000000000000000000000000000000000000000000000000081526004016130c0906154da565b60405180910390fd5b505b505050505050565b6060600060028360026130e69190615562565b6130f09190614510565b67ffffffffffffffff81111561310957613108613849565b5b6040519080825280601f01601f19166020018201604052801561313b5781602001600182028036833780820191505090505b5090507f3000000000000000000000000000000000000000000000000000000000000000816000815181106131735761317261490a565b5b60200101907effffffffffffffffffffffffffffffffffffffffffffffffffffffffffffff1916908160001a9053507f7800000000000000000000000000000000000000000000000000000000000000816001815181106131d7576131d661490a565b5b60200101907effffffffffffffffffffffffffffffffffffffffffffffffffffffffffffff1916908160001a905350600060018460026132179190615562565b6132219190614510565b90505b60018111156132c1577f3031323334353637383961626364656600000000000000000000000000000000600f8616601081106132635761326261490a565b5b1a60f81b82828151811061327a5761327961490a565b5b60200101907effffffffffffffffffffffffffffffffffffffffffffffffffffffffffffff1916908160001a905350600485901c9450806132ba906155bc565b9050613224565b5060008414613305576040517f08c379a00000000000000000000000000000000000000000000000000000000081526004016132fc90615632565b60405180910390fd5b8091505092915050565b6000808273ffffffffffffffffffffffffffffffffffffffff163b119050919050565b600060019054906101000a900460ff16613381576040517f08c379a0000000000000000000000000000000000000000000000000000000008152600401613378906151f1565b60405180910390fd5b61338a8161192c565b50565b60007f01ffc9a7000000000000000000000000000000000000000000000000000000007bffffffffffffffffffffffffffffffffffffffffffffffffffffffff1916827bffffffffffffffffffffffffffffffffffffffffffffffffffffffff1916149050919050565b613405868686868686613571565b600073ffffffffffffffffffffffffffffffffffffffff168573ffffffffffffffffffffffffffffffffffffffff1614156134b75760005b83518110156134b5578281815181106134595761345861490a565b5b602002602001015160fb60008684815181106134785761347761490a565b5b60200260200101518152602001908152602001600020600082825461349d9190614510565b92505081905550806134ae906146c5565b905061343d565b505b600073ffffffffffffffffffffffffffffffffffffffff168473ffffffffffffffffffffffffffffffffffffffff1614156135695760005b83518110156135675782818151811061350b5761350a61490a565b5b602002602001015160fb600086848151811061352a5761352961490a565b5b60200260200101518152602001908152602001600020600082825461354f9190615652565b9250508190555080613560906146c5565b90506134ef565b505b505050505050565b505050505050565b60405180610100016040528060008152602001600081526020016000815260200160008152602001600081526020016000815260200160008152602001600081525090565b8280546135ca90614595565b90600052602060002090601f0160209004810192826135ec5760008555613633565b82601f1061360557805160ff1916838001178555613633565b82800160010185558215613633579182015b82811115613632578251825591602001919060010190613617565b5b5090506136409190613644565b5090565b5b8082111561365d576000816000905550600101613645565b5090565b6000604051905090565b600080fd5b600080fd5b600073ffffffffffffffffffffffffffffffffffffffff82169050919050565b60006136a082613675565b9050919050565b6136b081613695565b81146136bb57600080fd5b50565b6000813590506136cd816136a7565b92915050565b6000819050919050565b6136e6816136d3565b81146136f157600080fd5b50565b600081359050613703816136dd565b92915050565b600080604083850312156137205761371f61366b565b5b600061372e858286016136be565b925050602061373f858286016136f4565b9150509250929050565b613752816136d3565b82525050565b600060208201905061376d6000830184613749565b92915050565b60007fffffffff0000000000000000000000000000000000000000000000000000000082169050919050565b6137a881613773565b81146137b357600080fd5b50565b6000813590506137c58161379f565b92915050565b6000602082840312156137e1576137e061366b565b5b60006137ef848285016137b6565b91505092915050565b60008115159050919050565b61380d816137f8565b82525050565b60006020820190506138286000830184613804565b92915050565b600080fd5b600080fd5b6000601f19601f8301169050919050565b7f4e487b7100000000000000000000000000000000000000000000000000000000600052604160045260246000fd5b61388182613838565b810181811067ffffffffffffffff821117156138a05761389f613849565b5b80604052505050565b60006138b3613661565b90506138bf8282613878565b919050565b600067ffffffffffffffff8211156138df576138de613849565b5b6138e882613838565b9050602081019050919050565b82818337600083830152505050565b6000613917613912846138c4565b6138a9565b90508281526020810184848401111561393357613932613833565b5b61393e8482856138f5565b509392505050565b600082601f83011261395b5761395a61382e565b5b813561396b848260208601613904565b91505092915050565b60006020828403121561398a5761398961366b565b5b600082013567ffffffffffffffff8111156139a8576139a7613670565b5b6139b484828501613946565b91505092915050565b6000602082840312156139d3576139d261366b565b5b60006139e1848285016136f4565b91505092915050565b600081519050919050565b600082825260208201905092915050565b60005b83811015613a24578082015181840152602081019050613a09565b83811115613a33576000848401525b50505050565b6000613a44826139ea565b613a4e81856139f5565b9350613a5e818560208601613a06565b613a6781613838565b840191505092915050565b60006020820190508181036000830152613a8c8184613a39565b905092915050565b600080600060608486031215613aad57613aac61366b565b5b6000613abb868287016136be565b9350506020613acc868287016136f4565b9250506040613add868287016136f4565b9150509250925092565b600080fd5b60006101008284031215613b0357613b02613ae7565b5b613b0e6101006138a9565b90506000613b1e848285016136f4565b6000830152506020613b32848285016136f4565b6020830152506040613b46848285016136f4565b6040830152506060613b5a848285016136f4565b6060830152506080613b6e848285016136f4565b60808301525060a0613b82848285016136f4565b60a08301525060c0613b96848285016136f4565b60c08301525060e0613baa848285016136f4565b60e08301525092915050565b6000806101208385031215613bce57613bcd61366b565b5b6000613bdc858286016136f4565b9250506020613bed85828601613aec565b9150509250929050565b6000819050919050565b613c0a81613bf7565b8114613c1557600080fd5b50565b600081359050613c2781613c01565b92915050565b600060208284031215613c4357613c4261366b565b5b6000613c5184828501613c18565b91505092915050565b613c6381613bf7565b82525050565b6000602082019050613c7e6000830184613c5a565b92915050565b600067ffffffffffffffff821115613c9f57613c9e613849565b5b602082029050602081019050919050565b600080fd5b6000613cc8613cc384613c84565b6138a9565b90508083825260208201905060208402830185811115613ceb57613cea613cb0565b5b835b81811015613d145780613d0088826136f4565b845260208401935050602081019050613ced565b5050509392505050565b600082601f830112613d3357613d3261382e565b5b8135613d43848260208601613cb5565b91505092915050565b600067ffffffffffffffff821115613d6757613d66613849565b5b613d7082613838565b9050602081019050919050565b6000613d90613d8b84613d4c565b6138a9565b905082815260208101848484011115613dac57613dab613833565b5b613db78482856138f5565b509392505050565b600082601f830112613dd457613dd361382e565b5b8135613de4848260208601613d7d565b91505092915050565b600080600080600060a08688031215613e0957613e0861366b565b5b6000613e17888289016136be565b9550506020613e28888289016136be565b945050604086013567ffffffffffffffff811115613e4957613e48613670565b5b613e5588828901613d1e565b935050606086013567ffffffffffffffff811115613e7657613e75613670565b5b613e8288828901613d1e565b925050608086013567ffffffffffffffff811115613ea357613ea2613670565b5b613eaf88828901613dbf565b9150509295509295909350565b60008060408385031215613ed357613ed261366b565b5b6000613ee185828601613c18565b9250506020613ef2858286016136be565b9150509250929050565b60008060408385031215613f1357613f1261366b565b5b6000613f21858286016136f4565b9250506020613f32858286016136f4565b9150509250929050565b600067ffffffffffffffff821115613f5757613f56613849565b5b602082029050602081019050919050565b6000613f7b613f7684613f3c565b6138a9565b90508083825260208201905060208402830185811115613f9e57613f9d613cb0565b5b835b81811015613fc75780613fb388826136be565b845260208401935050602081019050613fa0565b5050509392505050565b600082601f830112613fe657613fe561382e565b5b8135613ff6848260208601613f68565b91505092915050565b600080604083850312156140165761401561366b565b5b600083013567ffffffffffffffff81111561403457614033613670565b5b61404085828601613fd1565b925050602083013567ffffffffffffffff81111561406157614060613670565b5b61406d85828601613d1e565b9150509250929050565b600081519050919050565b600082825260208201905092915050565b6000819050602082019050919050565b6140ac816136d3565b82525050565b60006140be83836140a3565b60208301905092915050565b6000602082019050919050565b60006140e282614077565b6140ec8185614082565b93506140f783614093565b8060005b8381101561412857815161410f88826140b2565b975061411a836140ca565b9250506001810190506140fb565b5085935050505092915050565b6000602082019050818103600083015261414f81846140d7565b905092915050565b6000806000606084860312156141705761416f61366b565b5b600061417e868287016136be565b935050602084013567ffffffffffffffff81111561419f5761419e613670565b5b6141ab86828701613d1e565b925050604084013567ffffffffffffffff8111156141cc576141cb613670565b5b6141d886828701613d1e565b9150509250925092565b6141eb816137f8565b81146141f657600080fd5b50565b600081359050614208816141e2565b92915050565b600080604083850312156142255761422461366b565b5b6000614233858286016136be565b9250506020614244858286016141f9565b9150509250929050565b6101008201600082015161426560008501826140a3565b50602082015161427860208501826140a3565b50604082015161428b60408501826140a3565b50606082015161429e60608501826140a3565b5060808201516142b160808501826140a3565b5060a08201516142c460a08501826140a3565b5060c08201516142d760c08501826140a3565b5060e08201516142ea60e08501826140a3565b50505050565b600061010082019050614306600083018461424e565b92915050565b600080604083850312156143235761432261366b565b5b6000614331858286016136be565b9250506020614342858286016136be565b9150509250929050565b600080600080600060a086880312156143685761436761366b565b5b6000614376888289016136be565b9550506020614387888289016136be565b9450506040614398888289016136f4565b93505060606143a9888289016136f4565b925050608086013567ffffffffffffffff8111156143ca576143c9613670565b5b6143d688828901613dbf565b9150509295509295909350565b7f455243313135353a2062616c616e636520717565727920666f7220746865207a60008201527f65726f2061646472657373000000000000000000000000000000000000000000602082015250565b600061443f602b836139f5565b915061444a826143e3565b604082019050919050565b6000602082019050818103600083015261446e81614432565b9050919050565b7f6e6565642044454641554c545f41444d494e5f524f4c45000000000000000000600082015250565b60006144ab6017836139f5565b91506144b682614475565b602082019050919050565b600060208201905081810360008301526144da8161449e565b9050919050565b7f4e487b7100000000000000000000000000000000000000000000000000000000600052601160045260246000fd5b600061451b826136d3565b9150614526836136d3565b9250827fffffffffffffffffffffffffffffffffffffffffffffffffffffffffffffffff0382111561455b5761455a6144e1565b5b828201905092915050565b7f4e487b7100000000000000000000000000000000000000000000000000000000600052602260045260246000fd5b600060028204905060018216806145ad57607f821691505b602082108114156145c1576145c0614566565b5b50919050565b7f4d45544152554e434f4c4c454354494f4e3a206e656564204d494e5445525f5260008201527f4f4c450000000000000000000000000000000000000000000000000000000000602082015250565b60006146236023836139f5565b915061462e826145c7565b604082019050919050565b6000602082019050818103600083015261465281614616565b9050919050565b7f43616e6e6f74206d696e74206d6f7265207468616e206f6e65206974656d0000600082015250565b600061468f601e836139f5565b915061469a82614659565b602082019050919050565b600060208201905081810360008301526146be81614682565b9050919050565b60006146d0826136d3565b91507fffffffffffffffffffffffffffffffffffffffffffffffffffffffffffffffff821415614703576147026144e1565b5b600182019050919050565b7f5065726b732061726520617661696c61626c65206f6e6c7920666f722063686160008201527f7261637465727320616e64207065747300000000000000000000000000000000602082015250565b600061476a6030836139f5565b91506147758261470e565b604082019050919050565b600060208201905081810360008301526147998161475d565b9050919050565b7f6e656564205345545445525f524f4c4500000000000000000000000000000000600082015250565b60006147d66010836139f5565b91506147e1826147a0565b602082019050919050565b60006020820190508181036000830152614805816147c9565b9050919050565b7f4d696e74206d616e7920697320617661696c61626c65206f6e6c7920666f722060008201527f4e46540000000000000000000000000000000000000000000000000000000000602082015250565b60006148686023836139f5565b91506148738261480c565b604082019050919050565b600060208201905081810360008301526148978161485b565b9050919050565b7f436f756e742073686f756c642062652067726561746572207468616e20300000600082015250565b60006148d4601e836139f5565b91506148df8261489e565b602082019050919050565b60006020820190508181036000830152614903816148c7565b9050919050565b7f4e487b7100000000000000000000000000000000000000000000000000000000600052603260045260246000fd5b7f455243313135353a207472616e736665722063616c6c6572206973206e6f742060008201527f6f776e6572206e6f7220617070726f7665640000000000000000000000000000602082015250565b60006149956032836139f5565b91506149a082614939565b604082019050919050565b600060208201905081810360008301526149c481614988565b9050919050565b7f416363657373436f6e74726f6c3a2063616e206f6e6c792072656e6f756e636560008201527f20726f6c657320666f722073656c660000000000000000000000000000000000602082015250565b6000614a27602f836139f5565b9150614a32826149cb565b604082019050919050565b60006020820190508181036000830152614a5681614a1a565b9050919050565b7f455243313135353a206163636f756e747320616e6420696473206c656e67746860008201527f206d69736d617463680000000000000000000000000000000000000000000000602082015250565b6000614ab96029836139f5565b9150614ac482614a5d565b604082019050919050565b60006020820190508181036000830152614ae881614aac565b9050919050565b7f455243313135353a2063616c6c6572206973206e6f74206f776e6572206e6f7260008201527f20617070726f7665640000000000000000000000000000000000000000000000602082015250565b6000614b4b6029836139f5565b9150614b5682614aef565b604082019050919050565b60006020820190508181036000830152614b7a81614b3e565b9050919050565b7f496e697469616c697a61626c653a20636f6e747261637420697320616c72656160008201527f647920696e697469616c697a6564000000000000000000000000000000000000602082015250565b6000614bdd602e836139f5565b9150614be882614b81565b604082019050919050565b60006020820190508181036000830152614c0c81614bd0565b9050919050565b7f455243313135353a206d696e7420746f20746865207a65726f2061646472657360008201527f7300000000000000000000000000000000000000000000000000000000000000602082015250565b6000614c6f6021836139f5565b9150614c7a82614c13565b604082019050919050565b60006020820190508181036000830152614c9e81614c62565b9050919050565b6000604082019050614cba6000830185613749565b614cc76020830184613749565b9392505050565b7f455243313135353a2069647320616e6420616d6f756e7473206c656e6774682060008201527f6d69736d61746368000000000000000000000000000000000000000000000000602082015250565b6000614d2a6028836139f5565b9150614d3582614cce565b604082019050919050565b60006020820190508181036000830152614d5981614d1d565b9050919050565b60006040820190508181036000830152614d7a81856140d7565b90508181036020830152614d8e81846140d7565b90509392505050565b7f455243313135353a207472616e7366657220746f20746865207a65726f20616460008201527f6472657373000000000000000000000000000000000000000000000000000000602082015250565b6000614df36025836139f5565b9150614dfe82614d97565b604082019050919050565b60006020820190508181036000830152614e2281614de6565b9050919050565b7f455243313135353a20696e73756666696369656e742062616c616e636520666f60008201527f72207472616e7366657200000000000000000000000000000000000000000000602082015250565b6000614e85602a836139f5565b9150614e9082614e29565b604082019050919050565b60006020820190508181036000830152614eb481614e78565b9050919050565b600081905092915050565b7f416363657373436f6e74726f6c3a206163636f756e7420000000000000000000600082015250565b6000614efc601783614ebb565b9150614f0782614ec6565b601782019050919050565b6000614f1d826139ea565b614f278185614ebb565b9350614f37818560208601613a06565b80840191505092915050565b7f206973206d697373696e6720726f6c6520000000000000000000000000000000600082015250565b6000614f79601183614ebb565b9150614f8482614f43565b601182019050919050565b6000614f9a82614eef565b9150614fa68285614f12565b9150614fb182614f6c565b9150614fbd8284614f12565b91508190509392505050565b7f455243313135353a206275726e2066726f6d20746865207a65726f206164647260008201527f6573730000000000000000000000000000000000000000000000000000000000602082015250565b60006150256023836139f5565b915061503082614fc9565b604082019050919050565b6000602082019050818103600083015261505481615018565b9050919050565b7f455243313135353a206275726e20616d6f756e7420657863656564732062616c60008201527f616e636500000000000000000000000000000000000000000000000000000000602082015250565b60006150b76024836139f5565b91506150c28261505b565b604082019050919050565b600060208201905081810360008301526150e6816150aa565b9050919050565b7f455243313135353a2073657474696e6720617070726f76616c2073746174757360008201527f20666f722073656c660000000000000000000000000000000000000000000000602082015250565b60006151496029836139f5565b9150615154826150ed565b604082019050919050565b600060208201905081810360008301526151788161513c565b9050919050565b7f496e697469616c697a61626c653a20636f6e7472616374206973206e6f74206960008201527f6e697469616c697a696e67000000000000000000000000000000000000000000602082015250565b60006151db602b836139f5565b91506151e68261517f565b604082019050919050565b6000602082019050818103600083015261520a816151ce565b9050919050565b61521a81613695565b82525050565b600081519050919050565b600082825260208201905092915050565b600061524782615220565b615251818561522b565b9350615261818560208601613a06565b61526a81613838565b840191505092915050565b600060a08201905061528a6000830188615211565b6152976020830187615211565b6152a46040830186613749565b6152b16060830185613749565b81810360808301526152c3818461523c565b90509695505050505050565b6000815190506152de8161379f565b92915050565b6000602082840312156152fa576152f961366b565b5b6000615308848285016152cf565b91505092915050565b60008160e01c9050919050565b600060033d111561533d5760046000803e61533a600051615311565b90505b90565b600060443d1015615350576153d3565b615358613661565b60043d036004823e80513d602482011167ffffffffffffffff821117156153805750506153d3565b808201805167ffffffffffffffff81111561539e57505050506153d3565b80602083010160043d0385018111156153bb5750505050506153d3565b6153ca82602001850186613878565b82955050505050505b90565b7f455243313135353a207472616e7366657220746f206e6f6e204552433131353560008201527f526563656976657220696d706c656d656e746572000000000000000000000000602082015250565b60006154326034836139f5565b915061543d826153d6565b604082019050919050565b6000602082019050818103600083015261546181615425565b9050919050565b7f455243313135353a204552433131353552656365697665722072656a6563746560008201527f6420746f6b656e73000000000000000000000000000000000000000000000000602082015250565b60006154c46028836139f5565b91506154cf82615468565b604082019050919050565b600060208201905081810360008301526154f3816154b7565b9050919050565b600060a08201905061550f6000830188615211565b61551c6020830187615211565b818103604083015261552e81866140d7565b9050818103606083015261554281856140d7565b90508181036080830152615556818461523c565b90509695505050505050565b600061556d826136d3565b9150615578836136d3565b9250817fffffffffffffffffffffffffffffffffffffffffffffffffffffffffffffffff04831182151516156155b1576155b06144e1565b5b828202905092915050565b60006155c7826136d3565b915060008214156155db576155da6144e1565b5b600182039050919050565b7f537472696e67733a20686578206c656e67746820696e73756666696369656e74600082015250565b600061561c6020836139f5565b9150615627826155e6565b602082019050919050565b6000602082019050818103600083015261564b8161560f565b9050919050565b600061565d826136d3565b9150615668836136d3565b92508282101561567b5761567a6144e1565b5b82820390509291505056fea26469706673582212204eef83d4a813701e9fa5c1e98a278d6e2b4f2770dc0ac7c7083c891d610ffdaf64736f6c634300080b0033",
  "devdoc": {
    "kind": "dev",
    "methods": {
      "balanceOf(address,uint256)": {
        "details": "See {IERC1155-balanceOf}. Requirements: - `account` cannot be the zero address."
      },
      "balanceOfBatch(address[],uint256[])": {
        "details": "See {IERC1155-balanceOfBatch}. Requirements: - `accounts` and `ids` must have the same length."
      },
      "exists(uint256)": {
        "details": "Indicates whether any token exist with a given id, or not."
      },
      "getRoleAdmin(bytes32)": {
        "details": "Returns the admin role that controls `role`. See {grantRole} and {revokeRole}. To change a role's admin, use {_setRoleAdmin}."
      },
      "grantRole(bytes32,address)": {
        "details": "Grants `role` to `account`. If `account` had not been already granted `role`, emits a {RoleGranted} event. Requirements: - the caller must have ``role``'s admin role."
      },
      "hasRole(bytes32,address)": {
        "details": "Returns `true` if `account` has been granted `role`."
      },
      "isApprovedForAll(address,address)": {
        "details": "See {IERC1155-isApprovedForAll}."
      },
      "renounceRole(bytes32,address)": {
        "details": "Revokes `role` from the calling account. Roles are often managed via {grantRole} and {revokeRole}: this function's purpose is to provide a mechanism for accounts to lose their privileges if they are compromised (such as when a trusted device is misplaced). If the calling account had been revoked `role`, emits a {RoleRevoked} event. Requirements: - the caller must be `account`."
      },
      "revokeRole(bytes32,address)": {
        "details": "Revokes `role` from `account`. If `account` had been granted `role`, emits a {RoleRevoked} event. Requirements: - the caller must have ``role``'s admin role."
      },
      "safeBatchTransferFrom(address,address,uint256[],uint256[],bytes)": {
        "details": "See {IERC1155-safeBatchTransferFrom}."
      },
      "safeTransferFrom(address,address,uint256,uint256,bytes)": {
        "details": "See {IERC1155-safeTransferFrom}."
      },
      "setApprovalForAll(address,bool)": {
        "details": "See {IERC1155-setApprovalForAll}."
      },
      "totalSupply(uint256)": {
        "details": "Total amount of tokens in with a given id."
      },
      "uri(uint256)": {
        "details": "See {IERC1155MetadataURI-uri}. This implementation returns the same URI for *all* token types. It relies on the token type ID substitution mechanism https://eips.ethereum.org/EIPS/eip-1155#metadata[defined in the EIP]. Clients calling this function must replace the `\\{id\\}` substring with the actual token type ID."
      }
    },
    "version": 1
  },
  "userdoc": {
    "kind": "user",
    "methods": {},
    "version": 1
  },
  "storageLayout": {
    "storage": [
      {
        "astId": 532,
        "contract": "contracts/MetarunCollection.sol:MetarunCollection",
        "label": "_initialized",
        "offset": 0,
        "slot": "0",
        "type": "t_bool"
      },
      {
        "astId": 535,
        "contract": "contracts/MetarunCollection.sol:MetarunCollection",
        "label": "_initializing",
        "offset": 1,
        "slot": "0",
        "type": "t_bool"
      },
      {
        "astId": 2723,
        "contract": "contracts/MetarunCollection.sol:MetarunCollection",
        "label": "__gap",
        "offset": 0,
        "slot": "1",
        "type": "t_array(t_uint256)50_storage"
      },
      {
        "astId": 2970,
        "contract": "contracts/MetarunCollection.sol:MetarunCollection",
        "label": "__gap",
        "offset": 0,
        "slot": "51",
        "type": "t_array(t_uint256)50_storage"
      },
      {
        "astId": 628,
        "contract": "contracts/MetarunCollection.sol:MetarunCollection",
        "label": "_balances",
        "offset": 0,
        "slot": "101",
        "type": "t_mapping(t_uint256,t_mapping(t_address,t_uint256))"
      },
      {
        "astId": 634,
        "contract": "contracts/MetarunCollection.sol:MetarunCollection",
        "label": "_operatorApprovals",
        "offset": 0,
        "slot": "102",
        "type": "t_mapping(t_address,t_mapping(t_address,t_bool))"
      },
      {
        "astId": 636,
        "contract": "contracts/MetarunCollection.sol:MetarunCollection",
        "label": "_uri",
        "offset": 0,
        "slot": "103",
        "type": "t_string_storage"
      },
      {
        "astId": 1716,
        "contract": "contracts/MetarunCollection.sol:MetarunCollection",
        "label": "__gap",
        "offset": 0,
        "slot": "104",
        "type": "t_array(t_uint256)47_storage"
      },
      {
        "astId": 39,
        "contract": "contracts/MetarunCollection.sol:MetarunCollection",
        "label": "_roles",
        "offset": 0,
        "slot": "151",
        "type": "t_mapping(t_bytes32,t_struct(RoleData)34_storage)"
      },
      {
        "astId": 327,
        "contract": "contracts/MetarunCollection.sol:MetarunCollection",
        "label": "__gap",
        "offset": 0,
        "slot": "152",
        "type": "t_array(t_uint256)49_storage"
      },
      {
        "astId": 1968,
        "contract": "contracts/MetarunCollection.sol:MetarunCollection",
        "label": "__gap",
        "offset": 0,
        "slot": "201",
        "type": "t_array(t_uint256)50_storage"
      },
      {
        "astId": 1994,
        "contract": "contracts/MetarunCollection.sol:MetarunCollection",
        "label": "_totalSupply",
        "offset": 0,
        "slot": "251",
        "type": "t_mapping(t_uint256,t_uint256)"
      },
      {
        "astId": 2121,
        "contract": "contracts/MetarunCollection.sol:MetarunCollection",
        "label": "__gap",
        "offset": 0,
        "slot": "252",
        "type": "t_array(t_uint256)49_storage"
      },
      {
        "astId": 4970,
        "contract": "contracts/MetarunCollection.sol:MetarunCollection",
        "label": "kindSupply",
        "offset": 0,
        "slot": "301",
        "type": "t_mapping(t_uint256,t_uint256)"
      },
      {
        "astId": 4992,
        "contract": "contracts/MetarunCollection.sol:MetarunCollection",
        "label": "tokenPerks",
        "offset": 0,
        "slot": "302",
        "type": "t_mapping(t_uint256,t_struct(Perks)4987_storage)"
      }
    ],
    "types": {
      "t_address": {
        "encoding": "inplace",
        "label": "address",
        "numberOfBytes": "20"
      },
      "t_array(t_uint256)47_storage": {
        "base": "t_uint256",
        "encoding": "inplace",
        "label": "uint256[47]",
        "numberOfBytes": "1504"
      },
      "t_array(t_uint256)49_storage": {
        "base": "t_uint256",
        "encoding": "inplace",
        "label": "uint256[49]",
        "numberOfBytes": "1568"
      },
      "t_array(t_uint256)50_storage": {
        "base": "t_uint256",
        "encoding": "inplace",
        "label": "uint256[50]",
        "numberOfBytes": "1600"
      },
      "t_bool": {
        "encoding": "inplace",
        "label": "bool",
        "numberOfBytes": "1"
      },
      "t_bytes32": {
        "encoding": "inplace",
        "label": "bytes32",
        "numberOfBytes": "32"
      },
      "t_mapping(t_address,t_bool)": {
        "encoding": "mapping",
        "key": "t_address",
        "label": "mapping(address => bool)",
        "numberOfBytes": "32",
        "value": "t_bool"
      },
      "t_mapping(t_address,t_mapping(t_address,t_bool))": {
        "encoding": "mapping",
        "key": "t_address",
        "label": "mapping(address => mapping(address => bool))",
        "numberOfBytes": "32",
        "value": "t_mapping(t_address,t_bool)"
      },
      "t_mapping(t_address,t_uint256)": {
        "encoding": "mapping",
        "key": "t_address",
        "label": "mapping(address => uint256)",
        "numberOfBytes": "32",
        "value": "t_uint256"
      },
      "t_mapping(t_bytes32,t_struct(RoleData)34_storage)": {
        "encoding": "mapping",
        "key": "t_bytes32",
        "label": "mapping(bytes32 => struct AccessControlUpgradeable.RoleData)",
        "numberOfBytes": "32",
        "value": "t_struct(RoleData)34_storage"
      },
      "t_mapping(t_uint256,t_mapping(t_address,t_uint256))": {
        "encoding": "mapping",
        "key": "t_uint256",
        "label": "mapping(uint256 => mapping(address => uint256))",
        "numberOfBytes": "32",
        "value": "t_mapping(t_address,t_uint256)"
      },
      "t_mapping(t_uint256,t_struct(Perks)4987_storage)": {
        "encoding": "mapping",
        "key": "t_uint256",
        "label": "mapping(uint256 => struct MetarunCollection.Perks)",
        "numberOfBytes": "32",
        "value": "t_struct(Perks)4987_storage"
      },
      "t_mapping(t_uint256,t_uint256)": {
        "encoding": "mapping",
        "key": "t_uint256",
        "label": "mapping(uint256 => uint256)",
        "numberOfBytes": "32",
        "value": "t_uint256"
      },
      "t_string_storage": {
        "encoding": "bytes",
        "label": "string",
        "numberOfBytes": "32"
      },
      "t_struct(Perks)4987_storage": {
        "encoding": "inplace",
        "label": "struct MetarunCollection.Perks",
        "members": [
          {
            "astId": 4972,
            "contract": "contracts/MetarunCollection.sol:MetarunCollection",
            "label": "level",
            "offset": 0,
            "slot": "0",
            "type": "t_uint256"
          },
          {
            "astId": 4974,
            "contract": "contracts/MetarunCollection.sol:MetarunCollection",
            "label": "runs",
            "offset": 0,
            "slot": "1",
            "type": "t_uint256"
          },
          {
            "astId": 4976,
            "contract": "contracts/MetarunCollection.sol:MetarunCollection",
            "label": "wins",
            "offset": 0,
            "slot": "2",
            "type": "t_uint256"
          },
          {
            "astId": 4978,
            "contract": "contracts/MetarunCollection.sol:MetarunCollection",
            "label": "ability",
            "offset": 0,
            "slot": "3",
            "type": "t_uint256"
          },
          {
            "astId": 4980,
            "contract": "contracts/MetarunCollection.sol:MetarunCollection",
            "label": "health",
            "offset": 0,
            "slot": "4",
            "type": "t_uint256"
          },
          {
            "astId": 4982,
            "contract": "contracts/MetarunCollection.sol:MetarunCollection",
            "label": "mana",
            "offset": 0,
            "slot": "5",
            "type": "t_uint256"
          },
          {
            "astId": 4984,
            "contract": "contracts/MetarunCollection.sol:MetarunCollection",
            "label": "speed",
            "offset": 0,
            "slot": "6",
            "type": "t_uint256"
          },
          {
            "astId": 4986,
            "contract": "contracts/MetarunCollection.sol:MetarunCollection",
            "label": "collisionDamage",
            "offset": 0,
            "slot": "7",
            "type": "t_uint256"
          }
        ],
        "numberOfBytes": "256"
      },
      "t_struct(RoleData)34_storage": {
        "encoding": "inplace",
        "label": "struct AccessControlUpgradeable.RoleData",
        "members": [
          {
            "astId": 31,
            "contract": "contracts/MetarunCollection.sol:MetarunCollection",
            "label": "members",
            "offset": 0,
            "slot": "0",
            "type": "t_mapping(t_address,t_bool)"
          },
          {
            "astId": 33,
            "contract": "contracts/MetarunCollection.sol:MetarunCollection",
            "label": "adminRole",
            "offset": 0,
            "slot": "1",
            "type": "t_bytes32"
          }
        ],
        "numberOfBytes": "64"
      },
      "t_uint256": {
        "encoding": "inplace",
        "label": "uint256",
        "numberOfBytes": "32"
      }
    }
  }
}