{
  "address": "0xB8Fa6f2E68c9D9B890775B85f1366bB14565C2bf",
  "abi": [
    {
      "anonymous": false,
      "inputs": [
        {
          "indexed": true,
          "internalType": "address",
          "name": "account",
          "type": "address"
        },
        {
          "indexed": true,
          "internalType": "address",
          "name": "operator",
          "type": "address"
        },
        {
          "indexed": false,
          "internalType": "bool",
          "name": "approved",
          "type": "bool"
        }
      ],
      "name": "ApprovalForAll",
      "type": "event"
    },
    {
      "anonymous": false,
      "inputs": [
        {
          "indexed": true,
          "internalType": "bytes32",
          "name": "role",
          "type": "bytes32"
        },
        {
          "indexed": true,
          "internalType": "bytes32",
          "name": "previousAdminRole",
          "type": "bytes32"
        },
        {
          "indexed": true,
          "internalType": "bytes32",
          "name": "newAdminRole",
          "type": "bytes32"
        }
      ],
      "name": "RoleAdminChanged",
      "type": "event"
    },
    {
      "anonymous": false,
      "inputs": [
        {
          "indexed": true,
          "internalType": "bytes32",
          "name": "role",
          "type": "bytes32"
        },
        {
          "indexed": true,
          "internalType": "address",
          "name": "account",
          "type": "address"
        },
        {
          "indexed": true,
          "internalType": "address",
          "name": "sender",
          "type": "address"
        }
      ],
      "name": "RoleGranted",
      "type": "event"
    },
    {
      "anonymous": false,
      "inputs": [
        {
          "indexed": true,
          "internalType": "bytes32",
          "name": "role",
          "type": "bytes32"
        },
        {
          "indexed": true,
          "internalType": "address",
          "name": "account",
          "type": "address"
        },
        {
          "indexed": true,
          "internalType": "address",
          "name": "sender",
          "type": "address"
        }
      ],
      "name": "RoleRevoked",
      "type": "event"
    },
    {
      "anonymous": false,
      "inputs": [
        {
          "indexed": true,
          "internalType": "address",
          "name": "operator",
          "type": "address"
        },
        {
          "indexed": true,
          "internalType": "address",
          "name": "from",
          "type": "address"
        },
        {
          "indexed": true,
          "internalType": "address",
          "name": "to",
          "type": "address"
        },
        {
          "indexed": false,
          "internalType": "uint256[]",
          "name": "ids",
          "type": "uint256[]"
        },
        {
          "indexed": false,
          "internalType": "uint256[]",
          "name": "values",
          "type": "uint256[]"
        }
      ],
      "name": "TransferBatch",
      "type": "event"
    },
    {
      "anonymous": false,
      "inputs": [
        {
          "indexed": true,
          "internalType": "address",
          "name": "operator",
          "type": "address"
        },
        {
          "indexed": true,
          "internalType": "address",
          "name": "from",
          "type": "address"
        },
        {
          "indexed": true,
          "internalType": "address",
          "name": "to",
          "type": "address"
        },
        {
          "indexed": false,
          "internalType": "uint256",
          "name": "id",
          "type": "uint256"
        },
        {
          "indexed": false,
          "internalType": "uint256",
          "name": "value",
          "type": "uint256"
        }
      ],
      "name": "TransferSingle",
      "type": "event"
    },
    {
      "anonymous": false,
      "inputs": [
        {
          "indexed": false,
          "internalType": "string",
          "name": "value",
          "type": "string"
        },
        {
          "indexed": true,
          "internalType": "uint256",
          "name": "id",
          "type": "uint256"
        }
      ],
      "name": "URI",
      "type": "event"
    },
    {
      "inputs": [],
      "name": "ARTIFACT_TOKEN_KIND",
      "outputs": [
        {
          "internalType": "uint256",
          "name": "",
          "type": "uint256"
        }
      ],
      "stateMutability": "view",
      "type": "function"
    },
    {
      "inputs": [],
      "name": "COLLISION_DAMAGE_TOKEN_ID",
      "outputs": [
        {
          "internalType": "uint256",
          "name": "",
          "type": "uint256"
        }
      ],
      "stateMutability": "view",
      "type": "function"
    },
    {
      "inputs": [],
      "name": "COMMON_SKIN_KIND",
      "outputs": [
        {
          "internalType": "uint256",
          "name": "",
          "type": "uint256"
        }
      ],
      "stateMutability": "view",
      "type": "function"
    },
    {
      "inputs": [],
      "name": "CRAFTSMAN_CHARACTER_KIND",
      "outputs": [
        {
          "internalType": "uint256",
          "name": "",
          "type": "uint256"
        }
      ],
      "stateMutability": "view",
      "type": "function"
    },
    {
      "inputs": [],
      "name": "DEFAULT_ADMIN_ROLE",
      "outputs": [
        {
          "internalType": "bytes32",
          "name": "",
          "type": "bytes32"
        }
      ],
      "stateMutability": "view",
      "type": "function"
    },
    {
      "inputs": [],
      "name": "FIGHTER_CHARACTER_KIND",
      "outputs": [
        {
          "internalType": "uint256",
          "name": "",
          "type": "uint256"
        }
      ],
      "stateMutability": "view",
      "type": "function"
    },
    {
      "inputs": [],
      "name": "FUNGIBLE_TOKEN_KIND",
      "outputs": [
        {
          "internalType": "uint256",
          "name": "",
          "type": "uint256"
        }
      ],
      "stateMutability": "view",
      "type": "function"
    },
    {
      "inputs": [],
      "name": "HEALTH_TOKEN_ID",
      "outputs": [
        {
          "internalType": "uint256",
          "name": "",
          "type": "uint256"
        }
      ],
      "stateMutability": "view",
      "type": "function"
    },
    {
      "inputs": [],
      "name": "MANA_TOKEN_ID",
      "outputs": [
        {
          "internalType": "uint256",
          "name": "",
          "type": "uint256"
        }
      ],
      "stateMutability": "view",
      "type": "function"
    },
    {
      "inputs": [],
      "name": "MINTER_ROLE",
      "outputs": [
        {
          "internalType": "bytes32",
          "name": "",
          "type": "bytes32"
        }
      ],
      "stateMutability": "view",
      "type": "function"
    },
    {
      "inputs": [],
      "name": "MYTHICAL_SKIN_KIND",
      "outputs": [
        {
          "internalType": "uint256",
          "name": "",
          "type": "uint256"
        }
      ],
      "stateMutability": "view",
      "type": "function"
    },
    {
      "inputs": [],
      "name": "PET_TOKEN_KIND",
      "outputs": [
        {
          "internalType": "uint256",
          "name": "",
          "type": "uint256"
        }
      ],
      "stateMutability": "view",
      "type": "function"
    },
    {
      "inputs": [],
      "name": "RARE_SKIN_KIND",
      "outputs": [
        {
          "internalType": "uint256",
          "name": "",
          "type": "uint256"
        }
      ],
      "stateMutability": "view",
      "type": "function"
    },
    {
      "inputs": [],
      "name": "SETTER_ROLE",
      "outputs": [
        {
          "internalType": "bytes32",
          "name": "",
          "type": "bytes32"
        }
      ],
      "stateMutability": "view",
      "type": "function"
    },
    {
      "inputs": [],
      "name": "SPEED_TOKEN_ID",
      "outputs": [
        {
          "internalType": "uint256",
          "name": "",
          "type": "uint256"
        }
      ],
      "stateMutability": "view",
      "type": "function"
    },
    {
      "inputs": [],
      "name": "SPRINTER_CHARACTER_KIND",
      "outputs": [
        {
          "internalType": "uint256",
          "name": "",
          "type": "uint256"
        }
      ],
      "stateMutability": "view",
      "type": "function"
    },
    {
      "inputs": [
        {
          "internalType": "address",
          "name": "account",
          "type": "address"
        },
        {
          "internalType": "uint256",
          "name": "id",
          "type": "uint256"
        }
      ],
      "name": "balanceOf",
      "outputs": [
        {
          "internalType": "uint256",
          "name": "",
          "type": "uint256"
        }
      ],
      "stateMutability": "view",
      "type": "function"
    },
    {
      "inputs": [
        {
          "internalType": "address[]",
          "name": "accounts",
          "type": "address[]"
        },
        {
          "internalType": "uint256[]",
          "name": "ids",
          "type": "uint256[]"
        }
      ],
      "name": "balanceOfBatch",
      "outputs": [
        {
          "internalType": "uint256[]",
          "name": "",
          "type": "uint256[]"
        }
      ],
      "stateMutability": "view",
      "type": "function"
    },
    {
      "inputs": [
        {
          "internalType": "address",
          "name": "account",
          "type": "address"
        },
        {
          "internalType": "uint256",
          "name": "id",
          "type": "uint256"
        },
        {
          "internalType": "uint256",
          "name": "value",
          "type": "uint256"
        }
      ],
      "name": "burn",
      "outputs": [],
      "stateMutability": "nonpayable",
      "type": "function"
    },
    {
      "inputs": [
        {
          "internalType": "address",
          "name": "account",
          "type": "address"
        },
        {
          "internalType": "uint256[]",
          "name": "ids",
          "type": "uint256[]"
        },
        {
          "internalType": "uint256[]",
          "name": "values",
          "type": "uint256[]"
        }
      ],
      "name": "burnBatch",
      "outputs": [],
      "stateMutability": "nonpayable",
      "type": "function"
    },
    {
      "inputs": [
        {
          "internalType": "uint256",
          "name": "id",
          "type": "uint256"
        }
      ],
      "name": "exists",
      "outputs": [
        {
          "internalType": "bool",
          "name": "",
          "type": "bool"
        }
      ],
      "stateMutability": "view",
      "type": "function"
    },
    {
      "inputs": [
        {
          "internalType": "uint256",
          "name": "id",
          "type": "uint256"
        }
      ],
      "name": "getKind",
      "outputs": [
        {
          "internalType": "uint256",
          "name": "",
          "type": "uint256"
        }
      ],
      "stateMutability": "pure",
      "type": "function"
    },
    {
      "inputs": [
        {
          "internalType": "uint256",
          "name": "kind",
          "type": "uint256"
        }
      ],
      "name": "getKindSupply",
      "outputs": [
        {
          "internalType": "uint256",
          "name": "",
          "type": "uint256"
        }
      ],
      "stateMutability": "view",
      "type": "function"
    },
    {
      "inputs": [
        {
          "internalType": "uint256",
          "name": "id",
          "type": "uint256"
        }
      ],
      "name": "getPerks",
      "outputs": [
        {
          "components": [
            {
              "internalType": "uint256",
              "name": "level",
              "type": "uint256"
            },
            {
              "internalType": "uint256",
              "name": "runs",
              "type": "uint256"
            },
            {
              "internalType": "uint256",
              "name": "wins",
              "type": "uint256"
            },
            {
              "internalType": "uint256",
              "name": "ability",
              "type": "uint256"
            },
            {
              "internalType": "uint256",
              "name": "health",
              "type": "uint256"
            },
            {
              "internalType": "uint256",
              "name": "mana",
              "type": "uint256"
            },
            {
              "internalType": "uint256",
              "name": "speed",
              "type": "uint256"
            },
            {
              "internalType": "uint256",
              "name": "collisionDamage",
              "type": "uint256"
            }
          ],
          "internalType": "struct MetarunCollection.Perks",
          "name": "",
          "type": "tuple"
        }
      ],
      "stateMutability": "view",
      "type": "function"
    },
    {
      "inputs": [
        {
          "internalType": "bytes32",
          "name": "role",
          "type": "bytes32"
        }
      ],
      "name": "getRoleAdmin",
      "outputs": [
        {
          "internalType": "bytes32",
          "name": "",
          "type": "bytes32"
        }
      ],
      "stateMutability": "view",
      "type": "function"
    },
    {
      "inputs": [
        {
          "internalType": "bytes32",
          "name": "role",
          "type": "bytes32"
        },
        {
          "internalType": "address",
          "name": "account",
          "type": "address"
        }
      ],
      "name": "grantRole",
      "outputs": [],
      "stateMutability": "nonpayable",
      "type": "function"
    },
    {
      "inputs": [
        {
          "internalType": "bytes32",
          "name": "role",
          "type": "bytes32"
        },
        {
          "internalType": "address",
          "name": "account",
          "type": "address"
        }
      ],
      "name": "hasRole",
      "outputs": [
        {
          "internalType": "bool",
          "name": "",
          "type": "bool"
        }
      ],
      "stateMutability": "view",
      "type": "function"
    },
    {
      "inputs": [
        {
          "internalType": "string",
          "name": "uri",
          "type": "string"
        }
      ],
      "name": "initialize",
      "outputs": [],
      "stateMutability": "nonpayable",
      "type": "function"
    },
    {
      "inputs": [
        {
          "internalType": "address",
          "name": "account",
          "type": "address"
        },
        {
          "internalType": "address",
          "name": "operator",
          "type": "address"
        }
      ],
      "name": "isApprovedForAll",
      "outputs": [
        {
          "internalType": "bool",
          "name": "",
          "type": "bool"
        }
      ],
      "stateMutability": "view",
      "type": "function"
    },
    {
      "inputs": [
        {
          "internalType": "uint256",
          "name": "id",
          "type": "uint256"
        }
      ],
      "name": "isCharacter",
      "outputs": [
        {
          "internalType": "bool",
          "name": "",
          "type": "bool"
        }
      ],
      "stateMutability": "pure",
      "type": "function"
    },
    {
      "inputs": [
        {
          "internalType": "uint256",
          "name": "id",
          "type": "uint256"
        },
        {
          "internalType": "uint256",
          "name": "kind",
          "type": "uint256"
        }
      ],
      "name": "isKind",
      "outputs": [
        {
          "internalType": "bool",
          "name": "",
          "type": "bool"
        }
      ],
      "stateMutability": "pure",
      "type": "function"
    },
    {
      "inputs": [
        {
          "internalType": "address",
          "name": "to",
          "type": "address"
        },
        {
          "internalType": "uint256",
          "name": "id",
          "type": "uint256"
        },
        {
          "internalType": "uint256",
          "name": "amount",
          "type": "uint256"
        }
      ],
      "name": "mint",
      "outputs": [],
      "stateMutability": "nonpayable",
      "type": "function"
    },
    {
      "inputs": [
        {
          "internalType": "address",
          "name": "to",
          "type": "address"
        },
        {
          "internalType": "uint256",
          "name": "kind",
          "type": "uint256"
        },
        {
          "internalType": "uint256",
          "name": "count",
          "type": "uint256"
        }
      ],
      "name": "mintBatch",
      "outputs": [],
      "stateMutability": "nonpayable",
      "type": "function"
    },
    {
      "inputs": [
        {
          "internalType": "bytes32",
          "name": "role",
          "type": "bytes32"
        },
        {
          "internalType": "address",
          "name": "account",
          "type": "address"
        }
      ],
      "name": "renounceRole",
      "outputs": [],
      "stateMutability": "nonpayable",
      "type": "function"
    },
    {
      "inputs": [
        {
          "internalType": "bytes32",
          "name": "role",
          "type": "bytes32"
        },
        {
          "internalType": "address",
          "name": "account",
          "type": "address"
        }
      ],
      "name": "revokeRole",
      "outputs": [],
      "stateMutability": "nonpayable",
      "type": "function"
    },
    {
      "inputs": [
        {
          "internalType": "address",
          "name": "from",
          "type": "address"
        },
        {
          "internalType": "address",
          "name": "to",
          "type": "address"
        },
        {
          "internalType": "uint256[]",
          "name": "ids",
          "type": "uint256[]"
        },
        {
          "internalType": "uint256[]",
          "name": "amounts",
          "type": "uint256[]"
        },
        {
          "internalType": "bytes",
          "name": "data",
          "type": "bytes"
        }
      ],
      "name": "safeBatchTransferFrom",
      "outputs": [],
      "stateMutability": "nonpayable",
      "type": "function"
    },
    {
      "inputs": [
        {
          "internalType": "address",
          "name": "from",
          "type": "address"
        },
        {
          "internalType": "address",
          "name": "to",
          "type": "address"
        },
        {
          "internalType": "uint256",
          "name": "id",
          "type": "uint256"
        },
        {
          "internalType": "uint256",
          "name": "amount",
          "type": "uint256"
        },
        {
          "internalType": "bytes",
          "name": "data",
          "type": "bytes"
        }
      ],
      "name": "safeTransferFrom",
      "outputs": [],
      "stateMutability": "nonpayable",
      "type": "function"
    },
    {
      "inputs": [
        {
          "internalType": "address",
          "name": "operator",
          "type": "address"
        },
        {
          "internalType": "bool",
          "name": "approved",
          "type": "bool"
        }
      ],
      "name": "setApprovalForAll",
      "outputs": [],
      "stateMutability": "nonpayable",
      "type": "function"
    },
    {
      "inputs": [
        {
          "internalType": "uint256",
          "name": "id",
          "type": "uint256"
        },
        {
          "components": [
            {
              "internalType": "uint256",
              "name": "level",
              "type": "uint256"
            },
            {
              "internalType": "uint256",
              "name": "runs",
              "type": "uint256"
            },
            {
              "internalType": "uint256",
              "name": "wins",
              "type": "uint256"
            },
            {
              "internalType": "uint256",
              "name": "ability",
              "type": "uint256"
            },
            {
              "internalType": "uint256",
              "name": "health",
              "type": "uint256"
            },
            {
              "internalType": "uint256",
              "name": "mana",
              "type": "uint256"
            },
            {
              "internalType": "uint256",
              "name": "speed",
              "type": "uint256"
            },
            {
              "internalType": "uint256",
              "name": "collisionDamage",
              "type": "uint256"
            }
          ],
          "internalType": "struct MetarunCollection.Perks",
          "name": "perks",
          "type": "tuple"
        }
      ],
      "name": "setPerks",
      "outputs": [],
      "stateMutability": "nonpayable",
      "type": "function"
    },
    {
      "inputs": [
        {
          "internalType": "string",
          "name": "newUri",
          "type": "string"
        }
      ],
      "name": "setURI",
      "outputs": [],
      "stateMutability": "nonpayable",
      "type": "function"
    },
    {
      "inputs": [
        {
          "internalType": "bytes4",
          "name": "interfaceId",
          "type": "bytes4"
        }
      ],
      "name": "supportsInterface",
      "outputs": [
        {
          "internalType": "bool",
          "name": "",
          "type": "bool"
        }
      ],
      "stateMutability": "view",
      "type": "function"
    },
    {
      "inputs": [
        {
          "internalType": "uint256",
          "name": "id",
          "type": "uint256"
        }
      ],
      "name": "totalSupply",
      "outputs": [
        {
          "internalType": "uint256",
          "name": "",
          "type": "uint256"
        }
      ],
      "stateMutability": "view",
      "type": "function"
    },
    {
      "inputs": [
        {
          "internalType": "uint256",
          "name": "",
          "type": "uint256"
        }
      ],
      "name": "uri",
      "outputs": [
        {
          "internalType": "string",
          "name": "",
          "type": "string"
        }
      ],
      "stateMutability": "view",
      "type": "function"
    }
  ],
  "transactionHash": "0xf0dc180b4a24fb6e6e738cfc2e3ea57ffaf496a272bb8e09df234b33b51b7159",
  "args": [],
  "numDeployments": 1,
  "solcInputHash": "62758306a53168f17c9b35cc5e889df7",
  "bytecode": "0x608060405234801561001057600080fd5b506157b580620000216000396000f3fe608060405234801561001057600080fd5b50600436106102685760003560e01c80634f558e7911610151578063b7569fd5116100c3578063df4b5aeb11610087578063df4b5aeb14610799578063e985e9c5146107b7578063f242432a146107e7578063f5298aca14610803578063f62d18881461081f578063fe4ba8c11461083b57610268565b8063b7569fd5146106cf578063bd85b039146106ff578063ca16487b1461072f578063d53913931461075f578063d547741f1461077d57610268565b80638a6ad02e116101155780638a6ad02e146105f957806391d1485414610629578063a2011b3f14610659578063a217fddf14610677578063a22cb46514610695578063b73eeaf6146106b157610268565b80634f558e7914610541578063565554ff146105715780636b20c4541461058f5780636ca8fede146105ab578063792f96cf146105db57610268565b806327efa6ea116101ea5780632f2ff15d116101ae5780632f2ff15d1461046d57806336568abe14610489578063387570ca146104a557806345ada2ab146104c3578063492e17fe146104e15780634e1273f41461051157610268565b806327efa6ea146103db5780632b2a43c0146103f95780632d1e97f8146104175780632e81aaea146104355780632eb2c2d61461045157610268565b80630e89341c116102315780630e89341c14610325578063156e29f61461035557806317f309df146103715780632147e1111461038d578063248a9ca3146103ab57610268565b8062fdd58e1461026d578063010a2ae11461029d57806301ffc9a7146102bb57806302fe5305146102eb5780630e5bda9814610307575b600080fd5b61028760048036038101906102829190613750565b610859565b604051610294919061379f565b60405180910390f35b6102a5610923565b6040516102b2919061379f565b60405180910390f35b6102d560048036038101906102d09190613812565b610929565b6040516102e2919061385a565b60405180910390f35b610305600480360381019061030091906139bb565b61093b565b005b61030f61099a565b60405161031c919061379f565b60405180910390f35b61033f600480360381019061033a9190613a04565b6109b0565b60405161034c9190613ab9565b60405180910390f35b61036f600480360381019061036a9190613adb565b610a44565b005b61038b60048036038101906103869190613bfd565b610ba3565b005b610395610cda565b6040516103a2919061379f565b60405180910390f35b6103c560048036038101906103c09190613c74565b610cdf565b6040516103d29190613cb0565b60405180910390f35b6103e3610cff565b6040516103f0919061379f565b60405180910390f35b610401610d04565b60405161040e919061379f565b60405180910390f35b61041f610d0a565b60405161042c919061379f565b60405180910390f35b61044f600480360381019061044a9190613adb565b610d10565b005b61046b60048036038101906104669190613e34565b610fdc565b005b61048760048036038101906104829190613f03565b61107d565b005b6104a3600480360381019061049e9190613f03565b6110a6565b005b6104ad611129565b6040516104ba919061379f565b60405180910390f35b6104cb61112f565b6040516104d8919061379f565b60405180910390f35b6104fb60048036038101906104f69190613f43565b611135565b604051610508919061385a565b60405180910390f35b61052b60048036038101906105269190614046565b61114a565b604051610538919061417c565b60405180910390f35b61055b60048036038101906105569190613a04565b611263565b604051610568919061385a565b60405180910390f35b610579611277565b604051610586919061379f565b60405180910390f35b6105a960048036038101906105a4919061419e565b61127d565b005b6105c560048036038101906105c09190613a04565b61131a565b6040516105d2919061379f565b60405180910390f35b6105e361132e565b6040516105f0919061379f565b60405180910390f35b610613600480360381019061060e9190613a04565b611344565b604051610620919061379f565b60405180910390f35b610643600480360381019061063e9190613f03565b611362565b604051610650919061385a565b60405180910390f35b6106616113cd565b60405161066e9190613cb0565b60405180910390f35b61067f6113f1565b60405161068c9190613cb0565b60405180910390f35b6106af60048036038101906106aa9190614255565b6113f8565b005b6106b961140e565b6040516106c6919061379f565b60405180910390f35b6106e960048036038101906106e49190613a04565b611413565b6040516106f6919061385a565b60405180910390f35b61071960048036038101906107149190613a04565b61144b565b604051610726919061379f565b60405180910390f35b61074960048036038101906107449190613a04565b611468565b6040516107569190614337565b60405180910390f35b610767611542565b6040516107749190613cb0565b60405180910390f35b61079760048036038101906107929190613f03565b611566565b005b6107a161158f565b6040516107ae919061379f565b60405180910390f35b6107d160048036038101906107cc9190614353565b6115a5565b6040516107de919061385a565b60405180910390f35b61080160048036038101906107fc9190614393565b611639565b005b61081d60048036038101906108189190613adb565b6116da565b005b610839600480360381019061083491906139bb565b611777565b005b6108436118db565b604051610850919061379f565b60405180910390f35b60008073ffffffffffffffffffffffffffffffffffffffff168373ffffffffffffffffffffffffffffffffffffffff1614156108ca576040517f08c379a00000000000000000000000000000000000000000000000000000000081526004016108c19061449c565b60405180910390fd5b6065600083815260200190815260200160002060008473ffffffffffffffffffffffffffffffffffffffff1673ffffffffffffffffffffffffffffffffffffffff16815260200190815260200160002054905092915050565b61030181565b6000610934826118f1565b9050919050565b61094f6000801b61094a61196b565b611362565b61098e576040517f08c379a000000000000000000000000000000000000000000000000000000000815260040161098590614508565b60405180910390fd5b61099781611973565b50565b60036010610500901b6109ad9190614557565b81565b6060606780546109bf906145dc565b80601f01602080910402602001604051908101604052809291908181526020018280546109eb906145dc565b8015610a385780601f10610a0d57610100808354040283529160200191610a38565b820191906000526020600020905b815481529060010190602001808311610a1b57829003601f168201915b50505050509050919050565b610a757f9f2df0fed2c77648de5860a4cc508cd0818c85b8b8a1ab4ceeef8d981c8956a6610a7061196b565b611362565b610ab4576040517f08c379a0000000000000000000000000000000000000000000000000000000008152600401610aab90614680565b60405180910390fd5b610ac082610500611135565b610b515760018114610b07576040517f08c379a0000000000000000000000000000000000000000000000000000000008152600401610afe906146ec565b60405180910390fd5b610b1082611263565b15610b50576040517f08c379a0000000000000000000000000000000000000000000000000000000008152600401610b47906146ec565b60405180910390fd5b5b610b6c8383836040518060200160405280600081525061198d565b61012d6000610b7a8461131a565b81526020019081526020016000206000815480929190610b999061470c565b9190505550505050565b610bac82611413565b80610bbf5750610bbe82610200611135565b5b610bfe576040517f08c379a0000000000000000000000000000000000000000000000000000000008152600401610bf5906147c7565b60405180910390fd5b610c2f7f61c92169ef077349011ff0b1383c894d86c5f0b41d986366b58a6cf31e93beda610c2a61196b565b611362565b610c6e576040517f08c379a0000000000000000000000000000000000000000000000000000000008152600401610c6590614833565b60405180910390fd5b8061012e6000848152602001908152602001600020600082015181600001556020820151816001015560408201518160020155606082015181600301556080820151816004015560a0820151816005015560c0820151816006015560e082015181600701559050505050565b600081565b600060976000838152602001908152602001600020600101549050919050565b600181565b61020081565b61010081565b610d417f9f2df0fed2c77648de5860a4cc508cd0818c85b8b8a1ab4ceeef8d981c8956a6610d3c61196b565b611362565b610d80576040517f08c379a0000000000000000000000000000000000000000000000000000000008152600401610d779061489f565b60405180910390fd5b610500821415610dc5576040517f08c379a0000000000000000000000000000000000000000000000000000000008152600401610dbc9061490b565b60405180910390fd5b60008111610e08576040517f08c379a0000000000000000000000000000000000000000000000000000000008152600401610dff90614977565b60405180910390fd5b60008167ffffffffffffffff811115610e2457610e23613890565b5b604051908082528060200260200182016040528015610e525781602001602082028036833780820191505090505b509050600080601085901b90505b83821015610f0057610e728186611135565b610eb1576040517f08c379a0000000000000000000000000000000000000000000000000000000008152600401610ea8906149e3565b60405180910390fd5b610eba81611263565b610eed5780838381518110610ed257610ed1614a03565b5b6020026020010181815250508180610ee99061470c565b9250505b8080610ef89061470c565b915050610e60565b60008467ffffffffffffffff811115610f1c57610f1b613890565b5b604051908082528060200260200182016040528015610f4a5781602001602082028036833780820191505090505b50905060005b85811015610f8c576001828281518110610f6d57610f6c614a03565b5b6020026020010181815250508080610f849061470c565b915050610f50565b50610fa887858360405180602001604052806000815250611b24565b8461012d60008881526020019081526020016000206000828254610fcc9190614557565b9250508190555050505050505050565b610fe461196b565b73ffffffffffffffffffffffffffffffffffffffff168573ffffffffffffffffffffffffffffffffffffffff16148061102a57506110298561102461196b565b6115a5565b5b611069576040517f08c379a000000000000000000000000000000000000000000000000000000000815260040161106090614aa4565b60405180910390fd5b6110768585858585611d43565b5050505050565b61108682610cdf565b6110978161109261196b565b61205a565b6110a183836120f7565b505050565b6110ae61196b565b73ffffffffffffffffffffffffffffffffffffffff168173ffffffffffffffffffffffffffffffffffffffff161461111b576040517f08c379a000000000000000000000000000000000000000000000000000000000815260040161111290614b36565b60405180910390fd5b61112582826121d8565b5050565b61030281565b61030081565b6000816111418461131a565b14905092915050565b60608151835114611190576040517f08c379a000000000000000000000000000000000000000000000000000000000815260040161118790614bc8565b60405180910390fd5b6000835167ffffffffffffffff8111156111ad576111ac613890565b5b6040519080825280602002602001820160405280156111db5781602001602082028036833780820191505090505b50905060005b845181101561125857611228858281518110611200576111ff614a03565b5b602002602001015185838151811061121b5761121a614a03565b5b6020026020010151610859565b82828151811061123b5761123a614a03565b5b602002602001018181525050806112519061470c565b90506111e1565b508091505092915050565b60008061126f8361144b565b119050919050565b61050081565b61128561196b565b73ffffffffffffffffffffffffffffffffffffffff168373ffffffffffffffffffffffffffffffffffffffff1614806112cb57506112ca836112c561196b565b6115a5565b5b61130a576040517f08c379a000000000000000000000000000000000000000000000000000000000815260040161130190614c5a565b60405180910390fd5b6113158383836122ba565b505050565b600060108263ffff000016901c9050919050565b60006010610500901b6113419190614557565b81565b600061012d6000838152602001908152602001600020549050919050565b60006097600084815260200190815260200160002060000160008373ffffffffffffffffffffffffffffffffffffffff1673ffffffffffffffffffffffffffffffffffffffff16815260200190815260200160002060009054906101000a900460ff16905092915050565b7f61c92169ef077349011ff0b1383c894d86c5f0b41d986366b58a6cf31e93beda81565b6000801b81565b61140a61140361196b565b838361256d565b5050565b600281565b6000611420826000611135565b806114325750611431826001611135565b5b806114445750611443826002611135565b5b9050919050565b600060fb6000838152602001908152602001600020549050919050565b6114706135c0565b61147982611413565b8061148c575061148b82610200611135565b5b6114cb576040517f08c379a00000000000000000000000000000000000000000000000000000000081526004016114c2906147c7565b60405180910390fd5b61012e600083815260200190815260200160002060405180610100016040529081600082015481526020016001820154815260200160028201548152602001600382015481526020016004820154815260200160058201548152602001600682015481526020016007820154815250509050919050565b7f9f2df0fed2c77648de5860a4cc508cd0818c85b8b8a1ab4ceeef8d981c8956a681565b61156f82610cdf565b6115808161157b61196b565b61205a565b61158a83836121d8565b505050565b60026010610500901b6115a29190614557565b81565b6000606660008473ffffffffffffffffffffffffffffffffffffffff1673ffffffffffffffffffffffffffffffffffffffff16815260200190815260200160002060008373ffffffffffffffffffffffffffffffffffffffff1673ffffffffffffffffffffffffffffffffffffffff16815260200190815260200160002060009054906101000a900460ff16905092915050565b61164161196b565b73ffffffffffffffffffffffffffffffffffffffff168573ffffffffffffffffffffffffffffffffffffffff16148061168757506116868561168161196b565b6115a5565b5b6116c6576040517f08c379a00000000000000000000000000000000000000000000000000000000081526004016116bd90614c5a565b60405180910390fd5b6116d385858585856126da565b5050505050565b6116e261196b565b73ffffffffffffffffffffffffffffffffffffffff168373ffffffffffffffffffffffffffffffffffffffff16148061172857506117278361172261196b565b6115a5565b5b611767576040517f08c379a000000000000000000000000000000000000000000000000000000000815260040161175e90614c5a565b60405180910390fd5b61177283838361295f565b505050565b600060019054906101000a900460ff1661179f5760008054906101000a900460ff16156117a8565b6117a7612b7e565b5b6117e7576040517f08c379a00000000000000000000000000000000000000000000000000000000081526004016117de90614cec565b60405180910390fd5b60008060019054906101000a900460ff161590508015611837576001600060016101000a81548160ff02191690831515021790555060016000806101000a81548160ff0219169083151502179055505b61184082612b8f565b6118546000801b61184f61196b565b612bea565b6118857f9f2df0fed2c77648de5860a4cc508cd0818c85b8b8a1ab4ceeef8d981c8956a661188061196b565b612bea565b6118b67f61c92169ef077349011ff0b1383c894d86c5f0b41d986366b58a6cf31e93beda6118b161196b565b612bea565b80156118d75760008060016101000a81548160ff0219169083151502179055505b5050565b60016010610500901b6118ee9190614557565b81565b60007f7965db0b000000000000000000000000000000000000000000000000000000007bffffffffffffffffffffffffffffffffffffffffffffffffffffffff1916827bffffffffffffffffffffffffffffffffffffffffffffffffffffffff19161480611964575061196382612bf8565b5b9050919050565b600033905090565b8060679080519060200190611989929190613605565b5050565b600073ffffffffffffffffffffffffffffffffffffffff168473ffffffffffffffffffffffffffffffffffffffff1614156119fd576040517f08c379a00000000000000000000000000000000000000000000000000000000081526004016119f490614d7e565b60405180910390fd5b6000611a0761196b565b9050611a2881600087611a1988612cda565b611a2288612cda565b87612d54565b826065600086815260200190815260200160002060008773ffffffffffffffffffffffffffffffffffffffff1673ffffffffffffffffffffffffffffffffffffffff1681526020019081526020016000206000828254611a889190614557565b925050819055508473ffffffffffffffffffffffffffffffffffffffff16600073ffffffffffffffffffffffffffffffffffffffff168273ffffffffffffffffffffffffffffffffffffffff167fc3d58168c5ae7397731d063d5bbf3d657854427343f4c083240f7aacaa2d0f628787604051611b06929190614d9e565b60405180910390a4611b1d81600087878787612d6a565b5050505050565b600073ffffffffffffffffffffffffffffffffffffffff168473ffffffffffffffffffffffffffffffffffffffff161415611b94576040517f08c379a0000000000000000000000000000000000000000000000000000000008152600401611b8b90614d7e565b60405180910390fd5b8151835114611bd8576040517f08c379a0000000000000000000000000000000000000000000000000000000008152600401611bcf90614e39565b60405180910390fd5b6000611be261196b565b9050611bf381600087878787612d54565b60005b8451811015611cad57838181518110611c1257611c11614a03565b5b602002602001015160656000878481518110611c3157611c30614a03565b5b6020026020010151815260200190815260200160002060008873ffffffffffffffffffffffffffffffffffffffff1673ffffffffffffffffffffffffffffffffffffffff1681526020019081526020016000206000828254611c939190614557565b925050819055508080611ca59061470c565b915050611bf6565b508473ffffffffffffffffffffffffffffffffffffffff16600073ffffffffffffffffffffffffffffffffffffffff168273ffffffffffffffffffffffffffffffffffffffff167f4a39dc06d4c0dbc64b70af90fd698a233a518aa5d07e595d983b8c0526c8f7fb8787604051611d25929190614e59565b60405180910390a4611d3c81600087878787612f42565b5050505050565b8151835114611d87576040517f08c379a0000000000000000000000000000000000000000000000000000000008152600401611d7e90614e39565b60405180910390fd5b600073ffffffffffffffffffffffffffffffffffffffff168473ffffffffffffffffffffffffffffffffffffffff161415611df7576040517f08c379a0000000000000000000000000000000000000000000000000000000008152600401611dee90614f02565b60405180910390fd5b6000611e0161196b565b9050611e11818787878787612d54565b60005b8451811015611fc5576000858281518110611e3257611e31614a03565b5b602002602001015190506000858381518110611e5157611e50614a03565b5b6020026020010151905060006065600084815260200190815260200160002060008b73ffffffffffffffffffffffffffffffffffffffff1673ffffffffffffffffffffffffffffffffffffffff16815260200190815260200160002054905081811015611ef3576040517f08c379a0000000000000000000000000000000000000000000000000000000008152600401611eea90614f94565b60405180910390fd5b8181036065600085815260200190815260200160002060008c73ffffffffffffffffffffffffffffffffffffffff1673ffffffffffffffffffffffffffffffffffffffff16815260200190815260200160002081905550816065600085815260200190815260200160002060008b73ffffffffffffffffffffffffffffffffffffffff1673ffffffffffffffffffffffffffffffffffffffff1681526020019081526020016000206000828254611faa9190614557565b9250508190555050505080611fbe9061470c565b9050611e14565b508473ffffffffffffffffffffffffffffffffffffffff168673ffffffffffffffffffffffffffffffffffffffff168273ffffffffffffffffffffffffffffffffffffffff167f4a39dc06d4c0dbc64b70af90fd698a233a518aa5d07e595d983b8c0526c8f7fb878760405161203c929190614e59565b60405180910390a4612052818787878787612f42565b505050505050565b6120648282611362565b6120f3576120898173ffffffffffffffffffffffffffffffffffffffff16601461311a565b6120978360001c602061311a565b6040516020016120a8929190615088565b6040516020818303038152906040526040517f08c379a00000000000000000000000000000000000000000000000000000000081526004016120ea9190613ab9565b60405180910390fd5b5050565b6121018282611362565b6121d45760016097600084815260200190815260200160002060000160008373ffffffffffffffffffffffffffffffffffffffff1673ffffffffffffffffffffffffffffffffffffffff16815260200190815260200160002060006101000a81548160ff02191690831515021790555061217961196b565b73ffffffffffffffffffffffffffffffffffffffff168173ffffffffffffffffffffffffffffffffffffffff16837f2f8788117e7eff1d82e926ec794901d17c78024a50270940304540a733656f0d60405160405180910390a45b5050565b6121e28282611362565b156122b65760006097600084815260200190815260200160002060000160008373ffffffffffffffffffffffffffffffffffffffff1673ffffffffffffffffffffffffffffffffffffffff16815260200190815260200160002060006101000a81548160ff02191690831515021790555061225b61196b565b73ffffffffffffffffffffffffffffffffffffffff168173ffffffffffffffffffffffffffffffffffffffff16837ff6391f5c32d9c69d2a47ea670b442974b53935d1edc7fd64eb21e047a839171b60405160405180910390a45b5050565b600073ffffffffffffffffffffffffffffffffffffffff168373ffffffffffffffffffffffffffffffffffffffff16141561232a576040517f08c379a000000000000000000000000000000000000000000000000000000000815260040161232190615134565b60405180910390fd5b805182511461236e576040517f08c379a000000000000000000000000000000000000000000000000000000000815260040161236590614e39565b60405180910390fd5b600061237861196b565b905061239881856000868660405180602001604052806000815250612d54565b60005b83518110156124e75760008482815181106123b9576123b8614a03565b5b6020026020010151905060008483815181106123d8576123d7614a03565b5b6020026020010151905060006065600084815260200190815260200160002060008973ffffffffffffffffffffffffffffffffffffffff1673ffffffffffffffffffffffffffffffffffffffff1681526020019081526020016000205490508181101561247a576040517f08c379a0000000000000000000000000000000000000000000000000000000008152600401612471906151c6565b60405180910390fd5b8181036065600085815260200190815260200160002060008a73ffffffffffffffffffffffffffffffffffffffff1673ffffffffffffffffffffffffffffffffffffffff1681526020019081526020016000208190555050505080806124df9061470c565b91505061239b565b50600073ffffffffffffffffffffffffffffffffffffffff168473ffffffffffffffffffffffffffffffffffffffff168273ffffffffffffffffffffffffffffffffffffffff167f4a39dc06d4c0dbc64b70af90fd698a233a518aa5d07e595d983b8c0526c8f7fb868660405161255f929190614e59565b60405180910390a450505050565b8173ffffffffffffffffffffffffffffffffffffffff168373ffffffffffffffffffffffffffffffffffffffff1614156125dc576040517f08c379a00000000000000000000000000000000000000000000000000000000081526004016125d390615258565b60405180910390fd5b80606660008573ffffffffffffffffffffffffffffffffffffffff1673ffffffffffffffffffffffffffffffffffffffff16815260200190815260200160002060008473ffffffffffffffffffffffffffffffffffffffff1673ffffffffffffffffffffffffffffffffffffffff16815260200190815260200160002060006101000a81548160ff0219169083151502179055508173ffffffffffffffffffffffffffffffffffffffff168373ffffffffffffffffffffffffffffffffffffffff167f17307eab39ab6107e8899845ad3d59bd9653f200f220920489ca2b5937696c31836040516126cd919061385a565b60405180910390a3505050565b600073ffffffffffffffffffffffffffffffffffffffff168473ffffffffffffffffffffffffffffffffffffffff16141561274a576040517f08c379a000000000000000000000000000000000000000000000000000000000815260040161274190614f02565b60405180910390fd5b600061275461196b565b905061277481878761276588612cda565b61276e88612cda565b87612d54565b60006065600086815260200190815260200160002060008873ffffffffffffffffffffffffffffffffffffffff1673ffffffffffffffffffffffffffffffffffffffff1681526020019081526020016000205490508381101561280c576040517f08c379a000000000000000000000000000000000000000000000000000000000815260040161280390614f94565b60405180910390fd5b8381036065600087815260200190815260200160002060008973ffffffffffffffffffffffffffffffffffffffff1673ffffffffffffffffffffffffffffffffffffffff16815260200190815260200160002081905550836065600087815260200190815260200160002060008873ffffffffffffffffffffffffffffffffffffffff1673ffffffffffffffffffffffffffffffffffffffff16815260200190815260200160002060008282546128c39190614557565b925050819055508573ffffffffffffffffffffffffffffffffffffffff168773ffffffffffffffffffffffffffffffffffffffff168373ffffffffffffffffffffffffffffffffffffffff167fc3d58168c5ae7397731d063d5bbf3d657854427343f4c083240f7aacaa2d0f628888604051612940929190614d9e565b60405180910390a4612956828888888888612d6a565b50505050505050565b600073ffffffffffffffffffffffffffffffffffffffff168373ffffffffffffffffffffffffffffffffffffffff1614156129cf576040517f08c379a00000000000000000000000000000000000000000000000000000000081526004016129c690615134565b60405180910390fd5b60006129d961196b565b9050612a09818560006129eb87612cda565b6129f487612cda565b60405180602001604052806000815250612d54565b60006065600085815260200190815260200160002060008673ffffffffffffffffffffffffffffffffffffffff1673ffffffffffffffffffffffffffffffffffffffff16815260200190815260200160002054905082811015612aa1576040517f08c379a0000000000000000000000000000000000000000000000000000000008152600401612a98906151c6565b60405180910390fd5b8281036065600086815260200190815260200160002060008773ffffffffffffffffffffffffffffffffffffffff1673ffffffffffffffffffffffffffffffffffffffff16815260200190815260200160002081905550600073ffffffffffffffffffffffffffffffffffffffff168573ffffffffffffffffffffffffffffffffffffffff168373ffffffffffffffffffffffffffffffffffffffff167fc3d58168c5ae7397731d063d5bbf3d657854427343f4c083240f7aacaa2d0f628787604051612b6f929190614d9e565b60405180910390a45050505050565b6000612b8930613356565b15905090565b600060019054906101000a900460ff16612bde576040517f08c379a0000000000000000000000000000000000000000000000000000000008152600401612bd5906152ea565b60405180910390fd5b612be781613379565b50565b612bf482826120f7565b5050565b60007fd9b67a26000000000000000000000000000000000000000000000000000000007bffffffffffffffffffffffffffffffffffffffffffffffffffffffff1916827bffffffffffffffffffffffffffffffffffffffffffffffffffffffff19161480612cc357507f0e89341c000000000000000000000000000000000000000000000000000000007bffffffffffffffffffffffffffffffffffffffffffffffffffffffff1916827bffffffffffffffffffffffffffffffffffffffffffffffffffffffff1916145b80612cd35750612cd2826133d4565b5b9050919050565b60606000600167ffffffffffffffff811115612cf957612cf8613890565b5b604051908082528060200260200182016040528015612d275781602001602082028036833780820191505090505b5090508281600081518110612d3f57612d3e614a03565b5b60200260200101818152505080915050919050565b612d6286868686868661343e565b505050505050565b612d898473ffffffffffffffffffffffffffffffffffffffff16613356565b15612f3a578373ffffffffffffffffffffffffffffffffffffffff1663f23a6e6187878686866040518663ffffffff1660e01b8152600401612dcf95949392919061536e565b6020604051808303816000875af1925050508015612e0b57506040513d601f19601f82011682018060405250810190612e0891906153dd565b60015b612eb157612e17615417565b806308c379a01415612e745750612e2c615439565b80612e375750612e76565b806040517f08c379a0000000000000000000000000000000000000000000000000000000008152600401612e6b9190613ab9565b60405180910390fd5b505b6040517f08c379a0000000000000000000000000000000000000000000000000000000008152600401612ea890615541565b60405180910390fd5b63f23a6e6160e01b7bffffffffffffffffffffffffffffffffffffffffffffffffffffffff1916817bffffffffffffffffffffffffffffffffffffffffffffffffffffffff191614612f38576040517f08c379a0000000000000000000000000000000000000000000000000000000008152600401612f2f906155d3565b60405180910390fd5b505b505050505050565b612f618473ffffffffffffffffffffffffffffffffffffffff16613356565b15613112578373ffffffffffffffffffffffffffffffffffffffff1663bc197c8187878686866040518663ffffffff1660e01b8152600401612fa79594939291906155f3565b6020604051808303816000875af1925050508015612fe357506040513d601f19601f82011682018060405250810190612fe091906153dd565b60015b61308957612fef615417565b806308c379a0141561304c5750613004615439565b8061300f575061304e565b806040517f08c379a00000000000000000000000000000000000000000000000000000000081526004016130439190613ab9565b60405180910390fd5b505b6040517f08c379a000000000000000000000000000000000000000000000000000000000815260040161308090615541565b60405180910390fd5b63bc197c8160e01b7bffffffffffffffffffffffffffffffffffffffffffffffffffffffff1916817bffffffffffffffffffffffffffffffffffffffffffffffffffffffff191614613110576040517f08c379a0000000000000000000000000000000000000000000000000000000008152600401613107906155d3565b60405180910390fd5b505b505050505050565b60606000600283600261312d919061565b565b6131379190614557565b67ffffffffffffffff8111156131505761314f613890565b5b6040519080825280601f01601f1916602001820160405280156131825781602001600182028036833780820191505090505b5090507f3000000000000000000000000000000000000000000000000000000000000000816000815181106131ba576131b9614a03565b5b60200101907effffffffffffffffffffffffffffffffffffffffffffffffffffffffffffff1916908160001a9053507f78000000000000000000000000000000000000000000000000000000000000008160018151811061321e5761321d614a03565b5b60200101907effffffffffffffffffffffffffffffffffffffffffffffffffffffffffffff1916908160001a9053506000600184600261325e919061565b565b6132689190614557565b90505b6001811115613308577f3031323334353637383961626364656600000000000000000000000000000000600f8616601081106132aa576132a9614a03565b5b1a60f81b8282815181106132c1576132c0614a03565b5b60200101907effffffffffffffffffffffffffffffffffffffffffffffffffffffffffffff1916908160001a905350600485901c945080613301906156b5565b905061326b565b506000841461334c576040517f08c379a00000000000000000000000000000000000000000000000000000000081526004016133439061572b565b60405180910390fd5b8091505092915050565b6000808273ffffffffffffffffffffffffffffffffffffffff163b119050919050565b600060019054906101000a900460ff166133c8576040517f08c379a00000000000000000000000000000000000000000000000000000000081526004016133bf906152ea565b60405180910390fd5b6133d181611973565b50565b60007f01ffc9a7000000000000000000000000000000000000000000000000000000007bffffffffffffffffffffffffffffffffffffffffffffffffffffffff1916827bffffffffffffffffffffffffffffffffffffffffffffffffffffffff1916149050919050565b61344c8686868686866135b8565b600073ffffffffffffffffffffffffffffffffffffffff168573ffffffffffffffffffffffffffffffffffffffff1614156134fe5760005b83518110156134fc578281815181106134a05761349f614a03565b5b602002602001015160fb60008684815181106134bf576134be614a03565b5b6020026020010151815260200190815260200160002060008282546134e49190614557565b92505081905550806134f59061470c565b9050613484565b505b600073ffffffffffffffffffffffffffffffffffffffff168473ffffffffffffffffffffffffffffffffffffffff1614156135b05760005b83518110156135ae5782818151811061355257613551614a03565b5b602002602001015160fb600086848151811061357157613570614a03565b5b602002602001015181526020019081526020016000206000828254613596919061574b565b92505081905550806135a79061470c565b9050613536565b505b505050505050565b505050505050565b60405180610100016040528060008152602001600081526020016000815260200160008152602001600081526020016000815260200160008152602001600081525090565b828054613611906145dc565b90600052602060002090601f016020900481019282613633576000855561367a565b82601f1061364c57805160ff191683800117855561367a565b8280016001018555821561367a579182015b8281111561367957825182559160200191906001019061365e565b5b509050613687919061368b565b5090565b5b808211156136a457600081600090555060010161368c565b5090565b6000604051905090565b600080fd5b600080fd5b600073ffffffffffffffffffffffffffffffffffffffff82169050919050565b60006136e7826136bc565b9050919050565b6136f7816136dc565b811461370257600080fd5b50565b600081359050613714816136ee565b92915050565b6000819050919050565b61372d8161371a565b811461373857600080fd5b50565b60008135905061374a81613724565b92915050565b60008060408385031215613767576137666136b2565b5b600061377585828601613705565b92505060206137868582860161373b565b9150509250929050565b6137998161371a565b82525050565b60006020820190506137b46000830184613790565b92915050565b60007fffffffff0000000000000000000000000000000000000000000000000000000082169050919050565b6137ef816137ba565b81146137fa57600080fd5b50565b60008135905061380c816137e6565b92915050565b600060208284031215613828576138276136b2565b5b6000613836848285016137fd565b91505092915050565b60008115159050919050565b6138548161383f565b82525050565b600060208201905061386f600083018461384b565b92915050565b600080fd5b600080fd5b6000601f19601f8301169050919050565b7f4e487b7100000000000000000000000000000000000000000000000000000000600052604160045260246000fd5b6138c88261387f565b810181811067ffffffffffffffff821117156138e7576138e6613890565b5b80604052505050565b60006138fa6136a8565b905061390682826138bf565b919050565b600067ffffffffffffffff82111561392657613925613890565b5b61392f8261387f565b9050602081019050919050565b82818337600083830152505050565b600061395e6139598461390b565b6138f0565b90508281526020810184848401111561397a5761397961387a565b5b61398584828561393c565b509392505050565b600082601f8301126139a2576139a1613875565b5b81356139b284826020860161394b565b91505092915050565b6000602082840312156139d1576139d06136b2565b5b600082013567ffffffffffffffff8111156139ef576139ee6136b7565b5b6139fb8482850161398d565b91505092915050565b600060208284031215613a1a57613a196136b2565b5b6000613a288482850161373b565b91505092915050565b600081519050919050565b600082825260208201905092915050565b60005b83811015613a6b578082015181840152602081019050613a50565b83811115613a7a576000848401525b50505050565b6000613a8b82613a31565b613a958185613a3c565b9350613aa5818560208601613a4d565b613aae8161387f565b840191505092915050565b60006020820190508181036000830152613ad38184613a80565b905092915050565b600080600060608486031215613af457613af36136b2565b5b6000613b0286828701613705565b9350506020613b138682870161373b565b9250506040613b248682870161373b565b9150509250925092565b600080fd5b60006101008284031215613b4a57613b49613b2e565b5b613b556101006138f0565b90506000613b658482850161373b565b6000830152506020613b798482850161373b565b6020830152506040613b8d8482850161373b565b6040830152506060613ba18482850161373b565b6060830152506080613bb58482850161373b565b60808301525060a0613bc98482850161373b565b60a08301525060c0613bdd8482850161373b565b60c08301525060e0613bf18482850161373b565b60e08301525092915050565b6000806101208385031215613c1557613c146136b2565b5b6000613c238582860161373b565b9250506020613c3485828601613b33565b9150509250929050565b6000819050919050565b613c5181613c3e565b8114613c5c57600080fd5b50565b600081359050613c6e81613c48565b92915050565b600060208284031215613c8a57613c896136b2565b5b6000613c9884828501613c5f565b91505092915050565b613caa81613c3e565b82525050565b6000602082019050613cc56000830184613ca1565b92915050565b600067ffffffffffffffff821115613ce657613ce5613890565b5b602082029050602081019050919050565b600080fd5b6000613d0f613d0a84613ccb565b6138f0565b90508083825260208201905060208402830185811115613d3257613d31613cf7565b5b835b81811015613d5b5780613d47888261373b565b845260208401935050602081019050613d34565b5050509392505050565b600082601f830112613d7a57613d79613875565b5b8135613d8a848260208601613cfc565b91505092915050565b600067ffffffffffffffff821115613dae57613dad613890565b5b613db78261387f565b9050602081019050919050565b6000613dd7613dd284613d93565b6138f0565b905082815260208101848484011115613df357613df261387a565b5b613dfe84828561393c565b509392505050565b600082601f830112613e1b57613e1a613875565b5b8135613e2b848260208601613dc4565b91505092915050565b600080600080600060a08688031215613e5057613e4f6136b2565b5b6000613e5e88828901613705565b9550506020613e6f88828901613705565b945050604086013567ffffffffffffffff811115613e9057613e8f6136b7565b5b613e9c88828901613d65565b935050606086013567ffffffffffffffff811115613ebd57613ebc6136b7565b5b613ec988828901613d65565b925050608086013567ffffffffffffffff811115613eea57613ee96136b7565b5b613ef688828901613e06565b9150509295509295909350565b60008060408385031215613f1a57613f196136b2565b5b6000613f2885828601613c5f565b9250506020613f3985828601613705565b9150509250929050565b60008060408385031215613f5a57613f596136b2565b5b6000613f688582860161373b565b9250506020613f798582860161373b565b9150509250929050565b600067ffffffffffffffff821115613f9e57613f9d613890565b5b602082029050602081019050919050565b6000613fc2613fbd84613f83565b6138f0565b90508083825260208201905060208402830185811115613fe557613fe4613cf7565b5b835b8181101561400e5780613ffa8882613705565b845260208401935050602081019050613fe7565b5050509392505050565b600082601f83011261402d5761402c613875565b5b813561403d848260208601613faf565b91505092915050565b6000806040838503121561405d5761405c6136b2565b5b600083013567ffffffffffffffff81111561407b5761407a6136b7565b5b61408785828601614018565b925050602083013567ffffffffffffffff8111156140a8576140a76136b7565b5b6140b485828601613d65565b9150509250929050565b600081519050919050565b600082825260208201905092915050565b6000819050602082019050919050565b6140f38161371a565b82525050565b600061410583836140ea565b60208301905092915050565b6000602082019050919050565b6000614129826140be565b61413381856140c9565b935061413e836140da565b8060005b8381101561416f57815161415688826140f9565b975061416183614111565b925050600181019050614142565b5085935050505092915050565b60006020820190508181036000830152614196818461411e565b905092915050565b6000806000606084860312156141b7576141b66136b2565b5b60006141c586828701613705565b935050602084013567ffffffffffffffff8111156141e6576141e56136b7565b5b6141f286828701613d65565b925050604084013567ffffffffffffffff811115614213576142126136b7565b5b61421f86828701613d65565b9150509250925092565b6142328161383f565b811461423d57600080fd5b50565b60008135905061424f81614229565b92915050565b6000806040838503121561426c5761426b6136b2565b5b600061427a85828601613705565b925050602061428b85828601614240565b9150509250929050565b610100820160008201516142ac60008501826140ea565b5060208201516142bf60208501826140ea565b5060408201516142d260408501826140ea565b5060608201516142e560608501826140ea565b5060808201516142f860808501826140ea565b5060a082015161430b60a08501826140ea565b5060c082015161431e60c08501826140ea565b5060e082015161433160e08501826140ea565b50505050565b60006101008201905061434d6000830184614295565b92915050565b6000806040838503121561436a576143696136b2565b5b600061437885828601613705565b925050602061438985828601613705565b9150509250929050565b600080600080600060a086880312156143af576143ae6136b2565b5b60006143bd88828901613705565b95505060206143ce88828901613705565b94505060406143df8882890161373b565b93505060606143f08882890161373b565b925050608086013567ffffffffffffffff811115614411576144106136b7565b5b61441d88828901613e06565b9150509295509295909350565b7f455243313135353a2062616c616e636520717565727920666f7220746865207a60008201527f65726f2061646472657373000000000000000000000000000000000000000000602082015250565b6000614486602b83613a3c565b91506144918261442a565b604082019050919050565b600060208201905081810360008301526144b581614479565b9050919050565b7f6e6565642044454641554c545f41444d494e5f524f4c45000000000000000000600082015250565b60006144f2601783613a3c565b91506144fd826144bc565b602082019050919050565b60006020820190508181036000830152614521816144e5565b9050919050565b7f4e487b7100000000000000000000000000000000000000000000000000000000600052601160045260246000fd5b60006145628261371a565b915061456d8361371a565b9250827fffffffffffffffffffffffffffffffffffffffffffffffffffffffffffffffff038211156145a2576145a1614528565b5b828201905092915050565b7f4e487b7100000000000000000000000000000000000000000000000000000000600052602260045260246000fd5b600060028204905060018216806145f457607f821691505b60208210811415614608576146076145ad565b5b50919050565b7f4d45544152554e434f4c4c454354494f4e3a206e656564204d494e5445525f5260008201527f4f4c450000000000000000000000000000000000000000000000000000000000602082015250565b600061466a602383613a3c565b91506146758261460e565b604082019050919050565b600060208201905081810360008301526146998161465d565b9050919050565b7f43616e6e6f74206d696e74206d6f7265207468616e206f6e65206974656d0000600082015250565b60006146d6601e83613a3c565b91506146e1826146a0565b602082019050919050565b60006020820190508181036000830152614705816146c9565b9050919050565b60006147178261371a565b91507fffffffffffffffffffffffffffffffffffffffffffffffffffffffffffffffff82141561474a57614749614528565b5b600182019050919050565b7f5065726b732061726520617661696c61626c65206f6e6c7920666f722063686160008201527f7261637465727320616e64207065747300000000000000000000000000000000602082015250565b60006147b1603083613a3c565b91506147bc82614755565b604082019050919050565b600060208201905081810360008301526147e0816147a4565b9050919050565b7f6e656564205345545445525f524f4c4500000000000000000000000000000000600082015250565b600061481d601083613a3c565b9150614828826147e7565b602082019050919050565b6000602082019050818103600083015261484c81614810565b9050919050565b7f4e4545445f4d494e5445525f524f4c4500000000000000000000000000000000600082015250565b6000614889601083613a3c565b915061489482614853565b602082019050919050565b600060208201905081810360008301526148b88161487c565b9050919050565b7f554e5355495441424c455f4b494e440000000000000000000000000000000000600082015250565b60006148f5600f83613a3c565b9150614900826148bf565b602082019050919050565b60006020820190508181036000830152614924816148e8565b9050919050565b7f434f554e545f554e444552464c4f570000000000000000000000000000000000600082015250565b6000614961600f83613a3c565b915061496c8261492b565b602082019050919050565b6000602082019050818103600083015261499081614954565b9050919050565b7f4b494e445f4f564552464c4f5700000000000000000000000000000000000000600082015250565b60006149cd600d83613a3c565b91506149d882614997565b602082019050919050565b600060208201905081810360008301526149fc816149c0565b9050919050565b7f4e487b7100000000000000000000000000000000000000000000000000000000600052603260045260246000fd5b7f455243313135353a207472616e736665722063616c6c6572206973206e6f742060008201527f6f776e6572206e6f7220617070726f7665640000000000000000000000000000602082015250565b6000614a8e603283613a3c565b9150614a9982614a32565b604082019050919050565b60006020820190508181036000830152614abd81614a81565b9050919050565b7f416363657373436f6e74726f6c3a2063616e206f6e6c792072656e6f756e636560008201527f20726f6c657320666f722073656c660000000000000000000000000000000000602082015250565b6000614b20602f83613a3c565b9150614b2b82614ac4565b604082019050919050565b60006020820190508181036000830152614b4f81614b13565b9050919050565b7f455243313135353a206163636f756e747320616e6420696473206c656e67746860008201527f206d69736d617463680000000000000000000000000000000000000000000000602082015250565b6000614bb2602983613a3c565b9150614bbd82614b56565b604082019050919050565b60006020820190508181036000830152614be181614ba5565b9050919050565b7f455243313135353a2063616c6c6572206973206e6f74206f776e6572206e6f7260008201527f20617070726f7665640000000000000000000000000000000000000000000000602082015250565b6000614c44602983613a3c565b9150614c4f82614be8565b604082019050919050565b60006020820190508181036000830152614c7381614c37565b9050919050565b7f496e697469616c697a61626c653a20636f6e747261637420697320616c72656160008201527f647920696e697469616c697a6564000000000000000000000000000000000000602082015250565b6000614cd6602e83613a3c565b9150614ce182614c7a565b604082019050919050565b60006020820190508181036000830152614d0581614cc9565b9050919050565b7f455243313135353a206d696e7420746f20746865207a65726f2061646472657360008201527f7300000000000000000000000000000000000000000000000000000000000000602082015250565b6000614d68602183613a3c565b9150614d7382614d0c565b604082019050919050565b60006020820190508181036000830152614d9781614d5b565b9050919050565b6000604082019050614db36000830185613790565b614dc06020830184613790565b9392505050565b7f455243313135353a2069647320616e6420616d6f756e7473206c656e6774682060008201527f6d69736d61746368000000000000000000000000000000000000000000000000602082015250565b6000614e23602883613a3c565b9150614e2e82614dc7565b604082019050919050565b60006020820190508181036000830152614e5281614e16565b9050919050565b60006040820190508181036000830152614e73818561411e565b90508181036020830152614e87818461411e565b90509392505050565b7f455243313135353a207472616e7366657220746f20746865207a65726f20616460008201527f6472657373000000000000000000000000000000000000000000000000000000602082015250565b6000614eec602583613a3c565b9150614ef782614e90565b604082019050919050565b60006020820190508181036000830152614f1b81614edf565b9050919050565b7f455243313135353a20696e73756666696369656e742062616c616e636520666f60008201527f72207472616e7366657200000000000000000000000000000000000000000000602082015250565b6000614f7e602a83613a3c565b9150614f8982614f22565b604082019050919050565b60006020820190508181036000830152614fad81614f71565b9050919050565b600081905092915050565b7f416363657373436f6e74726f6c3a206163636f756e7420000000000000000000600082015250565b6000614ff5601783614fb4565b915061500082614fbf565b601782019050919050565b600061501682613a31565b6150208185614fb4565b9350615030818560208601613a4d565b80840191505092915050565b7f206973206d697373696e6720726f6c6520000000000000000000000000000000600082015250565b6000615072601183614fb4565b915061507d8261503c565b601182019050919050565b600061509382614fe8565b915061509f828561500b565b91506150aa82615065565b91506150b6828461500b565b91508190509392505050565b7f455243313135353a206275726e2066726f6d20746865207a65726f206164647260008201527f6573730000000000000000000000000000000000000000000000000000000000602082015250565b600061511e602383613a3c565b9150615129826150c2565b604082019050919050565b6000602082019050818103600083015261514d81615111565b9050919050565b7f455243313135353a206275726e20616d6f756e7420657863656564732062616c60008201527f616e636500000000000000000000000000000000000000000000000000000000602082015250565b60006151b0602483613a3c565b91506151bb82615154565b604082019050919050565b600060208201905081810360008301526151df816151a3565b9050919050565b7f455243313135353a2073657474696e6720617070726f76616c2073746174757360008201527f20666f722073656c660000000000000000000000000000000000000000000000602082015250565b6000615242602983613a3c565b915061524d826151e6565b604082019050919050565b6000602082019050818103600083015261527181615235565b9050919050565b7f496e697469616c697a61626c653a20636f6e7472616374206973206e6f74206960008201527f6e697469616c697a696e67000000000000000000000000000000000000000000602082015250565b60006152d4602b83613a3c565b91506152df82615278565b604082019050919050565b60006020820190508181036000830152615303816152c7565b9050919050565b615313816136dc565b82525050565b600081519050919050565b600082825260208201905092915050565b600061534082615319565b61534a8185615324565b935061535a818560208601613a4d565b6153638161387f565b840191505092915050565b600060a082019050615383600083018861530a565b615390602083018761530a565b61539d6040830186613790565b6153aa6060830185613790565b81810360808301526153bc8184615335565b90509695505050505050565b6000815190506153d7816137e6565b92915050565b6000602082840312156153f3576153f26136b2565b5b6000615401848285016153c8565b91505092915050565b60008160e01c9050919050565b600060033d11156154365760046000803e61543360005161540a565b90505b90565b600060443d1015615449576154cc565b6154516136a8565b60043d036004823e80513d602482011167ffffffffffffffff821117156154795750506154cc565b808201805167ffffffffffffffff81111561549757505050506154cc565b80602083010160043d0385018111156154b45750505050506154cc565b6154c3826020018501866138bf565b82955050505050505b90565b7f455243313135353a207472616e7366657220746f206e6f6e204552433131353560008201527f526563656976657220696d706c656d656e746572000000000000000000000000602082015250565b600061552b603483613a3c565b9150615536826154cf565b604082019050919050565b6000602082019050818103600083015261555a8161551e565b9050919050565b7f455243313135353a204552433131353552656365697665722072656a6563746560008201527f6420746f6b656e73000000000000000000000000000000000000000000000000602082015250565b60006155bd602883613a3c565b91506155c882615561565b604082019050919050565b600060208201905081810360008301526155ec816155b0565b9050919050565b600060a082019050615608600083018861530a565b615615602083018761530a565b8181036040830152615627818661411e565b9050818103606083015261563b818561411e565b9050818103608083015261564f8184615335565b90509695505050505050565b60006156668261371a565b91506156718361371a565b9250817fffffffffffffffffffffffffffffffffffffffffffffffffffffffffffffffff04831182151516156156aa576156a9614528565b5b828202905092915050565b60006156c08261371a565b915060008214156156d4576156d3614528565b5b600182039050919050565b7f537472696e67733a20686578206c656e67746820696e73756666696369656e74600082015250565b6000615715602083613a3c565b9150615720826156df565b602082019050919050565b6000602082019050818103600083015261574481615708565b9050919050565b60006157568261371a565b91506157618361371a565b92508282101561577457615773614528565b5b82820390509291505056fea2646970667358221220eca342bf8c73966ac3523e5ea3a1ace747867dc45532d612844db95c8e94940564736f6c634300080b0033",
  "devdoc": {
    "kind": "dev",
    "methods": {
      "balanceOf(address,uint256)": {
        "details": "See {IERC1155-balanceOf}. Requirements: - `account` cannot be the zero address."
      },
      "balanceOfBatch(address[],uint256[])": {
        "details": "See {IERC1155-balanceOfBatch}. Requirements: - `accounts` and `ids` must have the same length."
      },
      "exists(uint256)": {
        "details": "Indicates whether any token exist with a given id, or not."
      },
      "getRoleAdmin(bytes32)": {
        "details": "Returns the admin role that controls `role`. See {grantRole} and {revokeRole}. To change a role's admin, use {_setRoleAdmin}."
      },
      "grantRole(bytes32,address)": {
        "details": "Grants `role` to `account`. If `account` had not been already granted `role`, emits a {RoleGranted} event. Requirements: - the caller must have ``role``'s admin role."
      },
      "hasRole(bytes32,address)": {
        "details": "Returns `true` if `account` has been granted `role`."
      },
      "isApprovedForAll(address,address)": {
        "details": "See {IERC1155-isApprovedForAll}."
      },
      "renounceRole(bytes32,address)": {
        "details": "Revokes `role` from the calling account. Roles are often managed via {grantRole} and {revokeRole}: this function's purpose is to provide a mechanism for accounts to lose their privileges if they are compromised (such as when a trusted device is misplaced). If the calling account had been revoked `role`, emits a {RoleRevoked} event. Requirements: - the caller must be `account`."
      },
      "revokeRole(bytes32,address)": {
        "details": "Revokes `role` from `account`. If `account` had been granted `role`, emits a {RoleRevoked} event. Requirements: - the caller must have ``role``'s admin role."
      },
      "safeBatchTransferFrom(address,address,uint256[],uint256[],bytes)": {
        "details": "See {IERC1155-safeBatchTransferFrom}."
      },
      "safeTransferFrom(address,address,uint256,uint256,bytes)": {
        "details": "See {IERC1155-safeTransferFrom}."
      },
      "setApprovalForAll(address,bool)": {
        "details": "See {IERC1155-setApprovalForAll}."
      },
      "totalSupply(uint256)": {
        "details": "Total amount of tokens in with a given id."
      },
      "uri(uint256)": {
        "details": "See {IERC1155MetadataURI-uri}. This implementation returns the same URI for *all* token types. It relies on the token type ID substitution mechanism https://eips.ethereum.org/EIPS/eip-1155#metadata[defined in the EIP]. Clients calling this function must replace the `\\{id\\}` substring with the actual token type ID."
      }
    },
    "version": 1
  },
  "userdoc": {
    "kind": "user",
    "methods": {},
    "version": 1
  },
  "storageLayout": {
    "storage": [
      {
        "astId": 532,
        "contract": "contracts/MetarunCollection.sol:MetarunCollection",
        "label": "_initialized",
        "offset": 0,
        "slot": "0",
        "type": "t_bool"
      },
      {
        "astId": 535,
        "contract": "contracts/MetarunCollection.sol:MetarunCollection",
        "label": "_initializing",
        "offset": 1,
        "slot": "0",
        "type": "t_bool"
      },
      {
        "astId": 2723,
        "contract": "contracts/MetarunCollection.sol:MetarunCollection",
        "label": "__gap",
        "offset": 0,
        "slot": "1",
        "type": "t_array(t_uint256)50_storage"
      },
      {
        "astId": 2970,
        "contract": "contracts/MetarunCollection.sol:MetarunCollection",
        "label": "__gap",
        "offset": 0,
        "slot": "51",
        "type": "t_array(t_uint256)50_storage"
      },
      {
        "astId": 628,
        "contract": "contracts/MetarunCollection.sol:MetarunCollection",
        "label": "_balances",
        "offset": 0,
        "slot": "101",
        "type": "t_mapping(t_uint256,t_mapping(t_address,t_uint256))"
      },
      {
        "astId": 634,
        "contract": "contracts/MetarunCollection.sol:MetarunCollection",
        "label": "_operatorApprovals",
        "offset": 0,
        "slot": "102",
        "type": "t_mapping(t_address,t_mapping(t_address,t_bool))"
      },
      {
        "astId": 636,
        "contract": "contracts/MetarunCollection.sol:MetarunCollection",
        "label": "_uri",
        "offset": 0,
        "slot": "103",
        "type": "t_string_storage"
      },
      {
        "astId": 1716,
        "contract": "contracts/MetarunCollection.sol:MetarunCollection",
        "label": "__gap",
        "offset": 0,
        "slot": "104",
        "type": "t_array(t_uint256)47_storage"
      },
      {
        "astId": 39,
        "contract": "contracts/MetarunCollection.sol:MetarunCollection",
        "label": "_roles",
        "offset": 0,
        "slot": "151",
        "type": "t_mapping(t_bytes32,t_struct(RoleData)34_storage)"
      },
      {
        "astId": 327,
        "contract": "contracts/MetarunCollection.sol:MetarunCollection",
        "label": "__gap",
        "offset": 0,
        "slot": "152",
        "type": "t_array(t_uint256)49_storage"
      },
      {
        "astId": 1968,
        "contract": "contracts/MetarunCollection.sol:MetarunCollection",
        "label": "__gap",
        "offset": 0,
        "slot": "201",
        "type": "t_array(t_uint256)50_storage"
      },
      {
        "astId": 1994,
        "contract": "contracts/MetarunCollection.sol:MetarunCollection",
        "label": "_totalSupply",
        "offset": 0,
        "slot": "251",
        "type": "t_mapping(t_uint256,t_uint256)"
      },
      {
        "astId": 2121,
        "contract": "contracts/MetarunCollection.sol:MetarunCollection",
        "label": "__gap",
        "offset": 0,
        "slot": "252",
        "type": "t_array(t_uint256)49_storage"
      },
      {
        "astId": 4995,
        "contract": "contracts/MetarunCollection.sol:MetarunCollection",
        "label": "kindSupply",
        "offset": 0,
        "slot": "301",
        "type": "t_mapping(t_uint256,t_uint256)"
      },
      {
        "astId": 5017,
        "contract": "contracts/MetarunCollection.sol:MetarunCollection",
        "label": "tokenPerks",
        "offset": 0,
        "slot": "302",
        "type": "t_mapping(t_uint256,t_struct(Perks)5012_storage)"
      }
    ],
    "types": {
      "t_address": {
        "encoding": "inplace",
        "label": "address",
        "numberOfBytes": "20"
      },
      "t_array(t_uint256)47_storage": {
        "base": "t_uint256",
        "encoding": "inplace",
        "label": "uint256[47]",
        "numberOfBytes": "1504"
      },
      "t_array(t_uint256)49_storage": {
        "base": "t_uint256",
        "encoding": "inplace",
        "label": "uint256[49]",
        "numberOfBytes": "1568"
      },
      "t_array(t_uint256)50_storage": {
        "base": "t_uint256",
        "encoding": "inplace",
        "label": "uint256[50]",
        "numberOfBytes": "1600"
      },
      "t_bool": {
        "encoding": "inplace",
        "label": "bool",
        "numberOfBytes": "1"
      },
      "t_bytes32": {
        "encoding": "inplace",
        "label": "bytes32",
        "numberOfBytes": "32"
      },
      "t_mapping(t_address,t_bool)": {
        "encoding": "mapping",
        "key": "t_address",
        "label": "mapping(address => bool)",
        "numberOfBytes": "32",
        "value": "t_bool"
      },
      "t_mapping(t_address,t_mapping(t_address,t_bool))": {
        "encoding": "mapping",
        "key": "t_address",
        "label": "mapping(address => mapping(address => bool))",
        "numberOfBytes": "32",
        "value": "t_mapping(t_address,t_bool)"
      },
      "t_mapping(t_address,t_uint256)": {
        "encoding": "mapping",
        "key": "t_address",
        "label": "mapping(address => uint256)",
        "numberOfBytes": "32",
        "value": "t_uint256"
      },
      "t_mapping(t_bytes32,t_struct(RoleData)34_storage)": {
        "encoding": "mapping",
        "key": "t_bytes32",
        "label": "mapping(bytes32 => struct AccessControlUpgradeable.RoleData)",
        "numberOfBytes": "32",
        "value": "t_struct(RoleData)34_storage"
      },
      "t_mapping(t_uint256,t_mapping(t_address,t_uint256))": {
        "encoding": "mapping",
        "key": "t_uint256",
        "label": "mapping(uint256 => mapping(address => uint256))",
        "numberOfBytes": "32",
        "value": "t_mapping(t_address,t_uint256)"
      },
      "t_mapping(t_uint256,t_struct(Perks)5012_storage)": {
        "encoding": "mapping",
        "key": "t_uint256",
        "label": "mapping(uint256 => struct MetarunCollection.Perks)",
        "numberOfBytes": "32",
        "value": "t_struct(Perks)5012_storage"
      },
      "t_mapping(t_uint256,t_uint256)": {
        "encoding": "mapping",
        "key": "t_uint256",
        "label": "mapping(uint256 => uint256)",
        "numberOfBytes": "32",
        "value": "t_uint256"
      },
      "t_string_storage": {
        "encoding": "bytes",
        "label": "string",
        "numberOfBytes": "32"
      },
      "t_struct(Perks)5012_storage": {
        "encoding": "inplace",
        "label": "struct MetarunCollection.Perks",
        "members": [
          {
            "astId": 4997,
            "contract": "contracts/MetarunCollection.sol:MetarunCollection",
            "label": "level",
            "offset": 0,
            "slot": "0",
            "type": "t_uint256"
          },
          {
            "astId": 4999,
            "contract": "contracts/MetarunCollection.sol:MetarunCollection",
            "label": "runs",
            "offset": 0,
            "slot": "1",
            "type": "t_uint256"
          },
          {
            "astId": 5001,
            "contract": "contracts/MetarunCollection.sol:MetarunCollection",
            "label": "wins",
            "offset": 0,
            "slot": "2",
            "type": "t_uint256"
          },
          {
            "astId": 5003,
            "contract": "contracts/MetarunCollection.sol:MetarunCollection",
            "label": "ability",
            "offset": 0,
            "slot": "3",
            "type": "t_uint256"
          },
          {
            "astId": 5005,
            "contract": "contracts/MetarunCollection.sol:MetarunCollection",
            "label": "health",
            "offset": 0,
            "slot": "4",
            "type": "t_uint256"
          },
          {
            "astId": 5007,
            "contract": "contracts/MetarunCollection.sol:MetarunCollection",
            "label": "mana",
            "offset": 0,
            "slot": "5",
            "type": "t_uint256"
          },
          {
            "astId": 5009,
            "contract": "contracts/MetarunCollection.sol:MetarunCollection",
            "label": "speed",
            "offset": 0,
            "slot": "6",
            "type": "t_uint256"
          },
          {
            "astId": 5011,
            "contract": "contracts/MetarunCollection.sol:MetarunCollection",
            "label": "collisionDamage",
            "offset": 0,
            "slot": "7",
            "type": "t_uint256"
          }
        ],
        "numberOfBytes": "256"
      },
      "t_struct(RoleData)34_storage": {
        "encoding": "inplace",
        "label": "struct AccessControlUpgradeable.RoleData",
        "members": [
          {
            "astId": 31,
            "contract": "contracts/MetarunCollection.sol:MetarunCollection",
            "label": "members",
            "offset": 0,
            "slot": "0",
            "type": "t_mapping(t_address,t_bool)"
          },
          {
            "astId": 33,
            "contract": "contracts/MetarunCollection.sol:MetarunCollection",
            "label": "adminRole",
            "offset": 0,
            "slot": "1",
            "type": "t_bytes32"
          }
        ],
        "numberOfBytes": "64"
      },
      "t_uint256": {
        "encoding": "inplace",
        "label": "uint256",
        "numberOfBytes": "32"
      }
    }
  }
}