{
  "address": "0x07e23A8fA7FE629653888F0Db5a5fe5d88E87d0E",
  "abi": [
    {
      "anonymous": false,
      "inputs": [
        {
          "indexed": true,
          "internalType": "address",
          "name": "account",
          "type": "address"
        },
        {
          "indexed": true,
          "internalType": "address",
          "name": "operator",
          "type": "address"
        },
        {
          "indexed": false,
          "internalType": "bool",
          "name": "approved",
          "type": "bool"
        }
      ],
      "name": "ApprovalForAll",
      "type": "event"
    },
    {
      "anonymous": false,
      "inputs": [
        {
          "indexed": true,
          "internalType": "bytes32",
          "name": "role",
          "type": "bytes32"
        },
        {
          "indexed": true,
          "internalType": "bytes32",
          "name": "previousAdminRole",
          "type": "bytes32"
        },
        {
          "indexed": true,
          "internalType": "bytes32",
          "name": "newAdminRole",
          "type": "bytes32"
        }
      ],
      "name": "RoleAdminChanged",
      "type": "event"
    },
    {
      "anonymous": false,
      "inputs": [
        {
          "indexed": true,
          "internalType": "bytes32",
          "name": "role",
          "type": "bytes32"
        },
        {
          "indexed": true,
          "internalType": "address",
          "name": "account",
          "type": "address"
        },
        {
          "indexed": true,
          "internalType": "address",
          "name": "sender",
          "type": "address"
        }
      ],
      "name": "RoleGranted",
      "type": "event"
    },
    {
      "anonymous": false,
      "inputs": [
        {
          "indexed": true,
          "internalType": "bytes32",
          "name": "role",
          "type": "bytes32"
        },
        {
          "indexed": true,
          "internalType": "address",
          "name": "account",
          "type": "address"
        },
        {
          "indexed": true,
          "internalType": "address",
          "name": "sender",
          "type": "address"
        }
      ],
      "name": "RoleRevoked",
      "type": "event"
    },
    {
      "anonymous": false,
      "inputs": [
        {
          "indexed": true,
          "internalType": "address",
          "name": "operator",
          "type": "address"
        },
        {
          "indexed": true,
          "internalType": "address",
          "name": "from",
          "type": "address"
        },
        {
          "indexed": true,
          "internalType": "address",
          "name": "to",
          "type": "address"
        },
        {
          "indexed": false,
          "internalType": "uint256[]",
          "name": "ids",
          "type": "uint256[]"
        },
        {
          "indexed": false,
          "internalType": "uint256[]",
          "name": "values",
          "type": "uint256[]"
        }
      ],
      "name": "TransferBatch",
      "type": "event"
    },
    {
      "anonymous": false,
      "inputs": [
        {
          "indexed": true,
          "internalType": "address",
          "name": "operator",
          "type": "address"
        },
        {
          "indexed": true,
          "internalType": "address",
          "name": "from",
          "type": "address"
        },
        {
          "indexed": true,
          "internalType": "address",
          "name": "to",
          "type": "address"
        },
        {
          "indexed": false,
          "internalType": "uint256",
          "name": "id",
          "type": "uint256"
        },
        {
          "indexed": false,
          "internalType": "uint256",
          "name": "value",
          "type": "uint256"
        }
      ],
      "name": "TransferSingle",
      "type": "event"
    },
    {
      "anonymous": false,
      "inputs": [
        {
          "indexed": false,
          "internalType": "string",
          "name": "value",
          "type": "string"
        },
        {
          "indexed": true,
          "internalType": "uint256",
          "name": "id",
          "type": "uint256"
        }
      ],
      "name": "URI",
      "type": "event"
    },
    {
      "inputs": [],
      "name": "ARTIFACT_TOKEN_KIND",
      "outputs": [
        {
          "internalType": "uint256",
          "name": "",
          "type": "uint256"
        }
      ],
      "stateMutability": "view",
      "type": "function"
    },
    {
      "inputs": [],
      "name": "COLLISION_DAMAGE_TOKEN_ID",
      "outputs": [
        {
          "internalType": "uint256",
          "name": "",
          "type": "uint256"
        }
      ],
      "stateMutability": "view",
      "type": "function"
    },
    {
      "inputs": [],
      "name": "COMMON_SKIN_KIND",
      "outputs": [
        {
          "internalType": "uint256",
          "name": "",
          "type": "uint256"
        }
      ],
      "stateMutability": "view",
      "type": "function"
    },
    {
      "inputs": [],
      "name": "CRAFTSMAN_CHARACTER_KIND",
      "outputs": [
        {
          "internalType": "uint256",
          "name": "",
          "type": "uint256"
        }
      ],
      "stateMutability": "view",
      "type": "function"
    },
    {
      "inputs": [],
      "name": "DEFAULT_ADMIN_ROLE",
      "outputs": [
        {
          "internalType": "bytes32",
          "name": "",
          "type": "bytes32"
        }
      ],
      "stateMutability": "view",
      "type": "function"
    },
    {
      "inputs": [],
      "name": "FIGHTER_CHARACTER_KIND",
      "outputs": [
        {
          "internalType": "uint256",
          "name": "",
          "type": "uint256"
        }
      ],
      "stateMutability": "view",
      "type": "function"
    },
    {
      "inputs": [],
      "name": "FUNGIBLE_TOKEN_KIND",
      "outputs": [
        {
          "internalType": "uint256",
          "name": "",
          "type": "uint256"
        }
      ],
      "stateMutability": "view",
      "type": "function"
    },
    {
      "inputs": [],
      "name": "HEALTH_TOKEN_ID",
      "outputs": [
        {
          "internalType": "uint256",
          "name": "",
          "type": "uint256"
        }
      ],
      "stateMutability": "view",
      "type": "function"
    },
    {
      "inputs": [],
      "name": "MANA_TOKEN_ID",
      "outputs": [
        {
          "internalType": "uint256",
          "name": "",
          "type": "uint256"
        }
      ],
      "stateMutability": "view",
      "type": "function"
    },
    {
      "inputs": [],
      "name": "MINTER_ROLE",
      "outputs": [
        {
          "internalType": "bytes32",
          "name": "",
          "type": "bytes32"
        }
      ],
      "stateMutability": "view",
      "type": "function"
    },
    {
      "inputs": [],
      "name": "MYTHICAL_SKIN_KIND",
      "outputs": [
        {
          "internalType": "uint256",
          "name": "",
          "type": "uint256"
        }
      ],
      "stateMutability": "view",
      "type": "function"
    },
    {
      "inputs": [],
      "name": "PET_TOKEN_KIND",
      "outputs": [
        {
          "internalType": "uint256",
          "name": "",
          "type": "uint256"
        }
      ],
      "stateMutability": "view",
      "type": "function"
    },
    {
      "inputs": [],
      "name": "RARE_SKIN_KIND",
      "outputs": [
        {
          "internalType": "uint256",
          "name": "",
          "type": "uint256"
        }
      ],
      "stateMutability": "view",
      "type": "function"
    },
    {
      "inputs": [],
      "name": "SETTER_ROLE",
      "outputs": [
        {
          "internalType": "bytes32",
          "name": "",
          "type": "bytes32"
        }
      ],
      "stateMutability": "view",
      "type": "function"
    },
    {
      "inputs": [],
      "name": "SPEED_TOKEN_ID",
      "outputs": [
        {
          "internalType": "uint256",
          "name": "",
          "type": "uint256"
        }
      ],
      "stateMutability": "view",
      "type": "function"
    },
    {
      "inputs": [],
      "name": "SPRINTER_CHARACTER_KIND",
      "outputs": [
        {
          "internalType": "uint256",
          "name": "",
          "type": "uint256"
        }
      ],
      "stateMutability": "view",
      "type": "function"
    },
    {
      "inputs": [
        {
          "internalType": "address",
          "name": "account",
          "type": "address"
        },
        {
          "internalType": "uint256",
          "name": "id",
          "type": "uint256"
        }
      ],
      "name": "balanceOf",
      "outputs": [
        {
          "internalType": "uint256",
          "name": "",
          "type": "uint256"
        }
      ],
      "stateMutability": "view",
      "type": "function"
    },
    {
      "inputs": [
        {
          "internalType": "address[]",
          "name": "accounts",
          "type": "address[]"
        },
        {
          "internalType": "uint256[]",
          "name": "ids",
          "type": "uint256[]"
        }
      ],
      "name": "balanceOfBatch",
      "outputs": [
        {
          "internalType": "uint256[]",
          "name": "",
          "type": "uint256[]"
        }
      ],
      "stateMutability": "view",
      "type": "function"
    },
    {
      "inputs": [
        {
          "internalType": "address",
          "name": "account",
          "type": "address"
        },
        {
          "internalType": "uint256",
          "name": "id",
          "type": "uint256"
        },
        {
          "internalType": "uint256",
          "name": "value",
          "type": "uint256"
        }
      ],
      "name": "burn",
      "outputs": [],
      "stateMutability": "nonpayable",
      "type": "function"
    },
    {
      "inputs": [
        {
          "internalType": "address",
          "name": "account",
          "type": "address"
        },
        {
          "internalType": "uint256[]",
          "name": "ids",
          "type": "uint256[]"
        },
        {
          "internalType": "uint256[]",
          "name": "values",
          "type": "uint256[]"
        }
      ],
      "name": "burnBatch",
      "outputs": [],
      "stateMutability": "nonpayable",
      "type": "function"
    },
    {
      "inputs": [
        {
          "internalType": "uint256",
          "name": "id",
          "type": "uint256"
        }
      ],
      "name": "exists",
      "outputs": [
        {
          "internalType": "bool",
          "name": "",
          "type": "bool"
        }
      ],
      "stateMutability": "view",
      "type": "function"
    },
    {
      "inputs": [
        {
          "internalType": "uint256",
          "name": "id",
          "type": "uint256"
        }
      ],
      "name": "getKind",
      "outputs": [
        {
          "internalType": "uint256",
          "name": "",
          "type": "uint256"
        }
      ],
      "stateMutability": "pure",
      "type": "function"
    },
    {
      "inputs": [
        {
          "internalType": "uint256",
          "name": "kind",
          "type": "uint256"
        }
      ],
      "name": "getKindSupply",
      "outputs": [
        {
          "internalType": "uint256",
          "name": "",
          "type": "uint256"
        }
      ],
      "stateMutability": "view",
      "type": "function"
    },
    {
      "inputs": [
        {
          "internalType": "uint256",
          "name": "id",
          "type": "uint256"
        }
      ],
      "name": "getPerks",
      "outputs": [
        {
          "components": [
            {
              "internalType": "uint256",
              "name": "level",
              "type": "uint256"
            },
            {
              "internalType": "uint256",
              "name": "runs",
              "type": "uint256"
            },
            {
              "internalType": "uint256",
              "name": "wins",
              "type": "uint256"
            },
            {
              "internalType": "uint256",
              "name": "ability",
              "type": "uint256"
            },
            {
              "internalType": "uint256",
              "name": "health",
              "type": "uint256"
            },
            {
              "internalType": "uint256",
              "name": "mana",
              "type": "uint256"
            },
            {
              "internalType": "uint256",
              "name": "speed",
              "type": "uint256"
            },
            {
              "internalType": "uint256",
              "name": "collisionDamage",
              "type": "uint256"
            }
          ],
          "internalType": "struct MetarunCollection.Perks",
          "name": "",
          "type": "tuple"
        }
      ],
      "stateMutability": "view",
      "type": "function"
    },
    {
      "inputs": [
        {
          "internalType": "bytes32",
          "name": "role",
          "type": "bytes32"
        }
      ],
      "name": "getRoleAdmin",
      "outputs": [
        {
          "internalType": "bytes32",
          "name": "",
          "type": "bytes32"
        }
      ],
      "stateMutability": "view",
      "type": "function"
    },
    {
      "inputs": [
        {
          "internalType": "bytes32",
          "name": "role",
          "type": "bytes32"
        },
        {
          "internalType": "address",
          "name": "account",
          "type": "address"
        }
      ],
      "name": "grantRole",
      "outputs": [],
      "stateMutability": "nonpayable",
      "type": "function"
    },
    {
      "inputs": [
        {
          "internalType": "bytes32",
          "name": "role",
          "type": "bytes32"
        },
        {
          "internalType": "address",
          "name": "account",
          "type": "address"
        }
      ],
      "name": "hasRole",
      "outputs": [
        {
          "internalType": "bool",
          "name": "",
          "type": "bool"
        }
      ],
      "stateMutability": "view",
      "type": "function"
    },
    {
      "inputs": [
        {
          "internalType": "string",
          "name": "uri",
          "type": "string"
        }
      ],
      "name": "initialize",
      "outputs": [],
      "stateMutability": "nonpayable",
      "type": "function"
    },
    {
      "inputs": [
        {
          "internalType": "address",
          "name": "account",
          "type": "address"
        },
        {
          "internalType": "address",
          "name": "operator",
          "type": "address"
        }
      ],
      "name": "isApprovedForAll",
      "outputs": [
        {
          "internalType": "bool",
          "name": "",
          "type": "bool"
        }
      ],
      "stateMutability": "view",
      "type": "function"
    },
    {
      "inputs": [
        {
          "internalType": "uint256",
          "name": "id",
          "type": "uint256"
        }
      ],
      "name": "isCharacter",
      "outputs": [
        {
          "internalType": "bool",
          "name": "",
          "type": "bool"
        }
      ],
      "stateMutability": "pure",
      "type": "function"
    },
    {
      "inputs": [
        {
          "internalType": "uint256",
          "name": "id",
          "type": "uint256"
        },
        {
          "internalType": "uint256",
          "name": "kind",
          "type": "uint256"
        }
      ],
      "name": "isKind",
      "outputs": [
        {
          "internalType": "bool",
          "name": "",
          "type": "bool"
        }
      ],
      "stateMutability": "pure",
      "type": "function"
    },
    {
      "inputs": [
        {
          "internalType": "address",
          "name": "to",
          "type": "address"
        },
        {
          "internalType": "uint256",
          "name": "id",
          "type": "uint256"
        },
        {
          "internalType": "uint256",
          "name": "amount",
          "type": "uint256"
        }
      ],
      "name": "mint",
      "outputs": [],
      "stateMutability": "nonpayable",
      "type": "function"
    },
    {
      "inputs": [
        {
          "internalType": "address",
          "name": "to",
          "type": "address"
        },
        {
          "internalType": "uint256",
          "name": "kind",
          "type": "uint256"
        },
        {
          "internalType": "uint256",
          "name": "count",
          "type": "uint256"
        }
      ],
      "name": "mintBatch",
      "outputs": [],
      "stateMutability": "nonpayable",
      "type": "function"
    },
    {
      "inputs": [
        {
          "internalType": "bytes32",
          "name": "role",
          "type": "bytes32"
        },
        {
          "internalType": "address",
          "name": "account",
          "type": "address"
        }
      ],
      "name": "renounceRole",
      "outputs": [],
      "stateMutability": "nonpayable",
      "type": "function"
    },
    {
      "inputs": [
        {
          "internalType": "bytes32",
          "name": "role",
          "type": "bytes32"
        },
        {
          "internalType": "address",
          "name": "account",
          "type": "address"
        }
      ],
      "name": "revokeRole",
      "outputs": [],
      "stateMutability": "nonpayable",
      "type": "function"
    },
    {
      "inputs": [
        {
          "internalType": "address",
          "name": "from",
          "type": "address"
        },
        {
          "internalType": "address",
          "name": "to",
          "type": "address"
        },
        {
          "internalType": "uint256[]",
          "name": "ids",
          "type": "uint256[]"
        },
        {
          "internalType": "uint256[]",
          "name": "amounts",
          "type": "uint256[]"
        },
        {
          "internalType": "bytes",
          "name": "data",
          "type": "bytes"
        }
      ],
      "name": "safeBatchTransferFrom",
      "outputs": [],
      "stateMutability": "nonpayable",
      "type": "function"
    },
    {
      "inputs": [
        {
          "internalType": "address",
          "name": "from",
          "type": "address"
        },
        {
          "internalType": "address",
          "name": "to",
          "type": "address"
        },
        {
          "internalType": "uint256",
          "name": "id",
          "type": "uint256"
        },
        {
          "internalType": "uint256",
          "name": "amount",
          "type": "uint256"
        },
        {
          "internalType": "bytes",
          "name": "data",
          "type": "bytes"
        }
      ],
      "name": "safeTransferFrom",
      "outputs": [],
      "stateMutability": "nonpayable",
      "type": "function"
    },
    {
      "inputs": [
        {
          "internalType": "address",
          "name": "operator",
          "type": "address"
        },
        {
          "internalType": "bool",
          "name": "approved",
          "type": "bool"
        }
      ],
      "name": "setApprovalForAll",
      "outputs": [],
      "stateMutability": "nonpayable",
      "type": "function"
    },
    {
      "inputs": [
        {
          "internalType": "uint256",
          "name": "id",
          "type": "uint256"
        },
        {
          "components": [
            {
              "internalType": "uint256",
              "name": "level",
              "type": "uint256"
            },
            {
              "internalType": "uint256",
              "name": "runs",
              "type": "uint256"
            },
            {
              "internalType": "uint256",
              "name": "wins",
              "type": "uint256"
            },
            {
              "internalType": "uint256",
              "name": "ability",
              "type": "uint256"
            },
            {
              "internalType": "uint256",
              "name": "health",
              "type": "uint256"
            },
            {
              "internalType": "uint256",
              "name": "mana",
              "type": "uint256"
            },
            {
              "internalType": "uint256",
              "name": "speed",
              "type": "uint256"
            },
            {
              "internalType": "uint256",
              "name": "collisionDamage",
              "type": "uint256"
            }
          ],
          "internalType": "struct MetarunCollection.Perks",
          "name": "perks",
          "type": "tuple"
        }
      ],
      "name": "setPerks",
      "outputs": [],
      "stateMutability": "nonpayable",
      "type": "function"
    },
    {
      "inputs": [
        {
          "internalType": "string",
          "name": "newUri",
          "type": "string"
        }
      ],
      "name": "setURI",
      "outputs": [],
      "stateMutability": "nonpayable",
      "type": "function"
    },
    {
      "inputs": [
        {
          "internalType": "bytes4",
          "name": "interfaceId",
          "type": "bytes4"
        }
      ],
      "name": "supportsInterface",
      "outputs": [
        {
          "internalType": "bool",
          "name": "",
          "type": "bool"
        }
      ],
      "stateMutability": "view",
      "type": "function"
    },
    {
      "inputs": [
        {
          "internalType": "uint256",
          "name": "id",
          "type": "uint256"
        }
      ],
      "name": "totalSupply",
      "outputs": [
        {
          "internalType": "uint256",
          "name": "",
          "type": "uint256"
        }
      ],
      "stateMutability": "view",
      "type": "function"
    },
    {
      "inputs": [
        {
          "internalType": "uint256",
          "name": "",
          "type": "uint256"
        }
      ],
      "name": "uri",
      "outputs": [
        {
          "internalType": "string",
          "name": "",
          "type": "string"
        }
      ],
      "stateMutability": "view",
      "type": "function"
    }
  ],
  "transactionHash": "0xf0a440bd31f05e4b47ab54172a25c270b97e6122ad9d2cf10a1d1e6f3c0d1d44",
  "args": [],
  "numDeployments": 1,
  "solcInputHash": "ffe49c7a8972e09eda22950b6e1c4fc4",
  "bytecode": "0x608060405234801561001057600080fd5b5061579f80620000216000396000f3fe608060405234801561001057600080fd5b50600436106102685760003560e01c80634f558e7911610151578063b7569fd5116100c3578063df4b5aeb11610087578063df4b5aeb14610799578063e985e9c5146107b7578063f242432a146107e7578063f5298aca14610803578063f62d18881461081f578063fe4ba8c11461083b57610268565b8063b7569fd5146106cf578063bd85b039146106ff578063ca16487b1461072f578063d53913931461075f578063d547741f1461077d57610268565b80638a6ad02e116101155780638a6ad02e146105f957806391d1485414610629578063a2011b3f14610659578063a217fddf14610677578063a22cb46514610695578063b73eeaf6146106b157610268565b80634f558e7914610541578063565554ff146105715780636b20c4541461058f5780636ca8fede146105ab578063792f96cf146105db57610268565b806327efa6ea116101ea5780632f2ff15d116101ae5780632f2ff15d1461046d57806336568abe14610489578063387570ca146104a557806345ada2ab146104c3578063492e17fe146104e15780634e1273f41461051157610268565b806327efa6ea146103db5780632b2a43c0146103f95780632d1e97f8146104175780632e81aaea146104355780632eb2c2d61461045157610268565b80630e89341c116102315780630e89341c14610325578063156e29f61461035557806317f309df146103715780632147e1111461038d578063248a9ca3146103ab57610268565b8062fdd58e1461026d578063010a2ae11461029d57806301ffc9a7146102bb57806302fe5305146102eb5780630e5bda9814610307575b600080fd5b61028760048036038101906102829190613743565b610859565b6040516102949190613792565b60405180910390f35b6102a5610922565b6040516102b29190613792565b60405180910390f35b6102d560048036038101906102d09190613805565b610928565b6040516102e2919061384d565b60405180910390f35b610305600480360381019061030091906139ae565b61093a565b005b61030f610999565b60405161031c9190613792565b60405180910390f35b61033f600480360381019061033a91906139f7565b6109af565b60405161034c9190613aac565b60405180910390f35b61036f600480360381019061036a9190613ace565b610a43565b005b61038b60048036038101906103869190613bf0565b610ba2565b005b610395610cd9565b6040516103a29190613792565b60405180910390f35b6103c560048036038101906103c09190613c67565b610cde565b6040516103d29190613ca3565b60405180910390f35b6103e3610cfe565b6040516103f09190613792565b60405180910390f35b610401610d03565b60405161040e9190613792565b60405180910390f35b61041f610d09565b60405161042c9190613792565b60405180910390f35b61044f600480360381019061044a9190613ace565b610d0f565b005b61046b60048036038101906104669190613e27565b610fda565b005b61048760048036038101906104829190613ef6565b61107b565b005b6104a3600480360381019061049e9190613ef6565b6110a4565b005b6104ad611127565b6040516104ba9190613792565b60405180910390f35b6104cb61112d565b6040516104d89190613792565b60405180910390f35b6104fb60048036038101906104f69190613f36565b611133565b604051610508919061384d565b60405180910390f35b61052b60048036038101906105269190614039565b611148565b604051610538919061416f565b60405180910390f35b61055b600480360381019061055691906139f7565b611261565b604051610568919061384d565b60405180910390f35b610579611275565b6040516105869190613792565b60405180910390f35b6105a960048036038101906105a49190614191565b61127b565b005b6105c560048036038101906105c091906139f7565b611318565b6040516105d29190613792565b60405180910390f35b6105e361132c565b6040516105f09190613792565b60405180910390f35b610613600480360381019061060e91906139f7565b611342565b6040516106209190613792565b60405180910390f35b610643600480360381019061063e9190613ef6565b611360565b604051610650919061384d565b60405180910390f35b6106616113cb565b60405161066e9190613ca3565b60405180910390f35b61067f6113ef565b60405161068c9190613ca3565b60405180910390f35b6106af60048036038101906106aa9190614248565b6113f6565b005b6106b961140c565b6040516106c69190613792565b60405180910390f35b6106e960048036038101906106e491906139f7565b611411565b6040516106f6919061384d565b60405180910390f35b610719600480360381019061071491906139f7565b611449565b6040516107269190613792565b60405180910390f35b610749600480360381019061074491906139f7565b611466565b604051610756919061432a565b60405180910390f35b610767611540565b6040516107749190613ca3565b60405180910390f35b61079760048036038101906107929190613ef6565b611564565b005b6107a161158d565b6040516107ae9190613792565b60405180910390f35b6107d160048036038101906107cc9190614346565b6115a3565b6040516107de919061384d565b60405180910390f35b61080160048036038101906107fc9190614386565b611637565b005b61081d60048036038101906108189190613ace565b6116d8565b005b610839600480360381019061083491906139ae565b611775565b005b6108436118d9565b6040516108509190613792565b60405180910390f35b60008073ffffffffffffffffffffffffffffffffffffffff168373ffffffffffffffffffffffffffffffffffffffff16036108c9576040517f08c379a00000000000000000000000000000000000000000000000000000000081526004016108c09061448f565b60405180910390fd5b6065600083815260200190815260200160002060008473ffffffffffffffffffffffffffffffffffffffff1673ffffffffffffffffffffffffffffffffffffffff16815260200190815260200160002054905092915050565b61030181565b6000610933826118ef565b9050919050565b61094e6000801b610949611969565b611360565b61098d576040517f08c379a0000000000000000000000000000000000000000000000000000000008152600401610984906144fb565b60405180910390fd5b61099681611971565b50565b60036010610500901b6109ac919061454a565b81565b6060606780546109be906145cf565b80601f01602080910402602001604051908101604052809291908181526020018280546109ea906145cf565b8015610a375780601f10610a0c57610100808354040283529160200191610a37565b820191906000526020600020905b815481529060010190602001808311610a1a57829003601f168201915b50505050509050919050565b610a747f9f2df0fed2c77648de5860a4cc508cd0818c85b8b8a1ab4ceeef8d981c8956a6610a6f611969565b611360565b610ab3576040517f08c379a0000000000000000000000000000000000000000000000000000000008152600401610aaa90614672565b60405180910390fd5b610abf82610500611133565b610b505760018114610b06576040517f08c379a0000000000000000000000000000000000000000000000000000000008152600401610afd906146de565b60405180910390fd5b610b0f82611261565b15610b4f576040517f08c379a0000000000000000000000000000000000000000000000000000000008152600401610b46906146de565b60405180910390fd5b5b610b6b8383836040518060200160405280600081525061198b565b61012d6000610b7984611318565b81526020019081526020016000206000815480929190610b98906146fe565b9190505550505050565b610bab82611411565b80610bbe5750610bbd82610200611133565b5b610bfd576040517f08c379a0000000000000000000000000000000000000000000000000000000008152600401610bf4906147b8565b60405180910390fd5b610c2e7f61c92169ef077349011ff0b1383c894d86c5f0b41d986366b58a6cf31e93beda610c29611969565b611360565b610c6d576040517f08c379a0000000000000000000000000000000000000000000000000000000008152600401610c6490614824565b60405180910390fd5b8061012e6000848152602001908152602001600020600082015181600001556020820151816001015560408201518160020155606082015181600301556080820151816004015560a0820151816005015560c0820151816006015560e082015181600701559050505050565b600081565b600060976000838152602001908152602001600020600101549050919050565b600181565b61020081565b61010081565b610d407f9f2df0fed2c77648de5860a4cc508cd0818c85b8b8a1ab4ceeef8d981c8956a6610d3b611969565b611360565b610d7f576040517f08c379a0000000000000000000000000000000000000000000000000000000008152600401610d7690614890565b60405180910390fd5b6105008203610dc3576040517f08c379a0000000000000000000000000000000000000000000000000000000008152600401610dba906148fc565b60405180910390fd5b60008111610e06576040517f08c379a0000000000000000000000000000000000000000000000000000000008152600401610dfd90614968565b60405180910390fd5b60008167ffffffffffffffff811115610e2257610e21613883565b5b604051908082528060200260200182016040528015610e505781602001602082028036833780820191505090505b509050600080601085901b90505b83821015610efe57610e708186611133565b610eaf576040517f08c379a0000000000000000000000000000000000000000000000000000000008152600401610ea6906149d4565b60405180910390fd5b610eb881611261565b610eeb5780838381518110610ed057610ecf6149f4565b5b6020026020010181815250508180610ee7906146fe565b9250505b8080610ef6906146fe565b915050610e5e565b60008467ffffffffffffffff811115610f1a57610f19613883565b5b604051908082528060200260200182016040528015610f485781602001602082028036833780820191505090505b50905060005b85811015610f8a576001828281518110610f6b57610f6a6149f4565b5b6020026020010181815250508080610f82906146fe565b915050610f4e565b50610fa687858360405180602001604052806000815250611b21565b8461012d60008881526020019081526020016000206000828254610fca919061454a565b9250508190555050505050505050565b610fe2611969565b73ffffffffffffffffffffffffffffffffffffffff168573ffffffffffffffffffffffffffffffffffffffff161480611028575061102785611022611969565b6115a3565b5b611067576040517f08c379a000000000000000000000000000000000000000000000000000000000815260040161105e90614a95565b60405180910390fd5b6110748585858585611d3f565b5050505050565b61108482610cde565b61109581611090611969565b612055565b61109f83836120f2565b505050565b6110ac611969565b73ffffffffffffffffffffffffffffffffffffffff168173ffffffffffffffffffffffffffffffffffffffff1614611119576040517f08c379a000000000000000000000000000000000000000000000000000000000815260040161111090614b27565b60405180910390fd5b61112382826121d3565b5050565b61030281565b61030081565b60008161113f84611318565b14905092915050565b6060815183511461118e576040517f08c379a000000000000000000000000000000000000000000000000000000000815260040161118590614bb9565b60405180910390fd5b6000835167ffffffffffffffff8111156111ab576111aa613883565b5b6040519080825280602002602001820160405280156111d95781602001602082028036833780820191505090505b50905060005b8451811015611256576112268582815181106111fe576111fd6149f4565b5b6020026020010151858381518110611219576112186149f4565b5b6020026020010151610859565b828281518110611239576112386149f4565b5b6020026020010181815250508061124f906146fe565b90506111df565b508091505092915050565b60008061126d83611449565b119050919050565b61050081565b611283611969565b73ffffffffffffffffffffffffffffffffffffffff168373ffffffffffffffffffffffffffffffffffffffff1614806112c957506112c8836112c3611969565b6115a3565b5b611308576040517f08c379a00000000000000000000000000000000000000000000000000000000081526004016112ff90614c4b565b60405180910390fd5b6113138383836122b5565b505050565b600060108263ffff000016901c9050919050565b60006010610500901b61133f919061454a565b81565b600061012d6000838152602001908152602001600020549050919050565b60006097600084815260200190815260200160002060000160008373ffffffffffffffffffffffffffffffffffffffff1673ffffffffffffffffffffffffffffffffffffffff16815260200190815260200160002060009054906101000a900460ff16905092915050565b7f61c92169ef077349011ff0b1383c894d86c5f0b41d986366b58a6cf31e93beda81565b6000801b81565b611408611401611969565b8383612567565b5050565b600281565b600061141e826000611133565b80611430575061142f826001611133565b5b806114425750611441826002611133565b5b9050919050565b600060fb6000838152602001908152602001600020549050919050565b61146e6135b3565b61147782611411565b8061148a575061148982610200611133565b5b6114c9576040517f08c379a00000000000000000000000000000000000000000000000000000000081526004016114c0906147b8565b60405180910390fd5b61012e600083815260200190815260200160002060405180610100016040529081600082015481526020016001820154815260200160028201548152602001600382015481526020016004820154815260200160058201548152602001600682015481526020016007820154815250509050919050565b7f9f2df0fed2c77648de5860a4cc508cd0818c85b8b8a1ab4ceeef8d981c8956a681565b61156d82610cde565b61157e81611579611969565b612055565b61158883836121d3565b505050565b60026010610500901b6115a0919061454a565b81565b6000606660008473ffffffffffffffffffffffffffffffffffffffff1673ffffffffffffffffffffffffffffffffffffffff16815260200190815260200160002060008373ffffffffffffffffffffffffffffffffffffffff1673ffffffffffffffffffffffffffffffffffffffff16815260200190815260200160002060009054906101000a900460ff16905092915050565b61163f611969565b73ffffffffffffffffffffffffffffffffffffffff168573ffffffffffffffffffffffffffffffffffffffff16148061168557506116848561167f611969565b6115a3565b5b6116c4576040517f08c379a00000000000000000000000000000000000000000000000000000000081526004016116bb90614c4b565b60405180910390fd5b6116d185858585856126d3565b5050505050565b6116e0611969565b73ffffffffffffffffffffffffffffffffffffffff168373ffffffffffffffffffffffffffffffffffffffff161480611726575061172583611720611969565b6115a3565b5b611765576040517f08c379a000000000000000000000000000000000000000000000000000000000815260040161175c90614c4b565b60405180910390fd5b611770838383612957565b505050565b600060019054906101000a900460ff1661179d5760008054906101000a900460ff16156117a6565b6117a5612b75565b5b6117e5576040517f08c379a00000000000000000000000000000000000000000000000000000000081526004016117dc90614cdd565b60405180910390fd5b60008060019054906101000a900460ff161590508015611835576001600060016101000a81548160ff02191690831515021790555060016000806101000a81548160ff0219169083151502179055505b61183e82612b86565b6118526000801b61184d611969565b612be1565b6118837f9f2df0fed2c77648de5860a4cc508cd0818c85b8b8a1ab4ceeef8d981c8956a661187e611969565b612be1565b6118b47f61c92169ef077349011ff0b1383c894d86c5f0b41d986366b58a6cf31e93beda6118af611969565b612be1565b80156118d55760008060016101000a81548160ff0219169083151502179055505b5050565b60016010610500901b6118ec919061454a565b81565b60007f7965db0b000000000000000000000000000000000000000000000000000000007bffffffffffffffffffffffffffffffffffffffffffffffffffffffff1916827bffffffffffffffffffffffffffffffffffffffffffffffffffffffff19161480611962575061196182612bef565b5b9050919050565b600033905090565b80606790805190602001906119879291906135f8565b5050565b600073ffffffffffffffffffffffffffffffffffffffff168473ffffffffffffffffffffffffffffffffffffffff16036119fa576040517f08c379a00000000000000000000000000000000000000000000000000000000081526004016119f190614d6f565b60405180910390fd5b6000611a04611969565b9050611a2581600087611a1688612cd1565b611a1f88612cd1565b87612d4b565b826065600086815260200190815260200160002060008773ffffffffffffffffffffffffffffffffffffffff1673ffffffffffffffffffffffffffffffffffffffff1681526020019081526020016000206000828254611a85919061454a565b925050819055508473ffffffffffffffffffffffffffffffffffffffff16600073ffffffffffffffffffffffffffffffffffffffff168273ffffffffffffffffffffffffffffffffffffffff167fc3d58168c5ae7397731d063d5bbf3d657854427343f4c083240f7aacaa2d0f628787604051611b03929190614d8f565b60405180910390a4611b1a81600087878787612d61565b5050505050565b600073ffffffffffffffffffffffffffffffffffffffff168473ffffffffffffffffffffffffffffffffffffffff1603611b90576040517f08c379a0000000000000000000000000000000000000000000000000000000008152600401611b8790614d6f565b60405180910390fd5b8151835114611bd4576040517f08c379a0000000000000000000000000000000000000000000000000000000008152600401611bcb90614e2a565b60405180910390fd5b6000611bde611969565b9050611bef81600087878787612d4b565b60005b8451811015611ca957838181518110611c0e57611c0d6149f4565b5b602002602001015160656000878481518110611c2d57611c2c6149f4565b5b6020026020010151815260200190815260200160002060008873ffffffffffffffffffffffffffffffffffffffff1673ffffffffffffffffffffffffffffffffffffffff1681526020019081526020016000206000828254611c8f919061454a565b925050819055508080611ca1906146fe565b915050611bf2565b508473ffffffffffffffffffffffffffffffffffffffff16600073ffffffffffffffffffffffffffffffffffffffff168273ffffffffffffffffffffffffffffffffffffffff167f4a39dc06d4c0dbc64b70af90fd698a233a518aa5d07e595d983b8c0526c8f7fb8787604051611d21929190614e4a565b60405180910390a4611d3881600087878787612f38565b5050505050565b8151835114611d83576040517f08c379a0000000000000000000000000000000000000000000000000000000008152600401611d7a90614e2a565b60405180910390fd5b600073ffffffffffffffffffffffffffffffffffffffff168473ffffffffffffffffffffffffffffffffffffffff1603611df2576040517f08c379a0000000000000000000000000000000000000000000000000000000008152600401611de990614ef3565b60405180910390fd5b6000611dfc611969565b9050611e0c818787878787612d4b565b60005b8451811015611fc0576000858281518110611e2d57611e2c6149f4565b5b602002602001015190506000858381518110611e4c57611e4b6149f4565b5b6020026020010151905060006065600084815260200190815260200160002060008b73ffffffffffffffffffffffffffffffffffffffff1673ffffffffffffffffffffffffffffffffffffffff16815260200190815260200160002054905081811015611eee576040517f08c379a0000000000000000000000000000000000000000000000000000000008152600401611ee590614f85565b60405180910390fd5b8181036065600085815260200190815260200160002060008c73ffffffffffffffffffffffffffffffffffffffff1673ffffffffffffffffffffffffffffffffffffffff16815260200190815260200160002081905550816065600085815260200190815260200160002060008b73ffffffffffffffffffffffffffffffffffffffff1673ffffffffffffffffffffffffffffffffffffffff1681526020019081526020016000206000828254611fa5919061454a565b9250508190555050505080611fb9906146fe565b9050611e0f565b508473ffffffffffffffffffffffffffffffffffffffff168673ffffffffffffffffffffffffffffffffffffffff168273ffffffffffffffffffffffffffffffffffffffff167f4a39dc06d4c0dbc64b70af90fd698a233a518aa5d07e595d983b8c0526c8f7fb8787604051612037929190614e4a565b60405180910390a461204d818787878787612f38565b505050505050565b61205f8282611360565b6120ee576120848173ffffffffffffffffffffffffffffffffffffffff16601461310f565b6120928360001c602061310f565b6040516020016120a3929190615079565b6040516020818303038152906040526040517f08c379a00000000000000000000000000000000000000000000000000000000081526004016120e59190613aac565b60405180910390fd5b5050565b6120fc8282611360565b6121cf5760016097600084815260200190815260200160002060000160008373ffffffffffffffffffffffffffffffffffffffff1673ffffffffffffffffffffffffffffffffffffffff16815260200190815260200160002060006101000a81548160ff021916908315150217905550612174611969565b73ffffffffffffffffffffffffffffffffffffffff168173ffffffffffffffffffffffffffffffffffffffff16837f2f8788117e7eff1d82e926ec794901d17c78024a50270940304540a733656f0d60405160405180910390a45b5050565b6121dd8282611360565b156122b15760006097600084815260200190815260200160002060000160008373ffffffffffffffffffffffffffffffffffffffff1673ffffffffffffffffffffffffffffffffffffffff16815260200190815260200160002060006101000a81548160ff021916908315150217905550612256611969565b73ffffffffffffffffffffffffffffffffffffffff168173ffffffffffffffffffffffffffffffffffffffff16837ff6391f5c32d9c69d2a47ea670b442974b53935d1edc7fd64eb21e047a839171b60405160405180910390a45b5050565b600073ffffffffffffffffffffffffffffffffffffffff168373ffffffffffffffffffffffffffffffffffffffff1603612324576040517f08c379a000000000000000000000000000000000000000000000000000000000815260040161231b90615125565b60405180910390fd5b8051825114612368576040517f08c379a000000000000000000000000000000000000000000000000000000000815260040161235f90614e2a565b60405180910390fd5b6000612372611969565b905061239281856000868660405180602001604052806000815250612d4b565b60005b83518110156124e15760008482815181106123b3576123b26149f4565b5b6020026020010151905060008483815181106123d2576123d16149f4565b5b6020026020010151905060006065600084815260200190815260200160002060008973ffffffffffffffffffffffffffffffffffffffff1673ffffffffffffffffffffffffffffffffffffffff16815260200190815260200160002054905081811015612474576040517f08c379a000000000000000000000000000000000000000000000000000000000815260040161246b906151b7565b60405180910390fd5b8181036065600085815260200190815260200160002060008a73ffffffffffffffffffffffffffffffffffffffff1673ffffffffffffffffffffffffffffffffffffffff1681526020019081526020016000208190555050505080806124d9906146fe565b915050612395565b50600073ffffffffffffffffffffffffffffffffffffffff168473ffffffffffffffffffffffffffffffffffffffff168273ffffffffffffffffffffffffffffffffffffffff167f4a39dc06d4c0dbc64b70af90fd698a233a518aa5d07e595d983b8c0526c8f7fb8686604051612559929190614e4a565b60405180910390a450505050565b8173ffffffffffffffffffffffffffffffffffffffff168373ffffffffffffffffffffffffffffffffffffffff16036125d5576040517f08c379a00000000000000000000000000000000000000000000000000000000081526004016125cc90615249565b60405180910390fd5b80606660008573ffffffffffffffffffffffffffffffffffffffff1673ffffffffffffffffffffffffffffffffffffffff16815260200190815260200160002060008473ffffffffffffffffffffffffffffffffffffffff1673ffffffffffffffffffffffffffffffffffffffff16815260200190815260200160002060006101000a81548160ff0219169083151502179055508173ffffffffffffffffffffffffffffffffffffffff168373ffffffffffffffffffffffffffffffffffffffff167f17307eab39ab6107e8899845ad3d59bd9653f200f220920489ca2b5937696c31836040516126c6919061384d565b60405180910390a3505050565b600073ffffffffffffffffffffffffffffffffffffffff168473ffffffffffffffffffffffffffffffffffffffff1603612742576040517f08c379a000000000000000000000000000000000000000000000000000000000815260040161273990614ef3565b60405180910390fd5b600061274c611969565b905061276c81878761275d88612cd1565b61276688612cd1565b87612d4b565b60006065600086815260200190815260200160002060008873ffffffffffffffffffffffffffffffffffffffff1673ffffffffffffffffffffffffffffffffffffffff16815260200190815260200160002054905083811015612804576040517f08c379a00000000000000000000000000000000000000000000000000000000081526004016127fb90614f85565b60405180910390fd5b8381036065600087815260200190815260200160002060008973ffffffffffffffffffffffffffffffffffffffff1673ffffffffffffffffffffffffffffffffffffffff16815260200190815260200160002081905550836065600087815260200190815260200160002060008873ffffffffffffffffffffffffffffffffffffffff1673ffffffffffffffffffffffffffffffffffffffff16815260200190815260200160002060008282546128bb919061454a565b925050819055508573ffffffffffffffffffffffffffffffffffffffff168773ffffffffffffffffffffffffffffffffffffffff168373ffffffffffffffffffffffffffffffffffffffff167fc3d58168c5ae7397731d063d5bbf3d657854427343f4c083240f7aacaa2d0f628888604051612938929190614d8f565b60405180910390a461294e828888888888612d61565b50505050505050565b600073ffffffffffffffffffffffffffffffffffffffff168373ffffffffffffffffffffffffffffffffffffffff16036129c6576040517f08c379a00000000000000000000000000000000000000000000000000000000081526004016129bd90615125565b60405180910390fd5b60006129d0611969565b9050612a00818560006129e287612cd1565b6129eb87612cd1565b60405180602001604052806000815250612d4b565b60006065600085815260200190815260200160002060008673ffffffffffffffffffffffffffffffffffffffff1673ffffffffffffffffffffffffffffffffffffffff16815260200190815260200160002054905082811015612a98576040517f08c379a0000000000000000000000000000000000000000000000000000000008152600401612a8f906151b7565b60405180910390fd5b8281036065600086815260200190815260200160002060008773ffffffffffffffffffffffffffffffffffffffff1673ffffffffffffffffffffffffffffffffffffffff16815260200190815260200160002081905550600073ffffffffffffffffffffffffffffffffffffffff168573ffffffffffffffffffffffffffffffffffffffff168373ffffffffffffffffffffffffffffffffffffffff167fc3d58168c5ae7397731d063d5bbf3d657854427343f4c083240f7aacaa2d0f628787604051612b66929190614d8f565b60405180910390a45050505050565b6000612b803061334b565b15905090565b600060019054906101000a900460ff16612bd5576040517f08c379a0000000000000000000000000000000000000000000000000000000008152600401612bcc906152db565b60405180910390fd5b612bde8161336e565b50565b612beb82826120f2565b5050565b60007fd9b67a26000000000000000000000000000000000000000000000000000000007bffffffffffffffffffffffffffffffffffffffffffffffffffffffff1916827bffffffffffffffffffffffffffffffffffffffffffffffffffffffff19161480612cba57507f0e89341c000000000000000000000000000000000000000000000000000000007bffffffffffffffffffffffffffffffffffffffffffffffffffffffff1916827bffffffffffffffffffffffffffffffffffffffffffffffffffffffff1916145b80612cca5750612cc9826133c9565b5b9050919050565b60606000600167ffffffffffffffff811115612cf057612cef613883565b5b604051908082528060200260200182016040528015612d1e5781602001602082028036833780820191505090505b5090508281600081518110612d3657612d356149f4565b5b60200260200101818152505080915050919050565b612d59868686868686613433565b505050505050565b612d808473ffffffffffffffffffffffffffffffffffffffff1661334b565b15612f30578373ffffffffffffffffffffffffffffffffffffffff1663f23a6e6187878686866040518663ffffffff1660e01b8152600401612dc695949392919061535f565b6020604051808303816000875af1925050508015612e0257506040513d601f19601f82011682018060405250810190612dff91906153ce565b60015b612ea757612e0e615408565b806308c379a003612e6a5750612e2261542a565b80612e2d5750612e6c565b806040517f08c379a0000000000000000000000000000000000000000000000000000000008152600401612e619190613aac565b60405180910390fd5b505b6040517f08c379a0000000000000000000000000000000000000000000000000000000008152600401612e9e9061552c565b60405180910390fd5b63f23a6e6160e01b7bffffffffffffffffffffffffffffffffffffffffffffffffffffffff1916817bffffffffffffffffffffffffffffffffffffffffffffffffffffffff191614612f2e576040517f08c379a0000000000000000000000000000000000000000000000000000000008152600401612f25906155be565b60405180910390fd5b505b505050505050565b612f578473ffffffffffffffffffffffffffffffffffffffff1661334b565b15613107578373ffffffffffffffffffffffffffffffffffffffff1663bc197c8187878686866040518663ffffffff1660e01b8152600401612f9d9594939291906155de565b6020604051808303816000875af1925050508015612fd957506040513d601f19601f82011682018060405250810190612fd691906153ce565b60015b61307e57612fe5615408565b806308c379a0036130415750612ff961542a565b806130045750613043565b806040517f08c379a00000000000000000000000000000000000000000000000000000000081526004016130389190613aac565b60405180910390fd5b505b6040517f08c379a00000000000000000000000000000000000000000000000000000000081526004016130759061552c565b60405180910390fd5b63bc197c8160e01b7bffffffffffffffffffffffffffffffffffffffffffffffffffffffff1916817bffffffffffffffffffffffffffffffffffffffffffffffffffffffff191614613105576040517f08c379a00000000000000000000000000000000000000000000000000000000081526004016130fc906155be565b60405180910390fd5b505b505050505050565b6060600060028360026131229190615646565b61312c919061454a565b67ffffffffffffffff81111561314557613144613883565b5b6040519080825280601f01601f1916602001820160405280156131775781602001600182028036833780820191505090505b5090507f3000000000000000000000000000000000000000000000000000000000000000816000815181106131af576131ae6149f4565b5b60200101907effffffffffffffffffffffffffffffffffffffffffffffffffffffffffffff1916908160001a9053507f780000000000000000000000000000000000000000000000000000000000000081600181518110613213576132126149f4565b5b60200101907effffffffffffffffffffffffffffffffffffffffffffffffffffffffffffff1916908160001a905350600060018460026132539190615646565b61325d919061454a565b90505b60018111156132fd577f3031323334353637383961626364656600000000000000000000000000000000600f86166010811061329f5761329e6149f4565b5b1a60f81b8282815181106132b6576132b56149f4565b5b60200101907effffffffffffffffffffffffffffffffffffffffffffffffffffffffffffff1916908160001a905350600485901c9450806132f6906156a0565b9050613260565b5060008414613341576040517f08c379a000000000000000000000000000000000000000000000000000000000815260040161333890615715565b60405180910390fd5b8091505092915050565b6000808273ffffffffffffffffffffffffffffffffffffffff163b119050919050565b600060019054906101000a900460ff166133bd576040517f08c379a00000000000000000000000000000000000000000000000000000000081526004016133b4906152db565b60405180910390fd5b6133c681611971565b50565b60007f01ffc9a7000000000000000000000000000000000000000000000000000000007bffffffffffffffffffffffffffffffffffffffffffffffffffffffff1916827bffffffffffffffffffffffffffffffffffffffffffffffffffffffff1916149050919050565b6134418686868686866135ab565b600073ffffffffffffffffffffffffffffffffffffffff168573ffffffffffffffffffffffffffffffffffffffff16036134f25760005b83518110156134f057828181518110613494576134936149f4565b5b602002602001015160fb60008684815181106134b3576134b26149f4565b5b6020026020010151815260200190815260200160002060008282546134d8919061454a565b92505081905550806134e9906146fe565b9050613478565b505b600073ffffffffffffffffffffffffffffffffffffffff168473ffffffffffffffffffffffffffffffffffffffff16036135a35760005b83518110156135a157828181518110613545576135446149f4565b5b602002602001015160fb6000868481518110613564576135636149f4565b5b6020026020010151815260200190815260200160002060008282546135899190615735565b925050819055508061359a906146fe565b9050613529565b505b505050505050565b505050505050565b60405180610100016040528060008152602001600081526020016000815260200160008152602001600081526020016000815260200160008152602001600081525090565b828054613604906145cf565b90600052602060002090601f016020900481019282613626576000855561366d565b82601f1061363f57805160ff191683800117855561366d565b8280016001018555821561366d579182015b8281111561366c578251825591602001919060010190613651565b5b50905061367a919061367e565b5090565b5b8082111561369757600081600090555060010161367f565b5090565b6000604051905090565b600080fd5b600080fd5b600073ffffffffffffffffffffffffffffffffffffffff82169050919050565b60006136da826136af565b9050919050565b6136ea816136cf565b81146136f557600080fd5b50565b600081359050613707816136e1565b92915050565b6000819050919050565b6137208161370d565b811461372b57600080fd5b50565b60008135905061373d81613717565b92915050565b6000806040838503121561375a576137596136a5565b5b6000613768858286016136f8565b92505060206137798582860161372e565b9150509250929050565b61378c8161370d565b82525050565b60006020820190506137a76000830184613783565b92915050565b60007fffffffff0000000000000000000000000000000000000000000000000000000082169050919050565b6137e2816137ad565b81146137ed57600080fd5b50565b6000813590506137ff816137d9565b92915050565b60006020828403121561381b5761381a6136a5565b5b6000613829848285016137f0565b91505092915050565b60008115159050919050565b61384781613832565b82525050565b6000602082019050613862600083018461383e565b92915050565b600080fd5b600080fd5b6000601f19601f8301169050919050565b7f4e487b7100000000000000000000000000000000000000000000000000000000600052604160045260246000fd5b6138bb82613872565b810181811067ffffffffffffffff821117156138da576138d9613883565b5b80604052505050565b60006138ed61369b565b90506138f982826138b2565b919050565b600067ffffffffffffffff82111561391957613918613883565b5b61392282613872565b9050602081019050919050565b82818337600083830152505050565b600061395161394c846138fe565b6138e3565b90508281526020810184848401111561396d5761396c61386d565b5b61397884828561392f565b509392505050565b600082601f83011261399557613994613868565b5b81356139a584826020860161393e565b91505092915050565b6000602082840312156139c4576139c36136a5565b5b600082013567ffffffffffffffff8111156139e2576139e16136aa565b5b6139ee84828501613980565b91505092915050565b600060208284031215613a0d57613a0c6136a5565b5b6000613a1b8482850161372e565b91505092915050565b600081519050919050565b600082825260208201905092915050565b60005b83811015613a5e578082015181840152602081019050613a43565b83811115613a6d576000848401525b50505050565b6000613a7e82613a24565b613a888185613a2f565b9350613a98818560208601613a40565b613aa181613872565b840191505092915050565b60006020820190508181036000830152613ac68184613a73565b905092915050565b600080600060608486031215613ae757613ae66136a5565b5b6000613af5868287016136f8565b9350506020613b068682870161372e565b9250506040613b178682870161372e565b9150509250925092565b600080fd5b60006101008284031215613b3d57613b3c613b21565b5b613b486101006138e3565b90506000613b588482850161372e565b6000830152506020613b6c8482850161372e565b6020830152506040613b808482850161372e565b6040830152506060613b948482850161372e565b6060830152506080613ba88482850161372e565b60808301525060a0613bbc8482850161372e565b60a08301525060c0613bd08482850161372e565b60c08301525060e0613be48482850161372e565b60e08301525092915050565b6000806101208385031215613c0857613c076136a5565b5b6000613c168582860161372e565b9250506020613c2785828601613b26565b9150509250929050565b6000819050919050565b613c4481613c31565b8114613c4f57600080fd5b50565b600081359050613c6181613c3b565b92915050565b600060208284031215613c7d57613c7c6136a5565b5b6000613c8b84828501613c52565b91505092915050565b613c9d81613c31565b82525050565b6000602082019050613cb86000830184613c94565b92915050565b600067ffffffffffffffff821115613cd957613cd8613883565b5b602082029050602081019050919050565b600080fd5b6000613d02613cfd84613cbe565b6138e3565b90508083825260208201905060208402830185811115613d2557613d24613cea565b5b835b81811015613d4e5780613d3a888261372e565b845260208401935050602081019050613d27565b5050509392505050565b600082601f830112613d6d57613d6c613868565b5b8135613d7d848260208601613cef565b91505092915050565b600067ffffffffffffffff821115613da157613da0613883565b5b613daa82613872565b9050602081019050919050565b6000613dca613dc584613d86565b6138e3565b905082815260208101848484011115613de657613de561386d565b5b613df184828561392f565b509392505050565b600082601f830112613e0e57613e0d613868565b5b8135613e1e848260208601613db7565b91505092915050565b600080600080600060a08688031215613e4357613e426136a5565b5b6000613e51888289016136f8565b9550506020613e62888289016136f8565b945050604086013567ffffffffffffffff811115613e8357613e826136aa565b5b613e8f88828901613d58565b935050606086013567ffffffffffffffff811115613eb057613eaf6136aa565b5b613ebc88828901613d58565b925050608086013567ffffffffffffffff811115613edd57613edc6136aa565b5b613ee988828901613df9565b9150509295509295909350565b60008060408385031215613f0d57613f0c6136a5565b5b6000613f1b85828601613c52565b9250506020613f2c858286016136f8565b9150509250929050565b60008060408385031215613f4d57613f4c6136a5565b5b6000613f5b8582860161372e565b9250506020613f6c8582860161372e565b9150509250929050565b600067ffffffffffffffff821115613f9157613f90613883565b5b602082029050602081019050919050565b6000613fb5613fb084613f76565b6138e3565b90508083825260208201905060208402830185811115613fd857613fd7613cea565b5b835b818110156140015780613fed88826136f8565b845260208401935050602081019050613fda565b5050509392505050565b600082601f8301126140205761401f613868565b5b8135614030848260208601613fa2565b91505092915050565b600080604083850312156140505761404f6136a5565b5b600083013567ffffffffffffffff81111561406e5761406d6136aa565b5b61407a8582860161400b565b925050602083013567ffffffffffffffff81111561409b5761409a6136aa565b5b6140a785828601613d58565b9150509250929050565b600081519050919050565b600082825260208201905092915050565b6000819050602082019050919050565b6140e68161370d565b82525050565b60006140f883836140dd565b60208301905092915050565b6000602082019050919050565b600061411c826140b1565b61412681856140bc565b9350614131836140cd565b8060005b8381101561416257815161414988826140ec565b975061415483614104565b925050600181019050614135565b5085935050505092915050565b600060208201905081810360008301526141898184614111565b905092915050565b6000806000606084860312156141aa576141a96136a5565b5b60006141b8868287016136f8565b935050602084013567ffffffffffffffff8111156141d9576141d86136aa565b5b6141e586828701613d58565b925050604084013567ffffffffffffffff811115614206576142056136aa565b5b61421286828701613d58565b9150509250925092565b61422581613832565b811461423057600080fd5b50565b6000813590506142428161421c565b92915050565b6000806040838503121561425f5761425e6136a5565b5b600061426d858286016136f8565b925050602061427e85828601614233565b9150509250929050565b6101008201600082015161429f60008501826140dd565b5060208201516142b260208501826140dd565b5060408201516142c560408501826140dd565b5060608201516142d860608501826140dd565b5060808201516142eb60808501826140dd565b5060a08201516142fe60a08501826140dd565b5060c082015161431160c08501826140dd565b5060e082015161432460e08501826140dd565b50505050565b6000610100820190506143406000830184614288565b92915050565b6000806040838503121561435d5761435c6136a5565b5b600061436b858286016136f8565b925050602061437c858286016136f8565b9150509250929050565b600080600080600060a086880312156143a2576143a16136a5565b5b60006143b0888289016136f8565b95505060206143c1888289016136f8565b94505060406143d28882890161372e565b93505060606143e38882890161372e565b925050608086013567ffffffffffffffff811115614404576144036136aa565b5b61441088828901613df9565b9150509295509295909350565b7f455243313135353a2062616c616e636520717565727920666f7220746865207a60008201527f65726f2061646472657373000000000000000000000000000000000000000000602082015250565b6000614479602b83613a2f565b91506144848261441d565b604082019050919050565b600060208201905081810360008301526144a88161446c565b9050919050565b7f6e6565642044454641554c545f41444d494e5f524f4c45000000000000000000600082015250565b60006144e5601783613a2f565b91506144f0826144af565b602082019050919050565b60006020820190508181036000830152614514816144d8565b9050919050565b7f4e487b7100000000000000000000000000000000000000000000000000000000600052601160045260246000fd5b60006145558261370d565b91506145608361370d565b9250827fffffffffffffffffffffffffffffffffffffffffffffffffffffffffffffffff038211156145955761459461451b565b5b828201905092915050565b7f4e487b7100000000000000000000000000000000000000000000000000000000600052602260045260246000fd5b600060028204905060018216806145e757607f821691505b6020821081036145fa576145f96145a0565b5b50919050565b7f4d45544152554e434f4c4c454354494f4e3a206e656564204d494e5445525f5260008201527f4f4c450000000000000000000000000000000000000000000000000000000000602082015250565b600061465c602383613a2f565b915061466782614600565b604082019050919050565b6000602082019050818103600083015261468b8161464f565b9050919050565b7f43616e6e6f74206d696e74206d6f7265207468616e206f6e65206974656d0000600082015250565b60006146c8601e83613a2f565b91506146d382614692565b602082019050919050565b600060208201905081810360008301526146f7816146bb565b9050919050565b60006147098261370d565b91507fffffffffffffffffffffffffffffffffffffffffffffffffffffffffffffffff820361473b5761473a61451b565b5b600182019050919050565b7f5065726b732061726520617661696c61626c65206f6e6c7920666f722063686160008201527f7261637465727320616e64207065747300000000000000000000000000000000602082015250565b60006147a2603083613a2f565b91506147ad82614746565b604082019050919050565b600060208201905081810360008301526147d181614795565b9050919050565b7f6e656564205345545445525f524f4c4500000000000000000000000000000000600082015250565b600061480e601083613a2f565b9150614819826147d8565b602082019050919050565b6000602082019050818103600083015261483d81614801565b9050919050565b7f4e4545445f4d494e5445525f524f4c4500000000000000000000000000000000600082015250565b600061487a601083613a2f565b915061488582614844565b602082019050919050565b600060208201905081810360008301526148a98161486d565b9050919050565b7f554e5355495441424c455f4b494e440000000000000000000000000000000000600082015250565b60006148e6600f83613a2f565b91506148f1826148b0565b602082019050919050565b60006020820190508181036000830152614915816148d9565b9050919050565b7f434f554e545f554e444552464c4f570000000000000000000000000000000000600082015250565b6000614952600f83613a2f565b915061495d8261491c565b602082019050919050565b6000602082019050818103600083015261498181614945565b9050919050565b7f4b494e445f4f564552464c4f5700000000000000000000000000000000000000600082015250565b60006149be600d83613a2f565b91506149c982614988565b602082019050919050565b600060208201905081810360008301526149ed816149b1565b9050919050565b7f4e487b7100000000000000000000000000000000000000000000000000000000600052603260045260246000fd5b7f455243313135353a207472616e736665722063616c6c6572206973206e6f742060008201527f6f776e6572206e6f7220617070726f7665640000000000000000000000000000602082015250565b6000614a7f603283613a2f565b9150614a8a82614a23565b604082019050919050565b60006020820190508181036000830152614aae81614a72565b9050919050565b7f416363657373436f6e74726f6c3a2063616e206f6e6c792072656e6f756e636560008201527f20726f6c657320666f722073656c660000000000000000000000000000000000602082015250565b6000614b11602f83613a2f565b9150614b1c82614ab5565b604082019050919050565b60006020820190508181036000830152614b4081614b04565b9050919050565b7f455243313135353a206163636f756e747320616e6420696473206c656e67746860008201527f206d69736d617463680000000000000000000000000000000000000000000000602082015250565b6000614ba3602983613a2f565b9150614bae82614b47565b604082019050919050565b60006020820190508181036000830152614bd281614b96565b9050919050565b7f455243313135353a2063616c6c6572206973206e6f74206f776e6572206e6f7260008201527f20617070726f7665640000000000000000000000000000000000000000000000602082015250565b6000614c35602983613a2f565b9150614c4082614bd9565b604082019050919050565b60006020820190508181036000830152614c6481614c28565b9050919050565b7f496e697469616c697a61626c653a20636f6e747261637420697320616c72656160008201527f647920696e697469616c697a6564000000000000000000000000000000000000602082015250565b6000614cc7602e83613a2f565b9150614cd282614c6b565b604082019050919050565b60006020820190508181036000830152614cf681614cba565b9050919050565b7f455243313135353a206d696e7420746f20746865207a65726f2061646472657360008201527f7300000000000000000000000000000000000000000000000000000000000000602082015250565b6000614d59602183613a2f565b9150614d6482614cfd565b604082019050919050565b60006020820190508181036000830152614d8881614d4c565b9050919050565b6000604082019050614da46000830185613783565b614db16020830184613783565b9392505050565b7f455243313135353a2069647320616e6420616d6f756e7473206c656e6774682060008201527f6d69736d61746368000000000000000000000000000000000000000000000000602082015250565b6000614e14602883613a2f565b9150614e1f82614db8565b604082019050919050565b60006020820190508181036000830152614e4381614e07565b9050919050565b60006040820190508181036000830152614e648185614111565b90508181036020830152614e788184614111565b90509392505050565b7f455243313135353a207472616e7366657220746f20746865207a65726f20616460008201527f6472657373000000000000000000000000000000000000000000000000000000602082015250565b6000614edd602583613a2f565b9150614ee882614e81565b604082019050919050565b60006020820190508181036000830152614f0c81614ed0565b9050919050565b7f455243313135353a20696e73756666696369656e742062616c616e636520666f60008201527f72207472616e7366657200000000000000000000000000000000000000000000602082015250565b6000614f6f602a83613a2f565b9150614f7a82614f13565b604082019050919050565b60006020820190508181036000830152614f9e81614f62565b9050919050565b600081905092915050565b7f416363657373436f6e74726f6c3a206163636f756e7420000000000000000000600082015250565b6000614fe6601783614fa5565b9150614ff182614fb0565b601782019050919050565b600061500782613a24565b6150118185614fa5565b9350615021818560208601613a40565b80840191505092915050565b7f206973206d697373696e6720726f6c6520000000000000000000000000000000600082015250565b6000615063601183614fa5565b915061506e8261502d565b601182019050919050565b600061508482614fd9565b91506150908285614ffc565b915061509b82615056565b91506150a78284614ffc565b91508190509392505050565b7f455243313135353a206275726e2066726f6d20746865207a65726f206164647260008201527f6573730000000000000000000000000000000000000000000000000000000000602082015250565b600061510f602383613a2f565b915061511a826150b3565b604082019050919050565b6000602082019050818103600083015261513e81615102565b9050919050565b7f455243313135353a206275726e20616d6f756e7420657863656564732062616c60008201527f616e636500000000000000000000000000000000000000000000000000000000602082015250565b60006151a1602483613a2f565b91506151ac82615145565b604082019050919050565b600060208201905081810360008301526151d081615194565b9050919050565b7f455243313135353a2073657474696e6720617070726f76616c2073746174757360008201527f20666f722073656c660000000000000000000000000000000000000000000000602082015250565b6000615233602983613a2f565b915061523e826151d7565b604082019050919050565b6000602082019050818103600083015261526281615226565b9050919050565b7f496e697469616c697a61626c653a20636f6e7472616374206973206e6f74206960008201527f6e697469616c697a696e67000000000000000000000000000000000000000000602082015250565b60006152c5602b83613a2f565b91506152d082615269565b604082019050919050565b600060208201905081810360008301526152f4816152b8565b9050919050565b615304816136cf565b82525050565b600081519050919050565b600082825260208201905092915050565b60006153318261530a565b61533b8185615315565b935061534b818560208601613a40565b61535481613872565b840191505092915050565b600060a08201905061537460008301886152fb565b61538160208301876152fb565b61538e6040830186613783565b61539b6060830185613783565b81810360808301526153ad8184615326565b90509695505050505050565b6000815190506153c8816137d9565b92915050565b6000602082840312156153e4576153e36136a5565b5b60006153f2848285016153b9565b91505092915050565b60008160e01c9050919050565b600060033d11156154275760046000803e6154246000516153fb565b90505b90565b600060443d106154b75761543c61369b565b60043d036004823e80513d602482011167ffffffffffffffff821117156154645750506154b7565b808201805167ffffffffffffffff81111561548257505050506154b7565b80602083010160043d03850181111561549f5750505050506154b7565b6154ae826020018501866138b2565b82955050505050505b90565b7f455243313135353a207472616e7366657220746f206e6f6e204552433131353560008201527f526563656976657220696d706c656d656e746572000000000000000000000000602082015250565b6000615516603483613a2f565b9150615521826154ba565b604082019050919050565b6000602082019050818103600083015261554581615509565b9050919050565b7f455243313135353a204552433131353552656365697665722072656a6563746560008201527f6420746f6b656e73000000000000000000000000000000000000000000000000602082015250565b60006155a8602883613a2f565b91506155b38261554c565b604082019050919050565b600060208201905081810360008301526155d78161559b565b9050919050565b600060a0820190506155f360008301886152fb565b61560060208301876152fb565b81810360408301526156128186614111565b905081810360608301526156268185614111565b9050818103608083015261563a8184615326565b90509695505050505050565b60006156518261370d565b915061565c8361370d565b9250817fffffffffffffffffffffffffffffffffffffffffffffffffffffffffffffffff04831182151516156156955761569461451b565b5b828202905092915050565b60006156ab8261370d565b9150600082036156be576156bd61451b565b5b600182039050919050565b7f537472696e67733a20686578206c656e67746820696e73756666696369656e74600082015250565b60006156ff602083613a2f565b915061570a826156c9565b602082019050919050565b6000602082019050818103600083015261572e816156f2565b9050919050565b60006157408261370d565b915061574b8361370d565b92508282101561575e5761575d61451b565b5b82820390509291505056fea26469706673582212207437813db5038a929354000dbb7d698e9362700fac5d8dd1e0e022920725d02a64736f6c634300080d0033",
  "devdoc": {
    "kind": "dev",
    "methods": {
      "balanceOf(address,uint256)": {
        "details": "See {IERC1155-balanceOf}. Requirements: - `account` cannot be the zero address."
      },
      "balanceOfBatch(address[],uint256[])": {
        "details": "See {IERC1155-balanceOfBatch}. Requirements: - `accounts` and `ids` must have the same length."
      },
      "exists(uint256)": {
        "details": "Indicates whether any token exist with a given id, or not."
      },
      "getRoleAdmin(bytes32)": {
        "details": "Returns the admin role that controls `role`. See {grantRole} and {revokeRole}. To change a role's admin, use {_setRoleAdmin}."
      },
      "grantRole(bytes32,address)": {
        "details": "Grants `role` to `account`. If `account` had not been already granted `role`, emits a {RoleGranted} event. Requirements: - the caller must have ``role``'s admin role."
      },
      "hasRole(bytes32,address)": {
        "details": "Returns `true` if `account` has been granted `role`."
      },
      "isApprovedForAll(address,address)": {
        "details": "See {IERC1155-isApprovedForAll}."
      },
      "renounceRole(bytes32,address)": {
        "details": "Revokes `role` from the calling account. Roles are often managed via {grantRole} and {revokeRole}: this function's purpose is to provide a mechanism for accounts to lose their privileges if they are compromised (such as when a trusted device is misplaced). If the calling account had been revoked `role`, emits a {RoleRevoked} event. Requirements: - the caller must be `account`."
      },
      "revokeRole(bytes32,address)": {
        "details": "Revokes `role` from `account`. If `account` had been granted `role`, emits a {RoleRevoked} event. Requirements: - the caller must have ``role``'s admin role."
      },
      "safeBatchTransferFrom(address,address,uint256[],uint256[],bytes)": {
        "details": "See {IERC1155-safeBatchTransferFrom}."
      },
      "safeTransferFrom(address,address,uint256,uint256,bytes)": {
        "details": "See {IERC1155-safeTransferFrom}."
      },
      "setApprovalForAll(address,bool)": {
        "details": "See {IERC1155-setApprovalForAll}."
      },
      "totalSupply(uint256)": {
        "details": "Total amount of tokens in with a given id."
      },
      "uri(uint256)": {
        "details": "See {IERC1155MetadataURI-uri}. This implementation returns the same URI for *all* token types. It relies on the token type ID substitution mechanism https://eips.ethereum.org/EIPS/eip-1155#metadata[defined in the EIP]. Clients calling this function must replace the `\\{id\\}` substring with the actual token type ID."
      }
    },
    "version": 1
  },
  "userdoc": {
    "kind": "user",
    "methods": {},
    "version": 1
  },
  "storageLayout": {
    "storage": [
      {
        "astId": 532,
        "contract": "contracts/MetarunCollection.sol:MetarunCollection",
        "label": "_initialized",
        "offset": 0,
        "slot": "0",
        "type": "t_bool"
      },
      {
        "astId": 535,
        "contract": "contracts/MetarunCollection.sol:MetarunCollection",
        "label": "_initializing",
        "offset": 1,
        "slot": "0",
        "type": "t_bool"
      },
      {
        "astId": 2723,
        "contract": "contracts/MetarunCollection.sol:MetarunCollection",
        "label": "__gap",
        "offset": 0,
        "slot": "1",
        "type": "t_array(t_uint256)50_storage"
      },
      {
        "astId": 2970,
        "contract": "contracts/MetarunCollection.sol:MetarunCollection",
        "label": "__gap",
        "offset": 0,
        "slot": "51",
        "type": "t_array(t_uint256)50_storage"
      },
      {
        "astId": 628,
        "contract": "contracts/MetarunCollection.sol:MetarunCollection",
        "label": "_balances",
        "offset": 0,
        "slot": "101",
        "type": "t_mapping(t_uint256,t_mapping(t_address,t_uint256))"
      },
      {
        "astId": 634,
        "contract": "contracts/MetarunCollection.sol:MetarunCollection",
        "label": "_operatorApprovals",
        "offset": 0,
        "slot": "102",
        "type": "t_mapping(t_address,t_mapping(t_address,t_bool))"
      },
      {
        "astId": 636,
        "contract": "contracts/MetarunCollection.sol:MetarunCollection",
        "label": "_uri",
        "offset": 0,
        "slot": "103",
        "type": "t_string_storage"
      },
      {
        "astId": 1716,
        "contract": "contracts/MetarunCollection.sol:MetarunCollection",
        "label": "__gap",
        "offset": 0,
        "slot": "104",
        "type": "t_array(t_uint256)47_storage"
      },
      {
        "astId": 39,
        "contract": "contracts/MetarunCollection.sol:MetarunCollection",
        "label": "_roles",
        "offset": 0,
        "slot": "151",
        "type": "t_mapping(t_bytes32,t_struct(RoleData)34_storage)"
      },
      {
        "astId": 327,
        "contract": "contracts/MetarunCollection.sol:MetarunCollection",
        "label": "__gap",
        "offset": 0,
        "slot": "152",
        "type": "t_array(t_uint256)49_storage"
      },
      {
        "astId": 1968,
        "contract": "contracts/MetarunCollection.sol:MetarunCollection",
        "label": "__gap",
        "offset": 0,
        "slot": "201",
        "type": "t_array(t_uint256)50_storage"
      },
      {
        "astId": 1994,
        "contract": "contracts/MetarunCollection.sol:MetarunCollection",
        "label": "_totalSupply",
        "offset": 0,
        "slot": "251",
        "type": "t_mapping(t_uint256,t_uint256)"
      },
      {
        "astId": 2121,
        "contract": "contracts/MetarunCollection.sol:MetarunCollection",
        "label": "__gap",
        "offset": 0,
        "slot": "252",
        "type": "t_array(t_uint256)49_storage"
      },
      {
        "astId": 6760,
        "contract": "contracts/MetarunCollection.sol:MetarunCollection",
        "label": "kindSupply",
        "offset": 0,
        "slot": "301",
        "type": "t_mapping(t_uint256,t_uint256)"
      },
      {
        "astId": 6782,
        "contract": "contracts/MetarunCollection.sol:MetarunCollection",
        "label": "tokenPerks",
        "offset": 0,
        "slot": "302",
        "type": "t_mapping(t_uint256,t_struct(Perks)6777_storage)"
      }
    ],
    "types": {
      "t_address": {
        "encoding": "inplace",
        "label": "address",
        "numberOfBytes": "20"
      },
      "t_array(t_uint256)47_storage": {
        "base": "t_uint256",
        "encoding": "inplace",
        "label": "uint256[47]",
        "numberOfBytes": "1504"
      },
      "t_array(t_uint256)49_storage": {
        "base": "t_uint256",
        "encoding": "inplace",
        "label": "uint256[49]",
        "numberOfBytes": "1568"
      },
      "t_array(t_uint256)50_storage": {
        "base": "t_uint256",
        "encoding": "inplace",
        "label": "uint256[50]",
        "numberOfBytes": "1600"
      },
      "t_bool": {
        "encoding": "inplace",
        "label": "bool",
        "numberOfBytes": "1"
      },
      "t_bytes32": {
        "encoding": "inplace",
        "label": "bytes32",
        "numberOfBytes": "32"
      },
      "t_mapping(t_address,t_bool)": {
        "encoding": "mapping",
        "key": "t_address",
        "label": "mapping(address => bool)",
        "numberOfBytes": "32",
        "value": "t_bool"
      },
      "t_mapping(t_address,t_mapping(t_address,t_bool))": {
        "encoding": "mapping",
        "key": "t_address",
        "label": "mapping(address => mapping(address => bool))",
        "numberOfBytes": "32",
        "value": "t_mapping(t_address,t_bool)"
      },
      "t_mapping(t_address,t_uint256)": {
        "encoding": "mapping",
        "key": "t_address",
        "label": "mapping(address => uint256)",
        "numberOfBytes": "32",
        "value": "t_uint256"
      },
      "t_mapping(t_bytes32,t_struct(RoleData)34_storage)": {
        "encoding": "mapping",
        "key": "t_bytes32",
        "label": "mapping(bytes32 => struct AccessControlUpgradeable.RoleData)",
        "numberOfBytes": "32",
        "value": "t_struct(RoleData)34_storage"
      },
      "t_mapping(t_uint256,t_mapping(t_address,t_uint256))": {
        "encoding": "mapping",
        "key": "t_uint256",
        "label": "mapping(uint256 => mapping(address => uint256))",
        "numberOfBytes": "32",
        "value": "t_mapping(t_address,t_uint256)"
      },
      "t_mapping(t_uint256,t_struct(Perks)6777_storage)": {
        "encoding": "mapping",
        "key": "t_uint256",
        "label": "mapping(uint256 => struct MetarunCollection.Perks)",
        "numberOfBytes": "32",
        "value": "t_struct(Perks)6777_storage"
      },
      "t_mapping(t_uint256,t_uint256)": {
        "encoding": "mapping",
        "key": "t_uint256",
        "label": "mapping(uint256 => uint256)",
        "numberOfBytes": "32",
        "value": "t_uint256"
      },
      "t_string_storage": {
        "encoding": "bytes",
        "label": "string",
        "numberOfBytes": "32"
      },
      "t_struct(Perks)6777_storage": {
        "encoding": "inplace",
        "label": "struct MetarunCollection.Perks",
        "members": [
          {
            "astId": 6762,
            "contract": "contracts/MetarunCollection.sol:MetarunCollection",
            "label": "level",
            "offset": 0,
            "slot": "0",
            "type": "t_uint256"
          },
          {
            "astId": 6764,
            "contract": "contracts/MetarunCollection.sol:MetarunCollection",
            "label": "runs",
            "offset": 0,
            "slot": "1",
            "type": "t_uint256"
          },
          {
            "astId": 6766,
            "contract": "contracts/MetarunCollection.sol:MetarunCollection",
            "label": "wins",
            "offset": 0,
            "slot": "2",
            "type": "t_uint256"
          },
          {
            "astId": 6768,
            "contract": "contracts/MetarunCollection.sol:MetarunCollection",
            "label": "ability",
            "offset": 0,
            "slot": "3",
            "type": "t_uint256"
          },
          {
            "astId": 6770,
            "contract": "contracts/MetarunCollection.sol:MetarunCollection",
            "label": "health",
            "offset": 0,
            "slot": "4",
            "type": "t_uint256"
          },
          {
            "astId": 6772,
            "contract": "contracts/MetarunCollection.sol:MetarunCollection",
            "label": "mana",
            "offset": 0,
            "slot": "5",
            "type": "t_uint256"
          },
          {
            "astId": 6774,
            "contract": "contracts/MetarunCollection.sol:MetarunCollection",
            "label": "speed",
            "offset": 0,
            "slot": "6",
            "type": "t_uint256"
          },
          {
            "astId": 6776,
            "contract": "contracts/MetarunCollection.sol:MetarunCollection",
            "label": "collisionDamage",
            "offset": 0,
            "slot": "7",
            "type": "t_uint256"
          }
        ],
        "numberOfBytes": "256"
      },
      "t_struct(RoleData)34_storage": {
        "encoding": "inplace",
        "label": "struct AccessControlUpgradeable.RoleData",
        "members": [
          {
            "astId": 31,
            "contract": "contracts/MetarunCollection.sol:MetarunCollection",
            "label": "members",
            "offset": 0,
            "slot": "0",
            "type": "t_mapping(t_address,t_bool)"
          },
          {
            "astId": 33,
            "contract": "contracts/MetarunCollection.sol:MetarunCollection",
            "label": "adminRole",
            "offset": 0,
            "slot": "1",
            "type": "t_bytes32"
          }
        ],
        "numberOfBytes": "64"
      },
      "t_uint256": {
        "encoding": "inplace",
        "label": "uint256",
        "numberOfBytes": "32"
      }
    }
  }
}