{
  "address": "0xbfA49f5F6B3C7dD2c42316CAF90c129239d3FA1E",
  "abi": [
    {
      "anonymous": false,
      "inputs": [
        {
          "indexed": true,
          "internalType": "address",
          "name": "account",
          "type": "address"
        },
        {
          "indexed": true,
          "internalType": "address",
          "name": "operator",
          "type": "address"
        },
        {
          "indexed": false,
          "internalType": "bool",
          "name": "approved",
          "type": "bool"
        }
      ],
      "name": "ApprovalForAll",
      "type": "event"
    },
    {
      "anonymous": false,
      "inputs": [
        {
          "indexed": true,
          "internalType": "bytes32",
          "name": "role",
          "type": "bytes32"
        },
        {
          "indexed": true,
          "internalType": "bytes32",
          "name": "previousAdminRole",
          "type": "bytes32"
        },
        {
          "indexed": true,
          "internalType": "bytes32",
          "name": "newAdminRole",
          "type": "bytes32"
        }
      ],
      "name": "RoleAdminChanged",
      "type": "event"
    },
    {
      "anonymous": false,
      "inputs": [
        {
          "indexed": true,
          "internalType": "bytes32",
          "name": "role",
          "type": "bytes32"
        },
        {
          "indexed": true,
          "internalType": "address",
          "name": "account",
          "type": "address"
        },
        {
          "indexed": true,
          "internalType": "address",
          "name": "sender",
          "type": "address"
        }
      ],
      "name": "RoleGranted",
      "type": "event"
    },
    {
      "anonymous": false,
      "inputs": [
        {
          "indexed": true,
          "internalType": "bytes32",
          "name": "role",
          "type": "bytes32"
        },
        {
          "indexed": true,
          "internalType": "address",
          "name": "account",
          "type": "address"
        },
        {
          "indexed": true,
          "internalType": "address",
          "name": "sender",
          "type": "address"
        }
      ],
      "name": "RoleRevoked",
      "type": "event"
    },
    {
      "anonymous": false,
      "inputs": [
        {
          "indexed": true,
          "internalType": "address",
          "name": "operator",
          "type": "address"
        },
        {
          "indexed": true,
          "internalType": "address",
          "name": "from",
          "type": "address"
        },
        {
          "indexed": true,
          "internalType": "address",
          "name": "to",
          "type": "address"
        },
        {
          "indexed": false,
          "internalType": "uint256[]",
          "name": "ids",
          "type": "uint256[]"
        },
        {
          "indexed": false,
          "internalType": "uint256[]",
          "name": "values",
          "type": "uint256[]"
        }
      ],
      "name": "TransferBatch",
      "type": "event"
    },
    {
      "anonymous": false,
      "inputs": [
        {
          "indexed": true,
          "internalType": "address",
          "name": "operator",
          "type": "address"
        },
        {
          "indexed": true,
          "internalType": "address",
          "name": "from",
          "type": "address"
        },
        {
          "indexed": true,
          "internalType": "address",
          "name": "to",
          "type": "address"
        },
        {
          "indexed": false,
          "internalType": "uint256",
          "name": "id",
          "type": "uint256"
        },
        {
          "indexed": false,
          "internalType": "uint256",
          "name": "value",
          "type": "uint256"
        }
      ],
      "name": "TransferSingle",
      "type": "event"
    },
    {
      "anonymous": false,
      "inputs": [
        {
          "indexed": false,
          "internalType": "string",
          "name": "value",
          "type": "string"
        },
        {
          "indexed": true,
          "internalType": "uint256",
          "name": "id",
          "type": "uint256"
        }
      ],
      "name": "URI",
      "type": "event"
    },
    {
      "inputs": [],
      "name": "ARTIFACT_TOKEN_KIND",
      "outputs": [
        {
          "internalType": "uint256",
          "name": "",
          "type": "uint256"
        }
      ],
      "stateMutability": "view",
      "type": "function"
    },
    {
      "inputs": [],
      "name": "BRONZE_TICKET_KIND",
      "outputs": [
        {
          "internalType": "uint256",
          "name": "",
          "type": "uint256"
        }
      ],
      "stateMutability": "view",
      "type": "function"
    },
    {
      "inputs": [],
      "name": "COLLISION_DAMAGE_TOKEN_ID",
      "outputs": [
        {
          "internalType": "uint256",
          "name": "",
          "type": "uint256"
        }
      ],
      "stateMutability": "view",
      "type": "function"
    },
    {
      "inputs": [],
      "name": "COMMON_SKIN_KIND",
      "outputs": [
        {
          "internalType": "uint256",
          "name": "",
          "type": "uint256"
        }
      ],
      "stateMutability": "view",
      "type": "function"
    },
    {
      "inputs": [],
      "name": "CRAFTSMAN_CHARACTER_KIND",
      "outputs": [
        {
          "internalType": "uint256",
          "name": "",
          "type": "uint256"
        }
      ],
      "stateMutability": "view",
      "type": "function"
    },
    {
      "inputs": [],
      "name": "DEFAULT_ADMIN_ROLE",
      "outputs": [
        {
          "internalType": "bytes32",
          "name": "",
          "type": "bytes32"
        }
      ],
      "stateMutability": "view",
      "type": "function"
    },
    {
      "inputs": [],
      "name": "FIGHTER_CHARACTER_KIND",
      "outputs": [
        {
          "internalType": "uint256",
          "name": "",
          "type": "uint256"
        }
      ],
      "stateMutability": "view",
      "type": "function"
    },
    {
      "inputs": [],
      "name": "FUNGIBLE_TOKEN_KIND",
      "outputs": [
        {
          "internalType": "uint256",
          "name": "",
          "type": "uint256"
        }
      ],
      "stateMutability": "view",
      "type": "function"
    },
    {
      "inputs": [],
      "name": "GOLD_TICKET_KIND",
      "outputs": [
        {
          "internalType": "uint256",
          "name": "",
          "type": "uint256"
        }
      ],
      "stateMutability": "view",
      "type": "function"
    },
    {
      "inputs": [],
      "name": "HEALTH_TOKEN_ID",
      "outputs": [
        {
          "internalType": "uint256",
          "name": "",
          "type": "uint256"
        }
      ],
      "stateMutability": "view",
      "type": "function"
    },
    {
      "inputs": [],
      "name": "MANA_TOKEN_ID",
      "outputs": [
        {
          "internalType": "uint256",
          "name": "",
          "type": "uint256"
        }
      ],
      "stateMutability": "view",
      "type": "function"
    },
    {
      "inputs": [],
      "name": "MINTER_ROLE",
      "outputs": [
        {
          "internalType": "bytes32",
          "name": "",
          "type": "bytes32"
        }
      ],
      "stateMutability": "view",
      "type": "function"
    },
    {
      "inputs": [],
      "name": "MYTHICAL_SKIN_KIND",
      "outputs": [
        {
          "internalType": "uint256",
          "name": "",
          "type": "uint256"
        }
      ],
      "stateMutability": "view",
      "type": "function"
    },
    {
      "inputs": [],
      "name": "OPAL_TOKEN_ID",
      "outputs": [
        {
          "internalType": "uint256",
          "name": "",
          "type": "uint256"
        }
      ],
      "stateMutability": "view",
      "type": "function"
    },
    {
      "inputs": [],
      "name": "PET_TOKEN_KIND",
      "outputs": [
        {
          "internalType": "uint256",
          "name": "",
          "type": "uint256"
        }
      ],
      "stateMutability": "view",
      "type": "function"
    },
    {
      "inputs": [],
      "name": "RARE_SKIN_KIND",
      "outputs": [
        {
          "internalType": "uint256",
          "name": "",
          "type": "uint256"
        }
      ],
      "stateMutability": "view",
      "type": "function"
    },
    {
      "inputs": [],
      "name": "SETTER_ROLE",
      "outputs": [
        {
          "internalType": "bytes32",
          "name": "",
          "type": "bytes32"
        }
      ],
      "stateMutability": "view",
      "type": "function"
    },
    {
      "inputs": [],
      "name": "SILVER_TICKET_KIND",
      "outputs": [
        {
          "internalType": "uint256",
          "name": "",
          "type": "uint256"
        }
      ],
      "stateMutability": "view",
      "type": "function"
    },
    {
      "inputs": [],
      "name": "SPEED_TOKEN_ID",
      "outputs": [
        {
          "internalType": "uint256",
          "name": "",
          "type": "uint256"
        }
      ],
      "stateMutability": "view",
      "type": "function"
    },
    {
      "inputs": [],
      "name": "SPRINTER_CHARACTER_KIND",
      "outputs": [
        {
          "internalType": "uint256",
          "name": "",
          "type": "uint256"
        }
      ],
      "stateMutability": "view",
      "type": "function"
    },
    {
      "inputs": [
        {
          "internalType": "address",
          "name": "account",
          "type": "address"
        },
        {
          "internalType": "uint256",
          "name": "id",
          "type": "uint256"
        }
      ],
      "name": "balanceOf",
      "outputs": [
        {
          "internalType": "uint256",
          "name": "",
          "type": "uint256"
        }
      ],
      "stateMutability": "view",
      "type": "function"
    },
    {
      "inputs": [
        {
          "internalType": "address[]",
          "name": "accounts",
          "type": "address[]"
        },
        {
          "internalType": "uint256[]",
          "name": "ids",
          "type": "uint256[]"
        }
      ],
      "name": "balanceOfBatch",
      "outputs": [
        {
          "internalType": "uint256[]",
          "name": "",
          "type": "uint256[]"
        }
      ],
      "stateMutability": "view",
      "type": "function"
    },
    {
      "inputs": [
        {
          "internalType": "address",
          "name": "account",
          "type": "address"
        },
        {
          "internalType": "uint256",
          "name": "id",
          "type": "uint256"
        },
        {
          "internalType": "uint256",
          "name": "value",
          "type": "uint256"
        }
      ],
      "name": "burn",
      "outputs": [],
      "stateMutability": "nonpayable",
      "type": "function"
    },
    {
      "inputs": [
        {
          "internalType": "address",
          "name": "account",
          "type": "address"
        },
        {
          "internalType": "uint256[]",
          "name": "ids",
          "type": "uint256[]"
        },
        {
          "internalType": "uint256[]",
          "name": "values",
          "type": "uint256[]"
        }
      ],
      "name": "burnBatch",
      "outputs": [],
      "stateMutability": "nonpayable",
      "type": "function"
    },
    {
      "inputs": [
        {
          "internalType": "uint256",
          "name": "id",
          "type": "uint256"
        }
      ],
      "name": "exists",
      "outputs": [
        {
          "internalType": "bool",
          "name": "",
          "type": "bool"
        }
      ],
      "stateMutability": "view",
      "type": "function"
    },
    {
      "inputs": [
        {
          "internalType": "uint256",
          "name": "id",
          "type": "uint256"
        }
      ],
      "name": "getKind",
      "outputs": [
        {
          "internalType": "uint256",
          "name": "",
          "type": "uint256"
        }
      ],
      "stateMutability": "pure",
      "type": "function"
    },
    {
      "inputs": [
        {
          "internalType": "uint256",
          "name": "kind",
          "type": "uint256"
        }
      ],
      "name": "getKindSupply",
      "outputs": [
        {
          "internalType": "uint256",
          "name": "",
          "type": "uint256"
        }
      ],
      "stateMutability": "view",
      "type": "function"
    },
    {
      "inputs": [
        {
          "internalType": "uint256",
          "name": "id",
          "type": "uint256"
        }
      ],
      "name": "getPerks",
      "outputs": [
        {
          "components": [
            {
              "internalType": "uint256",
              "name": "level",
              "type": "uint256"
            },
            {
              "internalType": "uint256",
              "name": "runs",
              "type": "uint256"
            },
            {
              "internalType": "uint256",
              "name": "wins",
              "type": "uint256"
            },
            {
              "internalType": "uint256",
              "name": "ability",
              "type": "uint256"
            },
            {
              "internalType": "uint256",
              "name": "health",
              "type": "uint256"
            },
            {
              "internalType": "uint256",
              "name": "mana",
              "type": "uint256"
            },
            {
              "internalType": "uint256",
              "name": "speed",
              "type": "uint256"
            },
            {
              "internalType": "uint256",
              "name": "collisionDamage",
              "type": "uint256"
            },
            {
              "internalType": "uint256",
              "name": "runsPerDayLimit",
              "type": "uint256"
            },
            {
              "internalType": "uint256",
              "name": "runsTotalLimit",
              "type": "uint256"
            }
          ],
          "internalType": "struct MetarunCollection.Perks",
          "name": "",
          "type": "tuple"
        }
      ],
      "stateMutability": "view",
      "type": "function"
    },
    {
      "inputs": [
        {
          "internalType": "bytes32",
          "name": "role",
          "type": "bytes32"
        }
      ],
      "name": "getRoleAdmin",
      "outputs": [
        {
          "internalType": "bytes32",
          "name": "",
          "type": "bytes32"
        }
      ],
      "stateMutability": "view",
      "type": "function"
    },
    {
      "inputs": [
        {
          "internalType": "bytes32",
          "name": "role",
          "type": "bytes32"
        },
        {
          "internalType": "address",
          "name": "account",
          "type": "address"
        }
      ],
      "name": "grantRole",
      "outputs": [],
      "stateMutability": "nonpayable",
      "type": "function"
    },
    {
      "inputs": [
        {
          "internalType": "bytes32",
          "name": "role",
          "type": "bytes32"
        },
        {
          "internalType": "address",
          "name": "account",
          "type": "address"
        }
      ],
      "name": "hasRole",
      "outputs": [
        {
          "internalType": "bool",
          "name": "",
          "type": "bool"
        }
      ],
      "stateMutability": "view",
      "type": "function"
    },
    {
      "inputs": [
        {
          "internalType": "string",
          "name": "uri",
          "type": "string"
        }
      ],
      "name": "initialize",
      "outputs": [],
      "stateMutability": "nonpayable",
      "type": "function"
    },
    {
      "inputs": [
        {
          "internalType": "address",
          "name": "account",
          "type": "address"
        },
        {
          "internalType": "address",
          "name": "operator",
          "type": "address"
        }
      ],
      "name": "isApprovedForAll",
      "outputs": [
        {
          "internalType": "bool",
          "name": "",
          "type": "bool"
        }
      ],
      "stateMutability": "view",
      "type": "function"
    },
    {
      "inputs": [
        {
          "internalType": "uint256",
          "name": "id",
          "type": "uint256"
        }
      ],
      "name": "isCharacter",
      "outputs": [
        {
          "internalType": "bool",
          "name": "",
          "type": "bool"
        }
      ],
      "stateMutability": "pure",
      "type": "function"
    },
    {
      "inputs": [
        {
          "internalType": "uint256",
          "name": "id",
          "type": "uint256"
        },
        {
          "internalType": "uint256",
          "name": "kind",
          "type": "uint256"
        }
      ],
      "name": "isKind",
      "outputs": [
        {
          "internalType": "bool",
          "name": "",
          "type": "bool"
        }
      ],
      "stateMutability": "pure",
      "type": "function"
    },
    {
      "inputs": [
        {
          "internalType": "uint256",
          "name": "id",
          "type": "uint256"
        }
      ],
      "name": "isTicket",
      "outputs": [
        {
          "internalType": "bool",
          "name": "",
          "type": "bool"
        }
      ],
      "stateMutability": "pure",
      "type": "function"
    },
    {
      "inputs": [
        {
          "internalType": "address",
          "name": "to",
          "type": "address"
        },
        {
          "internalType": "uint256",
          "name": "id",
          "type": "uint256"
        },
        {
          "internalType": "uint256",
          "name": "amount",
          "type": "uint256"
        }
      ],
      "name": "mint",
      "outputs": [],
      "stateMutability": "nonpayable",
      "type": "function"
    },
    {
      "inputs": [
        {
          "internalType": "address",
          "name": "to",
          "type": "address"
        },
        {
          "internalType": "uint256",
          "name": "kind",
          "type": "uint256"
        },
        {
          "internalType": "uint256",
          "name": "count",
          "type": "uint256"
        }
      ],
      "name": "mintBatch",
      "outputs": [],
      "stateMutability": "nonpayable",
      "type": "function"
    },
    {
      "inputs": [
        {
          "internalType": "bytes32",
          "name": "role",
          "type": "bytes32"
        },
        {
          "internalType": "address",
          "name": "account",
          "type": "address"
        }
      ],
      "name": "renounceRole",
      "outputs": [],
      "stateMutability": "nonpayable",
      "type": "function"
    },
    {
      "inputs": [
        {
          "internalType": "bytes32",
          "name": "role",
          "type": "bytes32"
        },
        {
          "internalType": "address",
          "name": "account",
          "type": "address"
        }
      ],
      "name": "revokeRole",
      "outputs": [],
      "stateMutability": "nonpayable",
      "type": "function"
    },
    {
      "inputs": [
        {
          "internalType": "address",
          "name": "from",
          "type": "address"
        },
        {
          "internalType": "address",
          "name": "to",
          "type": "address"
        },
        {
          "internalType": "uint256[]",
          "name": "ids",
          "type": "uint256[]"
        },
        {
          "internalType": "uint256[]",
          "name": "amounts",
          "type": "uint256[]"
        },
        {
          "internalType": "bytes",
          "name": "data",
          "type": "bytes"
        }
      ],
      "name": "safeBatchTransferFrom",
      "outputs": [],
      "stateMutability": "nonpayable",
      "type": "function"
    },
    {
      "inputs": [
        {
          "internalType": "address",
          "name": "from",
          "type": "address"
        },
        {
          "internalType": "address",
          "name": "to",
          "type": "address"
        },
        {
          "internalType": "uint256",
          "name": "id",
          "type": "uint256"
        },
        {
          "internalType": "uint256",
          "name": "amount",
          "type": "uint256"
        },
        {
          "internalType": "bytes",
          "name": "data",
          "type": "bytes"
        }
      ],
      "name": "safeTransferFrom",
      "outputs": [],
      "stateMutability": "nonpayable",
      "type": "function"
    },
    {
      "inputs": [
        {
          "internalType": "address",
          "name": "operator",
          "type": "address"
        },
        {
          "internalType": "bool",
          "name": "approved",
          "type": "bool"
        }
      ],
      "name": "setApprovalForAll",
      "outputs": [],
      "stateMutability": "nonpayable",
      "type": "function"
    },
    {
      "inputs": [
        {
          "internalType": "uint256",
          "name": "id",
          "type": "uint256"
        },
        {
          "components": [
            {
              "internalType": "uint256",
              "name": "level",
              "type": "uint256"
            },
            {
              "internalType": "uint256",
              "name": "runs",
              "type": "uint256"
            },
            {
              "internalType": "uint256",
              "name": "wins",
              "type": "uint256"
            },
            {
              "internalType": "uint256",
              "name": "ability",
              "type": "uint256"
            },
            {
              "internalType": "uint256",
              "name": "health",
              "type": "uint256"
            },
            {
              "internalType": "uint256",
              "name": "mana",
              "type": "uint256"
            },
            {
              "internalType": "uint256",
              "name": "speed",
              "type": "uint256"
            },
            {
              "internalType": "uint256",
              "name": "collisionDamage",
              "type": "uint256"
            },
            {
              "internalType": "uint256",
              "name": "runsPerDayLimit",
              "type": "uint256"
            },
            {
              "internalType": "uint256",
              "name": "runsTotalLimit",
              "type": "uint256"
            }
          ],
          "internalType": "struct MetarunCollection.Perks",
          "name": "perks",
          "type": "tuple"
        }
      ],
      "name": "setPerks",
      "outputs": [],
      "stateMutability": "nonpayable",
      "type": "function"
    },
    {
      "inputs": [
        {
          "internalType": "string",
          "name": "newUri",
          "type": "string"
        }
      ],
      "name": "setURI",
      "outputs": [],
      "stateMutability": "nonpayable",
      "type": "function"
    },
    {
      "inputs": [
        {
          "internalType": "bytes4",
          "name": "interfaceId",
          "type": "bytes4"
        }
      ],
      "name": "supportsInterface",
      "outputs": [
        {
          "internalType": "bool",
          "name": "",
          "type": "bool"
        }
      ],
      "stateMutability": "view",
      "type": "function"
    },
    {
      "inputs": [
        {
          "internalType": "uint256",
          "name": "id",
          "type": "uint256"
        }
      ],
      "name": "totalSupply",
      "outputs": [
        {
          "internalType": "uint256",
          "name": "",
          "type": "uint256"
        }
      ],
      "stateMutability": "view",
      "type": "function"
    },
    {
      "inputs": [
        {
          "internalType": "uint256",
          "name": "",
          "type": "uint256"
        }
      ],
      "name": "uri",
      "outputs": [
        {
          "internalType": "string",
          "name": "",
          "type": "string"
        }
      ],
      "stateMutability": "view",
      "type": "function"
    }
  ],
  "transactionHash": "0xbb230dacf606708430ab68fb2f3d7b3b1c50113957ded1478cbef7759e759df7",
  "args": [],
  "numDeployments": 3,
  "solcInputHash": "d0c328659106bb0cc7b2016343173426",
  "bytecode": "0x608060405234801561001057600080fd5b50615c5c80620000216000396000f3fe608060405234801561001057600080fd5b506004361061029f5760003560e01c80636b20c45411610167578063bd85b039116100ce578063e985e9c511610087578063e985e9c514610866578063f242432a14610896578063f30f81c4146108b2578063f5298aca146108e2578063f62d1888146108fe578063fe4ba8c11461091a5761029f565b8063bd85b03914610790578063ca16487b146107c0578063d5391393146107f0578063d547741f1461080e578063d91a1d7f1461082a578063df4b5aeb146108485761029f565b806391d148541161012057806391d14854146106ba578063a2011b3f146106ea578063a217fddf14610708578063a22cb46514610726578063b73eeaf614610742578063b7569fd5146107605761029f565b80636b20c454146105e65780636ca8fede1461060257806377041f1814610632578063792f96cf1461064e5780638a6ad02e1461066c5780639177595e1461069c5761029f565b80632e81aaea1161020b578063492e17fe116101c4578063492e17fe146104fc5780634e1273f41461052c5780634f558e791461055c578063528575fd1461058c578063565554ff146105aa57806365a9bf89146105c85761029f565b80632e81aaea146104505780632eb2c2d61461046c5780632f2ff15d1461048857806336568abe146104a4578063387570ca146104c057806345ada2ab146104de5761029f565b8063156e29f61161025d578063156e29f61461038c5780632147e111146103a8578063248a9ca3146103c657806327efa6ea146103f65780632b2a43c0146104145780632d1e97f8146104325761029f565b8062fdd58e146102a4578063010a2ae1146102d457806301ffc9a7146102f257806302fe5305146103225780630e5bda981461033e5780630e89341c1461035c575b600080fd5b6102be60048036038101906102b99190613baa565b610938565b6040516102cb9190613bf9565b60405180910390f35b6102dc610a01565b6040516102e99190613bf9565b60405180910390f35b61030c60048036038101906103079190613c6c565b610a07565b6040516103199190613cb4565b60405180910390f35b61033c60048036038101906103379190613e15565b610a19565b005b610346610a78565b6040516103539190613bf9565b60405180910390f35b61037660048036038101906103719190613e5e565b610a8e565b6040516103839190613f13565b60405180910390f35b6103a660048036038101906103a19190613f35565b610b22565b005b6103b0610d65565b6040516103bd9190613bf9565b60405180910390f35b6103e060048036038101906103db9190613fbe565b610d6a565b6040516103ed9190613ffa565b60405180910390f35b6103fe610d8a565b60405161040b9190613bf9565b60405180910390f35b61041c610d8f565b6040516104299190613bf9565b60405180910390f35b61043a610d95565b6040516104479190613bf9565b60405180910390f35b61046a60048036038101906104659190613f35565b610d9b565b005b6104866004803603810190610481919061417e565b61124f565b005b6104a2600480360381019061049d919061424d565b6112f0565b005b6104be60048036038101906104b9919061424d565b611319565b005b6104c861139c565b6040516104d59190613bf9565b60405180910390f35b6104e66113a2565b6040516104f39190613bf9565b60405180910390f35b6105166004803603810190610511919061428d565b6113a8565b6040516105239190613cb4565b60405180910390f35b61054660048036038101906105419190614390565b6113bd565b60405161055391906144c6565b60405180910390f35b61057660048036038101906105719190613e5e565b6114d6565b6040516105839190613cb4565b60405180910390f35b6105946114ea565b6040516105a19190613bf9565b60405180910390f35b6105b26114f0565b6040516105bf9190613bf9565b60405180910390f35b6105d06114f6565b6040516105dd9190613bf9565b60405180910390f35b61060060048036038101906105fb91906144e8565b6114fc565b005b61061c60048036038101906106179190613e5e565b611599565b6040516106299190613bf9565b60405180910390f35b61064c6004803603810190610647919061466e565b6115ad565b005b61065661170a565b6040516106639190613bf9565b60405180910390f35b61068660048036038101906106819190613e5e565b611720565b6040516106939190613bf9565b60405180910390f35b6106a461173e565b6040516106b19190613bf9565b60405180910390f35b6106d460048036038101906106cf919061424d565b611754565b6040516106e19190613cb4565b60405180910390f35b6106f26117bf565b6040516106ff9190613ffa565b60405180910390f35b6107106117e3565b60405161071d9190613ffa565b60405180910390f35b610740600480360381019061073b91906146db565b6117ea565b005b61074a611800565b6040516107579190613bf9565b60405180910390f35b61077a60048036038101906107759190613e5e565b611805565b6040516107879190613cb4565b60405180910390f35b6107aa60048036038101906107a59190613e5e565b61183d565b6040516107b79190613bf9565b60405180910390f35b6107da60048036038101906107d59190613e5e565b61185a565b6040516107e791906147e7565b60405180910390f35b6107f8611958565b6040516108059190613ffa565b60405180910390f35b6108286004803603810190610823919061424d565b61197c565b005b6108326119a5565b60405161083f9190613bf9565b60405180910390f35b6108506119ab565b60405161085d9190613bf9565b60405180910390f35b610880600480360381019061087b9190614803565b6119c1565b60405161088d9190613cb4565b60405180910390f35b6108b060048036038101906108ab9190614843565b611a55565b005b6108cc60048036038101906108c79190613e5e565b611af6565b6040516108d99190613cb4565b60405180910390f35b6108fc60048036038101906108f79190613f35565b611b31565b005b61091860048036038101906109139190613e15565b611bce565b005b610922611d32565b60405161092f9190613bf9565b60405180910390f35b60008073ffffffffffffffffffffffffffffffffffffffff168373ffffffffffffffffffffffffffffffffffffffff16036109a8576040517f08c379a000000000000000000000000000000000000000000000000000000000815260040161099f9061494c565b60405180910390fd5b6065600083815260200190815260200160002060008473ffffffffffffffffffffffffffffffffffffffff1673ffffffffffffffffffffffffffffffffffffffff16815260200190815260200160002054905092915050565b61030181565b6000610a1282611d48565b9050919050565b610a2d6000801b610a28611dc2565b611754565b610a6c576040517f08c379a0000000000000000000000000000000000000000000000000000000008152600401610a63906149b8565b60405180910390fd5b610a7581611dca565b50565b60036010610500901b610a8b9190614a07565b81565b606060678054610a9d90614a8c565b80601f0160208091040260200160405190810160405280929190818152602001828054610ac990614a8c565b8015610b165780601f10610aeb57610100808354040283529160200191610b16565b820191906000526020600020905b815481529060010190602001808311610af957829003601f168201915b50505050509050919050565b610b537f9f2df0fed2c77648de5860a4cc508cd0818c85b8b8a1ab4ceeef8d981c8956a6610b4e611dc2565b611754565b610b92576040517f08c379a0000000000000000000000000000000000000000000000000000000008152600401610b8990614b2f565b60405180910390fd5b610b9e826105006113a8565b610c2f5760018114610be5576040517f08c379a0000000000000000000000000000000000000000000000000000000008152600401610bdc90614b9b565b60405180910390fd5b610bee826114d6565b15610c2e576040517f08c379a0000000000000000000000000000000000000000000000000000000008152600401610c2590614b9b565b60405180910390fd5b5b610c4a83838360405180602001604052806000815250611de4565b61012d6000610c5884611599565b81526020019081526020016000206000815480929190610c7790614bbb565b9190505550610400610c8883611599565b03610cc857600a61012e600084815260200190815260200160002060080181905550606461012e6000848152602001908152602001600020600901819055505b610401610cd483611599565b03610d1457600f61012e600084815260200190815260200160002060080181905550608761012e6000848152602001908152602001600020600901819055505b610402610d2083611599565b03610d6057601461012e600084815260200190815260200160002060080181905550609661012e6000848152602001908152602001600020600901819055505b505050565b600081565b600060976000838152602001908152602001600020600101549050919050565b600181565b61020081565b61010081565b610dcc7f9f2df0fed2c77648de5860a4cc508cd0818c85b8b8a1ab4ceeef8d981c8956a6610dc7611dc2565b611754565b610e0b576040517f08c379a0000000000000000000000000000000000000000000000000000000008152600401610e0290614c4f565b60405180910390fd5b6105008203610e4f576040517f08c379a0000000000000000000000000000000000000000000000000000000008152600401610e4690614cbb565b60405180910390fd5b60008111610e92576040517f08c379a0000000000000000000000000000000000000000000000000000000008152600401610e8990614d27565b60405180910390fd5b60008167ffffffffffffffff811115610eae57610ead613cea565b5b604051908082528060200260200182016040528015610edc5781602001602082028036833780820191505090505b509050600080601085901b90505b83821015610f8a57610efc81866113a8565b610f3b576040517f08c379a0000000000000000000000000000000000000000000000000000000008152600401610f3290614d93565b60405180910390fd5b610f44816114d6565b610f775780838381518110610f5c57610f5b614db3565b5b6020026020010181815250508180610f7390614bbb565b9250505b8080610f8290614bbb565b915050610eea565b60008467ffffffffffffffff811115610fa657610fa5613cea565b5b604051908082528060200260200182016040528015610fd45781602001602082028036833780820191505090505b50905060005b85811015611016576001828281518110610ff757610ff6614db3565b5b602002602001018181525050808061100e90614bbb565b915050610fda565b5061103287858360405180602001604052806000815250611f7a565b8461012d600088815260200190815260200160002060008282546110569190614a07565b9250508190555061040086036111005760006040518061014001604052806000815260200160008152602001600081526020016000815260200160008152602001600081526020016000815260200160008152602001600a81526020016064815250905060005b85518110156110fd576110ea8682815181106110dc576110db614db3565b5b6020026020010151836115ad565b80806110f590614bbb565b9150506110bd565b50505b61040186036111a35760006040518061014001604052806000815260200160008152602001600081526020016000815260200160008152602001600081526020016000815260200160008152602001600f81526020016087815250905060005b85518110156111a05761118d86828151811061117f5761117e614db3565b5b6020026020010151836115ad565b808061119890614bbb565b915050611160565b50505b61040286036112465760006040518061014001604052806000815260200160008152602001600081526020016000815260200160008152602001600081526020016000815260200160008152602001601481526020016096815250905060005b85518110156112435761123086828151811061122257611221614db3565b5b6020026020010151836115ad565b808061123b90614bbb565b915050611203565b50505b50505050505050565b611257611dc2565b73ffffffffffffffffffffffffffffffffffffffff168573ffffffffffffffffffffffffffffffffffffffff16148061129d575061129c85611297611dc2565b6119c1565b5b6112dc576040517f08c379a00000000000000000000000000000000000000000000000000000000081526004016112d390614e54565b60405180910390fd5b6112e98585858585612198565b5050505050565b6112f982610d6a565b61130a81611305611dc2565b6124ae565b611314838361254b565b505050565b611321611dc2565b73ffffffffffffffffffffffffffffffffffffffff168173ffffffffffffffffffffffffffffffffffffffff161461138e576040517f08c379a000000000000000000000000000000000000000000000000000000000815260040161138590614ee6565b60405180910390fd5b611398828261262c565b5050565b61030281565b61030081565b6000816113b484611599565b14905092915050565b60608151835114611403576040517f08c379a00000000000000000000000000000000000000000000000000000000081526004016113fa90614f78565b60405180910390fd5b6000835167ffffffffffffffff8111156114205761141f613cea565b5b60405190808252806020026020018201604052801561144e5781602001602082028036833780820191505090505b50905060005b84518110156114cb5761149b85828151811061147357611472614db3565b5b602002602001015185838151811061148e5761148d614db3565b5b6020026020010151610938565b8282815181106114ae576114ad614db3565b5b602002602001018181525050806114c490614bbb565b9050611454565b508091505092915050565b6000806114e28361183d565b119050919050565b61040281565b61050081565b61040081565b611504611dc2565b73ffffffffffffffffffffffffffffffffffffffff168373ffffffffffffffffffffffffffffffffffffffff16148061154a575061154983611544611dc2565b6119c1565b5b611589576040517f08c379a00000000000000000000000000000000000000000000000000000000081526004016115809061500a565b60405180910390fd5b61159483838361270e565b505050565b600060108263ffff000016901c9050919050565b6115b682611805565b806115c957506115c8826102006113a8565b5b806115d957506115d882611af6565b5b611618576040517f08c379a000000000000000000000000000000000000000000000000000000000815260040161160f9061509c565b60405180910390fd5b6116497f61c92169ef077349011ff0b1383c894d86c5f0b41d986366b58a6cf31e93beda611644611dc2565b611754565b611688576040517f08c379a000000000000000000000000000000000000000000000000000000000815260040161167f90615108565b60405180910390fd5b8061012e6000848152602001908152602001600020600082015181600001556020820151816001015560408201518160020155606082015181600301556080820151816004015560a0820151816005015560c0820151816006015560e08201518160070155610100820151816008015561012082015181600901559050505050565b60006010610500901b61171d9190614a07565b81565b600061012d6000838152602001908152602001600020549050919050565b60046010610500901b6117519190614a07565b81565b60006097600084815260200190815260200160002060000160008373ffffffffffffffffffffffffffffffffffffffff1673ffffffffffffffffffffffffffffffffffffffff16815260200190815260200160002060009054906101000a900460ff16905092915050565b7f61c92169ef077349011ff0b1383c894d86c5f0b41d986366b58a6cf31e93beda81565b6000801b81565b6117fc6117f5611dc2565b83836129c0565b5050565b600281565b60006118128260006113a8565b8061182457506118238260016113a8565b5b8061183657506118358260026113a8565b5b9050919050565b600060fb6000838152602001908152602001600020549050919050565b611862613a0c565b61186b82611805565b8061187e575061187d826102006113a8565b5b8061188e575061188d82611af6565b5b6118cd576040517f08c379a00000000000000000000000000000000000000000000000000000000081526004016118c49061509c565b60405180910390fd5b61012e6000838152602001908152602001600020604051806101400160405290816000820154815260200160018201548152602001600282015481526020016003820154815260200160048201548152602001600582015481526020016006820154815260200160078201548152602001600882015481526020016009820154815250509050919050565b7f9f2df0fed2c77648de5860a4cc508cd0818c85b8b8a1ab4ceeef8d981c8956a681565b61198582610d6a565b61199681611991611dc2565b6124ae565b6119a0838361262c565b505050565b61040181565b60026010610500901b6119be9190614a07565b81565b6000606660008473ffffffffffffffffffffffffffffffffffffffff1673ffffffffffffffffffffffffffffffffffffffff16815260200190815260200160002060008373ffffffffffffffffffffffffffffffffffffffff1673ffffffffffffffffffffffffffffffffffffffff16815260200190815260200160002060009054906101000a900460ff16905092915050565b611a5d611dc2565b73ffffffffffffffffffffffffffffffffffffffff168573ffffffffffffffffffffffffffffffffffffffff161480611aa35750611aa285611a9d611dc2565b6119c1565b5b611ae2576040517f08c379a0000000000000000000000000000000000000000000000000000000008152600401611ad99061500a565b60405180910390fd5b611aef8585858585612b2c565b5050505050565b6000611b04826104006113a8565b80611b175750611b16826104016113a8565b5b80611b2a5750611b29826104026113a8565b5b9050919050565b611b39611dc2565b73ffffffffffffffffffffffffffffffffffffffff168373ffffffffffffffffffffffffffffffffffffffff161480611b7f5750611b7e83611b79611dc2565b6119c1565b5b611bbe576040517f08c379a0000000000000000000000000000000000000000000000000000000008152600401611bb59061500a565b60405180910390fd5b611bc9838383612db0565b505050565b600060019054906101000a900460ff16611bf65760008054906101000a900460ff1615611bff565b611bfe612fce565b5b611c3e576040517f08c379a0000000000000000000000000000000000000000000000000000000008152600401611c359061519a565b60405180910390fd5b60008060019054906101000a900460ff161590508015611c8e576001600060016101000a81548160ff02191690831515021790555060016000806101000a81548160ff0219169083151502179055505b611c9782612fdf565b611cab6000801b611ca6611dc2565b61303a565b611cdc7f9f2df0fed2c77648de5860a4cc508cd0818c85b8b8a1ab4ceeef8d981c8956a6611cd7611dc2565b61303a565b611d0d7f61c92169ef077349011ff0b1383c894d86c5f0b41d986366b58a6cf31e93beda611d08611dc2565b61303a565b8015611d2e5760008060016101000a81548160ff0219169083151502179055505b5050565b60016010610500901b611d459190614a07565b81565b60007f7965db0b000000000000000000000000000000000000000000000000000000007bffffffffffffffffffffffffffffffffffffffffffffffffffffffff1916827bffffffffffffffffffffffffffffffffffffffffffffffffffffffff19161480611dbb5750611dba82613048565b5b9050919050565b600033905090565b8060679080519060200190611de0929190613a5f565b5050565b600073ffffffffffffffffffffffffffffffffffffffff168473ffffffffffffffffffffffffffffffffffffffff1603611e53576040517f08c379a0000000000000000000000000000000000000000000000000000000008152600401611e4a9061522c565b60405180910390fd5b6000611e5d611dc2565b9050611e7e81600087611e6f8861312a565b611e788861312a565b876131a4565b826065600086815260200190815260200160002060008773ffffffffffffffffffffffffffffffffffffffff1673ffffffffffffffffffffffffffffffffffffffff1681526020019081526020016000206000828254611ede9190614a07565b925050819055508473ffffffffffffffffffffffffffffffffffffffff16600073ffffffffffffffffffffffffffffffffffffffff168273ffffffffffffffffffffffffffffffffffffffff167fc3d58168c5ae7397731d063d5bbf3d657854427343f4c083240f7aacaa2d0f628787604051611f5c92919061524c565b60405180910390a4611f73816000878787876131ba565b5050505050565b600073ffffffffffffffffffffffffffffffffffffffff168473ffffffffffffffffffffffffffffffffffffffff1603611fe9576040517f08c379a0000000000000000000000000000000000000000000000000000000008152600401611fe09061522c565b60405180910390fd5b815183511461202d576040517f08c379a0000000000000000000000000000000000000000000000000000000008152600401612024906152e7565b60405180910390fd5b6000612037611dc2565b9050612048816000878787876131a4565b60005b84518110156121025783818151811061206757612066614db3565b5b60200260200101516065600087848151811061208657612085614db3565b5b6020026020010151815260200190815260200160002060008873ffffffffffffffffffffffffffffffffffffffff1673ffffffffffffffffffffffffffffffffffffffff16815260200190815260200160002060008282546120e89190614a07565b9250508190555080806120fa90614bbb565b91505061204b565b508473ffffffffffffffffffffffffffffffffffffffff16600073ffffffffffffffffffffffffffffffffffffffff168273ffffffffffffffffffffffffffffffffffffffff167f4a39dc06d4c0dbc64b70af90fd698a233a518aa5d07e595d983b8c0526c8f7fb878760405161217a929190615307565b60405180910390a461219181600087878787613391565b5050505050565b81518351146121dc576040517f08c379a00000000000000000000000000000000000000000000000000000000081526004016121d3906152e7565b60405180910390fd5b600073ffffffffffffffffffffffffffffffffffffffff168473ffffffffffffffffffffffffffffffffffffffff160361224b576040517f08c379a0000000000000000000000000000000000000000000000000000000008152600401612242906153b0565b60405180910390fd5b6000612255611dc2565b90506122658187878787876131a4565b60005b845181101561241957600085828151811061228657612285614db3565b5b6020026020010151905060008583815181106122a5576122a4614db3565b5b6020026020010151905060006065600084815260200190815260200160002060008b73ffffffffffffffffffffffffffffffffffffffff1673ffffffffffffffffffffffffffffffffffffffff16815260200190815260200160002054905081811015612347576040517f08c379a000000000000000000000000000000000000000000000000000000000815260040161233e90615442565b60405180910390fd5b8181036065600085815260200190815260200160002060008c73ffffffffffffffffffffffffffffffffffffffff1673ffffffffffffffffffffffffffffffffffffffff16815260200190815260200160002081905550816065600085815260200190815260200160002060008b73ffffffffffffffffffffffffffffffffffffffff1673ffffffffffffffffffffffffffffffffffffffff16815260200190815260200160002060008282546123fe9190614a07565b925050819055505050508061241290614bbb565b9050612268565b508473ffffffffffffffffffffffffffffffffffffffff168673ffffffffffffffffffffffffffffffffffffffff168273ffffffffffffffffffffffffffffffffffffffff167f4a39dc06d4c0dbc64b70af90fd698a233a518aa5d07e595d983b8c0526c8f7fb8787604051612490929190615307565b60405180910390a46124a6818787878787613391565b505050505050565b6124b88282611754565b612547576124dd8173ffffffffffffffffffffffffffffffffffffffff166014613568565b6124eb8360001c6020613568565b6040516020016124fc929190615536565b6040516020818303038152906040526040517f08c379a000000000000000000000000000000000000000000000000000000000815260040161253e9190613f13565b60405180910390fd5b5050565b6125558282611754565b6126285760016097600084815260200190815260200160002060000160008373ffffffffffffffffffffffffffffffffffffffff1673ffffffffffffffffffffffffffffffffffffffff16815260200190815260200160002060006101000a81548160ff0219169083151502179055506125cd611dc2565b73ffffffffffffffffffffffffffffffffffffffff168173ffffffffffffffffffffffffffffffffffffffff16837f2f8788117e7eff1d82e926ec794901d17c78024a50270940304540a733656f0d60405160405180910390a45b5050565b6126368282611754565b1561270a5760006097600084815260200190815260200160002060000160008373ffffffffffffffffffffffffffffffffffffffff1673ffffffffffffffffffffffffffffffffffffffff16815260200190815260200160002060006101000a81548160ff0219169083151502179055506126af611dc2565b73ffffffffffffffffffffffffffffffffffffffff168173ffffffffffffffffffffffffffffffffffffffff16837ff6391f5c32d9c69d2a47ea670b442974b53935d1edc7fd64eb21e047a839171b60405160405180910390a45b5050565b600073ffffffffffffffffffffffffffffffffffffffff168373ffffffffffffffffffffffffffffffffffffffff160361277d576040517f08c379a0000000000000000000000000000000000000000000000000000000008152600401612774906155e2565b60405180910390fd5b80518251146127c1576040517f08c379a00000000000000000000000000000000000000000000000000000000081526004016127b8906152e7565b60405180910390fd5b60006127cb611dc2565b90506127eb818560008686604051806020016040528060008152506131a4565b60005b835181101561293a57600084828151811061280c5761280b614db3565b5b60200260200101519050600084838151811061282b5761282a614db3565b5b6020026020010151905060006065600084815260200190815260200160002060008973ffffffffffffffffffffffffffffffffffffffff1673ffffffffffffffffffffffffffffffffffffffff168152602001908152602001600020549050818110156128cd576040517f08c379a00000000000000000000000000000000000000000000000000000000081526004016128c490615674565b60405180910390fd5b8181036065600085815260200190815260200160002060008a73ffffffffffffffffffffffffffffffffffffffff1673ffffffffffffffffffffffffffffffffffffffff16815260200190815260200160002081905550505050808061293290614bbb565b9150506127ee565b50600073ffffffffffffffffffffffffffffffffffffffff168473ffffffffffffffffffffffffffffffffffffffff168273ffffffffffffffffffffffffffffffffffffffff167f4a39dc06d4c0dbc64b70af90fd698a233a518aa5d07e595d983b8c0526c8f7fb86866040516129b2929190615307565b60405180910390a450505050565b8173ffffffffffffffffffffffffffffffffffffffff168373ffffffffffffffffffffffffffffffffffffffff1603612a2e576040517f08c379a0000000000000000000000000000000000000000000000000000000008152600401612a2590615706565b60405180910390fd5b80606660008573ffffffffffffffffffffffffffffffffffffffff1673ffffffffffffffffffffffffffffffffffffffff16815260200190815260200160002060008473ffffffffffffffffffffffffffffffffffffffff1673ffffffffffffffffffffffffffffffffffffffff16815260200190815260200160002060006101000a81548160ff0219169083151502179055508173ffffffffffffffffffffffffffffffffffffffff168373ffffffffffffffffffffffffffffffffffffffff167f17307eab39ab6107e8899845ad3d59bd9653f200f220920489ca2b5937696c3183604051612b1f9190613cb4565b60405180910390a3505050565b600073ffffffffffffffffffffffffffffffffffffffff168473ffffffffffffffffffffffffffffffffffffffff1603612b9b576040517f08c379a0000000000000000000000000000000000000000000000000000000008152600401612b92906153b0565b60405180910390fd5b6000612ba5611dc2565b9050612bc5818787612bb68861312a565b612bbf8861312a565b876131a4565b60006065600086815260200190815260200160002060008873ffffffffffffffffffffffffffffffffffffffff1673ffffffffffffffffffffffffffffffffffffffff16815260200190815260200160002054905083811015612c5d576040517f08c379a0000000000000000000000000000000000000000000000000000000008152600401612c5490615442565b60405180910390fd5b8381036065600087815260200190815260200160002060008973ffffffffffffffffffffffffffffffffffffffff1673ffffffffffffffffffffffffffffffffffffffff16815260200190815260200160002081905550836065600087815260200190815260200160002060008873ffffffffffffffffffffffffffffffffffffffff1673ffffffffffffffffffffffffffffffffffffffff1681526020019081526020016000206000828254612d149190614a07565b925050819055508573ffffffffffffffffffffffffffffffffffffffff168773ffffffffffffffffffffffffffffffffffffffff168373ffffffffffffffffffffffffffffffffffffffff167fc3d58168c5ae7397731d063d5bbf3d657854427343f4c083240f7aacaa2d0f628888604051612d9192919061524c565b60405180910390a4612da78288888888886131ba565b50505050505050565b600073ffffffffffffffffffffffffffffffffffffffff168373ffffffffffffffffffffffffffffffffffffffff1603612e1f576040517f08c379a0000000000000000000000000000000000000000000000000000000008152600401612e16906155e2565b60405180910390fd5b6000612e29611dc2565b9050612e5981856000612e3b8761312a565b612e448761312a565b604051806020016040528060008152506131a4565b60006065600085815260200190815260200160002060008673ffffffffffffffffffffffffffffffffffffffff1673ffffffffffffffffffffffffffffffffffffffff16815260200190815260200160002054905082811015612ef1576040517f08c379a0000000000000000000000000000000000000000000000000000000008152600401612ee890615674565b60405180910390fd5b8281036065600086815260200190815260200160002060008773ffffffffffffffffffffffffffffffffffffffff1673ffffffffffffffffffffffffffffffffffffffff16815260200190815260200160002081905550600073ffffffffffffffffffffffffffffffffffffffff168573ffffffffffffffffffffffffffffffffffffffff168373ffffffffffffffffffffffffffffffffffffffff167fc3d58168c5ae7397731d063d5bbf3d657854427343f4c083240f7aacaa2d0f628787604051612fbf92919061524c565b60405180910390a45050505050565b6000612fd9306137a4565b15905090565b600060019054906101000a900460ff1661302e576040517f08c379a000000000000000000000000000000000000000000000000000000000815260040161302590615798565b60405180910390fd5b613037816137c7565b50565b613044828261254b565b5050565b60007fd9b67a26000000000000000000000000000000000000000000000000000000007bffffffffffffffffffffffffffffffffffffffffffffffffffffffff1916827bffffffffffffffffffffffffffffffffffffffffffffffffffffffff1916148061311357507f0e89341c000000000000000000000000000000000000000000000000000000007bffffffffffffffffffffffffffffffffffffffffffffffffffffffff1916827bffffffffffffffffffffffffffffffffffffffffffffffffffffffff1916145b80613123575061312282613822565b5b9050919050565b60606000600167ffffffffffffffff81111561314957613148613cea565b5b6040519080825280602002602001820160405280156131775781602001602082028036833780820191505090505b509050828160008151811061318f5761318e614db3565b5b60200260200101818152505080915050919050565b6131b286868686868661388c565b505050505050565b6131d98473ffffffffffffffffffffffffffffffffffffffff166137a4565b15613389578373ffffffffffffffffffffffffffffffffffffffff1663f23a6e6187878686866040518663ffffffff1660e01b815260040161321f95949392919061581c565b6020604051808303816000875af192505050801561325b57506040513d601f19601f82011682018060405250810190613258919061588b565b60015b613300576132676158c5565b806308c379a0036132c3575061327b6158e7565b8061328657506132c5565b806040517f08c379a00000000000000000000000000000000000000000000000000000000081526004016132ba9190613f13565b60405180910390fd5b505b6040517f08c379a00000000000000000000000000000000000000000000000000000000081526004016132f7906159e9565b60405180910390fd5b63f23a6e6160e01b7bffffffffffffffffffffffffffffffffffffffffffffffffffffffff1916817bffffffffffffffffffffffffffffffffffffffffffffffffffffffff191614613387576040517f08c379a000000000000000000000000000000000000000000000000000000000815260040161337e90615a7b565b60405180910390fd5b505b505050505050565b6133b08473ffffffffffffffffffffffffffffffffffffffff166137a4565b15613560578373ffffffffffffffffffffffffffffffffffffffff1663bc197c8187878686866040518663ffffffff1660e01b81526004016133f6959493929190615a9b565b6020604051808303816000875af192505050801561343257506040513d601f19601f8201168201806040525081019061342f919061588b565b60015b6134d75761343e6158c5565b806308c379a00361349a57506134526158e7565b8061345d575061349c565b806040517f08c379a00000000000000000000000000000000000000000000000000000000081526004016134919190613f13565b60405180910390fd5b505b6040517f08c379a00000000000000000000000000000000000000000000000000000000081526004016134ce906159e9565b60405180910390fd5b63bc197c8160e01b7bffffffffffffffffffffffffffffffffffffffffffffffffffffffff1916817bffffffffffffffffffffffffffffffffffffffffffffffffffffffff19161461355e576040517f08c379a000000000000000000000000000000000000000000000000000000000815260040161355590615a7b565b60405180910390fd5b505b505050505050565b60606000600283600261357b9190615b03565b6135859190614a07565b67ffffffffffffffff81111561359e5761359d613cea565b5b6040519080825280601f01601f1916602001820160405280156135d05781602001600182028036833780820191505090505b5090507f30000000000000000000000000000000000000000000000000000000000000008160008151811061360857613607614db3565b5b60200101907effffffffffffffffffffffffffffffffffffffffffffffffffffffffffffff1916908160001a9053507f78000000000000000000000000000000000000000000000000000000000000008160018151811061366c5761366b614db3565b5b60200101907effffffffffffffffffffffffffffffffffffffffffffffffffffffffffffff1916908160001a905350600060018460026136ac9190615b03565b6136b69190614a07565b90505b6001811115613756577f3031323334353637383961626364656600000000000000000000000000000000600f8616601081106136f8576136f7614db3565b5b1a60f81b82828151811061370f5761370e614db3565b5b60200101907effffffffffffffffffffffffffffffffffffffffffffffffffffffffffffff1916908160001a905350600485901c94508061374f90615b5d565b90506136b9565b506000841461379a576040517f08c379a000000000000000000000000000000000000000000000000000000000815260040161379190615bd2565b60405180910390fd5b8091505092915050565b6000808273ffffffffffffffffffffffffffffffffffffffff163b119050919050565b600060019054906101000a900460ff16613816576040517f08c379a000000000000000000000000000000000000000000000000000000000815260040161380d90615798565b60405180910390fd5b61381f81611dca565b50565b60007f01ffc9a7000000000000000000000000000000000000000000000000000000007bffffffffffffffffffffffffffffffffffffffffffffffffffffffff1916827bffffffffffffffffffffffffffffffffffffffffffffffffffffffff1916149050919050565b61389a868686868686613a04565b600073ffffffffffffffffffffffffffffffffffffffff168573ffffffffffffffffffffffffffffffffffffffff160361394b5760005b8351811015613949578281815181106138ed576138ec614db3565b5b602002602001015160fb600086848151811061390c5761390b614db3565b5b6020026020010151815260200190815260200160002060008282546139319190614a07565b925050819055508061394290614bbb565b90506138d1565b505b600073ffffffffffffffffffffffffffffffffffffffff168473ffffffffffffffffffffffffffffffffffffffff16036139fc5760005b83518110156139fa5782818151811061399e5761399d614db3565b5b602002602001015160fb60008684815181106139bd576139bc614db3565b5b6020026020010151815260200190815260200160002060008282546139e29190615bf2565b92505081905550806139f390614bbb565b9050613982565b505b505050505050565b505050505050565b604051806101400160405280600081526020016000815260200160008152602001600081526020016000815260200160008152602001600081526020016000815260200160008152602001600081525090565b828054613a6b90614a8c565b90600052602060002090601f016020900481019282613a8d5760008555613ad4565b82601f10613aa657805160ff1916838001178555613ad4565b82800160010185558215613ad4579182015b82811115613ad3578251825591602001919060010190613ab8565b5b509050613ae19190613ae5565b5090565b5b80821115613afe576000816000905550600101613ae6565b5090565b6000604051905090565b600080fd5b600080fd5b600073ffffffffffffffffffffffffffffffffffffffff82169050919050565b6000613b4182613b16565b9050919050565b613b5181613b36565b8114613b5c57600080fd5b50565b600081359050613b6e81613b48565b92915050565b6000819050919050565b613b8781613b74565b8114613b9257600080fd5b50565b600081359050613ba481613b7e565b92915050565b60008060408385031215613bc157613bc0613b0c565b5b6000613bcf85828601613b5f565b9250506020613be085828601613b95565b9150509250929050565b613bf381613b74565b82525050565b6000602082019050613c0e6000830184613bea565b92915050565b60007fffffffff0000000000000000000000000000000000000000000000000000000082169050919050565b613c4981613c14565b8114613c5457600080fd5b50565b600081359050613c6681613c40565b92915050565b600060208284031215613c8257613c81613b0c565b5b6000613c9084828501613c57565b91505092915050565b60008115159050919050565b613cae81613c99565b82525050565b6000602082019050613cc96000830184613ca5565b92915050565b600080fd5b600080fd5b6000601f19601f8301169050919050565b7f4e487b7100000000000000000000000000000000000000000000000000000000600052604160045260246000fd5b613d2282613cd9565b810181811067ffffffffffffffff82111715613d4157613d40613cea565b5b80604052505050565b6000613d54613b02565b9050613d608282613d19565b919050565b600067ffffffffffffffff821115613d8057613d7f613cea565b5b613d8982613cd9565b9050602081019050919050565b82818337600083830152505050565b6000613db8613db384613d65565b613d4a565b905082815260208101848484011115613dd457613dd3613cd4565b5b613ddf848285613d96565b509392505050565b600082601f830112613dfc57613dfb613ccf565b5b8135613e0c848260208601613da5565b91505092915050565b600060208284031215613e2b57613e2a613b0c565b5b600082013567ffffffffffffffff811115613e4957613e48613b11565b5b613e5584828501613de7565b91505092915050565b600060208284031215613e7457613e73613b0c565b5b6000613e8284828501613b95565b91505092915050565b600081519050919050565b600082825260208201905092915050565b60005b83811015613ec5578082015181840152602081019050613eaa565b83811115613ed4576000848401525b50505050565b6000613ee582613e8b565b613eef8185613e96565b9350613eff818560208601613ea7565b613f0881613cd9565b840191505092915050565b60006020820190508181036000830152613f2d8184613eda565b905092915050565b600080600060608486031215613f4e57613f4d613b0c565b5b6000613f5c86828701613b5f565b9350506020613f6d86828701613b95565b9250506040613f7e86828701613b95565b9150509250925092565b6000819050919050565b613f9b81613f88565b8114613fa657600080fd5b50565b600081359050613fb881613f92565b92915050565b600060208284031215613fd457613fd3613b0c565b5b6000613fe284828501613fa9565b91505092915050565b613ff481613f88565b82525050565b600060208201905061400f6000830184613feb565b92915050565b600067ffffffffffffffff8211156140305761402f613cea565b5b602082029050602081019050919050565b600080fd5b600061405961405484614015565b613d4a565b9050808382526020820190506020840283018581111561407c5761407b614041565b5b835b818110156140a557806140918882613b95565b84526020840193505060208101905061407e565b5050509392505050565b600082601f8301126140c4576140c3613ccf565b5b81356140d4848260208601614046565b91505092915050565b600067ffffffffffffffff8211156140f8576140f7613cea565b5b61410182613cd9565b9050602081019050919050565b600061412161411c846140dd565b613d4a565b90508281526020810184848401111561413d5761413c613cd4565b5b614148848285613d96565b509392505050565b600082601f83011261416557614164613ccf565b5b813561417584826020860161410e565b91505092915050565b600080600080600060a0868803121561419a57614199613b0c565b5b60006141a888828901613b5f565b95505060206141b988828901613b5f565b945050604086013567ffffffffffffffff8111156141da576141d9613b11565b5b6141e6888289016140af565b935050606086013567ffffffffffffffff81111561420757614206613b11565b5b614213888289016140af565b925050608086013567ffffffffffffffff81111561423457614233613b11565b5b61424088828901614150565b9150509295509295909350565b6000806040838503121561426457614263613b0c565b5b600061427285828601613fa9565b925050602061428385828601613b5f565b9150509250929050565b600080604083850312156142a4576142a3613b0c565b5b60006142b285828601613b95565b92505060206142c385828601613b95565b9150509250929050565b600067ffffffffffffffff8211156142e8576142e7613cea565b5b602082029050602081019050919050565b600061430c614307846142cd565b613d4a565b9050808382526020820190506020840283018581111561432f5761432e614041565b5b835b8181101561435857806143448882613b5f565b845260208401935050602081019050614331565b5050509392505050565b600082601f83011261437757614376613ccf565b5b81356143878482602086016142f9565b91505092915050565b600080604083850312156143a7576143a6613b0c565b5b600083013567ffffffffffffffff8111156143c5576143c4613b11565b5b6143d185828601614362565b925050602083013567ffffffffffffffff8111156143f2576143f1613b11565b5b6143fe858286016140af565b9150509250929050565b600081519050919050565b600082825260208201905092915050565b6000819050602082019050919050565b61443d81613b74565b82525050565b600061444f8383614434565b60208301905092915050565b6000602082019050919050565b600061447382614408565b61447d8185614413565b935061448883614424565b8060005b838110156144b95781516144a08882614443565b97506144ab8361445b565b92505060018101905061448c565b5085935050505092915050565b600060208201905081810360008301526144e08184614468565b905092915050565b60008060006060848603121561450157614500613b0c565b5b600061450f86828701613b5f565b935050602084013567ffffffffffffffff8111156145305761452f613b11565b5b61453c868287016140af565b925050604084013567ffffffffffffffff81111561455d5761455c613b11565b5b614569868287016140af565b9150509250925092565b600080fd5b6000610140828403121561458f5761458e614573565b5b61459a610140613d4a565b905060006145aa84828501613b95565b60008301525060206145be84828501613b95565b60208301525060406145d284828501613b95565b60408301525060606145e684828501613b95565b60608301525060806145fa84828501613b95565b60808301525060a061460e84828501613b95565b60a08301525060c061462284828501613b95565b60c08301525060e061463684828501613b95565b60e08301525061010061464b84828501613b95565b6101008301525061012061466184828501613b95565b6101208301525092915050565b600080610160838503121561468657614685613b0c565b5b600061469485828601613b95565b92505060206146a585828601614578565b9150509250929050565b6146b881613c99565b81146146c357600080fd5b50565b6000813590506146d5816146af565b92915050565b600080604083850312156146f2576146f1613b0c565b5b600061470085828601613b5f565b9250506020614711858286016146c6565b9150509250929050565b610140820160008201516147326000850182614434565b5060208201516147456020850182614434565b5060408201516147586040850182614434565b50606082015161476b6060850182614434565b50608082015161477e6080850182614434565b5060a082015161479160a0850182614434565b5060c08201516147a460c0850182614434565b5060e08201516147b760e0850182614434565b506101008201516147cc610100850182614434565b506101208201516147e1610120850182614434565b50505050565b6000610140820190506147fd600083018461471b565b92915050565b6000806040838503121561481a57614819613b0c565b5b600061482885828601613b5f565b925050602061483985828601613b5f565b9150509250929050565b600080600080600060a0868803121561485f5761485e613b0c565b5b600061486d88828901613b5f565b955050602061487e88828901613b5f565b945050604061488f88828901613b95565b93505060606148a088828901613b95565b925050608086013567ffffffffffffffff8111156148c1576148c0613b11565b5b6148cd88828901614150565b9150509295509295909350565b7f455243313135353a2062616c616e636520717565727920666f7220746865207a60008201527f65726f2061646472657373000000000000000000000000000000000000000000602082015250565b6000614936602b83613e96565b9150614941826148da565b604082019050919050565b6000602082019050818103600083015261496581614929565b9050919050565b7f6e6565642044454641554c545f41444d494e5f524f4c45000000000000000000600082015250565b60006149a2601783613e96565b91506149ad8261496c565b602082019050919050565b600060208201905081810360008301526149d181614995565b9050919050565b7f4e487b7100000000000000000000000000000000000000000000000000000000600052601160045260246000fd5b6000614a1282613b74565b9150614a1d83613b74565b9250827fffffffffffffffffffffffffffffffffffffffffffffffffffffffffffffffff03821115614a5257614a516149d8565b5b828201905092915050565b7f4e487b7100000000000000000000000000000000000000000000000000000000600052602260045260246000fd5b60006002820490506001821680614aa457607f821691505b602082108103614ab757614ab6614a5d565b5b50919050565b7f4d45544152554e434f4c4c454354494f4e3a206e656564204d494e5445525f5260008201527f4f4c450000000000000000000000000000000000000000000000000000000000602082015250565b6000614b19602383613e96565b9150614b2482614abd565b604082019050919050565b60006020820190508181036000830152614b4881614b0c565b9050919050565b7f43616e6e6f74206d696e74206d6f7265207468616e206f6e65206974656d0000600082015250565b6000614b85601e83613e96565b9150614b9082614b4f565b602082019050919050565b60006020820190508181036000830152614bb481614b78565b9050919050565b6000614bc682613b74565b91507fffffffffffffffffffffffffffffffffffffffffffffffffffffffffffffffff8203614bf857614bf76149d8565b5b600182019050919050565b7f4e4545445f4d494e5445525f524f4c4500000000000000000000000000000000600082015250565b6000614c39601083613e96565b9150614c4482614c03565b602082019050919050565b60006020820190508181036000830152614c6881614c2c565b9050919050565b7f554e5355495441424c455f4b494e440000000000000000000000000000000000600082015250565b6000614ca5600f83613e96565b9150614cb082614c6f565b602082019050919050565b60006020820190508181036000830152614cd481614c98565b9050919050565b7f434f554e545f554e444552464c4f570000000000000000000000000000000000600082015250565b6000614d11600f83613e96565b9150614d1c82614cdb565b602082019050919050565b60006020820190508181036000830152614d4081614d04565b9050919050565b7f4b494e445f4f564552464c4f5700000000000000000000000000000000000000600082015250565b6000614d7d600d83613e96565b9150614d8882614d47565b602082019050919050565b60006020820190508181036000830152614dac81614d70565b9050919050565b7f4e487b7100000000000000000000000000000000000000000000000000000000600052603260045260246000fd5b7f455243313135353a207472616e736665722063616c6c6572206973206e6f742060008201527f6f776e6572206e6f7220617070726f7665640000000000000000000000000000602082015250565b6000614e3e603283613e96565b9150614e4982614de2565b604082019050919050565b60006020820190508181036000830152614e6d81614e31565b9050919050565b7f416363657373436f6e74726f6c3a2063616e206f6e6c792072656e6f756e636560008201527f20726f6c657320666f722073656c660000000000000000000000000000000000602082015250565b6000614ed0602f83613e96565b9150614edb82614e74565b604082019050919050565b60006020820190508181036000830152614eff81614ec3565b9050919050565b7f455243313135353a206163636f756e747320616e6420696473206c656e67746860008201527f206d69736d617463680000000000000000000000000000000000000000000000602082015250565b6000614f62602983613e96565b9150614f6d82614f06565b604082019050919050565b60006020820190508181036000830152614f9181614f55565b9050919050565b7f455243313135353a2063616c6c6572206973206e6f74206f776e6572206e6f7260008201527f20617070726f7665640000000000000000000000000000000000000000000000602082015250565b6000614ff4602983613e96565b9150614fff82614f98565b604082019050919050565b6000602082019050818103600083015261502381614fe7565b9050919050565b7f5065726b732061726520617661696c61626c65206f6e6c7920666f722063686160008201527f726163746572732c207065747320616e64207469636b65747300000000000000602082015250565b6000615086603983613e96565b91506150918261502a565b604082019050919050565b600060208201905081810360008301526150b581615079565b9050919050565b7f6e656564205345545445525f524f4c4500000000000000000000000000000000600082015250565b60006150f2601083613e96565b91506150fd826150bc565b602082019050919050565b60006020820190508181036000830152615121816150e5565b9050919050565b7f496e697469616c697a61626c653a20636f6e747261637420697320616c72656160008201527f647920696e697469616c697a6564000000000000000000000000000000000000602082015250565b6000615184602e83613e96565b915061518f82615128565b604082019050919050565b600060208201905081810360008301526151b381615177565b9050919050565b7f455243313135353a206d696e7420746f20746865207a65726f2061646472657360008201527f7300000000000000000000000000000000000000000000000000000000000000602082015250565b6000615216602183613e96565b9150615221826151ba565b604082019050919050565b6000602082019050818103600083015261524581615209565b9050919050565b60006040820190506152616000830185613bea565b61526e6020830184613bea565b9392505050565b7f455243313135353a2069647320616e6420616d6f756e7473206c656e6774682060008201527f6d69736d61746368000000000000000000000000000000000000000000000000602082015250565b60006152d1602883613e96565b91506152dc82615275565b604082019050919050565b60006020820190508181036000830152615300816152c4565b9050919050565b600060408201905081810360008301526153218185614468565b905081810360208301526153358184614468565b90509392505050565b7f455243313135353a207472616e7366657220746f20746865207a65726f20616460008201527f6472657373000000000000000000000000000000000000000000000000000000602082015250565b600061539a602583613e96565b91506153a58261533e565b604082019050919050565b600060208201905081810360008301526153c98161538d565b9050919050565b7f455243313135353a20696e73756666696369656e742062616c616e636520666f60008201527f72207472616e7366657200000000000000000000000000000000000000000000602082015250565b600061542c602a83613e96565b9150615437826153d0565b604082019050919050565b6000602082019050818103600083015261545b8161541f565b9050919050565b600081905092915050565b7f416363657373436f6e74726f6c3a206163636f756e7420000000000000000000600082015250565b60006154a3601783615462565b91506154ae8261546d565b601782019050919050565b60006154c482613e8b565b6154ce8185615462565b93506154de818560208601613ea7565b80840191505092915050565b7f206973206d697373696e6720726f6c6520000000000000000000000000000000600082015250565b6000615520601183615462565b915061552b826154ea565b601182019050919050565b600061554182615496565b915061554d82856154b9565b915061555882615513565b915061556482846154b9565b91508190509392505050565b7f455243313135353a206275726e2066726f6d20746865207a65726f206164647260008201527f6573730000000000000000000000000000000000000000000000000000000000602082015250565b60006155cc602383613e96565b91506155d782615570565b604082019050919050565b600060208201905081810360008301526155fb816155bf565b9050919050565b7f455243313135353a206275726e20616d6f756e7420657863656564732062616c60008201527f616e636500000000000000000000000000000000000000000000000000000000602082015250565b600061565e602483613e96565b915061566982615602565b604082019050919050565b6000602082019050818103600083015261568d81615651565b9050919050565b7f455243313135353a2073657474696e6720617070726f76616c2073746174757360008201527f20666f722073656c660000000000000000000000000000000000000000000000602082015250565b60006156f0602983613e96565b91506156fb82615694565b604082019050919050565b6000602082019050818103600083015261571f816156e3565b9050919050565b7f496e697469616c697a61626c653a20636f6e7472616374206973206e6f74206960008201527f6e697469616c697a696e67000000000000000000000000000000000000000000602082015250565b6000615782602b83613e96565b915061578d82615726565b604082019050919050565b600060208201905081810360008301526157b181615775565b9050919050565b6157c181613b36565b82525050565b600081519050919050565b600082825260208201905092915050565b60006157ee826157c7565b6157f881856157d2565b9350615808818560208601613ea7565b61581181613cd9565b840191505092915050565b600060a08201905061583160008301886157b8565b61583e60208301876157b8565b61584b6040830186613bea565b6158586060830185613bea565b818103608083015261586a81846157e3565b90509695505050505050565b60008151905061588581613c40565b92915050565b6000602082840312156158a1576158a0613b0c565b5b60006158af84828501615876565b91505092915050565b60008160e01c9050919050565b600060033d11156158e45760046000803e6158e16000516158b8565b90505b90565b600060443d10615974576158f9613b02565b60043d036004823e80513d602482011167ffffffffffffffff82111715615921575050615974565b808201805167ffffffffffffffff81111561593f5750505050615974565b80602083010160043d03850181111561595c575050505050615974565b61596b82602001850186613d19565b82955050505050505b90565b7f455243313135353a207472616e7366657220746f206e6f6e204552433131353560008201527f526563656976657220696d706c656d656e746572000000000000000000000000602082015250565b60006159d3603483613e96565b91506159de82615977565b604082019050919050565b60006020820190508181036000830152615a02816159c6565b9050919050565b7f455243313135353a204552433131353552656365697665722072656a6563746560008201527f6420746f6b656e73000000000000000000000000000000000000000000000000602082015250565b6000615a65602883613e96565b9150615a7082615a09565b604082019050919050565b60006020820190508181036000830152615a9481615a58565b9050919050565b600060a082019050615ab060008301886157b8565b615abd60208301876157b8565b8181036040830152615acf8186614468565b90508181036060830152615ae38185614468565b90508181036080830152615af781846157e3565b90509695505050505050565b6000615b0e82613b74565b9150615b1983613b74565b9250817fffffffffffffffffffffffffffffffffffffffffffffffffffffffffffffffff0483118215151615615b5257615b516149d8565b5b828202905092915050565b6000615b6882613b74565b915060008203615b7b57615b7a6149d8565b5b600182039050919050565b7f537472696e67733a20686578206c656e67746820696e73756666696369656e74600082015250565b6000615bbc602083613e96565b9150615bc782615b86565b602082019050919050565b60006020820190508181036000830152615beb81615baf565b9050919050565b6000615bfd82613b74565b9150615c0883613b74565b925082821015615c1b57615c1a6149d8565b5b82820390509291505056fea26469706673582212206e958715ab2c6b11f1824dc7fb0cce318767c62f82487f59fb1e9d1b31c94c5764736f6c634300080d0033",
  "devdoc": {
    "kind": "dev",
    "methods": {
      "balanceOf(address,uint256)": {
        "details": "See {IERC1155-balanceOf}. Requirements: - `account` cannot be the zero address."
      },
      "balanceOfBatch(address[],uint256[])": {
        "details": "See {IERC1155-balanceOfBatch}. Requirements: - `accounts` and `ids` must have the same length."
      },
      "exists(uint256)": {
        "details": "Indicates whether any token exist with a given id, or not."
      },
      "getRoleAdmin(bytes32)": {
        "details": "Returns the admin role that controls `role`. See {grantRole} and {revokeRole}. To change a role's admin, use {_setRoleAdmin}."
      },
      "grantRole(bytes32,address)": {
        "details": "Grants `role` to `account`. If `account` had not been already granted `role`, emits a {RoleGranted} event. Requirements: - the caller must have ``role``'s admin role."
      },
      "hasRole(bytes32,address)": {
        "details": "Returns `true` if `account` has been granted `role`."
      },
      "isApprovedForAll(address,address)": {
        "details": "See {IERC1155-isApprovedForAll}."
      },
      "renounceRole(bytes32,address)": {
        "details": "Revokes `role` from the calling account. Roles are often managed via {grantRole} and {revokeRole}: this function's purpose is to provide a mechanism for accounts to lose their privileges if they are compromised (such as when a trusted device is misplaced). If the calling account had been revoked `role`, emits a {RoleRevoked} event. Requirements: - the caller must be `account`."
      },
      "revokeRole(bytes32,address)": {
        "details": "Revokes `role` from `account`. If `account` had been granted `role`, emits a {RoleRevoked} event. Requirements: - the caller must have ``role``'s admin role."
      },
      "safeBatchTransferFrom(address,address,uint256[],uint256[],bytes)": {
        "details": "See {IERC1155-safeBatchTransferFrom}."
      },
      "safeTransferFrom(address,address,uint256,uint256,bytes)": {
        "details": "See {IERC1155-safeTransferFrom}."
      },
      "setApprovalForAll(address,bool)": {
        "details": "See {IERC1155-setApprovalForAll}."
      },
      "totalSupply(uint256)": {
        "details": "Total amount of tokens in with a given id."
      },
      "uri(uint256)": {
        "details": "See {IERC1155MetadataURI-uri}. This implementation returns the same URI for *all* token types. It relies on the token type ID substitution mechanism https://eips.ethereum.org/EIPS/eip-1155#metadata[defined in the EIP]. Clients calling this function must replace the `\\{id\\}` substring with the actual token type ID."
      }
    },
    "version": 1
  },
  "userdoc": {
    "kind": "user",
    "methods": {},
    "version": 1
  },
  "storageLayout": {
    "storage": [
      {
        "astId": 408,
        "contract": "contracts/MetarunCollection.sol:MetarunCollection",
        "label": "_initialized",
        "offset": 0,
        "slot": "0",
        "type": "t_bool"
      },
      {
        "astId": 411,
        "contract": "contracts/MetarunCollection.sol:MetarunCollection",
        "label": "_initializing",
        "offset": 1,
        "slot": "0",
        "type": "t_bool"
      },
      {
        "astId": 2422,
        "contract": "contracts/MetarunCollection.sol:MetarunCollection",
        "label": "__gap",
        "offset": 0,
        "slot": "1",
        "type": "t_array(t_uint256)50_storage"
      },
      {
        "astId": 2669,
        "contract": "contracts/MetarunCollection.sol:MetarunCollection",
        "label": "__gap",
        "offset": 0,
        "slot": "51",
        "type": "t_array(t_uint256)50_storage"
      },
      {
        "astId": 504,
        "contract": "contracts/MetarunCollection.sol:MetarunCollection",
        "label": "_balances",
        "offset": 0,
        "slot": "101",
        "type": "t_mapping(t_uint256,t_mapping(t_address,t_uint256))"
      },
      {
        "astId": 510,
        "contract": "contracts/MetarunCollection.sol:MetarunCollection",
        "label": "_operatorApprovals",
        "offset": 0,
        "slot": "102",
        "type": "t_mapping(t_address,t_mapping(t_address,t_bool))"
      },
      {
        "astId": 512,
        "contract": "contracts/MetarunCollection.sol:MetarunCollection",
        "label": "_uri",
        "offset": 0,
        "slot": "103",
        "type": "t_string_storage"
      },
      {
        "astId": 1592,
        "contract": "contracts/MetarunCollection.sol:MetarunCollection",
        "label": "__gap",
        "offset": 0,
        "slot": "104",
        "type": "t_array(t_uint256)47_storage"
      },
      {
        "astId": 39,
        "contract": "contracts/MetarunCollection.sol:MetarunCollection",
        "label": "_roles",
        "offset": 0,
        "slot": "151",
        "type": "t_mapping(t_bytes32,t_struct(RoleData)34_storage)"
      },
      {
        "astId": 327,
        "contract": "contracts/MetarunCollection.sol:MetarunCollection",
        "label": "__gap",
        "offset": 0,
        "slot": "152",
        "type": "t_array(t_uint256)49_storage"
      },
      {
        "astId": 1844,
        "contract": "contracts/MetarunCollection.sol:MetarunCollection",
        "label": "__gap",
        "offset": 0,
        "slot": "201",
        "type": "t_array(t_uint256)50_storage"
      },
      {
        "astId": 1870,
        "contract": "contracts/MetarunCollection.sol:MetarunCollection",
        "label": "_totalSupply",
        "offset": 0,
        "slot": "251",
        "type": "t_mapping(t_uint256,t_uint256)"
      },
      {
        "astId": 1997,
        "contract": "contracts/MetarunCollection.sol:MetarunCollection",
        "label": "__gap",
        "offset": 0,
        "slot": "252",
        "type": "t_array(t_uint256)49_storage"
      },
      {
        "astId": 3355,
        "contract": "contracts/MetarunCollection.sol:MetarunCollection",
        "label": "kindSupply",
        "offset": 0,
        "slot": "301",
        "type": "t_mapping(t_uint256,t_uint256)"
      },
      {
        "astId": 3381,
        "contract": "contracts/MetarunCollection.sol:MetarunCollection",
        "label": "tokenPerks",
        "offset": 0,
        "slot": "302",
        "type": "t_mapping(t_uint256,t_struct(Perks)3376_storage)"
      }
    ],
    "types": {
      "t_address": {
        "encoding": "inplace",
        "label": "address",
        "numberOfBytes": "20"
      },
      "t_array(t_uint256)47_storage": {
        "base": "t_uint256",
        "encoding": "inplace",
        "label": "uint256[47]",
        "numberOfBytes": "1504"
      },
      "t_array(t_uint256)49_storage": {
        "base": "t_uint256",
        "encoding": "inplace",
        "label": "uint256[49]",
        "numberOfBytes": "1568"
      },
      "t_array(t_uint256)50_storage": {
        "base": "t_uint256",
        "encoding": "inplace",
        "label": "uint256[50]",
        "numberOfBytes": "1600"
      },
      "t_bool": {
        "encoding": "inplace",
        "label": "bool",
        "numberOfBytes": "1"
      },
      "t_bytes32": {
        "encoding": "inplace",
        "label": "bytes32",
        "numberOfBytes": "32"
      },
      "t_mapping(t_address,t_bool)": {
        "encoding": "mapping",
        "key": "t_address",
        "label": "mapping(address => bool)",
        "numberOfBytes": "32",
        "value": "t_bool"
      },
      "t_mapping(t_address,t_mapping(t_address,t_bool))": {
        "encoding": "mapping",
        "key": "t_address",
        "label": "mapping(address => mapping(address => bool))",
        "numberOfBytes": "32",
        "value": "t_mapping(t_address,t_bool)"
      },
      "t_mapping(t_address,t_uint256)": {
        "encoding": "mapping",
        "key": "t_address",
        "label": "mapping(address => uint256)",
        "numberOfBytes": "32",
        "value": "t_uint256"
      },
      "t_mapping(t_bytes32,t_struct(RoleData)34_storage)": {
        "encoding": "mapping",
        "key": "t_bytes32",
        "label": "mapping(bytes32 => struct AccessControlUpgradeable.RoleData)",
        "numberOfBytes": "32",
        "value": "t_struct(RoleData)34_storage"
      },
      "t_mapping(t_uint256,t_mapping(t_address,t_uint256))": {
        "encoding": "mapping",
        "key": "t_uint256",
        "label": "mapping(uint256 => mapping(address => uint256))",
        "numberOfBytes": "32",
        "value": "t_mapping(t_address,t_uint256)"
      },
      "t_mapping(t_uint256,t_struct(Perks)3376_storage)": {
        "encoding": "mapping",
        "key": "t_uint256",
        "label": "mapping(uint256 => struct MetarunCollection.Perks)",
        "numberOfBytes": "32",
        "value": "t_struct(Perks)3376_storage"
      },
      "t_mapping(t_uint256,t_uint256)": {
        "encoding": "mapping",
        "key": "t_uint256",
        "label": "mapping(uint256 => uint256)",
        "numberOfBytes": "32",
        "value": "t_uint256"
      },
      "t_string_storage": {
        "encoding": "bytes",
        "label": "string",
        "numberOfBytes": "32"
      },
      "t_struct(Perks)3376_storage": {
        "encoding": "inplace",
        "label": "struct MetarunCollection.Perks",
        "members": [
          {
            "astId": 3357,
            "contract": "contracts/MetarunCollection.sol:MetarunCollection",
            "label": "level",
            "offset": 0,
            "slot": "0",
            "type": "t_uint256"
          },
          {
            "astId": 3359,
            "contract": "contracts/MetarunCollection.sol:MetarunCollection",
            "label": "runs",
            "offset": 0,
            "slot": "1",
            "type": "t_uint256"
          },
          {
            "astId": 3361,
            "contract": "contracts/MetarunCollection.sol:MetarunCollection",
            "label": "wins",
            "offset": 0,
            "slot": "2",
            "type": "t_uint256"
          },
          {
            "astId": 3363,
            "contract": "contracts/MetarunCollection.sol:MetarunCollection",
            "label": "ability",
            "offset": 0,
            "slot": "3",
            "type": "t_uint256"
          },
          {
            "astId": 3365,
            "contract": "contracts/MetarunCollection.sol:MetarunCollection",
            "label": "health",
            "offset": 0,
            "slot": "4",
            "type": "t_uint256"
          },
          {
            "astId": 3367,
            "contract": "contracts/MetarunCollection.sol:MetarunCollection",
            "label": "mana",
            "offset": 0,
            "slot": "5",
            "type": "t_uint256"
          },
          {
            "astId": 3369,
            "contract": "contracts/MetarunCollection.sol:MetarunCollection",
            "label": "speed",
            "offset": 0,
            "slot": "6",
            "type": "t_uint256"
          },
          {
            "astId": 3371,
            "contract": "contracts/MetarunCollection.sol:MetarunCollection",
            "label": "collisionDamage",
            "offset": 0,
            "slot": "7",
            "type": "t_uint256"
          },
          {
            "astId": 3373,
            "contract": "contracts/MetarunCollection.sol:MetarunCollection",
            "label": "runsPerDayLimit",
            "offset": 0,
            "slot": "8",
            "type": "t_uint256"
          },
          {
            "astId": 3375,
            "contract": "contracts/MetarunCollection.sol:MetarunCollection",
            "label": "runsTotalLimit",
            "offset": 0,
            "slot": "9",
            "type": "t_uint256"
          }
        ],
        "numberOfBytes": "320"
      },
      "t_struct(RoleData)34_storage": {
        "encoding": "inplace",
        "label": "struct AccessControlUpgradeable.RoleData",
        "members": [
          {
            "astId": 31,
            "contract": "contracts/MetarunCollection.sol:MetarunCollection",
            "label": "members",
            "offset": 0,
            "slot": "0",
            "type": "t_mapping(t_address,t_bool)"
          },
          {
            "astId": 33,
            "contract": "contracts/MetarunCollection.sol:MetarunCollection",
            "label": "adminRole",
            "offset": 0,
            "slot": "1",
            "type": "t_bytes32"
          }
        ],
        "numberOfBytes": "64"
      },
      "t_uint256": {
        "encoding": "inplace",
        "label": "uint256",
        "numberOfBytes": "32"
      }
    }
  }
}