{
  "address": "0x9f8073D638E31472c9809E736bce423Bb46ee6e5",
  "abi": [
    {
      "anonymous": false,
      "inputs": [
        {
          "indexed": true,
          "internalType": "bytes32",
          "name": "role",
          "type": "bytes32"
        },
        {
          "indexed": true,
          "internalType": "bytes32",
          "name": "previousAdminRole",
          "type": "bytes32"
        },
        {
          "indexed": true,
          "internalType": "bytes32",
          "name": "newAdminRole",
          "type": "bytes32"
        }
      ],
      "name": "RoleAdminChanged",
      "type": "event"
    },
    {
      "anonymous": false,
      "inputs": [
        {
          "indexed": true,
          "internalType": "bytes32",
          "name": "role",
          "type": "bytes32"
        },
        {
          "indexed": true,
          "internalType": "address",
          "name": "account",
          "type": "address"
        },
        {
          "indexed": true,
          "internalType": "address",
          "name": "sender",
          "type": "address"
        }
      ],
      "name": "RoleGranted",
      "type": "event"
    },
    {
      "anonymous": false,
      "inputs": [
        {
          "indexed": true,
          "internalType": "bytes32",
          "name": "role",
          "type": "bytes32"
        },
        {
          "indexed": true,
          "internalType": "address",
          "name": "account",
          "type": "address"
        },
        {
          "indexed": true,
          "internalType": "address",
          "name": "sender",
          "type": "address"
        }
      ],
      "name": "RoleRevoked",
      "type": "event"
    },
    {
      "inputs": [],
      "name": "DEFAULT_ADMIN_ROLE",
      "outputs": [
        {
          "internalType": "bytes32",
          "name": "",
          "type": "bytes32"
        }
      ],
      "stateMutability": "view",
      "type": "function"
    },
    {
      "inputs": [],
      "name": "EXECUTOR_ROLE",
      "outputs": [
        {
          "internalType": "bytes32",
          "name": "",
          "type": "bytes32"
        }
      ],
      "stateMutability": "view",
      "type": "function"
    },
    {
      "inputs": [
        {
          "internalType": "address",
          "name": "winner",
          "type": "address"
        },
        {
          "internalType": "uint256",
          "name": "winnerOpal",
          "type": "uint256"
        },
        {
          "internalType": "uint256",
          "name": "winnerCharacterTokenId",
          "type": "uint256"
        },
        {
          "internalType": "address",
          "name": "loser",
          "type": "address"
        },
        {
          "internalType": "uint256",
          "name": "loserOpal",
          "type": "uint256"
        },
        {
          "internalType": "uint256",
          "name": "loserCharacterTokenId",
          "type": "uint256"
        }
      ],
      "name": "executeRun",
      "outputs": [],
      "stateMutability": "nonpayable",
      "type": "function"
    },
    {
      "inputs": [
        {
          "internalType": "bytes32",
          "name": "role",
          "type": "bytes32"
        }
      ],
      "name": "getRoleAdmin",
      "outputs": [
        {
          "internalType": "bytes32",
          "name": "",
          "type": "bytes32"
        }
      ],
      "stateMutability": "view",
      "type": "function"
    },
    {
      "inputs": [
        {
          "internalType": "bytes32",
          "name": "role",
          "type": "bytes32"
        },
        {
          "internalType": "address",
          "name": "account",
          "type": "address"
        }
      ],
      "name": "grantRole",
      "outputs": [],
      "stateMutability": "nonpayable",
      "type": "function"
    },
    {
      "inputs": [
        {
          "internalType": "bytes32",
          "name": "role",
          "type": "bytes32"
        },
        {
          "internalType": "address",
          "name": "account",
          "type": "address"
        }
      ],
      "name": "hasRole",
      "outputs": [
        {
          "internalType": "bool",
          "name": "",
          "type": "bool"
        }
      ],
      "stateMutability": "view",
      "type": "function"
    },
    {
      "inputs": [
        {
          "internalType": "address",
          "name": "metarunCollectionAddress",
          "type": "address"
        }
      ],
      "name": "initialize",
      "outputs": [],
      "stateMutability": "nonpayable",
      "type": "function"
    },
    {
      "inputs": [],
      "name": "metarunCollection",
      "outputs": [
        {
          "internalType": "contract MetarunCollection",
          "name": "",
          "type": "address"
        }
      ],
      "stateMutability": "view",
      "type": "function"
    },
    {
      "inputs": [
        {
          "internalType": "bytes32",
          "name": "role",
          "type": "bytes32"
        },
        {
          "internalType": "address",
          "name": "account",
          "type": "address"
        }
      ],
      "name": "renounceRole",
      "outputs": [],
      "stateMutability": "nonpayable",
      "type": "function"
    },
    {
      "inputs": [
        {
          "internalType": "bytes32",
          "name": "role",
          "type": "bytes32"
        },
        {
          "internalType": "address",
          "name": "account",
          "type": "address"
        }
      ],
      "name": "revokeRole",
      "outputs": [],
      "stateMutability": "nonpayable",
      "type": "function"
    },
    {
      "inputs": [
        {
          "internalType": "bytes4",
          "name": "interfaceId",
          "type": "bytes4"
        }
      ],
      "name": "supportsInterface",
      "outputs": [
        {
          "internalType": "bool",
          "name": "",
          "type": "bool"
        }
      ],
      "stateMutability": "view",
      "type": "function"
    }
  ],
  "transactionHash": "0x6397f1e7aa532b9606239cc1b12d63fdec1307e07bd016693248bcef07d29d6a",
  "args": [],
  "numDeployments": 2,
  "solcInputHash": "f3be58a6711a87d3736f25e90a50a83c",
  "bytecode": "0x608060405234801561001057600080fd5b506124e2806100206000396000f3fe608060405234801561001057600080fd5b50600436106100a95760003560e01c806391d148541161007157806391d1485414610164578063a217fddf14610194578063c4d66de8146101b2578063c9c4caa4146101ce578063d547741f146101ec578063f37aa19d14610208576100a9565b806301ffc9a7146100ae57806307bd0265146100de578063248a9ca3146100fc5780632f2ff15d1461012c57806336568abe14610148575b600080fd5b6100c860048036038101906100c39190611549565b610224565b6040516100d59190611591565b60405180910390f35b6100e661029e565b6040516100f391906115c5565b60405180910390f35b6101166004803603810190610111919061160c565b6102c2565b60405161012391906115c5565b60405180910390f35b61014660048036038101906101419190611697565b6102e2565b005b610162600480360381019061015d9190611697565b61030b565b005b61017e60048036038101906101799190611697565b61038e565b60405161018b9190611591565b60405180910390f35b61019c6103f9565b6040516101a991906115c5565b60405180910390f35b6101cc60048036038101906101c791906116d7565b610400565b005b6101d6610573565b6040516101e39190611763565b60405180910390f35b61020660048036038101906102019190611697565b610599565b005b610222600480360381019061021d91906117b4565b6105c2565b005b60007f7965db0b000000000000000000000000000000000000000000000000000000007bffffffffffffffffffffffffffffffffffffffffffffffffffffffff1916827bffffffffffffffffffffffffffffffffffffffffffffffffffffffff19161480610297575061029682610f41565b5b9050919050565b7fd8aa0f3194971a2a116679f7c2090f6939c8d4e01a2a8d7e41d55e5351469e6381565b600060656000838152602001908152602001600020600101549050919050565b6102eb826102c2565b6102fc816102f7610fab565b610fb3565b6103068383611050565b505050565b610313610fab565b73ffffffffffffffffffffffffffffffffffffffff168173ffffffffffffffffffffffffffffffffffffffff1614610380576040517f08c379a0000000000000000000000000000000000000000000000000000000008152600401610377906118c4565b60405180910390fd5b61038a8282611131565b5050565b60006065600084815260200190815260200160002060000160008373ffffffffffffffffffffffffffffffffffffffff1673ffffffffffffffffffffffffffffffffffffffff16815260200190815260200160002060009054906101000a900460ff16905092915050565b6000801b81565b600060019054906101000a900460ff166104285760008054906101000a900460ff1615610431565b610430611213565b5b610470576040517f08c379a000000000000000000000000000000000000000000000000000000000815260040161046790611956565b60405180910390fd5b60008060019054906101000a900460ff1615905080156104c0576001600060016101000a81548160ff02191690831515021790555060016000806101000a81548160ff0219169083151502179055505b6104c8611224565b81609760006101000a81548173ffffffffffffffffffffffffffffffffffffffff021916908373ffffffffffffffffffffffffffffffffffffffff16021790555061051d6000801b610518610fab565b611275565b61054e7fd8aa0f3194971a2a116679f7c2090f6939c8d4e01a2a8d7e41d55e5351469e63610549610fab565b611050565b801561056f5760008060016101000a81548160ff0219169083151502179055505b5050565b609760009054906101000a900473ffffffffffffffffffffffffffffffffffffffff1681565b6105a2826102c2565b6105b3816105ae610fab565b610fb3565b6105bd8383611131565b505050565b6105f37fd8aa0f3194971a2a116679f7c2090f6939c8d4e01a2a8d7e41d55e5351469e636105ee610fab565b61038e565b610632576040517f08c379a0000000000000000000000000000000000000000000000000000000008152600401610629906119e8565b60405180910390fd5b600073ffffffffffffffffffffffffffffffffffffffff168673ffffffffffffffffffffffffffffffffffffffff1614610ad057600085116106a9576040517f08c379a00000000000000000000000000000000000000000000000000000000081526004016106a090611a7a565b60405180910390fd5b609760009054906101000a900473ffffffffffffffffffffffffffffffffffffffff1673ffffffffffffffffffffffffffffffffffffffff16632f85a827856040518263ffffffff1660e01b81526004016107049190611aa9565b602060405180830381865afa158015610721573d6000803e3d6000fd5b505050506040513d601f19601f820116820180604052508101906107459190611af0565b610784576040517f08c379a000000000000000000000000000000000000000000000000000000000815260040161077b90611b8f565b60405180910390fd5b6001609760009054906101000a900473ffffffffffffffffffffffffffffffffffffffff1673ffffffffffffffffffffffffffffffffffffffff1662fdd58e88876040518363ffffffff1660e01b81526004016107e2929190611bbe565b602060405180830381865afa1580156107ff573d6000803e3d6000fd5b505050506040513d601f19601f820116820180604052508101906108239190611bfc565b14610863576040517f08c379a000000000000000000000000000000000000000000000000000000000815260040161085a90611c9b565b60405180910390fd5b609760009054906101000a900473ffffffffffffffffffffffffffffffffffffffff1673ffffffffffffffffffffffffffffffffffffffff1663156e29f687609760009054906101000a900473ffffffffffffffffffffffffffffffffffffffff1673ffffffffffffffffffffffffffffffffffffffff16639177595e6040518163ffffffff1660e01b8152600401602060405180830381865afa15801561090f573d6000803e3d6000fd5b505050506040513d601f19601f820116820180604052508101906109339190611bfc565b886040518463ffffffff1660e01b815260040161095293929190611cbb565b600060405180830381600087803b15801561096c57600080fd5b505af1158015610980573d6000803e3d6000fd5b505050506000609760009054906101000a900473ffffffffffffffffffffffffffffffffffffffff1673ffffffffffffffffffffffffffffffffffffffff1663ca16487b866040518263ffffffff1660e01b81526004016109e19190611aa9565b61014060405180830381865afa1580156109ff573d6000803e3d6000fd5b505050506040513d601f19601f82011682018060405250810190610a239190611e79565b9050600181602001818151610a389190611ed6565b91508181525050609760009054906101000a900473ffffffffffffffffffffffffffffffffffffffff1673ffffffffffffffffffffffffffffffffffffffff166377041f1886836040518363ffffffff1660e01b8152600401610a9c929190612007565b600060405180830381600087803b158015610ab657600080fd5b505af1158015610aca573d6000803e3d6000fd5b50505050505b600073ffffffffffffffffffffffffffffffffffffffff168373ffffffffffffffffffffffffffffffffffffffff1614158015610b0d5750600082115b15610f3957609760009054906101000a900473ffffffffffffffffffffffffffffffffffffffff1673ffffffffffffffffffffffffffffffffffffffff16632f85a827826040518263ffffffff1660e01b8152600401610b6d9190611aa9565b602060405180830381865afa158015610b8a573d6000803e3d6000fd5b505050506040513d601f19601f82011682018060405250810190610bae9190611af0565b610bed576040517f08c379a0000000000000000000000000000000000000000000000000000000008152600401610be4906120a3565b60405180910390fd5b6001609760009054906101000a900473ffffffffffffffffffffffffffffffffffffffff1673ffffffffffffffffffffffffffffffffffffffff1662fdd58e85846040518363ffffffff1660e01b8152600401610c4b929190611bbe565b602060405180830381865afa158015610c68573d6000803e3d6000fd5b505050506040513d601f19601f82011682018060405250810190610c8c9190611bfc565b14610ccc576040517f08c379a0000000000000000000000000000000000000000000000000000000008152600401610cc390612135565b60405180910390fd5b609760009054906101000a900473ffffffffffffffffffffffffffffffffffffffff1673ffffffffffffffffffffffffffffffffffffffff1663156e29f684609760009054906101000a900473ffffffffffffffffffffffffffffffffffffffff1673ffffffffffffffffffffffffffffffffffffffff16639177595e6040518163ffffffff1660e01b8152600401602060405180830381865afa158015610d78573d6000803e3d6000fd5b505050506040513d601f19601f82011682018060405250810190610d9c9190611bfc565b856040518463ffffffff1660e01b8152600401610dbb93929190611cbb565b600060405180830381600087803b158015610dd557600080fd5b505af1158015610de9573d6000803e3d6000fd5b505050506000609760009054906101000a900473ffffffffffffffffffffffffffffffffffffffff1673ffffffffffffffffffffffffffffffffffffffff1663ca16487b836040518263ffffffff1660e01b8152600401610e4a9190611aa9565b61014060405180830381865afa158015610e68573d6000803e3d6000fd5b505050506040513d601f19601f82011682018060405250810190610e8c9190611e79565b9050600181602001818151610ea19190611ed6565b91508181525050609760009054906101000a900473ffffffffffffffffffffffffffffffffffffffff1673ffffffffffffffffffffffffffffffffffffffff166377041f1883836040518363ffffffff1660e01b8152600401610f05929190612007565b600060405180830381600087803b158015610f1f57600080fd5b505af1158015610f33573d6000803e3d6000fd5b50505050505b505050505050565b60007f01ffc9a7000000000000000000000000000000000000000000000000000000007bffffffffffffffffffffffffffffffffffffffffffffffffffffffff1916827bffffffffffffffffffffffffffffffffffffffffffffffffffffffff1916149050919050565b600033905090565b610fbd828261038e565b61104c57610fe28173ffffffffffffffffffffffffffffffffffffffff166014611283565b610ff08360001c6020611283565b604051602001611001929190612267565b6040516020818303038152906040526040517f08c379a000000000000000000000000000000000000000000000000000000000815260040161104391906122da565b60405180910390fd5b5050565b61105a828261038e565b61112d5760016065600084815260200190815260200160002060000160008373ffffffffffffffffffffffffffffffffffffffff1673ffffffffffffffffffffffffffffffffffffffff16815260200190815260200160002060006101000a81548160ff0219169083151502179055506110d2610fab565b73ffffffffffffffffffffffffffffffffffffffff168173ffffffffffffffffffffffffffffffffffffffff16837f2f8788117e7eff1d82e926ec794901d17c78024a50270940304540a733656f0d60405160405180910390a45b5050565b61113b828261038e565b1561120f5760006065600084815260200190815260200160002060000160008373ffffffffffffffffffffffffffffffffffffffff1673ffffffffffffffffffffffffffffffffffffffff16815260200190815260200160002060006101000a81548160ff0219169083151502179055506111b4610fab565b73ffffffffffffffffffffffffffffffffffffffff168173ffffffffffffffffffffffffffffffffffffffff16837ff6391f5c32d9c69d2a47ea670b442974b53935d1edc7fd64eb21e047a839171b60405160405180910390a45b5050565b600061121e306114bf565b15905090565b600060019054906101000a900460ff16611273576040517f08c379a000000000000000000000000000000000000000000000000000000000815260040161126a9061236e565b60405180910390fd5b565b61127f8282611050565b5050565b606060006002836002611296919061238e565b6112a09190611ed6565b67ffffffffffffffff8111156112b9576112b8611d08565b5b6040519080825280601f01601f1916602001820160405280156112eb5781602001600182028036833780820191505090505b5090507f300000000000000000000000000000000000000000000000000000000000000081600081518110611323576113226123e8565b5b60200101907effffffffffffffffffffffffffffffffffffffffffffffffffffffffffffff1916908160001a9053507f780000000000000000000000000000000000000000000000000000000000000081600181518110611387576113866123e8565b5b60200101907effffffffffffffffffffffffffffffffffffffffffffffffffffffffffffff1916908160001a905350600060018460026113c7919061238e565b6113d19190611ed6565b90505b6001811115611471577f3031323334353637383961626364656600000000000000000000000000000000600f861660108110611413576114126123e8565b5b1a60f81b82828151811061142a576114296123e8565b5b60200101907effffffffffffffffffffffffffffffffffffffffffffffffffffffffffffff1916908160001a905350600485901c94508061146a90612417565b90506113d4565b50600084146114b5576040517f08c379a00000000000000000000000000000000000000000000000000000000081526004016114ac9061248c565b60405180910390fd5b8091505092915050565b6000808273ffffffffffffffffffffffffffffffffffffffff163b119050919050565b6000604051905090565b600080fd5b60007fffffffff0000000000000000000000000000000000000000000000000000000082169050919050565b611526816114f1565b811461153157600080fd5b50565b6000813590506115438161151d565b92915050565b60006020828403121561155f5761155e6114ec565b5b600061156d84828501611534565b91505092915050565b60008115159050919050565b61158b81611576565b82525050565b60006020820190506115a66000830184611582565b92915050565b6000819050919050565b6115bf816115ac565b82525050565b60006020820190506115da60008301846115b6565b92915050565b6115e9816115ac565b81146115f457600080fd5b50565b600081359050611606816115e0565b92915050565b600060208284031215611622576116216114ec565b5b6000611630848285016115f7565b91505092915050565b600073ffffffffffffffffffffffffffffffffffffffff82169050919050565b600061166482611639565b9050919050565b61167481611659565b811461167f57600080fd5b50565b6000813590506116918161166b565b92915050565b600080604083850312156116ae576116ad6114ec565b5b60006116bc858286016115f7565b92505060206116cd85828601611682565b9150509250929050565b6000602082840312156116ed576116ec6114ec565b5b60006116fb84828501611682565b91505092915050565b6000819050919050565b600061172961172461171f84611639565b611704565b611639565b9050919050565b600061173b8261170e565b9050919050565b600061174d82611730565b9050919050565b61175d81611742565b82525050565b60006020820190506117786000830184611754565b92915050565b6000819050919050565b6117918161177e565b811461179c57600080fd5b50565b6000813590506117ae81611788565b92915050565b60008060008060008060c087890312156117d1576117d06114ec565b5b60006117df89828a01611682565b96505060206117f089828a0161179f565b955050604061180189828a0161179f565b945050606061181289828a01611682565b935050608061182389828a0161179f565b92505060a061183489828a0161179f565b9150509295509295509295565b600082825260208201905092915050565b7f416363657373436f6e74726f6c3a2063616e206f6e6c792072656e6f756e636560008201527f20726f6c657320666f722073656c660000000000000000000000000000000000602082015250565b60006118ae602f83611841565b91506118b982611852565b604082019050919050565b600060208201905081810360008301526118dd816118a1565b9050919050565b7f496e697469616c697a61626c653a20636f6e747261637420697320616c72656160008201527f647920696e697469616c697a6564000000000000000000000000000000000000602082015250565b6000611940602e83611841565b915061194b826118e4565b604082019050919050565b6000602082019050818103600083015261196f81611933565b9050919050565b7f52756e4578656375746f723a2074782073656e6465722073686f756c6420686160008201527f7665204558454355544f525f524f4c4500000000000000000000000000000000602082015250565b60006119d2603083611841565b91506119dd82611976565b604082019050919050565b60006020820190508181036000830152611a01816119c5565b9050919050565b7f52756e4578656375746f723a2077696e6e65722773206f70616c20746f20626560008201527f206d696e7465642073686f756c6420626520646566696e656400000000000000602082015250565b6000611a64603983611841565b9150611a6f82611a08565b604082019050919050565b60006020820190508181036000830152611a9381611a57565b9050919050565b611aa38161177e565b82525050565b6000602082019050611abe6000830184611a9a565b92915050565b611acd81611576565b8114611ad857600080fd5b50565b600081519050611aea81611ac4565b92915050565b600060208284031215611b0657611b056114ec565b5b6000611b1484828501611adb565b91505092915050565b7f52756e4578656375746f723a2077696e6e6572277320746f6b656e206964207360008201527f686f756c6420626520636861726163746572206f72207469636b657400000000602082015250565b6000611b79603c83611841565b9150611b8482611b1d565b604082019050919050565b60006020820190508181036000830152611ba881611b6c565b9050919050565b611bb881611659565b82525050565b6000604082019050611bd36000830185611baf565b611be06020830184611a9a565b9392505050565b600081519050611bf681611788565b92915050565b600060208284031215611c1257611c116114ec565b5b6000611c2084828501611be7565b91505092915050565b7f52756e4578656375746f723a2077696e6e65722073686f756c64206f776e207760008201527f696e6e6572206368617261637465720000000000000000000000000000000000602082015250565b6000611c85602f83611841565b9150611c9082611c29565b604082019050919050565b60006020820190508181036000830152611cb481611c78565b9050919050565b6000606082019050611cd06000830186611baf565b611cdd6020830185611a9a565b611cea6040830184611a9a565b949350505050565b600080fd5b6000601f19601f8301169050919050565b7f4e487b7100000000000000000000000000000000000000000000000000000000600052604160045260246000fd5b611d4082611cf7565b810181811067ffffffffffffffff82111715611d5f57611d5e611d08565b5b80604052505050565b6000611d726114e2565b9050611d7e8282611d37565b919050565b60006101408284031215611d9a57611d99611cf2565b5b611da5610140611d68565b90506000611db584828501611be7565b6000830152506020611dc984828501611be7565b6020830152506040611ddd84828501611be7565b6040830152506060611df184828501611be7565b6060830152506080611e0584828501611be7565b60808301525060a0611e1984828501611be7565b60a08301525060c0611e2d84828501611be7565b60c08301525060e0611e4184828501611be7565b60e083015250610100611e5684828501611be7565b61010083015250610120611e6c84828501611be7565b6101208301525092915050565b60006101408284031215611e9057611e8f6114ec565b5b6000611e9e84828501611d83565b91505092915050565b7f4e487b7100000000000000000000000000000000000000000000000000000000600052601160045260246000fd5b6000611ee18261177e565b9150611eec8361177e565b9250827fffffffffffffffffffffffffffffffffffffffffffffffffffffffffffffffff03821115611f2157611f20611ea7565b5b828201905092915050565b611f358161177e565b82525050565b61014082016000820151611f526000850182611f2c565b506020820151611f656020850182611f2c565b506040820151611f786040850182611f2c565b506060820151611f8b6060850182611f2c565b506080820151611f9e6080850182611f2c565b5060a0820151611fb160a0850182611f2c565b5060c0820151611fc460c0850182611f2c565b5060e0820151611fd760e0850182611f2c565b50610100820151611fec610100850182611f2c565b50610120820151612001610120850182611f2c565b50505050565b60006101608201905061201d6000830185611a9a565b61202a6020830184611f3b565b9392505050565b7f52756e4578656375746f723a206c6f736572277320746f6b656e20696420736860008201527f6f756c6420626520636861726163746572206f72207469636b65740000000000602082015250565b600061208d603b83611841565b915061209882612031565b604082019050919050565b600060208201905081810360008301526120bc81612080565b9050919050565b7f52756e4578656375746f723a206c6f7365722073686f756c64206f776e206c6f60008201527f7365722063686172616374657200000000000000000000000000000000000000602082015250565b600061211f602d83611841565b915061212a826120c3565b604082019050919050565b6000602082019050818103600083015261214e81612112565b9050919050565b600081905092915050565b7f416363657373436f6e74726f6c3a206163636f756e7420000000000000000000600082015250565b6000612196601783612155565b91506121a182612160565b601782019050919050565b600081519050919050565b60005b838110156121d55780820151818401526020810190506121ba565b838111156121e4576000848401525b50505050565b60006121f5826121ac565b6121ff8185612155565b935061220f8185602086016121b7565b80840191505092915050565b7f206973206d697373696e6720726f6c6520000000000000000000000000000000600082015250565b6000612251601183612155565b915061225c8261221b565b601182019050919050565b600061227282612189565b915061227e82856121ea565b915061228982612244565b915061229582846121ea565b91508190509392505050565b60006122ac826121ac565b6122b68185611841565b93506122c68185602086016121b7565b6122cf81611cf7565b840191505092915050565b600060208201905081810360008301526122f481846122a1565b905092915050565b7f496e697469616c697a61626c653a20636f6e7472616374206973206e6f74206960008201527f6e697469616c697a696e67000000000000000000000000000000000000000000602082015250565b6000612358602b83611841565b9150612363826122fc565b604082019050919050565b600060208201905081810360008301526123878161234b565b9050919050565b60006123998261177e565b91506123a48361177e565b9250817fffffffffffffffffffffffffffffffffffffffffffffffffffffffffffffffff04831182151516156123dd576123dc611ea7565b5b828202905092915050565b7f4e487b7100000000000000000000000000000000000000000000000000000000600052603260045260246000fd5b60006124228261177e565b91506000820361243557612434611ea7565b5b600182039050919050565b7f537472696e67733a20686578206c656e67746820696e73756666696369656e74600082015250565b6000612476602083611841565b915061248182612440565b602082019050919050565b600060208201905081810360008301526124a581612469565b905091905056fea26469706673582212203a0394535570f3637b72bc9514d1c744104e8e2d585af64dd82526177638706c64736f6c634300080d0033",
  "devdoc": {
    "kind": "dev",
    "methods": {
      "getRoleAdmin(bytes32)": {
        "details": "Returns the admin role that controls `role`. See {grantRole} and {revokeRole}. To change a role's admin, use {_setRoleAdmin}."
      },
      "grantRole(bytes32,address)": {
        "details": "Grants `role` to `account`. If `account` had not been already granted `role`, emits a {RoleGranted} event. Requirements: - the caller must have ``role``'s admin role."
      },
      "hasRole(bytes32,address)": {
        "details": "Returns `true` if `account` has been granted `role`."
      },
      "renounceRole(bytes32,address)": {
        "details": "Revokes `role` from the calling account. Roles are often managed via {grantRole} and {revokeRole}: this function's purpose is to provide a mechanism for accounts to lose their privileges if they are compromised (such as when a trusted device is misplaced). If the calling account had been revoked `role`, emits a {RoleRevoked} event. Requirements: - the caller must be `account`."
      },
      "revokeRole(bytes32,address)": {
        "details": "Revokes `role` from `account`. If `account` had been granted `role`, emits a {RoleRevoked} event. Requirements: - the caller must have ``role``'s admin role."
      },
      "supportsInterface(bytes4)": {
        "details": "See {IERC165-supportsInterface}."
      }
    },
    "version": 1
  },
  "userdoc": {
    "kind": "user",
    "methods": {},
    "version": 1
  },
  "storageLayout": {
    "storage": [
      {
        "astId": 408,
        "contract": "contracts/RunExecutor.sol:RunExecutor",
        "label": "_initialized",
        "offset": 0,
        "slot": "0",
        "type": "t_bool"
      },
      {
        "astId": 411,
        "contract": "contracts/RunExecutor.sol:RunExecutor",
        "label": "_initializing",
        "offset": 1,
        "slot": "0",
        "type": "t_bool"
      },
      {
        "astId": 2422,
        "contract": "contracts/RunExecutor.sol:RunExecutor",
        "label": "__gap",
        "offset": 0,
        "slot": "1",
        "type": "t_array(t_uint256)50_storage"
      },
      {
        "astId": 2669,
        "contract": "contracts/RunExecutor.sol:RunExecutor",
        "label": "__gap",
        "offset": 0,
        "slot": "51",
        "type": "t_array(t_uint256)50_storage"
      },
      {
        "astId": 39,
        "contract": "contracts/RunExecutor.sol:RunExecutor",
        "label": "_roles",
        "offset": 0,
        "slot": "101",
        "type": "t_mapping(t_bytes32,t_struct(RoleData)34_storage)"
      },
      {
        "astId": 327,
        "contract": "contracts/RunExecutor.sol:RunExecutor",
        "label": "__gap",
        "offset": 0,
        "slot": "102",
        "type": "t_array(t_uint256)49_storage"
      },
      {
        "astId": 4221,
        "contract": "contracts/RunExecutor.sol:RunExecutor",
        "label": "metarunCollection",
        "offset": 0,
        "slot": "151",
        "type": "t_contract(MetarunCollection)4209"
      }
    ],
    "types": {
      "t_address": {
        "encoding": "inplace",
        "label": "address",
        "numberOfBytes": "20"
      },
      "t_array(t_uint256)49_storage": {
        "base": "t_uint256",
        "encoding": "inplace",
        "label": "uint256[49]",
        "numberOfBytes": "1568"
      },
      "t_array(t_uint256)50_storage": {
        "base": "t_uint256",
        "encoding": "inplace",
        "label": "uint256[50]",
        "numberOfBytes": "1600"
      },
      "t_bool": {
        "encoding": "inplace",
        "label": "bool",
        "numberOfBytes": "1"
      },
      "t_bytes32": {
        "encoding": "inplace",
        "label": "bytes32",
        "numberOfBytes": "32"
      },
      "t_contract(MetarunCollection)4209": {
        "encoding": "inplace",
        "label": "contract MetarunCollection",
        "numberOfBytes": "20"
      },
      "t_mapping(t_address,t_bool)": {
        "encoding": "mapping",
        "key": "t_address",
        "label": "mapping(address => bool)",
        "numberOfBytes": "32",
        "value": "t_bool"
      },
      "t_mapping(t_bytes32,t_struct(RoleData)34_storage)": {
        "encoding": "mapping",
        "key": "t_bytes32",
        "label": "mapping(bytes32 => struct AccessControlUpgradeable.RoleData)",
        "numberOfBytes": "32",
        "value": "t_struct(RoleData)34_storage"
      },
      "t_struct(RoleData)34_storage": {
        "encoding": "inplace",
        "label": "struct AccessControlUpgradeable.RoleData",
        "members": [
          {
            "astId": 31,
            "contract": "contracts/RunExecutor.sol:RunExecutor",
            "label": "members",
            "offset": 0,
            "slot": "0",
            "type": "t_mapping(t_address,t_bool)"
          },
          {
            "astId": 33,
            "contract": "contracts/RunExecutor.sol:RunExecutor",
            "label": "adminRole",
            "offset": 0,
            "slot": "1",
            "type": "t_bytes32"
          }
        ],
        "numberOfBytes": "64"
      },
      "t_uint256": {
        "encoding": "inplace",
        "label": "uint256",
        "numberOfBytes": "32"
      }
    }
  }
}