{
  "address": "0xc68613D54c8a2508decBfa36d53Fe6DF0cB2dca3",
  "abi": [
    {
      "anonymous": false,
      "inputs": [
        {
          "indexed": true,
          "internalType": "bytes32",
          "name": "role",
          "type": "bytes32"
        },
        {
          "indexed": true,
          "internalType": "bytes32",
          "name": "previousAdminRole",
          "type": "bytes32"
        },
        {
          "indexed": true,
          "internalType": "bytes32",
          "name": "newAdminRole",
          "type": "bytes32"
        }
      ],
      "name": "RoleAdminChanged",
      "type": "event"
    },
    {
      "anonymous": false,
      "inputs": [
        {
          "indexed": true,
          "internalType": "bytes32",
          "name": "role",
          "type": "bytes32"
        },
        {
          "indexed": true,
          "internalType": "address",
          "name": "account",
          "type": "address"
        },
        {
          "indexed": true,
          "internalType": "address",
          "name": "sender",
          "type": "address"
        }
      ],
      "name": "RoleGranted",
      "type": "event"
    },
    {
      "anonymous": false,
      "inputs": [
        {
          "indexed": true,
          "internalType": "bytes32",
          "name": "role",
          "type": "bytes32"
        },
        {
          "indexed": true,
          "internalType": "address",
          "name": "account",
          "type": "address"
        },
        {
          "indexed": true,
          "internalType": "address",
          "name": "sender",
          "type": "address"
        }
      ],
      "name": "RoleRevoked",
      "type": "event"
    },
    {
      "inputs": [],
      "name": "DEFAULT_ADMIN_ROLE",
      "outputs": [
        {
          "internalType": "bytes32",
          "name": "",
          "type": "bytes32"
        }
      ],
      "stateMutability": "view",
      "type": "function"
    },
    {
      "inputs": [],
      "name": "EXECUTOR_ROLE",
      "outputs": [
        {
          "internalType": "bytes32",
          "name": "",
          "type": "bytes32"
        }
      ],
      "stateMutability": "view",
      "type": "function"
    },
    {
      "inputs": [
        {
          "internalType": "address",
          "name": "winner",
          "type": "address"
        },
        {
          "internalType": "uint256",
          "name": "winnerOpal",
          "type": "uint256"
        },
        {
          "internalType": "uint256",
          "name": "winnerCharacterTokenId",
          "type": "uint256"
        },
        {
          "internalType": "address",
          "name": "loser",
          "type": "address"
        },
        {
          "internalType": "uint256",
          "name": "loserOpal",
          "type": "uint256"
        },
        {
          "internalType": "uint256",
          "name": "loserCharacterTokenId",
          "type": "uint256"
        }
      ],
      "name": "executeRun",
      "outputs": [],
      "stateMutability": "nonpayable",
      "type": "function"
    },
    {
      "inputs": [
        {
          "internalType": "bytes32",
          "name": "role",
          "type": "bytes32"
        }
      ],
      "name": "getRoleAdmin",
      "outputs": [
        {
          "internalType": "bytes32",
          "name": "",
          "type": "bytes32"
        }
      ],
      "stateMutability": "view",
      "type": "function"
    },
    {
      "inputs": [
        {
          "internalType": "bytes32",
          "name": "role",
          "type": "bytes32"
        },
        {
          "internalType": "address",
          "name": "account",
          "type": "address"
        }
      ],
      "name": "grantRole",
      "outputs": [],
      "stateMutability": "nonpayable",
      "type": "function"
    },
    {
      "inputs": [
        {
          "internalType": "bytes32",
          "name": "role",
          "type": "bytes32"
        },
        {
          "internalType": "address",
          "name": "account",
          "type": "address"
        }
      ],
      "name": "hasRole",
      "outputs": [
        {
          "internalType": "bool",
          "name": "",
          "type": "bool"
        }
      ],
      "stateMutability": "view",
      "type": "function"
    },
    {
      "inputs": [
        {
          "internalType": "address",
          "name": "metarunCollectionAddress",
          "type": "address"
        }
      ],
      "name": "initialize",
      "outputs": [],
      "stateMutability": "nonpayable",
      "type": "function"
    },
    {
      "inputs": [],
      "name": "metarunCollection",
      "outputs": [
        {
          "internalType": "contract MetarunCollection",
          "name": "",
          "type": "address"
        }
      ],
      "stateMutability": "view",
      "type": "function"
    },
    {
      "inputs": [
        {
          "internalType": "bytes32",
          "name": "role",
          "type": "bytes32"
        },
        {
          "internalType": "address",
          "name": "account",
          "type": "address"
        }
      ],
      "name": "renounceRole",
      "outputs": [],
      "stateMutability": "nonpayable",
      "type": "function"
    },
    {
      "inputs": [
        {
          "internalType": "bytes32",
          "name": "role",
          "type": "bytes32"
        },
        {
          "internalType": "address",
          "name": "account",
          "type": "address"
        }
      ],
      "name": "revokeRole",
      "outputs": [],
      "stateMutability": "nonpayable",
      "type": "function"
    },
    {
      "inputs": [
        {
          "internalType": "bytes4",
          "name": "interfaceId",
          "type": "bytes4"
        }
      ],
      "name": "supportsInterface",
      "outputs": [
        {
          "internalType": "bool",
          "name": "",
          "type": "bool"
        }
      ],
      "stateMutability": "view",
      "type": "function"
    }
  ],
  "transactionHash": "0x1ce58b000c749bcd1b85a94d224222db52de12279c5494819fab480f44e75f79",
  "args": [],
  "numDeployments": 1,
  "solcInputHash": "124740a858cfb98f2923066375cd591c",
  "bytecode": "0x608060405234801561001057600080fd5b5061250f806100206000396000f3fe608060405234801561001057600080fd5b50600436106100a95760003560e01c806391d148541161007157806391d1485414610164578063a217fddf14610194578063c4d66de8146101b2578063c9c4caa4146101ce578063d547741f146101ec578063f37aa19d14610208576100a9565b806301ffc9a7146100ae57806307bd0265146100de578063248a9ca3146100fc5780632f2ff15d1461012c57806336568abe14610148575b600080fd5b6100c860048036038101906100c39190611576565b610224565b6040516100d591906115be565b60405180910390f35b6100e661029e565b6040516100f391906115f2565b60405180910390f35b61011660048036038101906101119190611639565b6102c2565b60405161012391906115f2565b60405180910390f35b610146600480360381019061014191906116c4565b6102e2565b005b610162600480360381019061015d91906116c4565b61030b565b005b61017e600480360381019061017991906116c4565b61038e565b60405161018b91906115be565b60405180910390f35b61019c6103f9565b6040516101a991906115f2565b60405180910390f35b6101cc60048036038101906101c79190611704565b610400565b005b6101d6610573565b6040516101e39190611790565b60405180910390f35b610206600480360381019061020191906116c4565b610599565b005b610222600480360381019061021d91906117e1565b6105c2565b005b60007f7965db0b000000000000000000000000000000000000000000000000000000007bffffffffffffffffffffffffffffffffffffffffffffffffffffffff1916827bffffffffffffffffffffffffffffffffffffffffffffffffffffffff19161480610297575061029682610e1b565b5b9050919050565b7fd8aa0f3194971a2a116679f7c2090f6939c8d4e01a2a8d7e41d55e5351469e6381565b600060656000838152602001908152602001600020600101549050919050565b6102eb826102c2565b6102fc816102f7610e85565b610e8d565b6103068383610f2a565b505050565b610313610e85565b73ffffffffffffffffffffffffffffffffffffffff168173ffffffffffffffffffffffffffffffffffffffff1614610380576040517f08c379a0000000000000000000000000000000000000000000000000000000008152600401610377906118f1565b60405180910390fd5b61038a828261100b565b5050565b60006065600084815260200190815260200160002060000160008373ffffffffffffffffffffffffffffffffffffffff1673ffffffffffffffffffffffffffffffffffffffff16815260200190815260200160002060009054906101000a900460ff16905092915050565b6000801b81565b600060019054906101000a900460ff166104285760008054906101000a900460ff1615610431565b6104306110ed565b5b610470576040517f08c379a000000000000000000000000000000000000000000000000000000000815260040161046790611983565b60405180910390fd5b60008060019054906101000a900460ff1615905080156104c0576001600060016101000a81548160ff02191690831515021790555060016000806101000a81548160ff0219169083151502179055505b6104c86110fe565b81609760006101000a81548173ffffffffffffffffffffffffffffffffffffffff021916908373ffffffffffffffffffffffffffffffffffffffff16021790555061051d6000801b610518610e85565b61114f565b61054e7fd8aa0f3194971a2a116679f7c2090f6939c8d4e01a2a8d7e41d55e5351469e63610549610e85565b610f2a565b801561056f5760008060016101000a81548160ff0219169083151502179055505b5050565b609760009054906101000a900473ffffffffffffffffffffffffffffffffffffffff1681565b6105a2826102c2565b6105b3816105ae610e85565b610e8d565b6105bd838361100b565b505050565b6105f37fd8aa0f3194971a2a116679f7c2090f6939c8d4e01a2a8d7e41d55e5351469e636105ee610e85565b61038e565b610632576040517f08c379a000000000000000000000000000000000000000000000000000000000815260040161062990611a15565b60405180910390fd5b600073ffffffffffffffffffffffffffffffffffffffff168673ffffffffffffffffffffffffffffffffffffffff1614610a3d57600085116106a9576040517f08c379a00000000000000000000000000000000000000000000000000000000081526004016106a090611aa7565b60405180910390fd5b6106b28461115d565b6106f1576040517f08c379a00000000000000000000000000000000000000000000000000000000081526004016106e890611b39565b60405180910390fd5b6001609760009054906101000a900473ffffffffffffffffffffffffffffffffffffffff1673ffffffffffffffffffffffffffffffffffffffff1662fdd58e88876040518363ffffffff1660e01b815260040161074f929190611b77565b602060405180830381865afa15801561076c573d6000803e3d6000fd5b505050506040513d601f19601f820116820180604052508101906107909190611bb5565b146107d0576040517f08c379a00000000000000000000000000000000000000000000000000000000081526004016107c790611c54565b60405180910390fd5b609760009054906101000a900473ffffffffffffffffffffffffffffffffffffffff1673ffffffffffffffffffffffffffffffffffffffff1663156e29f687609760009054906101000a900473ffffffffffffffffffffffffffffffffffffffff1673ffffffffffffffffffffffffffffffffffffffff16639177595e6040518163ffffffff1660e01b8152600401602060405180830381865afa15801561087c573d6000803e3d6000fd5b505050506040513d601f19601f820116820180604052508101906108a09190611bb5565b886040518463ffffffff1660e01b81526004016108bf93929190611c74565b600060405180830381600087803b1580156108d957600080fd5b505af11580156108ed573d6000803e3d6000fd5b505050506000609760009054906101000a900473ffffffffffffffffffffffffffffffffffffffff1673ffffffffffffffffffffffffffffffffffffffff1663ca16487b866040518263ffffffff1660e01b815260040161094e9190611cab565b61014060405180830381865afa15801561096c573d6000803e3d6000fd5b505050506040513d601f19601f820116820180604052508101906109909190611e4d565b90506001816020018181516109a59190611eaa565b91508181525050609760009054906101000a900473ffffffffffffffffffffffffffffffffffffffff1673ffffffffffffffffffffffffffffffffffffffff166377041f1886836040518363ffffffff1660e01b8152600401610a09929190611fdb565b600060405180830381600087803b158015610a2357600080fd5b505af1158015610a37573d6000803e3d6000fd5b50505050505b600073ffffffffffffffffffffffffffffffffffffffff168373ffffffffffffffffffffffffffffffffffffffff1614158015610a7a5750600082115b15610e1357610a888161115d565b610ac7576040517f08c379a0000000000000000000000000000000000000000000000000000000008152600401610abe90612077565b60405180910390fd5b6001609760009054906101000a900473ffffffffffffffffffffffffffffffffffffffff1673ffffffffffffffffffffffffffffffffffffffff1662fdd58e85846040518363ffffffff1660e01b8152600401610b25929190611b77565b602060405180830381865afa158015610b42573d6000803e3d6000fd5b505050506040513d601f19601f82011682018060405250810190610b669190611bb5565b14610ba6576040517f08c379a0000000000000000000000000000000000000000000000000000000008152600401610b9d90612109565b60405180910390fd5b609760009054906101000a900473ffffffffffffffffffffffffffffffffffffffff1673ffffffffffffffffffffffffffffffffffffffff1663156e29f684609760009054906101000a900473ffffffffffffffffffffffffffffffffffffffff1673ffffffffffffffffffffffffffffffffffffffff16639177595e6040518163ffffffff1660e01b8152600401602060405180830381865afa158015610c52573d6000803e3d6000fd5b505050506040513d601f19601f82011682018060405250810190610c769190611bb5565b856040518463ffffffff1660e01b8152600401610c9593929190611c74565b600060405180830381600087803b158015610caf57600080fd5b505af1158015610cc3573d6000803e3d6000fd5b505050506000609760009054906101000a900473ffffffffffffffffffffffffffffffffffffffff1673ffffffffffffffffffffffffffffffffffffffff1663ca16487b836040518263ffffffff1660e01b8152600401610d249190611cab565b61014060405180830381865afa158015610d42573d6000803e3d6000fd5b505050506040513d601f19601f82011682018060405250810190610d669190611e4d565b9050600181602001818151610d7b9190611eaa565b91508181525050609760009054906101000a900473ffffffffffffffffffffffffffffffffffffffff1673ffffffffffffffffffffffffffffffffffffffff166377041f1883836040518363ffffffff1660e01b8152600401610ddf929190611fdb565b600060405180830381600087803b158015610df957600080fd5b505af1158015610e0d573d6000803e3d6000fd5b50505050505b505050505050565b60007f01ffc9a7000000000000000000000000000000000000000000000000000000007bffffffffffffffffffffffffffffffffffffffffffffffffffffffff1916827bffffffffffffffffffffffffffffffffffffffffffffffffffffffff1916149050919050565b600033905090565b610e97828261038e565b610f2657610ebc8173ffffffffffffffffffffffffffffffffffffffff1660146112b0565b610eca8360001c60206112b0565b604051602001610edb92919061223b565b6040516020818303038152906040526040517f08c379a0000000000000000000000000000000000000000000000000000000008152600401610f1d91906122ae565b60405180910390fd5b5050565b610f34828261038e565b6110075760016065600084815260200190815260200160002060000160008373ffffffffffffffffffffffffffffffffffffffff1673ffffffffffffffffffffffffffffffffffffffff16815260200190815260200160002060006101000a81548160ff021916908315150217905550610fac610e85565b73ffffffffffffffffffffffffffffffffffffffff168173ffffffffffffffffffffffffffffffffffffffff16837f2f8788117e7eff1d82e926ec794901d17c78024a50270940304540a733656f0d60405160405180910390a45b5050565b611015828261038e565b156110e95760006065600084815260200190815260200160002060000160008373ffffffffffffffffffffffffffffffffffffffff1673ffffffffffffffffffffffffffffffffffffffff16815260200190815260200160002060006101000a81548160ff02191690831515021790555061108e610e85565b73ffffffffffffffffffffffffffffffffffffffff168173ffffffffffffffffffffffffffffffffffffffff16837ff6391f5c32d9c69d2a47ea670b442974b53935d1edc7fd64eb21e047a839171b60405160405180910390a45b5050565b60006110f8306114ec565b15905090565b600060019054906101000a900460ff1661114d576040517f08c379a000000000000000000000000000000000000000000000000000000000815260040161114490612342565b60405180910390fd5b565b6111598282610f2a565b5050565b600080609760009054906101000a900473ffffffffffffffffffffffffffffffffffffffff1673ffffffffffffffffffffffffffffffffffffffff1663b7569fd5846040518263ffffffff1660e01b81526004016111bb9190611cab565b602060405180830381865afa1580156111d8573d6000803e3d6000fd5b505050506040513d601f19601f820116820180604052508101906111fc919061238e565b90506000609760009054906101000a900473ffffffffffffffffffffffffffffffffffffffff1673ffffffffffffffffffffffffffffffffffffffff1663f30f81c4856040518263ffffffff1660e01b815260040161125b9190611cab565b602060405180830381865afa158015611278573d6000803e3d6000fd5b505050506040513d601f19601f8201168201806040525081019061129c919061238e565b905081806112a75750805b92505050919050565b6060600060028360026112c391906123bb565b6112cd9190611eaa565b67ffffffffffffffff8111156112e6576112e5611cdc565b5b6040519080825280601f01601f1916602001820160405280156113185781602001600182028036833780820191505090505b5090507f3000000000000000000000000000000000000000000000000000000000000000816000815181106113505761134f612415565b5b60200101907effffffffffffffffffffffffffffffffffffffffffffffffffffffffffffff1916908160001a9053507f7800000000000000000000000000000000000000000000000000000000000000816001815181106113b4576113b3612415565b5b60200101907effffffffffffffffffffffffffffffffffffffffffffffffffffffffffffff1916908160001a905350600060018460026113f491906123bb565b6113fe9190611eaa565b90505b600181111561149e577f3031323334353637383961626364656600000000000000000000000000000000600f8616601081106114405761143f612415565b5b1a60f81b82828151811061145757611456612415565b5b60200101907effffffffffffffffffffffffffffffffffffffffffffffffffffffffffffff1916908160001a905350600485901c94508061149790612444565b9050611401565b50600084146114e2576040517f08c379a00000000000000000000000000000000000000000000000000000000081526004016114d9906124b9565b60405180910390fd5b8091505092915050565b6000808273ffffffffffffffffffffffffffffffffffffffff163b119050919050565b6000604051905090565b600080fd5b60007fffffffff0000000000000000000000000000000000000000000000000000000082169050919050565b6115538161151e565b811461155e57600080fd5b50565b6000813590506115708161154a565b92915050565b60006020828403121561158c5761158b611519565b5b600061159a84828501611561565b91505092915050565b60008115159050919050565b6115b8816115a3565b82525050565b60006020820190506115d360008301846115af565b92915050565b6000819050919050565b6115ec816115d9565b82525050565b600060208201905061160760008301846115e3565b92915050565b611616816115d9565b811461162157600080fd5b50565b6000813590506116338161160d565b92915050565b60006020828403121561164f5761164e611519565b5b600061165d84828501611624565b91505092915050565b600073ffffffffffffffffffffffffffffffffffffffff82169050919050565b600061169182611666565b9050919050565b6116a181611686565b81146116ac57600080fd5b50565b6000813590506116be81611698565b92915050565b600080604083850312156116db576116da611519565b5b60006116e985828601611624565b92505060206116fa858286016116af565b9150509250929050565b60006020828403121561171a57611719611519565b5b6000611728848285016116af565b91505092915050565b6000819050919050565b600061175661175161174c84611666565b611731565b611666565b9050919050565b60006117688261173b565b9050919050565b600061177a8261175d565b9050919050565b61178a8161176f565b82525050565b60006020820190506117a56000830184611781565b92915050565b6000819050919050565b6117be816117ab565b81146117c957600080fd5b50565b6000813590506117db816117b5565b92915050565b60008060008060008060c087890312156117fe576117fd611519565b5b600061180c89828a016116af565b965050602061181d89828a016117cc565b955050604061182e89828a016117cc565b945050606061183f89828a016116af565b935050608061185089828a016117cc565b92505060a061186189828a016117cc565b9150509295509295509295565b600082825260208201905092915050565b7f416363657373436f6e74726f6c3a2063616e206f6e6c792072656e6f756e636560008201527f20726f6c657320666f722073656c660000000000000000000000000000000000602082015250565b60006118db602f8361186e565b91506118e68261187f565b604082019050919050565b6000602082019050818103600083015261190a816118ce565b9050919050565b7f496e697469616c697a61626c653a20636f6e747261637420697320616c72656160008201527f647920696e697469616c697a6564000000000000000000000000000000000000602082015250565b600061196d602e8361186e565b915061197882611911565b604082019050919050565b6000602082019050818103600083015261199c81611960565b9050919050565b7f52756e4578656375746f723a2074782073656e6465722073686f756c6420686160008201527f7665204558454355544f525f524f4c4500000000000000000000000000000000602082015250565b60006119ff60308361186e565b9150611a0a826119a3565b604082019050919050565b60006020820190508181036000830152611a2e816119f2565b9050919050565b7f52756e4578656375746f723a2077696e6e65722773206f70616c20746f20626560008201527f206d696e7465642073686f756c6420626520646566696e656400000000000000602082015250565b6000611a9160398361186e565b9150611a9c82611a35565b604082019050919050565b60006020820190508181036000830152611ac081611a84565b9050919050565b7f52756e4578656375746f723a2077696e6e6572277320746f6b656e206964207360008201527f686f756c6420626520636861726163746572206f72207469636b657400000000602082015250565b6000611b23603c8361186e565b9150611b2e82611ac7565b604082019050919050565b60006020820190508181036000830152611b5281611b16565b9050919050565b611b6281611686565b82525050565b611b71816117ab565b82525050565b6000604082019050611b8c6000830185611b59565b611b996020830184611b68565b9392505050565b600081519050611baf816117b5565b92915050565b600060208284031215611bcb57611bca611519565b5b6000611bd984828501611ba0565b91505092915050565b7f52756e4578656375746f723a2077696e6e65722073686f756c64206f776e207760008201527f696e6e6572206368617261637465720000000000000000000000000000000000602082015250565b6000611c3e602f8361186e565b9150611c4982611be2565b604082019050919050565b60006020820190508181036000830152611c6d81611c31565b9050919050565b6000606082019050611c896000830186611b59565b611c966020830185611b68565b611ca36040830184611b68565b949350505050565b6000602082019050611cc06000830184611b68565b92915050565b600080fd5b6000601f19601f8301169050919050565b7f4e487b7100000000000000000000000000000000000000000000000000000000600052604160045260246000fd5b611d1482611ccb565b810181811067ffffffffffffffff82111715611d3357611d32611cdc565b5b80604052505050565b6000611d4661150f565b9050611d528282611d0b565b919050565b60006101408284031215611d6e57611d6d611cc6565b5b611d79610140611d3c565b90506000611d8984828501611ba0565b6000830152506020611d9d84828501611ba0565b6020830152506040611db184828501611ba0565b6040830152506060611dc584828501611ba0565b6060830152506080611dd984828501611ba0565b60808301525060a0611ded84828501611ba0565b60a08301525060c0611e0184828501611ba0565b60c08301525060e0611e1584828501611ba0565b60e083015250610100611e2a84828501611ba0565b61010083015250610120611e4084828501611ba0565b6101208301525092915050565b60006101408284031215611e6457611e63611519565b5b6000611e7284828501611d57565b91505092915050565b7f4e487b7100000000000000000000000000000000000000000000000000000000600052601160045260246000fd5b6000611eb5826117ab565b9150611ec0836117ab565b9250827fffffffffffffffffffffffffffffffffffffffffffffffffffffffffffffffff03821115611ef557611ef4611e7b565b5b828201905092915050565b611f09816117ab565b82525050565b61014082016000820151611f266000850182611f00565b506020820151611f396020850182611f00565b506040820151611f4c6040850182611f00565b506060820151611f5f6060850182611f00565b506080820151611f726080850182611f00565b5060a0820151611f8560a0850182611f00565b5060c0820151611f9860c0850182611f00565b5060e0820151611fab60e0850182611f00565b50610100820151611fc0610100850182611f00565b50610120820151611fd5610120850182611f00565b50505050565b600061016082019050611ff16000830185611b68565b611ffe6020830184611f0f565b9392505050565b7f52756e4578656375746f723a206c6f736572277320746f6b656e20696420736860008201527f6f756c6420626520636861726163746572206f72207469636b65740000000000602082015250565b6000612061603b8361186e565b915061206c82612005565b604082019050919050565b6000602082019050818103600083015261209081612054565b9050919050565b7f52756e4578656375746f723a206c6f7365722073686f756c64206f776e206c6f60008201527f7365722063686172616374657200000000000000000000000000000000000000602082015250565b60006120f3602d8361186e565b91506120fe82612097565b604082019050919050565b60006020820190508181036000830152612122816120e6565b9050919050565b600081905092915050565b7f416363657373436f6e74726f6c3a206163636f756e7420000000000000000000600082015250565b600061216a601783612129565b915061217582612134565b601782019050919050565b600081519050919050565b60005b838110156121a957808201518184015260208101905061218e565b838111156121b8576000848401525b50505050565b60006121c982612180565b6121d38185612129565b93506121e381856020860161218b565b80840191505092915050565b7f206973206d697373696e6720726f6c6520000000000000000000000000000000600082015250565b6000612225601183612129565b9150612230826121ef565b601182019050919050565b60006122468261215d565b915061225282856121be565b915061225d82612218565b915061226982846121be565b91508190509392505050565b600061228082612180565b61228a818561186e565b935061229a81856020860161218b565b6122a381611ccb565b840191505092915050565b600060208201905081810360008301526122c88184612275565b905092915050565b7f496e697469616c697a61626c653a20636f6e7472616374206973206e6f74206960008201527f6e697469616c697a696e67000000000000000000000000000000000000000000602082015250565b600061232c602b8361186e565b9150612337826122d0565b604082019050919050565b6000602082019050818103600083015261235b8161231f565b9050919050565b61236b816115a3565b811461237657600080fd5b50565b60008151905061238881612362565b92915050565b6000602082840312156123a4576123a3611519565b5b60006123b284828501612379565b91505092915050565b60006123c6826117ab565b91506123d1836117ab565b9250817fffffffffffffffffffffffffffffffffffffffffffffffffffffffffffffffff048311821515161561240a57612409611e7b565b5b828202905092915050565b7f4e487b7100000000000000000000000000000000000000000000000000000000600052603260045260246000fd5b600061244f826117ab565b91506000820361246257612461611e7b565b5b600182039050919050565b7f537472696e67733a20686578206c656e67746820696e73756666696369656e74600082015250565b60006124a360208361186e565b91506124ae8261246d565b602082019050919050565b600060208201905081810360008301526124d281612496565b905091905056fea26469706673582212203ab207ec9491896968e8ae763d53e3e911439e164a4b96f93d8e531f9cf6003f64736f6c634300080d0033",
  "devdoc": {
    "kind": "dev",
    "methods": {
      "getRoleAdmin(bytes32)": {
        "details": "Returns the admin role that controls `role`. See {grantRole} and {revokeRole}. To change a role's admin, use {_setRoleAdmin}."
      },
      "grantRole(bytes32,address)": {
        "details": "Grants `role` to `account`. If `account` had not been already granted `role`, emits a {RoleGranted} event. Requirements: - the caller must have ``role``'s admin role."
      },
      "hasRole(bytes32,address)": {
        "details": "Returns `true` if `account` has been granted `role`."
      },
      "renounceRole(bytes32,address)": {
        "details": "Revokes `role` from the calling account. Roles are often managed via {grantRole} and {revokeRole}: this function's purpose is to provide a mechanism for accounts to lose their privileges if they are compromised (such as when a trusted device is misplaced). If the calling account had been revoked `role`, emits a {RoleRevoked} event. Requirements: - the caller must be `account`."
      },
      "revokeRole(bytes32,address)": {
        "details": "Revokes `role` from `account`. If `account` had been granted `role`, emits a {RoleRevoked} event. Requirements: - the caller must have ``role``'s admin role."
      },
      "supportsInterface(bytes4)": {
        "details": "See {IERC165-supportsInterface}."
      }
    },
    "version": 1
  },
  "userdoc": {
    "kind": "user",
    "methods": {},
    "version": 1
  },
  "storageLayout": {
    "storage": [
      {
        "astId": 408,
        "contract": "contracts/RunExecutor.sol:RunExecutor",
        "label": "_initialized",
        "offset": 0,
        "slot": "0",
        "type": "t_bool"
      },
      {
        "astId": 411,
        "contract": "contracts/RunExecutor.sol:RunExecutor",
        "label": "_initializing",
        "offset": 1,
        "slot": "0",
        "type": "t_bool"
      },
      {
        "astId": 2297,
        "contract": "contracts/RunExecutor.sol:RunExecutor",
        "label": "__gap",
        "offset": 0,
        "slot": "1",
        "type": "t_array(t_uint256)50_storage"
      },
      {
        "astId": 2544,
        "contract": "contracts/RunExecutor.sol:RunExecutor",
        "label": "__gap",
        "offset": 0,
        "slot": "51",
        "type": "t_array(t_uint256)50_storage"
      },
      {
        "astId": 39,
        "contract": "contracts/RunExecutor.sol:RunExecutor",
        "label": "_roles",
        "offset": 0,
        "slot": "101",
        "type": "t_mapping(t_bytes32,t_struct(RoleData)34_storage)"
      },
      {
        "astId": 327,
        "contract": "contracts/RunExecutor.sol:RunExecutor",
        "label": "__gap",
        "offset": 0,
        "slot": "102",
        "type": "t_array(t_uint256)49_storage"
      },
      {
        "astId": 3326,
        "contract": "contracts/RunExecutor.sol:RunExecutor",
        "label": "metarunCollection",
        "offset": 0,
        "slot": "151",
        "type": "t_contract(MetarunCollection)3314"
      }
    ],
    "types": {
      "t_address": {
        "encoding": "inplace",
        "label": "address",
        "numberOfBytes": "20"
      },
      "t_array(t_uint256)49_storage": {
        "base": "t_uint256",
        "encoding": "inplace",
        "label": "uint256[49]",
        "numberOfBytes": "1568"
      },
      "t_array(t_uint256)50_storage": {
        "base": "t_uint256",
        "encoding": "inplace",
        "label": "uint256[50]",
        "numberOfBytes": "1600"
      },
      "t_bool": {
        "encoding": "inplace",
        "label": "bool",
        "numberOfBytes": "1"
      },
      "t_bytes32": {
        "encoding": "inplace",
        "label": "bytes32",
        "numberOfBytes": "32"
      },
      "t_contract(MetarunCollection)3314": {
        "encoding": "inplace",
        "label": "contract MetarunCollection",
        "numberOfBytes": "20"
      },
      "t_mapping(t_address,t_bool)": {
        "encoding": "mapping",
        "key": "t_address",
        "label": "mapping(address => bool)",
        "numberOfBytes": "32",
        "value": "t_bool"
      },
      "t_mapping(t_bytes32,t_struct(RoleData)34_storage)": {
        "encoding": "mapping",
        "key": "t_bytes32",
        "label": "mapping(bytes32 => struct AccessControlUpgradeable.RoleData)",
        "numberOfBytes": "32",
        "value": "t_struct(RoleData)34_storage"
      },
      "t_struct(RoleData)34_storage": {
        "encoding": "inplace",
        "label": "struct AccessControlUpgradeable.RoleData",
        "members": [
          {
            "astId": 31,
            "contract": "contracts/RunExecutor.sol:RunExecutor",
            "label": "members",
            "offset": 0,
            "slot": "0",
            "type": "t_mapping(t_address,t_bool)"
          },
          {
            "astId": 33,
            "contract": "contracts/RunExecutor.sol:RunExecutor",
            "label": "adminRole",
            "offset": 0,
            "slot": "1",
            "type": "t_bytes32"
          }
        ],
        "numberOfBytes": "64"
      },
      "t_uint256": {
        "encoding": "inplace",
        "label": "uint256",
        "numberOfBytes": "32"
      }
    }
  }
}