{
  "address": "0x5549Ee2CFE6DB53CC785e7501360913D108D6C70",
  "abi": [
    {
      "inputs": [
        {
          "internalType": "address",
          "name": "_token",
          "type": "address"
        },
        {
          "internalType": "uint256",
          "name": "_lockBps",
          "type": "uint256"
        },
        {
          "internalType": "uint256",
          "name": "_vestBps",
          "type": "uint256"
        },
        {
          "internalType": "uint256",
          "name": "_lockClaimTime",
          "type": "uint256"
        },
        {
          "internalType": "uint256",
          "name": "_vestStart",
          "type": "uint256"
        },
        {
          "internalType": "uint256",
          "name": "_vestDuration",
          "type": "uint256"
        },
        {
          "internalType": "uint256",
          "name": "_vestInterval",
          "type": "uint256"
        }
      ],
      "stateMutability": "nonpayable",
      "type": "constructor"
    },
    {
      "anonymous": false,
      "inputs": [
        {
          "indexed": false,
          "internalType": "address",
          "name": "beneficiary",
          "type": "address"
        },
        {
          "indexed": false,
          "internalType": "uint256",
          "name": "amount",
          "type": "uint256"
        }
      ],
      "name": "Allocate",
      "type": "event"
    },
    {
      "anonymous": false,
      "inputs": [
        {
          "indexed": false,
          "internalType": "address",
          "name": "beneficiary",
          "type": "address"
        },
        {
          "indexed": false,
          "internalType": "uint256",
          "name": "amount",
          "type": "uint256"
        }
      ],
      "name": "LockRelease",
      "type": "event"
    },
    {
      "anonymous": false,
      "inputs": [
        {
          "indexed": false,
          "internalType": "address",
          "name": "beneficiary",
          "type": "address"
        },
        {
          "indexed": false,
          "internalType": "uint256",
          "name": "amount",
          "type": "uint256"
        }
      ],
      "name": "VestRelease",
      "type": "event"
    },
    {
      "inputs": [
        {
          "internalType": "address",
          "name": "",
          "type": "address"
        }
      ],
      "name": "allocations",
      "outputs": [
        {
          "internalType": "uint256",
          "name": "amount",
          "type": "uint256"
        },
        {
          "internalType": "uint256",
          "name": "released",
          "type": "uint256"
        }
      ],
      "stateMutability": "view",
      "type": "function"
    },
    {
      "inputs": [
        {
          "internalType": "address",
          "name": "beneficiary",
          "type": "address"
        }
      ],
      "name": "getAllocation",
      "outputs": [
        {
          "internalType": "uint256",
          "name": "amount",
          "type": "uint256"
        },
        {
          "internalType": "uint256",
          "name": "lockAmount",
          "type": "uint256"
        },
        {
          "internalType": "uint256",
          "name": "vestAmount",
          "type": "uint256"
        },
        {
          "internalType": "uint256",
          "name": "released",
          "type": "uint256"
        },
        {
          "internalType": "uint256",
          "name": "lockReleased",
          "type": "uint256"
        },
        {
          "internalType": "uint256",
          "name": "vestReleased",
          "type": "uint256"
        },
        {
          "internalType": "uint256",
          "name": "unfrozen",
          "type": "uint256"
        },
        {
          "internalType": "uint256",
          "name": "lockUnfrozen",
          "type": "uint256"
        },
        {
          "internalType": "uint256",
          "name": "vestUnfrozen",
          "type": "uint256"
        },
        {
          "internalType": "uint256",
          "name": "releasable",
          "type": "uint256"
        },
        {
          "internalType": "uint256",
          "name": "lockReleasable",
          "type": "uint256"
        },
        {
          "internalType": "uint256",
          "name": "vestReleasable",
          "type": "uint256"
        }
      ],
      "stateMutability": "view",
      "type": "function"
    },
    {
      "inputs": [
        {
          "internalType": "uint256",
          "name": "lockAmount",
          "type": "uint256"
        }
      ],
      "name": "getLockUnfrozen",
      "outputs": [
        {
          "internalType": "uint256",
          "name": "",
          "type": "uint256"
        }
      ],
      "stateMutability": "view",
      "type": "function"
    },
    {
      "inputs": [
        {
          "internalType": "uint256",
          "name": "vestAmount",
          "type": "uint256"
        }
      ],
      "name": "getVestUnfrozen",
      "outputs": [
        {
          "internalType": "uint256",
          "name": "",
          "type": "uint256"
        }
      ],
      "stateMutability": "view",
      "type": "function"
    },
    {
      "inputs": [],
      "name": "lockBps",
      "outputs": [
        {
          "internalType": "uint256",
          "name": "",
          "type": "uint256"
        }
      ],
      "stateMutability": "view",
      "type": "function"
    },
    {
      "inputs": [],
      "name": "lockClaimTime",
      "outputs": [
        {
          "internalType": "uint256",
          "name": "",
          "type": "uint256"
        }
      ],
      "stateMutability": "view",
      "type": "function"
    },
    {
      "inputs": [
        {
          "internalType": "address",
          "name": "beneficiary",
          "type": "address"
        }
      ],
      "name": "release",
      "outputs": [],
      "stateMutability": "nonpayable",
      "type": "function"
    },
    {
      "inputs": [
        {
          "internalType": "address",
          "name": "beneficiary",
          "type": "address"
        },
        {
          "internalType": "uint256",
          "name": "amount",
          "type": "uint256"
        }
      ],
      "name": "setAllocation",
      "outputs": [],
      "stateMutability": "nonpayable",
      "type": "function"
    },
    {
      "inputs": [
        {
          "internalType": "bytes[]",
          "name": "_allocations",
          "type": "bytes[]"
        }
      ],
      "name": "setAllocations",
      "outputs": [],
      "stateMutability": "nonpayable",
      "type": "function"
    },
    {
      "inputs": [],
      "name": "token",
      "outputs": [
        {
          "internalType": "contract IERC20",
          "name": "",
          "type": "address"
        }
      ],
      "stateMutability": "view",
      "type": "function"
    },
    {
      "inputs": [],
      "name": "vestBps",
      "outputs": [
        {
          "internalType": "uint256",
          "name": "",
          "type": "uint256"
        }
      ],
      "stateMutability": "view",
      "type": "function"
    },
    {
      "inputs": [],
      "name": "vestDuration",
      "outputs": [
        {
          "internalType": "uint256",
          "name": "",
          "type": "uint256"
        }
      ],
      "stateMutability": "view",
      "type": "function"
    },
    {
      "inputs": [],
      "name": "vestInterval",
      "outputs": [
        {
          "internalType": "uint256",
          "name": "",
          "type": "uint256"
        }
      ],
      "stateMutability": "view",
      "type": "function"
    },
    {
      "inputs": [],
      "name": "vestStart",
      "outputs": [
        {
          "internalType": "uint256",
          "name": "",
          "type": "uint256"
        }
      ],
      "stateMutability": "view",
      "type": "function"
    }
  ],
  "transactionHash": "0x1e88dacf95bde4c261828f16c1573b8fb9ae21de69f3c536b5dad8985343bfb3",
  "args": [
    "0xCa0D640a401406f3405b4C252a5d0c4d17F38EBb",
    1000,
    9000,
    1646060400,
    1646060400,
    7776000,
    2592000
  ],
  "numDeployments": 1,
  "solcInputHash": "dd18b847c82255397762dcd83dd9a90a",
  "bytecode": "0x60806040523480156200001157600080fd5b506040516200267d3803806200267d83398181016040528101906200003791906200035e565b868686868686866001600081905550600073ffffffffffffffffffffffffffffffffffffffff168773ffffffffffffffffffffffffffffffffffffffff161415620000b9576040517f08c379a0000000000000000000000000000000000000000000000000000000008152600401620000b09062000472565b60405180910390fd5b60008111620000ff576040517f08c379a0000000000000000000000000000000000000000000000000000000008152600401620000f6906200050a565b60405180910390fd5b80821162000144576040517f08c379a00000000000000000000000000000000000000000000000000000000081526004016200013b90620005a2565b60405180910390fd5b6127108587620001559190620005f3565b1462000198576040517f08c379a00000000000000000000000000000000000000000000000000000000081526004016200018f90620006c6565b60405180910390fd5b620001a8620002b160201b60201c565b8411620001ec576040517f08c379a0000000000000000000000000000000000000000000000000000000008152600401620001e3906200075e565b60405180910390fd5b8383101562000232576040517f08c379a00000000000000000000000000000000000000000000000000000000081526004016200022990620007f6565b60405180910390fd5b86600160006101000a81548173ffffffffffffffffffffffffffffffffffffffff021916908373ffffffffffffffffffffffffffffffffffffffff160217905550856002819055508460038190555083600481905550826005819055508160068190555080600781905550505050505050505050505050505062000818565b600042905090565b600080fd5b600073ffffffffffffffffffffffffffffffffffffffff82169050919050565b6000620002eb82620002be565b9050919050565b620002fd81620002de565b81146200030957600080fd5b50565b6000815190506200031d81620002f2565b92915050565b6000819050919050565b620003388162000323565b81146200034457600080fd5b50565b60008151905062000358816200032d565b92915050565b600080600080600080600060e0888a03121562000380576200037f620002b9565b5b6000620003908a828b016200030c565b9750506020620003a38a828b0162000347565b9650506040620003b68a828b0162000347565b9550506060620003c98a828b0162000347565b9450506080620003dc8a828b0162000347565b93505060a0620003ef8a828b0162000347565b92505060c0620004028a828b0162000347565b91505092959891949750929550565b600082825260208201905092915050565b7f746f6b656e20616464726573732063616e6e6f74206265207a65726f00000000600082015250565b60006200045a601c8362000411565b9150620004678262000422565b602082019050919050565b600060208201905081810360008301526200048d816200044b565b9050919050565b7f696e74657276616c2073686f756c642062652067726561746572207468616e2060008201527f3000000000000000000000000000000000000000000000000000000000000000602082015250565b6000620004f260218362000411565b9150620004ff8262000494565b604082019050919050565b600060208201905081810360008301526200052581620004e3565b9050919050565b7f6475726174696f6e2073686f756c642062652067726561746572207468616e2060008201527f696e74657276616c000000000000000000000000000000000000000000000000602082015250565b60006200058a60288362000411565b915062000597826200052c565b604082019050919050565b60006020820190508181036000830152620005bd816200057b565b9050919050565b7f4e487b7100000000000000000000000000000000000000000000000000000000600052601160045260246000fd5b6000620006008262000323565b91506200060d8362000323565b9250827fffffffffffffffffffffffffffffffffffffffffffffffffffffffffffffffff03821115620006455762000644620005c4565b5b828201905092915050565b7f73756d206f66204c6f636b20616e642056657374206270732073686f756c642060008201527f6265203130303030000000000000000000000000000000000000000000000000602082015250565b6000620006ae60288362000411565b9150620006bb8262000650565b604082019050919050565b60006020820190508181036000830152620006e1816200069f565b9050919050565b7f6c6f636b436c61696d54696d652073686f756c6420626520696e20746865206660008201527f7574757265000000000000000000000000000000000000000000000000000000602082015250565b60006200074660258362000411565b91506200075382620006e8565b604082019050919050565b60006020820190508181036000830152620007798162000737565b9050919050565b7f766573745374617274206561726c696572207468616e206c6f636b436c61696d60008201527f54696d6500000000000000000000000000000000000000000000000000000000602082015250565b6000620007de60248362000411565b9150620007eb8262000780565b604082019050919050565b600060208201905081810360008301526200081181620007cf565b9050919050565b611e5580620008286000396000f3fe608060405234801561001057600080fd5b50600436106100ea5760003560e01c8063dc273fbe1161008c578063f2f3c77311610066578063f2f3c77314610259578063f49e652214610277578063fc0c546a146102a7578063fc3daf1a146102c5576100ea565b8063dc273fbe146101ed578063dd86b5981461021d578063ec6315c21461023b576100ea565b806370c71dd0116100c857806370c71dd0146101775780639076c1661461019557806394761e2a146101b1578063d4cf9c93146101cf576100ea565b80630e022923146100ef578063191655871461012a57806352a9039c14610146575b600080fd5b6101096004803603810190610104919061114d565b6102e1565b6040516101219c9b9a99989796959493929190611193565b60405180910390f35b610144600480360381019061013f919061114d565b610448565b005b610160600480360381019061015b919061114d565b610737565b60405161016e92919061124d565b60405180910390f35b61017f61075b565b60405161018c9190611276565b60405180910390f35b6101af60048036038101906101aa91906112bd565b610761565b005b6101b961099b565b6040516101c69190611276565b60405180910390f35b6101d76109a1565b6040516101e49190611276565b60405180910390f35b610207600480360381019061020291906112fd565b6109a7565b6040516102149190611276565b60405180910390f35b610225610a4f565b6040516102329190611276565b60405180910390f35b610243610a55565b6040516102509190611276565b60405180910390f35b610261610a5b565b60405161026e9190611276565b60405180910390f35b610291600480360381019061028c91906112fd565b610a61565b60405161029e9190611276565b60405180910390f35b6102af610a85565b6040516102bc9190611389565b60405180910390f35b6102df60048036038101906102da91906115d0565b610aab565b005b600080600080600080600080600080600080600860008e73ffffffffffffffffffffffffffffffffffffffff1673ffffffffffffffffffffffffffffffffffffffff168152602001908152602001600020600001549b506127106002548d6103499190611648565b61035391906116d1565b9a506127106003548d6103669190611648565b61037091906116d1565b9950600860008e73ffffffffffffffffffffffffffffffffffffffff1673ffffffffffffffffffffffffffffffffffffffff1681526020019081526020016000206001015498508a89106103d9578a9750878911156103d85787896103d59190611702565b96505b5b6103e28b610a61565b94506103ed8a6109a7565b935083856103fb9190611736565b9550878511156104145787856104119190611702565b91505b8684111561042b5786846104289190611702565b90505b80826104379190611736565b925091939597999b5091939597999b565b6002600054141561048e576040517f08c379a0000000000000000000000000000000000000000000000000000000008152600401610485906117e9565b60405180910390fd5b60026000819055506000806000806000806000806000806000806104b18d6102e1565b9b509b509b509b509b509b509b509b509b509b509b509b508b891061050b576040517f08c379a000000000000000000000000000000000000000000000000000000000815260040161050290611855565b60405180910390fd5b6000831161054e576040517f08c379a0000000000000000000000000000000000000000000000000000000008152600401610545906118c1565b60405180910390fd5b60008211156106375781600860008f73ffffffffffffffffffffffffffffffffffffffff1673ffffffffffffffffffffffffffffffffffffffff16815260200190815260200160002060010160008282546105a99190611736565b925050819055507fde0d694f31255796762dc858a16d8c55b6d5b03277528f891a9ea35411794c878d836040516105e19291906118f0565b60405180910390a16106368d83600160009054906101000a900473ffffffffffffffffffffffffffffffffffffffff1673ffffffffffffffffffffffffffffffffffffffff16610d4f9092919063ffffffff16565b5b60008111156107205780600860008f73ffffffffffffffffffffffffffffffffffffffff1673ffffffffffffffffffffffffffffffffffffffff16815260200190815260200160002060010160008282546106929190611736565b925050819055507f661e529cfe6e04a9aa2c98e5f78774e431d0aedda0d94f2eebdccd7ad9aba3bf8d826040516106ca9291906118f0565b60405180910390a161071f8d82600160009054906101000a900473ffffffffffffffffffffffffffffffffffffffff1673ffffffffffffffffffffffffffffffffffffffff16610d4f9092919063ffffffff16565b5b505050505050505050505050600160008190555050565b60086020528060005260406000206000915090508060000154908060010154905082565b60055481565b600260005414156107a7576040517f08c379a000000000000000000000000000000000000000000000000000000000815260040161079e906117e9565b60405180910390fd5b60026000819055506000600860008473ffffffffffffffffffffffffffffffffffffffff1673ffffffffffffffffffffffffffffffffffffffff1681526020019081526020016000206000015414610834576040517f08c379a000000000000000000000000000000000000000000000000000000000815260040161082b90611965565b60405180910390fd5b6000600860008473ffffffffffffffffffffffffffffffffffffffff1673ffffffffffffffffffffffffffffffffffffffff16815260200190815260200160002060010154146108b9576040517f08c379a00000000000000000000000000000000000000000000000000000000081526004016108b0906119d1565b60405180910390fd5b80600860008473ffffffffffffffffffffffffffffffffffffffff1673ffffffffffffffffffffffffffffffffffffffff168152602001908152602001600020600001819055507f249d8eb76d5a22983620d741de2470148d1a9a26ab923aec4262770690d11ebc82826040516109319291906118f0565b60405180910390a161098f610944610dd5565b3083600160009054906101000a900473ffffffffffffffffffffffffffffffffffffffff1673ffffffffffffffffffffffffffffffffffffffff16610ddd909392919063ffffffff16565b60016000819055505050565b60065481565b60045481565b6000806006546005546109ba9190611736565b90506005546109c7610e66565b116109d6576000915050610a4a565b806109df610e66565b106109ed5782915050610a4a565b60006007546005546109fd610e66565b610a079190611702565b610a1191906116d1565b90506000600754600654610a2591906116d1565b90506000818387610a369190611648565b610a4091906116d1565b9050809450505050505b919050565b60035481565b60025481565b60075481565b6000600454610a6e610e66565b10610a7b57819050610a80565b600090505b919050565b600160009054906101000a900473ffffffffffffffffffffffffffffffffffffffff1681565b60026000541415610af1576040517f08c379a0000000000000000000000000000000000000000000000000000000008152600401610ae8906117e9565b60405180910390fd5b6002600081905550600080600090505b8251811015610cec57600080848381518110610b2057610b1f6119f1565b5b6020026020010151806020019051810190610b3b9190611a73565b915091508084610b4b9190611736565b93506000600860008473ffffffffffffffffffffffffffffffffffffffff1673ffffffffffffffffffffffffffffffffffffffff1681526020019081526020016000206000015414610bd2576040517f08c379a0000000000000000000000000000000000000000000000000000000008152600401610bc990611965565b60405180910390fd5b6000600860008473ffffffffffffffffffffffffffffffffffffffff1673ffffffffffffffffffffffffffffffffffffffff1681526020019081526020016000206001015414610c57576040517f08c379a0000000000000000000000000000000000000000000000000000000008152600401610c4e906119d1565b60405180910390fd5b80600860008473ffffffffffffffffffffffffffffffffffffffff1673ffffffffffffffffffffffffffffffffffffffff168152602001908152602001600020600001819055507f249d8eb76d5a22983620d741de2470148d1a9a26ab923aec4262770690d11ebc8282604051610ccf9291906118f0565b60405180910390a150508080610ce490611ab3565b915050610b01565b50610d43610cf8610dd5565b3083600160009054906101000a900473ffffffffffffffffffffffffffffffffffffffff1673ffffffffffffffffffffffffffffffffffffffff16610ddd909392919063ffffffff16565b50600160008190555050565b610dd08363a9059cbb60e01b8484604051602401610d6e9291906118f0565b604051602081830303815290604052907bffffffffffffffffffffffffffffffffffffffffffffffffffffffff19166020820180517bffffffffffffffffffffffffffffffffffffffffffffffffffffffff8381831617835250505050610e6e565b505050565b600033905090565b610e60846323b872dd60e01b858585604051602401610dfe93929190611afc565b604051602081830303815290604052907bffffffffffffffffffffffffffffffffffffffffffffffffffffffff19166020820180517bffffffffffffffffffffffffffffffffffffffffffffffffffffffff8381831617835250505050610e6e565b50505050565b600042905090565b6000610ed0826040518060400160405280602081526020017f5361666545524332303a206c6f772d6c6576656c2063616c6c206661696c65648152508573ffffffffffffffffffffffffffffffffffffffff16610f359092919063ffffffff16565b9050600081511115610f305780806020019051810190610ef09190611b6b565b610f2f576040517f08c379a0000000000000000000000000000000000000000000000000000000008152600401610f2690611c0a565b60405180910390fd5b5b505050565b6060610f448484600085610f4d565b90509392505050565b606082471015610f92576040517f08c379a0000000000000000000000000000000000000000000000000000000008152600401610f8990611c9c565b60405180910390fd5b610f9b85611061565b610fda576040517f08c379a0000000000000000000000000000000000000000000000000000000008152600401610fd190611d08565b60405180910390fd5b6000808673ffffffffffffffffffffffffffffffffffffffff1685876040516110039190611da2565b60006040518083038185875af1925050503d8060008114611040576040519150601f19603f3d011682016040523d82523d6000602084013e611045565b606091505b5091509150611055828286611074565b92505050949350505050565b600080823b905060008111915050919050565b60608315611084578290506110d4565b6000835111156110975782518084602001fd5b816040517f08c379a00000000000000000000000000000000000000000000000000000000081526004016110cb9190611dfd565b60405180910390fd5b9392505050565b6000604051905090565b600080fd5b600080fd5b600073ffffffffffffffffffffffffffffffffffffffff82169050919050565b600061111a826110ef565b9050919050565b61112a8161110f565b811461113557600080fd5b50565b60008135905061114781611121565b92915050565b600060208284031215611163576111626110e5565b5b600061117184828501611138565b91505092915050565b6000819050919050565b61118d8161117a565b82525050565b6000610180820190506111a9600083018f611184565b6111b6602083018e611184565b6111c3604083018d611184565b6111d0606083018c611184565b6111dd608083018b611184565b6111ea60a083018a611184565b6111f760c0830189611184565b61120460e0830188611184565b611212610100830187611184565b611220610120830186611184565b61122e610140830185611184565b61123c610160830184611184565b9d9c50505050505050505050505050565b60006040820190506112626000830185611184565b61126f6020830184611184565b9392505050565b600060208201905061128b6000830184611184565b92915050565b61129a8161117a565b81146112a557600080fd5b50565b6000813590506112b781611291565b92915050565b600080604083850312156112d4576112d36110e5565b5b60006112e285828601611138565b92505060206112f3858286016112a8565b9150509250929050565b600060208284031215611313576113126110e5565b5b6000611321848285016112a8565b91505092915050565b6000819050919050565b600061134f61134a611345846110ef565b61132a565b6110ef565b9050919050565b600061136182611334565b9050919050565b600061137382611356565b9050919050565b61138381611368565b82525050565b600060208201905061139e600083018461137a565b92915050565b600080fd5b6000601f19601f8301169050919050565b7f4e487b7100000000000000000000000000000000000000000000000000000000600052604160045260246000fd5b6113f2826113a9565b810181811067ffffffffffffffff82111715611411576114106113ba565b5b80604052505050565b60006114246110db565b905061143082826113e9565b919050565b600067ffffffffffffffff8211156114505761144f6113ba565b5b602082029050602081019050919050565b600080fd5b600080fd5b600067ffffffffffffffff821115611486576114856113ba565b5b61148f826113a9565b9050602081019050919050565b82818337600083830152505050565b60006114be6114b98461146b565b61141a565b9050828152602081018484840111156114da576114d9611466565b5b6114e584828561149c565b509392505050565b600082601f830112611502576115016113a4565b5b81356115128482602086016114ab565b91505092915050565b600061152e61152984611435565b61141a565b9050808382526020820190506020840283018581111561155157611550611461565b5b835b8181101561159857803567ffffffffffffffff811115611576576115756113a4565b5b80860161158389826114ed565b85526020850194505050602081019050611553565b5050509392505050565b600082601f8301126115b7576115b66113a4565b5b81356115c784826020860161151b565b91505092915050565b6000602082840312156115e6576115e56110e5565b5b600082013567ffffffffffffffff811115611604576116036110ea565b5b611610848285016115a2565b91505092915050565b7f4e487b7100000000000000000000000000000000000000000000000000000000600052601160045260246000fd5b60006116538261117a565b915061165e8361117a565b9250817fffffffffffffffffffffffffffffffffffffffffffffffffffffffffffffffff048311821515161561169757611696611619565b5b828202905092915050565b7f4e487b7100000000000000000000000000000000000000000000000000000000600052601260045260246000fd5b60006116dc8261117a565b91506116e78361117a565b9250826116f7576116f66116a2565b5b828204905092915050565b600061170d8261117a565b91506117188361117a565b92508282101561172b5761172a611619565b5b828203905092915050565b60006117418261117a565b915061174c8361117a565b9250827fffffffffffffffffffffffffffffffffffffffffffffffffffffffffffffffff0382111561178157611780611619565b5b828201905092915050565b600082825260208201905092915050565b7f5265656e7472616e637947756172643a207265656e7472616e742063616c6c00600082015250565b60006117d3601f8361178c565b91506117de8261179d565b602082019050919050565b60006020820190508181036000830152611802816117c6565b9050919050565b7f416d6f756e7420616c72656164792072656c6561736564000000000000000000600082015250565b600061183f60178361178c565b915061184a82611809565b602082019050919050565b6000602082019050818103600083015261186e81611832565b9050919050565b7f4e6f7468696e6720746f2072656c656173652079657400000000000000000000600082015250565b60006118ab60168361178c565b91506118b682611875565b602082019050919050565b600060208201905081810360008301526118da8161189e565b9050919050565b6118ea8161110f565b82525050565b600060408201905061190560008301856118e1565b6119126020830184611184565b9392505050565b7f416c726561647920616c6c6f6361746564000000000000000000000000000000600082015250565b600061194f60118361178c565b915061195a82611919565b602082019050919050565b6000602082019050818103600083015261197e81611942565b9050919050565b7f416c72656164792072656c656173656400000000000000000000000000000000600082015250565b60006119bb60108361178c565b91506119c682611985565b602082019050919050565b600060208201905081810360008301526119ea816119ae565b9050919050565b7f4e487b7100000000000000000000000000000000000000000000000000000000600052603260045260246000fd5b6000611a2b826110ef565b9050919050565b611a3b81611a20565b8114611a4657600080fd5b50565b600081519050611a5881611a32565b92915050565b600081519050611a6d81611291565b92915050565b60008060408385031215611a8a57611a896110e5565b5b6000611a9885828601611a49565b9250506020611aa985828601611a5e565b9150509250929050565b6000611abe8261117a565b91507fffffffffffffffffffffffffffffffffffffffffffffffffffffffffffffffff821415611af157611af0611619565b5b600182019050919050565b6000606082019050611b1160008301866118e1565b611b1e60208301856118e1565b611b2b6040830184611184565b949350505050565b60008115159050919050565b611b4881611b33565b8114611b5357600080fd5b50565b600081519050611b6581611b3f565b92915050565b600060208284031215611b8157611b806110e5565b5b6000611b8f84828501611b56565b91505092915050565b7f5361666545524332303a204552433230206f7065726174696f6e20646964206e60008201527f6f74207375636365656400000000000000000000000000000000000000000000602082015250565b6000611bf4602a8361178c565b9150611bff82611b98565b604082019050919050565b60006020820190508181036000830152611c2381611be7565b9050919050565b7f416464726573733a20696e73756666696369656e742062616c616e636520666f60008201527f722063616c6c0000000000000000000000000000000000000000000000000000602082015250565b6000611c8660268361178c565b9150611c9182611c2a565b604082019050919050565b60006020820190508181036000830152611cb581611c79565b9050919050565b7f416464726573733a2063616c6c20746f206e6f6e2d636f6e7472616374000000600082015250565b6000611cf2601d8361178c565b9150611cfd82611cbc565b602082019050919050565b60006020820190508181036000830152611d2181611ce5565b9050919050565b600081519050919050565b600081905092915050565b60005b83811015611d5c578082015181840152602081019050611d41565b83811115611d6b576000848401525b50505050565b6000611d7c82611d28565b611d868185611d33565b9350611d96818560208601611d3e565b80840191505092915050565b6000611dae8284611d71565b915081905092915050565b600081519050919050565b6000611dcf82611db9565b611dd9818561178c565b9350611de9818560208601611d3e565b611df2816113a9565b840191505092915050565b60006020820190508181036000830152611e178184611dc4565b90509291505056fea2646970667358221220089341c0ab18ed74d76655e99c784eb6d81ad84f68998ecb6d3f89c1bcf33ca464736f6c634300080b0033",
  "devdoc": {
    "kind": "dev",
    "methods": {
      "getAllocation(address)": {
        "details": "calculates and returns the full information about beneficiary's allocation",
        "params": {
          "beneficiary": "address of beneficiary (holder)*"
        }
      },
      "getLockUnfrozen(uint256)": {
        "details": "calculates how much of given TimeLock-ed amount is unfrozen to the moment. depends on time (is lockClaimTime happened or not).",
        "params": {
          "lockAmount": "the total amount of Time_Locked tokens"
        },
        "returns": {
          "_0": "unfrozen amount*"
        }
      },
      "getVestUnfrozen(uint256)": {
        "details": "calculates how much of given Vest-ed amount is unfrozen to the moment. depends on time (is vestStart happened, is vestDurationPassed or how much intervals passed to the moment).",
        "params": {
          "vestAmount": "the total amount of Vest-ed tokens"
        },
        "returns": {
          "_0": "unfrozen amount*"
        }
      },
      "release(address)": {
        "details": "called to send unfrozen tokens to the beneficiary.",
        "params": {
          "beneficiary": "account to whom tokens were allocated*"
        }
      },
      "setAllocation(address,uint256)": {
        "details": "submit the single allocation record",
        "params": {
          "beneficiary": "amount*"
        }
      },
      "setAllocations(bytes[])": {
        "details": "submit multiple records of beneficiaries and their allocations in one transaction",
        "params": {
          "_allocations": "ABI-encoded array of beneficiaries and amounts*"
        }
      }
    },
    "version": 1
  },
  "userdoc": {
    "kind": "user",
    "methods": {},
    "version": 1
  },
  "storageLayout": {
    "storage": [
      {
        "astId": 10,
        "contract": "contracts/Vesting.sol:VestingGameStarter",
        "label": "_status",
        "offset": 0,
        "slot": "0",
        "type": "t_uint256"
      },
      {
        "astId": 2090,
        "contract": "contracts/Vesting.sol:VestingGameStarter",
        "label": "token",
        "offset": 0,
        "slot": "1",
        "type": "t_contract(IERC20)239"
      },
      {
        "astId": 2092,
        "contract": "contracts/Vesting.sol:VestingGameStarter",
        "label": "lockBps",
        "offset": 0,
        "slot": "2",
        "type": "t_uint256"
      },
      {
        "astId": 2094,
        "contract": "contracts/Vesting.sol:VestingGameStarter",
        "label": "vestBps",
        "offset": 0,
        "slot": "3",
        "type": "t_uint256"
      },
      {
        "astId": 2096,
        "contract": "contracts/Vesting.sol:VestingGameStarter",
        "label": "lockClaimTime",
        "offset": 0,
        "slot": "4",
        "type": "t_uint256"
      },
      {
        "astId": 2098,
        "contract": "contracts/Vesting.sol:VestingGameStarter",
        "label": "vestStart",
        "offset": 0,
        "slot": "5",
        "type": "t_uint256"
      },
      {
        "astId": 2100,
        "contract": "contracts/Vesting.sol:VestingGameStarter",
        "label": "vestDuration",
        "offset": 0,
        "slot": "6",
        "type": "t_uint256"
      },
      {
        "astId": 2102,
        "contract": "contracts/Vesting.sol:VestingGameStarter",
        "label": "vestInterval",
        "offset": 0,
        "slot": "7",
        "type": "t_uint256"
      },
      {
        "astId": 2112,
        "contract": "contracts/Vesting.sol:VestingGameStarter",
        "label": "allocations",
        "offset": 0,
        "slot": "8",
        "type": "t_mapping(t_address,t_struct(Allocation)2107_storage)"
      }
    ],
    "types": {
      "t_address": {
        "encoding": "inplace",
        "label": "address",
        "numberOfBytes": "20"
      },
      "t_contract(IERC20)239": {
        "encoding": "inplace",
        "label": "contract IERC20",
        "numberOfBytes": "20"
      },
      "t_mapping(t_address,t_struct(Allocation)2107_storage)": {
        "encoding": "mapping",
        "key": "t_address",
        "label": "mapping(address => struct Vesting.Allocation)",
        "numberOfBytes": "32",
        "value": "t_struct(Allocation)2107_storage"
      },
      "t_struct(Allocation)2107_storage": {
        "encoding": "inplace",
        "label": "struct Vesting.Allocation",
        "members": [
          {
            "astId": 2104,
            "contract": "contracts/Vesting.sol:VestingGameStarter",
            "label": "amount",
            "offset": 0,
            "slot": "0",
            "type": "t_uint256"
          },
          {
            "astId": 2106,
            "contract": "contracts/Vesting.sol:VestingGameStarter",
            "label": "released",
            "offset": 0,
            "slot": "1",
            "type": "t_uint256"
          }
        ],
        "numberOfBytes": "64"
      },
      "t_uint256": {
        "encoding": "inplace",
        "label": "uint256",
        "numberOfBytes": "32"
      }
    }
  }
}