{
    "address": "0x34bFACC8117104bdeC330c08F6AcC569141a40D7",
    "abi": [
        {
            "inputs": [
                {
                    "internalType": "address",
                    "name": "_collection",
                    "type": "address"
                }
            ],
            "stateMutability": "nonpayable",
            "type": "constructor"
        },
        {
            "anonymous": false,
            "inputs": [
                {
                    "indexed": true,
                    "internalType": "bytes32",
                    "name": "role",
                    "type": "bytes32"
                },
                {
                    "indexed": true,
                    "internalType": "bytes32",
                    "name": "previousAdminRole",
                    "type": "bytes32"
                },
                {
                    "indexed": true,
                    "internalType": "bytes32",
                    "name": "newAdminRole",
                    "type": "bytes32"
                }
            ],
            "name": "RoleAdminChanged",
            "type": "event"
        },
        {
            "anonymous": false,
            "inputs": [
                {
                    "indexed": true,
                    "internalType": "bytes32",
                    "name": "role",
                    "type": "bytes32"
                },
                {
                    "indexed": true,
                    "internalType": "address",
                    "name": "account",
                    "type": "address"
                },
                {
                    "indexed": true,
                    "internalType": "address",
                    "name": "sender",
                    "type": "address"
                }
            ],
            "name": "RoleGranted",
            "type": "event"
        },
        {
            "anonymous": false,
            "inputs": [
                {
                    "indexed": true,
                    "internalType": "bytes32",
                    "name": "role",
                    "type": "bytes32"
                },
                {
                    "indexed": true,
                    "internalType": "address",
                    "name": "account",
                    "type": "address"
                },
                {
                    "indexed": true,
                    "internalType": "address",
                    "name": "sender",
                    "type": "address"
                }
            ],
            "name": "RoleRevoked",
            "type": "event"
        },
        {
            "anonymous": false,
            "inputs": [
                {
                    "indexed": false,
                    "internalType": "address",
                    "name": "owner",
                    "type": "address"
                },
                {
                    "indexed": false,
                    "internalType": "uint256",
                    "name": "ticketId",
                    "type": "uint256"
                }
            ],
            "name": "TicketBought",
            "type": "event"
        },
        {
            "inputs": [],
            "name": "DEFAULT_ADMIN_ROLE",
            "outputs": [
                {
                    "internalType": "bytes32",
                    "name": "",
                    "type": "bytes32"
                }
            ],
            "stateMutability": "view",
            "type": "function"
        },
        {
            "inputs": [],
            "name": "SETTER_ROLE",
            "outputs": [
                {
                    "internalType": "bytes32",
                    "name": "",
                    "type": "bytes32"
                }
            ],
            "stateMutability": "view",
            "type": "function"
        },
        {
            "inputs": [
                {
                    "internalType": "uint256",
                    "name": "kind",
                    "type": "uint256"
                }
            ],
            "name": "buy",
            "outputs": [],
            "stateMutability": "payable",
            "type": "function"
        },
        {
            "inputs": [
                {
                    "internalType": "address",
                    "name": "buyer",
                    "type": "address"
                }
            ],
            "name": "getBoughtTicketId",
            "outputs": [
                {
                    "internalType": "uint256",
                    "name": "",
                    "type": "uint256"
                }
            ],
            "stateMutability": "view",
            "type": "function"
        },
        {
            "inputs": [
                {
                    "internalType": "uint256",
                    "name": "id",
                    "type": "uint256"
                }
            ],
            "name": "getKind",
            "outputs": [
                {
                    "internalType": "uint256",
                    "name": "",
                    "type": "uint256"
                }
            ],
            "stateMutability": "pure",
            "type": "function"
        },
        {
            "inputs": [
                {
                    "internalType": "bytes32",
                    "name": "role",
                    "type": "bytes32"
                }
            ],
            "name": "getRoleAdmin",
            "outputs": [
                {
                    "internalType": "bytes32",
                    "name": "",
                    "type": "bytes32"
                }
            ],
            "stateMutability": "view",
            "type": "function"
        },
        {
            "inputs": [
                {
                    "internalType": "uint256",
                    "name": "kind",
                    "type": "uint256"
                }
            ],
            "name": "getTicketKindPrice",
            "outputs": [
                {
                    "internalType": "uint256",
                    "name": "",
                    "type": "uint256"
                }
            ],
            "stateMutability": "view",
            "type": "function"
        },
        {
            "inputs": [
                {
                    "internalType": "uint256",
                    "name": "kind",
                    "type": "uint256"
                }
            ],
            "name": "getTicketsLeftByKind",
            "outputs": [
                {
                    "internalType": "uint256",
                    "name": "",
                    "type": "uint256"
                }
            ],
            "stateMutability": "view",
            "type": "function"
        },
        {
            "inputs": [
                {
                    "internalType": "bytes32",
                    "name": "role",
                    "type": "bytes32"
                },
                {
                    "internalType": "address",
                    "name": "account",
                    "type": "address"
                }
            ],
            "name": "grantRole",
            "outputs": [],
            "stateMutability": "nonpayable",
            "type": "function"
        },
        {
            "inputs": [
                {
                    "internalType": "bytes32",
                    "name": "role",
                    "type": "bytes32"
                },
                {
                    "internalType": "address",
                    "name": "account",
                    "type": "address"
                }
            ],
            "name": "hasRole",
            "outputs": [
                {
                    "internalType": "bool",
                    "name": "",
                    "type": "bool"
                }
            ],
            "stateMutability": "view",
            "type": "function"
        },
        {
            "inputs": [
                {
                    "internalType": "address",
                    "name": "operator",
                    "type": "address"
                },
                {
                    "internalType": "address",
                    "name": "from",
                    "type": "address"
                },
                {
                    "internalType": "uint256[]",
                    "name": "ids",
                    "type": "uint256[]"
                },
                {
                    "internalType": "uint256[]",
                    "name": "values",
                    "type": "uint256[]"
                },
                {
                    "internalType": "bytes",
                    "name": "data",
                    "type": "bytes"
                }
            ],
            "name": "onERC1155BatchReceived",
            "outputs": [
                {
                    "internalType": "bytes4",
                    "name": "",
                    "type": "bytes4"
                }
            ],
            "stateMutability": "nonpayable",
            "type": "function"
        },
        {
            "inputs": [
                {
                    "internalType": "address",
                    "name": "operator",
                    "type": "address"
                },
                {
                    "internalType": "address",
                    "name": "from",
                    "type": "address"
                },
                {
                    "internalType": "uint256",
                    "name": "id",
                    "type": "uint256"
                },
                {
                    "internalType": "uint256",
                    "name": "value",
                    "type": "uint256"
                },
                {
                    "internalType": "bytes",
                    "name": "data",
                    "type": "bytes"
                }
            ],
            "name": "onERC1155Received",
            "outputs": [
                {
                    "internalType": "bytes4",
                    "name": "",
                    "type": "bytes4"
                }
            ],
            "stateMutability": "nonpayable",
            "type": "function"
        },
        {
            "inputs": [
                {
                    "internalType": "bytes32",
                    "name": "role",
                    "type": "bytes32"
                },
                {
                    "internalType": "address",
                    "name": "account",
                    "type": "address"
                }
            ],
            "name": "renounceRole",
            "outputs": [],
            "stateMutability": "nonpayable",
            "type": "function"
        },
        {
            "inputs": [
                {
                    "internalType": "bytes32",
                    "name": "role",
                    "type": "bytes32"
                },
                {
                    "internalType": "address",
                    "name": "account",
                    "type": "address"
                }
            ],
            "name": "revokeRole",
            "outputs": [],
            "stateMutability": "nonpayable",
            "type": "function"
        },
        {
            "inputs": [
                {
                    "internalType": "uint256",
                    "name": "kind",
                    "type": "uint256"
                },
                {
                    "internalType": "uint256",
                    "name": "value",
                    "type": "uint256"
                }
            ],
            "name": "setTicketKindPrice",
            "outputs": [],
            "stateMutability": "nonpayable",
            "type": "function"
        },
        {
            "inputs": [
                {
                    "internalType": "bytes4",
                    "name": "interfaceId",
                    "type": "bytes4"
                }
            ],
            "name": "supportsInterface",
            "outputs": [
                {
                    "internalType": "bool",
                    "name": "",
                    "type": "bool"
                }
            ],
            "stateMutability": "view",
            "type": "function"
        }
    ],
    "transactionHash": "0xbc87bf231c501d27ff3e1b9103e5ee0b2b62d938520b7f98a338d115ba2aa12c",
    "args": [
        "0xEF612d98a32fE1b31cA427F2fC8390263FA88F44"
    ],
    "numDeployments": 4,
    "solcInputHash": "571b246648a429931ab4eeb1c3507c68",
    "bytecode": "0x60806040523480156200001157600080fd5b5060405162002771380380620027718339818101604052810190620000379190620004a3565b80600160006101000a81548173ffffffffffffffffffffffffffffffffffffffff021916908373ffffffffffffffffffffffffffffffffffffffff16021790555064174876e80060036000600160009054906101000a900473ffffffffffffffffffffffffffffffffffffffff1673ffffffffffffffffffffffffffffffffffffffff166365a9bf896040518163ffffffff1660e01b8152600401602060405180830381865afa158015620000f0573d6000803e3d6000fd5b505050506040513d601f19601f8201168201806040525081019062000116919062000510565b815260200190815260200160002081905550642e90edd00060036000600160009054906101000a900473ffffffffffffffffffffffffffffffffffffffff1673ffffffffffffffffffffffffffffffffffffffff1663d91a1d7f6040518163ffffffff1660e01b8152600401602060405180830381865afa158015620001a0573d6000803e3d6000fd5b505050506040513d601f19601f82011682018060405250810190620001c6919062000510565b8152602001908152602001600020819055506445d964b80060036000600160009054906101000a900473ffffffffffffffffffffffffffffffffffffffff1673ffffffffffffffffffffffffffffffffffffffff1663528575fd6040518163ffffffff1660e01b8152600401602060405180830381865afa15801562000250573d6000803e3d6000fd5b505050506040513d601f19601f8201168201806040525081019062000276919062000510565b8152602001908152602001600020819055506200029d6000801b33620002d660201b60201c565b620002cf7f61c92169ef077349011ff0b1383c894d86c5f0b41d986366b58a6cf31e93beda33620002d660201b60201c565b5062000542565b620002e88282620003c760201b60201c565b620003c357600160008084815260200190815260200160002060000160008373ffffffffffffffffffffffffffffffffffffffff1673ffffffffffffffffffffffffffffffffffffffff16815260200190815260200160002060006101000a81548160ff021916908315150217905550620003686200043160201b60201c565b73ffffffffffffffffffffffffffffffffffffffff168173ffffffffffffffffffffffffffffffffffffffff16837f2f8788117e7eff1d82e926ec794901d17c78024a50270940304540a733656f0d60405160405180910390a45b5050565b600080600084815260200190815260200160002060000160008373ffffffffffffffffffffffffffffffffffffffff1673ffffffffffffffffffffffffffffffffffffffff16815260200190815260200160002060009054906101000a900460ff16905092915050565b600033905090565b600080fd5b600073ffffffffffffffffffffffffffffffffffffffff82169050919050565b60006200046b826200043e565b9050919050565b6200047d816200045e565b81146200048957600080fd5b50565b6000815190506200049d8162000472565b92915050565b600060208284031215620004bc57620004bb62000439565b5b6000620004cc848285016200048c565b91505092915050565b6000819050919050565b620004ea81620004d5565b8114620004f657600080fd5b50565b6000815190506200050a81620004df565b92915050565b60006020828403121562000529576200052862000439565b5b60006200053984828501620004f9565b91505092915050565b61221f80620005526000396000f3fe6080604052600436106100f35760003560e01c806391d148541161008a578063d547741f11610059578063d547741f14610374578063d96a094a1461039d578063e0735ab7146103b9578063f23a6e61146103f6576100f3565b806391d14854146102a4578063a2011b3f146102e1578063a217fddf1461030c578063bc197c8114610337576100f3565b806336568abe116100c657806336568abe146101c4578063383dd2aa146101ed5780636ca8fede1461022a5780636dd19d0a14610267576100f3565b806301ffc9a7146100f8578063082ec4a814610135578063248a9ca31461015e5780632f2ff15d1461019b575b600080fd5b34801561010457600080fd5b5061011f600480360381019061011a9190611407565b610433565b60405161012c919061144f565b60405180910390f35b34801561014157600080fd5b5061015c600480360381019061015791906114a0565b610445565b005b34801561016a57600080fd5b5061018560048036038101906101809190611516565b6104ca565b6040516101929190611552565b60405180910390f35b3480156101a757600080fd5b506101c260048036038101906101bd91906115cb565b6104e9565b005b3480156101d057600080fd5b506101eb60048036038101906101e691906115cb565b61050a565b005b3480156101f957600080fd5b50610214600480360381019061020f919061160b565b61058d565b6040516102219190611647565b60405180910390f35b34801561023657600080fd5b50610251600480360381019061024c919061160b565b6105f5565b60405161025e9190611647565b60405180910390f35b34801561027357600080fd5b5061028e60048036038101906102899190611662565b610609565b60405161029b9190611647565b60405180910390f35b3480156102b057600080fd5b506102cb60048036038101906102c691906115cb565b610652565b6040516102d8919061144f565b60405180910390f35b3480156102ed57600080fd5b506102f66106bc565b6040516103039190611552565b60405180910390f35b34801561031857600080fd5b506103216106e0565b60405161032e9190611552565b60405180910390f35b34801561034357600080fd5b5061035e6004803603810190610359919061189d565b6106e7565b60405161036b919061197b565b60405180910390f35b34801561038057600080fd5b5061039b600480360381019061039691906115cb565b6107e1565b005b6103b760048036038101906103b2919061160b565b610802565b005b3480156103c557600080fd5b506103e060048036038101906103db919061160b565b610a43565b6040516103ed9190611647565b60405180910390f35b34801561040257600080fd5b5061041d60048036038101906104189190611996565b610aa8565b60405161042a919061197b565b60405180910390f35b600061043e82610b48565b9050919050565b61046f7f61c92169ef077349011ff0b1383c894d86c5f0b41d986366b58a6cf31e93beda33610652565b6104ae576040517f08c379a00000000000000000000000000000000000000000000000000000000081526004016104a590611a8a565b60405180910390fd5b8060036000848152602001908152602001600020819055505050565b6000806000838152602001908152602001600020600101549050919050565b6104f2826104ca565b6104fb81610bc2565b6105058383610bd6565b505050565b610512610cb6565b73ffffffffffffffffffffffffffffffffffffffff168173ffffffffffffffffffffffffffffffffffffffff161461057f576040517f08c379a000000000000000000000000000000000000000000000000000000000815260040161057690611b1c565b60405180910390fd5b6105898282610cbe565b5050565b600061059882610d9f565b6105d7576040517f08c379a00000000000000000000000000000000000000000000000000000000081526004016105ce90611b88565b60405180910390fd5b60026000838152602001908152602001600020805490509050919050565b600060108263ffff000016901c9050919050565b6000600460008373ffffffffffffffffffffffffffffffffffffffff1673ffffffffffffffffffffffffffffffffffffffff168152602001908152602001600020549050919050565b600080600084815260200190815260200160002060000160008373ffffffffffffffffffffffffffffffffffffffff1673ffffffffffffffffffffffffffffffffffffffff16815260200190815260200160002060009054906101000a900460ff16905092915050565b7f61c92169ef077349011ff0b1383c894d86c5f0b41d986366b58a6cf31e93beda81565b6000801b81565b6000600160009054906101000a900473ffffffffffffffffffffffffffffffffffffffff1673ffffffffffffffffffffffffffffffffffffffff163373ffffffffffffffffffffffffffffffffffffffff161461074357600080fd5b60005b84518110156107c75761077a61077586838151811061076857610767611ba8565b5b60200260200101516105f5565b610d9f565b156107a7576107a285828151811061079557610794611ba8565b5b6020026020010151610f6f565b6107b4565b600060e01b9150506107d8565b80806107bf90611c06565b915050610746565b506107d58686868686610fb4565b90505b95945050505050565b6107ea826104ca565b6107f381610bc2565b6107fd8383610cbe565b505050565b61080b81610d9f565b61084a576040517f08c379a000000000000000000000000000000000000000000000000000000000815260040161084190611c9a565b60405180910390fd5b6003600082815260200190815260200160002054341461089f576040517f08c379a000000000000000000000000000000000000000000000000000000000815260040161089690611d2c565b60405180910390fd5b600060026000838152602001908152602001600020600160026000858152602001908152602001600020805490506108d79190611d4c565b815481106108e8576108e7611ba8565b5b906000526020600020015490506002600083815260200190815260200160002080548061091857610917611d80565b5b60019003818190600052602060002001600090559055600160009054906101000a900473ffffffffffffffffffffffffffffffffffffffff1673ffffffffffffffffffffffffffffffffffffffff1663f242432a30338460016040518563ffffffff1660e01b81526004016109909493929190611e3a565b600060405180830381600087803b1580156109aa57600080fd5b505af11580156109be573d6000803e3d6000fd5b5050505080600460003373ffffffffffffffffffffffffffffffffffffffff1673ffffffffffffffffffffffffffffffffffffffff168152602001908152602001600020819055507f985d112c54c7518a49841fc37640d9ded60112ea7370ca9129c8ed33c3607bc73382604051610a37929190611e92565b60405180910390a15050565b6000610a4e82610d9f565b610a8d576040517f08c379a0000000000000000000000000000000000000000000000000000000008152600401610a8490611b88565b60405180910390fd5b60036000838152602001908152602001600020549050919050565b6000600160009054906101000a900473ffffffffffffffffffffffffffffffffffffffff1673ffffffffffffffffffffffffffffffffffffffff163373ffffffffffffffffffffffffffffffffffffffff1614610b0457600080fd5b610b15610b10856105f5565b610d9f565b15610b3757610b2384610f6f565b610b308686868686610fc9565b9050610b3f565b600060e01b90505b95945050505050565b60007f4e2312e0000000000000000000000000000000000000000000000000000000007bffffffffffffffffffffffffffffffffffffffffffffffffffffffff1916827bffffffffffffffffffffffffffffffffffffffffffffffffffffffff19161480610bbb5750610bba82610fde565b5b9050919050565b610bd381610bce610cb6565b611058565b50565b610be08282610652565b610cb257600160008084815260200190815260200160002060000160008373ffffffffffffffffffffffffffffffffffffffff1673ffffffffffffffffffffffffffffffffffffffff16815260200190815260200160002060006101000a81548160ff021916908315150217905550610c57610cb6565b73ffffffffffffffffffffffffffffffffffffffff168173ffffffffffffffffffffffffffffffffffffffff16837f2f8788117e7eff1d82e926ec794901d17c78024a50270940304540a733656f0d60405160405180910390a45b5050565b600033905090565b610cc88282610652565b15610d9b57600080600084815260200190815260200160002060000160008373ffffffffffffffffffffffffffffffffffffffff1673ffffffffffffffffffffffffffffffffffffffff16815260200190815260200160002060006101000a81548160ff021916908315150217905550610d40610cb6565b73ffffffffffffffffffffffffffffffffffffffff168173ffffffffffffffffffffffffffffffffffffffff16837ff6391f5c32d9c69d2a47ea670b442974b53935d1edc7fd64eb21e047a839171b60405160405180910390a45b5050565b6000600160009054906101000a900473ffffffffffffffffffffffffffffffffffffffff1673ffffffffffffffffffffffffffffffffffffffff166365a9bf896040518163ffffffff1660e01b8152600401602060405180830381865afa158015610e0e573d6000803e3d6000fd5b505050506040513d601f19601f82011682018060405250810190610e329190611ed0565b821480610ece5750600160009054906101000a900473ffffffffffffffffffffffffffffffffffffffff1673ffffffffffffffffffffffffffffffffffffffff1663d91a1d7f6040518163ffffffff1660e01b8152600401602060405180830381865afa158015610ea7573d6000803e3d6000fd5b505050506040513d601f19601f82011682018060405250810190610ecb9190611ed0565b82145b80610f685750600160009054906101000a900473ffffffffffffffffffffffffffffffffffffffff1673ffffffffffffffffffffffffffffffffffffffff1663528575fd6040518163ffffffff1660e01b8152600401602060405180830381865afa158015610f41573d6000803e3d6000fd5b505050506040513d601f19601f82011682018060405250810190610f659190611ed0565b82145b9050919050565b60026000610f7c836105f5565b815260200190815260200160002081908060018154018082558091505060019003906000526020600020016000909190919091505550565b600063bc197c8160e01b905095945050505050565b600063f23a6e6160e01b905095945050505050565b60007f7965db0b000000000000000000000000000000000000000000000000000000007bffffffffffffffffffffffffffffffffffffffffffffffffffffffff1916827bffffffffffffffffffffffffffffffffffffffffffffffffffffffff191614806110515750611050826110f5565b5b9050919050565b6110628282610652565b6110f1576110878173ffffffffffffffffffffffffffffffffffffffff16601461115f565b6110958360001c602061115f565b6040516020016110a692919061200f565b6040516020818303038152906040526040517f08c379a00000000000000000000000000000000000000000000000000000000081526004016110e89190612082565b60405180910390fd5b5050565b60007f01ffc9a7000000000000000000000000000000000000000000000000000000007bffffffffffffffffffffffffffffffffffffffffffffffffffffffff1916827bffffffffffffffffffffffffffffffffffffffffffffffffffffffff1916149050919050565b60606000600283600261117291906120a4565b61117c91906120fe565b67ffffffffffffffff811115611195576111946116a5565b5b6040519080825280601f01601f1916602001820160405280156111c75781602001600182028036833780820191505090505b5090507f3000000000000000000000000000000000000000000000000000000000000000816000815181106111ff576111fe611ba8565b5b60200101907effffffffffffffffffffffffffffffffffffffffffffffffffffffffffffff1916908160001a9053507f78000000000000000000000000000000000000000000000000000000000000008160018151811061126357611262611ba8565b5b60200101907effffffffffffffffffffffffffffffffffffffffffffffffffffffffffffff1916908160001a905350600060018460026112a391906120a4565b6112ad91906120fe565b90505b600181111561134d577f3031323334353637383961626364656600000000000000000000000000000000600f8616601081106112ef576112ee611ba8565b5b1a60f81b82828151811061130657611305611ba8565b5b60200101907effffffffffffffffffffffffffffffffffffffffffffffffffffffffffffff1916908160001a905350600485901c94508061134690612154565b90506112b0565b5060008414611391576040517f08c379a0000000000000000000000000000000000000000000000000000000008152600401611388906121c9565b60405180910390fd5b8091505092915050565b6000604051905090565b600080fd5b600080fd5b60007fffffffff0000000000000000000000000000000000000000000000000000000082169050919050565b6113e4816113af565b81146113ef57600080fd5b50565b600081359050611401816113db565b92915050565b60006020828403121561141d5761141c6113a5565b5b600061142b848285016113f2565b91505092915050565b60008115159050919050565b61144981611434565b82525050565b60006020820190506114646000830184611440565b92915050565b6000819050919050565b61147d8161146a565b811461148857600080fd5b50565b60008135905061149a81611474565b92915050565b600080604083850312156114b7576114b66113a5565b5b60006114c58582860161148b565b92505060206114d68582860161148b565b9150509250929050565b6000819050919050565b6114f3816114e0565b81146114fe57600080fd5b50565b600081359050611510816114ea565b92915050565b60006020828403121561152c5761152b6113a5565b5b600061153a84828501611501565b91505092915050565b61154c816114e0565b82525050565b60006020820190506115676000830184611543565b92915050565b600073ffffffffffffffffffffffffffffffffffffffff82169050919050565b60006115988261156d565b9050919050565b6115a88161158d565b81146115b357600080fd5b50565b6000813590506115c58161159f565b92915050565b600080604083850312156115e2576115e16113a5565b5b60006115f085828601611501565b9250506020611601858286016115b6565b9150509250929050565b600060208284031215611621576116206113a5565b5b600061162f8482850161148b565b91505092915050565b6116418161146a565b82525050565b600060208201905061165c6000830184611638565b92915050565b600060208284031215611678576116776113a5565b5b6000611686848285016115b6565b91505092915050565b600080fd5b6000601f19601f8301169050919050565b7f4e487b7100000000000000000000000000000000000000000000000000000000600052604160045260246000fd5b6116dd82611694565b810181811067ffffffffffffffff821117156116fc576116fb6116a5565b5b80604052505050565b600061170f61139b565b905061171b82826116d4565b919050565b600067ffffffffffffffff82111561173b5761173a6116a5565b5b602082029050602081019050919050565b600080fd5b600061176461175f84611720565b611705565b905080838252602082019050602084028301858111156117875761178661174c565b5b835b818110156117b0578061179c888261148b565b845260208401935050602081019050611789565b5050509392505050565b600082601f8301126117cf576117ce61168f565b5b81356117df848260208601611751565b91505092915050565b600080fd5b600067ffffffffffffffff821115611808576118076116a5565b5b61181182611694565b9050602081019050919050565b82818337600083830152505050565b600061184061183b846117ed565b611705565b90508281526020810184848401111561185c5761185b6117e8565b5b61186784828561181e565b509392505050565b600082601f8301126118845761188361168f565b5b813561189484826020860161182d565b91505092915050565b600080600080600060a086880312156118b9576118b86113a5565b5b60006118c7888289016115b6565b95505060206118d8888289016115b6565b945050604086013567ffffffffffffffff8111156118f9576118f86113aa565b5b611905888289016117ba565b935050606086013567ffffffffffffffff811115611926576119256113aa565b5b611932888289016117ba565b925050608086013567ffffffffffffffff811115611953576119526113aa565b5b61195f8882890161186f565b9150509295509295909350565b611975816113af565b82525050565b6000602082019050611990600083018461196c565b92915050565b600080600080600060a086880312156119b2576119b16113a5565b5b60006119c0888289016115b6565b95505060206119d1888289016115b6565b94505060406119e28882890161148b565b93505060606119f38882890161148b565b925050608086013567ffffffffffffffff811115611a1457611a136113aa565b5b611a208882890161186f565b9150509295509295909350565b600082825260208201905092915050565b7f596f752073686f756c642068617665205345545445525f524f4c450000000000600082015250565b6000611a74601b83611a2d565b9150611a7f82611a3e565b602082019050919050565b60006020820190508181036000830152611aa381611a67565b9050919050565b7f416363657373436f6e74726f6c3a2063616e206f6e6c792072656e6f756e636560008201527f20726f6c657320666f722073656c660000000000000000000000000000000000602082015250565b6000611b06602f83611a2d565b9150611b1182611aaa565b604082019050919050565b60006020820190508181036000830152611b3581611af9565b9050919050565b7f4b696e642073686f756c64206265207469636b65740000000000000000000000600082015250565b6000611b72601583611a2d565b9150611b7d82611b3c565b602082019050919050565b60006020820190508181036000830152611ba181611b65565b9050919050565b7f4e487b7100000000000000000000000000000000000000000000000000000000600052603260045260246000fd5b7f4e487b7100000000000000000000000000000000000000000000000000000000600052601160045260246000fd5b6000611c118261146a565b91507fffffffffffffffffffffffffffffffffffffffffffffffffffffffffffffffff8203611c4357611c42611bd7565b5b600182019050919050565b7f50726f7669646564206b696e642073686f756c64206265207469636b65740000600082015250565b6000611c84601e83611a2d565b9150611c8f82611c4e565b602082019050919050565b60006020820190508181036000830152611cb381611c77565b9050919050565b7f42757965722073686f756c642070726f766964652065786163746c792074686560008201527f207072696365206f66207469636b657400000000000000000000000000000000602082015250565b6000611d16603083611a2d565b9150611d2182611cba565b604082019050919050565b60006020820190508181036000830152611d4581611d09565b9050919050565b6000611d578261146a565b9150611d628361146a565b925082821015611d7557611d74611bd7565b5b828203905092915050565b7f4e487b7100000000000000000000000000000000000000000000000000000000600052603160045260246000fd5b611db88161158d565b82525050565b6000819050919050565b6000819050919050565b6000611ded611de8611de384611dbe565b611dc8565b61146a565b9050919050565b611dfd81611dd2565b82525050565b600082825260208201905092915050565b50565b6000611e24600083611e03565b9150611e2f82611e14565b600082019050919050565b600060a082019050611e4f6000830187611daf565b611e5c6020830186611daf565b611e696040830185611638565b611e766060830184611df4565b8181036080830152611e8781611e17565b905095945050505050565b6000604082019050611ea76000830185611daf565b611eb46020830184611638565b9392505050565b600081519050611eca81611474565b92915050565b600060208284031215611ee657611ee56113a5565b5b6000611ef484828501611ebb565b91505092915050565b600081905092915050565b7f416363657373436f6e74726f6c3a206163636f756e7420000000000000000000600082015250565b6000611f3e601783611efd565b9150611f4982611f08565b601782019050919050565b600081519050919050565b60005b83811015611f7d578082015181840152602081019050611f62565b83811115611f8c576000848401525b50505050565b6000611f9d82611f54565b611fa78185611efd565b9350611fb7818560208601611f5f565b80840191505092915050565b7f206973206d697373696e6720726f6c6520000000000000000000000000000000600082015250565b6000611ff9601183611efd565b915061200482611fc3565b601182019050919050565b600061201a82611f31565b91506120268285611f92565b915061203182611fec565b915061203d8284611f92565b91508190509392505050565b600061205482611f54565b61205e8185611a2d565b935061206e818560208601611f5f565b61207781611694565b840191505092915050565b6000602082019050818103600083015261209c8184612049565b905092915050565b60006120af8261146a565b91506120ba8361146a565b9250817fffffffffffffffffffffffffffffffffffffffffffffffffffffffffffffffff04831182151516156120f3576120f2611bd7565b5b828202905092915050565b60006121098261146a565b91506121148361146a565b9250827fffffffffffffffffffffffffffffffffffffffffffffffffffffffffffffffff0382111561214957612148611bd7565b5b828201905092915050565b600061215f8261146a565b91506000820361217257612171611bd7565b5b600182039050919050565b7f537472696e67733a20686578206c656e67746820696e73756666696369656e74600082015250565b60006121b3602083611a2d565b91506121be8261217d565b602082019050919050565b600060208201905081810360008301526121e2816121a6565b905091905056fea2646970667358221220e1dc5790a5743b53517e6a3866f4ef6f7155cb6496e22c6a059dc22b6180f86964736f6c634300080d0033",
    "devdoc": {
        "kind": "dev",
        "methods": {
            "getRoleAdmin(bytes32)": {
                "details": "Returns the admin role that controls `role`. See {grantRole} and {revokeRole}. To change a role's admin, use {_setRoleAdmin}."
            },
            "grantRole(bytes32,address)": {
                "details": "Grants `role` to `account`. If `account` had not been already granted `role`, emits a {RoleGranted} event. Requirements: - the caller must have ``role``'s admin role."
            },
            "hasRole(bytes32,address)": {
                "details": "Returns `true` if `account` has been granted `role`."
            },
            "renounceRole(bytes32,address)": {
                "details": "Revokes `role` from the calling account. Roles are often managed via {grantRole} and {revokeRole}: this function's purpose is to provide a mechanism for accounts to lose their privileges if they are compromised (such as when a trusted device is misplaced). If the calling account had been revoked `role`, emits a {RoleRevoked} event. Requirements: - the caller must be `account`."
            },
            "revokeRole(bytes32,address)": {
                "details": "Revokes `role` from `account`. If `account` had been granted `role`, emits a {RoleRevoked} event. Requirements: - the caller must have ``role``'s admin role."
            }
        },
        "version": 1
    },
    "userdoc": {
        "kind": "user",
        "methods": {},
        "version": 1
    },
    "storageLayout": {
        "storage": [
            {
                "astId": 2582,
                "contract": "contracts/BetaTicketSale.sol:BetaTicketSale",
                "label": "_roles",
                "offset": 0,
                "slot": "0",
                "type": "t_mapping(t_bytes32,t_struct(RoleData)2577_storage)"
            },
            {
                "astId": 3349,
                "contract": "contracts/BetaTicketSale.sol:BetaTicketSale",
                "label": "collection",
                "offset": 0,
                "slot": "1",
                "type": "t_contract(MetarunCollection)4299"
            },
            {
                "astId": 3362,
                "contract": "contracts/BetaTicketSale.sol:BetaTicketSale",
                "label": "tickets",
                "offset": 0,
                "slot": "2",
                "type": "t_mapping(t_uint256,t_array(t_uint256)dyn_storage)"
            },
            {
                "astId": 3366,
                "contract": "contracts/BetaTicketSale.sol:BetaTicketSale",
                "label": "ticketKindPrices",
                "offset": 0,
                "slot": "3",
                "type": "t_mapping(t_uint256,t_uint256)"
            },
            {
                "astId": 3370,
                "contract": "contracts/BetaTicketSale.sol:BetaTicketSale",
                "label": "boughtTicketId",
                "offset": 0,
                "slot": "4",
                "type": "t_mapping(t_address,t_uint256)"
            }
        ],
        "types": {
            "t_address": {
                "encoding": "inplace",
                "label": "address",
                "numberOfBytes": "20"
            },
            "t_array(t_uint256)dyn_storage": {
                "base": "t_uint256",
                "encoding": "dynamic_array",
                "label": "uint256[]",
                "numberOfBytes": "32"
            },
            "t_bool": {
                "encoding": "inplace",
                "label": "bool",
                "numberOfBytes": "1"
            },
            "t_bytes32": {
                "encoding": "inplace",
                "label": "bytes32",
                "numberOfBytes": "32"
            },
            "t_contract(MetarunCollection)4299": {
                "encoding": "inplace",
                "label": "contract MetarunCollection",
                "numberOfBytes": "20"
            },
            "t_mapping(t_address,t_bool)": {
                "encoding": "mapping",
                "key": "t_address",
                "label": "mapping(address => bool)",
                "numberOfBytes": "32",
                "value": "t_bool"
            },
            "t_mapping(t_address,t_uint256)": {
                "encoding": "mapping",
                "key": "t_address",
                "label": "mapping(address => uint256)",
                "numberOfBytes": "32",
                "value": "t_uint256"
            },
            "t_mapping(t_bytes32,t_struct(RoleData)2577_storage)": {
                "encoding": "mapping",
                "key": "t_bytes32",
                "label": "mapping(bytes32 => struct AccessControl.RoleData)",
                "numberOfBytes": "32",
                "value": "t_struct(RoleData)2577_storage"
            },
            "t_mapping(t_uint256,t_array(t_uint256)dyn_storage)": {
                "encoding": "mapping",
                "key": "t_uint256",
                "label": "mapping(uint256 => uint256[])",
                "numberOfBytes": "32",
                "value": "t_array(t_uint256)dyn_storage"
            },
            "t_mapping(t_uint256,t_uint256)": {
                "encoding": "mapping",
                "key": "t_uint256",
                "label": "mapping(uint256 => uint256)",
                "numberOfBytes": "32",
                "value": "t_uint256"
            },
            "t_struct(RoleData)2577_storage": {
                "encoding": "inplace",
                "label": "struct AccessControl.RoleData",
                "members": [
                    {
                        "astId": 2574,
                        "contract": "contracts/BetaTicketSale.sol:BetaTicketSale",
                        "label": "members",
                        "offset": 0,
                        "slot": "0",
                        "type": "t_mapping(t_address,t_bool)"
                    },
                    {
                        "astId": 2576,
                        "contract": "contracts/BetaTicketSale.sol:BetaTicketSale",
                        "label": "adminRole",
                        "offset": 0,
                        "slot": "1",
                        "type": "t_bytes32"
                    }
                ],
                "numberOfBytes": "64"
            },
            "t_uint256": {
                "encoding": "inplace",
                "label": "uint256",
                "numberOfBytes": "32"
            }
        }
    }
}