{
  "address": "0xB788560723086Ef6035D464111d4Cc2739bfb365",
  "abi": [
    {
      "anonymous": false,
      "inputs": [
        {
          "indexed": true,
          "internalType": "bytes32",
          "name": "role",
          "type": "bytes32"
        },
        {
          "indexed": true,
          "internalType": "bytes32",
          "name": "previousAdminRole",
          "type": "bytes32"
        },
        {
          "indexed": true,
          "internalType": "bytes32",
          "name": "newAdminRole",
          "type": "bytes32"
        }
      ],
      "name": "RoleAdminChanged",
      "type": "event"
    },
    {
      "anonymous": false,
      "inputs": [
        {
          "indexed": true,
          "internalType": "bytes32",
          "name": "role",
          "type": "bytes32"
        },
        {
          "indexed": true,
          "internalType": "address",
          "name": "account",
          "type": "address"
        },
        {
          "indexed": true,
          "internalType": "address",
          "name": "sender",
          "type": "address"
        }
      ],
      "name": "RoleGranted",
      "type": "event"
    },
    {
      "anonymous": false,
      "inputs": [
        {
          "indexed": true,
          "internalType": "bytes32",
          "name": "role",
          "type": "bytes32"
        },
        {
          "indexed": true,
          "internalType": "address",
          "name": "account",
          "type": "address"
        },
        {
          "indexed": true,
          "internalType": "address",
          "name": "sender",
          "type": "address"
        }
      ],
      "name": "RoleRevoked",
      "type": "event"
    },
    {
      "anonymous": false,
      "inputs": [
        {
          "indexed": false,
          "internalType": "address",
          "name": "owner",
          "type": "address"
        },
        {
          "indexed": false,
          "internalType": "uint256",
          "name": "ticketId",
          "type": "uint256"
        }
      ],
      "name": "TicketBought",
      "type": "event"
    },
    {
      "inputs": [],
      "name": "DEFAULT_ADMIN_ROLE",
      "outputs": [
        {
          "internalType": "bytes32",
          "name": "",
          "type": "bytes32"
        }
      ],
      "stateMutability": "view",
      "type": "function"
    },
    {
      "inputs": [],
      "name": "SETTER_ROLE",
      "outputs": [
        {
          "internalType": "bytes32",
          "name": "",
          "type": "bytes32"
        }
      ],
      "stateMutability": "view",
      "type": "function"
    },
    {
      "inputs": [
        {
          "internalType": "address",
          "name": "vip",
          "type": "address"
        }
      ],
      "name": "addVip",
      "outputs": [],
      "stateMutability": "nonpayable",
      "type": "function"
    },
    {
      "inputs": [
        {
          "internalType": "uint256",
          "name": "kind",
          "type": "uint256"
        }
      ],
      "name": "buy",
      "outputs": [],
      "stateMutability": "payable",
      "type": "function"
    },
    {
      "inputs": [
        {
          "internalType": "address",
          "name": "buyer",
          "type": "address"
        }
      ],
      "name": "getBoughtTicketId",
      "outputs": [
        {
          "internalType": "uint256",
          "name": "",
          "type": "uint256"
        }
      ],
      "stateMutability": "view",
      "type": "function"
    },
    {
      "inputs": [
        {
          "internalType": "uint256",
          "name": "id",
          "type": "uint256"
        }
      ],
      "name": "getKind",
      "outputs": [
        {
          "internalType": "uint256",
          "name": "",
          "type": "uint256"
        }
      ],
      "stateMutability": "pure",
      "type": "function"
    },
    {
      "inputs": [
        {
          "internalType": "bytes32",
          "name": "role",
          "type": "bytes32"
        }
      ],
      "name": "getRoleAdmin",
      "outputs": [
        {
          "internalType": "bytes32",
          "name": "",
          "type": "bytes32"
        }
      ],
      "stateMutability": "view",
      "type": "function"
    },
    {
      "inputs": [
        {
          "internalType": "uint256",
          "name": "kind",
          "type": "uint256"
        }
      ],
      "name": "getTicketKindPrice",
      "outputs": [
        {
          "internalType": "uint256",
          "name": "",
          "type": "uint256"
        }
      ],
      "stateMutability": "view",
      "type": "function"
    },
    {
      "inputs": [
        {
          "internalType": "uint256",
          "name": "kind",
          "type": "uint256"
        },
        {
          "internalType": "address",
          "name": "user",
          "type": "address"
        }
      ],
      "name": "getTicketsLeftByKind",
      "outputs": [
        {
          "internalType": "uint256",
          "name": "",
          "type": "uint256"
        }
      ],
      "stateMutability": "view",
      "type": "function"
    },
    {
      "inputs": [
        {
          "internalType": "bytes32",
          "name": "role",
          "type": "bytes32"
        },
        {
          "internalType": "address",
          "name": "account",
          "type": "address"
        }
      ],
      "name": "grantRole",
      "outputs": [],
      "stateMutability": "nonpayable",
      "type": "function"
    },
    {
      "inputs": [
        {
          "internalType": "bytes32",
          "name": "role",
          "type": "bytes32"
        },
        {
          "internalType": "address",
          "name": "account",
          "type": "address"
        }
      ],
      "name": "hasRole",
      "outputs": [
        {
          "internalType": "bool",
          "name": "",
          "type": "bool"
        }
      ],
      "stateMutability": "view",
      "type": "function"
    },
    {
      "inputs": [
        {
          "internalType": "address",
          "name": "_collection",
          "type": "address"
        }
      ],
      "name": "initialize",
      "outputs": [],
      "stateMutability": "nonpayable",
      "type": "function"
    },
    {
      "inputs": [
        {
          "internalType": "address",
          "name": "operator",
          "type": "address"
        },
        {
          "internalType": "address",
          "name": "from",
          "type": "address"
        },
        {
          "internalType": "uint256[]",
          "name": "ids",
          "type": "uint256[]"
        },
        {
          "internalType": "uint256[]",
          "name": "values",
          "type": "uint256[]"
        },
        {
          "internalType": "bytes",
          "name": "data",
          "type": "bytes"
        }
      ],
      "name": "onERC1155BatchReceived",
      "outputs": [
        {
          "internalType": "bytes4",
          "name": "",
          "type": "bytes4"
        }
      ],
      "stateMutability": "nonpayable",
      "type": "function"
    },
    {
      "inputs": [
        {
          "internalType": "address",
          "name": "operator",
          "type": "address"
        },
        {
          "internalType": "address",
          "name": "from",
          "type": "address"
        },
        {
          "internalType": "uint256",
          "name": "id",
          "type": "uint256"
        },
        {
          "internalType": "uint256",
          "name": "value",
          "type": "uint256"
        },
        {
          "internalType": "bytes",
          "name": "data",
          "type": "bytes"
        }
      ],
      "name": "onERC1155Received",
      "outputs": [
        {
          "internalType": "bytes4",
          "name": "",
          "type": "bytes4"
        }
      ],
      "stateMutability": "nonpayable",
      "type": "function"
    },
    {
      "inputs": [
        {
          "internalType": "bytes32",
          "name": "role",
          "type": "bytes32"
        },
        {
          "internalType": "address",
          "name": "account",
          "type": "address"
        }
      ],
      "name": "renounceRole",
      "outputs": [],
      "stateMutability": "nonpayable",
      "type": "function"
    },
    {
      "inputs": [
        {
          "internalType": "bytes32",
          "name": "role",
          "type": "bytes32"
        },
        {
          "internalType": "address",
          "name": "account",
          "type": "address"
        }
      ],
      "name": "revokeRole",
      "outputs": [],
      "stateMutability": "nonpayable",
      "type": "function"
    },
    {
      "inputs": [
        {
          "internalType": "uint256",
          "name": "kind",
          "type": "uint256"
        },
        {
          "internalType": "uint256",
          "name": "value",
          "type": "uint256"
        }
      ],
      "name": "setTicketKindPrice",
      "outputs": [],
      "stateMutability": "nonpayable",
      "type": "function"
    },
    {
      "inputs": [
        {
          "internalType": "bytes4",
          "name": "interfaceId",
          "type": "bytes4"
        }
      ],
      "name": "supportsInterface",
      "outputs": [
        {
          "internalType": "bool",
          "name": "",
          "type": "bool"
        }
      ],
      "stateMutability": "view",
      "type": "function"
    },
    {
      "inputs": [
        {
          "internalType": "address payable",
          "name": "payee",
          "type": "address"
        }
      ],
      "name": "withdrawPayments",
      "outputs": [],
      "stateMutability": "payable",
      "type": "function"
    }
  ],
  "transactionHash": "0xbefce535e7d823bfd554048cc63316d07f68ae018f15201b4f5c1e068388619f",
  "args": [],
  "numDeployments": 2,
  "solcInputHash": "1472c22c5422ad45deb83722a5260750",
  "bytecode": "0x608060405234801561001057600080fd5b50612fd3806100206000396000f3fe6080604052600436106101145760003560e01c806391d14854116100a0578063d547741f11610064578063d547741f146103c6578063d96a094a146103ef578063e0735ab71461040b578063f23a6e6114610448578063f56760531461048557610114565b806391d14854146102cd578063a2011b3f1461030a578063a217fddf14610335578063bc197c8114610360578063c4d66de81461039d57610114565b806331b3eb94116100e757806331b3eb94146101e557806336568abe146102015780636ca8fede1461022a5780636dd19d0a146102675780638edd2d95146102a457610114565b806301ffc9a714610119578063082ec4a814610156578063248a9ca31461017f5780632f2ff15d146101bc575b600080fd5b34801561012557600080fd5b50610140600480360381019061013b9190611d38565b6104c2565b60405161014d9190611d80565b60405180910390f35b34801561016257600080fd5b5061017d60048036038101906101789190611dd1565b6104d4565b005b34801561018b57600080fd5b506101a660048036038101906101a19190611e47565b610559565b6040516101b39190611e83565b60405180910390f35b3480156101c857600080fd5b506101e360048036038101906101de9190611efc565b610579565b005b6101ff60048036038101906101fa9190611f7a565b6105a2565b005b34801561020d57600080fd5b5061022860048036038101906102239190611efc565b610698565b005b34801561023657600080fd5b50610251600480360381019061024c9190611fa7565b61071b565b60405161025e9190611fe3565b60405180910390f35b34801561027357600080fd5b5061028e60048036038101906102899190611ffe565b61072f565b60405161029b9190611fe3565b60405180910390f35b3480156102b057600080fd5b506102cb60048036038101906102c69190611ffe565b610778565b005b3480156102d957600080fd5b506102f460048036038101906102ef9190611efc565b6108e8565b6040516103019190611d80565b60405180910390f35b34801561031657600080fd5b5061031f610953565b60405161032c9190611e83565b60405180910390f35b34801561034157600080fd5b5061034a610977565b6040516103579190611e83565b60405180910390f35b34801561036c57600080fd5b5061038760048036038101906103829190612239565b61097e565b6040516103949190612317565b60405180910390f35b3480156103a957600080fd5b506103c460048036038101906103bf9190611ffe565b610a78565b005b3480156103d257600080fd5b506103ed60048036038101906103e89190611efc565b610dec565b005b61040960048036038101906104049190611fa7565b610e15565b005b34801561041757600080fd5b50610432600480360381019061042d9190611fa7565b6111bc565b60405161043f9190611fe3565b60405180910390f35b34801561045457600080fd5b5061046f600480360381019061046a9190612332565b611221565b60405161047c9190612317565b60405180910390f35b34801561049157600080fd5b506104ac60048036038101906104a791906123c9565b6112c1565b6040516104b99190611fe3565b60405180910390f35b60006104cd826113b5565b9050919050565b6104fe7f61c92169ef077349011ff0b1383c894d86c5f0b41d986366b58a6cf31e93beda336108e8565b61053d576040517f08c379a000000000000000000000000000000000000000000000000000000000815260040161053490612466565b60405180910390fd5b8060fd6000848152602001908152602001600020819055505050565b600060656000838152602001908152602001600020600101549050919050565b61058282610559565b6105938161058e61142f565b611437565b61059d83836114d4565b505050565b6105af6000801b336108e8565b6105ee576040517f08c379a00000000000000000000000000000000000000000000000000000000081526004016105e5906124f8565b60405180910390fd5b60003073ffffffffffffffffffffffffffffffffffffffff163190506000810361064d576040517f08c379a000000000000000000000000000000000000000000000000000000000815260040161064490612564565b60405180910390fd5b8173ffffffffffffffffffffffffffffffffffffffff166108fc829081150290604051600060405180830381858888f19350505050158015610693573d6000803e3d6000fd5b505050565b6106a061142f565b73ffffffffffffffffffffffffffffffffffffffff168173ffffffffffffffffffffffffffffffffffffffff161461070d576040517f08c379a0000000000000000000000000000000000000000000000000000000008152600401610704906125f6565b60405180910390fd5b61071782826115b5565b5050565b600060108263ffff000016901c9050919050565b600060fe60008373ffffffffffffffffffffffffffffffffffffffff1673ffffffffffffffffffffffffffffffffffffffff168152602001908152602001600020549050919050565b6107a27f61c92169ef077349011ff0b1383c894d86c5f0b41d986366b58a6cf31e93beda336108e8565b6107e1576040517f08c379a00000000000000000000000000000000000000000000000000000000081526004016107d890612466565b60405180910390fd5b6000151560ff60008373ffffffffffffffffffffffffffffffffffffffff1673ffffffffffffffffffffffffffffffffffffffff16815260200190815260200160002060009054906101000a900460ff16151514610874576040517f08c379a000000000000000000000000000000000000000000000000000000000815260040161086b90612688565b60405180910390fd5b600160ff60008373ffffffffffffffffffffffffffffffffffffffff1673ffffffffffffffffffffffffffffffffffffffff16815260200190815260200160002060006101000a81548160ff02191690831515021790555061010060008154809291906108e0906126d7565b919050555050565b60006065600084815260200190815260200160002060000160008373ffffffffffffffffffffffffffffffffffffffff1673ffffffffffffffffffffffffffffffffffffffff16815260200190815260200160002060009054906101000a900460ff16905092915050565b7f61c92169ef077349011ff0b1383c894d86c5f0b41d986366b58a6cf31e93beda81565b6000801b81565b600060fb60009054906101000a900473ffffffffffffffffffffffffffffffffffffffff1673ffffffffffffffffffffffffffffffffffffffff163373ffffffffffffffffffffffffffffffffffffffff16146109da57600080fd5b60005b8451811015610a5e57610a11610a0c8683815181106109ff576109fe61271f565b5b602002602001015161071b565b611697565b15610a3e57610a39858281518110610a2c57610a2b61271f565b5b6020026020010151611867565b610a4b565b600060e01b915050610a6f565b8080610a56906126d7565b9150506109dd565b50610a6c86868686866118ac565b90505b95945050505050565b600060019054906101000a900460ff16610aa05760008054906101000a900460ff1615610aa9565b610aa86118c1565b5b610ae8576040517f08c379a0000000000000000000000000000000000000000000000000000000008152600401610adf906127c0565b60405180910390fd5b60008060019054906101000a900460ff161590508015610b38576001600060016101000a81548160ff02191690831515021790555060016000806101000a81548160ff0219169083151502179055505b610b406118d2565b610b48611923565b8160fb60006101000a81548173ffffffffffffffffffffffffffffffffffffffff021916908373ffffffffffffffffffffffffffffffffffffffff16021790555064174876e80060fd600060fb60009054906101000a900473ffffffffffffffffffffffffffffffffffffffff1673ffffffffffffffffffffffffffffffffffffffff166365a9bf896040518163ffffffff1660e01b8152600401602060405180830381865afa158015610c00573d6000803e3d6000fd5b505050506040513d601f19601f82011682018060405250810190610c2491906127f5565b815260200190815260200160002081905550642e90edd00060fd600060fb60009054906101000a900473ffffffffffffffffffffffffffffffffffffffff1673ffffffffffffffffffffffffffffffffffffffff1663d91a1d7f6040518163ffffffff1660e01b8152600401602060405180830381865afa158015610cad573d6000803e3d6000fd5b505050506040513d601f19601f82011682018060405250810190610cd191906127f5565b8152602001908152602001600020819055506445d964b80060fd600060fb60009054906101000a900473ffffffffffffffffffffffffffffffffffffffff1673ffffffffffffffffffffffffffffffffffffffff1663528575fd6040518163ffffffff1660e01b8152600401602060405180830381865afa158015610d5a573d6000803e3d6000fd5b505050506040513d601f19601f82011682018060405250810190610d7e91906127f5565b815260200190815260200160002081905550610d9d6000801b336114d4565b610dc77f61c92169ef077349011ff0b1383c894d86c5f0b41d986366b58a6cf31e93beda336114d4565b8015610de85760008060016101000a81548160ff0219169083151502179055505b5050565b610df582610559565b610e0681610e0161142f565b611437565b610e1083836115b5565b505050565b610e1e81611697565b610e5d576040517f08c379a0000000000000000000000000000000000000000000000000000000008152600401610e549061286e565b60405180910390fd5b60fd6000828152602001908152602001600020543414610eb2576040517f08c379a0000000000000000000000000000000000000000000000000000000008152600401610ea990612900565b60405180910390fd5b600060fe60003373ffffffffffffffffffffffffffffffffffffffff1673ffffffffffffffffffffffffffffffffffffffff1681526020019081526020016000205414610f34576040517f08c379a0000000000000000000000000000000000000000000000000000000008152600401610f2b90612992565b60405180910390fd5b600060fc6000838152602001908152602001600020600160fc600085815260200190815260200160002080549050610f6c91906129b2565b81548110610f7d57610f7c61271f565b5b906000526020600020015490506001151560ff60003373ffffffffffffffffffffffffffffffffffffffff1673ffffffffffffffffffffffffffffffffffffffff16815260200190815260200160002060009054906101000a900460ff16151503611000576101006000815480929190610ff6906129e6565b919050555061106e565b60006101005460fc60008581526020019081526020016000208054905061102791906129b2565b90506000811161106c576040517f08c379a000000000000000000000000000000000000000000000000000000000815260040161106390612a81565b60405180910390fd5b505b60fc600083815260200190815260200160002080548061109157611090612aa1565b5b6001900381819060005260206000200160009055905560fb60009054906101000a900473ffffffffffffffffffffffffffffffffffffffff1673ffffffffffffffffffffffffffffffffffffffff1663f242432a30338460016040518563ffffffff1660e01b81526004016111099493929190612b5b565b600060405180830381600087803b15801561112357600080fd5b505af1158015611137573d6000803e3d6000fd5b505050508060fe60003373ffffffffffffffffffffffffffffffffffffffff1673ffffffffffffffffffffffffffffffffffffffff168152602001908152602001600020819055507f985d112c54c7518a49841fc37640d9ded60112ea7370ca9129c8ed33c3607bc733826040516111b0929190612bb3565b60405180910390a15050565b60006111c782611697565b611206576040517f08c379a00000000000000000000000000000000000000000000000000000000081526004016111fd90612c28565b60405180910390fd5b60fd6000838152602001908152602001600020549050919050565b600060fb60009054906101000a900473ffffffffffffffffffffffffffffffffffffffff1673ffffffffffffffffffffffffffffffffffffffff163373ffffffffffffffffffffffffffffffffffffffff161461127d57600080fd5b61128e6112898561071b565b611697565b156112b05761129c84611867565b6112a98686868686611974565b90506112b8565b600060e01b90505b95945050505050565b60006112cc83611697565b61130b576040517f08c379a000000000000000000000000000000000000000000000000000000000815260040161130290612c28565b60405180910390fd5b60006001151560ff60008573ffffffffffffffffffffffffffffffffffffffff1673ffffffffffffffffffffffffffffffffffffffff16815260200190815260200160002060009054906101000a900460ff161515036113835760fc60008581526020019081526020016000208054905090506113ab565b6101005460fc6000868152602001908152602001600020805490506113a891906129b2565b90505b8091505092915050565b60007f4e2312e0000000000000000000000000000000000000000000000000000000007bffffffffffffffffffffffffffffffffffffffffffffffffffffffff1916827bffffffffffffffffffffffffffffffffffffffffffffffffffffffff19161480611428575061142782611989565b5b9050919050565b600033905090565b61144182826108e8565b6114d0576114668173ffffffffffffffffffffffffffffffffffffffff166014611a03565b6114748360001c6020611a03565b604051602001611485929190612d5a565b6040516020818303038152906040526040517f08c379a00000000000000000000000000000000000000000000000000000000081526004016114c79190612dcd565b60405180910390fd5b5050565b6114de82826108e8565b6115b15760016065600084815260200190815260200160002060000160008373ffffffffffffffffffffffffffffffffffffffff1673ffffffffffffffffffffffffffffffffffffffff16815260200190815260200160002060006101000a81548160ff02191690831515021790555061155661142f565b73ffffffffffffffffffffffffffffffffffffffff168173ffffffffffffffffffffffffffffffffffffffff16837f2f8788117e7eff1d82e926ec794901d17c78024a50270940304540a733656f0d60405160405180910390a45b5050565b6115bf82826108e8565b156116935760006065600084815260200190815260200160002060000160008373ffffffffffffffffffffffffffffffffffffffff1673ffffffffffffffffffffffffffffffffffffffff16815260200190815260200160002060006101000a81548160ff02191690831515021790555061163861142f565b73ffffffffffffffffffffffffffffffffffffffff168173ffffffffffffffffffffffffffffffffffffffff16837ff6391f5c32d9c69d2a47ea670b442974b53935d1edc7fd64eb21e047a839171b60405160405180910390a45b5050565b600060fb60009054906101000a900473ffffffffffffffffffffffffffffffffffffffff1673ffffffffffffffffffffffffffffffffffffffff166365a9bf896040518163ffffffff1660e01b8152600401602060405180830381865afa158015611706573d6000803e3d6000fd5b505050506040513d601f19601f8201168201806040525081019061172a91906127f5565b8214806117c6575060fb60009054906101000a900473ffffffffffffffffffffffffffffffffffffffff1673ffffffffffffffffffffffffffffffffffffffff1663d91a1d7f6040518163ffffffff1660e01b8152600401602060405180830381865afa15801561179f573d6000803e3d6000fd5b505050506040513d601f19601f820116820180604052508101906117c391906127f5565b82145b80611860575060fb60009054906101000a900473ffffffffffffffffffffffffffffffffffffffff1673ffffffffffffffffffffffffffffffffffffffff1663528575fd6040518163ffffffff1660e01b8152600401602060405180830381865afa158015611839573d6000803e3d6000fd5b505050506040513d601f19601f8201168201806040525081019061185d91906127f5565b82145b9050919050565b60fc60006118748361071b565b815260200190815260200160002081908060018154018082558091505060019003906000526020600020016000909190919091505550565b600063bc197c8160e01b905095945050505050565b60006118cc30611c3f565b15905090565b600060019054906101000a900460ff16611921576040517f08c379a000000000000000000000000000000000000000000000000000000000815260040161191890612e61565b60405180910390fd5b565b600060019054906101000a900460ff16611972576040517f08c379a000000000000000000000000000000000000000000000000000000000815260040161196990612e61565b60405180910390fd5b565b600063f23a6e6160e01b905095945050505050565b60007f7965db0b000000000000000000000000000000000000000000000000000000007bffffffffffffffffffffffffffffffffffffffffffffffffffffffff1916827bffffffffffffffffffffffffffffffffffffffffffffffffffffffff191614806119fc57506119fb82611c62565b5b9050919050565b606060006002836002611a169190612e81565b611a209190612edb565b67ffffffffffffffff811115611a3957611a38612041565b5b6040519080825280601f01601f191660200182016040528015611a6b5781602001600182028036833780820191505090505b5090507f300000000000000000000000000000000000000000000000000000000000000081600081518110611aa357611aa261271f565b5b60200101907effffffffffffffffffffffffffffffffffffffffffffffffffffffffffffff1916908160001a9053507f780000000000000000000000000000000000000000000000000000000000000081600181518110611b0757611b0661271f565b5b60200101907effffffffffffffffffffffffffffffffffffffffffffffffffffffffffffff1916908160001a90535060006001846002611b479190612e81565b611b519190612edb565b90505b6001811115611bf1577f3031323334353637383961626364656600000000000000000000000000000000600f861660108110611b9357611b9261271f565b5b1a60f81b828281518110611baa57611ba961271f565b5b60200101907effffffffffffffffffffffffffffffffffffffffffffffffffffffffffffff1916908160001a905350600485901c945080611bea906129e6565b9050611b54565b5060008414611c35576040517f08c379a0000000000000000000000000000000000000000000000000000000008152600401611c2c90612f7d565b60405180910390fd5b8091505092915050565b6000808273ffffffffffffffffffffffffffffffffffffffff163b119050919050565b60007f01ffc9a7000000000000000000000000000000000000000000000000000000007bffffffffffffffffffffffffffffffffffffffffffffffffffffffff1916827bffffffffffffffffffffffffffffffffffffffffffffffffffffffff1916149050919050565b6000604051905090565b600080fd5b600080fd5b60007fffffffff0000000000000000000000000000000000000000000000000000000082169050919050565b611d1581611ce0565b8114611d2057600080fd5b50565b600081359050611d3281611d0c565b92915050565b600060208284031215611d4e57611d4d611cd6565b5b6000611d5c84828501611d23565b91505092915050565b60008115159050919050565b611d7a81611d65565b82525050565b6000602082019050611d956000830184611d71565b92915050565b6000819050919050565b611dae81611d9b565b8114611db957600080fd5b50565b600081359050611dcb81611da5565b92915050565b60008060408385031215611de857611de7611cd6565b5b6000611df685828601611dbc565b9250506020611e0785828601611dbc565b9150509250929050565b6000819050919050565b611e2481611e11565b8114611e2f57600080fd5b50565b600081359050611e4181611e1b565b92915050565b600060208284031215611e5d57611e5c611cd6565b5b6000611e6b84828501611e32565b91505092915050565b611e7d81611e11565b82525050565b6000602082019050611e986000830184611e74565b92915050565b600073ffffffffffffffffffffffffffffffffffffffff82169050919050565b6000611ec982611e9e565b9050919050565b611ed981611ebe565b8114611ee457600080fd5b50565b600081359050611ef681611ed0565b92915050565b60008060408385031215611f1357611f12611cd6565b5b6000611f2185828601611e32565b9250506020611f3285828601611ee7565b9150509250929050565b6000611f4782611e9e565b9050919050565b611f5781611f3c565b8114611f6257600080fd5b50565b600081359050611f7481611f4e565b92915050565b600060208284031215611f9057611f8f611cd6565b5b6000611f9e84828501611f65565b91505092915050565b600060208284031215611fbd57611fbc611cd6565b5b6000611fcb84828501611dbc565b91505092915050565b611fdd81611d9b565b82525050565b6000602082019050611ff86000830184611fd4565b92915050565b60006020828403121561201457612013611cd6565b5b600061202284828501611ee7565b91505092915050565b600080fd5b6000601f19601f8301169050919050565b7f4e487b7100000000000000000000000000000000000000000000000000000000600052604160045260246000fd5b61207982612030565b810181811067ffffffffffffffff8211171561209857612097612041565b5b80604052505050565b60006120ab611ccc565b90506120b78282612070565b919050565b600067ffffffffffffffff8211156120d7576120d6612041565b5b602082029050602081019050919050565b600080fd5b60006121006120fb846120bc565b6120a1565b90508083825260208201905060208402830185811115612123576121226120e8565b5b835b8181101561214c57806121388882611dbc565b845260208401935050602081019050612125565b5050509392505050565b600082601f83011261216b5761216a61202b565b5b813561217b8482602086016120ed565b91505092915050565b600080fd5b600067ffffffffffffffff8211156121a4576121a3612041565b5b6121ad82612030565b9050602081019050919050565b82818337600083830152505050565b60006121dc6121d784612189565b6120a1565b9050828152602081018484840111156121f8576121f7612184565b5b6122038482856121ba565b509392505050565b600082601f8301126122205761221f61202b565b5b81356122308482602086016121c9565b91505092915050565b600080600080600060a0868803121561225557612254611cd6565b5b600061226388828901611ee7565b955050602061227488828901611ee7565b945050604086013567ffffffffffffffff81111561229557612294611cdb565b5b6122a188828901612156565b935050606086013567ffffffffffffffff8111156122c2576122c1611cdb565b5b6122ce88828901612156565b925050608086013567ffffffffffffffff8111156122ef576122ee611cdb565b5b6122fb8882890161220b565b9150509295509295909350565b61231181611ce0565b82525050565b600060208201905061232c6000830184612308565b92915050565b600080600080600060a0868803121561234e5761234d611cd6565b5b600061235c88828901611ee7565b955050602061236d88828901611ee7565b945050604061237e88828901611dbc565b935050606061238f88828901611dbc565b925050608086013567ffffffffffffffff8111156123b0576123af611cdb565b5b6123bc8882890161220b565b9150509295509295909350565b600080604083850312156123e0576123df611cd6565b5b60006123ee85828601611dbc565b92505060206123ff85828601611ee7565b9150509250929050565b600082825260208201905092915050565b7f596f752073686f756c642068617665205345545445525f524f4c450000000000600082015250565b6000612450601b83612409565b915061245b8261241a565b602082019050919050565b6000602082019050818103600083015261247f81612443565b9050919050565b7f596f752073686f756c6420686176652044454641554c545f41444d494e5f524f60008201527f4c45000000000000000000000000000000000000000000000000000000000000602082015250565b60006124e2602283612409565b91506124ed82612486565b604082019050919050565b60006020820190508181036000830152612511816124d5565b9050919050565b7f5a65726f2062616c616e63650000000000000000000000000000000000000000600082015250565b600061254e600c83612409565b915061255982612518565b602082019050919050565b6000602082019050818103600083015261257d81612541565b9050919050565b7f416363657373436f6e74726f6c3a2063616e206f6e6c792072656e6f756e636560008201527f20726f6c657320666f722073656c660000000000000000000000000000000000602082015250565b60006125e0602f83612409565b91506125eb82612584565b604082019050919050565b6000602082019050818103600083015261260f816125d3565b9050919050565b7f4164647265737320616c72656164792065786973747320696e2074686520564960008201527f50206c6973740000000000000000000000000000000000000000000000000000602082015250565b6000612672602683612409565b915061267d82612616565b604082019050919050565b600060208201905081810360008301526126a181612665565b9050919050565b7f4e487b7100000000000000000000000000000000000000000000000000000000600052601160045260246000fd5b60006126e282611d9b565b91507fffffffffffffffffffffffffffffffffffffffffffffffffffffffffffffffff8203612714576127136126a8565b5b600182019050919050565b7f4e487b7100000000000000000000000000000000000000000000000000000000600052603260045260246000fd5b7f496e697469616c697a61626c653a20636f6e747261637420697320616c72656160008201527f647920696e697469616c697a6564000000000000000000000000000000000000602082015250565b60006127aa602e83612409565b91506127b58261274e565b604082019050919050565b600060208201905081810360008301526127d98161279d565b9050919050565b6000815190506127ef81611da5565b92915050565b60006020828403121561280b5761280a611cd6565b5b6000612819848285016127e0565b91505092915050565b7f50726f7669646564206b696e642073686f756c64206265207469636b65740000600082015250565b6000612858601e83612409565b915061286382612822565b602082019050919050565b600060208201905081810360008301526128878161284b565b9050919050565b7f42757965722073686f756c642070726f766964652065786163746c792074686560008201527f207072696365206f66207469636b657400000000000000000000000000000000602082015250565b60006128ea603083612409565b91506128f58261288e565b604082019050919050565b60006020820190508181036000830152612919816128dd565b9050919050565b7f42757965722073686f756c64206e6f74206275792061207469636b657420626560008201527f666f726500000000000000000000000000000000000000000000000000000000602082015250565b600061297c602483612409565b915061298782612920565b604082019050919050565b600060208201905081810360008301526129ab8161296f565b9050919050565b60006129bd82611d9b565b91506129c883611d9b565b9250828210156129db576129da6126a8565b5b828203905092915050565b60006129f182611d9b565b915060008203612a0457612a036126a8565b5b600182039050919050565b7f4e6f7420656e6f756768207469636b657473206f6e20636f6e7472616374206260008201527f616c616e63650000000000000000000000000000000000000000000000000000602082015250565b6000612a6b602683612409565b9150612a7682612a0f565b604082019050919050565b60006020820190508181036000830152612a9a81612a5e565b9050919050565b7f4e487b7100000000000000000000000000000000000000000000000000000000600052603160045260246000fd5b612ad981611ebe565b82525050565b6000819050919050565b6000819050919050565b6000612b0e612b09612b0484612adf565b612ae9565b611d9b565b9050919050565b612b1e81612af3565b82525050565b600082825260208201905092915050565b50565b6000612b45600083612b24565b9150612b5082612b35565b600082019050919050565b600060a082019050612b706000830187612ad0565b612b7d6020830186612ad0565b612b8a6040830185611fd4565b612b976060830184612b15565b8181036080830152612ba881612b38565b905095945050505050565b6000604082019050612bc86000830185612ad0565b612bd56020830184611fd4565b9392505050565b7f4b696e642073686f756c64206265207469636b65740000000000000000000000600082015250565b6000612c12601583612409565b9150612c1d82612bdc565b602082019050919050565b60006020820190508181036000830152612c4181612c05565b9050919050565b600081905092915050565b7f416363657373436f6e74726f6c3a206163636f756e7420000000000000000000600082015250565b6000612c89601783612c48565b9150612c9482612c53565b601782019050919050565b600081519050919050565b60005b83811015612cc8578082015181840152602081019050612cad565b83811115612cd7576000848401525b50505050565b6000612ce882612c9f565b612cf28185612c48565b9350612d02818560208601612caa565b80840191505092915050565b7f206973206d697373696e6720726f6c6520000000000000000000000000000000600082015250565b6000612d44601183612c48565b9150612d4f82612d0e565b601182019050919050565b6000612d6582612c7c565b9150612d718285612cdd565b9150612d7c82612d37565b9150612d888284612cdd565b91508190509392505050565b6000612d9f82612c9f565b612da98185612409565b9350612db9818560208601612caa565b612dc281612030565b840191505092915050565b60006020820190508181036000830152612de78184612d94565b905092915050565b7f496e697469616c697a61626c653a20636f6e7472616374206973206e6f74206960008201527f6e697469616c697a696e67000000000000000000000000000000000000000000602082015250565b6000612e4b602b83612409565b9150612e5682612def565b604082019050919050565b60006020820190508181036000830152612e7a81612e3e565b9050919050565b6000612e8c82611d9b565b9150612e9783611d9b565b9250817fffffffffffffffffffffffffffffffffffffffffffffffffffffffffffffffff0483118215151615612ed057612ecf6126a8565b5b828202905092915050565b6000612ee682611d9b565b9150612ef183611d9b565b9250827fffffffffffffffffffffffffffffffffffffffffffffffffffffffffffffffff03821115612f2657612f256126a8565b5b828201905092915050565b7f537472696e67733a20686578206c656e67746820696e73756666696369656e74600082015250565b6000612f67602083612409565b9150612f7282612f31565b602082019050919050565b60006020820190508181036000830152612f9681612f5a565b905091905056fea2646970667358221220dffc230e4c5e869f3b4986da154049e541578cbfc5eab401d01ed5585316720464736f6c634300080d0033",
  "devdoc": {
    "kind": "dev",
    "methods": {
      "getRoleAdmin(bytes32)": {
        "details": "Returns the admin role that controls `role`. See {grantRole} and {revokeRole}. To change a role's admin, use {_setRoleAdmin}."
      },
      "grantRole(bytes32,address)": {
        "details": "Grants `role` to `account`. If `account` had not been already granted `role`, emits a {RoleGranted} event. Requirements: - the caller must have ``role``'s admin role."
      },
      "hasRole(bytes32,address)": {
        "details": "Returns `true` if `account` has been granted `role`."
      },
      "renounceRole(bytes32,address)": {
        "details": "Revokes `role` from the calling account. Roles are often managed via {grantRole} and {revokeRole}: this function's purpose is to provide a mechanism for accounts to lose their privileges if they are compromised (such as when a trusted device is misplaced). If the calling account had been revoked `role`, emits a {RoleRevoked} event. Requirements: - the caller must be `account`."
      },
      "revokeRole(bytes32,address)": {
        "details": "Revokes `role` from `account`. If `account` had been granted `role`, emits a {RoleRevoked} event. Requirements: - the caller must have ``role``'s admin role."
      }
    },
    "version": 1
  },
  "userdoc": {
    "kind": "user",
    "methods": {},
    "version": 1
  },
  "storageLayout": {
    "storage": [
      {
        "astId": 532,
        "contract": "contracts/BetaTicketSale.sol:BetaTicketSale",
        "label": "_initialized",
        "offset": 0,
        "slot": "0",
        "type": "t_bool"
      },
      {
        "astId": 535,
        "contract": "contracts/BetaTicketSale.sol:BetaTicketSale",
        "label": "_initializing",
        "offset": 1,
        "slot": "0",
        "type": "t_bool"
      },
      {
        "astId": 2848,
        "contract": "contracts/BetaTicketSale.sol:BetaTicketSale",
        "label": "__gap",
        "offset": 0,
        "slot": "1",
        "type": "t_array(t_uint256)50_storage"
      },
      {
        "astId": 3652,
        "contract": "contracts/BetaTicketSale.sol:BetaTicketSale",
        "label": "__gap",
        "offset": 0,
        "slot": "51",
        "type": "t_array(t_uint256)50_storage"
      },
      {
        "astId": 39,
        "contract": "contracts/BetaTicketSale.sol:BetaTicketSale",
        "label": "_roles",
        "offset": 0,
        "slot": "101",
        "type": "t_mapping(t_bytes32,t_struct(RoleData)34_storage)"
      },
      {
        "astId": 327,
        "contract": "contracts/BetaTicketSale.sol:BetaTicketSale",
        "label": "__gap",
        "offset": 0,
        "slot": "102",
        "type": "t_array(t_uint256)49_storage"
      },
      {
        "astId": 2261,
        "contract": "contracts/BetaTicketSale.sol:BetaTicketSale",
        "label": "__gap",
        "offset": 0,
        "slot": "151",
        "type": "t_array(t_uint256)50_storage"
      },
      {
        "astId": 2207,
        "contract": "contracts/BetaTicketSale.sol:BetaTicketSale",
        "label": "__gap",
        "offset": 0,
        "slot": "201",
        "type": "t_array(t_uint256)50_storage"
      },
      {
        "astId": 6000,
        "contract": "contracts/BetaTicketSale.sol:BetaTicketSale",
        "label": "collection",
        "offset": 0,
        "slot": "251",
        "type": "t_contract(MetarunCollection)7874"
      },
      {
        "astId": 6013,
        "contract": "contracts/BetaTicketSale.sol:BetaTicketSale",
        "label": "tickets",
        "offset": 0,
        "slot": "252",
        "type": "t_mapping(t_uint256,t_array(t_uint256)dyn_storage)"
      },
      {
        "astId": 6017,
        "contract": "contracts/BetaTicketSale.sol:BetaTicketSale",
        "label": "ticketKindPrices",
        "offset": 0,
        "slot": "253",
        "type": "t_mapping(t_uint256,t_uint256)"
      },
      {
        "astId": 6021,
        "contract": "contracts/BetaTicketSale.sol:BetaTicketSale",
        "label": "boughtTicketId",
        "offset": 0,
        "slot": "254",
        "type": "t_mapping(t_address,t_uint256)"
      },
      {
        "astId": 6025,
        "contract": "contracts/BetaTicketSale.sol:BetaTicketSale",
        "label": "vipList",
        "offset": 0,
        "slot": "255",
        "type": "t_mapping(t_address,t_bool)"
      },
      {
        "astId": 6027,
        "contract": "contracts/BetaTicketSale.sol:BetaTicketSale",
        "label": "availableVipTickets",
        "offset": 0,
        "slot": "256",
        "type": "t_uint256"
      }
    ],
    "types": {
      "t_address": {
        "encoding": "inplace",
        "label": "address",
        "numberOfBytes": "20"
      },
      "t_array(t_uint256)49_storage": {
        "base": "t_uint256",
        "encoding": "inplace",
        "label": "uint256[49]",
        "numberOfBytes": "1568"
      },
      "t_array(t_uint256)50_storage": {
        "base": "t_uint256",
        "encoding": "inplace",
        "label": "uint256[50]",
        "numberOfBytes": "1600"
      },
      "t_array(t_uint256)dyn_storage": {
        "base": "t_uint256",
        "encoding": "dynamic_array",
        "label": "uint256[]",
        "numberOfBytes": "32"
      },
      "t_bool": {
        "encoding": "inplace",
        "label": "bool",
        "numberOfBytes": "1"
      },
      "t_bytes32": {
        "encoding": "inplace",
        "label": "bytes32",
        "numberOfBytes": "32"
      },
      "t_contract(MetarunCollection)7874": {
        "encoding": "inplace",
        "label": "contract MetarunCollection",
        "numberOfBytes": "20"
      },
      "t_mapping(t_address,t_bool)": {
        "encoding": "mapping",
        "key": "t_address",
        "label": "mapping(address => bool)",
        "numberOfBytes": "32",
        "value": "t_bool"
      },
      "t_mapping(t_address,t_uint256)": {
        "encoding": "mapping",
        "key": "t_address",
        "label": "mapping(address => uint256)",
        "numberOfBytes": "32",
        "value": "t_uint256"
      },
      "t_mapping(t_bytes32,t_struct(RoleData)34_storage)": {
        "encoding": "mapping",
        "key": "t_bytes32",
        "label": "mapping(bytes32 => struct AccessControlUpgradeable.RoleData)",
        "numberOfBytes": "32",
        "value": "t_struct(RoleData)34_storage"
      },
      "t_mapping(t_uint256,t_array(t_uint256)dyn_storage)": {
        "encoding": "mapping",
        "key": "t_uint256",
        "label": "mapping(uint256 => uint256[])",
        "numberOfBytes": "32",
        "value": "t_array(t_uint256)dyn_storage"
      },
      "t_mapping(t_uint256,t_uint256)": {
        "encoding": "mapping",
        "key": "t_uint256",
        "label": "mapping(uint256 => uint256)",
        "numberOfBytes": "32",
        "value": "t_uint256"
      },
      "t_struct(RoleData)34_storage": {
        "encoding": "inplace",
        "label": "struct AccessControlUpgradeable.RoleData",
        "members": [
          {
            "astId": 31,
            "contract": "contracts/BetaTicketSale.sol:BetaTicketSale",
            "label": "members",
            "offset": 0,
            "slot": "0",
            "type": "t_mapping(t_address,t_bool)"
          },
          {
            "astId": 33,
            "contract": "contracts/BetaTicketSale.sol:BetaTicketSale",
            "label": "adminRole",
            "offset": 0,
            "slot": "1",
            "type": "t_bytes32"
          }
        ],
        "numberOfBytes": "64"
      },
      "t_uint256": {
        "encoding": "inplace",
        "label": "uint256",
        "numberOfBytes": "32"
      }
    }
  }
}