{
  "address": "0xCed09942901C3f2Cc7ac87f6330f92f568050887",
  "abi": [
    {
      "anonymous": false,
      "inputs": [
        {
          "indexed": true,
          "internalType": "bytes32",
          "name": "role",
          "type": "bytes32"
        },
        {
          "indexed": true,
          "internalType": "bytes32",
          "name": "previousAdminRole",
          "type": "bytes32"
        },
        {
          "indexed": true,
          "internalType": "bytes32",
          "name": "newAdminRole",
          "type": "bytes32"
        }
      ],
      "name": "RoleAdminChanged",
      "type": "event"
    },
    {
      "anonymous": false,
      "inputs": [
        {
          "indexed": true,
          "internalType": "bytes32",
          "name": "role",
          "type": "bytes32"
        },
        {
          "indexed": true,
          "internalType": "address",
          "name": "account",
          "type": "address"
        },
        {
          "indexed": true,
          "internalType": "address",
          "name": "sender",
          "type": "address"
        }
      ],
      "name": "RoleGranted",
      "type": "event"
    },
    {
      "anonymous": false,
      "inputs": [
        {
          "indexed": true,
          "internalType": "bytes32",
          "name": "role",
          "type": "bytes32"
        },
        {
          "indexed": true,
          "internalType": "address",
          "name": "account",
          "type": "address"
        },
        {
          "indexed": true,
          "internalType": "address",
          "name": "sender",
          "type": "address"
        }
      ],
      "name": "RoleRevoked",
      "type": "event"
    },
    {
      "anonymous": false,
      "inputs": [
        {
          "indexed": false,
          "internalType": "address",
          "name": "owner",
          "type": "address"
        },
        {
          "indexed": false,
          "internalType": "uint256",
          "name": "ticketId",
          "type": "uint256"
        }
      ],
      "name": "TicketBought",
      "type": "event"
    },
    {
      "inputs": [],
      "name": "DEFAULT_ADMIN_ROLE",
      "outputs": [
        {
          "internalType": "bytes32",
          "name": "",
          "type": "bytes32"
        }
      ],
      "stateMutability": "view",
      "type": "function"
    },
    {
      "inputs": [],
      "name": "SETTER_ROLE",
      "outputs": [
        {
          "internalType": "bytes32",
          "name": "",
          "type": "bytes32"
        }
      ],
      "stateMutability": "view",
      "type": "function"
    },
    {
      "inputs": [
        {
          "internalType": "address",
          "name": "vip",
          "type": "address"
        }
      ],
      "name": "addVip",
      "outputs": [],
      "stateMutability": "nonpayable",
      "type": "function"
    },
    {
      "inputs": [
        {
          "internalType": "uint256",
          "name": "kind",
          "type": "uint256"
        }
      ],
      "name": "buy",
      "outputs": [],
      "stateMutability": "payable",
      "type": "function"
    },
    {
      "inputs": [
        {
          "internalType": "address",
          "name": "buyer",
          "type": "address"
        }
      ],
      "name": "getBoughtTicketId",
      "outputs": [
        {
          "internalType": "uint256",
          "name": "",
          "type": "uint256"
        }
      ],
      "stateMutability": "view",
      "type": "function"
    },
    {
      "inputs": [
        {
          "internalType": "uint256",
          "name": "id",
          "type": "uint256"
        }
      ],
      "name": "getKind",
      "outputs": [
        {
          "internalType": "uint256",
          "name": "",
          "type": "uint256"
        }
      ],
      "stateMutability": "pure",
      "type": "function"
    },
    {
      "inputs": [
        {
          "internalType": "bytes32",
          "name": "role",
          "type": "bytes32"
        }
      ],
      "name": "getRoleAdmin",
      "outputs": [
        {
          "internalType": "bytes32",
          "name": "",
          "type": "bytes32"
        }
      ],
      "stateMutability": "view",
      "type": "function"
    },
    {
      "inputs": [
        {
          "internalType": "uint256",
          "name": "kind",
          "type": "uint256"
        }
      ],
      "name": "getTicketKindPrice",
      "outputs": [
        {
          "internalType": "uint256",
          "name": "",
          "type": "uint256"
        }
      ],
      "stateMutability": "view",
      "type": "function"
    },
    {
      "inputs": [
        {
          "internalType": "uint256",
          "name": "kind",
          "type": "uint256"
        },
        {
          "internalType": "address",
          "name": "user",
          "type": "address"
        }
      ],
      "name": "getTicketsLeftByKind",
      "outputs": [
        {
          "internalType": "uint256",
          "name": "",
          "type": "uint256"
        }
      ],
      "stateMutability": "view",
      "type": "function"
    },
    {
      "inputs": [
        {
          "internalType": "bytes32",
          "name": "role",
          "type": "bytes32"
        },
        {
          "internalType": "address",
          "name": "account",
          "type": "address"
        }
      ],
      "name": "grantRole",
      "outputs": [],
      "stateMutability": "nonpayable",
      "type": "function"
    },
    {
      "inputs": [
        {
          "internalType": "bytes32",
          "name": "role",
          "type": "bytes32"
        },
        {
          "internalType": "address",
          "name": "account",
          "type": "address"
        }
      ],
      "name": "hasRole",
      "outputs": [
        {
          "internalType": "bool",
          "name": "",
          "type": "bool"
        }
      ],
      "stateMutability": "view",
      "type": "function"
    },
    {
      "inputs": [
        {
          "internalType": "address",
          "name": "_collection",
          "type": "address"
        }
      ],
      "name": "initialize",
      "outputs": [],
      "stateMutability": "nonpayable",
      "type": "function"
    },
    {
      "inputs": [
        {
          "internalType": "address",
          "name": "operator",
          "type": "address"
        },
        {
          "internalType": "address",
          "name": "from",
          "type": "address"
        },
        {
          "internalType": "uint256[]",
          "name": "ids",
          "type": "uint256[]"
        },
        {
          "internalType": "uint256[]",
          "name": "values",
          "type": "uint256[]"
        },
        {
          "internalType": "bytes",
          "name": "data",
          "type": "bytes"
        }
      ],
      "name": "onERC1155BatchReceived",
      "outputs": [
        {
          "internalType": "bytes4",
          "name": "",
          "type": "bytes4"
        }
      ],
      "stateMutability": "nonpayable",
      "type": "function"
    },
    {
      "inputs": [
        {
          "internalType": "address",
          "name": "operator",
          "type": "address"
        },
        {
          "internalType": "address",
          "name": "from",
          "type": "address"
        },
        {
          "internalType": "uint256",
          "name": "id",
          "type": "uint256"
        },
        {
          "internalType": "uint256",
          "name": "value",
          "type": "uint256"
        },
        {
          "internalType": "bytes",
          "name": "data",
          "type": "bytes"
        }
      ],
      "name": "onERC1155Received",
      "outputs": [
        {
          "internalType": "bytes4",
          "name": "",
          "type": "bytes4"
        }
      ],
      "stateMutability": "nonpayable",
      "type": "function"
    },
    {
      "inputs": [
        {
          "internalType": "bytes32",
          "name": "role",
          "type": "bytes32"
        },
        {
          "internalType": "address",
          "name": "account",
          "type": "address"
        }
      ],
      "name": "renounceRole",
      "outputs": [],
      "stateMutability": "nonpayable",
      "type": "function"
    },
    {
      "inputs": [
        {
          "internalType": "bytes32",
          "name": "role",
          "type": "bytes32"
        },
        {
          "internalType": "address",
          "name": "account",
          "type": "address"
        }
      ],
      "name": "revokeRole",
      "outputs": [],
      "stateMutability": "nonpayable",
      "type": "function"
    },
    {
      "inputs": [
        {
          "internalType": "uint256",
          "name": "kind",
          "type": "uint256"
        },
        {
          "internalType": "uint256",
          "name": "value",
          "type": "uint256"
        }
      ],
      "name": "setTicketKindPrice",
      "outputs": [],
      "stateMutability": "nonpayable",
      "type": "function"
    },
    {
      "inputs": [
        {
          "internalType": "bytes4",
          "name": "interfaceId",
          "type": "bytes4"
        }
      ],
      "name": "supportsInterface",
      "outputs": [
        {
          "internalType": "bool",
          "name": "",
          "type": "bool"
        }
      ],
      "stateMutability": "view",
      "type": "function"
    },
    {
      "inputs": [
        {
          "internalType": "address payable",
          "name": "payee",
          "type": "address"
        }
      ],
      "name": "withdrawPayments",
      "outputs": [],
      "stateMutability": "payable",
      "type": "function"
    }
  ],
  "transactionHash": "0x5f71b5eb7263086c6dd2d361ac3ffa9338d66e0668b02ee10c7ec276d8a31cfa",
  "args": [],
  "numDeployments": 4,
  "solcInputHash": "d0c328659106bb0cc7b2016343173426",
  "bytecode": "0x608060405234801561001057600080fd5b50612fdc806100206000396000f3fe6080604052600436106101145760003560e01c806391d14854116100a0578063d547741f11610064578063d547741f146103c6578063d96a094a146103ef578063e0735ab71461040b578063f23a6e6114610448578063f56760531461048557610114565b806391d14854146102cd578063a2011b3f1461030a578063a217fddf14610335578063bc197c8114610360578063c4d66de81461039d57610114565b806331b3eb94116100e757806331b3eb94146101e557806336568abe146102015780636ca8fede1461022a5780636dd19d0a146102675780638edd2d95146102a457610114565b806301ffc9a714610119578063082ec4a814610156578063248a9ca31461017f5780632f2ff15d146101bc575b600080fd5b34801561012557600080fd5b50610140600480360381019061013b9190611d41565b6104c2565b60405161014d9190611d89565b60405180910390f35b34801561016257600080fd5b5061017d60048036038101906101789190611dda565b6104d4565b005b34801561018b57600080fd5b506101a660048036038101906101a19190611e50565b610559565b6040516101b39190611e8c565b60405180910390f35b3480156101c857600080fd5b506101e360048036038101906101de9190611f05565b610579565b005b6101ff60048036038101906101fa9190611f83565b6105a2565b005b34801561020d57600080fd5b5061022860048036038101906102239190611f05565b610698565b005b34801561023657600080fd5b50610251600480360381019061024c9190611fb0565b61071b565b60405161025e9190611fec565b60405180910390f35b34801561027357600080fd5b5061028e60048036038101906102899190612007565b61072f565b60405161029b9190611fec565b60405180910390f35b3480156102b057600080fd5b506102cb60048036038101906102c69190612007565b610778565b005b3480156102d957600080fd5b506102f460048036038101906102ef9190611f05565b6108e8565b6040516103019190611d89565b60405180910390f35b34801561031657600080fd5b5061031f610953565b60405161032c9190611e8c565b60405180910390f35b34801561034157600080fd5b5061034a610977565b6040516103579190611e8c565b60405180910390f35b34801561036c57600080fd5b5061038760048036038101906103829190612242565b61097e565b6040516103949190612320565b60405180910390f35b3480156103a957600080fd5b506103c460048036038101906103bf9190612007565b610a78565b005b3480156103d257600080fd5b506103ed60048036038101906103e89190611f05565b610df5565b005b61040960048036038101906104049190611fb0565b610e1e565b005b34801561041757600080fd5b50610432600480360381019061042d9190611fb0565b6111c5565b60405161043f9190611fec565b60405180910390f35b34801561045457600080fd5b5061046f600480360381019061046a919061233b565b61122a565b60405161047c9190612320565b60405180910390f35b34801561049157600080fd5b506104ac60048036038101906104a791906123d2565b6112ca565b6040516104b99190611fec565b60405180910390f35b60006104cd826113be565b9050919050565b6104fe7f61c92169ef077349011ff0b1383c894d86c5f0b41d986366b58a6cf31e93beda336108e8565b61053d576040517f08c379a00000000000000000000000000000000000000000000000000000000081526004016105349061246f565b60405180910390fd5b8060fd6000848152602001908152602001600020819055505050565b600060656000838152602001908152602001600020600101549050919050565b61058282610559565b6105938161058e611438565b611440565b61059d83836114dd565b505050565b6105af6000801b336108e8565b6105ee576040517f08c379a00000000000000000000000000000000000000000000000000000000081526004016105e590612501565b60405180910390fd5b60003073ffffffffffffffffffffffffffffffffffffffff163190506000810361064d576040517f08c379a00000000000000000000000000000000000000000000000000000000081526004016106449061256d565b60405180910390fd5b8173ffffffffffffffffffffffffffffffffffffffff166108fc829081150290604051600060405180830381858888f19350505050158015610693573d6000803e3d6000fd5b505050565b6106a0611438565b73ffffffffffffffffffffffffffffffffffffffff168173ffffffffffffffffffffffffffffffffffffffff161461070d576040517f08c379a0000000000000000000000000000000000000000000000000000000008152600401610704906125ff565b60405180910390fd5b61071782826115be565b5050565b600060108263ffff000016901c9050919050565b600060fe60008373ffffffffffffffffffffffffffffffffffffffff1673ffffffffffffffffffffffffffffffffffffffff168152602001908152602001600020549050919050565b6107a27f61c92169ef077349011ff0b1383c894d86c5f0b41d986366b58a6cf31e93beda336108e8565b6107e1576040517f08c379a00000000000000000000000000000000000000000000000000000000081526004016107d89061246f565b60405180910390fd5b6000151560ff60008373ffffffffffffffffffffffffffffffffffffffff1673ffffffffffffffffffffffffffffffffffffffff16815260200190815260200160002060009054906101000a900460ff16151514610874576040517f08c379a000000000000000000000000000000000000000000000000000000000815260040161086b90612691565b60405180910390fd5b600160ff60008373ffffffffffffffffffffffffffffffffffffffff1673ffffffffffffffffffffffffffffffffffffffff16815260200190815260200160002060006101000a81548160ff02191690831515021790555061010060008154809291906108e0906126e0565b919050555050565b60006065600084815260200190815260200160002060000160008373ffffffffffffffffffffffffffffffffffffffff1673ffffffffffffffffffffffffffffffffffffffff16815260200190815260200160002060009054906101000a900460ff16905092915050565b7f61c92169ef077349011ff0b1383c894d86c5f0b41d986366b58a6cf31e93beda81565b6000801b81565b600060fb60009054906101000a900473ffffffffffffffffffffffffffffffffffffffff1673ffffffffffffffffffffffffffffffffffffffff163373ffffffffffffffffffffffffffffffffffffffff16146109da57600080fd5b60005b8451811015610a5e57610a11610a0c8683815181106109ff576109fe612728565b5b602002602001015161071b565b6116a0565b15610a3e57610a39858281518110610a2c57610a2b612728565b5b6020026020010151611870565b610a4b565b600060e01b915050610a6f565b8080610a56906126e0565b9150506109dd565b50610a6c86868686866118b5565b90505b95945050505050565b600060019054906101000a900460ff16610aa05760008054906101000a900460ff1615610aa9565b610aa86118ca565b5b610ae8576040517f08c379a0000000000000000000000000000000000000000000000000000000008152600401610adf906127c9565b60405180910390fd5b60008060019054906101000a900460ff161590508015610b38576001600060016101000a81548160ff02191690831515021790555060016000806101000a81548160ff0219169083151502179055505b610b406118db565b610b4861192c565b8160fb60006101000a81548173ffffffffffffffffffffffffffffffffffffffff021916908373ffffffffffffffffffffffffffffffffffffffff16021790555067027f7d0bdb92000060fd600060fb60009054906101000a900473ffffffffffffffffffffffffffffffffffffffff1673ffffffffffffffffffffffffffffffffffffffff166365a9bf896040518163ffffffff1660e01b8152600401602060405180830381865afa158015610c03573d6000803e3d6000fd5b505050506040513d601f19601f82011682018060405250810190610c2791906127fe565b8152602001908152602001600020819055506704b7ec32d7a2000060fd600060fb60009054906101000a900473ffffffffffffffffffffffffffffffffffffffff1673ffffffffffffffffffffffffffffffffffffffff1663d91a1d7f6040518163ffffffff1660e01b8152600401602060405180830381865afa158015610cb3573d6000803e3d6000fd5b505050506040513d601f19601f82011682018060405250810190610cd791906127fe565b81526020019081526020016000208190555067063eb89da4ed000060fd600060fb60009054906101000a900473ffffffffffffffffffffffffffffffffffffffff1673ffffffffffffffffffffffffffffffffffffffff1663528575fd6040518163ffffffff1660e01b8152600401602060405180830381865afa158015610d63573d6000803e3d6000fd5b505050506040513d601f19601f82011682018060405250810190610d8791906127fe565b815260200190815260200160002081905550610da66000801b336114dd565b610dd07f61c92169ef077349011ff0b1383c894d86c5f0b41d986366b58a6cf31e93beda336114dd565b8015610df15760008060016101000a81548160ff0219169083151502179055505b5050565b610dfe82610559565b610e0f81610e0a611438565b611440565b610e1983836115be565b505050565b610e27816116a0565b610e66576040517f08c379a0000000000000000000000000000000000000000000000000000000008152600401610e5d90612877565b60405180910390fd5b60fd6000828152602001908152602001600020543414610ebb576040517f08c379a0000000000000000000000000000000000000000000000000000000008152600401610eb290612909565b60405180910390fd5b600060fe60003373ffffffffffffffffffffffffffffffffffffffff1673ffffffffffffffffffffffffffffffffffffffff1681526020019081526020016000205414610f3d576040517f08c379a0000000000000000000000000000000000000000000000000000000008152600401610f349061299b565b60405180910390fd5b600060fc6000838152602001908152602001600020600160fc600085815260200190815260200160002080549050610f7591906129bb565b81548110610f8657610f85612728565b5b906000526020600020015490506001151560ff60003373ffffffffffffffffffffffffffffffffffffffff1673ffffffffffffffffffffffffffffffffffffffff16815260200190815260200160002060009054906101000a900460ff16151503611009576101006000815480929190610fff906129ef565b9190505550611077565b60006101005460fc60008581526020019081526020016000208054905061103091906129bb565b905060008111611075576040517f08c379a000000000000000000000000000000000000000000000000000000000815260040161106c90612a8a565b60405180910390fd5b505b60fc600083815260200190815260200160002080548061109a57611099612aaa565b5b6001900381819060005260206000200160009055905560fb60009054906101000a900473ffffffffffffffffffffffffffffffffffffffff1673ffffffffffffffffffffffffffffffffffffffff1663f242432a30338460016040518563ffffffff1660e01b81526004016111129493929190612b64565b600060405180830381600087803b15801561112c57600080fd5b505af1158015611140573d6000803e3d6000fd5b505050508060fe60003373ffffffffffffffffffffffffffffffffffffffff1673ffffffffffffffffffffffffffffffffffffffff168152602001908152602001600020819055507f985d112c54c7518a49841fc37640d9ded60112ea7370ca9129c8ed33c3607bc733826040516111b9929190612bbc565b60405180910390a15050565b60006111d0826116a0565b61120f576040517f08c379a000000000000000000000000000000000000000000000000000000000815260040161120690612c31565b60405180910390fd5b60fd6000838152602001908152602001600020549050919050565b600060fb60009054906101000a900473ffffffffffffffffffffffffffffffffffffffff1673ffffffffffffffffffffffffffffffffffffffff163373ffffffffffffffffffffffffffffffffffffffff161461128657600080fd5b6112976112928561071b565b6116a0565b156112b9576112a584611870565b6112b2868686868661197d565b90506112c1565b600060e01b90505b95945050505050565b60006112d5836116a0565b611314576040517f08c379a000000000000000000000000000000000000000000000000000000000815260040161130b90612c31565b60405180910390fd5b60006001151560ff60008573ffffffffffffffffffffffffffffffffffffffff1673ffffffffffffffffffffffffffffffffffffffff16815260200190815260200160002060009054906101000a900460ff1615150361138c5760fc60008581526020019081526020016000208054905090506113b4565b6101005460fc6000868152602001908152602001600020805490506113b191906129bb565b90505b8091505092915050565b60007f4e2312e0000000000000000000000000000000000000000000000000000000007bffffffffffffffffffffffffffffffffffffffffffffffffffffffff1916827bffffffffffffffffffffffffffffffffffffffffffffffffffffffff19161480611431575061143082611992565b5b9050919050565b600033905090565b61144a82826108e8565b6114d95761146f8173ffffffffffffffffffffffffffffffffffffffff166014611a0c565b61147d8360001c6020611a0c565b60405160200161148e929190612d63565b6040516020818303038152906040526040517f08c379a00000000000000000000000000000000000000000000000000000000081526004016114d09190612dd6565b60405180910390fd5b5050565b6114e782826108e8565b6115ba5760016065600084815260200190815260200160002060000160008373ffffffffffffffffffffffffffffffffffffffff1673ffffffffffffffffffffffffffffffffffffffff16815260200190815260200160002060006101000a81548160ff02191690831515021790555061155f611438565b73ffffffffffffffffffffffffffffffffffffffff168173ffffffffffffffffffffffffffffffffffffffff16837f2f8788117e7eff1d82e926ec794901d17c78024a50270940304540a733656f0d60405160405180910390a45b5050565b6115c882826108e8565b1561169c5760006065600084815260200190815260200160002060000160008373ffffffffffffffffffffffffffffffffffffffff1673ffffffffffffffffffffffffffffffffffffffff16815260200190815260200160002060006101000a81548160ff021916908315150217905550611641611438565b73ffffffffffffffffffffffffffffffffffffffff168173ffffffffffffffffffffffffffffffffffffffff16837ff6391f5c32d9c69d2a47ea670b442974b53935d1edc7fd64eb21e047a839171b60405160405180910390a45b5050565b600060fb60009054906101000a900473ffffffffffffffffffffffffffffffffffffffff1673ffffffffffffffffffffffffffffffffffffffff166365a9bf896040518163ffffffff1660e01b8152600401602060405180830381865afa15801561170f573d6000803e3d6000fd5b505050506040513d601f19601f8201168201806040525081019061173391906127fe565b8214806117cf575060fb60009054906101000a900473ffffffffffffffffffffffffffffffffffffffff1673ffffffffffffffffffffffffffffffffffffffff1663d91a1d7f6040518163ffffffff1660e01b8152600401602060405180830381865afa1580156117a8573d6000803e3d6000fd5b505050506040513d601f19601f820116820180604052508101906117cc91906127fe565b82145b80611869575060fb60009054906101000a900473ffffffffffffffffffffffffffffffffffffffff1673ffffffffffffffffffffffffffffffffffffffff1663528575fd6040518163ffffffff1660e01b8152600401602060405180830381865afa158015611842573d6000803e3d6000fd5b505050506040513d601f19601f8201168201806040525081019061186691906127fe565b82145b9050919050565b60fc600061187d8361071b565b815260200190815260200160002081908060018154018082558091505060019003906000526020600020016000909190919091505550565b600063bc197c8160e01b905095945050505050565b60006118d530611c48565b15905090565b600060019054906101000a900460ff1661192a576040517f08c379a000000000000000000000000000000000000000000000000000000000815260040161192190612e6a565b60405180910390fd5b565b600060019054906101000a900460ff1661197b576040517f08c379a000000000000000000000000000000000000000000000000000000000815260040161197290612e6a565b60405180910390fd5b565b600063f23a6e6160e01b905095945050505050565b60007f7965db0b000000000000000000000000000000000000000000000000000000007bffffffffffffffffffffffffffffffffffffffffffffffffffffffff1916827bffffffffffffffffffffffffffffffffffffffffffffffffffffffff19161480611a055750611a0482611c6b565b5b9050919050565b606060006002836002611a1f9190612e8a565b611a299190612ee4565b67ffffffffffffffff811115611a4257611a4161204a565b5b6040519080825280601f01601f191660200182016040528015611a745781602001600182028036833780820191505090505b5090507f300000000000000000000000000000000000000000000000000000000000000081600081518110611aac57611aab612728565b5b60200101907effffffffffffffffffffffffffffffffffffffffffffffffffffffffffffff1916908160001a9053507f780000000000000000000000000000000000000000000000000000000000000081600181518110611b1057611b0f612728565b5b60200101907effffffffffffffffffffffffffffffffffffffffffffffffffffffffffffff1916908160001a90535060006001846002611b509190612e8a565b611b5a9190612ee4565b90505b6001811115611bfa577f3031323334353637383961626364656600000000000000000000000000000000600f861660108110611b9c57611b9b612728565b5b1a60f81b828281518110611bb357611bb2612728565b5b60200101907effffffffffffffffffffffffffffffffffffffffffffffffffffffffffffff1916908160001a905350600485901c945080611bf3906129ef565b9050611b5d565b5060008414611c3e576040517f08c379a0000000000000000000000000000000000000000000000000000000008152600401611c3590612f86565b60405180910390fd5b8091505092915050565b6000808273ffffffffffffffffffffffffffffffffffffffff163b119050919050565b60007f01ffc9a7000000000000000000000000000000000000000000000000000000007bffffffffffffffffffffffffffffffffffffffffffffffffffffffff1916827bffffffffffffffffffffffffffffffffffffffffffffffffffffffff1916149050919050565b6000604051905090565b600080fd5b600080fd5b60007fffffffff0000000000000000000000000000000000000000000000000000000082169050919050565b611d1e81611ce9565b8114611d2957600080fd5b50565b600081359050611d3b81611d15565b92915050565b600060208284031215611d5757611d56611cdf565b5b6000611d6584828501611d2c565b91505092915050565b60008115159050919050565b611d8381611d6e565b82525050565b6000602082019050611d9e6000830184611d7a565b92915050565b6000819050919050565b611db781611da4565b8114611dc257600080fd5b50565b600081359050611dd481611dae565b92915050565b60008060408385031215611df157611df0611cdf565b5b6000611dff85828601611dc5565b9250506020611e1085828601611dc5565b9150509250929050565b6000819050919050565b611e2d81611e1a565b8114611e3857600080fd5b50565b600081359050611e4a81611e24565b92915050565b600060208284031215611e6657611e65611cdf565b5b6000611e7484828501611e3b565b91505092915050565b611e8681611e1a565b82525050565b6000602082019050611ea16000830184611e7d565b92915050565b600073ffffffffffffffffffffffffffffffffffffffff82169050919050565b6000611ed282611ea7565b9050919050565b611ee281611ec7565b8114611eed57600080fd5b50565b600081359050611eff81611ed9565b92915050565b60008060408385031215611f1c57611f1b611cdf565b5b6000611f2a85828601611e3b565b9250506020611f3b85828601611ef0565b9150509250929050565b6000611f5082611ea7565b9050919050565b611f6081611f45565b8114611f6b57600080fd5b50565b600081359050611f7d81611f57565b92915050565b600060208284031215611f9957611f98611cdf565b5b6000611fa784828501611f6e565b91505092915050565b600060208284031215611fc657611fc5611cdf565b5b6000611fd484828501611dc5565b91505092915050565b611fe681611da4565b82525050565b60006020820190506120016000830184611fdd565b92915050565b60006020828403121561201d5761201c611cdf565b5b600061202b84828501611ef0565b91505092915050565b600080fd5b6000601f19601f8301169050919050565b7f4e487b7100000000000000000000000000000000000000000000000000000000600052604160045260246000fd5b61208282612039565b810181811067ffffffffffffffff821117156120a1576120a061204a565b5b80604052505050565b60006120b4611cd5565b90506120c08282612079565b919050565b600067ffffffffffffffff8211156120e0576120df61204a565b5b602082029050602081019050919050565b600080fd5b6000612109612104846120c5565b6120aa565b9050808382526020820190506020840283018581111561212c5761212b6120f1565b5b835b8181101561215557806121418882611dc5565b84526020840193505060208101905061212e565b5050509392505050565b600082601f83011261217457612173612034565b5b81356121848482602086016120f6565b91505092915050565b600080fd5b600067ffffffffffffffff8211156121ad576121ac61204a565b5b6121b682612039565b9050602081019050919050565b82818337600083830152505050565b60006121e56121e084612192565b6120aa565b9050828152602081018484840111156122015761220061218d565b5b61220c8482856121c3565b509392505050565b600082601f83011261222957612228612034565b5b81356122398482602086016121d2565b91505092915050565b600080600080600060a0868803121561225e5761225d611cdf565b5b600061226c88828901611ef0565b955050602061227d88828901611ef0565b945050604086013567ffffffffffffffff81111561229e5761229d611ce4565b5b6122aa8882890161215f565b935050606086013567ffffffffffffffff8111156122cb576122ca611ce4565b5b6122d78882890161215f565b925050608086013567ffffffffffffffff8111156122f8576122f7611ce4565b5b61230488828901612214565b9150509295509295909350565b61231a81611ce9565b82525050565b60006020820190506123356000830184612311565b92915050565b600080600080600060a0868803121561235757612356611cdf565b5b600061236588828901611ef0565b955050602061237688828901611ef0565b945050604061238788828901611dc5565b935050606061239888828901611dc5565b925050608086013567ffffffffffffffff8111156123b9576123b8611ce4565b5b6123c588828901612214565b9150509295509295909350565b600080604083850312156123e9576123e8611cdf565b5b60006123f785828601611dc5565b925050602061240885828601611ef0565b9150509250929050565b600082825260208201905092915050565b7f596f752073686f756c642068617665205345545445525f524f4c450000000000600082015250565b6000612459601b83612412565b915061246482612423565b602082019050919050565b600060208201905081810360008301526124888161244c565b9050919050565b7f596f752073686f756c6420686176652044454641554c545f41444d494e5f524f60008201527f4c45000000000000000000000000000000000000000000000000000000000000602082015250565b60006124eb602283612412565b91506124f68261248f565b604082019050919050565b6000602082019050818103600083015261251a816124de565b9050919050565b7f5a65726f2062616c616e63650000000000000000000000000000000000000000600082015250565b6000612557600c83612412565b915061256282612521565b602082019050919050565b600060208201905081810360008301526125868161254a565b9050919050565b7f416363657373436f6e74726f6c3a2063616e206f6e6c792072656e6f756e636560008201527f20726f6c657320666f722073656c660000000000000000000000000000000000602082015250565b60006125e9602f83612412565b91506125f48261258d565b604082019050919050565b60006020820190508181036000830152612618816125dc565b9050919050565b7f4164647265737320616c72656164792065786973747320696e2074686520564960008201527f50206c6973740000000000000000000000000000000000000000000000000000602082015250565b600061267b602683612412565b91506126868261261f565b604082019050919050565b600060208201905081810360008301526126aa8161266e565b9050919050565b7f4e487b7100000000000000000000000000000000000000000000000000000000600052601160045260246000fd5b60006126eb82611da4565b91507fffffffffffffffffffffffffffffffffffffffffffffffffffffffffffffffff820361271d5761271c6126b1565b5b600182019050919050565b7f4e487b7100000000000000000000000000000000000000000000000000000000600052603260045260246000fd5b7f496e697469616c697a61626c653a20636f6e747261637420697320616c72656160008201527f647920696e697469616c697a6564000000000000000000000000000000000000602082015250565b60006127b3602e83612412565b91506127be82612757565b604082019050919050565b600060208201905081810360008301526127e2816127a6565b9050919050565b6000815190506127f881611dae565b92915050565b60006020828403121561281457612813611cdf565b5b6000612822848285016127e9565b91505092915050565b7f50726f7669646564206b696e642073686f756c64206265207469636b65740000600082015250565b6000612861601e83612412565b915061286c8261282b565b602082019050919050565b6000602082019050818103600083015261289081612854565b9050919050565b7f42757965722073686f756c642070726f766964652065786163746c792074686560008201527f207072696365206f66207469636b657400000000000000000000000000000000602082015250565b60006128f3603083612412565b91506128fe82612897565b604082019050919050565b60006020820190508181036000830152612922816128e6565b9050919050565b7f42757965722073686f756c64206e6f74206275792061207469636b657420626560008201527f666f726500000000000000000000000000000000000000000000000000000000602082015250565b6000612985602483612412565b915061299082612929565b604082019050919050565b600060208201905081810360008301526129b481612978565b9050919050565b60006129c682611da4565b91506129d183611da4565b9250828210156129e4576129e36126b1565b5b828203905092915050565b60006129fa82611da4565b915060008203612a0d57612a0c6126b1565b5b600182039050919050565b7f4e6f7420656e6f756768207469636b657473206f6e20636f6e7472616374206260008201527f616c616e63650000000000000000000000000000000000000000000000000000602082015250565b6000612a74602683612412565b9150612a7f82612a18565b604082019050919050565b60006020820190508181036000830152612aa381612a67565b9050919050565b7f4e487b7100000000000000000000000000000000000000000000000000000000600052603160045260246000fd5b612ae281611ec7565b82525050565b6000819050919050565b6000819050919050565b6000612b17612b12612b0d84612ae8565b612af2565b611da4565b9050919050565b612b2781612afc565b82525050565b600082825260208201905092915050565b50565b6000612b4e600083612b2d565b9150612b5982612b3e565b600082019050919050565b600060a082019050612b796000830187612ad9565b612b866020830186612ad9565b612b936040830185611fdd565b612ba06060830184612b1e565b8181036080830152612bb181612b41565b905095945050505050565b6000604082019050612bd16000830185612ad9565b612bde6020830184611fdd565b9392505050565b7f4b696e642073686f756c64206265207469636b65740000000000000000000000600082015250565b6000612c1b601583612412565b9150612c2682612be5565b602082019050919050565b60006020820190508181036000830152612c4a81612c0e565b9050919050565b600081905092915050565b7f416363657373436f6e74726f6c3a206163636f756e7420000000000000000000600082015250565b6000612c92601783612c51565b9150612c9d82612c5c565b601782019050919050565b600081519050919050565b60005b83811015612cd1578082015181840152602081019050612cb6565b83811115612ce0576000848401525b50505050565b6000612cf182612ca8565b612cfb8185612c51565b9350612d0b818560208601612cb3565b80840191505092915050565b7f206973206d697373696e6720726f6c6520000000000000000000000000000000600082015250565b6000612d4d601183612c51565b9150612d5882612d17565b601182019050919050565b6000612d6e82612c85565b9150612d7a8285612ce6565b9150612d8582612d40565b9150612d918284612ce6565b91508190509392505050565b6000612da882612ca8565b612db28185612412565b9350612dc2818560208601612cb3565b612dcb81612039565b840191505092915050565b60006020820190508181036000830152612df08184612d9d565b905092915050565b7f496e697469616c697a61626c653a20636f6e7472616374206973206e6f74206960008201527f6e697469616c697a696e67000000000000000000000000000000000000000000602082015250565b6000612e54602b83612412565b9150612e5f82612df8565b604082019050919050565b60006020820190508181036000830152612e8381612e47565b9050919050565b6000612e9582611da4565b9150612ea083611da4565b9250817fffffffffffffffffffffffffffffffffffffffffffffffffffffffffffffffff0483118215151615612ed957612ed86126b1565b5b828202905092915050565b6000612eef82611da4565b9150612efa83611da4565b9250827fffffffffffffffffffffffffffffffffffffffffffffffffffffffffffffffff03821115612f2f57612f2e6126b1565b5b828201905092915050565b7f537472696e67733a20686578206c656e67746820696e73756666696369656e74600082015250565b6000612f70602083612412565b9150612f7b82612f3a565b602082019050919050565b60006020820190508181036000830152612f9f81612f63565b905091905056fea2646970667358221220629227771595d006d674269a799c8ce75d33cdcc1241dbb65b54ee65440ca57464736f6c634300080d0033",
  "devdoc": {
    "kind": "dev",
    "methods": {
      "getRoleAdmin(bytes32)": {
        "details": "Returns the admin role that controls `role`. See {grantRole} and {revokeRole}. To change a role's admin, use {_setRoleAdmin}."
      },
      "grantRole(bytes32,address)": {
        "details": "Grants `role` to `account`. If `account` had not been already granted `role`, emits a {RoleGranted} event. Requirements: - the caller must have ``role``'s admin role."
      },
      "hasRole(bytes32,address)": {
        "details": "Returns `true` if `account` has been granted `role`."
      },
      "renounceRole(bytes32,address)": {
        "details": "Revokes `role` from the calling account. Roles are often managed via {grantRole} and {revokeRole}: this function's purpose is to provide a mechanism for accounts to lose their privileges if they are compromised (such as when a trusted device is misplaced). If the calling account had been revoked `role`, emits a {RoleRevoked} event. Requirements: - the caller must be `account`."
      },
      "revokeRole(bytes32,address)": {
        "details": "Revokes `role` from `account`. If `account` had been granted `role`, emits a {RoleRevoked} event. Requirements: - the caller must have ``role``'s admin role."
      }
    },
    "version": 1
  },
  "userdoc": {
    "kind": "user",
    "methods": {},
    "version": 1
  },
  "storageLayout": {
    "storage": [
      {
        "astId": 408,
        "contract": "contracts/BetaTicketSale.sol:BetaTicketSale",
        "label": "_initialized",
        "offset": 0,
        "slot": "0",
        "type": "t_bool"
      },
      {
        "astId": 411,
        "contract": "contracts/BetaTicketSale.sol:BetaTicketSale",
        "label": "_initializing",
        "offset": 1,
        "slot": "0",
        "type": "t_bool"
      },
      {
        "astId": 2422,
        "contract": "contracts/BetaTicketSale.sol:BetaTicketSale",
        "label": "__gap",
        "offset": 0,
        "slot": "1",
        "type": "t_array(t_uint256)50_storage"
      },
      {
        "astId": 2669,
        "contract": "contracts/BetaTicketSale.sol:BetaTicketSale",
        "label": "__gap",
        "offset": 0,
        "slot": "51",
        "type": "t_array(t_uint256)50_storage"
      },
      {
        "astId": 39,
        "contract": "contracts/BetaTicketSale.sol:BetaTicketSale",
        "label": "_roles",
        "offset": 0,
        "slot": "101",
        "type": "t_mapping(t_bytes32,t_struct(RoleData)34_storage)"
      },
      {
        "astId": 327,
        "contract": "contracts/BetaTicketSale.sol:BetaTicketSale",
        "label": "__gap",
        "offset": 0,
        "slot": "102",
        "type": "t_array(t_uint256)49_storage"
      },
      {
        "astId": 2137,
        "contract": "contracts/BetaTicketSale.sol:BetaTicketSale",
        "label": "__gap",
        "offset": 0,
        "slot": "151",
        "type": "t_array(t_uint256)50_storage"
      },
      {
        "astId": 2083,
        "contract": "contracts/BetaTicketSale.sol:BetaTicketSale",
        "label": "__gap",
        "offset": 0,
        "slot": "201",
        "type": "t_array(t_uint256)50_storage"
      },
      {
        "astId": 2694,
        "contract": "contracts/BetaTicketSale.sol:BetaTicketSale",
        "label": "collection",
        "offset": 0,
        "slot": "251",
        "type": "t_contract(MetarunCollection)4015"
      },
      {
        "astId": 2707,
        "contract": "contracts/BetaTicketSale.sol:BetaTicketSale",
        "label": "tickets",
        "offset": 0,
        "slot": "252",
        "type": "t_mapping(t_uint256,t_array(t_uint256)dyn_storage)"
      },
      {
        "astId": 2711,
        "contract": "contracts/BetaTicketSale.sol:BetaTicketSale",
        "label": "ticketKindPrices",
        "offset": 0,
        "slot": "253",
        "type": "t_mapping(t_uint256,t_uint256)"
      },
      {
        "astId": 2715,
        "contract": "contracts/BetaTicketSale.sol:BetaTicketSale",
        "label": "boughtTicketId",
        "offset": 0,
        "slot": "254",
        "type": "t_mapping(t_address,t_uint256)"
      },
      {
        "astId": 2719,
        "contract": "contracts/BetaTicketSale.sol:BetaTicketSale",
        "label": "vipList",
        "offset": 0,
        "slot": "255",
        "type": "t_mapping(t_address,t_bool)"
      },
      {
        "astId": 2721,
        "contract": "contracts/BetaTicketSale.sol:BetaTicketSale",
        "label": "availableVipTickets",
        "offset": 0,
        "slot": "256",
        "type": "t_uint256"
      }
    ],
    "types": {
      "t_address": {
        "encoding": "inplace",
        "label": "address",
        "numberOfBytes": "20"
      },
      "t_array(t_uint256)49_storage": {
        "base": "t_uint256",
        "encoding": "inplace",
        "label": "uint256[49]",
        "numberOfBytes": "1568"
      },
      "t_array(t_uint256)50_storage": {
        "base": "t_uint256",
        "encoding": "inplace",
        "label": "uint256[50]",
        "numberOfBytes": "1600"
      },
      "t_array(t_uint256)dyn_storage": {
        "base": "t_uint256",
        "encoding": "dynamic_array",
        "label": "uint256[]",
        "numberOfBytes": "32"
      },
      "t_bool": {
        "encoding": "inplace",
        "label": "bool",
        "numberOfBytes": "1"
      },
      "t_bytes32": {
        "encoding": "inplace",
        "label": "bytes32",
        "numberOfBytes": "32"
      },
      "t_contract(MetarunCollection)4015": {
        "encoding": "inplace",
        "label": "contract MetarunCollection",
        "numberOfBytes": "20"
      },
      "t_mapping(t_address,t_bool)": {
        "encoding": "mapping",
        "key": "t_address",
        "label": "mapping(address => bool)",
        "numberOfBytes": "32",
        "value": "t_bool"
      },
      "t_mapping(t_address,t_uint256)": {
        "encoding": "mapping",
        "key": "t_address",
        "label": "mapping(address => uint256)",
        "numberOfBytes": "32",
        "value": "t_uint256"
      },
      "t_mapping(t_bytes32,t_struct(RoleData)34_storage)": {
        "encoding": "mapping",
        "key": "t_bytes32",
        "label": "mapping(bytes32 => struct AccessControlUpgradeable.RoleData)",
        "numberOfBytes": "32",
        "value": "t_struct(RoleData)34_storage"
      },
      "t_mapping(t_uint256,t_array(t_uint256)dyn_storage)": {
        "encoding": "mapping",
        "key": "t_uint256",
        "label": "mapping(uint256 => uint256[])",
        "numberOfBytes": "32",
        "value": "t_array(t_uint256)dyn_storage"
      },
      "t_mapping(t_uint256,t_uint256)": {
        "encoding": "mapping",
        "key": "t_uint256",
        "label": "mapping(uint256 => uint256)",
        "numberOfBytes": "32",
        "value": "t_uint256"
      },
      "t_struct(RoleData)34_storage": {
        "encoding": "inplace",
        "label": "struct AccessControlUpgradeable.RoleData",
        "members": [
          {
            "astId": 31,
            "contract": "contracts/BetaTicketSale.sol:BetaTicketSale",
            "label": "members",
            "offset": 0,
            "slot": "0",
            "type": "t_mapping(t_address,t_bool)"
          },
          {
            "astId": 33,
            "contract": "contracts/BetaTicketSale.sol:BetaTicketSale",
            "label": "adminRole",
            "offset": 0,
            "slot": "1",
            "type": "t_bytes32"
          }
        ],
        "numberOfBytes": "64"
      },
      "t_uint256": {
        "encoding": "inplace",
        "label": "uint256",
        "numberOfBytes": "32"
      }
    }
  }
}