{
  "address": "0xd6Cf1e889CAF77d69Ee4e8675679C8eD991b0f9F",
  "abi": [
    {
      "anonymous": false,
      "inputs": [
        {
          "indexed": true,
          "internalType": "bytes32",
          "name": "role",
          "type": "bytes32"
        },
        {
          "indexed": true,
          "internalType": "bytes32",
          "name": "previousAdminRole",
          "type": "bytes32"
        },
        {
          "indexed": true,
          "internalType": "bytes32",
          "name": "newAdminRole",
          "type": "bytes32"
        }
      ],
      "name": "RoleAdminChanged",
      "type": "event"
    },
    {
      "anonymous": false,
      "inputs": [
        {
          "indexed": true,
          "internalType": "bytes32",
          "name": "role",
          "type": "bytes32"
        },
        {
          "indexed": true,
          "internalType": "address",
          "name": "account",
          "type": "address"
        },
        {
          "indexed": true,
          "internalType": "address",
          "name": "sender",
          "type": "address"
        }
      ],
      "name": "RoleGranted",
      "type": "event"
    },
    {
      "anonymous": false,
      "inputs": [
        {
          "indexed": true,
          "internalType": "bytes32",
          "name": "role",
          "type": "bytes32"
        },
        {
          "indexed": true,
          "internalType": "address",
          "name": "account",
          "type": "address"
        },
        {
          "indexed": true,
          "internalType": "address",
          "name": "sender",
          "type": "address"
        }
      ],
      "name": "RoleRevoked",
      "type": "event"
    },
    {
      "anonymous": false,
      "inputs": [
        {
          "indexed": false,
          "internalType": "address",
          "name": "owner",
          "type": "address"
        },
        {
          "indexed": false,
          "internalType": "uint256",
          "name": "ticketId",
          "type": "uint256"
        }
      ],
      "name": "TicketBought",
      "type": "event"
    },
    {
      "inputs": [],
      "name": "DEFAULT_ADMIN_ROLE",
      "outputs": [
        {
          "internalType": "bytes32",
          "name": "",
          "type": "bytes32"
        }
      ],
      "stateMutability": "view",
      "type": "function"
    },
    {
      "inputs": [],
      "name": "SETTER_ROLE",
      "outputs": [
        {
          "internalType": "bytes32",
          "name": "",
          "type": "bytes32"
        }
      ],
      "stateMutability": "view",
      "type": "function"
    },
    {
      "inputs": [
        {
          "internalType": "address",
          "name": "vip",
          "type": "address"
        }
      ],
      "name": "addVip",
      "outputs": [],
      "stateMutability": "nonpayable",
      "type": "function"
    },
    {
      "inputs": [
        {
          "internalType": "uint256",
          "name": "kind",
          "type": "uint256"
        }
      ],
      "name": "buy",
      "outputs": [],
      "stateMutability": "payable",
      "type": "function"
    },
    {
      "inputs": [
        {
          "internalType": "address",
          "name": "buyer",
          "type": "address"
        }
      ],
      "name": "getBoughtTicketId",
      "outputs": [
        {
          "internalType": "uint256",
          "name": "",
          "type": "uint256"
        }
      ],
      "stateMutability": "view",
      "type": "function"
    },
    {
      "inputs": [
        {
          "internalType": "uint256",
          "name": "id",
          "type": "uint256"
        }
      ],
      "name": "getKind",
      "outputs": [
        {
          "internalType": "uint256",
          "name": "",
          "type": "uint256"
        }
      ],
      "stateMutability": "pure",
      "type": "function"
    },
    {
      "inputs": [
        {
          "internalType": "bytes32",
          "name": "role",
          "type": "bytes32"
        }
      ],
      "name": "getRoleAdmin",
      "outputs": [
        {
          "internalType": "bytes32",
          "name": "",
          "type": "bytes32"
        }
      ],
      "stateMutability": "view",
      "type": "function"
    },
    {
      "inputs": [
        {
          "internalType": "uint256",
          "name": "kind",
          "type": "uint256"
        }
      ],
      "name": "getTicketKindPrice",
      "outputs": [
        {
          "internalType": "uint256",
          "name": "",
          "type": "uint256"
        }
      ],
      "stateMutability": "view",
      "type": "function"
    },
    {
      "inputs": [
        {
          "internalType": "uint256",
          "name": "kind",
          "type": "uint256"
        },
        {
          "internalType": "address",
          "name": "user",
          "type": "address"
        }
      ],
      "name": "getTicketsLeftByKind",
      "outputs": [
        {
          "internalType": "uint256",
          "name": "",
          "type": "uint256"
        }
      ],
      "stateMutability": "view",
      "type": "function"
    },
    {
      "inputs": [
        {
          "internalType": "bytes32",
          "name": "role",
          "type": "bytes32"
        },
        {
          "internalType": "address",
          "name": "account",
          "type": "address"
        }
      ],
      "name": "grantRole",
      "outputs": [],
      "stateMutability": "nonpayable",
      "type": "function"
    },
    {
      "inputs": [
        {
          "internalType": "bytes32",
          "name": "role",
          "type": "bytes32"
        },
        {
          "internalType": "address",
          "name": "account",
          "type": "address"
        }
      ],
      "name": "hasRole",
      "outputs": [
        {
          "internalType": "bool",
          "name": "",
          "type": "bool"
        }
      ],
      "stateMutability": "view",
      "type": "function"
    },
    {
      "inputs": [
        {
          "internalType": "address",
          "name": "_collection",
          "type": "address"
        }
      ],
      "name": "initialize",
      "outputs": [],
      "stateMutability": "nonpayable",
      "type": "function"
    },
    {
      "inputs": [
        {
          "internalType": "address",
          "name": "operator",
          "type": "address"
        },
        {
          "internalType": "address",
          "name": "from",
          "type": "address"
        },
        {
          "internalType": "uint256[]",
          "name": "ids",
          "type": "uint256[]"
        },
        {
          "internalType": "uint256[]",
          "name": "values",
          "type": "uint256[]"
        },
        {
          "internalType": "bytes",
          "name": "data",
          "type": "bytes"
        }
      ],
      "name": "onERC1155BatchReceived",
      "outputs": [
        {
          "internalType": "bytes4",
          "name": "",
          "type": "bytes4"
        }
      ],
      "stateMutability": "nonpayable",
      "type": "function"
    },
    {
      "inputs": [
        {
          "internalType": "address",
          "name": "operator",
          "type": "address"
        },
        {
          "internalType": "address",
          "name": "from",
          "type": "address"
        },
        {
          "internalType": "uint256",
          "name": "id",
          "type": "uint256"
        },
        {
          "internalType": "uint256",
          "name": "value",
          "type": "uint256"
        },
        {
          "internalType": "bytes",
          "name": "data",
          "type": "bytes"
        }
      ],
      "name": "onERC1155Received",
      "outputs": [
        {
          "internalType": "bytes4",
          "name": "",
          "type": "bytes4"
        }
      ],
      "stateMutability": "nonpayable",
      "type": "function"
    },
    {
      "inputs": [
        {
          "internalType": "bytes32",
          "name": "role",
          "type": "bytes32"
        },
        {
          "internalType": "address",
          "name": "account",
          "type": "address"
        }
      ],
      "name": "renounceRole",
      "outputs": [],
      "stateMutability": "nonpayable",
      "type": "function"
    },
    {
      "inputs": [
        {
          "internalType": "bytes32",
          "name": "role",
          "type": "bytes32"
        },
        {
          "internalType": "address",
          "name": "account",
          "type": "address"
        }
      ],
      "name": "revokeRole",
      "outputs": [],
      "stateMutability": "nonpayable",
      "type": "function"
    },
    {
      "inputs": [
        {
          "internalType": "uint256",
          "name": "kind",
          "type": "uint256"
        },
        {
          "internalType": "uint256",
          "name": "value",
          "type": "uint256"
        }
      ],
      "name": "setTicketKindPrice",
      "outputs": [],
      "stateMutability": "nonpayable",
      "type": "function"
    },
    {
      "inputs": [
        {
          "internalType": "bytes4",
          "name": "interfaceId",
          "type": "bytes4"
        }
      ],
      "name": "supportsInterface",
      "outputs": [
        {
          "internalType": "bool",
          "name": "",
          "type": "bool"
        }
      ],
      "stateMutability": "view",
      "type": "function"
    }
  ],
  "transactionHash": "0x60a31b907a48fb5889cf7ee0188f734a03705fd5102d5711869b523afe57e798",
  "args": [],
  "numDeployments": 1,
  "solcInputHash": "73b76f6b3c747106fa2a2b87822c2050",
  "bytecode": "0x608060405234801561001057600080fd5b50612d4d806100206000396000f3fe6080604052600436106101095760003560e01c8063a2011b3f11610095578063d547741f11610064578063d547741f1461039f578063d96a094a146103c8578063e0735ab7146103e4578063f23a6e6114610421578063f56760531461045e57610109565b8063a2011b3f146102e3578063a217fddf1461030e578063bc197c8114610339578063c4d66de81461037657610109565b806336568abe116100dc57806336568abe146101da5780636ca8fede146102035780636dd19d0a146102405780638edd2d951461027d57806391d14854146102a657610109565b806301ffc9a71461010e578063082ec4a81461014b578063248a9ca3146101745780632f2ff15d146101b1575b600080fd5b34801561011a57600080fd5b5061013560048036038101906101309190611c1b565b61049b565b6040516101429190611c63565b60405180910390f35b34801561015757600080fd5b50610172600480360381019061016d9190611cb4565b6104ad565b005b34801561018057600080fd5b5061019b60048036038101906101969190611d2a565b610532565b6040516101a89190611d66565b60405180910390f35b3480156101bd57600080fd5b506101d860048036038101906101d39190611ddf565b610552565b005b3480156101e657600080fd5b5061020160048036038101906101fc9190611ddf565b61057b565b005b34801561020f57600080fd5b5061022a60048036038101906102259190611e1f565b6105fe565b6040516102379190611e5b565b60405180910390f35b34801561024c57600080fd5b5061026760048036038101906102629190611e76565b610612565b6040516102749190611e5b565b60405180910390f35b34801561028957600080fd5b506102a4600480360381019061029f9190611e76565b61065b565b005b3480156102b257600080fd5b506102cd60048036038101906102c89190611ddf565b6107cb565b6040516102da9190611c63565b60405180910390f35b3480156102ef57600080fd5b506102f8610836565b6040516103059190611d66565b60405180910390f35b34801561031a57600080fd5b5061032361085a565b6040516103309190611d66565b60405180910390f35b34801561034557600080fd5b50610360600480360381019061035b91906120b1565b610861565b60405161036d919061218f565b60405180910390f35b34801561038257600080fd5b5061039d60048036038101906103989190611e76565b61095b565b005b3480156103ab57600080fd5b506103c660048036038101906103c19190611ddf565b610ccf565b005b6103e260048036038101906103dd9190611e1f565b610cf8565b005b3480156103f057600080fd5b5061040b60048036038101906104069190611e1f565b61109f565b6040516104189190611e5b565b60405180910390f35b34801561042d57600080fd5b50610448600480360381019061044391906121aa565b611104565b604051610455919061218f565b60405180910390f35b34801561046a57600080fd5b5061048560048036038101906104809190612241565b6111a4565b6040516104929190611e5b565b60405180910390f35b60006104a682611298565b9050919050565b6104d77f61c92169ef077349011ff0b1383c894d86c5f0b41d986366b58a6cf31e93beda336107cb565b610516576040517f08c379a000000000000000000000000000000000000000000000000000000000815260040161050d906122de565b60405180910390fd5b8060fd6000848152602001908152602001600020819055505050565b600060656000838152602001908152602001600020600101549050919050565b61055b82610532565b61056c81610567611312565b61131a565b61057683836113b7565b505050565b610583611312565b73ffffffffffffffffffffffffffffffffffffffff168173ffffffffffffffffffffffffffffffffffffffff16146105f0576040517f08c379a00000000000000000000000000000000000000000000000000000000081526004016105e790612370565b60405180910390fd5b6105fa8282611498565b5050565b600060108263ffff000016901c9050919050565b600060fe60008373ffffffffffffffffffffffffffffffffffffffff1673ffffffffffffffffffffffffffffffffffffffff168152602001908152602001600020549050919050565b6106857f61c92169ef077349011ff0b1383c894d86c5f0b41d986366b58a6cf31e93beda336107cb565b6106c4576040517f08c379a00000000000000000000000000000000000000000000000000000000081526004016106bb906122de565b60405180910390fd5b6000151560ff60008373ffffffffffffffffffffffffffffffffffffffff1673ffffffffffffffffffffffffffffffffffffffff16815260200190815260200160002060009054906101000a900460ff16151514610757576040517f08c379a000000000000000000000000000000000000000000000000000000000815260040161074e90612402565b60405180910390fd5b600160ff60008373ffffffffffffffffffffffffffffffffffffffff1673ffffffffffffffffffffffffffffffffffffffff16815260200190815260200160002060006101000a81548160ff02191690831515021790555061010060008154809291906107c390612451565b919050555050565b60006065600084815260200190815260200160002060000160008373ffffffffffffffffffffffffffffffffffffffff1673ffffffffffffffffffffffffffffffffffffffff16815260200190815260200160002060009054906101000a900460ff16905092915050565b7f61c92169ef077349011ff0b1383c894d86c5f0b41d986366b58a6cf31e93beda81565b6000801b81565b600060fb60009054906101000a900473ffffffffffffffffffffffffffffffffffffffff1673ffffffffffffffffffffffffffffffffffffffff163373ffffffffffffffffffffffffffffffffffffffff16146108bd57600080fd5b60005b8451811015610941576108f46108ef8683815181106108e2576108e1612499565b5b60200260200101516105fe565b61157a565b156109215761091c85828151811061090f5761090e612499565b5b602002602001015161174a565b61092e565b600060e01b915050610952565b808061093990612451565b9150506108c0565b5061094f868686868661178f565b90505b95945050505050565b600060019054906101000a900460ff166109835760008054906101000a900460ff161561098c565b61098b6117a4565b5b6109cb576040517f08c379a00000000000000000000000000000000000000000000000000000000081526004016109c29061253a565b60405180910390fd5b60008060019054906101000a900460ff161590508015610a1b576001600060016101000a81548160ff02191690831515021790555060016000806101000a81548160ff0219169083151502179055505b610a236117b5565b610a2b611806565b8160fb60006101000a81548173ffffffffffffffffffffffffffffffffffffffff021916908373ffffffffffffffffffffffffffffffffffffffff16021790555064174876e80060fd600060fb60009054906101000a900473ffffffffffffffffffffffffffffffffffffffff1673ffffffffffffffffffffffffffffffffffffffff166365a9bf896040518163ffffffff1660e01b8152600401602060405180830381865afa158015610ae3573d6000803e3d6000fd5b505050506040513d601f19601f82011682018060405250810190610b07919061256f565b815260200190815260200160002081905550642e90edd00060fd600060fb60009054906101000a900473ffffffffffffffffffffffffffffffffffffffff1673ffffffffffffffffffffffffffffffffffffffff1663d91a1d7f6040518163ffffffff1660e01b8152600401602060405180830381865afa158015610b90573d6000803e3d6000fd5b505050506040513d601f19601f82011682018060405250810190610bb4919061256f565b8152602001908152602001600020819055506445d964b80060fd600060fb60009054906101000a900473ffffffffffffffffffffffffffffffffffffffff1673ffffffffffffffffffffffffffffffffffffffff1663528575fd6040518163ffffffff1660e01b8152600401602060405180830381865afa158015610c3d573d6000803e3d6000fd5b505050506040513d601f19601f82011682018060405250810190610c61919061256f565b815260200190815260200160002081905550610c806000801b336113b7565b610caa7f61c92169ef077349011ff0b1383c894d86c5f0b41d986366b58a6cf31e93beda336113b7565b8015610ccb5760008060016101000a81548160ff0219169083151502179055505b5050565b610cd882610532565b610ce981610ce4611312565b61131a565b610cf38383611498565b505050565b610d018161157a565b610d40576040517f08c379a0000000000000000000000000000000000000000000000000000000008152600401610d37906125e8565b60405180910390fd5b60fd6000828152602001908152602001600020543414610d95576040517f08c379a0000000000000000000000000000000000000000000000000000000008152600401610d8c9061267a565b60405180910390fd5b600060fe60003373ffffffffffffffffffffffffffffffffffffffff1673ffffffffffffffffffffffffffffffffffffffff1681526020019081526020016000205414610e17576040517f08c379a0000000000000000000000000000000000000000000000000000000008152600401610e0e9061270c565b60405180910390fd5b600060fc6000838152602001908152602001600020600160fc600085815260200190815260200160002080549050610e4f919061272c565b81548110610e6057610e5f612499565b5b906000526020600020015490506001151560ff60003373ffffffffffffffffffffffffffffffffffffffff1673ffffffffffffffffffffffffffffffffffffffff16815260200190815260200160002060009054906101000a900460ff16151503610ee3576101006000815480929190610ed990612760565b9190505550610f51565b60006101005460fc600085815260200190815260200160002080549050610f0a919061272c565b905060008111610f4f576040517f08c379a0000000000000000000000000000000000000000000000000000000008152600401610f46906127fb565b60405180910390fd5b505b60fc6000838152602001908152602001600020805480610f7457610f7361281b565b5b6001900381819060005260206000200160009055905560fb60009054906101000a900473ffffffffffffffffffffffffffffffffffffffff1673ffffffffffffffffffffffffffffffffffffffff1663f242432a30338460016040518563ffffffff1660e01b8152600401610fec94939291906128d5565b600060405180830381600087803b15801561100657600080fd5b505af115801561101a573d6000803e3d6000fd5b505050508060fe60003373ffffffffffffffffffffffffffffffffffffffff1673ffffffffffffffffffffffffffffffffffffffff168152602001908152602001600020819055507f985d112c54c7518a49841fc37640d9ded60112ea7370ca9129c8ed33c3607bc7338260405161109392919061292d565b60405180910390a15050565b60006110aa8261157a565b6110e9576040517f08c379a00000000000000000000000000000000000000000000000000000000081526004016110e0906129a2565b60405180910390fd5b60fd6000838152602001908152602001600020549050919050565b600060fb60009054906101000a900473ffffffffffffffffffffffffffffffffffffffff1673ffffffffffffffffffffffffffffffffffffffff163373ffffffffffffffffffffffffffffffffffffffff161461116057600080fd5b61117161116c856105fe565b61157a565b156111935761117f8461174a565b61118c8686868686611857565b905061119b565b600060e01b90505b95945050505050565b60006111af8361157a565b6111ee576040517f08c379a00000000000000000000000000000000000000000000000000000000081526004016111e5906129a2565b60405180910390fd5b60006001151560ff60008573ffffffffffffffffffffffffffffffffffffffff1673ffffffffffffffffffffffffffffffffffffffff16815260200190815260200160002060009054906101000a900460ff161515036112665760fc600085815260200190815260200160002080549050905061128e565b6101005460fc60008681526020019081526020016000208054905061128b919061272c565b90505b8091505092915050565b60007f4e2312e0000000000000000000000000000000000000000000000000000000007bffffffffffffffffffffffffffffffffffffffffffffffffffffffff1916827bffffffffffffffffffffffffffffffffffffffffffffffffffffffff1916148061130b575061130a8261186c565b5b9050919050565b600033905090565b61132482826107cb565b6113b3576113498173ffffffffffffffffffffffffffffffffffffffff1660146118e6565b6113578360001c60206118e6565b604051602001611368929190612ad4565b6040516020818303038152906040526040517f08c379a00000000000000000000000000000000000000000000000000000000081526004016113aa9190612b47565b60405180910390fd5b5050565b6113c182826107cb565b6114945760016065600084815260200190815260200160002060000160008373ffffffffffffffffffffffffffffffffffffffff1673ffffffffffffffffffffffffffffffffffffffff16815260200190815260200160002060006101000a81548160ff021916908315150217905550611439611312565b73ffffffffffffffffffffffffffffffffffffffff168173ffffffffffffffffffffffffffffffffffffffff16837f2f8788117e7eff1d82e926ec794901d17c78024a50270940304540a733656f0d60405160405180910390a45b5050565b6114a282826107cb565b156115765760006065600084815260200190815260200160002060000160008373ffffffffffffffffffffffffffffffffffffffff1673ffffffffffffffffffffffffffffffffffffffff16815260200190815260200160002060006101000a81548160ff02191690831515021790555061151b611312565b73ffffffffffffffffffffffffffffffffffffffff168173ffffffffffffffffffffffffffffffffffffffff16837ff6391f5c32d9c69d2a47ea670b442974b53935d1edc7fd64eb21e047a839171b60405160405180910390a45b5050565b600060fb60009054906101000a900473ffffffffffffffffffffffffffffffffffffffff1673ffffffffffffffffffffffffffffffffffffffff166365a9bf896040518163ffffffff1660e01b8152600401602060405180830381865afa1580156115e9573d6000803e3d6000fd5b505050506040513d601f19601f8201168201806040525081019061160d919061256f565b8214806116a9575060fb60009054906101000a900473ffffffffffffffffffffffffffffffffffffffff1673ffffffffffffffffffffffffffffffffffffffff1663d91a1d7f6040518163ffffffff1660e01b8152600401602060405180830381865afa158015611682573d6000803e3d6000fd5b505050506040513d601f19601f820116820180604052508101906116a6919061256f565b82145b80611743575060fb60009054906101000a900473ffffffffffffffffffffffffffffffffffffffff1673ffffffffffffffffffffffffffffffffffffffff1663528575fd6040518163ffffffff1660e01b8152600401602060405180830381865afa15801561171c573d6000803e3d6000fd5b505050506040513d601f19601f82011682018060405250810190611740919061256f565b82145b9050919050565b60fc6000611757836105fe565b815260200190815260200160002081908060018154018082558091505060019003906000526020600020016000909190919091505550565b600063bc197c8160e01b905095945050505050565b60006117af30611b22565b15905090565b600060019054906101000a900460ff16611804576040517f08c379a00000000000000000000000000000000000000000000000000000000081526004016117fb90612bdb565b60405180910390fd5b565b600060019054906101000a900460ff16611855576040517f08c379a000000000000000000000000000000000000000000000000000000000815260040161184c90612bdb565b60405180910390fd5b565b600063f23a6e6160e01b905095945050505050565b60007f7965db0b000000000000000000000000000000000000000000000000000000007bffffffffffffffffffffffffffffffffffffffffffffffffffffffff1916827bffffffffffffffffffffffffffffffffffffffffffffffffffffffff191614806118df57506118de82611b45565b5b9050919050565b6060600060028360026118f99190612bfb565b6119039190612c55565b67ffffffffffffffff81111561191c5761191b611eb9565b5b6040519080825280601f01601f19166020018201604052801561194e5781602001600182028036833780820191505090505b5090507f30000000000000000000000000000000000000000000000000000000000000008160008151811061198657611985612499565b5b60200101907effffffffffffffffffffffffffffffffffffffffffffffffffffffffffffff1916908160001a9053507f7800000000000000000000000000000000000000000000000000000000000000816001815181106119ea576119e9612499565b5b60200101907effffffffffffffffffffffffffffffffffffffffffffffffffffffffffffff1916908160001a90535060006001846002611a2a9190612bfb565b611a349190612c55565b90505b6001811115611ad4577f3031323334353637383961626364656600000000000000000000000000000000600f861660108110611a7657611a75612499565b5b1a60f81b828281518110611a8d57611a8c612499565b5b60200101907effffffffffffffffffffffffffffffffffffffffffffffffffffffffffffff1916908160001a905350600485901c945080611acd90612760565b9050611a37565b5060008414611b18576040517f08c379a0000000000000000000000000000000000000000000000000000000008152600401611b0f90612cf7565b60405180910390fd5b8091505092915050565b6000808273ffffffffffffffffffffffffffffffffffffffff163b119050919050565b60007f01ffc9a7000000000000000000000000000000000000000000000000000000007bffffffffffffffffffffffffffffffffffffffffffffffffffffffff1916827bffffffffffffffffffffffffffffffffffffffffffffffffffffffff1916149050919050565b6000604051905090565b600080fd5b600080fd5b60007fffffffff0000000000000000000000000000000000000000000000000000000082169050919050565b611bf881611bc3565b8114611c0357600080fd5b50565b600081359050611c1581611bef565b92915050565b600060208284031215611c3157611c30611bb9565b5b6000611c3f84828501611c06565b91505092915050565b60008115159050919050565b611c5d81611c48565b82525050565b6000602082019050611c786000830184611c54565b92915050565b6000819050919050565b611c9181611c7e565b8114611c9c57600080fd5b50565b600081359050611cae81611c88565b92915050565b60008060408385031215611ccb57611cca611bb9565b5b6000611cd985828601611c9f565b9250506020611cea85828601611c9f565b9150509250929050565b6000819050919050565b611d0781611cf4565b8114611d1257600080fd5b50565b600081359050611d2481611cfe565b92915050565b600060208284031215611d4057611d3f611bb9565b5b6000611d4e84828501611d15565b91505092915050565b611d6081611cf4565b82525050565b6000602082019050611d7b6000830184611d57565b92915050565b600073ffffffffffffffffffffffffffffffffffffffff82169050919050565b6000611dac82611d81565b9050919050565b611dbc81611da1565b8114611dc757600080fd5b50565b600081359050611dd981611db3565b92915050565b60008060408385031215611df657611df5611bb9565b5b6000611e0485828601611d15565b9250506020611e1585828601611dca565b9150509250929050565b600060208284031215611e3557611e34611bb9565b5b6000611e4384828501611c9f565b91505092915050565b611e5581611c7e565b82525050565b6000602082019050611e706000830184611e4c565b92915050565b600060208284031215611e8c57611e8b611bb9565b5b6000611e9a84828501611dca565b91505092915050565b600080fd5b6000601f19601f8301169050919050565b7f4e487b7100000000000000000000000000000000000000000000000000000000600052604160045260246000fd5b611ef182611ea8565b810181811067ffffffffffffffff82111715611f1057611f0f611eb9565b5b80604052505050565b6000611f23611baf565b9050611f2f8282611ee8565b919050565b600067ffffffffffffffff821115611f4f57611f4e611eb9565b5b602082029050602081019050919050565b600080fd5b6000611f78611f7384611f34565b611f19565b90508083825260208201905060208402830185811115611f9b57611f9a611f60565b5b835b81811015611fc45780611fb08882611c9f565b845260208401935050602081019050611f9d565b5050509392505050565b600082601f830112611fe357611fe2611ea3565b5b8135611ff3848260208601611f65565b91505092915050565b600080fd5b600067ffffffffffffffff82111561201c5761201b611eb9565b5b61202582611ea8565b9050602081019050919050565b82818337600083830152505050565b600061205461204f84612001565b611f19565b9050828152602081018484840111156120705761206f611ffc565b5b61207b848285612032565b509392505050565b600082601f83011261209857612097611ea3565b5b81356120a8848260208601612041565b91505092915050565b600080600080600060a086880312156120cd576120cc611bb9565b5b60006120db88828901611dca565b95505060206120ec88828901611dca565b945050604086013567ffffffffffffffff81111561210d5761210c611bbe565b5b61211988828901611fce565b935050606086013567ffffffffffffffff81111561213a57612139611bbe565b5b61214688828901611fce565b925050608086013567ffffffffffffffff81111561216757612166611bbe565b5b61217388828901612083565b9150509295509295909350565b61218981611bc3565b82525050565b60006020820190506121a46000830184612180565b92915050565b600080600080600060a086880312156121c6576121c5611bb9565b5b60006121d488828901611dca565b95505060206121e588828901611dca565b94505060406121f688828901611c9f565b935050606061220788828901611c9f565b925050608086013567ffffffffffffffff81111561222857612227611bbe565b5b61223488828901612083565b9150509295509295909350565b6000806040838503121561225857612257611bb9565b5b600061226685828601611c9f565b925050602061227785828601611dca565b9150509250929050565b600082825260208201905092915050565b7f596f752073686f756c642068617665205345545445525f524f4c450000000000600082015250565b60006122c8601b83612281565b91506122d382612292565b602082019050919050565b600060208201905081810360008301526122f7816122bb565b9050919050565b7f416363657373436f6e74726f6c3a2063616e206f6e6c792072656e6f756e636560008201527f20726f6c657320666f722073656c660000000000000000000000000000000000602082015250565b600061235a602f83612281565b9150612365826122fe565b604082019050919050565b600060208201905081810360008301526123898161234d565b9050919050565b7f4164647265737320616c72656164792065786973747320696e2074686520564960008201527f50206c6973740000000000000000000000000000000000000000000000000000602082015250565b60006123ec602683612281565b91506123f782612390565b604082019050919050565b6000602082019050818103600083015261241b816123df565b9050919050565b7f4e487b7100000000000000000000000000000000000000000000000000000000600052601160045260246000fd5b600061245c82611c7e565b91507fffffffffffffffffffffffffffffffffffffffffffffffffffffffffffffffff820361248e5761248d612422565b5b600182019050919050565b7f4e487b7100000000000000000000000000000000000000000000000000000000600052603260045260246000fd5b7f496e697469616c697a61626c653a20636f6e747261637420697320616c72656160008201527f647920696e697469616c697a6564000000000000000000000000000000000000602082015250565b6000612524602e83612281565b915061252f826124c8565b604082019050919050565b6000602082019050818103600083015261255381612517565b9050919050565b60008151905061256981611c88565b92915050565b60006020828403121561258557612584611bb9565b5b60006125938482850161255a565b91505092915050565b7f50726f7669646564206b696e642073686f756c64206265207469636b65740000600082015250565b60006125d2601e83612281565b91506125dd8261259c565b602082019050919050565b60006020820190508181036000830152612601816125c5565b9050919050565b7f42757965722073686f756c642070726f766964652065786163746c792074686560008201527f207072696365206f66207469636b657400000000000000000000000000000000602082015250565b6000612664603083612281565b915061266f82612608565b604082019050919050565b6000602082019050818103600083015261269381612657565b9050919050565b7f42757965722073686f756c64206e6f74206275792061207469636b657420626560008201527f666f726500000000000000000000000000000000000000000000000000000000602082015250565b60006126f6602483612281565b91506127018261269a565b604082019050919050565b60006020820190508181036000830152612725816126e9565b9050919050565b600061273782611c7e565b915061274283611c7e565b92508282101561275557612754612422565b5b828203905092915050565b600061276b82611c7e565b91506000820361277e5761277d612422565b5b600182039050919050565b7f4e6f7420656e6f756768207469636b657473206f6e20636f6e7472616374206260008201527f616c616e63650000000000000000000000000000000000000000000000000000602082015250565b60006127e5602683612281565b91506127f082612789565b604082019050919050565b60006020820190508181036000830152612814816127d8565b9050919050565b7f4e487b7100000000000000000000000000000000000000000000000000000000600052603160045260246000fd5b61285381611da1565b82525050565b6000819050919050565b6000819050919050565b600061288861288361287e84612859565b612863565b611c7e565b9050919050565b6128988161286d565b82525050565b600082825260208201905092915050565b50565b60006128bf60008361289e565b91506128ca826128af565b600082019050919050565b600060a0820190506128ea600083018761284a565b6128f7602083018661284a565b6129046040830185611e4c565b612911606083018461288f565b8181036080830152612922816128b2565b905095945050505050565b6000604082019050612942600083018561284a565b61294f6020830184611e4c565b9392505050565b7f4b696e642073686f756c64206265207469636b65740000000000000000000000600082015250565b600061298c601583612281565b915061299782612956565b602082019050919050565b600060208201905081810360008301526129bb8161297f565b9050919050565b600081905092915050565b7f416363657373436f6e74726f6c3a206163636f756e7420000000000000000000600082015250565b6000612a036017836129c2565b9150612a0e826129cd565b601782019050919050565b600081519050919050565b60005b83811015612a42578082015181840152602081019050612a27565b83811115612a51576000848401525b50505050565b6000612a6282612a19565b612a6c81856129c2565b9350612a7c818560208601612a24565b80840191505092915050565b7f206973206d697373696e6720726f6c6520000000000000000000000000000000600082015250565b6000612abe6011836129c2565b9150612ac982612a88565b601182019050919050565b6000612adf826129f6565b9150612aeb8285612a57565b9150612af682612ab1565b9150612b028284612a57565b91508190509392505050565b6000612b1982612a19565b612b238185612281565b9350612b33818560208601612a24565b612b3c81611ea8565b840191505092915050565b60006020820190508181036000830152612b618184612b0e565b905092915050565b7f496e697469616c697a61626c653a20636f6e7472616374206973206e6f74206960008201527f6e697469616c697a696e67000000000000000000000000000000000000000000602082015250565b6000612bc5602b83612281565b9150612bd082612b69565b604082019050919050565b60006020820190508181036000830152612bf481612bb8565b9050919050565b6000612c0682611c7e565b9150612c1183611c7e565b9250817fffffffffffffffffffffffffffffffffffffffffffffffffffffffffffffffff0483118215151615612c4a57612c49612422565b5b828202905092915050565b6000612c6082611c7e565b9150612c6b83611c7e565b9250827fffffffffffffffffffffffffffffffffffffffffffffffffffffffffffffffff03821115612ca057612c9f612422565b5b828201905092915050565b7f537472696e67733a20686578206c656e67746820696e73756666696369656e74600082015250565b6000612ce1602083612281565b9150612cec82612cab565b602082019050919050565b60006020820190508181036000830152612d1081612cd4565b905091905056fea2646970667358221220dc4ac9ed8035135c26db40ec953f8ff0b5e39157a68a3252e6b0034d521f5e3664736f6c634300080d0033",
  "devdoc": {
    "kind": "dev",
    "methods": {
      "getRoleAdmin(bytes32)": {
        "details": "Returns the admin role that controls `role`. See {grantRole} and {revokeRole}. To change a role's admin, use {_setRoleAdmin}."
      },
      "grantRole(bytes32,address)": {
        "details": "Grants `role` to `account`. If `account` had not been already granted `role`, emits a {RoleGranted} event. Requirements: - the caller must have ``role``'s admin role."
      },
      "hasRole(bytes32,address)": {
        "details": "Returns `true` if `account` has been granted `role`."
      },
      "renounceRole(bytes32,address)": {
        "details": "Revokes `role` from the calling account. Roles are often managed via {grantRole} and {revokeRole}: this function's purpose is to provide a mechanism for accounts to lose their privileges if they are compromised (such as when a trusted device is misplaced). If the calling account had been revoked `role`, emits a {RoleRevoked} event. Requirements: - the caller must be `account`."
      },
      "revokeRole(bytes32,address)": {
        "details": "Revokes `role` from `account`. If `account` had been granted `role`, emits a {RoleRevoked} event. Requirements: - the caller must have ``role``'s admin role."
      }
    },
    "version": 1
  },
  "userdoc": {
    "kind": "user",
    "methods": {},
    "version": 1
  },
  "storageLayout": {
    "storage": [
      {
        "astId": 532,
        "contract": "contracts/BetaTicketSale.sol:BetaTicketSale",
        "label": "_initialized",
        "offset": 0,
        "slot": "0",
        "type": "t_bool"
      },
      {
        "astId": 535,
        "contract": "contracts/BetaTicketSale.sol:BetaTicketSale",
        "label": "_initializing",
        "offset": 1,
        "slot": "0",
        "type": "t_bool"
      },
      {
        "astId": 2848,
        "contract": "contracts/BetaTicketSale.sol:BetaTicketSale",
        "label": "__gap",
        "offset": 0,
        "slot": "1",
        "type": "t_array(t_uint256)50_storage"
      },
      {
        "astId": 3652,
        "contract": "contracts/BetaTicketSale.sol:BetaTicketSale",
        "label": "__gap",
        "offset": 0,
        "slot": "51",
        "type": "t_array(t_uint256)50_storage"
      },
      {
        "astId": 39,
        "contract": "contracts/BetaTicketSale.sol:BetaTicketSale",
        "label": "_roles",
        "offset": 0,
        "slot": "101",
        "type": "t_mapping(t_bytes32,t_struct(RoleData)34_storage)"
      },
      {
        "astId": 327,
        "contract": "contracts/BetaTicketSale.sol:BetaTicketSale",
        "label": "__gap",
        "offset": 0,
        "slot": "102",
        "type": "t_array(t_uint256)49_storage"
      },
      {
        "astId": 2261,
        "contract": "contracts/BetaTicketSale.sol:BetaTicketSale",
        "label": "__gap",
        "offset": 0,
        "slot": "151",
        "type": "t_array(t_uint256)50_storage"
      },
      {
        "astId": 2207,
        "contract": "contracts/BetaTicketSale.sol:BetaTicketSale",
        "label": "__gap",
        "offset": 0,
        "slot": "201",
        "type": "t_array(t_uint256)50_storage"
      },
      {
        "astId": 6000,
        "contract": "contracts/BetaTicketSale.sol:BetaTicketSale",
        "label": "collection",
        "offset": 0,
        "slot": "251",
        "type": "t_contract(MetarunCollection)7835"
      },
      {
        "astId": 6013,
        "contract": "contracts/BetaTicketSale.sol:BetaTicketSale",
        "label": "tickets",
        "offset": 0,
        "slot": "252",
        "type": "t_mapping(t_uint256,t_array(t_uint256)dyn_storage)"
      },
      {
        "astId": 6017,
        "contract": "contracts/BetaTicketSale.sol:BetaTicketSale",
        "label": "ticketKindPrices",
        "offset": 0,
        "slot": "253",
        "type": "t_mapping(t_uint256,t_uint256)"
      },
      {
        "astId": 6021,
        "contract": "contracts/BetaTicketSale.sol:BetaTicketSale",
        "label": "boughtTicketId",
        "offset": 0,
        "slot": "254",
        "type": "t_mapping(t_address,t_uint256)"
      },
      {
        "astId": 6025,
        "contract": "contracts/BetaTicketSale.sol:BetaTicketSale",
        "label": "vipList",
        "offset": 0,
        "slot": "255",
        "type": "t_mapping(t_address,t_bool)"
      },
      {
        "astId": 6027,
        "contract": "contracts/BetaTicketSale.sol:BetaTicketSale",
        "label": "availableVipTickets",
        "offset": 0,
        "slot": "256",
        "type": "t_uint256"
      }
    ],
    "types": {
      "t_address": {
        "encoding": "inplace",
        "label": "address",
        "numberOfBytes": "20"
      },
      "t_array(t_uint256)49_storage": {
        "base": "t_uint256",
        "encoding": "inplace",
        "label": "uint256[49]",
        "numberOfBytes": "1568"
      },
      "t_array(t_uint256)50_storage": {
        "base": "t_uint256",
        "encoding": "inplace",
        "label": "uint256[50]",
        "numberOfBytes": "1600"
      },
      "t_array(t_uint256)dyn_storage": {
        "base": "t_uint256",
        "encoding": "dynamic_array",
        "label": "uint256[]",
        "numberOfBytes": "32"
      },
      "t_bool": {
        "encoding": "inplace",
        "label": "bool",
        "numberOfBytes": "1"
      },
      "t_bytes32": {
        "encoding": "inplace",
        "label": "bytes32",
        "numberOfBytes": "32"
      },
      "t_contract(MetarunCollection)7835": {
        "encoding": "inplace",
        "label": "contract MetarunCollection",
        "numberOfBytes": "20"
      },
      "t_mapping(t_address,t_bool)": {
        "encoding": "mapping",
        "key": "t_address",
        "label": "mapping(address => bool)",
        "numberOfBytes": "32",
        "value": "t_bool"
      },
      "t_mapping(t_address,t_uint256)": {
        "encoding": "mapping",
        "key": "t_address",
        "label": "mapping(address => uint256)",
        "numberOfBytes": "32",
        "value": "t_uint256"
      },
      "t_mapping(t_bytes32,t_struct(RoleData)34_storage)": {
        "encoding": "mapping",
        "key": "t_bytes32",
        "label": "mapping(bytes32 => struct AccessControlUpgradeable.RoleData)",
        "numberOfBytes": "32",
        "value": "t_struct(RoleData)34_storage"
      },
      "t_mapping(t_uint256,t_array(t_uint256)dyn_storage)": {
        "encoding": "mapping",
        "key": "t_uint256",
        "label": "mapping(uint256 => uint256[])",
        "numberOfBytes": "32",
        "value": "t_array(t_uint256)dyn_storage"
      },
      "t_mapping(t_uint256,t_uint256)": {
        "encoding": "mapping",
        "key": "t_uint256",
        "label": "mapping(uint256 => uint256)",
        "numberOfBytes": "32",
        "value": "t_uint256"
      },
      "t_struct(RoleData)34_storage": {
        "encoding": "inplace",
        "label": "struct AccessControlUpgradeable.RoleData",
        "members": [
          {
            "astId": 31,
            "contract": "contracts/BetaTicketSale.sol:BetaTicketSale",
            "label": "members",
            "offset": 0,
            "slot": "0",
            "type": "t_mapping(t_address,t_bool)"
          },
          {
            "astId": 33,
            "contract": "contracts/BetaTicketSale.sol:BetaTicketSale",
            "label": "adminRole",
            "offset": 0,
            "slot": "1",
            "type": "t_bytes32"
          }
        ],
        "numberOfBytes": "64"
      },
      "t_uint256": {
        "encoding": "inplace",
        "label": "uint256",
        "numberOfBytes": "32"
      }
    }
  }
}