{
  "address": "0x55AFC20bDaD2d61791d3B2360709529D4F1dE3E8",
  "abi": [
    {
      "inputs": [
        {
          "internalType": "address",
          "name": "_token",
          "type": "address"
        },
        {
          "internalType": "uint256",
          "name": "_stakeDurationDays",
          "type": "uint256"
        },
        {
          "internalType": "uint256",
          "name": "_yieldRate",
          "type": "uint256"
        },
        {
          "internalType": "uint256",
          "name": "_earlyUnstakeFee",
          "type": "uint256"
        }
      ],
      "stateMutability": "nonpayable",
      "type": "constructor"
    },
    {
      "anonymous": false,
      "inputs": [
        {
          "indexed": true,
          "internalType": "address",
          "name": "user",
          "type": "address"
        },
        {
          "indexed": true,
          "internalType": "uint256",
          "name": "stakeId",
          "type": "uint256"
        },
        {
          "indexed": false,
          "internalType": "uint256",
          "name": "amount",
          "type": "uint256"
        },
        {
          "indexed": false,
          "internalType": "uint256",
          "name": "harvestTime",
          "type": "uint256"
        }
      ],
      "name": "Harvest",
      "type": "event"
    },
    {
      "anonymous": false,
      "inputs": [
        {
          "indexed": true,
          "internalType": "address",
          "name": "previousOwner",
          "type": "address"
        },
        {
          "indexed": true,
          "internalType": "address",
          "name": "newOwner",
          "type": "address"
        }
      ],
      "name": "OwnershipTransferred",
      "type": "event"
    },
    {
      "anonymous": false,
      "inputs": [
        {
          "indexed": true,
          "internalType": "address",
          "name": "user",
          "type": "address"
        },
        {
          "indexed": true,
          "internalType": "uint256",
          "name": "stakeId",
          "type": "uint256"
        },
        {
          "indexed": false,
          "internalType": "uint256",
          "name": "amount",
          "type": "uint256"
        },
        {
          "indexed": false,
          "internalType": "uint256",
          "name": "startTime",
          "type": "uint256"
        },
        {
          "indexed": false,
          "internalType": "uint256",
          "name": "endTime",
          "type": "uint256"
        }
      ],
      "name": "Stake",
      "type": "event"
    },
    {
      "anonymous": false,
      "inputs": [
        {
          "indexed": true,
          "internalType": "address",
          "name": "user",
          "type": "address"
        },
        {
          "indexed": true,
          "internalType": "uint256",
          "name": "stakeId",
          "type": "uint256"
        },
        {
          "indexed": false,
          "internalType": "uint256",
          "name": "amount",
          "type": "uint256"
        },
        {
          "indexed": false,
          "internalType": "uint256",
          "name": "startTime",
          "type": "uint256"
        },
        {
          "indexed": false,
          "internalType": "uint256",
          "name": "endTime",
          "type": "uint256"
        },
        {
          "indexed": false,
          "internalType": "bool",
          "name": "early",
          "type": "bool"
        }
      ],
      "name": "Unstake",
      "type": "event"
    },
    {
      "inputs": [],
      "name": "WITHDRAWAL_LOCKUP_DURATION",
      "outputs": [
        {
          "internalType": "uint256",
          "name": "",
          "type": "uint256"
        }
      ],
      "stateMutability": "view",
      "type": "function"
    },
    {
      "inputs": [],
      "name": "allocatedTokens",
      "outputs": [
        {
          "internalType": "uint256",
          "name": "",
          "type": "uint256"
        }
      ],
      "stateMutability": "view",
      "type": "function"
    },
    {
      "inputs": [],
      "name": "earlyUnstakeFee",
      "outputs": [
        {
          "internalType": "uint256",
          "name": "",
          "type": "uint256"
        }
      ],
      "stateMutability": "view",
      "type": "function"
    },
    {
      "inputs": [
        {
          "internalType": "address",
          "name": "_userAddress",
          "type": "address"
        },
        {
          "internalType": "uint256",
          "name": "_stakeId",
          "type": "uint256"
        }
      ],
      "name": "getStake",
      "outputs": [
        {
          "internalType": "bool",
          "name": "staked",
          "type": "bool"
        },
        {
          "internalType": "uint256",
          "name": "stakedAmount",
          "type": "uint256"
        },
        {
          "internalType": "uint256",
          "name": "startTime",
          "type": "uint256"
        },
        {
          "internalType": "uint256",
          "name": "endTime",
          "type": "uint256"
        },
        {
          "internalType": "uint256",
          "name": "totalYield",
          "type": "uint256"
        },
        {
          "internalType": "uint256",
          "name": "harvestedYield",
          "type": "uint256"
        },
        {
          "internalType": "uint256",
          "name": "lastHarvestTime",
          "type": "uint256"
        },
        {
          "internalType": "uint256",
          "name": "harvestableYield",
          "type": "uint256"
        }
      ],
      "stateMutability": "view",
      "type": "function"
    },
    {
      "inputs": [
        {
          "internalType": "address",
          "name": "_userAddress",
          "type": "address"
        }
      ],
      "name": "getStakesLength",
      "outputs": [
        {
          "internalType": "uint256",
          "name": "",
          "type": "uint256"
        }
      ],
      "stateMutability": "view",
      "type": "function"
    },
    {
      "inputs": [
        {
          "internalType": "uint256",
          "name": "_stakeId",
          "type": "uint256"
        }
      ],
      "name": "harvest",
      "outputs": [],
      "stateMutability": "nonpayable",
      "type": "function"
    },
    {
      "inputs": [],
      "name": "owner",
      "outputs": [
        {
          "internalType": "address",
          "name": "",
          "type": "address"
        }
      ],
      "stateMutability": "view",
      "type": "function"
    },
    {
      "inputs": [],
      "name": "renounceOwnership",
      "outputs": [],
      "stateMutability": "nonpayable",
      "type": "function"
    },
    {
      "inputs": [
        {
          "internalType": "uint256",
          "name": "_amount",
          "type": "uint256"
        }
      ],
      "name": "stake",
      "outputs": [],
      "stateMutability": "nonpayable",
      "type": "function"
    },
    {
      "inputs": [],
      "name": "stakeDurationDays",
      "outputs": [
        {
          "internalType": "uint256",
          "name": "",
          "type": "uint256"
        }
      ],
      "stateMutability": "view",
      "type": "function"
    },
    {
      "inputs": [],
      "name": "stakedTokens",
      "outputs": [
        {
          "internalType": "uint256",
          "name": "",
          "type": "uint256"
        }
      ],
      "stateMutability": "view",
      "type": "function"
    },
    {
      "inputs": [
        {
          "internalType": "address",
          "name": "",
          "type": "address"
        },
        {
          "internalType": "uint256",
          "name": "",
          "type": "uint256"
        }
      ],
      "name": "stakes",
      "outputs": [
        {
          "internalType": "bool",
          "name": "staked",
          "type": "bool"
        },
        {
          "internalType": "uint256",
          "name": "stakedAmount",
          "type": "uint256"
        },
        {
          "internalType": "uint256",
          "name": "startTime",
          "type": "uint256"
        },
        {
          "internalType": "uint256",
          "name": "endTime",
          "type": "uint256"
        },
        {
          "internalType": "uint256",
          "name": "totalYield",
          "type": "uint256"
        },
        {
          "internalType": "uint256",
          "name": "harvestedYield",
          "type": "uint256"
        },
        {
          "internalType": "uint256",
          "name": "lastHarvestTime",
          "type": "uint256"
        }
      ],
      "stateMutability": "view",
      "type": "function"
    },
    {
      "inputs": [],
      "name": "stakesOpen",
      "outputs": [
        {
          "internalType": "bool",
          "name": "",
          "type": "bool"
        }
      ],
      "stateMutability": "view",
      "type": "function"
    },
    {
      "inputs": [],
      "name": "start",
      "outputs": [],
      "stateMutability": "nonpayable",
      "type": "function"
    },
    {
      "inputs": [],
      "name": "stop",
      "outputs": [],
      "stateMutability": "nonpayable",
      "type": "function"
    },
    {
      "inputs": [],
      "name": "token",
      "outputs": [
        {
          "internalType": "contract IERC20",
          "name": "",
          "type": "address"
        }
      ],
      "stateMutability": "view",
      "type": "function"
    },
    {
      "inputs": [
        {
          "internalType": "address",
          "name": "newOwner",
          "type": "address"
        }
      ],
      "name": "transferOwnership",
      "outputs": [],
      "stateMutability": "nonpayable",
      "type": "function"
    },
    {
      "inputs": [],
      "name": "unallocatedTokens",
      "outputs": [
        {
          "internalType": "uint256",
          "name": "",
          "type": "uint256"
        }
      ],
      "stateMutability": "view",
      "type": "function"
    },
    {
      "inputs": [
        {
          "internalType": "uint256",
          "name": "_stakeId",
          "type": "uint256"
        }
      ],
      "name": "unstake",
      "outputs": [],
      "stateMutability": "nonpayable",
      "type": "function"
    },
    {
      "inputs": [
        {
          "internalType": "address",
          "name": "_to",
          "type": "address"
        },
        {
          "internalType": "uint256",
          "name": "_amount",
          "type": "uint256"
        }
      ],
      "name": "withdrawUnallocatedTokens",
      "outputs": [],
      "stateMutability": "nonpayable",
      "type": "function"
    },
    {
      "inputs": [],
      "name": "withdrawalUnlockTime",
      "outputs": [
        {
          "internalType": "uint256",
          "name": "",
          "type": "uint256"
        }
      ],
      "stateMutability": "view",
      "type": "function"
    },
    {
      "inputs": [],
      "name": "yieldRate",
      "outputs": [
        {
          "internalType": "uint256",
          "name": "",
          "type": "uint256"
        }
      ],
      "stateMutability": "view",
      "type": "function"
    }
  ],
  "transactionHash": "0x06897df64fb16f032587a08cfdb39bfce4b836685ffdb3bcb1fdbed0ace99531",
  "args": [
    "0x3FD710225B4F56e41259a469640e826964e39D91",
    6,
    2250,
    2250
  ],
  "numDeployments": 1,
  "solcInputHash": "5ab72c552f8f470e8d72b589b52d820b",
  "bytecode": "0x60806040523480156200001157600080fd5b5060405162002ff938038062002ff983398181016040528101906200003791906200037a565b620000576200004b620001e960201b60201c565b620001f160201b60201c565b600073ffffffffffffffffffffffffffffffffffffffff168473ffffffffffffffffffffffffffffffffffffffff161415620000ca576040517f08c379a0000000000000000000000000000000000000000000000000000000008152600401620000c1906200044d565b60405180910390fd5b6000821162000110576040517f08c379a00000000000000000000000000000000000000000000000000000000081526004016200010790620004bf565b60405180910390fd5b6000811162000156576040517f08c379a00000000000000000000000000000000000000000000000000000000081526004016200014d9062000531565b60405180910390fd5b83600160006101000a81548173ffffffffffffffffffffffffffffffffffffffff021916908373ffffffffffffffffffffffffffffffffffffffff160217905550826004819055508160068190555080600581905550620001d96302c7ea00620001c5620002b560201b60201c565b620002bd60201b6200162f1790919060201c565b60088190555050505050620005df565b600033905090565b60008060009054906101000a900473ffffffffffffffffffffffffffffffffffffffff169050816000806101000a81548173ffffffffffffffffffffffffffffffffffffffff021916908373ffffffffffffffffffffffffffffffffffffffff1602179055508173ffffffffffffffffffffffffffffffffffffffff168173ffffffffffffffffffffffffffffffffffffffff167f8be0079c531659141344cd1fd0a4f28419497f9722a3daafe3b4186f6b6457e060405160405180910390a35050565b600042905090565b60008183620002cd919062000582565b905092915050565b600080fd5b600073ffffffffffffffffffffffffffffffffffffffff82169050919050565b60006200030782620002da565b9050919050565b6200031981620002fa565b81146200032557600080fd5b50565b60008151905062000339816200030e565b92915050565b6000819050919050565b62000354816200033f565b81146200036057600080fd5b50565b600081519050620003748162000349565b92915050565b60008060008060808587031215620003975762000396620002d5565b5b6000620003a78782880162000328565b9450506020620003ba8782880162000363565b9350506040620003cd8782880162000363565b9250506060620003e08782880162000363565b91505092959194509250565b600082825260208201905092915050565b7f456d70747920746f6b656e206164647265737300000000000000000000000000600082015250565b600062000435601383620003ec565b91506200044282620003fd565b602082019050919050565b60006020820190508181036000830152620004688162000426565b9050919050565b7f5a65726f207969656c6420726174650000000000000000000000000000000000600082015250565b6000620004a7600f83620003ec565b9150620004b4826200046f565b602082019050919050565b60006020820190508181036000830152620004da8162000498565b9050919050565b7f5a65726f206561726c7920556e7374616b652046656500000000000000000000600082015250565b600062000519601683620003ec565b91506200052682620004e1565b602082019050919050565b600060208201905081810360008301526200054c816200050a565b9050919050565b7f4e487b7100000000000000000000000000000000000000000000000000000000600052601160045260246000fd5b60006200058f826200033f565b91506200059c836200033f565b9250827fffffffffffffffffffffffffffffffffffffffffffffffffffffffffffffffff03821115620005d457620005d362000553565b5b828201905092915050565b612a0a80620005ef6000396000f3fe608060405234801561001057600080fd5b50600436106101415760003560e01c8063715018a6116100b8578063cb6290091161007c578063cb6290091461030e578063cb913c821461032c578063cfd476631461034a578063ddc6326214610381578063f2fde38b1461039d578063fc0c546a146103b957610141565b8063715018a6146102905780638da5cb5b1461029a578063909767d9146102b8578063a694fc3a146102e8578063be9a65551461030457610141565b80632736f3ea1161010a5780632736f3ea146101c6578063296ee19f146101e45780632e17de781461020257806354b6081e1461021e578063584b62a11461023c5780636999ac931461027257610141565b80622f9569146101465780630711306d1461016457806307da68f51461018257806313f063091461018c578063245acab2146101a8575b600080fd5b61014e6103d7565b60405161015b9190611af0565b60405180910390f35b61016c6103dd565b6040516101799190611af0565b60405180910390f35b61018a6103e3565b005b6101a660048036038101906101a19190611b9a565b6104ca565b005b6101b06106e0565b6040516101bd9190611af0565b60405180910390f35b6101ce6106e6565b6040516101db9190611af0565b60405180910390f35b6101ec6106ee565b6040516101f99190611af0565b60405180910390f35b61021c60048036038101906102179190611bda565b6107b9565b005b610226610bc2565b6040516102339190611af0565b60405180910390f35b61025660048036038101906102519190611b9a565b610bc8565b6040516102699796959493929190611c22565b60405180910390f35b61027a610c34565b6040516102879190611af0565b60405180910390f35b610298610c3a565b005b6102a2610cc2565b6040516102af9190611ca0565b60405180910390f35b6102d260048036038101906102cd9190611cbb565b610ceb565b6040516102df9190611af0565b60405180910390f35b61030260048036038101906102fd9190611bda565b610d37565b005b61030c61107c565b005b610316611165565b6040516103239190611af0565b60405180910390f35b61033461116b565b6040516103419190611ce8565b60405180910390f35b610364600480360381019061035f9190611b9a565b61117e565b604051610378989796959493929190611d03565b60405180910390f35b61039b60048036038101906103969190611bda565b61130a565b005b6103b760048036038101906103b29190611cbb565b611511565b005b6103c1611609565b6040516103ce9190611de0565b60405180910390f35b60075481565b60055481565b6103eb611645565b73ffffffffffffffffffffffffffffffffffffffff16610409610cc2565b73ffffffffffffffffffffffffffffffffffffffff161461045f576040517f08c379a000000000000000000000000000000000000000000000000000000000815260040161045690611e58565b60405180910390fd5b600060149054906101000a900460ff166104ae576040517f08c379a00000000000000000000000000000000000000000000000000000000081526004016104a590611ec4565b60405180910390fd5b60008060146101000a81548160ff021916908315150217905550565b6104d2611645565b73ffffffffffffffffffffffffffffffffffffffff166104f0610cc2565b73ffffffffffffffffffffffffffffffffffffffff1614610546576040517f08c379a000000000000000000000000000000000000000000000000000000000815260040161053d90611e58565b60405180910390fd5b600073ffffffffffffffffffffffffffffffffffffffff168273ffffffffffffffffffffffffffffffffffffffff1614156105b6576040517f08c379a00000000000000000000000000000000000000000000000000000000081526004016105ad90611f30565b60405180910390fd5b600081116105f9576040517f08c379a00000000000000000000000000000000000000000000000000000000081526004016105f090611f9c565b60405180910390fd5b806106026106ee565b1015610643576040517f08c379a000000000000000000000000000000000000000000000000000000000815260040161063a90612008565b60405180910390fd5b60085461064e61164d565b101561068f576040517f08c379a00000000000000000000000000000000000000000000000000000000081526004016106869061209a565b60405180910390fd5b6106dc8282600160009054906101000a900473ffffffffffffffffffffffffffffffffffffffff1673ffffffffffffffffffffffffffffffffffffffff166116559092919063ffffffff16565b5050565b60045481565b6302c7ea0081565b60006107b46007546107a6600354600160009054906101000a900473ffffffffffffffffffffffffffffffffffffffff1673ffffffffffffffffffffffffffffffffffffffff166370a08231306040518263ffffffff1660e01b81526004016107579190611ca0565b602060405180830381865afa158015610774573d6000803e3d6000fd5b505050506040513d601f19601f8201168201806040525081019061079891906120cf565b6116db90919063ffffffff16565b6116db90919063ffffffff16565b905090565b60008060008060008060006107ce338961117e565b97505096509650965096509650965060008761081f576040517f08c379a000000000000000000000000000000000000000000000000000000000815260040161081690612148565b60405180910390fd5b8461082861164d565b111561091a576000600260003373ffffffffffffffffffffffffffffffffffffffff1673ffffffffffffffffffffffffffffffffffffffff1681526020019081526020016000208a8154811061088157610880612168565b5b906000526020600020906007020160000160006101000a81548160ff0219169083151502179055506108be876003546116db90919063ffffffff16565b600381905550600090506109153388600160009054906101000a900473ffffffffffffffffffffffffffffffffffffffff1673ffffffffffffffffffffffffffffffffffffffff166116559092919063ffffffff16565b610b62565b600061092f838561162f90919063ffffffff16565b905061095861094782876116db90919063ffffffff16565b6007546116db90919063ffffffff16565b6007819055506000600260003373ffffffffffffffffffffffffffffffffffffffff1673ffffffffffffffffffffffffffffffffffffffff1681526020019081526020016000208b815481106109b1576109b0612168565b5b906000526020600020906007020160000160006101000a81548160ff0219169083151502179055506109e161164d565b600260003373ffffffffffffffffffffffffffffffffffffffff1673ffffffffffffffffffffffffffffffffffffffff1681526020019081526020016000208b81548110610a3257610a31612168565b5b90600052602060002090600702016003018190555080600260003373ffffffffffffffffffffffffffffffffffffffff1673ffffffffffffffffffffffffffffffffffffffff1681526020019081526020016000208b81548110610a9957610a98612168565b5b906000526020600020906007020160040181905550610ac3886003546116db90919063ffffffff16565b600381905550600191506000610af8612710610aea6005548c6116f190919063ffffffff16565b61170790919063ffffffff16565b90506000610b0f828b6116db90919063ffffffff16565b9050610b5e3382600160009054906101000a900473ffffffffffffffffffffffffffffffffffffffff1673ffffffffffffffffffffffffffffffffffffffff166116559092919063ffffffff16565b5050505b883373ffffffffffffffffffffffffffffffffffffffff167fc27678b8d9d59c0688159890347f79df5b543dff3fcad311f8142181a3661c1489898986604051610baf9493929190612197565b60405180910390a3505050505050505050565b60085481565b60026020528160005260406000208181548110610be457600080fd5b9060005260206000209060070201600091509150508060000160009054906101000a900460ff16908060010154908060020154908060030154908060040154908060050154908060060154905087565b60065481565b610c42611645565b73ffffffffffffffffffffffffffffffffffffffff16610c60610cc2565b73ffffffffffffffffffffffffffffffffffffffff1614610cb6576040517f08c379a0000000000000000000000000000000000000000000000000000000008152600401610cad90611e58565b60405180910390fd5b610cc0600061171d565b565b60008060009054906101000a900473ffffffffffffffffffffffffffffffffffffffff16905090565b6000600260008373ffffffffffffffffffffffffffffffffffffffff1673ffffffffffffffffffffffffffffffffffffffff168152602001908152602001600020805490509050919050565b600060149054906101000a900460ff16610d86576040517f08c379a0000000000000000000000000000000000000000000000000000000008152600401610d7d90612228565b60405180910390fd5b60008111610dc9576040517f08c379a0000000000000000000000000000000000000000000000000000000008152600401610dc090612294565b60405180910390fd5b6000610df4612710610de6600654856116f190919063ffffffff16565b61170790919063ffffffff16565b905080610dff6106ee565b1015610e40576040517f08c379a0000000000000000000000000000000000000000000000000000000008152600401610e3790612326565b60405180910390fd5b6000610e4a61164d565b90506000610e7e610e68610e106004546116f190919063ffffffff16565b610e7061164d565b61162f90919063ffffffff16565b9050600260003373ffffffffffffffffffffffffffffffffffffffff1673ffffffffffffffffffffffffffffffffffffffff1681526020019081526020016000206040518060e001604052806001151581526020018681526020018481526020018381526020018581526020016000815260200184815250908060018154018082558091505060019003906000526020600020906007020160009091909190915060008201518160000160006101000a81548160ff0219169083151502179055506020820151816001015560408201518160020155606082015181600301556080820151816004015560a0820151816005015560c082015181600601555050610f928360075461162f90919063ffffffff16565b600781905550610fad8460035461162f90919063ffffffff16565b6003819055506000610fd16001610fc333610ceb565b6116db90919063ffffffff16565b9050803373ffffffffffffffffffffffffffffffffffffffff167f2720efa4b2dd4f3f8a347da3cbd290a522e9432da9072c5b8e6300496fdde28287868660405161101e93929190612346565b60405180910390a3611075333087600160009054906101000a900473ffffffffffffffffffffffffffffffffffffffff1673ffffffffffffffffffffffffffffffffffffffff166117e1909392919063ffffffff16565b5050505050565b611084611645565b73ffffffffffffffffffffffffffffffffffffffff166110a2610cc2565b73ffffffffffffffffffffffffffffffffffffffff16146110f8576040517f08c379a00000000000000000000000000000000000000000000000000000000081526004016110ef90611e58565b60405180910390fd5b600060149054906101000a900460ff1615611148576040517f08c379a000000000000000000000000000000000000000000000000000000000815260040161113f906123c9565b60405180910390fd5b6001600060146101000a81548160ff021916908315150217905550565b60035481565b600060149054906101000a900460ff1681565b6000806000806000806000806000600260008c73ffffffffffffffffffffffffffffffffffffffff1673ffffffffffffffffffffffffffffffffffffffff1681526020019081526020016000208a815481106111dd576111dc612168565b5b90600052602060002090600702016040518060e00160405290816000820160009054906101000a900460ff161515151581526020016001820154815260200160028201548152602001600382015481526020016004820154815260200160058201548152602001600682015481525050905080600001519850806020015197508060400151965080606001519550806080015194508060a0015193508060c0015192508561128961164d565b11156112a9576112a284866116db90919063ffffffff16565b91506112fc565b6112f96112bf88886116db90919063ffffffff16565b6112eb6112dc866112ce61164d565b6116db90919063ffffffff16565b886116f190919063ffffffff16565b61170790919063ffffffff16565b91505b509295985092959890939650565b600080611317338461117e565b975050965050505050506000811415611365576040517f08c379a000000000000000000000000000000000000000000000000000000000815260040161135c90612435565b60405180910390fd5b61137a816007546116db90919063ffffffff16565b600781905550611393818361162f90919063ffffffff16565b600260003373ffffffffffffffffffffffffffffffffffffffff1673ffffffffffffffffffffffffffffffffffffffff16815260200190815260200160002084815481106113e4576113e3612168565b5b90600052602060002090600702016005018190555061140161164d565b600260003373ffffffffffffffffffffffffffffffffffffffff1673ffffffffffffffffffffffffffffffffffffffff168152602001908152602001600020848154811061145257611451612168565b5b906000526020600020906007020160060181905550823373ffffffffffffffffffffffffffffffffffffffff167f4534f107610758c3931de9ad1e176476fcfb8c74adf920167e1d54ee84fcfe76836114a961164d565b6040516114b7929190612455565b60405180910390a361150c3382600160009054906101000a900473ffffffffffffffffffffffffffffffffffffffff1673ffffffffffffffffffffffffffffffffffffffff166116559092919063ffffffff16565b505050565b611519611645565b73ffffffffffffffffffffffffffffffffffffffff16611537610cc2565b73ffffffffffffffffffffffffffffffffffffffff161461158d576040517f08c379a000000000000000000000000000000000000000000000000000000000815260040161158490611e58565b60405180910390fd5b600073ffffffffffffffffffffffffffffffffffffffff168173ffffffffffffffffffffffffffffffffffffffff1614156115fd576040517f08c379a00000000000000000000000000000000000000000000000000000000081526004016115f4906124f0565b60405180910390fd5b6116068161171d565b50565b600160009054906101000a900473ffffffffffffffffffffffffffffffffffffffff1681565b6000818361163d919061253f565b905092915050565b600033905090565b600042905090565b6116d68363a9059cbb60e01b8484604051602401611674929190612595565b604051602081830303815290604052907bffffffffffffffffffffffffffffffffffffffffffffffffffffffff19166020820180517bffffffffffffffffffffffffffffffffffffffffffffffffffffffff838183161783525050505061186a565b505050565b600081836116e991906125be565b905092915050565b600081836116ff91906125f2565b905092915050565b60008183611715919061267b565b905092915050565b60008060009054906101000a900473ffffffffffffffffffffffffffffffffffffffff169050816000806101000a81548173ffffffffffffffffffffffffffffffffffffffff021916908373ffffffffffffffffffffffffffffffffffffffff1602179055508173ffffffffffffffffffffffffffffffffffffffff168173ffffffffffffffffffffffffffffffffffffffff167f8be0079c531659141344cd1fd0a4f28419497f9722a3daafe3b4186f6b6457e060405160405180910390a35050565b611864846323b872dd60e01b858585604051602401611802939291906126ac565b604051602081830303815290604052907bffffffffffffffffffffffffffffffffffffffffffffffffffffffff19166020820180517bffffffffffffffffffffffffffffffffffffffffffffffffffffffff838183161783525050505061186a565b50505050565b60006118cc826040518060400160405280602081526020017f5361666545524332303a206c6f772d6c6576656c2063616c6c206661696c65648152508573ffffffffffffffffffffffffffffffffffffffff166119319092919063ffffffff16565b905060008151111561192c57808060200190518101906118ec919061270f565b61192b576040517f08c379a0000000000000000000000000000000000000000000000000000000008152600401611922906127ae565b60405180910390fd5b5b505050565b60606119408484600085611949565b90509392505050565b60608247101561198e576040517f08c379a000000000000000000000000000000000000000000000000000000000815260040161198590612840565b60405180910390fd5b61199785611a5d565b6119d6576040517f08c379a00000000000000000000000000000000000000000000000000000000081526004016119cd906128ac565b60405180910390fd5b6000808673ffffffffffffffffffffffffffffffffffffffff1685876040516119ff9190612946565b60006040518083038185875af1925050503d8060008114611a3c576040519150601f19603f3d011682016040523d82523d6000602084013e611a41565b606091505b5091509150611a51828286611a70565b92505050949350505050565b600080823b905060008111915050919050565b60608315611a8057829050611ad0565b600083511115611a935782518084602001fd5b816040517f08c379a0000000000000000000000000000000000000000000000000000000008152600401611ac791906129b2565b60405180910390fd5b9392505050565b6000819050919050565b611aea81611ad7565b82525050565b6000602082019050611b056000830184611ae1565b92915050565b600080fd5b600073ffffffffffffffffffffffffffffffffffffffff82169050919050565b6000611b3b82611b10565b9050919050565b611b4b81611b30565b8114611b5657600080fd5b50565b600081359050611b6881611b42565b92915050565b611b7781611ad7565b8114611b8257600080fd5b50565b600081359050611b9481611b6e565b92915050565b60008060408385031215611bb157611bb0611b0b565b5b6000611bbf85828601611b59565b9250506020611bd085828601611b85565b9150509250929050565b600060208284031215611bf057611bef611b0b565b5b6000611bfe84828501611b85565b91505092915050565b60008115159050919050565b611c1c81611c07565b82525050565b600060e082019050611c37600083018a611c13565b611c446020830189611ae1565b611c516040830188611ae1565b611c5e6060830187611ae1565b611c6b6080830186611ae1565b611c7860a0830185611ae1565b611c8560c0830184611ae1565b98975050505050505050565b611c9a81611b30565b82525050565b6000602082019050611cb56000830184611c91565b92915050565b600060208284031215611cd157611cd0611b0b565b5b6000611cdf84828501611b59565b91505092915050565b6000602082019050611cfd6000830184611c13565b92915050565b600061010082019050611d19600083018b611c13565b611d26602083018a611ae1565b611d336040830189611ae1565b611d406060830188611ae1565b611d4d6080830187611ae1565b611d5a60a0830186611ae1565b611d6760c0830185611ae1565b611d7460e0830184611ae1565b9998505050505050505050565b6000819050919050565b6000611da6611da1611d9c84611b10565b611d81565b611b10565b9050919050565b6000611db882611d8b565b9050919050565b6000611dca82611dad565b9050919050565b611dda81611dbf565b82525050565b6000602082019050611df56000830184611dd1565b92915050565b600082825260208201905092915050565b7f4f776e61626c653a2063616c6c6572206973206e6f7420746865206f776e6572600082015250565b6000611e42602083611dfb565b9150611e4d82611e0c565b602082019050919050565b60006020820190508181036000830152611e7181611e35565b9050919050565b7f5374616b6573206172652073746f7070656420616c7265616479000000000000600082015250565b6000611eae601a83611dfb565b9150611eb982611e78565b602082019050919050565b60006020820190508181036000830152611edd81611ea1565b9050919050565b7f456d707479207265636569766572206164647265737300000000000000000000600082015250565b6000611f1a601683611dfb565b9150611f2582611ee4565b602082019050919050565b60006020820190508181036000830152611f4981611f0d565b9050919050565b7f5a65726f20616d6f756e74000000000000000000000000000000000000000000600082015250565b6000611f86600b83611dfb565b9150611f9182611f50565b602082019050919050565b60006020820190508181036000830152611fb581611f79565b9050919050565b7f4e6f7420656e6f75676820756e616c6c6f6361746564546f6b656e7300000000600082015250565b6000611ff2601c83611dfb565b9150611ffd82611fbc565b602082019050919050565b6000602082019050818103600083015261202181611fe5565b9050919050565b7f43616e277420776974686472617720756e74696c207769746864726177616c5560008201527f6e6c6f636b54696d650000000000000000000000000000000000000000000000602082015250565b6000612084602983611dfb565b915061208f82612028565b604082019050919050565b600060208201905081810360008301526120b381612077565b9050919050565b6000815190506120c981611b6e565b92915050565b6000602082840312156120e5576120e4611b0b565b5b60006120f3848285016120ba565b91505092915050565b7f556e7374616b656420616c726561647900000000000000000000000000000000600082015250565b6000612132601083611dfb565b915061213d826120fc565b602082019050919050565b6000602082019050818103600083015261216181612125565b9050919050565b7f4e487b7100000000000000000000000000000000000000000000000000000000600052603260045260246000fd5b60006080820190506121ac6000830187611ae1565b6121b96020830186611ae1565b6121c66040830185611ae1565b6121d36060830184611c13565b95945050505050565b7f7374616b653a206e6f74206f70656e0000000000000000000000000000000000600082015250565b6000612212600f83611dfb565b915061221d826121dc565b602082019050919050565b6000602082019050818103600083015261224181612205565b9050919050565b7f7374616b653a207a65726f20616d6f756e740000000000000000000000000000600082015250565b600061227e601283611dfb565b915061228982612248565b602082019050919050565b600060208201905081810360008301526122ad81612271565b9050919050565b7f7374616b653a206e6f7420656e6f75676820616c6c6f7474656420746f6b656e60008201527f7320746f20706179207969656c64000000000000000000000000000000000000602082015250565b6000612310602e83611dfb565b915061231b826122b4565b604082019050919050565b6000602082019050818103600083015261233f81612303565b9050919050565b600060608201905061235b6000830186611ae1565b6123686020830185611ae1565b6123756040830184611ae1565b949350505050565b7f5374616b657320617265206f70656e20616c7265616479000000000000000000600082015250565b60006123b3601783611dfb565b91506123be8261237d565b602082019050919050565b600060208201905081810360008301526123e2816123a6565b9050919050565b7f6861727665737461626c655969656c64206973207a65726f0000000000000000600082015250565b600061241f601883611dfb565b915061242a826123e9565b602082019050919050565b6000602082019050818103600083015261244e81612412565b9050919050565b600060408201905061246a6000830185611ae1565b6124776020830184611ae1565b9392505050565b7f4f776e61626c653a206e6577206f776e657220697320746865207a65726f206160008201527f6464726573730000000000000000000000000000000000000000000000000000602082015250565b60006124da602683611dfb565b91506124e58261247e565b604082019050919050565b60006020820190508181036000830152612509816124cd565b9050919050565b7f4e487b7100000000000000000000000000000000000000000000000000000000600052601160045260246000fd5b600061254a82611ad7565b915061255583611ad7565b9250827fffffffffffffffffffffffffffffffffffffffffffffffffffffffffffffffff0382111561258a57612589612510565b5b828201905092915050565b60006040820190506125aa6000830185611c91565b6125b76020830184611ae1565b9392505050565b60006125c982611ad7565b91506125d483611ad7565b9250828210156125e7576125e6612510565b5b828203905092915050565b60006125fd82611ad7565b915061260883611ad7565b9250817fffffffffffffffffffffffffffffffffffffffffffffffffffffffffffffffff048311821515161561264157612640612510565b5b828202905092915050565b7f4e487b7100000000000000000000000000000000000000000000000000000000600052601260045260246000fd5b600061268682611ad7565b915061269183611ad7565b9250826126a1576126a061264c565b5b828204905092915050565b60006060820190506126c16000830186611c91565b6126ce6020830185611c91565b6126db6040830184611ae1565b949350505050565b6126ec81611c07565b81146126f757600080fd5b50565b600081519050612709816126e3565b92915050565b60006020828403121561272557612724611b0b565b5b6000612733848285016126fa565b91505092915050565b7f5361666545524332303a204552433230206f7065726174696f6e20646964206e60008201527f6f74207375636365656400000000000000000000000000000000000000000000602082015250565b6000612798602a83611dfb565b91506127a38261273c565b604082019050919050565b600060208201905081810360008301526127c78161278b565b9050919050565b7f416464726573733a20696e73756666696369656e742062616c616e636520666f60008201527f722063616c6c0000000000000000000000000000000000000000000000000000602082015250565b600061282a602683611dfb565b9150612835826127ce565b604082019050919050565b600060208201905081810360008301526128598161281d565b9050919050565b7f416464726573733a2063616c6c20746f206e6f6e2d636f6e7472616374000000600082015250565b6000612896601d83611dfb565b91506128a182612860565b602082019050919050565b600060208201905081810360008301526128c581612889565b9050919050565b600081519050919050565b600081905092915050565b60005b838110156129005780820151818401526020810190506128e5565b8381111561290f576000848401525b50505050565b6000612920826128cc565b61292a81856128d7565b935061293a8185602086016128e2565b80840191505092915050565b60006129528284612915565b915081905092915050565b600081519050919050565b6000601f19601f8301169050919050565b60006129848261295d565b61298e8185611dfb565b935061299e8185602086016128e2565b6129a781612968565b840191505092915050565b600060208201905081810360008301526129cc8184612979565b90509291505056fea2646970667358221220cafc4784e5f356f3b4282ab697a82e1ca4dd36ee4072b95e936955707f98ef4b64736f6c634300080b0033",
  "devdoc": {
    "kind": "dev",
    "methods": {
      "constructor": {
        "details": "the constructor arguments:",
        "params": {
          "_earlyUnstakeFee": "fee for unstaking before stake expiration",
          "_stakeDurationDays": "the stake duration in days",
          "_token": "address of token - the same accepted for staking and used to pay rewards",
          "_yieldRate": "reward rate in basis points (1/10000)"
        }
      },
      "getStake(address,uint256)": {
        "details": "get the individual stake parameters of the user",
        "params": {
          "_stakeId": "stake index",
          "_userAddress": "account of staker"
        },
        "returns": {
          "endTime": "the time when unstaking (w.o. penalties) becomes possible",
          "harvestableYield": "The unlocked part of yield available for harvesting",
          "harvestedYield": "The part of yield user harvested already",
          "lastHarvestTime": "The time of last harvest event",
          "staked": "the status of stake",
          "stakedAmount": "the number of deposited tokens",
          "startTime": "the moment of stake start",
          "totalYield": "entire yield for the stake (totally released on endTime)"
        }
      },
      "getStakesLength(address)": {
        "details": "get the count of user's stakes. Used on frontend to iterate and display individual stakes",
        "params": {
          "_userAddress": "account of staker"
        },
        "returns": {
          "_0": "stakes"
        }
      },
      "harvest(uint256)": {
        "details": "harvest accumulated rewards. Can be called many times.",
        "params": {
          "_stakeId": "Id of the stake"
        }
      },
      "owner()": {
        "details": "Returns the address of the current owner."
      },
      "renounceOwnership()": {
        "details": "Leaves the contract without owner. It will not be possible to call `onlyOwner` functions anymore. Can only be called by the current owner. NOTE: Renouncing ownership will leave the contract without an owner, thereby removing any functionality that is only available to the owner."
      },
      "stake(uint256)": {
        "details": "submit the stake",
        "params": {
          "_amount": "amount of tokens to be transferred from user's account"
        }
      },
      "start()": {
        "details": "start accepting new stakes. Called only by the owner"
      },
      "stop()": {
        "details": "stop accepting new stakes. Called only by the owner"
      },
      "transferOwnership(address)": {
        "details": "Transfers ownership of the contract to a new account (`newOwner`). Can only be called by the current owner."
      },
      "unallocatedTokens()": {
        "details": "get the amount of available tokens neither staked nor allocated for rewards",
        "returns": {
          "_0": "amount of unallocated tokens"
        }
      },
      "unstake(uint256)": {
        "details": "withdraw the `body` of user's stake. Can be called only once",
        "params": {
          "_stakeId": "Id of the stake"
        }
      },
      "withdrawUnallocatedTokens(address,uint256)": {
        "details": "the owner is able to withdraw excess tokens to collect early unstake fees or to reuse unused funds suitable for assets rebalancing between staking contracts.",
        "params": {
          "_amount": "amount of tokens in atto (1e-18) units",
          "_to": "address who will receive the funds"
        }
      }
    },
    "version": 1
  },
  "userdoc": {
    "kind": "user",
    "methods": {},
    "version": 1
  },
  "storageLayout": {
    "storage": [
      {
        "astId": 7,
        "contract": "contracts/FixedStaking.sol:FixedStaking",
        "label": "_owner",
        "offset": 0,
        "slot": "0",
        "type": "t_address"
      },
      {
        "astId": 1069,
        "contract": "contracts/FixedStaking.sol:FixedStaking",
        "label": "stakesOpen",
        "offset": 20,
        "slot": "0",
        "type": "t_bool"
      },
      {
        "astId": 1072,
        "contract": "contracts/FixedStaking.sol:FixedStaking",
        "label": "token",
        "offset": 0,
        "slot": "1",
        "type": "t_contract(IERC20)182"
      },
      {
        "astId": 1078,
        "contract": "contracts/FixedStaking.sol:FixedStaking",
        "label": "stakes",
        "offset": 0,
        "slot": "2",
        "type": "t_mapping(t_address,t_array(t_struct(StakeInfo)1067_storage)dyn_storage)"
      },
      {
        "astId": 1080,
        "contract": "contracts/FixedStaking.sol:FixedStaking",
        "label": "stakedTokens",
        "offset": 0,
        "slot": "3",
        "type": "t_uint256"
      },
      {
        "astId": 1082,
        "contract": "contracts/FixedStaking.sol:FixedStaking",
        "label": "stakeDurationDays",
        "offset": 0,
        "slot": "4",
        "type": "t_uint256"
      },
      {
        "astId": 1084,
        "contract": "contracts/FixedStaking.sol:FixedStaking",
        "label": "earlyUnstakeFee",
        "offset": 0,
        "slot": "5",
        "type": "t_uint256"
      },
      {
        "astId": 1086,
        "contract": "contracts/FixedStaking.sol:FixedStaking",
        "label": "yieldRate",
        "offset": 0,
        "slot": "6",
        "type": "t_uint256"
      },
      {
        "astId": 1088,
        "contract": "contracts/FixedStaking.sol:FixedStaking",
        "label": "allocatedTokens",
        "offset": 0,
        "slot": "7",
        "type": "t_uint256"
      },
      {
        "astId": 1095,
        "contract": "contracts/FixedStaking.sol:FixedStaking",
        "label": "withdrawalUnlockTime",
        "offset": 0,
        "slot": "8",
        "type": "t_uint256"
      }
    ],
    "types": {
      "t_address": {
        "encoding": "inplace",
        "label": "address",
        "numberOfBytes": "20"
      },
      "t_array(t_struct(StakeInfo)1067_storage)dyn_storage": {
        "base": "t_struct(StakeInfo)1067_storage",
        "encoding": "dynamic_array",
        "label": "struct FixedStaking.StakeInfo[]",
        "numberOfBytes": "32"
      },
      "t_bool": {
        "encoding": "inplace",
        "label": "bool",
        "numberOfBytes": "1"
      },
      "t_contract(IERC20)182": {
        "encoding": "inplace",
        "label": "contract IERC20",
        "numberOfBytes": "20"
      },
      "t_mapping(t_address,t_array(t_struct(StakeInfo)1067_storage)dyn_storage)": {
        "encoding": "mapping",
        "key": "t_address",
        "label": "mapping(address => struct FixedStaking.StakeInfo[])",
        "numberOfBytes": "32",
        "value": "t_array(t_struct(StakeInfo)1067_storage)dyn_storage"
      },
      "t_struct(StakeInfo)1067_storage": {
        "encoding": "inplace",
        "label": "struct FixedStaking.StakeInfo",
        "members": [
          {
            "astId": 1054,
            "contract": "contracts/FixedStaking.sol:FixedStaking",
            "label": "staked",
            "offset": 0,
            "slot": "0",
            "type": "t_bool"
          },
          {
            "astId": 1056,
            "contract": "contracts/FixedStaking.sol:FixedStaking",
            "label": "stakedAmount",
            "offset": 0,
            "slot": "1",
            "type": "t_uint256"
          },
          {
            "astId": 1058,
            "contract": "contracts/FixedStaking.sol:FixedStaking",
            "label": "startTime",
            "offset": 0,
            "slot": "2",
            "type": "t_uint256"
          },
          {
            "astId": 1060,
            "contract": "contracts/FixedStaking.sol:FixedStaking",
            "label": "endTime",
            "offset": 0,
            "slot": "3",
            "type": "t_uint256"
          },
          {
            "astId": 1062,
            "contract": "contracts/FixedStaking.sol:FixedStaking",
            "label": "totalYield",
            "offset": 0,
            "slot": "4",
            "type": "t_uint256"
          },
          {
            "astId": 1064,
            "contract": "contracts/FixedStaking.sol:FixedStaking",
            "label": "harvestedYield",
            "offset": 0,
            "slot": "5",
            "type": "t_uint256"
          },
          {
            "astId": 1066,
            "contract": "contracts/FixedStaking.sol:FixedStaking",
            "label": "lastHarvestTime",
            "offset": 0,
            "slot": "6",
            "type": "t_uint256"
          }
        ],
        "numberOfBytes": "224"
      },
      "t_uint256": {
        "encoding": "inplace",
        "label": "uint256",
        "numberOfBytes": "32"
      }
    }
  }
}