{
  "address": "0xB7AE534d7c691b1aE469Aa53ed263c453c29a41f",
  "abi": [
    {
      "anonymous": false,
      "inputs": [
        {
          "indexed": true,
          "internalType": "address",
          "name": "account",
          "type": "address"
        },
        {
          "indexed": true,
          "internalType": "address",
          "name": "operator",
          "type": "address"
        },
        {
          "indexed": false,
          "internalType": "bool",
          "name": "approved",
          "type": "bool"
        }
      ],
      "name": "ApprovalForAll",
      "type": "event"
    },
    {
      "anonymous": false,
      "inputs": [
        {
          "indexed": true,
          "internalType": "bytes32",
          "name": "role",
          "type": "bytes32"
        },
        {
          "indexed": true,
          "internalType": "bytes32",
          "name": "previousAdminRole",
          "type": "bytes32"
        },
        {
          "indexed": true,
          "internalType": "bytes32",
          "name": "newAdminRole",
          "type": "bytes32"
        }
      ],
      "name": "RoleAdminChanged",
      "type": "event"
    },
    {
      "anonymous": false,
      "inputs": [
        {
          "indexed": true,
          "internalType": "bytes32",
          "name": "role",
          "type": "bytes32"
        },
        {
          "indexed": true,
          "internalType": "address",
          "name": "account",
          "type": "address"
        },
        {
          "indexed": true,
          "internalType": "address",
          "name": "sender",
          "type": "address"
        }
      ],
      "name": "RoleGranted",
      "type": "event"
    },
    {
      "anonymous": false,
      "inputs": [
        {
          "indexed": true,
          "internalType": "bytes32",
          "name": "role",
          "type": "bytes32"
        },
        {
          "indexed": true,
          "internalType": "address",
          "name": "account",
          "type": "address"
        },
        {
          "indexed": true,
          "internalType": "address",
          "name": "sender",
          "type": "address"
        }
      ],
      "name": "RoleRevoked",
      "type": "event"
    },
    {
      "anonymous": false,
      "inputs": [
        {
          "indexed": true,
          "internalType": "address",
          "name": "operator",
          "type": "address"
        },
        {
          "indexed": true,
          "internalType": "address",
          "name": "from",
          "type": "address"
        },
        {
          "indexed": true,
          "internalType": "address",
          "name": "to",
          "type": "address"
        },
        {
          "indexed": false,
          "internalType": "uint256[]",
          "name": "ids",
          "type": "uint256[]"
        },
        {
          "indexed": false,
          "internalType": "uint256[]",
          "name": "values",
          "type": "uint256[]"
        }
      ],
      "name": "TransferBatch",
      "type": "event"
    },
    {
      "anonymous": false,
      "inputs": [
        {
          "indexed": true,
          "internalType": "address",
          "name": "operator",
          "type": "address"
        },
        {
          "indexed": true,
          "internalType": "address",
          "name": "from",
          "type": "address"
        },
        {
          "indexed": true,
          "internalType": "address",
          "name": "to",
          "type": "address"
        },
        {
          "indexed": false,
          "internalType": "uint256",
          "name": "id",
          "type": "uint256"
        },
        {
          "indexed": false,
          "internalType": "uint256",
          "name": "value",
          "type": "uint256"
        }
      ],
      "name": "TransferSingle",
      "type": "event"
    },
    {
      "anonymous": false,
      "inputs": [
        {
          "indexed": false,
          "internalType": "string",
          "name": "value",
          "type": "string"
        },
        {
          "indexed": true,
          "internalType": "uint256",
          "name": "id",
          "type": "uint256"
        }
      ],
      "name": "URI",
      "type": "event"
    },
    {
      "inputs": [],
      "name": "ARTIFACT_TOKEN_KIND",
      "outputs": [
        {
          "internalType": "uint256",
          "name": "",
          "type": "uint256"
        }
      ],
      "stateMutability": "view",
      "type": "function"
    },
    {
      "inputs": [],
      "name": "COLLISION_DAMAGE_TOKEN_ID",
      "outputs": [
        {
          "internalType": "uint256",
          "name": "",
          "type": "uint256"
        }
      ],
      "stateMutability": "view",
      "type": "function"
    },
    {
      "inputs": [],
      "name": "CRAFTSMAN_CHARACTER_KIND",
      "outputs": [
        {
          "internalType": "uint256",
          "name": "",
          "type": "uint256"
        }
      ],
      "stateMutability": "view",
      "type": "function"
    },
    {
      "inputs": [],
      "name": "DEFAULT_ADMIN_ROLE",
      "outputs": [
        {
          "internalType": "bytes32",
          "name": "",
          "type": "bytes32"
        }
      ],
      "stateMutability": "view",
      "type": "function"
    },
    {
      "inputs": [],
      "name": "FIGHTER_CHARACTER_KIND",
      "outputs": [
        {
          "internalType": "uint256",
          "name": "",
          "type": "uint256"
        }
      ],
      "stateMutability": "view",
      "type": "function"
    },
    {
      "inputs": [],
      "name": "FUNGIBLE_TOKEN_KIND",
      "outputs": [
        {
          "internalType": "uint256",
          "name": "",
          "type": "uint256"
        }
      ],
      "stateMutability": "view",
      "type": "function"
    },
    {
      "inputs": [],
      "name": "HEALTH_TOKEN_ID",
      "outputs": [
        {
          "internalType": "uint256",
          "name": "",
          "type": "uint256"
        }
      ],
      "stateMutability": "view",
      "type": "function"
    },
    {
      "inputs": [],
      "name": "MANA_TOKEN_ID",
      "outputs": [
        {
          "internalType": "uint256",
          "name": "",
          "type": "uint256"
        }
      ],
      "stateMutability": "view",
      "type": "function"
    },
    {
      "inputs": [],
      "name": "MINTER_ROLE",
      "outputs": [
        {
          "internalType": "bytes32",
          "name": "",
          "type": "bytes32"
        }
      ],
      "stateMutability": "view",
      "type": "function"
    },
    {
      "inputs": [],
      "name": "PET_TOKEN_KIND",
      "outputs": [
        {
          "internalType": "uint256",
          "name": "",
          "type": "uint256"
        }
      ],
      "stateMutability": "view",
      "type": "function"
    },
    {
      "inputs": [],
      "name": "RAFFLE_TICKET_TOKEN_KIND",
      "outputs": [
        {
          "internalType": "uint256",
          "name": "",
          "type": "uint256"
        }
      ],
      "stateMutability": "view",
      "type": "function"
    },
    {
      "inputs": [],
      "name": "SETTER_ROLE",
      "outputs": [
        {
          "internalType": "bytes32",
          "name": "",
          "type": "bytes32"
        }
      ],
      "stateMutability": "view",
      "type": "function"
    },
    {
      "inputs": [],
      "name": "SKIN_TOKEN_KIND",
      "outputs": [
        {
          "internalType": "uint256",
          "name": "",
          "type": "uint256"
        }
      ],
      "stateMutability": "view",
      "type": "function"
    },
    {
      "inputs": [],
      "name": "SPEED_TOKEN_ID",
      "outputs": [
        {
          "internalType": "uint256",
          "name": "",
          "type": "uint256"
        }
      ],
      "stateMutability": "view",
      "type": "function"
    },
    {
      "inputs": [],
      "name": "SPRINTER_CHARACTER_KIND",
      "outputs": [
        {
          "internalType": "uint256",
          "name": "",
          "type": "uint256"
        }
      ],
      "stateMutability": "view",
      "type": "function"
    },
    {
      "inputs": [
        {
          "internalType": "address",
          "name": "account",
          "type": "address"
        },
        {
          "internalType": "uint256",
          "name": "id",
          "type": "uint256"
        }
      ],
      "name": "balanceOf",
      "outputs": [
        {
          "internalType": "uint256",
          "name": "",
          "type": "uint256"
        }
      ],
      "stateMutability": "view",
      "type": "function"
    },
    {
      "inputs": [
        {
          "internalType": "address[]",
          "name": "accounts",
          "type": "address[]"
        },
        {
          "internalType": "uint256[]",
          "name": "ids",
          "type": "uint256[]"
        }
      ],
      "name": "balanceOfBatch",
      "outputs": [
        {
          "internalType": "uint256[]",
          "name": "",
          "type": "uint256[]"
        }
      ],
      "stateMutability": "view",
      "type": "function"
    },
    {
      "inputs": [
        {
          "internalType": "uint256",
          "name": "amount",
          "type": "uint256"
        },
        {
          "internalType": "uint256",
          "name": "characterId",
          "type": "uint256"
        }
      ],
      "name": "decreaseHealth",
      "outputs": [],
      "stateMutability": "nonpayable",
      "type": "function"
    },
    {
      "inputs": [
        {
          "internalType": "uint256",
          "name": "id",
          "type": "uint256"
        }
      ],
      "name": "getAbility",
      "outputs": [
        {
          "internalType": "uint256",
          "name": "",
          "type": "uint256"
        }
      ],
      "stateMutability": "view",
      "type": "function"
    },
    {
      "inputs": [
        {
          "internalType": "uint256",
          "name": "id",
          "type": "uint256"
        }
      ],
      "name": "getCollisionDamage",
      "outputs": [
        {
          "internalType": "uint256",
          "name": "",
          "type": "uint256"
        }
      ],
      "stateMutability": "view",
      "type": "function"
    },
    {
      "inputs": [
        {
          "internalType": "uint256",
          "name": "id",
          "type": "uint256"
        }
      ],
      "name": "getHealth",
      "outputs": [
        {
          "internalType": "uint256",
          "name": "",
          "type": "uint256"
        }
      ],
      "stateMutability": "view",
      "type": "function"
    },
    {
      "inputs": [
        {
          "internalType": "uint256",
          "name": "id",
          "type": "uint256"
        }
      ],
      "name": "getKind",
      "outputs": [
        {
          "internalType": "uint256",
          "name": "",
          "type": "uint256"
        }
      ],
      "stateMutability": "pure",
      "type": "function"
    },
    {
      "inputs": [
        {
          "internalType": "uint256",
          "name": "id",
          "type": "uint256"
        }
      ],
      "name": "getLevel",
      "outputs": [
        {
          "internalType": "uint256",
          "name": "",
          "type": "uint256"
        }
      ],
      "stateMutability": "view",
      "type": "function"
    },
    {
      "inputs": [
        {
          "internalType": "uint256",
          "name": "id",
          "type": "uint256"
        }
      ],
      "name": "getMana",
      "outputs": [
        {
          "internalType": "uint256",
          "name": "",
          "type": "uint256"
        }
      ],
      "stateMutability": "view",
      "type": "function"
    },
    {
      "inputs": [
        {
          "internalType": "bytes32",
          "name": "role",
          "type": "bytes32"
        }
      ],
      "name": "getRoleAdmin",
      "outputs": [
        {
          "internalType": "bytes32",
          "name": "",
          "type": "bytes32"
        }
      ],
      "stateMutability": "view",
      "type": "function"
    },
    {
      "inputs": [
        {
          "internalType": "uint256",
          "name": "id",
          "type": "uint256"
        }
      ],
      "name": "getRunCount",
      "outputs": [
        {
          "internalType": "uint256",
          "name": "",
          "type": "uint256"
        }
      ],
      "stateMutability": "view",
      "type": "function"
    },
    {
      "inputs": [
        {
          "internalType": "uint256",
          "name": "id",
          "type": "uint256"
        }
      ],
      "name": "getSpeed",
      "outputs": [
        {
          "internalType": "uint256",
          "name": "",
          "type": "uint256"
        }
      ],
      "stateMutability": "view",
      "type": "function"
    },
    {
      "inputs": [
        {
          "internalType": "uint256",
          "name": "id",
          "type": "uint256"
        }
      ],
      "name": "getWinCount",
      "outputs": [
        {
          "internalType": "uint256",
          "name": "",
          "type": "uint256"
        }
      ],
      "stateMutability": "view",
      "type": "function"
    },
    {
      "inputs": [
        {
          "internalType": "bytes32",
          "name": "role",
          "type": "bytes32"
        },
        {
          "internalType": "address",
          "name": "account",
          "type": "address"
        }
      ],
      "name": "grantRole",
      "outputs": [],
      "stateMutability": "nonpayable",
      "type": "function"
    },
    {
      "inputs": [
        {
          "internalType": "bytes32",
          "name": "role",
          "type": "bytes32"
        },
        {
          "internalType": "address",
          "name": "account",
          "type": "address"
        }
      ],
      "name": "hasRole",
      "outputs": [
        {
          "internalType": "bool",
          "name": "",
          "type": "bool"
        }
      ],
      "stateMutability": "view",
      "type": "function"
    },
    {
      "inputs": [
        {
          "internalType": "uint256",
          "name": "amount",
          "type": "uint256"
        },
        {
          "internalType": "uint256",
          "name": "characterId",
          "type": "uint256"
        }
      ],
      "name": "increaseHealth",
      "outputs": [],
      "stateMutability": "nonpayable",
      "type": "function"
    },
    {
      "inputs": [
        {
          "internalType": "string",
          "name": "uri",
          "type": "string"
        }
      ],
      "name": "initialize",
      "outputs": [],
      "stateMutability": "nonpayable",
      "type": "function"
    },
    {
      "inputs": [
        {
          "internalType": "address",
          "name": "account",
          "type": "address"
        },
        {
          "internalType": "address",
          "name": "operator",
          "type": "address"
        }
      ],
      "name": "isApprovedForAll",
      "outputs": [
        {
          "internalType": "bool",
          "name": "",
          "type": "bool"
        }
      ],
      "stateMutability": "view",
      "type": "function"
    },
    {
      "inputs": [
        {
          "internalType": "uint256",
          "name": "id",
          "type": "uint256"
        }
      ],
      "name": "isArtifact",
      "outputs": [
        {
          "internalType": "bool",
          "name": "",
          "type": "bool"
        }
      ],
      "stateMutability": "pure",
      "type": "function"
    },
    {
      "inputs": [
        {
          "internalType": "uint256",
          "name": "id",
          "type": "uint256"
        }
      ],
      "name": "isCharacter",
      "outputs": [
        {
          "internalType": "bool",
          "name": "",
          "type": "bool"
        }
      ],
      "stateMutability": "pure",
      "type": "function"
    },
    {
      "inputs": [
        {
          "internalType": "uint256",
          "name": "id",
          "type": "uint256"
        }
      ],
      "name": "isFungible",
      "outputs": [
        {
          "internalType": "bool",
          "name": "",
          "type": "bool"
        }
      ],
      "stateMutability": "pure",
      "type": "function"
    },
    {
      "inputs": [
        {
          "internalType": "uint256",
          "name": "id",
          "type": "uint256"
        },
        {
          "internalType": "uint256",
          "name": "kind",
          "type": "uint256"
        }
      ],
      "name": "isKind",
      "outputs": [
        {
          "internalType": "bool",
          "name": "",
          "type": "bool"
        }
      ],
      "stateMutability": "pure",
      "type": "function"
    },
    {
      "inputs": [
        {
          "internalType": "uint256",
          "name": "id",
          "type": "uint256"
        }
      ],
      "name": "isPet",
      "outputs": [
        {
          "internalType": "bool",
          "name": "",
          "type": "bool"
        }
      ],
      "stateMutability": "pure",
      "type": "function"
    },
    {
      "inputs": [
        {
          "internalType": "uint256",
          "name": "id",
          "type": "uint256"
        }
      ],
      "name": "isRaffleTicket",
      "outputs": [
        {
          "internalType": "bool",
          "name": "",
          "type": "bool"
        }
      ],
      "stateMutability": "pure",
      "type": "function"
    },
    {
      "inputs": [
        {
          "internalType": "uint256",
          "name": "id",
          "type": "uint256"
        }
      ],
      "name": "isSkin",
      "outputs": [
        {
          "internalType": "bool",
          "name": "",
          "type": "bool"
        }
      ],
      "stateMutability": "pure",
      "type": "function"
    },
    {
      "inputs": [
        {
          "internalType": "address",
          "name": "to",
          "type": "address"
        },
        {
          "internalType": "uint256",
          "name": "id",
          "type": "uint256"
        },
        {
          "internalType": "uint256",
          "name": "amount",
          "type": "uint256"
        }
      ],
      "name": "mint",
      "outputs": [],
      "stateMutability": "nonpayable",
      "type": "function"
    },
    {
      "inputs": [
        {
          "internalType": "bytes32",
          "name": "role",
          "type": "bytes32"
        },
        {
          "internalType": "address",
          "name": "account",
          "type": "address"
        }
      ],
      "name": "renounceRole",
      "outputs": [],
      "stateMutability": "nonpayable",
      "type": "function"
    },
    {
      "inputs": [
        {
          "internalType": "bytes32",
          "name": "role",
          "type": "bytes32"
        },
        {
          "internalType": "address",
          "name": "account",
          "type": "address"
        }
      ],
      "name": "revokeRole",
      "outputs": [],
      "stateMutability": "nonpayable",
      "type": "function"
    },
    {
      "inputs": [
        {
          "internalType": "address",
          "name": "from",
          "type": "address"
        },
        {
          "internalType": "address",
          "name": "to",
          "type": "address"
        },
        {
          "internalType": "uint256[]",
          "name": "ids",
          "type": "uint256[]"
        },
        {
          "internalType": "uint256[]",
          "name": "amounts",
          "type": "uint256[]"
        },
        {
          "internalType": "bytes",
          "name": "data",
          "type": "bytes"
        }
      ],
      "name": "safeBatchTransferFrom",
      "outputs": [],
      "stateMutability": "nonpayable",
      "type": "function"
    },
    {
      "inputs": [
        {
          "internalType": "address",
          "name": "from",
          "type": "address"
        },
        {
          "internalType": "address",
          "name": "to",
          "type": "address"
        },
        {
          "internalType": "uint256",
          "name": "id",
          "type": "uint256"
        },
        {
          "internalType": "uint256",
          "name": "amount",
          "type": "uint256"
        },
        {
          "internalType": "bytes",
          "name": "data",
          "type": "bytes"
        }
      ],
      "name": "safeTransferFrom",
      "outputs": [],
      "stateMutability": "nonpayable",
      "type": "function"
    },
    {
      "inputs": [
        {
          "internalType": "uint256",
          "name": "id",
          "type": "uint256"
        },
        {
          "internalType": "uint256",
          "name": "ability",
          "type": "uint256"
        }
      ],
      "name": "setAbility",
      "outputs": [],
      "stateMutability": "nonpayable",
      "type": "function"
    },
    {
      "inputs": [
        {
          "internalType": "address",
          "name": "operator",
          "type": "address"
        },
        {
          "internalType": "bool",
          "name": "approved",
          "type": "bool"
        }
      ],
      "name": "setApprovalForAll",
      "outputs": [],
      "stateMutability": "nonpayable",
      "type": "function"
    },
    {
      "inputs": [
        {
          "internalType": "uint256",
          "name": "id",
          "type": "uint256"
        },
        {
          "internalType": "uint256",
          "name": "collisionDamage",
          "type": "uint256"
        }
      ],
      "name": "setCollisionDamage",
      "outputs": [],
      "stateMutability": "nonpayable",
      "type": "function"
    },
    {
      "inputs": [
        {
          "internalType": "uint256",
          "name": "id",
          "type": "uint256"
        },
        {
          "internalType": "uint256",
          "name": "health",
          "type": "uint256"
        }
      ],
      "name": "setHealth",
      "outputs": [],
      "stateMutability": "nonpayable",
      "type": "function"
    },
    {
      "inputs": [
        {
          "internalType": "uint256",
          "name": "id",
          "type": "uint256"
        },
        {
          "internalType": "uint256",
          "name": "level",
          "type": "uint256"
        }
      ],
      "name": "setLevel",
      "outputs": [],
      "stateMutability": "nonpayable",
      "type": "function"
    },
    {
      "inputs": [
        {
          "internalType": "uint256",
          "name": "id",
          "type": "uint256"
        },
        {
          "internalType": "uint256",
          "name": "mana",
          "type": "uint256"
        }
      ],
      "name": "setMana",
      "outputs": [],
      "stateMutability": "nonpayable",
      "type": "function"
    },
    {
      "inputs": [
        {
          "internalType": "uint256",
          "name": "id",
          "type": "uint256"
        },
        {
          "internalType": "uint256",
          "name": "runsCount",
          "type": "uint256"
        }
      ],
      "name": "setRunCount",
      "outputs": [],
      "stateMutability": "nonpayable",
      "type": "function"
    },
    {
      "inputs": [
        {
          "internalType": "uint256",
          "name": "id",
          "type": "uint256"
        },
        {
          "internalType": "uint256",
          "name": "speed",
          "type": "uint256"
        }
      ],
      "name": "setSpeed",
      "outputs": [],
      "stateMutability": "nonpayable",
      "type": "function"
    },
    {
      "inputs": [
        {
          "internalType": "string",
          "name": "newUri",
          "type": "string"
        }
      ],
      "name": "setURI",
      "outputs": [],
      "stateMutability": "nonpayable",
      "type": "function"
    },
    {
      "inputs": [
        {
          "internalType": "uint256",
          "name": "id",
          "type": "uint256"
        },
        {
          "internalType": "uint256",
          "name": "winsCount",
          "type": "uint256"
        }
      ],
      "name": "setWinCount",
      "outputs": [],
      "stateMutability": "nonpayable",
      "type": "function"
    },
    {
      "inputs": [
        {
          "internalType": "bytes4",
          "name": "interfaceId",
          "type": "bytes4"
        }
      ],
      "name": "supportsInterface",
      "outputs": [
        {
          "internalType": "bool",
          "name": "",
          "type": "bool"
        }
      ],
      "stateMutability": "view",
      "type": "function"
    },
    {
      "inputs": [
        {
          "internalType": "uint256",
          "name": "",
          "type": "uint256"
        }
      ],
      "name": "uri",
      "outputs": [
        {
          "internalType": "string",
          "name": "",
          "type": "string"
        }
      ],
      "stateMutability": "view",
      "type": "function"
    }
  ],
  "transactionHash": "0xa1d7024867759449faa761852c1b6e95ca2503f89f26907658680a1e95913c41",
  "args": [],
  "numDeployments": 1,
  "solcInputHash": "adf07e1487afb256a65d997da39b6569",
  "bytecode": "0x608060405234801561001057600080fd5b50615c8880620000216000396000f3fe608060405234801561001057600080fd5b50600436106103825760003560e01c80636ca8fede116101de578063b73eeaf61161010f578063da6cefd1116100ad578063f242432a1161007c578063f242432a14610b3b578063f62d188814610b57578063fabbd1cf14610b73578063fe4ba8c114610b8f57610382565b8063da6cefd114610aa1578063df4b5aeb14610abd578063e7800e0c14610adb578063e985e9c514610b0b57610382565b8063cc3fc936116100e9578063cc3fc93614610a07578063d539139314610a37578063d547741f14610a55578063d5523f7714610a7157610382565b8063b73eeaf61461099d578063b7569fd5146109bb578063c5b5f338146109eb57610382565b806391d148541161017c578063a22cb46511610156578063a22cb46514610905578063a32b804714610921578063a7518eb114610951578063adebf6f21461096d57610382565b806391d1485414610899578063a2011b3f146108c9578063a217fddf146108e757610382565b8063792f96cf116101b8578063792f96cf146107ff578063846018c31461081d57806386481d401461083957806390f3e5a71461086957610382565b80636ca8fede1461078357806370a93b36146107b3578063744e94aa146107cf57610382565b80632b76bac4116102b857806341950913116102565780634e1273f4116102305780634e1273f4146106e9578063565554ff146107195780635c6d11bc14610737578063616f05101461076757610382565b80634195091314610659578063492e17fe146106895780634b93f753146106b957610382565b80632f2ff15d116102925780632f2ff15d146105d5578063320f7f25146105f157806336568abe1461060d5780633fc70f2c1461062957610382565b80632b76bac41461057f5780632d1e97f81461059b5780632eb2c2d6146105b957610382565b8063101bd71411610325578063248a9ca3116102ff578063248a9ca3146104f7578063265da6d71461052757806327efa6ea146105435780632b2a43c01461056157610382565b8063101bd7141461048d578063156e29f6146104bd5780632147e111146104d957610382565b8063066819701161036157806306681970146104035780630e5bda98146104215780630e89341c1461043f5780630ec6a0931461046f57610382565b8062fdd58e1461038757806301ffc9a7146103b757806302fe5305146103e7575b600080fd5b6103a1600480360381019061039c9190613a32565b610bad565b6040516103ae9190613a81565b60405180910390f35b6103d160048036038101906103cc9190613af4565b610c77565b6040516103de9190613b3c565b60405180910390f35b61040160048036038101906103fc9190613c9d565b610c89565b005b61040b610ce8565b6040516104189190613a81565b60405180910390f35b610429610cee565b6040516104369190613a81565b60405180910390f35b61045960048036038101906104549190613ce6565b610d04565b6040516104669190613d9b565b60405180910390f35b610477610d98565b6040516104849190613a81565b60405180910390f35b6104a760048036038101906104a29190613ce6565b610d9e565b6040516104b49190613a81565b60405180910390f35b6104d760048036038101906104d29190613dbd565b610e03565b005b6104e1610f30565b6040516104ee9190613a81565b60405180910390f35b610511600480360381019061050c9190613e46565b610f35565b60405161051e9190613e82565b60405180910390f35b610541600480360381019061053c9190613e9d565b610f55565b005b61054b611029565b6040516105589190613a81565b60405180910390f35b61056961102e565b6040516105769190613a81565b60405180910390f35b61059960048036038101906105949190613e9d565b611034565b005b6105a3611108565b6040516105b09190613a81565b60405180910390f35b6105d360048036038101906105ce9190614046565b61110e565b005b6105ef60048036038101906105ea9190614115565b6111af565b005b61060b60048036038101906106069190613e9d565b6111d8565b005b61062760048036038101906106229190614115565b6112ac565b005b610643600480360381019061063e9190613ce6565b61132f565b6040516106509190613a81565b60405180910390f35b610673600480360381019061066e9190613ce6565b611394565b6040516106809190613b3c565b60405180910390f35b6106a3600480360381019061069e9190613e9d565b6113a9565b6040516106b09190613b3c565b60405180910390f35b6106d360048036038101906106ce9190613ce6565b6113be565b6040516106e09190613a81565b60405180910390f35b61070360048036038101906106fe9190614218565b611423565b604051610710919061434e565b60405180910390f35b61072161153c565b60405161072e9190613a81565b60405180910390f35b610751600480360381019061074c9190613ce6565b611542565b60405161075e9190613b3c565b60405180910390f35b610781600480360381019061077c9190613e9d565b611557565b005b61079d60048036038101906107989190613ce6565b61162b565b6040516107aa9190613a81565b60405180910390f35b6107cd60048036038101906107c89190613e9d565b61163f565b005b6107e960048036038101906107e49190613ce6565b611723565b6040516107f69190613a81565b60405180910390f35b610807611788565b6040516108149190613a81565b60405180910390f35b61083760048036038101906108329190613e9d565b61179e565b005b610853600480360381019061084e9190613ce6565b6118db565b6040516108609190613a81565b60405180910390f35b610883600480360381019061087e9190613ce6565b611950565b6040516108909190613a81565b60405180910390f35b6108b360048036038101906108ae9190614115565b6119b5565b6040516108c09190613b3c565b60405180910390f35b6108d1611a20565b6040516108de9190613e82565b60405180910390f35b6108ef611a44565b6040516108fc9190613e82565b60405180910390f35b61091f600480360381019061091a919061439c565b611a4b565b005b61093b60048036038101906109369190613ce6565b611a61565b6040516109489190613b3c565b60405180910390f35b61096b60048036038101906109669190613e9d565b611a76565b005b61098760048036038101906109829190613ce6565b611bbb565b6040516109949190613b3c565b60405180910390f35b6109a5611bd0565b6040516109b29190613a81565b60405180910390f35b6109d560048036038101906109d09190613ce6565b611bd5565b6040516109e29190613b3c565b60405180910390f35b610a056004803603810190610a009190613e9d565b611c0d565b005b610a216004803603810190610a1c9190613ce6565b611ce1565b604051610a2e9190613b3c565b60405180910390f35b610a3f611cf6565b604051610a4c9190613e82565b60405180910390f35b610a6f6004803603810190610a6a9190614115565b611d1a565b005b610a8b6004803603810190610a869190613ce6565b611d43565b604051610a989190613a81565b60405180910390f35b610abb6004803603810190610ab69190613e9d565b611da8565b005b610ac5611e7c565b604051610ad29190613a81565b60405180910390f35b610af56004803603810190610af09190613ce6565b611e92565b604051610b029190613a81565b60405180910390f35b610b256004803603810190610b2091906143dc565b611ef7565b604051610b329190613b3c565b60405180910390f35b610b556004803603810190610b50919061441c565b611f8b565b005b610b716004803603810190610b6c9190613c9d565b61202c565b005b610b8d6004803603810190610b889190613e9d565b612190565b005b610b97612264565b604051610ba49190613a81565b60405180910390f35b60008073ffffffffffffffffffffffffffffffffffffffff168373ffffffffffffffffffffffffffffffffffffffff161415610c1e576040517f08c379a0000000000000000000000000000000000000000000000000000000008152600401610c1590614525565b60405180910390fd5b6065600083815260200190815260200160002060008473ffffffffffffffffffffffffffffffffffffffff1673ffffffffffffffffffffffffffffffffffffffff16815260200190815260200160002054905092915050565b6000610c828261227a565b9050919050565b610c9d6000801b610c986122f4565b6119b5565b610cdc576040517f08c379a0000000000000000000000000000000000000000000000000000000008152600401610cd390614591565b60405180910390fd5b610ce5816122fc565b50565b61040081565b60036010610500901b610d0191906145e0565b81565b606060678054610d1390614665565b80601f0160208091040260200160405190810160405280929190818152602001828054610d3f90614665565b8015610d8c5780601f10610d6157610100808354040283529160200191610d8c565b820191906000526020600020905b815481529060010190602001808311610d6f57829003601f168201915b50505050509050919050565b61030081565b6000610da982611bd5565b610de8576040517f08c379a0000000000000000000000000000000000000000000000000000000008152600401610ddf90614709565b60405180910390fd5b60ca6000838152602001908152602001600020549050919050565b610e347f9f2df0fed2c77648de5860a4cc508cd0818c85b8b8a1ab4ceeef8d981c8956a6610e2f6122f4565b6119b5565b610e73576040517f08c379a0000000000000000000000000000000000000000000000000000000008152600401610e6a9061479b565b60405180910390fd5b610e7c82611bbb565b610f105760018114610ec3576040517f08c379a0000000000000000000000000000000000000000000000000000000008152600401610eba90614807565b60405180910390fd5b6000610ecf8484610bad565b14610f0f576040517f08c379a0000000000000000000000000000000000000000000000000000000008152600401610f0690614807565b60405180910390fd5b5b610f2b83838360405180602001604052806000815250612316565b505050565b600081565b600060976000838152602001908152602001600020600101549050919050565b610f5e82611bd5565b610f9d576040517f08c379a0000000000000000000000000000000000000000000000000000000008152600401610f9490614899565b60405180910390fd5b610fce7f61c92169ef077349011ff0b1383c894d86c5f0b41d986366b58a6cf31e93beda610fc96122f4565b6119b5565b61100d576040517f08c379a000000000000000000000000000000000000000000000000000000000815260040161100490614905565b60405180910390fd5b8060cd6000848152602001908152602001600020819055505050565b600181565b61020081565b61103d82611bd5565b61107c576040517f08c379a000000000000000000000000000000000000000000000000000000000815260040161107390614997565b60405180910390fd5b6110ad7f61c92169ef077349011ff0b1383c894d86c5f0b41d986366b58a6cf31e93beda6110a86122f4565b6119b5565b6110ec576040517f08c379a00000000000000000000000000000000000000000000000000000000081526004016110e390614905565b60405180910390fd5b8060cc6000848152602001908152602001600020819055505050565b61010081565b6111166122f4565b73ffffffffffffffffffffffffffffffffffffffff168573ffffffffffffffffffffffffffffffffffffffff16148061115c575061115b856111566122f4565b611ef7565b5b61119b576040517f08c379a000000000000000000000000000000000000000000000000000000000815260040161119290614a29565b60405180910390fd5b6111a885858585856124ad565b5050505050565b6111b882610f35565b6111c9816111c46122f4565b6127c4565b6111d38383612861565b505050565b6111e182611bd5565b611220576040517f08c379a000000000000000000000000000000000000000000000000000000000815260040161121790614abb565b60405180910390fd5b6112517f61c92169ef077349011ff0b1383c894d86c5f0b41d986366b58a6cf31e93beda61124c6122f4565b6119b5565b611290576040517f08c379a000000000000000000000000000000000000000000000000000000000815260040161128790614905565b60405180910390fd5b8060cf6000848152602001908152602001600020819055505050565b6112b46122f4565b73ffffffffffffffffffffffffffffffffffffffff168173ffffffffffffffffffffffffffffffffffffffff1614611321576040517f08c379a000000000000000000000000000000000000000000000000000000000815260040161131890614b4d565b60405180910390fd5b61132b8282612942565b5050565b600061133a82611bd5565b611379576040517f08c379a000000000000000000000000000000000000000000000000000000000815260040161137090614899565b60405180910390fd5b60cd6000838152602001908152602001600020549050919050565b60006113a2826102006113a9565b9050919050565b6000816113b58461162b565b14905092915050565b60006113c982611bd5565b611408576040517f08c379a00000000000000000000000000000000000000000000000000000000081526004016113ff90614abb565b60405180910390fd5b60cf6000838152602001908152602001600020549050919050565b60608151835114611469576040517f08c379a000000000000000000000000000000000000000000000000000000000815260040161146090614bdf565b60405180910390fd5b6000835167ffffffffffffffff81111561148657611485613b72565b5b6040519080825280602002602001820160405280156114b45781602001602082028036833780820191505090505b50905060005b8451811015611531576115018582815181106114d9576114d8614bff565b5b60200260200101518583815181106114f4576114f3614bff565b5b6020026020010151610bad565b82828151811061151457611513614bff565b5b6020026020010181815250508061152a90614c2e565b90506114ba565b508091505092915050565b61050081565b6000611550826101006113a9565b9050919050565b61156082611bd5565b61159f576040517f08c379a000000000000000000000000000000000000000000000000000000000815260040161159690614ce9565b60405180910390fd5b6115d07f61c92169ef077349011ff0b1383c894d86c5f0b41d986366b58a6cf31e93beda6115cb6122f4565b6119b5565b61160f576040517f08c379a000000000000000000000000000000000000000000000000000000000815260040161160690614905565b60405180910390fd5b8060ce6000848152602001908152602001600020819055505050565b600060108263ffff000016901c9050919050565b61164882611bd5565b80611658575061165782611394565b5b611697576040517f08c379a000000000000000000000000000000000000000000000000000000000815260040161168e90614d7b565b60405180910390fd5b6116c87f61c92169ef077349011ff0b1383c894d86c5f0b41d986366b58a6cf31e93beda6116c36122f4565b6119b5565b611707576040517f08c379a00000000000000000000000000000000000000000000000000000000081526004016116fe90614905565b60405180910390fd5b8060c96000848152602001908152602001600020819055505050565b600061172e82611bd5565b61176d576040517f08c379a000000000000000000000000000000000000000000000000000000000815260040161176490614ce9565b60405180910390fd5b60ce6000838152602001908152602001600020549050919050565b60006010610500901b61179b91906145e0565b81565b6117a781611bd5565b6117e6576040517f08c379a00000000000000000000000000000000000000000000000000000000081526004016117dd90614e0d565b60405180910390fd5b60016117f23383610bad565b14611832576040517f08c379a000000000000000000000000000000000000000000000000000000000815260040161182990614e9f565b60405180910390fd5b8161184f3360006010610500901b61184a91906145e0565b610bad565b1015611890576040517f08c379a000000000000000000000000000000000000000000000000000000000815260040161188790614f0b565b60405180910390fd5b6118ad3360006010610500901b6118a791906145e0565b84612a24565b8160cd600083815260200190815260200160002060008282546118d091906145e0565b925050819055505050565b60006118e682611bd5565b806118f657506118f582611394565b5b611935576040517f08c379a000000000000000000000000000000000000000000000000000000000815260040161192c90614d7b565b60405180910390fd5b60c96000838152602001908152602001600020549050919050565b600061195b82611bd5565b61199a576040517f08c379a000000000000000000000000000000000000000000000000000000000815260040161199190614f9d565b60405180910390fd5b60d06000838152602001908152602001600020549050919050565b60006097600084815260200190815260200160002060000160008373ffffffffffffffffffffffffffffffffffffffff1673ffffffffffffffffffffffffffffffffffffffff16815260200190815260200160002060009054906101000a900460ff16905092915050565b7f61c92169ef077349011ff0b1383c894d86c5f0b41d986366b58a6cf31e93beda81565b6000801b81565b611a5d611a566122f4565b8383612c43565b5050565b6000611a6f826104006113a9565b9050919050565b611a7f81611bd5565b611abe576040517f08c379a0000000000000000000000000000000000000000000000000000000008152600401611ab590614e0d565b60405180910390fd5b6001611aca3383610bad565b14611b0a576040517f08c379a0000000000000000000000000000000000000000000000000000000008152600401611b0190614e9f565b60405180910390fd5b8160cd6000838152602001908152602001600020541015611b60576040517f08c379a0000000000000000000000000000000000000000000000000000000008152600401611b5790615009565b60405180910390fd5b8160cd60008381526020019081526020016000206000828254611b839190615029565b92505081905550611bb73360006010610500901b611ba191906145e0565b8460405180602001604052806000815250612316565b5050565b6000611bc9826105006113a9565b9050919050565b600281565b6000611be28260006113a9565b80611bf45750611bf38260016113a9565b5b80611c065750611c058260026113a9565b5b9050919050565b611c1682611bd5565b611c55576040517f08c379a0000000000000000000000000000000000000000000000000000000008152600401611c4c90614f9d565b60405180910390fd5b611c867f61c92169ef077349011ff0b1383c894d86c5f0b41d986366b58a6cf31e93beda611c816122f4565b6119b5565b611cc5576040517f08c379a0000000000000000000000000000000000000000000000000000000008152600401611cbc90614905565b60405180910390fd5b8060d06000848152602001908152602001600020819055505050565b6000611cef826103006113a9565b9050919050565b7f9f2df0fed2c77648de5860a4cc508cd0818c85b8b8a1ab4ceeef8d981c8956a681565b611d2382610f35565b611d3481611d2f6122f4565b6127c4565b611d3e8383612942565b505050565b6000611d4e82611bd5565b611d8d576040517f08c379a0000000000000000000000000000000000000000000000000000000008152600401611d8490614997565b60405180910390fd5b60cc6000838152602001908152602001600020549050919050565b611db182611bd5565b611df0576040517f08c379a0000000000000000000000000000000000000000000000000000000008152600401611de790614709565b60405180910390fd5b611e217f61c92169ef077349011ff0b1383c894d86c5f0b41d986366b58a6cf31e93beda611e1c6122f4565b6119b5565b611e60576040517f08c379a0000000000000000000000000000000000000000000000000000000008152600401611e5790614905565b60405180910390fd5b8060ca6000848152602001908152602001600020819055505050565b60026010610500901b611e8f91906145e0565b81565b6000611e9d82611bd5565b611edc576040517f08c379a0000000000000000000000000000000000000000000000000000000008152600401611ed3906150cf565b60405180910390fd5b60cb6000838152602001908152602001600020549050919050565b6000606660008473ffffffffffffffffffffffffffffffffffffffff1673ffffffffffffffffffffffffffffffffffffffff16815260200190815260200160002060008373ffffffffffffffffffffffffffffffffffffffff1673ffffffffffffffffffffffffffffffffffffffff16815260200190815260200160002060009054906101000a900460ff16905092915050565b611f936122f4565b73ffffffffffffffffffffffffffffffffffffffff168573ffffffffffffffffffffffffffffffffffffffff161480611fd95750611fd885611fd36122f4565b611ef7565b5b612018576040517f08c379a000000000000000000000000000000000000000000000000000000000815260040161200f90615161565b60405180910390fd5b6120258585858585612db0565b5050505050565b600060019054906101000a900460ff166120545760008054906101000a900460ff161561205d565b61205c613035565b5b61209c576040517f08c379a0000000000000000000000000000000000000000000000000000000008152600401612093906151f3565b60405180910390fd5b60008060019054906101000a900460ff1615905080156120ec576001600060016101000a81548160ff02191690831515021790555060016000806101000a81548160ff0219169083151502179055505b6120f582613046565b6121096000801b6121046122f4565b6130a1565b61213a7f9f2df0fed2c77648de5860a4cc508cd0818c85b8b8a1ab4ceeef8d981c8956a66121356122f4565b6130a1565b61216b7f61c92169ef077349011ff0b1383c894d86c5f0b41d986366b58a6cf31e93beda6121666122f4565b6130a1565b801561218c5760008060016101000a81548160ff0219169083151502179055505b5050565b61219982611bd5565b6121d8576040517f08c379a00000000000000000000000000000000000000000000000000000000081526004016121cf906150cf565b60405180910390fd5b6122097f61c92169ef077349011ff0b1383c894d86c5f0b41d986366b58a6cf31e93beda6122046122f4565b6119b5565b612248576040517f08c379a000000000000000000000000000000000000000000000000000000000815260040161223f90614905565b60405180910390fd5b8060cb6000848152602001908152602001600020819055505050565b60016010610500901b61227791906145e0565b81565b60007f7965db0b000000000000000000000000000000000000000000000000000000007bffffffffffffffffffffffffffffffffffffffffffffffffffffffff1916827bffffffffffffffffffffffffffffffffffffffffffffffffffffffff191614806122ed57506122ec826130af565b5b9050919050565b600033905090565b80606790805190602001906123129291906138e7565b5050565b600073ffffffffffffffffffffffffffffffffffffffff168473ffffffffffffffffffffffffffffffffffffffff161415612386576040517f08c379a000000000000000000000000000000000000000000000000000000000815260040161237d90615285565b60405180910390fd5b60006123906122f4565b90506123b1816000876123a288613191565b6123ab88613191565b8761320b565b826065600086815260200190815260200160002060008773ffffffffffffffffffffffffffffffffffffffff1673ffffffffffffffffffffffffffffffffffffffff168152602001908152602001600020600082825461241191906145e0565b925050819055508473ffffffffffffffffffffffffffffffffffffffff16600073ffffffffffffffffffffffffffffffffffffffff168273ffffffffffffffffffffffffffffffffffffffff167fc3d58168c5ae7397731d063d5bbf3d657854427343f4c083240f7aacaa2d0f62878760405161248f9291906152a5565b60405180910390a46124a681600087878787613213565b5050505050565b81518351146124f1576040517f08c379a00000000000000000000000000000000000000000000000000000000081526004016124e890615340565b60405180910390fd5b600073ffffffffffffffffffffffffffffffffffffffff168473ffffffffffffffffffffffffffffffffffffffff161415612561576040517f08c379a0000000000000000000000000000000000000000000000000000000008152600401612558906153d2565b60405180910390fd5b600061256b6122f4565b905061257b81878787878761320b565b60005b845181101561272f57600085828151811061259c5761259b614bff565b5b6020026020010151905060008583815181106125bb576125ba614bff565b5b6020026020010151905060006065600084815260200190815260200160002060008b73ffffffffffffffffffffffffffffffffffffffff1673ffffffffffffffffffffffffffffffffffffffff1681526020019081526020016000205490508181101561265d576040517f08c379a000000000000000000000000000000000000000000000000000000000815260040161265490615464565b60405180910390fd5b8181036065600085815260200190815260200160002060008c73ffffffffffffffffffffffffffffffffffffffff1673ffffffffffffffffffffffffffffffffffffffff16815260200190815260200160002081905550816065600085815260200190815260200160002060008b73ffffffffffffffffffffffffffffffffffffffff1673ffffffffffffffffffffffffffffffffffffffff168152602001908152602001600020600082825461271491906145e0565b925050819055505050508061272890614c2e565b905061257e565b508473ffffffffffffffffffffffffffffffffffffffff168673ffffffffffffffffffffffffffffffffffffffff168273ffffffffffffffffffffffffffffffffffffffff167f4a39dc06d4c0dbc64b70af90fd698a233a518aa5d07e595d983b8c0526c8f7fb87876040516127a6929190615484565b60405180910390a46127bc8187878787876133eb565b505050505050565b6127ce82826119b5565b61285d576127f38173ffffffffffffffffffffffffffffffffffffffff1660146135c3565b6128018360001c60206135c3565b60405160200161281292919061558f565b6040516020818303038152906040526040517f08c379a00000000000000000000000000000000000000000000000000000000081526004016128549190613d9b565b60405180910390fd5b5050565b61286b82826119b5565b61293e5760016097600084815260200190815260200160002060000160008373ffffffffffffffffffffffffffffffffffffffff1673ffffffffffffffffffffffffffffffffffffffff16815260200190815260200160002060006101000a81548160ff0219169083151502179055506128e36122f4565b73ffffffffffffffffffffffffffffffffffffffff168173ffffffffffffffffffffffffffffffffffffffff16837f2f8788117e7eff1d82e926ec794901d17c78024a50270940304540a733656f0d60405160405180910390a45b5050565b61294c82826119b5565b15612a205760006097600084815260200190815260200160002060000160008373ffffffffffffffffffffffffffffffffffffffff1673ffffffffffffffffffffffffffffffffffffffff16815260200190815260200160002060006101000a81548160ff0219169083151502179055506129c56122f4565b73ffffffffffffffffffffffffffffffffffffffff168173ffffffffffffffffffffffffffffffffffffffff16837ff6391f5c32d9c69d2a47ea670b442974b53935d1edc7fd64eb21e047a839171b60405160405180910390a45b5050565b600073ffffffffffffffffffffffffffffffffffffffff168373ffffffffffffffffffffffffffffffffffffffff161415612a94576040517f08c379a0000000000000000000000000000000000000000000000000000000008152600401612a8b9061563b565b60405180910390fd5b6000612a9e6122f4565b9050612ace81856000612ab087613191565b612ab987613191565b6040518060200160405280600081525061320b565b60006065600085815260200190815260200160002060008673ffffffffffffffffffffffffffffffffffffffff1673ffffffffffffffffffffffffffffffffffffffff16815260200190815260200160002054905082811015612b66576040517f08c379a0000000000000000000000000000000000000000000000000000000008152600401612b5d906156cd565b60405180910390fd5b8281036065600086815260200190815260200160002060008773ffffffffffffffffffffffffffffffffffffffff1673ffffffffffffffffffffffffffffffffffffffff16815260200190815260200160002081905550600073ffffffffffffffffffffffffffffffffffffffff168573ffffffffffffffffffffffffffffffffffffffff168373ffffffffffffffffffffffffffffffffffffffff167fc3d58168c5ae7397731d063d5bbf3d657854427343f4c083240f7aacaa2d0f628787604051612c349291906152a5565b60405180910390a45050505050565b8173ffffffffffffffffffffffffffffffffffffffff168373ffffffffffffffffffffffffffffffffffffffff161415612cb2576040517f08c379a0000000000000000000000000000000000000000000000000000000008152600401612ca99061575f565b60405180910390fd5b80606660008573ffffffffffffffffffffffffffffffffffffffff1673ffffffffffffffffffffffffffffffffffffffff16815260200190815260200160002060008473ffffffffffffffffffffffffffffffffffffffff1673ffffffffffffffffffffffffffffffffffffffff16815260200190815260200160002060006101000a81548160ff0219169083151502179055508173ffffffffffffffffffffffffffffffffffffffff168373ffffffffffffffffffffffffffffffffffffffff167f17307eab39ab6107e8899845ad3d59bd9653f200f220920489ca2b5937696c3183604051612da39190613b3c565b60405180910390a3505050565b600073ffffffffffffffffffffffffffffffffffffffff168473ffffffffffffffffffffffffffffffffffffffff161415612e20576040517f08c379a0000000000000000000000000000000000000000000000000000000008152600401612e17906153d2565b60405180910390fd5b6000612e2a6122f4565b9050612e4a818787612e3b88613191565b612e4488613191565b8761320b565b60006065600086815260200190815260200160002060008873ffffffffffffffffffffffffffffffffffffffff1673ffffffffffffffffffffffffffffffffffffffff16815260200190815260200160002054905083811015612ee2576040517f08c379a0000000000000000000000000000000000000000000000000000000008152600401612ed990615464565b60405180910390fd5b8381036065600087815260200190815260200160002060008973ffffffffffffffffffffffffffffffffffffffff1673ffffffffffffffffffffffffffffffffffffffff16815260200190815260200160002081905550836065600087815260200190815260200160002060008873ffffffffffffffffffffffffffffffffffffffff1673ffffffffffffffffffffffffffffffffffffffff1681526020019081526020016000206000828254612f9991906145e0565b925050819055508573ffffffffffffffffffffffffffffffffffffffff168773ffffffffffffffffffffffffffffffffffffffff168373ffffffffffffffffffffffffffffffffffffffff167fc3d58168c5ae7397731d063d5bbf3d657854427343f4c083240f7aacaa2d0f6288886040516130169291906152a5565b60405180910390a461302c828888888888613213565b50505050505050565b6000613040306137ff565b15905090565b600060019054906101000a900460ff16613095576040517f08c379a000000000000000000000000000000000000000000000000000000000815260040161308c906157f1565b60405180910390fd5b61309e81613822565b50565b6130ab8282612861565b5050565b60007fd9b67a26000000000000000000000000000000000000000000000000000000007bffffffffffffffffffffffffffffffffffffffffffffffffffffffff1916827bffffffffffffffffffffffffffffffffffffffffffffffffffffffff1916148061317a57507f0e89341c000000000000000000000000000000000000000000000000000000007bffffffffffffffffffffffffffffffffffffffffffffffffffffffff1916827bffffffffffffffffffffffffffffffffffffffffffffffffffffffff1916145b8061318a57506131898261387d565b5b9050919050565b60606000600167ffffffffffffffff8111156131b0576131af613b72565b5b6040519080825280602002602001820160405280156131de5781602001602082028036833780820191505090505b50905082816000815181106131f6576131f5614bff565b5b60200260200101818152505080915050919050565b505050505050565b6132328473ffffffffffffffffffffffffffffffffffffffff166137ff565b156133e3578373ffffffffffffffffffffffffffffffffffffffff1663f23a6e6187878686866040518663ffffffff1660e01b8152600401613278959493929190615875565b6020604051808303816000875af19250505080156132b457506040513d601f19601f820116820180604052508101906132b191906158e4565b60015b61335a576132c061591e565b806308c379a0141561331d57506132d5615940565b806132e0575061331f565b806040517f08c379a00000000000000000000000000000000000000000000000000000000081526004016133149190613d9b565b60405180910390fd5b505b6040517f08c379a000000000000000000000000000000000000000000000000000000000815260040161335190615a48565b60405180910390fd5b63f23a6e6160e01b7bffffffffffffffffffffffffffffffffffffffffffffffffffffffff1916817bffffffffffffffffffffffffffffffffffffffffffffffffffffffff1916146133e1576040517f08c379a00000000000000000000000000000000000000000000000000000000081526004016133d890615ada565b60405180910390fd5b505b505050505050565b61340a8473ffffffffffffffffffffffffffffffffffffffff166137ff565b156135bb578373ffffffffffffffffffffffffffffffffffffffff1663bc197c8187878686866040518663ffffffff1660e01b8152600401613450959493929190615afa565b6020604051808303816000875af192505050801561348c57506040513d601f19601f8201168201806040525081019061348991906158e4565b60015b6135325761349861591e565b806308c379a014156134f557506134ad615940565b806134b857506134f7565b806040517f08c379a00000000000000000000000000000000000000000000000000000000081526004016134ec9190613d9b565b60405180910390fd5b505b6040517f08c379a000000000000000000000000000000000000000000000000000000000815260040161352990615a48565b60405180910390fd5b63bc197c8160e01b7bffffffffffffffffffffffffffffffffffffffffffffffffffffffff1916817bffffffffffffffffffffffffffffffffffffffffffffffffffffffff1916146135b9576040517f08c379a00000000000000000000000000000000000000000000000000000000081526004016135b090615ada565b60405180910390fd5b505b505050505050565b6060600060028360026135d69190615b62565b6135e091906145e0565b67ffffffffffffffff8111156135f9576135f8613b72565b5b6040519080825280601f01601f19166020018201604052801561362b5781602001600182028036833780820191505090505b5090507f30000000000000000000000000000000000000000000000000000000000000008160008151811061366357613662614bff565b5b60200101907effffffffffffffffffffffffffffffffffffffffffffffffffffffffffffff1916908160001a9053507f7800000000000000000000000000000000000000000000000000000000000000816001815181106136c7576136c6614bff565b5b60200101907effffffffffffffffffffffffffffffffffffffffffffffffffffffffffffff1916908160001a905350600060018460026137079190615b62565b61371191906145e0565b90505b60018111156137b1577f3031323334353637383961626364656600000000000000000000000000000000600f86166010811061375357613752614bff565b5b1a60f81b82828151811061376a57613769614bff565b5b60200101907effffffffffffffffffffffffffffffffffffffffffffffffffffffffffffff1916908160001a905350600485901c9450806137aa90615bbc565b9050613714565b50600084146137f5576040517f08c379a00000000000000000000000000000000000000000000000000000000081526004016137ec90615c32565b60405180910390fd5b8091505092915050565b6000808273ffffffffffffffffffffffffffffffffffffffff163b119050919050565b600060019054906101000a900460ff16613871576040517f08c379a0000000000000000000000000000000000000000000000000000000008152600401613868906157f1565b60405180910390fd5b61387a816122fc565b50565b60007f01ffc9a7000000000000000000000000000000000000000000000000000000007bffffffffffffffffffffffffffffffffffffffffffffffffffffffff1916827bffffffffffffffffffffffffffffffffffffffffffffffffffffffff1916149050919050565b8280546138f390614665565b90600052602060002090601f016020900481019282613915576000855561395c565b82601f1061392e57805160ff191683800117855561395c565b8280016001018555821561395c579182015b8281111561395b578251825591602001919060010190613940565b5b509050613969919061396d565b5090565b5b8082111561398657600081600090555060010161396e565b5090565b6000604051905090565b600080fd5b600080fd5b600073ffffffffffffffffffffffffffffffffffffffff82169050919050565b60006139c98261399e565b9050919050565b6139d9816139be565b81146139e457600080fd5b50565b6000813590506139f6816139d0565b92915050565b6000819050919050565b613a0f816139fc565b8114613a1a57600080fd5b50565b600081359050613a2c81613a06565b92915050565b60008060408385031215613a4957613a48613994565b5b6000613a57858286016139e7565b9250506020613a6885828601613a1d565b9150509250929050565b613a7b816139fc565b82525050565b6000602082019050613a966000830184613a72565b92915050565b60007fffffffff0000000000000000000000000000000000000000000000000000000082169050919050565b613ad181613a9c565b8114613adc57600080fd5b50565b600081359050613aee81613ac8565b92915050565b600060208284031215613b0a57613b09613994565b5b6000613b1884828501613adf565b91505092915050565b60008115159050919050565b613b3681613b21565b82525050565b6000602082019050613b516000830184613b2d565b92915050565b600080fd5b600080fd5b6000601f19601f8301169050919050565b7f4e487b7100000000000000000000000000000000000000000000000000000000600052604160045260246000fd5b613baa82613b61565b810181811067ffffffffffffffff82111715613bc957613bc8613b72565b5b80604052505050565b6000613bdc61398a565b9050613be88282613ba1565b919050565b600067ffffffffffffffff821115613c0857613c07613b72565b5b613c1182613b61565b9050602081019050919050565b82818337600083830152505050565b6000613c40613c3b84613bed565b613bd2565b905082815260208101848484011115613c5c57613c5b613b5c565b5b613c67848285613c1e565b509392505050565b600082601f830112613c8457613c83613b57565b5b8135613c94848260208601613c2d565b91505092915050565b600060208284031215613cb357613cb2613994565b5b600082013567ffffffffffffffff811115613cd157613cd0613999565b5b613cdd84828501613c6f565b91505092915050565b600060208284031215613cfc57613cfb613994565b5b6000613d0a84828501613a1d565b91505092915050565b600081519050919050565b600082825260208201905092915050565b60005b83811015613d4d578082015181840152602081019050613d32565b83811115613d5c576000848401525b50505050565b6000613d6d82613d13565b613d778185613d1e565b9350613d87818560208601613d2f565b613d9081613b61565b840191505092915050565b60006020820190508181036000830152613db58184613d62565b905092915050565b600080600060608486031215613dd657613dd5613994565b5b6000613de4868287016139e7565b9350506020613df586828701613a1d565b9250506040613e0686828701613a1d565b9150509250925092565b6000819050919050565b613e2381613e10565b8114613e2e57600080fd5b50565b600081359050613e4081613e1a565b92915050565b600060208284031215613e5c57613e5b613994565b5b6000613e6a84828501613e31565b91505092915050565b613e7c81613e10565b82525050565b6000602082019050613e976000830184613e73565b92915050565b60008060408385031215613eb457613eb3613994565b5b6000613ec285828601613a1d565b9250506020613ed385828601613a1d565b9150509250929050565b600067ffffffffffffffff821115613ef857613ef7613b72565b5b602082029050602081019050919050565b600080fd5b6000613f21613f1c84613edd565b613bd2565b90508083825260208201905060208402830185811115613f4457613f43613f09565b5b835b81811015613f6d5780613f598882613a1d565b845260208401935050602081019050613f46565b5050509392505050565b600082601f830112613f8c57613f8b613b57565b5b8135613f9c848260208601613f0e565b91505092915050565b600067ffffffffffffffff821115613fc057613fbf613b72565b5b613fc982613b61565b9050602081019050919050565b6000613fe9613fe484613fa5565b613bd2565b90508281526020810184848401111561400557614004613b5c565b5b614010848285613c1e565b509392505050565b600082601f83011261402d5761402c613b57565b5b813561403d848260208601613fd6565b91505092915050565b600080600080600060a0868803121561406257614061613994565b5b6000614070888289016139e7565b9550506020614081888289016139e7565b945050604086013567ffffffffffffffff8111156140a2576140a1613999565b5b6140ae88828901613f77565b935050606086013567ffffffffffffffff8111156140cf576140ce613999565b5b6140db88828901613f77565b925050608086013567ffffffffffffffff8111156140fc576140fb613999565b5b61410888828901614018565b9150509295509295909350565b6000806040838503121561412c5761412b613994565b5b600061413a85828601613e31565b925050602061414b858286016139e7565b9150509250929050565b600067ffffffffffffffff8211156141705761416f613b72565b5b602082029050602081019050919050565b600061419461418f84614155565b613bd2565b905080838252602082019050602084028301858111156141b7576141b6613f09565b5b835b818110156141e057806141cc88826139e7565b8452602084019350506020810190506141b9565b5050509392505050565b600082601f8301126141ff576141fe613b57565b5b813561420f848260208601614181565b91505092915050565b6000806040838503121561422f5761422e613994565b5b600083013567ffffffffffffffff81111561424d5761424c613999565b5b614259858286016141ea565b925050602083013567ffffffffffffffff81111561427a57614279613999565b5b61428685828601613f77565b9150509250929050565b600081519050919050565b600082825260208201905092915050565b6000819050602082019050919050565b6142c5816139fc565b82525050565b60006142d783836142bc565b60208301905092915050565b6000602082019050919050565b60006142fb82614290565b614305818561429b565b9350614310836142ac565b8060005b8381101561434157815161432888826142cb565b9750614333836142e3565b925050600181019050614314565b5085935050505092915050565b6000602082019050818103600083015261436881846142f0565b905092915050565b61437981613b21565b811461438457600080fd5b50565b60008135905061439681614370565b92915050565b600080604083850312156143b3576143b2613994565b5b60006143c1858286016139e7565b92505060206143d285828601614387565b9150509250929050565b600080604083850312156143f3576143f2613994565b5b6000614401858286016139e7565b9250506020614412858286016139e7565b9150509250929050565b600080600080600060a0868803121561443857614437613994565b5b6000614446888289016139e7565b9550506020614457888289016139e7565b945050604061446888828901613a1d565b935050606061447988828901613a1d565b925050608086013567ffffffffffffffff81111561449a57614499613999565b5b6144a688828901614018565b9150509295509295909350565b7f455243313135353a2062616c616e636520717565727920666f7220746865207a60008201527f65726f2061646472657373000000000000000000000000000000000000000000602082015250565b600061450f602b83613d1e565b915061451a826144b3565b604082019050919050565b6000602082019050818103600083015261453e81614502565b9050919050565b7f6e6565642044454641554c545f41444d494e5f524f4c45000000000000000000600082015250565b600061457b601783613d1e565b915061458682614545565b602082019050919050565b600060208201905081810360008301526145aa8161456e565b9050919050565b7f4e487b7100000000000000000000000000000000000000000000000000000000600052601160045260246000fd5b60006145eb826139fc565b91506145f6836139fc565b9250827fffffffffffffffffffffffffffffffffffffffffffffffffffffffffffffffff0382111561462b5761462a6145b1565b5b828201905092915050565b7f4e487b7100000000000000000000000000000000000000000000000000000000600052602260045260246000fd5b6000600282049050600182168061467d57607f821691505b6020821081141561469157614690614636565b5b50919050565b7f52756e7320636f756e7420697320617661696c61626c65206f6e6c7920666f7260008201527f2063686172616374657200000000000000000000000000000000000000000000602082015250565b60006146f3602a83613d1e565b91506146fe82614697565b604082019050919050565b60006020820190508181036000830152614722816146e6565b9050919050565b7f4d45544152554e434f4c4c454354494f4e3a206e656564204d494e5445525f5260008201527f4f4c450000000000000000000000000000000000000000000000000000000000602082015250565b6000614785602383613d1e565b915061479082614729565b604082019050919050565b600060208201905081810360008301526147b481614778565b9050919050565b7f43616e6e6f74206d696e74206d6f7265207468616e206f6e65206974656d0000600082015250565b60006147f1601e83613d1e565b91506147fc826147bb565b602082019050919050565b60006020820190508181036000830152614820816147e4565b9050919050565b7f4865616c746820697320617661696c61626c65206f6e6c7920666f722063686160008201527f7261637465720000000000000000000000000000000000000000000000000000602082015250565b6000614883602683613d1e565b915061488e82614827565b604082019050919050565b600060208201905081810360008301526148b281614876565b9050919050565b7f6e656564205345545445525f524f4c4500000000000000000000000000000000600082015250565b60006148ef601083613d1e565b91506148fa826148b9565b602082019050919050565b6000602082019050818103600083015261491e816148e2565b9050919050565b7f4162696c69747920697320617661696c61626c65206f6e6c7920666f7220636860008201527f6172616374657200000000000000000000000000000000000000000000000000602082015250565b6000614981602783613d1e565b915061498c82614925565b604082019050919050565b600060208201905081810360008301526149b081614974565b9050919050565b7f455243313135353a207472616e736665722063616c6c6572206973206e6f742060008201527f6f776e6572206e6f7220617070726f7665640000000000000000000000000000602082015250565b6000614a13603283613d1e565b9150614a1e826149b7565b604082019050919050565b60006020820190508181036000830152614a4281614a06565b9050919050565b7f537065656420697320617661696c61626c65206f6e6c7920666f72206368617260008201527f6163746572000000000000000000000000000000000000000000000000000000602082015250565b6000614aa5602583613d1e565b9150614ab082614a49565b604082019050919050565b60006020820190508181036000830152614ad481614a98565b9050919050565b7f416363657373436f6e74726f6c3a2063616e206f6e6c792072656e6f756e636560008201527f20726f6c657320666f722073656c660000000000000000000000000000000000602082015250565b6000614b37602f83613d1e565b9150614b4282614adb565b604082019050919050565b60006020820190508181036000830152614b6681614b2a565b9050919050565b7f455243313135353a206163636f756e747320616e6420696473206c656e67746860008201527f206d69736d617463680000000000000000000000000000000000000000000000602082015250565b6000614bc9602983613d1e565b9150614bd482614b6d565b604082019050919050565b60006020820190508181036000830152614bf881614bbc565b9050919050565b7f4e487b7100000000000000000000000000000000000000000000000000000000600052603260045260246000fd5b6000614c39826139fc565b91507fffffffffffffffffffffffffffffffffffffffffffffffffffffffffffffffff821415614c6c57614c6b6145b1565b5b600182019050919050565b7f4d616e6120697320617661696c61626c65206f6e6c7920666f7220636861726160008201527f6374657200000000000000000000000000000000000000000000000000000000602082015250565b6000614cd3602483613d1e565b9150614cde82614c77565b604082019050919050565b60006020820190508181036000830152614d0281614cc6565b9050919050565b7f4c6576656c20697320617661696c61626c65206f6e6c7920666f72207065742060008201527f6f72206368617261637465720000000000000000000000000000000000000000602082015250565b6000614d65602c83613d1e565b9150614d7082614d09565b604082019050919050565b60006020820190508181036000830152614d9481614d58565b9050919050565b7f446f6573206e6f74206d6174636820746f6b656e20636861726163746572206b60008201527f696e640000000000000000000000000000000000000000000000000000000000602082015250565b6000614df7602383613d1e565b9150614e0282614d9b565b604082019050919050565b60006020820190508181036000830152614e2681614dea565b9050919050565b7f4e6f7420656e6f7567682063686172616374657220746f6b656e2062616c616e60008201527f6365000000000000000000000000000000000000000000000000000000000000602082015250565b6000614e89602283613d1e565b9150614e9482614e2d565b604082019050919050565b60006020820190508181036000830152614eb881614e7c565b9050919050565b7f4e6f7420656e6f756768206865616c746820746f6b656e2062616c616e636500600082015250565b6000614ef5601f83613d1e565b9150614f0082614ebf565b602082019050919050565b60006020820190508181036000830152614f2481614ee8565b9050919050565b7f436f6c6c6973696f6e2044616d61676520697320617661696c61626c65206f6e60008201527f6c7920666f722063686172616374657200000000000000000000000000000000602082015250565b6000614f87603083613d1e565b9150614f9282614f2b565b604082019050919050565b60006020820190508181036000830152614fb681614f7a565b9050919050565b7f4e6f7420656e6f756768206865616c746820706f696e74730000000000000000600082015250565b6000614ff3601883613d1e565b9150614ffe82614fbd565b602082019050919050565b6000602082019050818103600083015261502281614fe6565b9050919050565b6000615034826139fc565b915061503f836139fc565b925082821015615052576150516145b1565b5b828203905092915050565b7f57696e7320636f756e7420697320617661696c61626c65206f6e6c7920666f7260008201527f2063686172616374657200000000000000000000000000000000000000000000602082015250565b60006150b9602a83613d1e565b91506150c48261505d565b604082019050919050565b600060208201905081810360008301526150e8816150ac565b9050919050565b7f455243313135353a2063616c6c6572206973206e6f74206f776e6572206e6f7260008201527f20617070726f7665640000000000000000000000000000000000000000000000602082015250565b600061514b602983613d1e565b9150615156826150ef565b604082019050919050565b6000602082019050818103600083015261517a8161513e565b9050919050565b7f496e697469616c697a61626c653a20636f6e747261637420697320616c72656160008201527f647920696e697469616c697a6564000000000000000000000000000000000000602082015250565b60006151dd602e83613d1e565b91506151e882615181565b604082019050919050565b6000602082019050818103600083015261520c816151d0565b9050919050565b7f455243313135353a206d696e7420746f20746865207a65726f2061646472657360008201527f7300000000000000000000000000000000000000000000000000000000000000602082015250565b600061526f602183613d1e565b915061527a82615213565b604082019050919050565b6000602082019050818103600083015261529e81615262565b9050919050565b60006040820190506152ba6000830185613a72565b6152c76020830184613a72565b9392505050565b7f455243313135353a2069647320616e6420616d6f756e7473206c656e6774682060008201527f6d69736d61746368000000000000000000000000000000000000000000000000602082015250565b600061532a602883613d1e565b9150615335826152ce565b604082019050919050565b600060208201905081810360008301526153598161531d565b9050919050565b7f455243313135353a207472616e7366657220746f20746865207a65726f20616460008201527f6472657373000000000000000000000000000000000000000000000000000000602082015250565b60006153bc602583613d1e565b91506153c782615360565b604082019050919050565b600060208201905081810360008301526153eb816153af565b9050919050565b7f455243313135353a20696e73756666696369656e742062616c616e636520666f60008201527f72207472616e7366657200000000000000000000000000000000000000000000602082015250565b600061544e602a83613d1e565b9150615459826153f2565b604082019050919050565b6000602082019050818103600083015261547d81615441565b9050919050565b6000604082019050818103600083015261549e81856142f0565b905081810360208301526154b281846142f0565b90509392505050565b600081905092915050565b7f416363657373436f6e74726f6c3a206163636f756e7420000000000000000000600082015250565b60006154fc6017836154bb565b9150615507826154c6565b601782019050919050565b600061551d82613d13565b61552781856154bb565b9350615537818560208601613d2f565b80840191505092915050565b7f206973206d697373696e6720726f6c6520000000000000000000000000000000600082015250565b60006155796011836154bb565b915061558482615543565b601182019050919050565b600061559a826154ef565b91506155a68285615512565b91506155b18261556c565b91506155bd8284615512565b91508190509392505050565b7f455243313135353a206275726e2066726f6d20746865207a65726f206164647260008201527f6573730000000000000000000000000000000000000000000000000000000000602082015250565b6000615625602383613d1e565b9150615630826155c9565b604082019050919050565b6000602082019050818103600083015261565481615618565b9050919050565b7f455243313135353a206275726e20616d6f756e7420657863656564732062616c60008201527f616e636500000000000000000000000000000000000000000000000000000000602082015250565b60006156b7602483613d1e565b91506156c28261565b565b604082019050919050565b600060208201905081810360008301526156e6816156aa565b9050919050565b7f455243313135353a2073657474696e6720617070726f76616c2073746174757360008201527f20666f722073656c660000000000000000000000000000000000000000000000602082015250565b6000615749602983613d1e565b9150615754826156ed565b604082019050919050565b600060208201905081810360008301526157788161573c565b9050919050565b7f496e697469616c697a61626c653a20636f6e7472616374206973206e6f74206960008201527f6e697469616c697a696e67000000000000000000000000000000000000000000602082015250565b60006157db602b83613d1e565b91506157e68261577f565b604082019050919050565b6000602082019050818103600083015261580a816157ce565b9050919050565b61581a816139be565b82525050565b600081519050919050565b600082825260208201905092915050565b600061584782615820565b615851818561582b565b9350615861818560208601613d2f565b61586a81613b61565b840191505092915050565b600060a08201905061588a6000830188615811565b6158976020830187615811565b6158a46040830186613a72565b6158b16060830185613a72565b81810360808301526158c3818461583c565b90509695505050505050565b6000815190506158de81613ac8565b92915050565b6000602082840312156158fa576158f9613994565b5b6000615908848285016158cf565b91505092915050565b60008160e01c9050919050565b600060033d111561593d5760046000803e61593a600051615911565b90505b90565b600060443d1015615950576159d3565b61595861398a565b60043d036004823e80513d602482011167ffffffffffffffff821117156159805750506159d3565b808201805167ffffffffffffffff81111561599e57505050506159d3565b80602083010160043d0385018111156159bb5750505050506159d3565b6159ca82602001850186613ba1565b82955050505050505b90565b7f455243313135353a207472616e7366657220746f206e6f6e204552433131353560008201527f526563656976657220696d706c656d656e746572000000000000000000000000602082015250565b6000615a32603483613d1e565b9150615a3d826159d6565b604082019050919050565b60006020820190508181036000830152615a6181615a25565b9050919050565b7f455243313135353a204552433131353552656365697665722072656a6563746560008201527f6420746f6b656e73000000000000000000000000000000000000000000000000602082015250565b6000615ac4602883613d1e565b9150615acf82615a68565b604082019050919050565b60006020820190508181036000830152615af381615ab7565b9050919050565b600060a082019050615b0f6000830188615811565b615b1c6020830187615811565b8181036040830152615b2e81866142f0565b90508181036060830152615b4281856142f0565b90508181036080830152615b56818461583c565b90509695505050505050565b6000615b6d826139fc565b9150615b78836139fc565b9250817fffffffffffffffffffffffffffffffffffffffffffffffffffffffffffffffff0483118215151615615bb157615bb06145b1565b5b828202905092915050565b6000615bc7826139fc565b91506000821415615bdb57615bda6145b1565b5b600182039050919050565b7f537472696e67733a20686578206c656e67746820696e73756666696369656e74600082015250565b6000615c1c602083613d1e565b9150615c2782615be6565b602082019050919050565b60006020820190508181036000830152615c4b81615c0f565b905091905056fea2646970667358221220a006860525384494bc2db86628b91f160d52c8917a7dd7ceeda17bf20c55d59764736f6c634300080b0033",
  "devdoc": {
    "kind": "dev",
    "methods": {
      "balanceOf(address,uint256)": {
        "details": "See {IERC1155-balanceOf}. Requirements: - `account` cannot be the zero address."
      },
      "balanceOfBatch(address[],uint256[])": {
        "details": "See {IERC1155-balanceOfBatch}. Requirements: - `accounts` and `ids` must have the same length."
      },
      "getRoleAdmin(bytes32)": {
        "details": "Returns the admin role that controls `role`. See {grantRole} and {revokeRole}. To change a role's admin, use {_setRoleAdmin}."
      },
      "grantRole(bytes32,address)": {
        "details": "Grants `role` to `account`. If `account` had not been already granted `role`, emits a {RoleGranted} event. Requirements: - the caller must have ``role``'s admin role."
      },
      "hasRole(bytes32,address)": {
        "details": "Returns `true` if `account` has been granted `role`."
      },
      "isApprovedForAll(address,address)": {
        "details": "See {IERC1155-isApprovedForAll}."
      },
      "renounceRole(bytes32,address)": {
        "details": "Revokes `role` from the calling account. Roles are often managed via {grantRole} and {revokeRole}: this function's purpose is to provide a mechanism for accounts to lose their privileges if they are compromised (such as when a trusted device is misplaced). If the calling account had been revoked `role`, emits a {RoleRevoked} event. Requirements: - the caller must be `account`."
      },
      "revokeRole(bytes32,address)": {
        "details": "Revokes `role` from `account`. If `account` had been granted `role`, emits a {RoleRevoked} event. Requirements: - the caller must have ``role``'s admin role."
      },
      "safeBatchTransferFrom(address,address,uint256[],uint256[],bytes)": {
        "details": "See {IERC1155-safeBatchTransferFrom}."
      },
      "safeTransferFrom(address,address,uint256,uint256,bytes)": {
        "details": "See {IERC1155-safeTransferFrom}."
      },
      "setApprovalForAll(address,bool)": {
        "details": "See {IERC1155-setApprovalForAll}."
      },
      "uri(uint256)": {
        "details": "See {IERC1155MetadataURI-uri}. This implementation returns the same URI for *all* token types. It relies on the token type ID substitution mechanism https://eips.ethereum.org/EIPS/eip-1155#metadata[defined in the EIP]. Clients calling this function must replace the `\\{id\\}` substring with the actual token type ID."
      }
    },
    "version": 1
  },
  "userdoc": {
    "kind": "user",
    "methods": {},
    "version": 1
  },
  "storageLayout": {
    "storage": [
      {
        "astId": 408,
        "contract": "contracts/MetarunCollection.sol:MetarunCollection",
        "label": "_initialized",
        "offset": 0,
        "slot": "0",
        "type": "t_bool"
      },
      {
        "astId": 411,
        "contract": "contracts/MetarunCollection.sol:MetarunCollection",
        "label": "_initializing",
        "offset": 1,
        "slot": "0",
        "type": "t_bool"
      },
      {
        "astId": 2055,
        "contract": "contracts/MetarunCollection.sol:MetarunCollection",
        "label": "__gap",
        "offset": 0,
        "slot": "1",
        "type": "t_array(t_uint256)50_storage"
      },
      {
        "astId": 2302,
        "contract": "contracts/MetarunCollection.sol:MetarunCollection",
        "label": "__gap",
        "offset": 0,
        "slot": "51",
        "type": "t_array(t_uint256)50_storage"
      },
      {
        "astId": 504,
        "contract": "contracts/MetarunCollection.sol:MetarunCollection",
        "label": "_balances",
        "offset": 0,
        "slot": "101",
        "type": "t_mapping(t_uint256,t_mapping(t_address,t_uint256))"
      },
      {
        "astId": 510,
        "contract": "contracts/MetarunCollection.sol:MetarunCollection",
        "label": "_operatorApprovals",
        "offset": 0,
        "slot": "102",
        "type": "t_mapping(t_address,t_mapping(t_address,t_bool))"
      },
      {
        "astId": 512,
        "contract": "contracts/MetarunCollection.sol:MetarunCollection",
        "label": "_uri",
        "offset": 0,
        "slot": "103",
        "type": "t_string_storage"
      },
      {
        "astId": 1592,
        "contract": "contracts/MetarunCollection.sol:MetarunCollection",
        "label": "__gap",
        "offset": 0,
        "slot": "104",
        "type": "t_array(t_uint256)47_storage"
      },
      {
        "astId": 39,
        "contract": "contracts/MetarunCollection.sol:MetarunCollection",
        "label": "_roles",
        "offset": 0,
        "slot": "151",
        "type": "t_mapping(t_bytes32,t_struct(RoleData)34_storage)"
      },
      {
        "astId": 327,
        "contract": "contracts/MetarunCollection.sol:MetarunCollection",
        "label": "__gap",
        "offset": 0,
        "slot": "152",
        "type": "t_array(t_uint256)49_storage"
      },
      {
        "astId": 2389,
        "contract": "contracts/MetarunCollection.sol:MetarunCollection",
        "label": "tokenLevels",
        "offset": 0,
        "slot": "201",
        "type": "t_mapping(t_uint256,t_uint256)"
      },
      {
        "astId": 2393,
        "contract": "contracts/MetarunCollection.sol:MetarunCollection",
        "label": "tokenRuns",
        "offset": 0,
        "slot": "202",
        "type": "t_mapping(t_uint256,t_uint256)"
      },
      {
        "astId": 2397,
        "contract": "contracts/MetarunCollection.sol:MetarunCollection",
        "label": "tokenWins",
        "offset": 0,
        "slot": "203",
        "type": "t_mapping(t_uint256,t_uint256)"
      },
      {
        "astId": 2401,
        "contract": "contracts/MetarunCollection.sol:MetarunCollection",
        "label": "tokenAbilities",
        "offset": 0,
        "slot": "204",
        "type": "t_mapping(t_uint256,t_uint256)"
      },
      {
        "astId": 2405,
        "contract": "contracts/MetarunCollection.sol:MetarunCollection",
        "label": "tokenHealthPoints",
        "offset": 0,
        "slot": "205",
        "type": "t_mapping(t_uint256,t_uint256)"
      },
      {
        "astId": 2409,
        "contract": "contracts/MetarunCollection.sol:MetarunCollection",
        "label": "tokenManaPoints",
        "offset": 0,
        "slot": "206",
        "type": "t_mapping(t_uint256,t_uint256)"
      },
      {
        "astId": 2413,
        "contract": "contracts/MetarunCollection.sol:MetarunCollection",
        "label": "tokenSpeedPoints",
        "offset": 0,
        "slot": "207",
        "type": "t_mapping(t_uint256,t_uint256)"
      },
      {
        "astId": 2417,
        "contract": "contracts/MetarunCollection.sol:MetarunCollection",
        "label": "tokenCollisionDamagePoints",
        "offset": 0,
        "slot": "208",
        "type": "t_mapping(t_uint256,t_uint256)"
      }
    ],
    "types": {
      "t_address": {
        "encoding": "inplace",
        "label": "address",
        "numberOfBytes": "20"
      },
      "t_array(t_uint256)47_storage": {
        "base": "t_uint256",
        "encoding": "inplace",
        "label": "uint256[47]",
        "numberOfBytes": "1504"
      },
      "t_array(t_uint256)49_storage": {
        "base": "t_uint256",
        "encoding": "inplace",
        "label": "uint256[49]",
        "numberOfBytes": "1568"
      },
      "t_array(t_uint256)50_storage": {
        "base": "t_uint256",
        "encoding": "inplace",
        "label": "uint256[50]",
        "numberOfBytes": "1600"
      },
      "t_bool": {
        "encoding": "inplace",
        "label": "bool",
        "numberOfBytes": "1"
      },
      "t_bytes32": {
        "encoding": "inplace",
        "label": "bytes32",
        "numberOfBytes": "32"
      },
      "t_mapping(t_address,t_bool)": {
        "encoding": "mapping",
        "key": "t_address",
        "label": "mapping(address => bool)",
        "numberOfBytes": "32",
        "value": "t_bool"
      },
      "t_mapping(t_address,t_mapping(t_address,t_bool))": {
        "encoding": "mapping",
        "key": "t_address",
        "label": "mapping(address => mapping(address => bool))",
        "numberOfBytes": "32",
        "value": "t_mapping(t_address,t_bool)"
      },
      "t_mapping(t_address,t_uint256)": {
        "encoding": "mapping",
        "key": "t_address",
        "label": "mapping(address => uint256)",
        "numberOfBytes": "32",
        "value": "t_uint256"
      },
      "t_mapping(t_bytes32,t_struct(RoleData)34_storage)": {
        "encoding": "mapping",
        "key": "t_bytes32",
        "label": "mapping(bytes32 => struct AccessControlUpgradeable.RoleData)",
        "numberOfBytes": "32",
        "value": "t_struct(RoleData)34_storage"
      },
      "t_mapping(t_uint256,t_mapping(t_address,t_uint256))": {
        "encoding": "mapping",
        "key": "t_uint256",
        "label": "mapping(uint256 => mapping(address => uint256))",
        "numberOfBytes": "32",
        "value": "t_mapping(t_address,t_uint256)"
      },
      "t_mapping(t_uint256,t_uint256)": {
        "encoding": "mapping",
        "key": "t_uint256",
        "label": "mapping(uint256 => uint256)",
        "numberOfBytes": "32",
        "value": "t_uint256"
      },
      "t_string_storage": {
        "encoding": "bytes",
        "label": "string",
        "numberOfBytes": "32"
      },
      "t_struct(RoleData)34_storage": {
        "encoding": "inplace",
        "label": "struct AccessControlUpgradeable.RoleData",
        "members": [
          {
            "astId": 31,
            "contract": "contracts/MetarunCollection.sol:MetarunCollection",
            "label": "members",
            "offset": 0,
            "slot": "0",
            "type": "t_mapping(t_address,t_bool)"
          },
          {
            "astId": 33,
            "contract": "contracts/MetarunCollection.sol:MetarunCollection",
            "label": "adminRole",
            "offset": 0,
            "slot": "1",
            "type": "t_bytes32"
          }
        ],
        "numberOfBytes": "64"
      },
      "t_uint256": {
        "encoding": "inplace",
        "label": "uint256",
        "numberOfBytes": "32"
      }
    }
  }
}