{
  "address": "0xd86B34d181362Db1729FCb11f5Fa7B457F296f7b",
  "abi": [
    {
      "anonymous": false,
      "inputs": [
        {
          "indexed": true,
          "internalType": "bytes32",
          "name": "orderHash",
          "type": "bytes32"
        },
        {
          "indexed": true,
          "internalType": "address",
          "name": "seller",
          "type": "address"
        },
        {
          "indexed": true,
          "internalType": "address",
          "name": "buyer",
          "type": "address"
        },
        {
          "indexed": false,
          "internalType": "uint256",
          "name": "tokenId",
          "type": "uint256"
        },
        {
          "indexed": false,
          "internalType": "uint256",
          "name": "amount",
          "type": "uint256"
        },
        {
          "indexed": false,
          "internalType": "uint256",
          "name": "price",
          "type": "uint256"
        }
      ],
      "name": "Purchase",
      "type": "event"
    },
    {
      "inputs": [
        {
          "components": [
            {
              "internalType": "address payable",
              "name": "seller",
              "type": "address"
            },
            {
              "internalType": "uint256",
              "name": "tokenId",
              "type": "uint256"
            },
            {
              "internalType": "uint256",
              "name": "amount",
              "type": "uint256"
            },
            {
              "internalType": "uint256",
              "name": "expirationTime",
              "type": "uint256"
            },
            {
              "internalType": "uint256",
              "name": "price",
              "type": "uint256"
            },
            {
              "internalType": "uint256",
              "name": "salt",
              "type": "uint256"
            }
          ],
          "internalType": "struct MetarunExchange.SellOrder",
          "name": "sellOrder",
          "type": "tuple"
        },
        {
          "internalType": "bytes",
          "name": "signature",
          "type": "bytes"
        }
      ],
      "name": "buy",
      "outputs": [],
      "stateMutability": "nonpayable",
      "type": "function"
    },
    {
      "inputs": [],
      "name": "collection",
      "outputs": [
        {
          "internalType": "contract IERC1155Upgradeable",
          "name": "",
          "type": "address"
        }
      ],
      "stateMutability": "view",
      "type": "function"
    },
    {
      "inputs": [
        {
          "components": [
            {
              "internalType": "address payable",
              "name": "seller",
              "type": "address"
            },
            {
              "internalType": "uint256",
              "name": "tokenId",
              "type": "uint256"
            },
            {
              "internalType": "uint256",
              "name": "amount",
              "type": "uint256"
            },
            {
              "internalType": "uint256",
              "name": "expirationTime",
              "type": "uint256"
            },
            {
              "internalType": "uint256",
              "name": "price",
              "type": "uint256"
            },
            {
              "internalType": "uint256",
              "name": "salt",
              "type": "uint256"
            }
          ],
          "internalType": "struct MetarunExchange.SellOrder",
          "name": "sellOrder",
          "type": "tuple"
        }
      ],
      "name": "hashSellOrder",
      "outputs": [
        {
          "internalType": "bytes32",
          "name": "",
          "type": "bytes32"
        }
      ],
      "stateMutability": "view",
      "type": "function"
    },
    {
      "inputs": [
        {
          "internalType": "address",
          "name": "_collection",
          "type": "address"
        },
        {
          "internalType": "address",
          "name": "_mrunToken",
          "type": "address"
        }
      ],
      "name": "initialize",
      "outputs": [],
      "stateMutability": "nonpayable",
      "type": "function"
    },
    {
      "inputs": [],
      "name": "mrunToken",
      "outputs": [
        {
          "internalType": "contract IERC20Upgradeable",
          "name": "",
          "type": "address"
        }
      ],
      "stateMutability": "view",
      "type": "function"
    }
  ],
  "transactionHash": "0x26f604f6a8fea87ec7d856740c4b7ea14577bd4ca5542b89a25fbd2d741ac682",
  "args": [],
  "numDeployments": 1,
  "solcInputHash": "549c033437abba082ebf1ae8318e3082",
  "bytecode": "0x608060405234801561001057600080fd5b506121df806100206000396000f3fe608060405234801561001057600080fd5b50600436106100575760003560e01c8063485cc9551461005c5780635d729e8b146100785780635e53f145146100965780637de1e536146100c6578063a76c8816146100e4575b600080fd5b610076600480360381019061007191906110fb565b610100565b005b6100806103ba565b60405161008d919061119a565b60405180910390f35b6100b060048036038101906100ab919061135a565b6103e0565b6040516100bd91906113a0565b60405180910390f35b6100ce610467565b6040516100db91906113dc565b60405180910390f35b6100fe60048036038101906100f991906114b1565b61048d565b005b600060019054906101000a900460ff166101285760008054906101000a900460ff1615610131565b6101306107e0565b5b610170576040517f08c379a000000000000000000000000000000000000000000000000000000000815260040161016790611590565b60405180910390fd5b60008060019054906101000a900460ff1615905080156101c0576001600060016101000a81548160ff02191690831515021790555060016000806101000a81548160ff0219169083151502179055505b6102346040518060400160405280600c81526020017f6d65746172756e2e67616d6500000000000000000000000000000000000000008152506040518060400160405280600381526020017f302e3100000000000000000000000000000000000000000000000000000000008152506107f1565b600073ffffffffffffffffffffffffffffffffffffffff168373ffffffffffffffffffffffffffffffffffffffff16036102a3576040517f08c379a000000000000000000000000000000000000000000000000000000000815260040161029a90611622565b60405180910390fd5b600073ffffffffffffffffffffffffffffffffffffffff168273ffffffffffffffffffffffffffffffffffffffff1603610312576040517f08c379a00000000000000000000000000000000000000000000000000000000081526004016103099061168e565b60405180910390fd5b82603560006101000a81548173ffffffffffffffffffffffffffffffffffffffff021916908373ffffffffffffffffffffffffffffffffffffffff16021790555081603660006101000a81548173ffffffffffffffffffffffffffffffffffffffff021916908373ffffffffffffffffffffffffffffffffffffffff16021790555080156103b55760008060016101000a81548160ff0219169083151502179055505b505050565b603660009054906101000a900473ffffffffffffffffffffffffffffffffffffffff1681565b6000807f506f2e315ad03a56810fd6bd4798a950bff51cd12e2a1f40bae2969ad4b6cd699050600081846000015185602001518660400151876060015188608001518960a0015160405160200161043d97969594939291906116cc565b60405160208183030381529060405280519060200120905061045e8161084e565b92505050919050565b603560009054906101000a900473ffffffffffffffffffffffffffffffffffffffff1681565b6000610498836103e0565b905060006104a68284610868565b9050600073ffffffffffffffffffffffffffffffffffffffff168173ffffffffffffffffffffffffffffffffffffffff1603610517576040517f08c379a000000000000000000000000000000000000000000000000000000000815260040161050e90611787565b60405180910390fd5b836000015173ffffffffffffffffffffffffffffffffffffffff168173ffffffffffffffffffffffffffffffffffffffff1614610589576040517f08c379a0000000000000000000000000000000000000000000000000000000008152600401610580906117f3565b60405180910390fd5b6037600083815260200190815260200160002060009054906101000a900460ff16156105ea576040517f08c379a00000000000000000000000000000000000000000000000000000000081526004016105e19061185f565b60405180910390fd5b83606001514210610630576040517f08c379a0000000000000000000000000000000000000000000000000000000008152600401610627906118cb565b60405180910390fd5b600061063b856103e0565b90503373ffffffffffffffffffffffffffffffffffffffff16856000015173ffffffffffffffffffffffffffffffffffffffff16827f39d7ae3c050edb013db51816405491a59692cc2bae0e948a82fa619991fadaa8886020015189604001518a608001516040516106af939291906118eb565b60405180910390a4603560009054906101000a900473ffffffffffffffffffffffffffffffffffffffff1673ffffffffffffffffffffffffffffffffffffffff1663f242432a866000015133886020015189604001516040518563ffffffff1660e01b81526004016107249493929190611989565b600060405180830381600087803b15801561073e57600080fd5b505af1158015610752573d6000803e3d6000fd5b505050506107ad3386600001518760800151603660009054906101000a900473ffffffffffffffffffffffffffffffffffffffff1673ffffffffffffffffffffffffffffffffffffffff1661088f909392919063ffffffff16565b60016037600085815260200190815260200160002060006101000a81548160ff0219169083151502179055505050505050565b60006107eb30610918565b15905090565b600060019054906101000a900460ff16610840576040517f08c379a000000000000000000000000000000000000000000000000000000000815260040161083790611a53565b60405180910390fd5b61084a828261093b565b5050565b600061086161085b6109b6565b836109f6565b9050919050565b60008060006108778585610a29565b9150915061088481610aaa565b819250505092915050565b610912846323b872dd60e01b8585856040516024016108b093929190611a73565b604051602081830303815290604052907bffffffffffffffffffffffffffffffffffffffffffffffffffffffff19166020820180517bffffffffffffffffffffffffffffffffffffffffffffffffffffffff8381831617835250505050610c76565b50505050565b6000808273ffffffffffffffffffffffffffffffffffffffff163b119050919050565b600060019054906101000a900460ff1661098a576040517f08c379a000000000000000000000000000000000000000000000000000000000815260040161098190611a53565b60405180910390fd5b600082805190602001209050600082805190602001209050816001819055508060028190555050505050565b60006109f17f8b73c3c69bb8fe3d512ecc4cf759cc79239f7b179b0ffacaa9a75d522b39400f6109e4610d3d565b6109ec610d47565b610d51565b905090565b60008282604051602001610a0b929190611b22565b60405160208183030381529060405280519060200120905092915050565b6000806041835103610a6a5760008060006020860151925060408601519150606086015160001a9050610a5e87828585610d8b565b94509450505050610aa3565b6040835103610a9a576000806020850151915060408501519050610a8f868383610e97565b935093505050610aa3565b60006002915091505b9250929050565b60006004811115610abe57610abd611b59565b5b816004811115610ad157610ad0611b59565b5b0315610c735760016004811115610aeb57610aea611b59565b5b816004811115610afe57610afd611b59565b5b03610b3e576040517f08c379a0000000000000000000000000000000000000000000000000000000008152600401610b3590611bd4565b60405180910390fd5b60026004811115610b5257610b51611b59565b5b816004811115610b6557610b64611b59565b5b03610ba5576040517f08c379a0000000000000000000000000000000000000000000000000000000008152600401610b9c90611c40565b60405180910390fd5b60036004811115610bb957610bb8611b59565b5b816004811115610bcc57610bcb611b59565b5b03610c0c576040517f08c379a0000000000000000000000000000000000000000000000000000000008152600401610c0390611cd2565b60405180910390fd5b600480811115610c1f57610c1e611b59565b5b816004811115610c3257610c31611b59565b5b03610c72576040517f08c379a0000000000000000000000000000000000000000000000000000000008152600401610c6990611d64565b60405180910390fd5b5b50565b6000610cd8826040518060400160405280602081526020017f5361666545524332303a206c6f772d6c6576656c2063616c6c206661696c65648152508573ffffffffffffffffffffffffffffffffffffffff16610ef69092919063ffffffff16565b9050600081511115610d385780806020019051810190610cf89190611dbc565b610d37576040517f08c379a0000000000000000000000000000000000000000000000000000000008152600401610d2e90611e5b565b60405180910390fd5b5b505050565b6000600154905090565b6000600254905090565b60008383834630604051602001610d6c959493929190611e7b565b6040516020818303038152906040528051906020012090509392505050565b6000807f7fffffffffffffffffffffffffffffff5d576e7357a4501ddfe92f46681b20a08360001c1115610dc6576000600391509150610e8e565b601b8560ff1614158015610dde5750601c8560ff1614155b15610df0576000600491509150610e8e565b600060018787878760405160008152602001604052604051610e159493929190611eea565b6020604051602081039080840390855afa158015610e37573d6000803e3d6000fd5b505050602060405103519050600073ffffffffffffffffffffffffffffffffffffffff168173ffffffffffffffffffffffffffffffffffffffff1603610e8557600060019250925050610e8e565b80600092509250505b94509492505050565b60008060007f7fffffffffffffffffffffffffffffffffffffffffffffffffffffffffffffff60001b841690506000601b60ff8660001c901c610eda9190611f5e565b9050610ee887828885610d8b565b935093505050935093915050565b6060610f058484600085610f0e565b90509392505050565b606082471015610f53576040517f08c379a0000000000000000000000000000000000000000000000000000000008152600401610f4a90612026565b60405180910390fd5b610f5c85610918565b610f9b576040517f08c379a0000000000000000000000000000000000000000000000000000000008152600401610f9290612092565b60405180910390fd5b6000808673ffffffffffffffffffffffffffffffffffffffff168587604051610fc4919061212c565b60006040518083038185875af1925050503d8060008114611001576040519150601f19603f3d011682016040523d82523d6000602084013e611006565b606091505b5091509150611016828286611022565b92505050949350505050565b6060831561103257829050611082565b6000835111156110455782518084602001fd5b816040517f08c379a00000000000000000000000000000000000000000000000000000000081526004016110799190612187565b60405180910390fd5b9392505050565b6000604051905090565b600080fd5b600080fd5b600073ffffffffffffffffffffffffffffffffffffffff82169050919050565b60006110c88261109d565b9050919050565b6110d8816110bd565b81146110e357600080fd5b50565b6000813590506110f5816110cf565b92915050565b6000806040838503121561111257611111611093565b5b6000611120858286016110e6565b9250506020611131858286016110e6565b9150509250929050565b6000819050919050565b600061116061115b6111568461109d565b61113b565b61109d565b9050919050565b600061117282611145565b9050919050565b600061118482611167565b9050919050565b61119481611179565b82525050565b60006020820190506111af600083018461118b565b92915050565b600080fd5b6000601f19601f8301169050919050565b7f4e487b7100000000000000000000000000000000000000000000000000000000600052604160045260246000fd5b611203826111ba565b810181811067ffffffffffffffff82111715611222576112216111cb565b5b80604052505050565b6000611235611089565b905061124182826111fa565b919050565b60006112518261109d565b9050919050565b61126181611246565b811461126c57600080fd5b50565b60008135905061127e81611258565b92915050565b6000819050919050565b61129781611284565b81146112a257600080fd5b50565b6000813590506112b48161128e565b92915050565b600060c082840312156112d0576112cf6111b5565b5b6112da60c061122b565b905060006112ea8482850161126f565b60008301525060206112fe848285016112a5565b6020830152506040611312848285016112a5565b6040830152506060611326848285016112a5565b606083015250608061133a848285016112a5565b60808301525060a061134e848285016112a5565b60a08301525092915050565b600060c082840312156113705761136f611093565b5b600061137e848285016112ba565b91505092915050565b6000819050919050565b61139a81611387565b82525050565b60006020820190506113b56000830184611391565b92915050565b60006113c682611167565b9050919050565b6113d6816113bb565b82525050565b60006020820190506113f160008301846113cd565b92915050565b600080fd5b600080fd5b600067ffffffffffffffff82111561141c5761141b6111cb565b5b611425826111ba565b9050602081019050919050565b82818337600083830152505050565b600061145461144f84611401565b61122b565b9050828152602081018484840111156114705761146f6113fc565b5b61147b848285611432565b509392505050565b600082601f830112611498576114976113f7565b5b81356114a8848260208601611441565b91505092915050565b60008060e083850312156114c8576114c7611093565b5b60006114d6858286016112ba565b92505060c083013567ffffffffffffffff8111156114f7576114f6611098565b5b61150385828601611483565b9150509250929050565b600082825260208201905092915050565b7f496e697469616c697a61626c653a20636f6e747261637420697320616c72656160008201527f647920696e697469616c697a6564000000000000000000000000000000000000602082015250565b600061157a602e8361150d565b91506115858261151e565b604082019050919050565b600060208201905081810360008301526115a98161156d565b9050919050565b7f636f6c6c656374696f6e20616464726573732063616e6e6f74206265207a657260008201527f6f00000000000000000000000000000000000000000000000000000000000000602082015250565b600061160c60218361150d565b9150611617826115b0565b604082019050919050565b6000602082019050818103600083015261163b816115ff565b9050919050565b7f6d72756e20616464726573732063616e6e6f74206265207a65726f0000000000600082015250565b6000611678601b8361150d565b915061168382611642565b602082019050919050565b600060208201905081810360008301526116a78161166b565b9050919050565b6116b781611246565b82525050565b6116c681611284565b82525050565b600060e0820190506116e1600083018a611391565b6116ee60208301896116ae565b6116fb60408301886116bd565b61170860608301876116bd565b61171560808301866116bd565b61172260a08301856116bd565b61172f60c08301846116bd565b98975050505050505050565b7f4241445f5349474e415455524500000000000000000000000000000000000000600082015250565b6000611771600d8361150d565b915061177c8261173b565b602082019050919050565b600060208201905081810360008301526117a081611764565b9050919050565b7f424144205349474e455200000000000000000000000000000000000000000000600082015250565b60006117dd600a8361150d565b91506117e8826117a7565b602082019050919050565b6000602082019050818103600083015261180c816117d0565b9050919050565b7f414c52454144595f444f4e450000000000000000000000000000000000000000600082015250565b6000611849600c8361150d565b915061185482611813565b602082019050919050565b600060208201905081810360008301526118788161183c565b9050919050565b7f4558504952454400000000000000000000000000000000000000000000000000600082015250565b60006118b560078361150d565b91506118c08261187f565b602082019050919050565b600060208201905081810360008301526118e4816118a8565b9050919050565b600060608201905061190060008301866116bd565b61190d60208301856116bd565b61191a60408301846116bd565b949350505050565b600061192d82611167565b9050919050565b61193d81611922565b82525050565b61194c816110bd565b82525050565b600082825260208201905092915050565b50565b6000611973600083611952565b915061197e82611963565b600082019050919050565b600060a08201905061199e6000830187611934565b6119ab6020830186611943565b6119b860408301856116bd565b6119c560608301846116bd565b81810360808301526119d681611966565b905095945050505050565b7f496e697469616c697a61626c653a20636f6e7472616374206973206e6f74206960008201527f6e697469616c697a696e67000000000000000000000000000000000000000000602082015250565b6000611a3d602b8361150d565b9150611a48826119e1565b604082019050919050565b60006020820190508181036000830152611a6c81611a30565b9050919050565b6000606082019050611a886000830186611943565b611a956020830185611943565b611aa260408301846116bd565b949350505050565b600081905092915050565b7f1901000000000000000000000000000000000000000000000000000000000000600082015250565b6000611aeb600283611aaa565b9150611af682611ab5565b600282019050919050565b6000819050919050565b611b1c611b1782611387565b611b01565b82525050565b6000611b2d82611ade565b9150611b398285611b0b565b602082019150611b498284611b0b565b6020820191508190509392505050565b7f4e487b7100000000000000000000000000000000000000000000000000000000600052602160045260246000fd5b7f45434453413a20696e76616c6964207369676e61747572650000000000000000600082015250565b6000611bbe60188361150d565b9150611bc982611b88565b602082019050919050565b60006020820190508181036000830152611bed81611bb1565b9050919050565b7f45434453413a20696e76616c6964207369676e6174757265206c656e67746800600082015250565b6000611c2a601f8361150d565b9150611c3582611bf4565b602082019050919050565b60006020820190508181036000830152611c5981611c1d565b9050919050565b7f45434453413a20696e76616c6964207369676e6174757265202773272076616c60008201527f7565000000000000000000000000000000000000000000000000000000000000602082015250565b6000611cbc60228361150d565b9150611cc782611c60565b604082019050919050565b60006020820190508181036000830152611ceb81611caf565b9050919050565b7f45434453413a20696e76616c6964207369676e6174757265202776272076616c60008201527f7565000000000000000000000000000000000000000000000000000000000000602082015250565b6000611d4e60228361150d565b9150611d5982611cf2565b604082019050919050565b60006020820190508181036000830152611d7d81611d41565b9050919050565b60008115159050919050565b611d9981611d84565b8114611da457600080fd5b50565b600081519050611db681611d90565b92915050565b600060208284031215611dd257611dd1611093565b5b6000611de084828501611da7565b91505092915050565b7f5361666545524332303a204552433230206f7065726174696f6e20646964206e60008201527f6f74207375636365656400000000000000000000000000000000000000000000602082015250565b6000611e45602a8361150d565b9150611e5082611de9565b604082019050919050565b60006020820190508181036000830152611e7481611e38565b9050919050565b600060a082019050611e906000830188611391565b611e9d6020830187611391565b611eaa6040830186611391565b611eb760608301856116bd565b611ec46080830184611943565b9695505050505050565b600060ff82169050919050565b611ee481611ece565b82525050565b6000608082019050611eff6000830187611391565b611f0c6020830186611edb565b611f196040830185611391565b611f266060830184611391565b95945050505050565b7f4e487b7100000000000000000000000000000000000000000000000000000000600052601160045260246000fd5b6000611f6982611284565b9150611f7483611284565b9250827fffffffffffffffffffffffffffffffffffffffffffffffffffffffffffffffff03821115611fa957611fa8611f2f565b5b828201905092915050565b7f416464726573733a20696e73756666696369656e742062616c616e636520666f60008201527f722063616c6c0000000000000000000000000000000000000000000000000000602082015250565b600061201060268361150d565b915061201b82611fb4565b604082019050919050565b6000602082019050818103600083015261203f81612003565b9050919050565b7f416464726573733a2063616c6c20746f206e6f6e2d636f6e7472616374000000600082015250565b600061207c601d8361150d565b915061208782612046565b602082019050919050565b600060208201905081810360008301526120ab8161206f565b9050919050565b600081519050919050565b600081905092915050565b60005b838110156120e65780820151818401526020810190506120cb565b838111156120f5576000848401525b50505050565b6000612106826120b2565b61211081856120bd565b93506121208185602086016120c8565b80840191505092915050565b600061213882846120fb565b915081905092915050565b600081519050919050565b600061215982612143565b612163818561150d565b93506121738185602086016120c8565b61217c816111ba565b840191505092915050565b600060208201905081810360008301526121a1818461214e565b90509291505056fea26469706673582212205f8f55d73c890798541b1a0fc45b6f8bc626c616ab57b2e5bd3646500b2cb27964736f6c634300080d0033",
  "devdoc": {
    "details": "Ensures the sale of tokens (exchanging them on Ether) by matching orders",
    "events": {
      "Purchase(bytes32,address,address,uint256,uint256,uint256)": {
        "details": "Gets emitted on token purchase"
      }
    },
    "kind": "dev",
    "methods": {
      "initialize(address,address)": {
        "details": "the constructor arguments:",
        "params": {
          "_collection": "address of collection - the same used for playing",
          "_mrunToken": "address of token - the same used for purchases"
        }
      }
    },
    "title": "Metarun ERC-1155 exchange",
    "version": 1
  },
  "userdoc": {
    "kind": "user",
    "methods": {},
    "version": 1
  },
  "storageLayout": {
    "storage": [
      {
        "astId": 6,
        "contract": "contracts/MetarunExchange.sol:MetarunExchange",
        "label": "_initialized",
        "offset": 0,
        "slot": "0",
        "type": "t_bool"
      },
      {
        "astId": 9,
        "contract": "contracts/MetarunExchange.sol:MetarunExchange",
        "label": "_initializing",
        "offset": 1,
        "slot": "0",
        "type": "t_bool"
      },
      {
        "astId": 1359,
        "contract": "contracts/MetarunExchange.sol:MetarunExchange",
        "label": "_HASHED_NAME",
        "offset": 0,
        "slot": "1",
        "type": "t_bytes32"
      },
      {
        "astId": 1361,
        "contract": "contracts/MetarunExchange.sol:MetarunExchange",
        "label": "_HASHED_VERSION",
        "offset": 0,
        "slot": "2",
        "type": "t_bytes32"
      },
      {
        "astId": 1499,
        "contract": "contracts/MetarunExchange.sol:MetarunExchange",
        "label": "__gap",
        "offset": 0,
        "slot": "3",
        "type": "t_array(t_uint256)50_storage"
      },
      {
        "astId": 1528,
        "contract": "contracts/MetarunExchange.sol:MetarunExchange",
        "label": "collection",
        "offset": 0,
        "slot": "53",
        "type": "t_contract(IERC1155Upgradeable)195"
      },
      {
        "astId": 1531,
        "contract": "contracts/MetarunExchange.sol:MetarunExchange",
        "label": "mrunToken",
        "offset": 0,
        "slot": "54",
        "type": "t_contract(IERC20Upgradeable)273"
      },
      {
        "astId": 1535,
        "contract": "contracts/MetarunExchange.sol:MetarunExchange",
        "label": "sellOrderPerformed",
        "offset": 0,
        "slot": "55",
        "type": "t_mapping(t_bytes32,t_bool)"
      }
    ],
    "types": {
      "t_array(t_uint256)50_storage": {
        "base": "t_uint256",
        "encoding": "inplace",
        "label": "uint256[50]",
        "numberOfBytes": "1600"
      },
      "t_bool": {
        "encoding": "inplace",
        "label": "bool",
        "numberOfBytes": "1"
      },
      "t_bytes32": {
        "encoding": "inplace",
        "label": "bytes32",
        "numberOfBytes": "32"
      },
      "t_contract(IERC1155Upgradeable)195": {
        "encoding": "inplace",
        "label": "contract IERC1155Upgradeable",
        "numberOfBytes": "20"
      },
      "t_contract(IERC20Upgradeable)273": {
        "encoding": "inplace",
        "label": "contract IERC20Upgradeable",
        "numberOfBytes": "20"
      },
      "t_mapping(t_bytes32,t_bool)": {
        "encoding": "mapping",
        "key": "t_bytes32",
        "label": "mapping(bytes32 => bool)",
        "numberOfBytes": "32",
        "value": "t_bool"
      },
      "t_uint256": {
        "encoding": "inplace",
        "label": "uint256",
        "numberOfBytes": "32"
      }
    }
  }
}