{
  "address": "0xbE173946c6b93B255D54108C965E7581C22F92b9",
  "abi": [
    {
      "anonymous": false,
      "inputs": [
        {
          "indexed": true,
          "internalType": "bytes32",
          "name": "orderHash",
          "type": "bytes32"
        },
        {
          "indexed": false,
          "internalType": "uint256",
          "name": "timestamp",
          "type": "uint256"
        }
      ],
      "name": "Cancel",
      "type": "event"
    },
    {
      "anonymous": false,
      "inputs": [
        {
          "indexed": true,
          "internalType": "bytes32",
          "name": "orderHash",
          "type": "bytes32"
        },
        {
          "indexed": true,
          "internalType": "address",
          "name": "seller",
          "type": "address"
        },
        {
          "indexed": true,
          "internalType": "address",
          "name": "buyer",
          "type": "address"
        },
        {
          "indexed": false,
          "internalType": "uint256",
          "name": "tokenId",
          "type": "uint256"
        },
        {
          "indexed": false,
          "internalType": "uint256",
          "name": "amount",
          "type": "uint256"
        },
        {
          "indexed": false,
          "internalType": "uint256",
          "name": "price",
          "type": "uint256"
        }
      ],
      "name": "Purchase",
      "type": "event"
    },
    {
      "inputs": [
        {
          "components": [
            {
              "internalType": "address payable",
              "name": "seller",
              "type": "address"
            },
            {
              "internalType": "uint256",
              "name": "tokenId",
              "type": "uint256"
            },
            {
              "internalType": "uint256",
              "name": "amount",
              "type": "uint256"
            },
            {
              "internalType": "uint256",
              "name": "expirationTime",
              "type": "uint256"
            },
            {
              "internalType": "uint256",
              "name": "price",
              "type": "uint256"
            },
            {
              "internalType": "uint256",
              "name": "salt",
              "type": "uint256"
            }
          ],
          "internalType": "struct MetarunExchange.SellOrder",
          "name": "sellOrder",
          "type": "tuple"
        },
        {
          "internalType": "bytes",
          "name": "signature",
          "type": "bytes"
        }
      ],
      "name": "buy",
      "outputs": [],
      "stateMutability": "nonpayable",
      "type": "function"
    },
    {
      "inputs": [
        {
          "components": [
            {
              "internalType": "address payable",
              "name": "seller",
              "type": "address"
            },
            {
              "internalType": "uint256",
              "name": "tokenId",
              "type": "uint256"
            },
            {
              "internalType": "uint256",
              "name": "amount",
              "type": "uint256"
            },
            {
              "internalType": "uint256",
              "name": "expirationTime",
              "type": "uint256"
            },
            {
              "internalType": "uint256",
              "name": "price",
              "type": "uint256"
            },
            {
              "internalType": "uint256",
              "name": "salt",
              "type": "uint256"
            }
          ],
          "internalType": "struct MetarunExchange.SellOrder",
          "name": "sellOrder",
          "type": "tuple"
        },
        {
          "internalType": "bytes",
          "name": "signature",
          "type": "bytes"
        }
      ],
      "name": "cancel",
      "outputs": [],
      "stateMutability": "nonpayable",
      "type": "function"
    },
    {
      "inputs": [],
      "name": "collection",
      "outputs": [
        {
          "internalType": "contract IERC1155Upgradeable",
          "name": "",
          "type": "address"
        }
      ],
      "stateMutability": "view",
      "type": "function"
    },
    {
      "inputs": [
        {
          "components": [
            {
              "internalType": "address payable",
              "name": "seller",
              "type": "address"
            },
            {
              "internalType": "uint256",
              "name": "tokenId",
              "type": "uint256"
            },
            {
              "internalType": "uint256",
              "name": "amount",
              "type": "uint256"
            },
            {
              "internalType": "uint256",
              "name": "expirationTime",
              "type": "uint256"
            },
            {
              "internalType": "uint256",
              "name": "price",
              "type": "uint256"
            },
            {
              "internalType": "uint256",
              "name": "salt",
              "type": "uint256"
            }
          ],
          "internalType": "struct MetarunExchange.SellOrder",
          "name": "sellOrder",
          "type": "tuple"
        }
      ],
      "name": "hashSellOrder",
      "outputs": [
        {
          "internalType": "bytes32",
          "name": "",
          "type": "bytes32"
        }
      ],
      "stateMutability": "view",
      "type": "function"
    },
    {
      "inputs": [
        {
          "internalType": "address",
          "name": "_collection",
          "type": "address"
        },
        {
          "internalType": "address",
          "name": "_mrunToken",
          "type": "address"
        }
      ],
      "name": "initialize",
      "outputs": [],
      "stateMutability": "nonpayable",
      "type": "function"
    },
    {
      "inputs": [],
      "name": "mrunToken",
      "outputs": [
        {
          "internalType": "contract IERC20Upgradeable",
          "name": "",
          "type": "address"
        }
      ],
      "stateMutability": "view",
      "type": "function"
    }
  ],
  "transactionHash": "0x3f06e6e9f2ee9c35b659de74d797347ecc9af91c0f6da95ebd943c2ede1bacb4",
  "args": [],
  "numDeployments": 1,
  "solcInputHash": "73b76f6b3c747106fa2a2b87822c2050",
  "bytecode": "0x608060405234801561001057600080fd5b5061250f806100206000396000f3fe608060405234801561001057600080fd5b50600436106100625760003560e01c8063485cc955146100675780635d729e8b146100835780635e53f145146100a15780637de1e536146100d15780638b46538c146100ef578063a76c88161461010b575b600080fd5b610081600480360381019061007c9190611338565b610127565b005b61008b6103e1565b60405161009891906113d7565b60405180910390f35b6100bb60048036038101906100b69190611597565b610407565b6040516100c891906115dd565b60405180910390f35b6100d961048e565b6040516100e69190611619565b60405180910390f35b610109600480360381019061010491906116ee565b6104b4565b005b610125600480360381019061012091906116ee565b610669565b005b600060019054906101000a900460ff1661014f5760008054906101000a900460ff1615610158565b610157610a1d565b5b610197576040517f08c379a000000000000000000000000000000000000000000000000000000000815260040161018e906117cd565b60405180910390fd5b60008060019054906101000a900460ff1615905080156101e7576001600060016101000a81548160ff02191690831515021790555060016000806101000a81548160ff0219169083151502179055505b61025b6040518060400160405280600c81526020017f6d65746172756e2e67616d6500000000000000000000000000000000000000008152506040518060400160405280600381526020017f302e310000000000000000000000000000000000000000000000000000000000815250610a2e565b600073ffffffffffffffffffffffffffffffffffffffff168373ffffffffffffffffffffffffffffffffffffffff16036102ca576040517f08c379a00000000000000000000000000000000000000000000000000000000081526004016102c19061185f565b60405180910390fd5b600073ffffffffffffffffffffffffffffffffffffffff168273ffffffffffffffffffffffffffffffffffffffff1603610339576040517f08c379a0000000000000000000000000000000000000000000000000000000008152600401610330906118cb565b60405180910390fd5b82603560006101000a81548173ffffffffffffffffffffffffffffffffffffffff021916908373ffffffffffffffffffffffffffffffffffffffff16021790555081603660006101000a81548173ffffffffffffffffffffffffffffffffffffffff021916908373ffffffffffffffffffffffffffffffffffffffff16021790555080156103dc5760008060016101000a81548160ff0219169083151502179055505b505050565b603660009054906101000a900473ffffffffffffffffffffffffffffffffffffffff1681565b6000807f506f2e315ad03a56810fd6bd4798a950bff51cd12e2a1f40bae2969ad4b6cd699050600081846000015185602001518660400151876060015188608001518960a001516040516020016104649796959493929190611909565b60405160208183030381529060405280519060200120905061048581610a8b565b92505050919050565b603560009054906101000a900473ffffffffffffffffffffffffffffffffffffffff1681565b60006104bf83610407565b905060006104cd8284610aa5565b90506038600083815260200190815260200160002060009054906101000a900460ff1615610530576040517f08c379a0000000000000000000000000000000000000000000000000000000008152600401610527906119c4565b60405180910390fd5b6037600083815260200190815260200160002060009054906101000a900460ff1615610591576040517f08c379a000000000000000000000000000000000000000000000000000000000815260040161058890611a30565b60405180910390fd5b3373ffffffffffffffffffffffffffffffffffffffff168173ffffffffffffffffffffffffffffffffffffffff16146105ff576040517f08c379a00000000000000000000000000000000000000000000000000000000081526004016105f690611a9c565b60405180910390fd5b60016038600084815260200190815260200160002060006101000a81548160ff021916908315150217905550817f33c5b2d2e4db5826ca5ff87cc934fddfc7ff1714b18290e32faffa4f5619b8794260405161065b9190611abc565b60405180910390a250505050565b600061067483610407565b905060006106828284610aa5565b9050600073ffffffffffffffffffffffffffffffffffffffff168173ffffffffffffffffffffffffffffffffffffffff16036106f3576040517f08c379a00000000000000000000000000000000000000000000000000000000081526004016106ea90611b23565b60405180910390fd5b836000015173ffffffffffffffffffffffffffffffffffffffff168173ffffffffffffffffffffffffffffffffffffffff1614610765576040517f08c379a000000000000000000000000000000000000000000000000000000000815260040161075c90611b8f565b60405180910390fd5b6037600083815260200190815260200160002060009054906101000a900460ff16156107c6576040517f08c379a00000000000000000000000000000000000000000000000000000000081526004016107bd90611a30565b60405180910390fd5b6038600083815260200190815260200160002060009054906101000a900460ff1615610827576040517f08c379a000000000000000000000000000000000000000000000000000000000815260040161081e906119c4565b60405180910390fd5b8360600151421061086d576040517f08c379a000000000000000000000000000000000000000000000000000000000815260040161086490611bfb565b60405180910390fd5b600061087885610407565b90503373ffffffffffffffffffffffffffffffffffffffff16856000015173ffffffffffffffffffffffffffffffffffffffff16827f39d7ae3c050edb013db51816405491a59692cc2bae0e948a82fa619991fadaa8886020015189604001518a608001516040516108ec93929190611c1b565b60405180910390a4603560009054906101000a900473ffffffffffffffffffffffffffffffffffffffff1673ffffffffffffffffffffffffffffffffffffffff1663f242432a866000015133886020015189604001516040518563ffffffff1660e01b81526004016109619493929190611cb9565b600060405180830381600087803b15801561097b57600080fd5b505af115801561098f573d6000803e3d6000fd5b505050506109ea3386600001518760800151603660009054906101000a900473ffffffffffffffffffffffffffffffffffffffff1673ffffffffffffffffffffffffffffffffffffffff16610acc909392919063ffffffff16565b60016037600085815260200190815260200160002060006101000a81548160ff0219169083151502179055505050505050565b6000610a2830610b55565b15905090565b600060019054906101000a900460ff16610a7d576040517f08c379a0000000000000000000000000000000000000000000000000000000008152600401610a7490611d83565b60405180910390fd5b610a878282610b78565b5050565b6000610a9e610a98610bf3565b83610c33565b9050919050565b6000806000610ab48585610c66565b91509150610ac181610ce7565b819250505092915050565b610b4f846323b872dd60e01b858585604051602401610aed93929190611da3565b604051602081830303815290604052907bffffffffffffffffffffffffffffffffffffffffffffffffffffffff19166020820180517bffffffffffffffffffffffffffffffffffffffffffffffffffffffff8381831617835250505050610eb3565b50505050565b6000808273ffffffffffffffffffffffffffffffffffffffff163b119050919050565b600060019054906101000a900460ff16610bc7576040517f08c379a0000000000000000000000000000000000000000000000000000000008152600401610bbe90611d83565b60405180910390fd5b600082805190602001209050600082805190602001209050816001819055508060028190555050505050565b6000610c2e7f8b73c3c69bb8fe3d512ecc4cf759cc79239f7b179b0ffacaa9a75d522b39400f610c21610f7a565b610c29610f84565b610f8e565b905090565b60008282604051602001610c48929190611e52565b60405160208183030381529060405280519060200120905092915050565b6000806041835103610ca75760008060006020860151925060408601519150606086015160001a9050610c9b87828585610fc8565b94509450505050610ce0565b6040835103610cd7576000806020850151915060408501519050610ccc8683836110d4565b935093505050610ce0565b60006002915091505b9250929050565b60006004811115610cfb57610cfa611e89565b5b816004811115610d0e57610d0d611e89565b5b0315610eb05760016004811115610d2857610d27611e89565b5b816004811115610d3b57610d3a611e89565b5b03610d7b576040517f08c379a0000000000000000000000000000000000000000000000000000000008152600401610d7290611f04565b60405180910390fd5b60026004811115610d8f57610d8e611e89565b5b816004811115610da257610da1611e89565b5b03610de2576040517f08c379a0000000000000000000000000000000000000000000000000000000008152600401610dd990611f70565b60405180910390fd5b60036004811115610df657610df5611e89565b5b816004811115610e0957610e08611e89565b5b03610e49576040517f08c379a0000000000000000000000000000000000000000000000000000000008152600401610e4090612002565b60405180910390fd5b600480811115610e5c57610e5b611e89565b5b816004811115610e6f57610e6e611e89565b5b03610eaf576040517f08c379a0000000000000000000000000000000000000000000000000000000008152600401610ea690612094565b60405180910390fd5b5b50565b6000610f15826040518060400160405280602081526020017f5361666545524332303a206c6f772d6c6576656c2063616c6c206661696c65648152508573ffffffffffffffffffffffffffffffffffffffff166111339092919063ffffffff16565b9050600081511115610f755780806020019051810190610f3591906120ec565b610f74576040517f08c379a0000000000000000000000000000000000000000000000000000000008152600401610f6b9061218b565b60405180910390fd5b5b505050565b6000600154905090565b6000600254905090565b60008383834630604051602001610fa99594939291906121ab565b6040516020818303038152906040528051906020012090509392505050565b6000807f7fffffffffffffffffffffffffffffff5d576e7357a4501ddfe92f46681b20a08360001c11156110035760006003915091506110cb565b601b8560ff161415801561101b5750601c8560ff1614155b1561102d5760006004915091506110cb565b600060018787878760405160008152602001604052604051611052949392919061221a565b6020604051602081039080840390855afa158015611074573d6000803e3d6000fd5b505050602060405103519050600073ffffffffffffffffffffffffffffffffffffffff168173ffffffffffffffffffffffffffffffffffffffff16036110c2576000600192509250506110cb565b80600092509250505b94509492505050565b60008060007f7fffffffffffffffffffffffffffffffffffffffffffffffffffffffffffffff60001b841690506000601b60ff8660001c901c611117919061228e565b905061112587828885610fc8565b935093505050935093915050565b6060611142848460008561114b565b90509392505050565b606082471015611190576040517f08c379a000000000000000000000000000000000000000000000000000000000815260040161118790612356565b60405180910390fd5b61119985610b55565b6111d8576040517f08c379a00000000000000000000000000000000000000000000000000000000081526004016111cf906123c2565b60405180910390fd5b6000808673ffffffffffffffffffffffffffffffffffffffff168587604051611201919061245c565b60006040518083038185875af1925050503d806000811461123e576040519150601f19603f3d011682016040523d82523d6000602084013e611243565b606091505b509150915061125382828661125f565b92505050949350505050565b6060831561126f578290506112bf565b6000835111156112825782518084602001fd5b816040517f08c379a00000000000000000000000000000000000000000000000000000000081526004016112b691906124b7565b60405180910390fd5b9392505050565b6000604051905090565b600080fd5b600080fd5b600073ffffffffffffffffffffffffffffffffffffffff82169050919050565b6000611305826112da565b9050919050565b611315816112fa565b811461132057600080fd5b50565b6000813590506113328161130c565b92915050565b6000806040838503121561134f5761134e6112d0565b5b600061135d85828601611323565b925050602061136e85828601611323565b9150509250929050565b6000819050919050565b600061139d611398611393846112da565b611378565b6112da565b9050919050565b60006113af82611382565b9050919050565b60006113c1826113a4565b9050919050565b6113d1816113b6565b82525050565b60006020820190506113ec60008301846113c8565b92915050565b600080fd5b6000601f19601f8301169050919050565b7f4e487b7100000000000000000000000000000000000000000000000000000000600052604160045260246000fd5b611440826113f7565b810181811067ffffffffffffffff8211171561145f5761145e611408565b5b80604052505050565b60006114726112c6565b905061147e8282611437565b919050565b600061148e826112da565b9050919050565b61149e81611483565b81146114a957600080fd5b50565b6000813590506114bb81611495565b92915050565b6000819050919050565b6114d4816114c1565b81146114df57600080fd5b50565b6000813590506114f1816114cb565b92915050565b600060c0828403121561150d5761150c6113f2565b5b61151760c0611468565b90506000611527848285016114ac565b600083015250602061153b848285016114e2565b602083015250604061154f848285016114e2565b6040830152506060611563848285016114e2565b6060830152506080611577848285016114e2565b60808301525060a061158b848285016114e2565b60a08301525092915050565b600060c082840312156115ad576115ac6112d0565b5b60006115bb848285016114f7565b91505092915050565b6000819050919050565b6115d7816115c4565b82525050565b60006020820190506115f260008301846115ce565b92915050565b6000611603826113a4565b9050919050565b611613816115f8565b82525050565b600060208201905061162e600083018461160a565b92915050565b600080fd5b600080fd5b600067ffffffffffffffff82111561165957611658611408565b5b611662826113f7565b9050602081019050919050565b82818337600083830152505050565b600061169161168c8461163e565b611468565b9050828152602081018484840111156116ad576116ac611639565b5b6116b884828561166f565b509392505050565b600082601f8301126116d5576116d4611634565b5b81356116e584826020860161167e565b91505092915050565b60008060e08385031215611705576117046112d0565b5b6000611713858286016114f7565b92505060c083013567ffffffffffffffff811115611734576117336112d5565b5b611740858286016116c0565b9150509250929050565b600082825260208201905092915050565b7f496e697469616c697a61626c653a20636f6e747261637420697320616c72656160008201527f647920696e697469616c697a6564000000000000000000000000000000000000602082015250565b60006117b7602e8361174a565b91506117c28261175b565b604082019050919050565b600060208201905081810360008301526117e6816117aa565b9050919050565b7f636f6c6c656374696f6e20616464726573732063616e6e6f74206265207a657260008201527f6f00000000000000000000000000000000000000000000000000000000000000602082015250565b600061184960218361174a565b9150611854826117ed565b604082019050919050565b600060208201905081810360008301526118788161183c565b9050919050565b7f6d72756e20616464726573732063616e6e6f74206265207a65726f0000000000600082015250565b60006118b5601b8361174a565b91506118c08261187f565b602082019050919050565b600060208201905081810360008301526118e4816118a8565b9050919050565b6118f481611483565b82525050565b611903816114c1565b82525050565b600060e08201905061191e600083018a6115ce565b61192b60208301896118eb565b61193860408301886118fa565b61194560608301876118fa565b61195260808301866118fa565b61195f60a08301856118fa565b61196c60c08301846118fa565b98975050505050505050565b7f414c52454144595f43414e43454c4c4544000000000000000000000000000000600082015250565b60006119ae60118361174a565b91506119b982611978565b602082019050919050565b600060208201905081810360008301526119dd816119a1565b9050919050565b7f414c52454144595f444f4e450000000000000000000000000000000000000000600082015250565b6000611a1a600c8361174a565b9150611a25826119e4565b602082019050919050565b60006020820190508181036000830152611a4981611a0d565b9050919050565b7f4241445f53454e44455200000000000000000000000000000000000000000000600082015250565b6000611a86600a8361174a565b9150611a9182611a50565b602082019050919050565b60006020820190508181036000830152611ab581611a79565b9050919050565b6000602082019050611ad160008301846118fa565b92915050565b7f4241445f5349474e415455524500000000000000000000000000000000000000600082015250565b6000611b0d600d8361174a565b9150611b1882611ad7565b602082019050919050565b60006020820190508181036000830152611b3c81611b00565b9050919050565b7f424144205349474e455200000000000000000000000000000000000000000000600082015250565b6000611b79600a8361174a565b9150611b8482611b43565b602082019050919050565b60006020820190508181036000830152611ba881611b6c565b9050919050565b7f4558504952454400000000000000000000000000000000000000000000000000600082015250565b6000611be560078361174a565b9150611bf082611baf565b602082019050919050565b60006020820190508181036000830152611c1481611bd8565b9050919050565b6000606082019050611c3060008301866118fa565b611c3d60208301856118fa565b611c4a60408301846118fa565b949350505050565b6000611c5d826113a4565b9050919050565b611c6d81611c52565b82525050565b611c7c816112fa565b82525050565b600082825260208201905092915050565b50565b6000611ca3600083611c82565b9150611cae82611c93565b600082019050919050565b600060a082019050611cce6000830187611c64565b611cdb6020830186611c73565b611ce860408301856118fa565b611cf560608301846118fa565b8181036080830152611d0681611c96565b905095945050505050565b7f496e697469616c697a61626c653a20636f6e7472616374206973206e6f74206960008201527f6e697469616c697a696e67000000000000000000000000000000000000000000602082015250565b6000611d6d602b8361174a565b9150611d7882611d11565b604082019050919050565b60006020820190508181036000830152611d9c81611d60565b9050919050565b6000606082019050611db86000830186611c73565b611dc56020830185611c73565b611dd260408301846118fa565b949350505050565b600081905092915050565b7f1901000000000000000000000000000000000000000000000000000000000000600082015250565b6000611e1b600283611dda565b9150611e2682611de5565b600282019050919050565b6000819050919050565b611e4c611e47826115c4565b611e31565b82525050565b6000611e5d82611e0e565b9150611e698285611e3b565b602082019150611e798284611e3b565b6020820191508190509392505050565b7f4e487b7100000000000000000000000000000000000000000000000000000000600052602160045260246000fd5b7f45434453413a20696e76616c6964207369676e61747572650000000000000000600082015250565b6000611eee60188361174a565b9150611ef982611eb8565b602082019050919050565b60006020820190508181036000830152611f1d81611ee1565b9050919050565b7f45434453413a20696e76616c6964207369676e6174757265206c656e67746800600082015250565b6000611f5a601f8361174a565b9150611f6582611f24565b602082019050919050565b60006020820190508181036000830152611f8981611f4d565b9050919050565b7f45434453413a20696e76616c6964207369676e6174757265202773272076616c60008201527f7565000000000000000000000000000000000000000000000000000000000000602082015250565b6000611fec60228361174a565b9150611ff782611f90565b604082019050919050565b6000602082019050818103600083015261201b81611fdf565b9050919050565b7f45434453413a20696e76616c6964207369676e6174757265202776272076616c60008201527f7565000000000000000000000000000000000000000000000000000000000000602082015250565b600061207e60228361174a565b915061208982612022565b604082019050919050565b600060208201905081810360008301526120ad81612071565b9050919050565b60008115159050919050565b6120c9816120b4565b81146120d457600080fd5b50565b6000815190506120e6816120c0565b92915050565b600060208284031215612102576121016112d0565b5b6000612110848285016120d7565b91505092915050565b7f5361666545524332303a204552433230206f7065726174696f6e20646964206e60008201527f6f74207375636365656400000000000000000000000000000000000000000000602082015250565b6000612175602a8361174a565b915061218082612119565b604082019050919050565b600060208201905081810360008301526121a481612168565b9050919050565b600060a0820190506121c060008301886115ce565b6121cd60208301876115ce565b6121da60408301866115ce565b6121e760608301856118fa565b6121f46080830184611c73565b9695505050505050565b600060ff82169050919050565b612214816121fe565b82525050565b600060808201905061222f60008301876115ce565b61223c602083018661220b565b61224960408301856115ce565b61225660608301846115ce565b95945050505050565b7f4e487b7100000000000000000000000000000000000000000000000000000000600052601160045260246000fd5b6000612299826114c1565b91506122a4836114c1565b9250827fffffffffffffffffffffffffffffffffffffffffffffffffffffffffffffffff038211156122d9576122d861225f565b5b828201905092915050565b7f416464726573733a20696e73756666696369656e742062616c616e636520666f60008201527f722063616c6c0000000000000000000000000000000000000000000000000000602082015250565b600061234060268361174a565b915061234b826122e4565b604082019050919050565b6000602082019050818103600083015261236f81612333565b9050919050565b7f416464726573733a2063616c6c20746f206e6f6e2d636f6e7472616374000000600082015250565b60006123ac601d8361174a565b91506123b782612376565b602082019050919050565b600060208201905081810360008301526123db8161239f565b9050919050565b600081519050919050565b600081905092915050565b60005b838110156124165780820151818401526020810190506123fb565b83811115612425576000848401525b50505050565b6000612436826123e2565b61244081856123ed565b93506124508185602086016123f8565b80840191505092915050565b6000612468828461242b565b915081905092915050565b600081519050919050565b600061248982612473565b612493818561174a565b93506124a38185602086016123f8565b6124ac816113f7565b840191505092915050565b600060208201905081810360008301526124d1818461247e565b90509291505056fea2646970667358221220923ab32eaf1e04e2b5c1afe2db7f27f1b0ebcbf0c6d6590b60e546fbfe9b78a864736f6c634300080d0033",
  "devdoc": {
    "details": "Ensures the sale of tokens (exchanging them on Ether) by matching orders",
    "events": {
      "Purchase(bytes32,address,address,uint256,uint256,uint256)": {
        "details": "Gets emitted on token purchase"
      }
    },
    "kind": "dev",
    "methods": {
      "initialize(address,address)": {
        "details": "the constructor arguments:",
        "params": {
          "_collection": "address of collection - the same used for playing",
          "_mrunToken": "address of token - the same used for purchases"
        }
      }
    },
    "title": "Metarun ERC-1155 exchange",
    "version": 1
  },
  "userdoc": {
    "kind": "user",
    "methods": {},
    "version": 1
  },
  "storageLayout": {
    "storage": [
      {
        "astId": 532,
        "contract": "contracts/MetarunExchange.sol:MetarunExchange",
        "label": "_initialized",
        "offset": 0,
        "slot": "0",
        "type": "t_bool"
      },
      {
        "astId": 535,
        "contract": "contracts/MetarunExchange.sol:MetarunExchange",
        "label": "_initializing",
        "offset": 1,
        "slot": "0",
        "type": "t_bool"
      },
      {
        "astId": 3468,
        "contract": "contracts/MetarunExchange.sol:MetarunExchange",
        "label": "_HASHED_NAME",
        "offset": 0,
        "slot": "1",
        "type": "t_bytes32"
      },
      {
        "astId": 3470,
        "contract": "contracts/MetarunExchange.sol:MetarunExchange",
        "label": "_HASHED_VERSION",
        "offset": 0,
        "slot": "2",
        "type": "t_bytes32"
      },
      {
        "astId": 3608,
        "contract": "contracts/MetarunExchange.sol:MetarunExchange",
        "label": "__gap",
        "offset": 0,
        "slot": "3",
        "type": "t_array(t_uint256)50_storage"
      },
      {
        "astId": 7851,
        "contract": "contracts/MetarunExchange.sol:MetarunExchange",
        "label": "collection",
        "offset": 0,
        "slot": "53",
        "type": "t_contract(IERC1155Upgradeable)1880"
      },
      {
        "astId": 7854,
        "contract": "contracts/MetarunExchange.sol:MetarunExchange",
        "label": "mrunToken",
        "offset": 0,
        "slot": "54",
        "type": "t_contract(IERC20Upgradeable)2340"
      },
      {
        "astId": 7858,
        "contract": "contracts/MetarunExchange.sol:MetarunExchange",
        "label": "sellOrderPerformed",
        "offset": 0,
        "slot": "55",
        "type": "t_mapping(t_bytes32,t_bool)"
      },
      {
        "astId": 7862,
        "contract": "contracts/MetarunExchange.sol:MetarunExchange",
        "label": "sellOrderCancelled",
        "offset": 0,
        "slot": "56",
        "type": "t_mapping(t_bytes32,t_bool)"
      }
    ],
    "types": {
      "t_array(t_uint256)50_storage": {
        "base": "t_uint256",
        "encoding": "inplace",
        "label": "uint256[50]",
        "numberOfBytes": "1600"
      },
      "t_bool": {
        "encoding": "inplace",
        "label": "bool",
        "numberOfBytes": "1"
      },
      "t_bytes32": {
        "encoding": "inplace",
        "label": "bytes32",
        "numberOfBytes": "32"
      },
      "t_contract(IERC1155Upgradeable)1880": {
        "encoding": "inplace",
        "label": "contract IERC1155Upgradeable",
        "numberOfBytes": "20"
      },
      "t_contract(IERC20Upgradeable)2340": {
        "encoding": "inplace",
        "label": "contract IERC20Upgradeable",
        "numberOfBytes": "20"
      },
      "t_mapping(t_bytes32,t_bool)": {
        "encoding": "mapping",
        "key": "t_bytes32",
        "label": "mapping(bytes32 => bool)",
        "numberOfBytes": "32",
        "value": "t_bool"
      },
      "t_uint256": {
        "encoding": "inplace",
        "label": "uint256",
        "numberOfBytes": "32"
      }
    }
  }
}