{
  "address": "0x7d2d1e912A002B37D0C8d4F39B7EbBe58AC1C943",
  "abi": [
    {
      "anonymous": false,
      "inputs": [
        {
          "indexed": true,
          "internalType": "address",
          "name": "account",
          "type": "address"
        },
        {
          "indexed": true,
          "internalType": "address",
          "name": "operator",
          "type": "address"
        },
        {
          "indexed": false,
          "internalType": "bool",
          "name": "approved",
          "type": "bool"
        }
      ],
      "name": "ApprovalForAll",
      "type": "event"
    },
    {
      "anonymous": false,
      "inputs": [
        {
          "indexed": true,
          "internalType": "bytes32",
          "name": "role",
          "type": "bytes32"
        },
        {
          "indexed": true,
          "internalType": "bytes32",
          "name": "previousAdminRole",
          "type": "bytes32"
        },
        {
          "indexed": true,
          "internalType": "bytes32",
          "name": "newAdminRole",
          "type": "bytes32"
        }
      ],
      "name": "RoleAdminChanged",
      "type": "event"
    },
    {
      "anonymous": false,
      "inputs": [
        {
          "indexed": true,
          "internalType": "bytes32",
          "name": "role",
          "type": "bytes32"
        },
        {
          "indexed": true,
          "internalType": "address",
          "name": "account",
          "type": "address"
        },
        {
          "indexed": true,
          "internalType": "address",
          "name": "sender",
          "type": "address"
        }
      ],
      "name": "RoleGranted",
      "type": "event"
    },
    {
      "anonymous": false,
      "inputs": [
        {
          "indexed": true,
          "internalType": "bytes32",
          "name": "role",
          "type": "bytes32"
        },
        {
          "indexed": true,
          "internalType": "address",
          "name": "account",
          "type": "address"
        },
        {
          "indexed": true,
          "internalType": "address",
          "name": "sender",
          "type": "address"
        }
      ],
      "name": "RoleRevoked",
      "type": "event"
    },
    {
      "anonymous": false,
      "inputs": [
        {
          "indexed": true,
          "internalType": "address",
          "name": "operator",
          "type": "address"
        },
        {
          "indexed": true,
          "internalType": "address",
          "name": "from",
          "type": "address"
        },
        {
          "indexed": true,
          "internalType": "address",
          "name": "to",
          "type": "address"
        },
        {
          "indexed": false,
          "internalType": "uint256[]",
          "name": "ids",
          "type": "uint256[]"
        },
        {
          "indexed": false,
          "internalType": "uint256[]",
          "name": "values",
          "type": "uint256[]"
        }
      ],
      "name": "TransferBatch",
      "type": "event"
    },
    {
      "anonymous": false,
      "inputs": [
        {
          "indexed": true,
          "internalType": "address",
          "name": "operator",
          "type": "address"
        },
        {
          "indexed": true,
          "internalType": "address",
          "name": "from",
          "type": "address"
        },
        {
          "indexed": true,
          "internalType": "address",
          "name": "to",
          "type": "address"
        },
        {
          "indexed": false,
          "internalType": "uint256",
          "name": "id",
          "type": "uint256"
        },
        {
          "indexed": false,
          "internalType": "uint256",
          "name": "value",
          "type": "uint256"
        }
      ],
      "name": "TransferSingle",
      "type": "event"
    },
    {
      "anonymous": false,
      "inputs": [
        {
          "indexed": false,
          "internalType": "string",
          "name": "value",
          "type": "string"
        },
        {
          "indexed": true,
          "internalType": "uint256",
          "name": "id",
          "type": "uint256"
        }
      ],
      "name": "URI",
      "type": "event"
    },
    {
      "inputs": [],
      "name": "ARTIFACT_TOKEN_KIND",
      "outputs": [
        {
          "internalType": "uint256",
          "name": "",
          "type": "uint256"
        }
      ],
      "stateMutability": "view",
      "type": "function"
    },
    {
      "inputs": [],
      "name": "BRONZE_TICKET_KIND",
      "outputs": [
        {
          "internalType": "uint256",
          "name": "",
          "type": "uint256"
        }
      ],
      "stateMutability": "view",
      "type": "function"
    },
    {
      "inputs": [],
      "name": "COLLISION_DAMAGE_TOKEN_ID",
      "outputs": [
        {
          "internalType": "uint256",
          "name": "",
          "type": "uint256"
        }
      ],
      "stateMutability": "view",
      "type": "function"
    },
    {
      "inputs": [],
      "name": "COMMON_SKIN_KIND",
      "outputs": [
        {
          "internalType": "uint256",
          "name": "",
          "type": "uint256"
        }
      ],
      "stateMutability": "view",
      "type": "function"
    },
    {
      "inputs": [],
      "name": "CRAFTSMAN_CHARACTER_KIND",
      "outputs": [
        {
          "internalType": "uint256",
          "name": "",
          "type": "uint256"
        }
      ],
      "stateMutability": "view",
      "type": "function"
    },
    {
      "inputs": [],
      "name": "DEFAULT_ADMIN_ROLE",
      "outputs": [
        {
          "internalType": "bytes32",
          "name": "",
          "type": "bytes32"
        }
      ],
      "stateMutability": "view",
      "type": "function"
    },
    {
      "inputs": [],
      "name": "FIGHTER_CHARACTER_KIND",
      "outputs": [
        {
          "internalType": "uint256",
          "name": "",
          "type": "uint256"
        }
      ],
      "stateMutability": "view",
      "type": "function"
    },
    {
      "inputs": [],
      "name": "FUNGIBLE_TOKEN_KIND",
      "outputs": [
        {
          "internalType": "uint256",
          "name": "",
          "type": "uint256"
        }
      ],
      "stateMutability": "view",
      "type": "function"
    },
    {
      "inputs": [],
      "name": "GOLD_TICKET_KIND",
      "outputs": [
        {
          "internalType": "uint256",
          "name": "",
          "type": "uint256"
        }
      ],
      "stateMutability": "view",
      "type": "function"
    },
    {
      "inputs": [],
      "name": "HEALTH_TOKEN_ID",
      "outputs": [
        {
          "internalType": "uint256",
          "name": "",
          "type": "uint256"
        }
      ],
      "stateMutability": "view",
      "type": "function"
    },
    {
      "inputs": [],
      "name": "MANA_TOKEN_ID",
      "outputs": [
        {
          "internalType": "uint256",
          "name": "",
          "type": "uint256"
        }
      ],
      "stateMutability": "view",
      "type": "function"
    },
    {
      "inputs": [],
      "name": "MINTER_ROLE",
      "outputs": [
        {
          "internalType": "bytes32",
          "name": "",
          "type": "bytes32"
        }
      ],
      "stateMutability": "view",
      "type": "function"
    },
    {
      "inputs": [],
      "name": "MYTHICAL_SKIN_KIND",
      "outputs": [
        {
          "internalType": "uint256",
          "name": "",
          "type": "uint256"
        }
      ],
      "stateMutability": "view",
      "type": "function"
    },
    {
      "inputs": [],
      "name": "OPAL_TOKEN_ID",
      "outputs": [
        {
          "internalType": "uint256",
          "name": "",
          "type": "uint256"
        }
      ],
      "stateMutability": "view",
      "type": "function"
    },
    {
      "inputs": [],
      "name": "PET_TOKEN_KIND",
      "outputs": [
        {
          "internalType": "uint256",
          "name": "",
          "type": "uint256"
        }
      ],
      "stateMutability": "view",
      "type": "function"
    },
    {
      "inputs": [],
      "name": "RARE_SKIN_KIND",
      "outputs": [
        {
          "internalType": "uint256",
          "name": "",
          "type": "uint256"
        }
      ],
      "stateMutability": "view",
      "type": "function"
    },
    {
      "inputs": [],
      "name": "SETTER_ROLE",
      "outputs": [
        {
          "internalType": "bytes32",
          "name": "",
          "type": "bytes32"
        }
      ],
      "stateMutability": "view",
      "type": "function"
    },
    {
      "inputs": [],
      "name": "SILVER_TICKET_KIND",
      "outputs": [
        {
          "internalType": "uint256",
          "name": "",
          "type": "uint256"
        }
      ],
      "stateMutability": "view",
      "type": "function"
    },
    {
      "inputs": [],
      "name": "SPEED_TOKEN_ID",
      "outputs": [
        {
          "internalType": "uint256",
          "name": "",
          "type": "uint256"
        }
      ],
      "stateMutability": "view",
      "type": "function"
    },
    {
      "inputs": [],
      "name": "SPRINTER_CHARACTER_KIND",
      "outputs": [
        {
          "internalType": "uint256",
          "name": "",
          "type": "uint256"
        }
      ],
      "stateMutability": "view",
      "type": "function"
    },
    {
      "inputs": [
        {
          "internalType": "address",
          "name": "account",
          "type": "address"
        },
        {
          "internalType": "uint256",
          "name": "id",
          "type": "uint256"
        }
      ],
      "name": "balanceOf",
      "outputs": [
        {
          "internalType": "uint256",
          "name": "",
          "type": "uint256"
        }
      ],
      "stateMutability": "view",
      "type": "function"
    },
    {
      "inputs": [
        {
          "internalType": "address[]",
          "name": "accounts",
          "type": "address[]"
        },
        {
          "internalType": "uint256[]",
          "name": "ids",
          "type": "uint256[]"
        }
      ],
      "name": "balanceOfBatch",
      "outputs": [
        {
          "internalType": "uint256[]",
          "name": "",
          "type": "uint256[]"
        }
      ],
      "stateMutability": "view",
      "type": "function"
    },
    {
      "inputs": [
        {
          "internalType": "address",
          "name": "account",
          "type": "address"
        },
        {
          "internalType": "uint256",
          "name": "id",
          "type": "uint256"
        },
        {
          "internalType": "uint256",
          "name": "value",
          "type": "uint256"
        }
      ],
      "name": "burn",
      "outputs": [],
      "stateMutability": "nonpayable",
      "type": "function"
    },
    {
      "inputs": [
        {
          "internalType": "address",
          "name": "account",
          "type": "address"
        },
        {
          "internalType": "uint256[]",
          "name": "ids",
          "type": "uint256[]"
        },
        {
          "internalType": "uint256[]",
          "name": "values",
          "type": "uint256[]"
        }
      ],
      "name": "burnBatch",
      "outputs": [],
      "stateMutability": "nonpayable",
      "type": "function"
    },
    {
      "inputs": [
        {
          "internalType": "uint256",
          "name": "id",
          "type": "uint256"
        }
      ],
      "name": "exists",
      "outputs": [
        {
          "internalType": "bool",
          "name": "",
          "type": "bool"
        }
      ],
      "stateMutability": "view",
      "type": "function"
    },
    {
      "inputs": [
        {
          "internalType": "uint256",
          "name": "id",
          "type": "uint256"
        }
      ],
      "name": "getKind",
      "outputs": [
        {
          "internalType": "uint256",
          "name": "",
          "type": "uint256"
        }
      ],
      "stateMutability": "pure",
      "type": "function"
    },
    {
      "inputs": [
        {
          "internalType": "uint256",
          "name": "kind",
          "type": "uint256"
        }
      ],
      "name": "getKindSupply",
      "outputs": [
        {
          "internalType": "uint256",
          "name": "",
          "type": "uint256"
        }
      ],
      "stateMutability": "view",
      "type": "function"
    },
    {
      "inputs": [
        {
          "internalType": "uint256",
          "name": "id",
          "type": "uint256"
        }
      ],
      "name": "getPerks",
      "outputs": [
        {
          "components": [
            {
              "internalType": "uint256",
              "name": "level",
              "type": "uint256"
            },
            {
              "internalType": "uint256",
              "name": "runs",
              "type": "uint256"
            },
            {
              "internalType": "uint256",
              "name": "wins",
              "type": "uint256"
            },
            {
              "internalType": "uint256",
              "name": "ability",
              "type": "uint256"
            },
            {
              "internalType": "uint256",
              "name": "health",
              "type": "uint256"
            },
            {
              "internalType": "uint256",
              "name": "mana",
              "type": "uint256"
            },
            {
              "internalType": "uint256",
              "name": "speed",
              "type": "uint256"
            },
            {
              "internalType": "uint256",
              "name": "collisionDamage",
              "type": "uint256"
            },
            {
              "internalType": "uint256",
              "name": "runsPerDayLimit",
              "type": "uint256"
            },
            {
              "internalType": "uint256",
              "name": "runsTotalLimit",
              "type": "uint256"
            }
          ],
          "internalType": "struct MetarunCollection.Perks",
          "name": "",
          "type": "tuple"
        }
      ],
      "stateMutability": "view",
      "type": "function"
    },
    {
      "inputs": [
        {
          "internalType": "bytes32",
          "name": "role",
          "type": "bytes32"
        }
      ],
      "name": "getRoleAdmin",
      "outputs": [
        {
          "internalType": "bytes32",
          "name": "",
          "type": "bytes32"
        }
      ],
      "stateMutability": "view",
      "type": "function"
    },
    {
      "inputs": [
        {
          "internalType": "bytes32",
          "name": "role",
          "type": "bytes32"
        },
        {
          "internalType": "address",
          "name": "account",
          "type": "address"
        }
      ],
      "name": "grantRole",
      "outputs": [],
      "stateMutability": "nonpayable",
      "type": "function"
    },
    {
      "inputs": [
        {
          "internalType": "bytes32",
          "name": "role",
          "type": "bytes32"
        },
        {
          "internalType": "address",
          "name": "account",
          "type": "address"
        }
      ],
      "name": "hasRole",
      "outputs": [
        {
          "internalType": "bool",
          "name": "",
          "type": "bool"
        }
      ],
      "stateMutability": "view",
      "type": "function"
    },
    {
      "inputs": [
        {
          "internalType": "string",
          "name": "uri",
          "type": "string"
        }
      ],
      "name": "initialize",
      "outputs": [],
      "stateMutability": "nonpayable",
      "type": "function"
    },
    {
      "inputs": [
        {
          "internalType": "address",
          "name": "account",
          "type": "address"
        },
        {
          "internalType": "address",
          "name": "operator",
          "type": "address"
        }
      ],
      "name": "isApprovedForAll",
      "outputs": [
        {
          "internalType": "bool",
          "name": "",
          "type": "bool"
        }
      ],
      "stateMutability": "view",
      "type": "function"
    },
    {
      "inputs": [
        {
          "internalType": "uint256",
          "name": "id",
          "type": "uint256"
        }
      ],
      "name": "isCharacter",
      "outputs": [
        {
          "internalType": "bool",
          "name": "",
          "type": "bool"
        }
      ],
      "stateMutability": "pure",
      "type": "function"
    },
    {
      "inputs": [
        {
          "internalType": "uint256",
          "name": "id",
          "type": "uint256"
        },
        {
          "internalType": "uint256",
          "name": "kind",
          "type": "uint256"
        }
      ],
      "name": "isKind",
      "outputs": [
        {
          "internalType": "bool",
          "name": "",
          "type": "bool"
        }
      ],
      "stateMutability": "pure",
      "type": "function"
    },
    {
      "inputs": [
        {
          "internalType": "uint256",
          "name": "id",
          "type": "uint256"
        }
      ],
      "name": "isTicket",
      "outputs": [
        {
          "internalType": "bool",
          "name": "",
          "type": "bool"
        }
      ],
      "stateMutability": "pure",
      "type": "function"
    },
    {
      "inputs": [
        {
          "internalType": "address",
          "name": "to",
          "type": "address"
        },
        {
          "internalType": "uint256",
          "name": "id",
          "type": "uint256"
        },
        {
          "internalType": "uint256",
          "name": "amount",
          "type": "uint256"
        }
      ],
      "name": "mint",
      "outputs": [],
      "stateMutability": "nonpayable",
      "type": "function"
    },
    {
      "inputs": [
        {
          "internalType": "address",
          "name": "to",
          "type": "address"
        },
        {
          "internalType": "uint256",
          "name": "kind",
          "type": "uint256"
        },
        {
          "internalType": "uint256",
          "name": "count",
          "type": "uint256"
        }
      ],
      "name": "mintBatch",
      "outputs": [],
      "stateMutability": "nonpayable",
      "type": "function"
    },
    {
      "inputs": [
        {
          "internalType": "bytes32",
          "name": "role",
          "type": "bytes32"
        },
        {
          "internalType": "address",
          "name": "account",
          "type": "address"
        }
      ],
      "name": "renounceRole",
      "outputs": [],
      "stateMutability": "nonpayable",
      "type": "function"
    },
    {
      "inputs": [
        {
          "internalType": "bytes32",
          "name": "role",
          "type": "bytes32"
        },
        {
          "internalType": "address",
          "name": "account",
          "type": "address"
        }
      ],
      "name": "revokeRole",
      "outputs": [],
      "stateMutability": "nonpayable",
      "type": "function"
    },
    {
      "inputs": [
        {
          "internalType": "address",
          "name": "from",
          "type": "address"
        },
        {
          "internalType": "address",
          "name": "to",
          "type": "address"
        },
        {
          "internalType": "uint256[]",
          "name": "ids",
          "type": "uint256[]"
        },
        {
          "internalType": "uint256[]",
          "name": "amounts",
          "type": "uint256[]"
        },
        {
          "internalType": "bytes",
          "name": "data",
          "type": "bytes"
        }
      ],
      "name": "safeBatchTransferFrom",
      "outputs": [],
      "stateMutability": "nonpayable",
      "type": "function"
    },
    {
      "inputs": [
        {
          "internalType": "address",
          "name": "from",
          "type": "address"
        },
        {
          "internalType": "address",
          "name": "to",
          "type": "address"
        },
        {
          "internalType": "uint256",
          "name": "id",
          "type": "uint256"
        },
        {
          "internalType": "uint256",
          "name": "amount",
          "type": "uint256"
        },
        {
          "internalType": "bytes",
          "name": "data",
          "type": "bytes"
        }
      ],
      "name": "safeTransferFrom",
      "outputs": [],
      "stateMutability": "nonpayable",
      "type": "function"
    },
    {
      "inputs": [
        {
          "internalType": "address",
          "name": "operator",
          "type": "address"
        },
        {
          "internalType": "bool",
          "name": "approved",
          "type": "bool"
        }
      ],
      "name": "setApprovalForAll",
      "outputs": [],
      "stateMutability": "nonpayable",
      "type": "function"
    },
    {
      "inputs": [
        {
          "internalType": "uint256",
          "name": "id",
          "type": "uint256"
        },
        {
          "components": [
            {
              "internalType": "uint256",
              "name": "level",
              "type": "uint256"
            },
            {
              "internalType": "uint256",
              "name": "runs",
              "type": "uint256"
            },
            {
              "internalType": "uint256",
              "name": "wins",
              "type": "uint256"
            },
            {
              "internalType": "uint256",
              "name": "ability",
              "type": "uint256"
            },
            {
              "internalType": "uint256",
              "name": "health",
              "type": "uint256"
            },
            {
              "internalType": "uint256",
              "name": "mana",
              "type": "uint256"
            },
            {
              "internalType": "uint256",
              "name": "speed",
              "type": "uint256"
            },
            {
              "internalType": "uint256",
              "name": "collisionDamage",
              "type": "uint256"
            },
            {
              "internalType": "uint256",
              "name": "runsPerDayLimit",
              "type": "uint256"
            },
            {
              "internalType": "uint256",
              "name": "runsTotalLimit",
              "type": "uint256"
            }
          ],
          "internalType": "struct MetarunCollection.Perks",
          "name": "perks",
          "type": "tuple"
        }
      ],
      "name": "setPerks",
      "outputs": [],
      "stateMutability": "nonpayable",
      "type": "function"
    },
    {
      "inputs": [
        {
          "internalType": "string",
          "name": "newUri",
          "type": "string"
        }
      ],
      "name": "setURI",
      "outputs": [],
      "stateMutability": "nonpayable",
      "type": "function"
    },
    {
      "inputs": [
        {
          "internalType": "bytes4",
          "name": "interfaceId",
          "type": "bytes4"
        }
      ],
      "name": "supportsInterface",
      "outputs": [
        {
          "internalType": "bool",
          "name": "",
          "type": "bool"
        }
      ],
      "stateMutability": "view",
      "type": "function"
    },
    {
      "inputs": [
        {
          "internalType": "uint256",
          "name": "id",
          "type": "uint256"
        }
      ],
      "name": "totalSupply",
      "outputs": [
        {
          "internalType": "uint256",
          "name": "",
          "type": "uint256"
        }
      ],
      "stateMutability": "view",
      "type": "function"
    },
    {
      "inputs": [
        {
          "internalType": "uint256",
          "name": "",
          "type": "uint256"
        }
      ],
      "name": "uri",
      "outputs": [
        {
          "internalType": "string",
          "name": "",
          "type": "string"
        }
      ],
      "stateMutability": "view",
      "type": "function"
    }
  ],
  "transactionHash": "0xee004498b961787abc2cba92f1c8ab2a4656ab4ba2f4233b627a1a179306b4be",
  "args": [],
  "numDeployments": 1,
  "solcInputHash": "73b76f6b3c747106fa2a2b87822c2050",
  "bytecode": "0x608060405234801561001057600080fd5b5061598f80620000216000396000f3fe608060405234801561001057600080fd5b506004361061029f5760003560e01c80636b20c45411610167578063bd85b039116100ce578063e985e9c511610087578063e985e9c514610866578063f242432a14610896578063f30f81c4146108b2578063f5298aca146108e2578063f62d1888146108fe578063fe4ba8c11461091a5761029f565b8063bd85b03914610790578063ca16487b146107c0578063d5391393146107f0578063d547741f1461080e578063d91a1d7f1461082a578063df4b5aeb146108485761029f565b806391d148541161012057806391d14854146106ba578063a2011b3f146106ea578063a217fddf14610708578063a22cb46514610726578063b73eeaf614610742578063b7569fd5146107605761029f565b80636b20c454146105e65780636ca8fede1461060257806377041f1814610632578063792f96cf1461064e5780638a6ad02e1461066c5780639177595e1461069c5761029f565b80632e81aaea1161020b578063492e17fe116101c4578063492e17fe146104fc5780634e1273f41461052c5780634f558e791461055c578063528575fd1461058c578063565554ff146105aa57806365a9bf89146105c85761029f565b80632e81aaea146104505780632eb2c2d61461046c5780632f2ff15d1461048857806336568abe146104a4578063387570ca146104c057806345ada2ab146104de5761029f565b8063156e29f61161025d578063156e29f61461038c5780632147e111146103a8578063248a9ca3146103c657806327efa6ea146103f65780632b2a43c0146104145780632d1e97f8146104325761029f565b8062fdd58e146102a4578063010a2ae1146102d457806301ffc9a7146102f257806302fe5305146103225780630e5bda981461033e5780630e89341c1461035c575b600080fd5b6102be60048036038101906102b991906138dd565b610938565b6040516102cb919061392c565b60405180910390f35b6102dc610a01565b6040516102e9919061392c565b60405180910390f35b61030c6004803603810190610307919061399f565b610a07565b60405161031991906139e7565b60405180910390f35b61033c60048036038101906103379190613b48565b610a19565b005b610346610a78565b604051610353919061392c565b60405180910390f35b61037660048036038101906103719190613b91565b610a8e565b6040516103839190613c46565b60405180910390f35b6103a660048036038101906103a19190613c68565b610b22565b005b6103b0610c81565b6040516103bd919061392c565b60405180910390f35b6103e060048036038101906103db9190613cf1565b610c86565b6040516103ed9190613d2d565b60405180910390f35b6103fe610ca6565b60405161040b919061392c565b60405180910390f35b61041c610cab565b604051610429919061392c565b60405180910390f35b61043a610cb1565b604051610447919061392c565b60405180910390f35b61046a60048036038101906104659190613c68565b610cb7565b005b61048660048036038101906104819190613eb1565b610f82565b005b6104a2600480360381019061049d9190613f80565b611023565b005b6104be60048036038101906104b99190613f80565b61104c565b005b6104c86110cf565b6040516104d5919061392c565b60405180910390f35b6104e66110d5565b6040516104f3919061392c565b60405180910390f35b61051660048036038101906105119190613fc0565b6110db565b60405161052391906139e7565b60405180910390f35b610546600480360381019061054191906140c3565b6110f0565b60405161055391906141f9565b60405180910390f35b61057660048036038101906105719190613b91565b611209565b60405161058391906139e7565b60405180910390f35b61059461121d565b6040516105a1919061392c565b60405180910390f35b6105b2611223565b6040516105bf919061392c565b60405180910390f35b6105d0611229565b6040516105dd919061392c565b60405180910390f35b61060060048036038101906105fb919061421b565b61122f565b005b61061c60048036038101906106179190613b91565b6112cc565b604051610629919061392c565b60405180910390f35b61064c600480360381019061064791906143a1565b6112e0565b005b61065661143d565b604051610663919061392c565b60405180910390f35b61068660048036038101906106819190613b91565b611453565b604051610693919061392c565b60405180910390f35b6106a4611471565b6040516106b1919061392c565b60405180910390f35b6106d460048036038101906106cf9190613f80565b611487565b6040516106e191906139e7565b60405180910390f35b6106f26114f2565b6040516106ff9190613d2d565b60405180910390f35b610710611516565b60405161071d9190613d2d565b60405180910390f35b610740600480360381019061073b919061440e565b61151d565b005b61074a611533565b604051610757919061392c565b60405180910390f35b61077a60048036038101906107759190613b91565b611538565b60405161078791906139e7565b60405180910390f35b6107aa60048036038101906107a59190613b91565b611570565b6040516107b7919061392c565b60405180910390f35b6107da60048036038101906107d59190613b91565b61158d565b6040516107e7919061451a565b60405180910390f35b6107f861168b565b6040516108059190613d2d565b60405180910390f35b61082860048036038101906108239190613f80565b6116af565b005b6108326116d8565b60405161083f919061392c565b60405180910390f35b6108506116de565b60405161085d919061392c565b60405180910390f35b610880600480360381019061087b9190614536565b6116f4565b60405161088d91906139e7565b60405180910390f35b6108b060048036038101906108ab9190614576565b611788565b005b6108cc60048036038101906108c79190613b91565b611829565b6040516108d991906139e7565b60405180910390f35b6108fc60048036038101906108f79190613c68565b611864565b005b61091860048036038101906109139190613b48565b611901565b005b610922611a65565b60405161092f919061392c565b60405180910390f35b60008073ffffffffffffffffffffffffffffffffffffffff168373ffffffffffffffffffffffffffffffffffffffff16036109a8576040517f08c379a000000000000000000000000000000000000000000000000000000000815260040161099f9061467f565b60405180910390fd5b6065600083815260200190815260200160002060008473ffffffffffffffffffffffffffffffffffffffff1673ffffffffffffffffffffffffffffffffffffffff16815260200190815260200160002054905092915050565b61030181565b6000610a1282611a7b565b9050919050565b610a2d6000801b610a28611af5565b611487565b610a6c576040517f08c379a0000000000000000000000000000000000000000000000000000000008152600401610a63906146eb565b60405180910390fd5b610a7581611afd565b50565b60036010610500901b610a8b919061473a565b81565b606060678054610a9d906147bf565b80601f0160208091040260200160405190810160405280929190818152602001828054610ac9906147bf565b8015610b165780601f10610aeb57610100808354040283529160200191610b16565b820191906000526020600020905b815481529060010190602001808311610af957829003601f168201915b50505050509050919050565b610b537f9f2df0fed2c77648de5860a4cc508cd0818c85b8b8a1ab4ceeef8d981c8956a6610b4e611af5565b611487565b610b92576040517f08c379a0000000000000000000000000000000000000000000000000000000008152600401610b8990614862565b60405180910390fd5b610b9e826105006110db565b610c2f5760018114610be5576040517f08c379a0000000000000000000000000000000000000000000000000000000008152600401610bdc906148ce565b60405180910390fd5b610bee82611209565b15610c2e576040517f08c379a0000000000000000000000000000000000000000000000000000000008152600401610c25906148ce565b60405180910390fd5b5b610c4a83838360405180602001604052806000815250611b17565b61012d6000610c58846112cc565b81526020019081526020016000206000815480929190610c77906148ee565b9190505550505050565b600081565b600060976000838152602001908152602001600020600101549050919050565b600181565b61020081565b61010081565b610ce87f9f2df0fed2c77648de5860a4cc508cd0818c85b8b8a1ab4ceeef8d981c8956a6610ce3611af5565b611487565b610d27576040517f08c379a0000000000000000000000000000000000000000000000000000000008152600401610d1e90614982565b60405180910390fd5b6105008203610d6b576040517f08c379a0000000000000000000000000000000000000000000000000000000008152600401610d62906149ee565b60405180910390fd5b60008111610dae576040517f08c379a0000000000000000000000000000000000000000000000000000000008152600401610da590614a5a565b60405180910390fd5b60008167ffffffffffffffff811115610dca57610dc9613a1d565b5b604051908082528060200260200182016040528015610df85781602001602082028036833780820191505090505b509050600080601085901b90505b83821015610ea657610e1881866110db565b610e57576040517f08c379a0000000000000000000000000000000000000000000000000000000008152600401610e4e90614ac6565b60405180910390fd5b610e6081611209565b610e935780838381518110610e7857610e77614ae6565b5b6020026020010181815250508180610e8f906148ee565b9250505b8080610e9e906148ee565b915050610e06565b60008467ffffffffffffffff811115610ec257610ec1613a1d565b5b604051908082528060200260200182016040528015610ef05781602001602082028036833780820191505090505b50905060005b85811015610f32576001828281518110610f1357610f12614ae6565b5b6020026020010181815250508080610f2a906148ee565b915050610ef6565b50610f4e87858360405180602001604052806000815250611cad565b8461012d60008881526020019081526020016000206000828254610f72919061473a565b9250508190555050505050505050565b610f8a611af5565b73ffffffffffffffffffffffffffffffffffffffff168573ffffffffffffffffffffffffffffffffffffffff161480610fd05750610fcf85610fca611af5565b6116f4565b5b61100f576040517f08c379a000000000000000000000000000000000000000000000000000000000815260040161100690614b87565b60405180910390fd5b61101c8585858585611ecb565b5050505050565b61102c82610c86565b61103d81611038611af5565b6121e1565b611047838361227e565b505050565b611054611af5565b73ffffffffffffffffffffffffffffffffffffffff168173ffffffffffffffffffffffffffffffffffffffff16146110c1576040517f08c379a00000000000000000000000000000000000000000000000000000000081526004016110b890614c19565b60405180910390fd5b6110cb828261235f565b5050565b61030281565b61030081565b6000816110e7846112cc565b14905092915050565b60608151835114611136576040517f08c379a000000000000000000000000000000000000000000000000000000000815260040161112d90614cab565b60405180910390fd5b6000835167ffffffffffffffff81111561115357611152613a1d565b5b6040519080825280602002602001820160405280156111815781602001602082028036833780820191505090505b50905060005b84518110156111fe576111ce8582815181106111a6576111a5614ae6565b5b60200260200101518583815181106111c1576111c0614ae6565b5b6020026020010151610938565b8282815181106111e1576111e0614ae6565b5b602002602001018181525050806111f7906148ee565b9050611187565b508091505092915050565b60008061121583611570565b119050919050565b61040281565b61050081565b61040081565b611237611af5565b73ffffffffffffffffffffffffffffffffffffffff168373ffffffffffffffffffffffffffffffffffffffff16148061127d575061127c83611277611af5565b6116f4565b5b6112bc576040517f08c379a00000000000000000000000000000000000000000000000000000000081526004016112b390614d3d565b60405180910390fd5b6112c7838383612441565b505050565b600060108263ffff000016901c9050919050565b6112e982611538565b806112fc57506112fb826102006110db565b5b8061130c575061130b82611829565b5b61134b576040517f08c379a000000000000000000000000000000000000000000000000000000000815260040161134290614dcf565b60405180910390fd5b61137c7f61c92169ef077349011ff0b1383c894d86c5f0b41d986366b58a6cf31e93beda611377611af5565b611487565b6113bb576040517f08c379a00000000000000000000000000000000000000000000000000000000081526004016113b290614e3b565b60405180910390fd5b8061012e6000848152602001908152602001600020600082015181600001556020820151816001015560408201518160020155606082015181600301556080820151816004015560a0820151816005015560c0820151816006015560e08201518160070155610100820151816008015561012082015181600901559050505050565b60006010610500901b611450919061473a565b81565b600061012d6000838152602001908152602001600020549050919050565b60046010610500901b611484919061473a565b81565b60006097600084815260200190815260200160002060000160008373ffffffffffffffffffffffffffffffffffffffff1673ffffffffffffffffffffffffffffffffffffffff16815260200190815260200160002060009054906101000a900460ff16905092915050565b7f61c92169ef077349011ff0b1383c894d86c5f0b41d986366b58a6cf31e93beda81565b6000801b81565b61152f611528611af5565b83836126f3565b5050565b600281565b60006115458260006110db565b8061155757506115568260016110db565b5b8061156957506115688260026110db565b5b9050919050565b600060fb6000838152602001908152602001600020549050919050565b61159561373f565b61159e82611538565b806115b157506115b0826102006110db565b5b806115c157506115c082611829565b5b611600576040517f08c379a00000000000000000000000000000000000000000000000000000000081526004016115f790614dcf565b60405180910390fd5b61012e6000838152602001908152602001600020604051806101400160405290816000820154815260200160018201548152602001600282015481526020016003820154815260200160048201548152602001600582015481526020016006820154815260200160078201548152602001600882015481526020016009820154815250509050919050565b7f9f2df0fed2c77648de5860a4cc508cd0818c85b8b8a1ab4ceeef8d981c8956a681565b6116b882610c86565b6116c9816116c4611af5565b6121e1565b6116d3838361235f565b505050565b61040181565b60026010610500901b6116f1919061473a565b81565b6000606660008473ffffffffffffffffffffffffffffffffffffffff1673ffffffffffffffffffffffffffffffffffffffff16815260200190815260200160002060008373ffffffffffffffffffffffffffffffffffffffff1673ffffffffffffffffffffffffffffffffffffffff16815260200190815260200160002060009054906101000a900460ff16905092915050565b611790611af5565b73ffffffffffffffffffffffffffffffffffffffff168573ffffffffffffffffffffffffffffffffffffffff1614806117d657506117d5856117d0611af5565b6116f4565b5b611815576040517f08c379a000000000000000000000000000000000000000000000000000000000815260040161180c90614d3d565b60405180910390fd5b611822858585858561285f565b5050505050565b6000611837826104006110db565b8061184a5750611849826104016110db565b5b8061185d575061185c826104026110db565b5b9050919050565b61186c611af5565b73ffffffffffffffffffffffffffffffffffffffff168373ffffffffffffffffffffffffffffffffffffffff1614806118b257506118b1836118ac611af5565b6116f4565b5b6118f1576040517f08c379a00000000000000000000000000000000000000000000000000000000081526004016118e890614d3d565b60405180910390fd5b6118fc838383612ae3565b505050565b600060019054906101000a900460ff166119295760008054906101000a900460ff1615611932565b611931612d01565b5b611971576040517f08c379a000000000000000000000000000000000000000000000000000000000815260040161196890614ecd565b60405180910390fd5b60008060019054906101000a900460ff1615905080156119c1576001600060016101000a81548160ff02191690831515021790555060016000806101000a81548160ff0219169083151502179055505b6119ca82612d12565b6119de6000801b6119d9611af5565b612d6d565b611a0f7f9f2df0fed2c77648de5860a4cc508cd0818c85b8b8a1ab4ceeef8d981c8956a6611a0a611af5565b612d6d565b611a407f61c92169ef077349011ff0b1383c894d86c5f0b41d986366b58a6cf31e93beda611a3b611af5565b612d6d565b8015611a615760008060016101000a81548160ff0219169083151502179055505b5050565b60016010610500901b611a78919061473a565b81565b60007f7965db0b000000000000000000000000000000000000000000000000000000007bffffffffffffffffffffffffffffffffffffffffffffffffffffffff1916827bffffffffffffffffffffffffffffffffffffffffffffffffffffffff19161480611aee5750611aed82612d7b565b5b9050919050565b600033905090565b8060679080519060200190611b13929190613792565b5050565b600073ffffffffffffffffffffffffffffffffffffffff168473ffffffffffffffffffffffffffffffffffffffff1603611b86576040517f08c379a0000000000000000000000000000000000000000000000000000000008152600401611b7d90614f5f565b60405180910390fd5b6000611b90611af5565b9050611bb181600087611ba288612e5d565b611bab88612e5d565b87612ed7565b826065600086815260200190815260200160002060008773ffffffffffffffffffffffffffffffffffffffff1673ffffffffffffffffffffffffffffffffffffffff1681526020019081526020016000206000828254611c11919061473a565b925050819055508473ffffffffffffffffffffffffffffffffffffffff16600073ffffffffffffffffffffffffffffffffffffffff168273ffffffffffffffffffffffffffffffffffffffff167fc3d58168c5ae7397731d063d5bbf3d657854427343f4c083240f7aacaa2d0f628787604051611c8f929190614f7f565b60405180910390a4611ca681600087878787612eed565b5050505050565b600073ffffffffffffffffffffffffffffffffffffffff168473ffffffffffffffffffffffffffffffffffffffff1603611d1c576040517f08c379a0000000000000000000000000000000000000000000000000000000008152600401611d1390614f5f565b60405180910390fd5b8151835114611d60576040517f08c379a0000000000000000000000000000000000000000000000000000000008152600401611d579061501a565b60405180910390fd5b6000611d6a611af5565b9050611d7b81600087878787612ed7565b60005b8451811015611e3557838181518110611d9a57611d99614ae6565b5b602002602001015160656000878481518110611db957611db8614ae6565b5b6020026020010151815260200190815260200160002060008873ffffffffffffffffffffffffffffffffffffffff1673ffffffffffffffffffffffffffffffffffffffff1681526020019081526020016000206000828254611e1b919061473a565b925050819055508080611e2d906148ee565b915050611d7e565b508473ffffffffffffffffffffffffffffffffffffffff16600073ffffffffffffffffffffffffffffffffffffffff168273ffffffffffffffffffffffffffffffffffffffff167f4a39dc06d4c0dbc64b70af90fd698a233a518aa5d07e595d983b8c0526c8f7fb8787604051611ead92919061503a565b60405180910390a4611ec4816000878787876130c4565b5050505050565b8151835114611f0f576040517f08c379a0000000000000000000000000000000000000000000000000000000008152600401611f069061501a565b60405180910390fd5b600073ffffffffffffffffffffffffffffffffffffffff168473ffffffffffffffffffffffffffffffffffffffff1603611f7e576040517f08c379a0000000000000000000000000000000000000000000000000000000008152600401611f75906150e3565b60405180910390fd5b6000611f88611af5565b9050611f98818787878787612ed7565b60005b845181101561214c576000858281518110611fb957611fb8614ae6565b5b602002602001015190506000858381518110611fd857611fd7614ae6565b5b6020026020010151905060006065600084815260200190815260200160002060008b73ffffffffffffffffffffffffffffffffffffffff1673ffffffffffffffffffffffffffffffffffffffff1681526020019081526020016000205490508181101561207a576040517f08c379a000000000000000000000000000000000000000000000000000000000815260040161207190615175565b60405180910390fd5b8181036065600085815260200190815260200160002060008c73ffffffffffffffffffffffffffffffffffffffff1673ffffffffffffffffffffffffffffffffffffffff16815260200190815260200160002081905550816065600085815260200190815260200160002060008b73ffffffffffffffffffffffffffffffffffffffff1673ffffffffffffffffffffffffffffffffffffffff1681526020019081526020016000206000828254612131919061473a565b9250508190555050505080612145906148ee565b9050611f9b565b508473ffffffffffffffffffffffffffffffffffffffff168673ffffffffffffffffffffffffffffffffffffffff168273ffffffffffffffffffffffffffffffffffffffff167f4a39dc06d4c0dbc64b70af90fd698a233a518aa5d07e595d983b8c0526c8f7fb87876040516121c392919061503a565b60405180910390a46121d98187878787876130c4565b505050505050565b6121eb8282611487565b61227a576122108173ffffffffffffffffffffffffffffffffffffffff16601461329b565b61221e8360001c602061329b565b60405160200161222f929190615269565b6040516020818303038152906040526040517f08c379a00000000000000000000000000000000000000000000000000000000081526004016122719190613c46565b60405180910390fd5b5050565b6122888282611487565b61235b5760016097600084815260200190815260200160002060000160008373ffffffffffffffffffffffffffffffffffffffff1673ffffffffffffffffffffffffffffffffffffffff16815260200190815260200160002060006101000a81548160ff021916908315150217905550612300611af5565b73ffffffffffffffffffffffffffffffffffffffff168173ffffffffffffffffffffffffffffffffffffffff16837f2f8788117e7eff1d82e926ec794901d17c78024a50270940304540a733656f0d60405160405180910390a45b5050565b6123698282611487565b1561243d5760006097600084815260200190815260200160002060000160008373ffffffffffffffffffffffffffffffffffffffff1673ffffffffffffffffffffffffffffffffffffffff16815260200190815260200160002060006101000a81548160ff0219169083151502179055506123e2611af5565b73ffffffffffffffffffffffffffffffffffffffff168173ffffffffffffffffffffffffffffffffffffffff16837ff6391f5c32d9c69d2a47ea670b442974b53935d1edc7fd64eb21e047a839171b60405160405180910390a45b5050565b600073ffffffffffffffffffffffffffffffffffffffff168373ffffffffffffffffffffffffffffffffffffffff16036124b0576040517f08c379a00000000000000000000000000000000000000000000000000000000081526004016124a790615315565b60405180910390fd5b80518251146124f4576040517f08c379a00000000000000000000000000000000000000000000000000000000081526004016124eb9061501a565b60405180910390fd5b60006124fe611af5565b905061251e81856000868660405180602001604052806000815250612ed7565b60005b835181101561266d57600084828151811061253f5761253e614ae6565b5b60200260200101519050600084838151811061255e5761255d614ae6565b5b6020026020010151905060006065600084815260200190815260200160002060008973ffffffffffffffffffffffffffffffffffffffff1673ffffffffffffffffffffffffffffffffffffffff16815260200190815260200160002054905081811015612600576040517f08c379a00000000000000000000000000000000000000000000000000000000081526004016125f7906153a7565b60405180910390fd5b8181036065600085815260200190815260200160002060008a73ffffffffffffffffffffffffffffffffffffffff1673ffffffffffffffffffffffffffffffffffffffff168152602001908152602001600020819055505050508080612665906148ee565b915050612521565b50600073ffffffffffffffffffffffffffffffffffffffff168473ffffffffffffffffffffffffffffffffffffffff168273ffffffffffffffffffffffffffffffffffffffff167f4a39dc06d4c0dbc64b70af90fd698a233a518aa5d07e595d983b8c0526c8f7fb86866040516126e592919061503a565b60405180910390a450505050565b8173ffffffffffffffffffffffffffffffffffffffff168373ffffffffffffffffffffffffffffffffffffffff1603612761576040517f08c379a000000000000000000000000000000000000000000000000000000000815260040161275890615439565b60405180910390fd5b80606660008573ffffffffffffffffffffffffffffffffffffffff1673ffffffffffffffffffffffffffffffffffffffff16815260200190815260200160002060008473ffffffffffffffffffffffffffffffffffffffff1673ffffffffffffffffffffffffffffffffffffffff16815260200190815260200160002060006101000a81548160ff0219169083151502179055508173ffffffffffffffffffffffffffffffffffffffff168373ffffffffffffffffffffffffffffffffffffffff167f17307eab39ab6107e8899845ad3d59bd9653f200f220920489ca2b5937696c318360405161285291906139e7565b60405180910390a3505050565b600073ffffffffffffffffffffffffffffffffffffffff168473ffffffffffffffffffffffffffffffffffffffff16036128ce576040517f08c379a00000000000000000000000000000000000000000000000000000000081526004016128c5906150e3565b60405180910390fd5b60006128d8611af5565b90506128f88187876128e988612e5d565b6128f288612e5d565b87612ed7565b60006065600086815260200190815260200160002060008873ffffffffffffffffffffffffffffffffffffffff1673ffffffffffffffffffffffffffffffffffffffff16815260200190815260200160002054905083811015612990576040517f08c379a000000000000000000000000000000000000000000000000000000000815260040161298790615175565b60405180910390fd5b8381036065600087815260200190815260200160002060008973ffffffffffffffffffffffffffffffffffffffff1673ffffffffffffffffffffffffffffffffffffffff16815260200190815260200160002081905550836065600087815260200190815260200160002060008873ffffffffffffffffffffffffffffffffffffffff1673ffffffffffffffffffffffffffffffffffffffff1681526020019081526020016000206000828254612a47919061473a565b925050819055508573ffffffffffffffffffffffffffffffffffffffff168773ffffffffffffffffffffffffffffffffffffffff168373ffffffffffffffffffffffffffffffffffffffff167fc3d58168c5ae7397731d063d5bbf3d657854427343f4c083240f7aacaa2d0f628888604051612ac4929190614f7f565b60405180910390a4612ada828888888888612eed565b50505050505050565b600073ffffffffffffffffffffffffffffffffffffffff168373ffffffffffffffffffffffffffffffffffffffff1603612b52576040517f08c379a0000000000000000000000000000000000000000000000000000000008152600401612b4990615315565b60405180910390fd5b6000612b5c611af5565b9050612b8c81856000612b6e87612e5d565b612b7787612e5d565b60405180602001604052806000815250612ed7565b60006065600085815260200190815260200160002060008673ffffffffffffffffffffffffffffffffffffffff1673ffffffffffffffffffffffffffffffffffffffff16815260200190815260200160002054905082811015612c24576040517f08c379a0000000000000000000000000000000000000000000000000000000008152600401612c1b906153a7565b60405180910390fd5b8281036065600086815260200190815260200160002060008773ffffffffffffffffffffffffffffffffffffffff1673ffffffffffffffffffffffffffffffffffffffff16815260200190815260200160002081905550600073ffffffffffffffffffffffffffffffffffffffff168573ffffffffffffffffffffffffffffffffffffffff168373ffffffffffffffffffffffffffffffffffffffff167fc3d58168c5ae7397731d063d5bbf3d657854427343f4c083240f7aacaa2d0f628787604051612cf2929190614f7f565b60405180910390a45050505050565b6000612d0c306134d7565b15905090565b600060019054906101000a900460ff16612d61576040517f08c379a0000000000000000000000000000000000000000000000000000000008152600401612d58906154cb565b60405180910390fd5b612d6a816134fa565b50565b612d77828261227e565b5050565b60007fd9b67a26000000000000000000000000000000000000000000000000000000007bffffffffffffffffffffffffffffffffffffffffffffffffffffffff1916827bffffffffffffffffffffffffffffffffffffffffffffffffffffffff19161480612e4657507f0e89341c000000000000000000000000000000000000000000000000000000007bffffffffffffffffffffffffffffffffffffffffffffffffffffffff1916827bffffffffffffffffffffffffffffffffffffffffffffffffffffffff1916145b80612e565750612e5582613555565b5b9050919050565b60606000600167ffffffffffffffff811115612e7c57612e7b613a1d565b5b604051908082528060200260200182016040528015612eaa5781602001602082028036833780820191505090505b5090508281600081518110612ec257612ec1614ae6565b5b60200260200101818152505080915050919050565b612ee58686868686866135bf565b505050505050565b612f0c8473ffffffffffffffffffffffffffffffffffffffff166134d7565b156130bc578373ffffffffffffffffffffffffffffffffffffffff1663f23a6e6187878686866040518663ffffffff1660e01b8152600401612f5295949392919061554f565b6020604051808303816000875af1925050508015612f8e57506040513d601f19601f82011682018060405250810190612f8b91906155be565b60015b61303357612f9a6155f8565b806308c379a003612ff65750612fae61561a565b80612fb95750612ff8565b806040517f08c379a0000000000000000000000000000000000000000000000000000000008152600401612fed9190613c46565b60405180910390fd5b505b6040517f08c379a000000000000000000000000000000000000000000000000000000000815260040161302a9061571c565b60405180910390fd5b63f23a6e6160e01b7bffffffffffffffffffffffffffffffffffffffffffffffffffffffff1916817bffffffffffffffffffffffffffffffffffffffffffffffffffffffff1916146130ba576040517f08c379a00000000000000000000000000000000000000000000000000000000081526004016130b1906157ae565b60405180910390fd5b505b505050505050565b6130e38473ffffffffffffffffffffffffffffffffffffffff166134d7565b15613293578373ffffffffffffffffffffffffffffffffffffffff1663bc197c8187878686866040518663ffffffff1660e01b81526004016131299594939291906157ce565b6020604051808303816000875af192505050801561316557506040513d601f19601f8201168201806040525081019061316291906155be565b60015b61320a576131716155f8565b806308c379a0036131cd575061318561561a565b8061319057506131cf565b806040517f08c379a00000000000000000000000000000000000000000000000000000000081526004016131c49190613c46565b60405180910390fd5b505b6040517f08c379a00000000000000000000000000000000000000000000000000000000081526004016132019061571c565b60405180910390fd5b63bc197c8160e01b7bffffffffffffffffffffffffffffffffffffffffffffffffffffffff1916817bffffffffffffffffffffffffffffffffffffffffffffffffffffffff191614613291576040517f08c379a0000000000000000000000000000000000000000000000000000000008152600401613288906157ae565b60405180910390fd5b505b505050505050565b6060600060028360026132ae9190615836565b6132b8919061473a565b67ffffffffffffffff8111156132d1576132d0613a1d565b5b6040519080825280601f01601f1916602001820160405280156133035781602001600182028036833780820191505090505b5090507f30000000000000000000000000000000000000000000000000000000000000008160008151811061333b5761333a614ae6565b5b60200101907effffffffffffffffffffffffffffffffffffffffffffffffffffffffffffff1916908160001a9053507f78000000000000000000000000000000000000000000000000000000000000008160018151811061339f5761339e614ae6565b5b60200101907effffffffffffffffffffffffffffffffffffffffffffffffffffffffffffff1916908160001a905350600060018460026133df9190615836565b6133e9919061473a565b90505b6001811115613489577f3031323334353637383961626364656600000000000000000000000000000000600f86166010811061342b5761342a614ae6565b5b1a60f81b82828151811061344257613441614ae6565b5b60200101907effffffffffffffffffffffffffffffffffffffffffffffffffffffffffffff1916908160001a905350600485901c94508061348290615890565b90506133ec565b50600084146134cd576040517f08c379a00000000000000000000000000000000000000000000000000000000081526004016134c490615905565b60405180910390fd5b8091505092915050565b6000808273ffffffffffffffffffffffffffffffffffffffff163b119050919050565b600060019054906101000a900460ff16613549576040517f08c379a0000000000000000000000000000000000000000000000000000000008152600401613540906154cb565b60405180910390fd5b61355281611afd565b50565b60007f01ffc9a7000000000000000000000000000000000000000000000000000000007bffffffffffffffffffffffffffffffffffffffffffffffffffffffff1916827bffffffffffffffffffffffffffffffffffffffffffffffffffffffff1916149050919050565b6135cd868686868686613737565b600073ffffffffffffffffffffffffffffffffffffffff168573ffffffffffffffffffffffffffffffffffffffff160361367e5760005b835181101561367c578281815181106136205761361f614ae6565b5b602002602001015160fb600086848151811061363f5761363e614ae6565b5b602002602001015181526020019081526020016000206000828254613664919061473a565b9250508190555080613675906148ee565b9050613604565b505b600073ffffffffffffffffffffffffffffffffffffffff168473ffffffffffffffffffffffffffffffffffffffff160361372f5760005b835181101561372d578281815181106136d1576136d0614ae6565b5b602002602001015160fb60008684815181106136f0576136ef614ae6565b5b6020026020010151815260200190815260200160002060008282546137159190615925565b9250508190555080613726906148ee565b90506136b5565b505b505050505050565b505050505050565b604051806101400160405280600081526020016000815260200160008152602001600081526020016000815260200160008152602001600081526020016000815260200160008152602001600081525090565b82805461379e906147bf565b90600052602060002090601f0160209004810192826137c05760008555613807565b82601f106137d957805160ff1916838001178555613807565b82800160010185558215613807579182015b828111156138065782518255916020019190600101906137eb565b5b5090506138149190613818565b5090565b5b80821115613831576000816000905550600101613819565b5090565b6000604051905090565b600080fd5b600080fd5b600073ffffffffffffffffffffffffffffffffffffffff82169050919050565b600061387482613849565b9050919050565b61388481613869565b811461388f57600080fd5b50565b6000813590506138a18161387b565b92915050565b6000819050919050565b6138ba816138a7565b81146138c557600080fd5b50565b6000813590506138d7816138b1565b92915050565b600080604083850312156138f4576138f361383f565b5b600061390285828601613892565b9250506020613913858286016138c8565b9150509250929050565b613926816138a7565b82525050565b6000602082019050613941600083018461391d565b92915050565b60007fffffffff0000000000000000000000000000000000000000000000000000000082169050919050565b61397c81613947565b811461398757600080fd5b50565b60008135905061399981613973565b92915050565b6000602082840312156139b5576139b461383f565b5b60006139c38482850161398a565b91505092915050565b60008115159050919050565b6139e1816139cc565b82525050565b60006020820190506139fc60008301846139d8565b92915050565b600080fd5b600080fd5b6000601f19601f8301169050919050565b7f4e487b7100000000000000000000000000000000000000000000000000000000600052604160045260246000fd5b613a5582613a0c565b810181811067ffffffffffffffff82111715613a7457613a73613a1d565b5b80604052505050565b6000613a87613835565b9050613a938282613a4c565b919050565b600067ffffffffffffffff821115613ab357613ab2613a1d565b5b613abc82613a0c565b9050602081019050919050565b82818337600083830152505050565b6000613aeb613ae684613a98565b613a7d565b905082815260208101848484011115613b0757613b06613a07565b5b613b12848285613ac9565b509392505050565b600082601f830112613b2f57613b2e613a02565b5b8135613b3f848260208601613ad8565b91505092915050565b600060208284031215613b5e57613b5d61383f565b5b600082013567ffffffffffffffff811115613b7c57613b7b613844565b5b613b8884828501613b1a565b91505092915050565b600060208284031215613ba757613ba661383f565b5b6000613bb5848285016138c8565b91505092915050565b600081519050919050565b600082825260208201905092915050565b60005b83811015613bf8578082015181840152602081019050613bdd565b83811115613c07576000848401525b50505050565b6000613c1882613bbe565b613c228185613bc9565b9350613c32818560208601613bda565b613c3b81613a0c565b840191505092915050565b60006020820190508181036000830152613c608184613c0d565b905092915050565b600080600060608486031215613c8157613c8061383f565b5b6000613c8f86828701613892565b9350506020613ca0868287016138c8565b9250506040613cb1868287016138c8565b9150509250925092565b6000819050919050565b613cce81613cbb565b8114613cd957600080fd5b50565b600081359050613ceb81613cc5565b92915050565b600060208284031215613d0757613d0661383f565b5b6000613d1584828501613cdc565b91505092915050565b613d2781613cbb565b82525050565b6000602082019050613d426000830184613d1e565b92915050565b600067ffffffffffffffff821115613d6357613d62613a1d565b5b602082029050602081019050919050565b600080fd5b6000613d8c613d8784613d48565b613a7d565b90508083825260208201905060208402830185811115613daf57613dae613d74565b5b835b81811015613dd85780613dc488826138c8565b845260208401935050602081019050613db1565b5050509392505050565b600082601f830112613df757613df6613a02565b5b8135613e07848260208601613d79565b91505092915050565b600067ffffffffffffffff821115613e2b57613e2a613a1d565b5b613e3482613a0c565b9050602081019050919050565b6000613e54613e4f84613e10565b613a7d565b905082815260208101848484011115613e7057613e6f613a07565b5b613e7b848285613ac9565b509392505050565b600082601f830112613e9857613e97613a02565b5b8135613ea8848260208601613e41565b91505092915050565b600080600080600060a08688031215613ecd57613ecc61383f565b5b6000613edb88828901613892565b9550506020613eec88828901613892565b945050604086013567ffffffffffffffff811115613f0d57613f0c613844565b5b613f1988828901613de2565b935050606086013567ffffffffffffffff811115613f3a57613f39613844565b5b613f4688828901613de2565b925050608086013567ffffffffffffffff811115613f6757613f66613844565b5b613f7388828901613e83565b9150509295509295909350565b60008060408385031215613f9757613f9661383f565b5b6000613fa585828601613cdc565b9250506020613fb685828601613892565b9150509250929050565b60008060408385031215613fd757613fd661383f565b5b6000613fe5858286016138c8565b9250506020613ff6858286016138c8565b9150509250929050565b600067ffffffffffffffff82111561401b5761401a613a1d565b5b602082029050602081019050919050565b600061403f61403a84614000565b613a7d565b9050808382526020820190506020840283018581111561406257614061613d74565b5b835b8181101561408b57806140778882613892565b845260208401935050602081019050614064565b5050509392505050565b600082601f8301126140aa576140a9613a02565b5b81356140ba84826020860161402c565b91505092915050565b600080604083850312156140da576140d961383f565b5b600083013567ffffffffffffffff8111156140f8576140f7613844565b5b61410485828601614095565b925050602083013567ffffffffffffffff81111561412557614124613844565b5b61413185828601613de2565b9150509250929050565b600081519050919050565b600082825260208201905092915050565b6000819050602082019050919050565b614170816138a7565b82525050565b60006141828383614167565b60208301905092915050565b6000602082019050919050565b60006141a68261413b565b6141b08185614146565b93506141bb83614157565b8060005b838110156141ec5781516141d38882614176565b97506141de8361418e565b9250506001810190506141bf565b5085935050505092915050565b60006020820190508181036000830152614213818461419b565b905092915050565b6000806000606084860312156142345761423361383f565b5b600061424286828701613892565b935050602084013567ffffffffffffffff81111561426357614262613844565b5b61426f86828701613de2565b925050604084013567ffffffffffffffff8111156142905761428f613844565b5b61429c86828701613de2565b9150509250925092565b600080fd5b600061014082840312156142c2576142c16142a6565b5b6142cd610140613a7d565b905060006142dd848285016138c8565b60008301525060206142f1848285016138c8565b6020830152506040614305848285016138c8565b6040830152506060614319848285016138c8565b606083015250608061432d848285016138c8565b60808301525060a0614341848285016138c8565b60a08301525060c0614355848285016138c8565b60c08301525060e0614369848285016138c8565b60e08301525061010061437e848285016138c8565b61010083015250610120614394848285016138c8565b6101208301525092915050565b60008061016083850312156143b9576143b861383f565b5b60006143c7858286016138c8565b92505060206143d8858286016142ab565b9150509250929050565b6143eb816139cc565b81146143f657600080fd5b50565b600081359050614408816143e2565b92915050565b600080604083850312156144255761442461383f565b5b600061443385828601613892565b9250506020614444858286016143f9565b9150509250929050565b610140820160008201516144656000850182614167565b5060208201516144786020850182614167565b50604082015161448b6040850182614167565b50606082015161449e6060850182614167565b5060808201516144b16080850182614167565b5060a08201516144c460a0850182614167565b5060c08201516144d760c0850182614167565b5060e08201516144ea60e0850182614167565b506101008201516144ff610100850182614167565b50610120820151614514610120850182614167565b50505050565b600061014082019050614530600083018461444e565b92915050565b6000806040838503121561454d5761454c61383f565b5b600061455b85828601613892565b925050602061456c85828601613892565b9150509250929050565b600080600080600060a086880312156145925761459161383f565b5b60006145a088828901613892565b95505060206145b188828901613892565b94505060406145c2888289016138c8565b93505060606145d3888289016138c8565b925050608086013567ffffffffffffffff8111156145f4576145f3613844565b5b61460088828901613e83565b9150509295509295909350565b7f455243313135353a2062616c616e636520717565727920666f7220746865207a60008201527f65726f2061646472657373000000000000000000000000000000000000000000602082015250565b6000614669602b83613bc9565b91506146748261460d565b604082019050919050565b600060208201905081810360008301526146988161465c565b9050919050565b7f6e6565642044454641554c545f41444d494e5f524f4c45000000000000000000600082015250565b60006146d5601783613bc9565b91506146e08261469f565b602082019050919050565b60006020820190508181036000830152614704816146c8565b9050919050565b7f4e487b7100000000000000000000000000000000000000000000000000000000600052601160045260246000fd5b6000614745826138a7565b9150614750836138a7565b9250827fffffffffffffffffffffffffffffffffffffffffffffffffffffffffffffffff038211156147855761478461470b565b5b828201905092915050565b7f4e487b7100000000000000000000000000000000000000000000000000000000600052602260045260246000fd5b600060028204905060018216806147d757607f821691505b6020821081036147ea576147e9614790565b5b50919050565b7f4d45544152554e434f4c4c454354494f4e3a206e656564204d494e5445525f5260008201527f4f4c450000000000000000000000000000000000000000000000000000000000602082015250565b600061484c602383613bc9565b9150614857826147f0565b604082019050919050565b6000602082019050818103600083015261487b8161483f565b9050919050565b7f43616e6e6f74206d696e74206d6f7265207468616e206f6e65206974656d0000600082015250565b60006148b8601e83613bc9565b91506148c382614882565b602082019050919050565b600060208201905081810360008301526148e7816148ab565b9050919050565b60006148f9826138a7565b91507fffffffffffffffffffffffffffffffffffffffffffffffffffffffffffffffff820361492b5761492a61470b565b5b600182019050919050565b7f4e4545445f4d494e5445525f524f4c4500000000000000000000000000000000600082015250565b600061496c601083613bc9565b915061497782614936565b602082019050919050565b6000602082019050818103600083015261499b8161495f565b9050919050565b7f554e5355495441424c455f4b494e440000000000000000000000000000000000600082015250565b60006149d8600f83613bc9565b91506149e3826149a2565b602082019050919050565b60006020820190508181036000830152614a07816149cb565b9050919050565b7f434f554e545f554e444552464c4f570000000000000000000000000000000000600082015250565b6000614a44600f83613bc9565b9150614a4f82614a0e565b602082019050919050565b60006020820190508181036000830152614a7381614a37565b9050919050565b7f4b494e445f4f564552464c4f5700000000000000000000000000000000000000600082015250565b6000614ab0600d83613bc9565b9150614abb82614a7a565b602082019050919050565b60006020820190508181036000830152614adf81614aa3565b9050919050565b7f4e487b7100000000000000000000000000000000000000000000000000000000600052603260045260246000fd5b7f455243313135353a207472616e736665722063616c6c6572206973206e6f742060008201527f6f776e6572206e6f7220617070726f7665640000000000000000000000000000602082015250565b6000614b71603283613bc9565b9150614b7c82614b15565b604082019050919050565b60006020820190508181036000830152614ba081614b64565b9050919050565b7f416363657373436f6e74726f6c3a2063616e206f6e6c792072656e6f756e636560008201527f20726f6c657320666f722073656c660000000000000000000000000000000000602082015250565b6000614c03602f83613bc9565b9150614c0e82614ba7565b604082019050919050565b60006020820190508181036000830152614c3281614bf6565b9050919050565b7f455243313135353a206163636f756e747320616e6420696473206c656e67746860008201527f206d69736d617463680000000000000000000000000000000000000000000000602082015250565b6000614c95602983613bc9565b9150614ca082614c39565b604082019050919050565b60006020820190508181036000830152614cc481614c88565b9050919050565b7f455243313135353a2063616c6c6572206973206e6f74206f776e6572206e6f7260008201527f20617070726f7665640000000000000000000000000000000000000000000000602082015250565b6000614d27602983613bc9565b9150614d3282614ccb565b604082019050919050565b60006020820190508181036000830152614d5681614d1a565b9050919050565b7f5065726b732061726520617661696c61626c65206f6e6c7920666f722063686160008201527f726163746572732c207065747320616e64207469636b65747300000000000000602082015250565b6000614db9603983613bc9565b9150614dc482614d5d565b604082019050919050565b60006020820190508181036000830152614de881614dac565b9050919050565b7f6e656564205345545445525f524f4c4500000000000000000000000000000000600082015250565b6000614e25601083613bc9565b9150614e3082614def565b602082019050919050565b60006020820190508181036000830152614e5481614e18565b9050919050565b7f496e697469616c697a61626c653a20636f6e747261637420697320616c72656160008201527f647920696e697469616c697a6564000000000000000000000000000000000000602082015250565b6000614eb7602e83613bc9565b9150614ec282614e5b565b604082019050919050565b60006020820190508181036000830152614ee681614eaa565b9050919050565b7f455243313135353a206d696e7420746f20746865207a65726f2061646472657360008201527f7300000000000000000000000000000000000000000000000000000000000000602082015250565b6000614f49602183613bc9565b9150614f5482614eed565b604082019050919050565b60006020820190508181036000830152614f7881614f3c565b9050919050565b6000604082019050614f94600083018561391d565b614fa1602083018461391d565b9392505050565b7f455243313135353a2069647320616e6420616d6f756e7473206c656e6774682060008201527f6d69736d61746368000000000000000000000000000000000000000000000000602082015250565b6000615004602883613bc9565b915061500f82614fa8565b604082019050919050565b6000602082019050818103600083015261503381614ff7565b9050919050565b60006040820190508181036000830152615054818561419b565b90508181036020830152615068818461419b565b90509392505050565b7f455243313135353a207472616e7366657220746f20746865207a65726f20616460008201527f6472657373000000000000000000000000000000000000000000000000000000602082015250565b60006150cd602583613bc9565b91506150d882615071565b604082019050919050565b600060208201905081810360008301526150fc816150c0565b9050919050565b7f455243313135353a20696e73756666696369656e742062616c616e636520666f60008201527f72207472616e7366657200000000000000000000000000000000000000000000602082015250565b600061515f602a83613bc9565b915061516a82615103565b604082019050919050565b6000602082019050818103600083015261518e81615152565b9050919050565b600081905092915050565b7f416363657373436f6e74726f6c3a206163636f756e7420000000000000000000600082015250565b60006151d6601783615195565b91506151e1826151a0565b601782019050919050565b60006151f782613bbe565b6152018185615195565b9350615211818560208601613bda565b80840191505092915050565b7f206973206d697373696e6720726f6c6520000000000000000000000000000000600082015250565b6000615253601183615195565b915061525e8261521d565b601182019050919050565b6000615274826151c9565b915061528082856151ec565b915061528b82615246565b915061529782846151ec565b91508190509392505050565b7f455243313135353a206275726e2066726f6d20746865207a65726f206164647260008201527f6573730000000000000000000000000000000000000000000000000000000000602082015250565b60006152ff602383613bc9565b915061530a826152a3565b604082019050919050565b6000602082019050818103600083015261532e816152f2565b9050919050565b7f455243313135353a206275726e20616d6f756e7420657863656564732062616c60008201527f616e636500000000000000000000000000000000000000000000000000000000602082015250565b6000615391602483613bc9565b915061539c82615335565b604082019050919050565b600060208201905081810360008301526153c081615384565b9050919050565b7f455243313135353a2073657474696e6720617070726f76616c2073746174757360008201527f20666f722073656c660000000000000000000000000000000000000000000000602082015250565b6000615423602983613bc9565b915061542e826153c7565b604082019050919050565b6000602082019050818103600083015261545281615416565b9050919050565b7f496e697469616c697a61626c653a20636f6e7472616374206973206e6f74206960008201527f6e697469616c697a696e67000000000000000000000000000000000000000000602082015250565b60006154b5602b83613bc9565b91506154c082615459565b604082019050919050565b600060208201905081810360008301526154e4816154a8565b9050919050565b6154f481613869565b82525050565b600081519050919050565b600082825260208201905092915050565b6000615521826154fa565b61552b8185615505565b935061553b818560208601613bda565b61554481613a0c565b840191505092915050565b600060a08201905061556460008301886154eb565b61557160208301876154eb565b61557e604083018661391d565b61558b606083018561391d565b818103608083015261559d8184615516565b90509695505050505050565b6000815190506155b881613973565b92915050565b6000602082840312156155d4576155d361383f565b5b60006155e2848285016155a9565b91505092915050565b60008160e01c9050919050565b600060033d11156156175760046000803e6156146000516155eb565b90505b90565b600060443d106156a75761562c613835565b60043d036004823e80513d602482011167ffffffffffffffff821117156156545750506156a7565b808201805167ffffffffffffffff81111561567257505050506156a7565b80602083010160043d03850181111561568f5750505050506156a7565b61569e82602001850186613a4c565b82955050505050505b90565b7f455243313135353a207472616e7366657220746f206e6f6e204552433131353560008201527f526563656976657220696d706c656d656e746572000000000000000000000000602082015250565b6000615706603483613bc9565b9150615711826156aa565b604082019050919050565b60006020820190508181036000830152615735816156f9565b9050919050565b7f455243313135353a204552433131353552656365697665722072656a6563746560008201527f6420746f6b656e73000000000000000000000000000000000000000000000000602082015250565b6000615798602883613bc9565b91506157a38261573c565b604082019050919050565b600060208201905081810360008301526157c78161578b565b9050919050565b600060a0820190506157e360008301886154eb565b6157f060208301876154eb565b8181036040830152615802818661419b565b90508181036060830152615816818561419b565b9050818103608083015261582a8184615516565b90509695505050505050565b6000615841826138a7565b915061584c836138a7565b9250817fffffffffffffffffffffffffffffffffffffffffffffffffffffffffffffffff04831182151516156158855761588461470b565b5b828202905092915050565b600061589b826138a7565b9150600082036158ae576158ad61470b565b5b600182039050919050565b7f537472696e67733a20686578206c656e67746820696e73756666696369656e74600082015250565b60006158ef602083613bc9565b91506158fa826158b9565b602082019050919050565b6000602082019050818103600083015261591e816158e2565b9050919050565b6000615930826138a7565b915061593b836138a7565b92508282101561594e5761594d61470b565b5b82820390509291505056fea26469706673582212203922b19457a474334d8c9862d06e7f05b6d20cc70621c4773547304c298196b264736f6c634300080d0033",
  "devdoc": {
    "kind": "dev",
    "methods": {
      "balanceOf(address,uint256)": {
        "details": "See {IERC1155-balanceOf}. Requirements: - `account` cannot be the zero address."
      },
      "balanceOfBatch(address[],uint256[])": {
        "details": "See {IERC1155-balanceOfBatch}. Requirements: - `accounts` and `ids` must have the same length."
      },
      "exists(uint256)": {
        "details": "Indicates whether any token exist with a given id, or not."
      },
      "getRoleAdmin(bytes32)": {
        "details": "Returns the admin role that controls `role`. See {grantRole} and {revokeRole}. To change a role's admin, use {_setRoleAdmin}."
      },
      "grantRole(bytes32,address)": {
        "details": "Grants `role` to `account`. If `account` had not been already granted `role`, emits a {RoleGranted} event. Requirements: - the caller must have ``role``'s admin role."
      },
      "hasRole(bytes32,address)": {
        "details": "Returns `true` if `account` has been granted `role`."
      },
      "isApprovedForAll(address,address)": {
        "details": "See {IERC1155-isApprovedForAll}."
      },
      "renounceRole(bytes32,address)": {
        "details": "Revokes `role` from the calling account. Roles are often managed via {grantRole} and {revokeRole}: this function's purpose is to provide a mechanism for accounts to lose their privileges if they are compromised (such as when a trusted device is misplaced). If the calling account had been revoked `role`, emits a {RoleRevoked} event. Requirements: - the caller must be `account`."
      },
      "revokeRole(bytes32,address)": {
        "details": "Revokes `role` from `account`. If `account` had been granted `role`, emits a {RoleRevoked} event. Requirements: - the caller must have ``role``'s admin role."
      },
      "safeBatchTransferFrom(address,address,uint256[],uint256[],bytes)": {
        "details": "See {IERC1155-safeBatchTransferFrom}."
      },
      "safeTransferFrom(address,address,uint256,uint256,bytes)": {
        "details": "See {IERC1155-safeTransferFrom}."
      },
      "setApprovalForAll(address,bool)": {
        "details": "See {IERC1155-setApprovalForAll}."
      },
      "totalSupply(uint256)": {
        "details": "Total amount of tokens in with a given id."
      },
      "uri(uint256)": {
        "details": "See {IERC1155MetadataURI-uri}. This implementation returns the same URI for *all* token types. It relies on the token type ID substitution mechanism https://eips.ethereum.org/EIPS/eip-1155#metadata[defined in the EIP]. Clients calling this function must replace the `\\{id\\}` substring with the actual token type ID."
      }
    },
    "version": 1
  },
  "userdoc": {
    "kind": "user",
    "methods": {},
    "version": 1
  },
  "storageLayout": {
    "storage": [
      {
        "astId": 532,
        "contract": "contracts/MetarunCollection.sol:MetarunCollection",
        "label": "_initialized",
        "offset": 0,
        "slot": "0",
        "type": "t_bool"
      },
      {
        "astId": 535,
        "contract": "contracts/MetarunCollection.sol:MetarunCollection",
        "label": "_initializing",
        "offset": 1,
        "slot": "0",
        "type": "t_bool"
      },
      {
        "astId": 2848,
        "contract": "contracts/MetarunCollection.sol:MetarunCollection",
        "label": "__gap",
        "offset": 0,
        "slot": "1",
        "type": "t_array(t_uint256)50_storage"
      },
      {
        "astId": 3652,
        "contract": "contracts/MetarunCollection.sol:MetarunCollection",
        "label": "__gap",
        "offset": 0,
        "slot": "51",
        "type": "t_array(t_uint256)50_storage"
      },
      {
        "astId": 628,
        "contract": "contracts/MetarunCollection.sol:MetarunCollection",
        "label": "_balances",
        "offset": 0,
        "slot": "101",
        "type": "t_mapping(t_uint256,t_mapping(t_address,t_uint256))"
      },
      {
        "astId": 634,
        "contract": "contracts/MetarunCollection.sol:MetarunCollection",
        "label": "_operatorApprovals",
        "offset": 0,
        "slot": "102",
        "type": "t_mapping(t_address,t_mapping(t_address,t_bool))"
      },
      {
        "astId": 636,
        "contract": "contracts/MetarunCollection.sol:MetarunCollection",
        "label": "_uri",
        "offset": 0,
        "slot": "103",
        "type": "t_string_storage"
      },
      {
        "astId": 1716,
        "contract": "contracts/MetarunCollection.sol:MetarunCollection",
        "label": "__gap",
        "offset": 0,
        "slot": "104",
        "type": "t_array(t_uint256)47_storage"
      },
      {
        "astId": 39,
        "contract": "contracts/MetarunCollection.sol:MetarunCollection",
        "label": "_roles",
        "offset": 0,
        "slot": "151",
        "type": "t_mapping(t_bytes32,t_struct(RoleData)34_storage)"
      },
      {
        "astId": 327,
        "contract": "contracts/MetarunCollection.sol:MetarunCollection",
        "label": "__gap",
        "offset": 0,
        "slot": "152",
        "type": "t_array(t_uint256)49_storage"
      },
      {
        "astId": 1968,
        "contract": "contracts/MetarunCollection.sol:MetarunCollection",
        "label": "__gap",
        "offset": 0,
        "slot": "201",
        "type": "t_array(t_uint256)50_storage"
      },
      {
        "astId": 1994,
        "contract": "contracts/MetarunCollection.sol:MetarunCollection",
        "label": "_totalSupply",
        "offset": 0,
        "slot": "251",
        "type": "t_mapping(t_uint256,t_uint256)"
      },
      {
        "astId": 2121,
        "contract": "contracts/MetarunCollection.sol:MetarunCollection",
        "label": "__gap",
        "offset": 0,
        "slot": "252",
        "type": "t_array(t_uint256)49_storage"
      },
      {
        "astId": 7361,
        "contract": "contracts/MetarunCollection.sol:MetarunCollection",
        "label": "kindSupply",
        "offset": 0,
        "slot": "301",
        "type": "t_mapping(t_uint256,t_uint256)"
      },
      {
        "astId": 7387,
        "contract": "contracts/MetarunCollection.sol:MetarunCollection",
        "label": "tokenPerks",
        "offset": 0,
        "slot": "302",
        "type": "t_mapping(t_uint256,t_struct(Perks)7382_storage)"
      }
    ],
    "types": {
      "t_address": {
        "encoding": "inplace",
        "label": "address",
        "numberOfBytes": "20"
      },
      "t_array(t_uint256)47_storage": {
        "base": "t_uint256",
        "encoding": "inplace",
        "label": "uint256[47]",
        "numberOfBytes": "1504"
      },
      "t_array(t_uint256)49_storage": {
        "base": "t_uint256",
        "encoding": "inplace",
        "label": "uint256[49]",
        "numberOfBytes": "1568"
      },
      "t_array(t_uint256)50_storage": {
        "base": "t_uint256",
        "encoding": "inplace",
        "label": "uint256[50]",
        "numberOfBytes": "1600"
      },
      "t_bool": {
        "encoding": "inplace",
        "label": "bool",
        "numberOfBytes": "1"
      },
      "t_bytes32": {
        "encoding": "inplace",
        "label": "bytes32",
        "numberOfBytes": "32"
      },
      "t_mapping(t_address,t_bool)": {
        "encoding": "mapping",
        "key": "t_address",
        "label": "mapping(address => bool)",
        "numberOfBytes": "32",
        "value": "t_bool"
      },
      "t_mapping(t_address,t_mapping(t_address,t_bool))": {
        "encoding": "mapping",
        "key": "t_address",
        "label": "mapping(address => mapping(address => bool))",
        "numberOfBytes": "32",
        "value": "t_mapping(t_address,t_bool)"
      },
      "t_mapping(t_address,t_uint256)": {
        "encoding": "mapping",
        "key": "t_address",
        "label": "mapping(address => uint256)",
        "numberOfBytes": "32",
        "value": "t_uint256"
      },
      "t_mapping(t_bytes32,t_struct(RoleData)34_storage)": {
        "encoding": "mapping",
        "key": "t_bytes32",
        "label": "mapping(bytes32 => struct AccessControlUpgradeable.RoleData)",
        "numberOfBytes": "32",
        "value": "t_struct(RoleData)34_storage"
      },
      "t_mapping(t_uint256,t_mapping(t_address,t_uint256))": {
        "encoding": "mapping",
        "key": "t_uint256",
        "label": "mapping(uint256 => mapping(address => uint256))",
        "numberOfBytes": "32",
        "value": "t_mapping(t_address,t_uint256)"
      },
      "t_mapping(t_uint256,t_struct(Perks)7382_storage)": {
        "encoding": "mapping",
        "key": "t_uint256",
        "label": "mapping(uint256 => struct MetarunCollection.Perks)",
        "numberOfBytes": "32",
        "value": "t_struct(Perks)7382_storage"
      },
      "t_mapping(t_uint256,t_uint256)": {
        "encoding": "mapping",
        "key": "t_uint256",
        "label": "mapping(uint256 => uint256)",
        "numberOfBytes": "32",
        "value": "t_uint256"
      },
      "t_string_storage": {
        "encoding": "bytes",
        "label": "string",
        "numberOfBytes": "32"
      },
      "t_struct(Perks)7382_storage": {
        "encoding": "inplace",
        "label": "struct MetarunCollection.Perks",
        "members": [
          {
            "astId": 7363,
            "contract": "contracts/MetarunCollection.sol:MetarunCollection",
            "label": "level",
            "offset": 0,
            "slot": "0",
            "type": "t_uint256"
          },
          {
            "astId": 7365,
            "contract": "contracts/MetarunCollection.sol:MetarunCollection",
            "label": "runs",
            "offset": 0,
            "slot": "1",
            "type": "t_uint256"
          },
          {
            "astId": 7367,
            "contract": "contracts/MetarunCollection.sol:MetarunCollection",
            "label": "wins",
            "offset": 0,
            "slot": "2",
            "type": "t_uint256"
          },
          {
            "astId": 7369,
            "contract": "contracts/MetarunCollection.sol:MetarunCollection",
            "label": "ability",
            "offset": 0,
            "slot": "3",
            "type": "t_uint256"
          },
          {
            "astId": 7371,
            "contract": "contracts/MetarunCollection.sol:MetarunCollection",
            "label": "health",
            "offset": 0,
            "slot": "4",
            "type": "t_uint256"
          },
          {
            "astId": 7373,
            "contract": "contracts/MetarunCollection.sol:MetarunCollection",
            "label": "mana",
            "offset": 0,
            "slot": "5",
            "type": "t_uint256"
          },
          {
            "astId": 7375,
            "contract": "contracts/MetarunCollection.sol:MetarunCollection",
            "label": "speed",
            "offset": 0,
            "slot": "6",
            "type": "t_uint256"
          },
          {
            "astId": 7377,
            "contract": "contracts/MetarunCollection.sol:MetarunCollection",
            "label": "collisionDamage",
            "offset": 0,
            "slot": "7",
            "type": "t_uint256"
          },
          {
            "astId": 7379,
            "contract": "contracts/MetarunCollection.sol:MetarunCollection",
            "label": "runsPerDayLimit",
            "offset": 0,
            "slot": "8",
            "type": "t_uint256"
          },
          {
            "astId": 7381,
            "contract": "contracts/MetarunCollection.sol:MetarunCollection",
            "label": "runsTotalLimit",
            "offset": 0,
            "slot": "9",
            "type": "t_uint256"
          }
        ],
        "numberOfBytes": "320"
      },
      "t_struct(RoleData)34_storage": {
        "encoding": "inplace",
        "label": "struct AccessControlUpgradeable.RoleData",
        "members": [
          {
            "astId": 31,
            "contract": "contracts/MetarunCollection.sol:MetarunCollection",
            "label": "members",
            "offset": 0,
            "slot": "0",
            "type": "t_mapping(t_address,t_bool)"
          },
          {
            "astId": 33,
            "contract": "contracts/MetarunCollection.sol:MetarunCollection",
            "label": "adminRole",
            "offset": 0,
            "slot": "1",
            "type": "t_bytes32"
          }
        ],
        "numberOfBytes": "64"
      },
      "t_uint256": {
        "encoding": "inplace",
        "label": "uint256",
        "numberOfBytes": "32"
      }
    }
  }
}