{
  "address": "0x8327c9c1957DB5e31895805F70B101b419011810",
  "abi": [
    {
      "inputs": [
        {
          "internalType": "string",
          "name": "uri",
          "type": "string"
        }
      ],
      "stateMutability": "nonpayable",
      "type": "constructor"
    },
    {
      "anonymous": false,
      "inputs": [
        {
          "indexed": true,
          "internalType": "address",
          "name": "account",
          "type": "address"
        },
        {
          "indexed": true,
          "internalType": "address",
          "name": "operator",
          "type": "address"
        },
        {
          "indexed": false,
          "internalType": "bool",
          "name": "approved",
          "type": "bool"
        }
      ],
      "name": "ApprovalForAll",
      "type": "event"
    },
    {
      "anonymous": false,
      "inputs": [
        {
          "indexed": true,
          "internalType": "bytes32",
          "name": "role",
          "type": "bytes32"
        },
        {
          "indexed": true,
          "internalType": "bytes32",
          "name": "previousAdminRole",
          "type": "bytes32"
        },
        {
          "indexed": true,
          "internalType": "bytes32",
          "name": "newAdminRole",
          "type": "bytes32"
        }
      ],
      "name": "RoleAdminChanged",
      "type": "event"
    },
    {
      "anonymous": false,
      "inputs": [
        {
          "indexed": true,
          "internalType": "bytes32",
          "name": "role",
          "type": "bytes32"
        },
        {
          "indexed": true,
          "internalType": "address",
          "name": "account",
          "type": "address"
        },
        {
          "indexed": true,
          "internalType": "address",
          "name": "sender",
          "type": "address"
        }
      ],
      "name": "RoleGranted",
      "type": "event"
    },
    {
      "anonymous": false,
      "inputs": [
        {
          "indexed": true,
          "internalType": "bytes32",
          "name": "role",
          "type": "bytes32"
        },
        {
          "indexed": true,
          "internalType": "address",
          "name": "account",
          "type": "address"
        },
        {
          "indexed": true,
          "internalType": "address",
          "name": "sender",
          "type": "address"
        }
      ],
      "name": "RoleRevoked",
      "type": "event"
    },
    {
      "anonymous": false,
      "inputs": [
        {
          "indexed": true,
          "internalType": "address",
          "name": "operator",
          "type": "address"
        },
        {
          "indexed": true,
          "internalType": "address",
          "name": "from",
          "type": "address"
        },
        {
          "indexed": true,
          "internalType": "address",
          "name": "to",
          "type": "address"
        },
        {
          "indexed": false,
          "internalType": "uint256[]",
          "name": "ids",
          "type": "uint256[]"
        },
        {
          "indexed": false,
          "internalType": "uint256[]",
          "name": "values",
          "type": "uint256[]"
        }
      ],
      "name": "TransferBatch",
      "type": "event"
    },
    {
      "anonymous": false,
      "inputs": [
        {
          "indexed": true,
          "internalType": "address",
          "name": "operator",
          "type": "address"
        },
        {
          "indexed": true,
          "internalType": "address",
          "name": "from",
          "type": "address"
        },
        {
          "indexed": true,
          "internalType": "address",
          "name": "to",
          "type": "address"
        },
        {
          "indexed": false,
          "internalType": "uint256",
          "name": "id",
          "type": "uint256"
        },
        {
          "indexed": false,
          "internalType": "uint256",
          "name": "value",
          "type": "uint256"
        }
      ],
      "name": "TransferSingle",
      "type": "event"
    },
    {
      "anonymous": false,
      "inputs": [
        {
          "indexed": false,
          "internalType": "string",
          "name": "value",
          "type": "string"
        },
        {
          "indexed": true,
          "internalType": "uint256",
          "name": "id",
          "type": "uint256"
        }
      ],
      "name": "URI",
      "type": "event"
    },
    {
      "inputs": [],
      "name": "ARTIFACT",
      "outputs": [
        {
          "internalType": "uint256",
          "name": "",
          "type": "uint256"
        }
      ],
      "stateMutability": "view",
      "type": "function"
    },
    {
      "inputs": [],
      "name": "CHARACTER",
      "outputs": [
        {
          "internalType": "uint256",
          "name": "",
          "type": "uint256"
        }
      ],
      "stateMutability": "view",
      "type": "function"
    },
    {
      "inputs": [],
      "name": "DEFAULT_ADMIN_ROLE",
      "outputs": [
        {
          "internalType": "bytes32",
          "name": "",
          "type": "bytes32"
        }
      ],
      "stateMutability": "view",
      "type": "function"
    },
    {
      "inputs": [],
      "name": "MINTER_ROLE",
      "outputs": [
        {
          "internalType": "bytes32",
          "name": "",
          "type": "bytes32"
        }
      ],
      "stateMutability": "view",
      "type": "function"
    },
    {
      "inputs": [],
      "name": "PET",
      "outputs": [
        {
          "internalType": "uint256",
          "name": "",
          "type": "uint256"
        }
      ],
      "stateMutability": "view",
      "type": "function"
    },
    {
      "inputs": [],
      "name": "SKIN",
      "outputs": [
        {
          "internalType": "uint256",
          "name": "",
          "type": "uint256"
        }
      ],
      "stateMutability": "view",
      "type": "function"
    },
    {
      "inputs": [
        {
          "internalType": "address",
          "name": "account",
          "type": "address"
        },
        {
          "internalType": "uint256",
          "name": "id",
          "type": "uint256"
        }
      ],
      "name": "balanceOf",
      "outputs": [
        {
          "internalType": "uint256",
          "name": "",
          "type": "uint256"
        }
      ],
      "stateMutability": "view",
      "type": "function"
    },
    {
      "inputs": [
        {
          "internalType": "address[]",
          "name": "accounts",
          "type": "address[]"
        },
        {
          "internalType": "uint256[]",
          "name": "ids",
          "type": "uint256[]"
        }
      ],
      "name": "balanceOfBatch",
      "outputs": [
        {
          "internalType": "uint256[]",
          "name": "",
          "type": "uint256[]"
        }
      ],
      "stateMutability": "view",
      "type": "function"
    },
    {
      "inputs": [
        {
          "internalType": "bytes32",
          "name": "role",
          "type": "bytes32"
        }
      ],
      "name": "getRoleAdmin",
      "outputs": [
        {
          "internalType": "bytes32",
          "name": "",
          "type": "bytes32"
        }
      ],
      "stateMutability": "view",
      "type": "function"
    },
    {
      "inputs": [
        {
          "internalType": "bytes32",
          "name": "role",
          "type": "bytes32"
        },
        {
          "internalType": "address",
          "name": "account",
          "type": "address"
        }
      ],
      "name": "grantRole",
      "outputs": [],
      "stateMutability": "nonpayable",
      "type": "function"
    },
    {
      "inputs": [
        {
          "internalType": "bytes32",
          "name": "role",
          "type": "bytes32"
        },
        {
          "internalType": "address",
          "name": "account",
          "type": "address"
        }
      ],
      "name": "hasRole",
      "outputs": [
        {
          "internalType": "bool",
          "name": "",
          "type": "bool"
        }
      ],
      "stateMutability": "view",
      "type": "function"
    },
    {
      "inputs": [
        {
          "internalType": "address",
          "name": "account",
          "type": "address"
        },
        {
          "internalType": "address",
          "name": "operator",
          "type": "address"
        }
      ],
      "name": "isApprovedForAll",
      "outputs": [
        {
          "internalType": "bool",
          "name": "",
          "type": "bool"
        }
      ],
      "stateMutability": "view",
      "type": "function"
    },
    {
      "inputs": [
        {
          "internalType": "address",
          "name": "to",
          "type": "address"
        },
        {
          "internalType": "uint256",
          "name": "id",
          "type": "uint256"
        },
        {
          "internalType": "uint256",
          "name": "amount",
          "type": "uint256"
        }
      ],
      "name": "mint",
      "outputs": [],
      "stateMutability": "nonpayable",
      "type": "function"
    },
    {
      "inputs": [
        {
          "internalType": "bytes32",
          "name": "role",
          "type": "bytes32"
        },
        {
          "internalType": "address",
          "name": "account",
          "type": "address"
        }
      ],
      "name": "renounceRole",
      "outputs": [],
      "stateMutability": "nonpayable",
      "type": "function"
    },
    {
      "inputs": [
        {
          "internalType": "bytes32",
          "name": "role",
          "type": "bytes32"
        },
        {
          "internalType": "address",
          "name": "account",
          "type": "address"
        }
      ],
      "name": "revokeRole",
      "outputs": [],
      "stateMutability": "nonpayable",
      "type": "function"
    },
    {
      "inputs": [
        {
          "internalType": "address",
          "name": "from",
          "type": "address"
        },
        {
          "internalType": "address",
          "name": "to",
          "type": "address"
        },
        {
          "internalType": "uint256[]",
          "name": "ids",
          "type": "uint256[]"
        },
        {
          "internalType": "uint256[]",
          "name": "amounts",
          "type": "uint256[]"
        },
        {
          "internalType": "bytes",
          "name": "data",
          "type": "bytes"
        }
      ],
      "name": "safeBatchTransferFrom",
      "outputs": [],
      "stateMutability": "nonpayable",
      "type": "function"
    },
    {
      "inputs": [
        {
          "internalType": "address",
          "name": "from",
          "type": "address"
        },
        {
          "internalType": "address",
          "name": "to",
          "type": "address"
        },
        {
          "internalType": "uint256",
          "name": "id",
          "type": "uint256"
        },
        {
          "internalType": "uint256",
          "name": "amount",
          "type": "uint256"
        },
        {
          "internalType": "bytes",
          "name": "data",
          "type": "bytes"
        }
      ],
      "name": "safeTransferFrom",
      "outputs": [],
      "stateMutability": "nonpayable",
      "type": "function"
    },
    {
      "inputs": [
        {
          "internalType": "address",
          "name": "operator",
          "type": "address"
        },
        {
          "internalType": "bool",
          "name": "approved",
          "type": "bool"
        }
      ],
      "name": "setApprovalForAll",
      "outputs": [],
      "stateMutability": "nonpayable",
      "type": "function"
    },
    {
      "inputs": [
        {
          "internalType": "string",
          "name": "newUri",
          "type": "string"
        }
      ],
      "name": "setURI",
      "outputs": [],
      "stateMutability": "nonpayable",
      "type": "function"
    },
    {
      "inputs": [
        {
          "internalType": "bytes4",
          "name": "interfaceId",
          "type": "bytes4"
        }
      ],
      "name": "supportsInterface",
      "outputs": [
        {
          "internalType": "bool",
          "name": "",
          "type": "bool"
        }
      ],
      "stateMutability": "view",
      "type": "function"
    },
    {
      "inputs": [
        {
          "internalType": "uint256",
          "name": "",
          "type": "uint256"
        }
      ],
      "name": "uri",
      "outputs": [
        {
          "internalType": "string",
          "name": "",
          "type": "string"
        }
      ],
      "stateMutability": "view",
      "type": "function"
    }
  ],
  "transactionHash": "0xec19040c08e9c9b49ebaf339aeb1b7b407ad0e4cbdbfb501d79794f12f4001c2",
  "args": [
    "https://app-staging.metarun.game/metadata/{id}.json"
  ],
  "numDeployments": 1,
  "solcInputHash": "f785cabe857bbf5fe6529270290fe01e",
  "bytecode": "0x60806040523480156200001157600080fd5b5060405162003d8a38038062003d8a83398181016040528101906200003791906200049a565b806200004981620000b660201b60201c565b506200008b7f9f2df0fed2c77648de5860a4cc508cd0818c85b8b8a1ab4ceeef8d981c8956a66200007f620000d260201b60201c565b620000da60201b60201c565b620000af6000801b620000a3620000d260201b60201c565b620000da60201b60201c565b5062000550565b8060029080519060200190620000ce9291906200024d565b5050565b600033905090565b620000ec8282620000f060201b60201c565b5050565b620001028282620001e260201b60201c565b620001de5760016003600084815260200190815260200160002060000160008373ffffffffffffffffffffffffffffffffffffffff1673ffffffffffffffffffffffffffffffffffffffff16815260200190815260200160002060006101000a81548160ff02191690831515021790555062000183620000d260201b60201c565b73ffffffffffffffffffffffffffffffffffffffff168173ffffffffffffffffffffffffffffffffffffffff16837f2f8788117e7eff1d82e926ec794901d17c78024a50270940304540a733656f0d60405160405180910390a45b5050565b60006003600084815260200190815260200160002060000160008373ffffffffffffffffffffffffffffffffffffffff1673ffffffffffffffffffffffffffffffffffffffff16815260200190815260200160002060009054906101000a900460ff16905092915050565b8280546200025b906200051a565b90600052602060002090601f0160209004810192826200027f5760008555620002cb565b82601f106200029a57805160ff1916838001178555620002cb565b82800160010185558215620002cb579182015b82811115620002ca578251825591602001919060010190620002ad565b5b509050620002da9190620002de565b5090565b5b80821115620002f9576000816000905550600101620002df565b5090565b6000604051905090565b600080fd5b600080fd5b600080fd5b600080fd5b6000601f19601f8301169050919050565b7f4e487b7100000000000000000000000000000000000000000000000000000000600052604160045260246000fd5b62000366826200031b565b810181811067ffffffffffffffff821117156200038857620003876200032c565b5b80604052505050565b60006200039d620002fd565b9050620003ab82826200035b565b919050565b600067ffffffffffffffff821115620003ce57620003cd6200032c565b5b620003d9826200031b565b9050602081019050919050565b60005b8381101562000406578082015181840152602081019050620003e9565b8381111562000416576000848401525b50505050565b6000620004336200042d84620003b0565b62000391565b90508281526020810184848401111562000452576200045162000316565b5b6200045f848285620003e6565b509392505050565b600082601f8301126200047f576200047e62000311565b5b8151620004918482602086016200041c565b91505092915050565b600060208284031215620004b357620004b262000307565b5b600082015167ffffffffffffffff811115620004d457620004d36200030c565b5b620004e28482850162000467565b91505092915050565b7f4e487b7100000000000000000000000000000000000000000000000000000000600052602260045260246000fd5b600060028204905060018216806200053357607f821691505b602082108114156200054a5762000549620004eb565b5b50919050565b61382a80620005606000396000f3fe608060405234801561001057600080fd5b50600436106101365760003560e01c80633671dc73116100b8578063a217fddf1161007c578063a217fddf1461035f578063a22cb4651461037d578063d539139314610399578063d547741f146103b7578063e985e9c5146103d3578063f242432a1461040357610136565b80633671dc73146102a55780634509872e146102c35780634e1273f4146102e15780638aee38c71461031157806391d148541461032f57610136565b8063156e29f6116100ff578063156e29f614610205578063248a9ca3146102215780632eb2c2d6146102515780632f2ff15d1461026d57806336568abe1461028957610136565b8062fdd58e1461013b57806301ffc9a71461016b57806302fe53051461019b5780630e89341c146101b7578063100e415a146101e7575b600080fd5b61015560048036038101906101509190611fce565b61041f565b604051610162919061201d565b60405180910390f35b61018560048036038101906101809190612090565b6104e8565b60405161019291906120d8565b60405180910390f35b6101b560048036038101906101b09190612239565b6104fa565b005b6101d160048036038101906101cc9190612282565b610559565b6040516101de9190612337565b60405180910390f35b6101ef6105ed565b6040516101fc919061201d565b60405180910390f35b61021f600480360381019061021a9190612359565b6105f2565b005b61023b600480360381019061023691906123e2565b610682565b604051610248919061241e565b60405180910390f35b61026b600480360381019061026691906125a2565b6106a2565b005b61028760048036038101906102829190612671565b610743565b005b6102a3600480360381019061029e9190612671565b61076c565b005b6102ad6107ef565b6040516102ba919061201d565b60405180910390f35b6102cb6107f4565b6040516102d8919061201d565b60405180910390f35b6102fb60048036038101906102f69190612774565b6107f9565b60405161030891906128aa565b60405180910390f35b610319610912565b604051610326919061201d565b60405180910390f35b61034960048036038101906103449190612671565b610917565b60405161035691906120d8565b60405180910390f35b610367610982565b604051610374919061241e565b60405180910390f35b610397600480360381019061039291906128f8565b610989565b005b6103a161099f565b6040516103ae919061241e565b60405180910390f35b6103d160048036038101906103cc9190612671565b6109c3565b005b6103ed60048036038101906103e89190612938565b6109ec565b6040516103fa91906120d8565b60405180910390f35b61041d60048036038101906104189190612978565b610a80565b005b60008073ffffffffffffffffffffffffffffffffffffffff168373ffffffffffffffffffffffffffffffffffffffff161415610490576040517f08c379a000000000000000000000000000000000000000000000000000000000815260040161048790612a81565b60405180910390fd5b60008083815260200190815260200160002060008473ffffffffffffffffffffffffffffffffffffffff1673ffffffffffffffffffffffffffffffffffffffff16815260200190815260200160002054905092915050565b60006104f382610b21565b9050919050565b61050e6000801b610509610b9b565b610917565b61054d576040517f08c379a000000000000000000000000000000000000000000000000000000000815260040161054490612b13565b60405180910390fd5b61055681610ba3565b50565b60606002805461056890612b62565b80601f016020809104026020016040519081016040528092919081815260200182805461059490612b62565b80156105e15780601f106105b6576101008083540402835291602001916105e1565b820191906000526020600020905b8154815290600101906020018083116105c457829003601f168201915b50505050509050919050565b600081565b6106237f9f2df0fed2c77648de5860a4cc508cd0818c85b8b8a1ab4ceeef8d981c8956a661061e610b9b565b610917565b610662576040517f08c379a000000000000000000000000000000000000000000000000000000000815260040161065990612c06565b60405180910390fd5b61067d83838360405180602001604052806000815250610bbd565b505050565b600060036000838152602001908152602001600020600101549050919050565b6106aa610b9b565b73ffffffffffffffffffffffffffffffffffffffff168573ffffffffffffffffffffffffffffffffffffffff1614806106f057506106ef856106ea610b9b565b6109ec565b5b61072f576040517f08c379a000000000000000000000000000000000000000000000000000000000815260040161072690612c98565b60405180910390fd5b61073c8585858585610d53565b5050505050565b61074c82610682565b61075d81610758610b9b565b611067565b6107678383611104565b505050565b610774610b9b565b73ffffffffffffffffffffffffffffffffffffffff168173ffffffffffffffffffffffffffffffffffffffff16146107e1576040517f08c379a00000000000000000000000000000000000000000000000000000000081526004016107d890612d2a565b60405180910390fd5b6107eb82826111e5565b5050565b600381565b600181565b6060815183511461083f576040517f08c379a000000000000000000000000000000000000000000000000000000000815260040161083690612dbc565b60405180910390fd5b6000835167ffffffffffffffff81111561085c5761085b61210e565b5b60405190808252806020026020018201604052801561088a5781602001602082028036833780820191505090505b50905060005b8451811015610907576108d78582815181106108af576108ae612ddc565b5b60200260200101518583815181106108ca576108c9612ddc565b5b602002602001015161041f565b8282815181106108ea576108e9612ddc565b5b6020026020010181815250508061090090612e3a565b9050610890565b508091505092915050565b600281565b60006003600084815260200190815260200160002060000160008373ffffffffffffffffffffffffffffffffffffffff1673ffffffffffffffffffffffffffffffffffffffff16815260200190815260200160002060009054906101000a900460ff16905092915050565b6000801b81565b61099b610994610b9b565b83836112c7565b5050565b7f9f2df0fed2c77648de5860a4cc508cd0818c85b8b8a1ab4ceeef8d981c8956a681565b6109cc82610682565b6109dd816109d8610b9b565b611067565b6109e783836111e5565b505050565b6000600160008473ffffffffffffffffffffffffffffffffffffffff1673ffffffffffffffffffffffffffffffffffffffff16815260200190815260200160002060008373ffffffffffffffffffffffffffffffffffffffff1673ffffffffffffffffffffffffffffffffffffffff16815260200190815260200160002060009054906101000a900460ff16905092915050565b610a88610b9b565b73ffffffffffffffffffffffffffffffffffffffff168573ffffffffffffffffffffffffffffffffffffffff161480610ace5750610acd85610ac8610b9b565b6109ec565b5b610b0d576040517f08c379a0000000000000000000000000000000000000000000000000000000008152600401610b0490612ef5565b60405180910390fd5b610b1a8585858585611434565b5050505050565b60007f7965db0b000000000000000000000000000000000000000000000000000000007bffffffffffffffffffffffffffffffffffffffffffffffffffffffff1916827bffffffffffffffffffffffffffffffffffffffffffffffffffffffff19161480610b945750610b93826116b6565b5b9050919050565b600033905090565b8060029080519060200190610bb9929190611e83565b5050565b600073ffffffffffffffffffffffffffffffffffffffff168473ffffffffffffffffffffffffffffffffffffffff161415610c2d576040517f08c379a0000000000000000000000000000000000000000000000000000000008152600401610c2490612f87565b60405180910390fd5b6000610c37610b9b565b9050610c5881600087610c4988611798565b610c5288611798565b87611812565b8260008086815260200190815260200160002060008773ffffffffffffffffffffffffffffffffffffffff1673ffffffffffffffffffffffffffffffffffffffff1681526020019081526020016000206000828254610cb79190612fa7565b925050819055508473ffffffffffffffffffffffffffffffffffffffff16600073ffffffffffffffffffffffffffffffffffffffff168273ffffffffffffffffffffffffffffffffffffffff167fc3d58168c5ae7397731d063d5bbf3d657854427343f4c083240f7aacaa2d0f628787604051610d35929190612ffd565b60405180910390a4610d4c8160008787878761181a565b5050505050565b8151835114610d97576040517f08c379a0000000000000000000000000000000000000000000000000000000008152600401610d8e90613098565b60405180910390fd5b600073ffffffffffffffffffffffffffffffffffffffff168473ffffffffffffffffffffffffffffffffffffffff161415610e07576040517f08c379a0000000000000000000000000000000000000000000000000000000008152600401610dfe9061312a565b60405180910390fd5b6000610e11610b9b565b9050610e21818787878787611812565b60005b8451811015610fd2576000858281518110610e4257610e41612ddc565b5b602002602001015190506000858381518110610e6157610e60612ddc565b5b60200260200101519050600080600084815260200190815260200160002060008b73ffffffffffffffffffffffffffffffffffffffff1673ffffffffffffffffffffffffffffffffffffffff16815260200190815260200160002054905081811015610f02576040517f08c379a0000000000000000000000000000000000000000000000000000000008152600401610ef9906131bc565b60405180910390fd5b81810360008085815260200190815260200160002060008c73ffffffffffffffffffffffffffffffffffffffff1673ffffffffffffffffffffffffffffffffffffffff168152602001908152602001600020819055508160008085815260200190815260200160002060008b73ffffffffffffffffffffffffffffffffffffffff1673ffffffffffffffffffffffffffffffffffffffff1681526020019081526020016000206000828254610fb79190612fa7565b9250508190555050505080610fcb90612e3a565b9050610e24565b508473ffffffffffffffffffffffffffffffffffffffff168673ffffffffffffffffffffffffffffffffffffffff168273ffffffffffffffffffffffffffffffffffffffff167f4a39dc06d4c0dbc64b70af90fd698a233a518aa5d07e595d983b8c0526c8f7fb87876040516110499291906131dc565b60405180910390a461105f8187878787876119f2565b505050505050565b6110718282610917565b611100576110968173ffffffffffffffffffffffffffffffffffffffff166014611bca565b6110a48360001c6020611bca565b6040516020016110b59291906132e7565b6040516020818303038152906040526040517f08c379a00000000000000000000000000000000000000000000000000000000081526004016110f79190612337565b60405180910390fd5b5050565b61110e8282610917565b6111e15760016003600084815260200190815260200160002060000160008373ffffffffffffffffffffffffffffffffffffffff1673ffffffffffffffffffffffffffffffffffffffff16815260200190815260200160002060006101000a81548160ff021916908315150217905550611186610b9b565b73ffffffffffffffffffffffffffffffffffffffff168173ffffffffffffffffffffffffffffffffffffffff16837f2f8788117e7eff1d82e926ec794901d17c78024a50270940304540a733656f0d60405160405180910390a45b5050565b6111ef8282610917565b156112c35760006003600084815260200190815260200160002060000160008373ffffffffffffffffffffffffffffffffffffffff1673ffffffffffffffffffffffffffffffffffffffff16815260200190815260200160002060006101000a81548160ff021916908315150217905550611268610b9b565b73ffffffffffffffffffffffffffffffffffffffff168173ffffffffffffffffffffffffffffffffffffffff16837ff6391f5c32d9c69d2a47ea670b442974b53935d1edc7fd64eb21e047a839171b60405160405180910390a45b5050565b8173ffffffffffffffffffffffffffffffffffffffff168373ffffffffffffffffffffffffffffffffffffffff161415611336576040517f08c379a000000000000000000000000000000000000000000000000000000000815260040161132d90613393565b60405180910390fd5b80600160008573ffffffffffffffffffffffffffffffffffffffff1673ffffffffffffffffffffffffffffffffffffffff16815260200190815260200160002060008473ffffffffffffffffffffffffffffffffffffffff1673ffffffffffffffffffffffffffffffffffffffff16815260200190815260200160002060006101000a81548160ff0219169083151502179055508173ffffffffffffffffffffffffffffffffffffffff168373ffffffffffffffffffffffffffffffffffffffff167f17307eab39ab6107e8899845ad3d59bd9653f200f220920489ca2b5937696c318360405161142791906120d8565b60405180910390a3505050565b600073ffffffffffffffffffffffffffffffffffffffff168473ffffffffffffffffffffffffffffffffffffffff1614156114a4576040517f08c379a000000000000000000000000000000000000000000000000000000000815260040161149b9061312a565b60405180910390fd5b60006114ae610b9b565b90506114ce8187876114bf88611798565b6114c888611798565b87611812565b600080600086815260200190815260200160002060008873ffffffffffffffffffffffffffffffffffffffff1673ffffffffffffffffffffffffffffffffffffffff16815260200190815260200160002054905083811015611565576040517f08c379a000000000000000000000000000000000000000000000000000000000815260040161155c906131bc565b60405180910390fd5b83810360008087815260200190815260200160002060008973ffffffffffffffffffffffffffffffffffffffff1673ffffffffffffffffffffffffffffffffffffffff168152602001908152602001600020819055508360008087815260200190815260200160002060008873ffffffffffffffffffffffffffffffffffffffff1673ffffffffffffffffffffffffffffffffffffffff168152602001908152602001600020600082825461161a9190612fa7565b925050819055508573ffffffffffffffffffffffffffffffffffffffff168773ffffffffffffffffffffffffffffffffffffffff168373ffffffffffffffffffffffffffffffffffffffff167fc3d58168c5ae7397731d063d5bbf3d657854427343f4c083240f7aacaa2d0f628888604051611697929190612ffd565b60405180910390a46116ad82888888888861181a565b50505050505050565b60007fd9b67a26000000000000000000000000000000000000000000000000000000007bffffffffffffffffffffffffffffffffffffffffffffffffffffffff1916827bffffffffffffffffffffffffffffffffffffffffffffffffffffffff1916148061178157507f0e89341c000000000000000000000000000000000000000000000000000000007bffffffffffffffffffffffffffffffffffffffffffffffffffffffff1916827bffffffffffffffffffffffffffffffffffffffffffffffffffffffff1916145b80611791575061179082611e06565b5b9050919050565b60606000600167ffffffffffffffff8111156117b7576117b661210e565b5b6040519080825280602002602001820160405280156117e55781602001602082028036833780820191505090505b50905082816000815181106117fd576117fc612ddc565b5b60200260200101818152505080915050919050565b505050505050565b6118398473ffffffffffffffffffffffffffffffffffffffff16611e70565b156119ea578373ffffffffffffffffffffffffffffffffffffffff1663f23a6e6187878686866040518663ffffffff1660e01b815260040161187f959493929190613417565b6020604051808303816000875af19250505080156118bb57506040513d601f19601f820116820180604052508101906118b89190613486565b60015b611961576118c76134c0565b806308c379a0141561192457506118dc6134e2565b806118e75750611926565b806040517f08c379a000000000000000000000000000000000000000000000000000000000815260040161191b9190612337565b60405180910390fd5b505b6040517f08c379a0000000000000000000000000000000000000000000000000000000008152600401611958906135ea565b60405180910390fd5b63f23a6e6160e01b7bffffffffffffffffffffffffffffffffffffffffffffffffffffffff1916817bffffffffffffffffffffffffffffffffffffffffffffffffffffffff1916146119e8576040517f08c379a00000000000000000000000000000000000000000000000000000000081526004016119df9061367c565b60405180910390fd5b505b505050505050565b611a118473ffffffffffffffffffffffffffffffffffffffff16611e70565b15611bc2578373ffffffffffffffffffffffffffffffffffffffff1663bc197c8187878686866040518663ffffffff1660e01b8152600401611a5795949392919061369c565b6020604051808303816000875af1925050508015611a9357506040513d601f19601f82011682018060405250810190611a909190613486565b60015b611b3957611a9f6134c0565b806308c379a01415611afc5750611ab46134e2565b80611abf5750611afe565b806040517f08c379a0000000000000000000000000000000000000000000000000000000008152600401611af39190612337565b60405180910390fd5b505b6040517f08c379a0000000000000000000000000000000000000000000000000000000008152600401611b30906135ea565b60405180910390fd5b63bc197c8160e01b7bffffffffffffffffffffffffffffffffffffffffffffffffffffffff1916817bffffffffffffffffffffffffffffffffffffffffffffffffffffffff191614611bc0576040517f08c379a0000000000000000000000000000000000000000000000000000000008152600401611bb79061367c565b60405180910390fd5b505b505050505050565b606060006002836002611bdd9190613704565b611be79190612fa7565b67ffffffffffffffff811115611c0057611bff61210e565b5b6040519080825280601f01601f191660200182016040528015611c325781602001600182028036833780820191505090505b5090507f300000000000000000000000000000000000000000000000000000000000000081600081518110611c6a57611c69612ddc565b5b60200101907effffffffffffffffffffffffffffffffffffffffffffffffffffffffffffff1916908160001a9053507f780000000000000000000000000000000000000000000000000000000000000081600181518110611cce57611ccd612ddc565b5b60200101907effffffffffffffffffffffffffffffffffffffffffffffffffffffffffffff1916908160001a90535060006001846002611d0e9190613704565b611d189190612fa7565b90505b6001811115611db8577f3031323334353637383961626364656600000000000000000000000000000000600f861660108110611d5a57611d59612ddc565b5b1a60f81b828281518110611d7157611d70612ddc565b5b60200101907effffffffffffffffffffffffffffffffffffffffffffffffffffffffffffff1916908160001a905350600485901c945080611db19061375e565b9050611d1b565b5060008414611dfc576040517f08c379a0000000000000000000000000000000000000000000000000000000008152600401611df3906137d4565b60405180910390fd5b8091505092915050565b60007f01ffc9a7000000000000000000000000000000000000000000000000000000007bffffffffffffffffffffffffffffffffffffffffffffffffffffffff1916827bffffffffffffffffffffffffffffffffffffffffffffffffffffffff1916149050919050565b600080823b905060008111915050919050565b828054611e8f90612b62565b90600052602060002090601f016020900481019282611eb15760008555611ef8565b82601f10611eca57805160ff1916838001178555611ef8565b82800160010185558215611ef8579182015b82811115611ef7578251825591602001919060010190611edc565b5b509050611f059190611f09565b5090565b5b80821115611f22576000816000905550600101611f0a565b5090565b6000604051905090565b600080fd5b600080fd5b600073ffffffffffffffffffffffffffffffffffffffff82169050919050565b6000611f6582611f3a565b9050919050565b611f7581611f5a565b8114611f8057600080fd5b50565b600081359050611f9281611f6c565b92915050565b6000819050919050565b611fab81611f98565b8114611fb657600080fd5b50565b600081359050611fc881611fa2565b92915050565b60008060408385031215611fe557611fe4611f30565b5b6000611ff385828601611f83565b925050602061200485828601611fb9565b9150509250929050565b61201781611f98565b82525050565b6000602082019050612032600083018461200e565b92915050565b60007fffffffff0000000000000000000000000000000000000000000000000000000082169050919050565b61206d81612038565b811461207857600080fd5b50565b60008135905061208a81612064565b92915050565b6000602082840312156120a6576120a5611f30565b5b60006120b48482850161207b565b91505092915050565b60008115159050919050565b6120d2816120bd565b82525050565b60006020820190506120ed60008301846120c9565b92915050565b600080fd5b600080fd5b6000601f19601f8301169050919050565b7f4e487b7100000000000000000000000000000000000000000000000000000000600052604160045260246000fd5b612146826120fd565b810181811067ffffffffffffffff821117156121655761216461210e565b5b80604052505050565b6000612178611f26565b9050612184828261213d565b919050565b600067ffffffffffffffff8211156121a4576121a361210e565b5b6121ad826120fd565b9050602081019050919050565b82818337600083830152505050565b60006121dc6121d784612189565b61216e565b9050828152602081018484840111156121f8576121f76120f8565b5b6122038482856121ba565b509392505050565b600082601f8301126122205761221f6120f3565b5b81356122308482602086016121c9565b91505092915050565b60006020828403121561224f5761224e611f30565b5b600082013567ffffffffffffffff81111561226d5761226c611f35565b5b6122798482850161220b565b91505092915050565b60006020828403121561229857612297611f30565b5b60006122a684828501611fb9565b91505092915050565b600081519050919050565b600082825260208201905092915050565b60005b838110156122e95780820151818401526020810190506122ce565b838111156122f8576000848401525b50505050565b6000612309826122af565b61231381856122ba565b93506123238185602086016122cb565b61232c816120fd565b840191505092915050565b6000602082019050818103600083015261235181846122fe565b905092915050565b60008060006060848603121561237257612371611f30565b5b600061238086828701611f83565b935050602061239186828701611fb9565b92505060406123a286828701611fb9565b9150509250925092565b6000819050919050565b6123bf816123ac565b81146123ca57600080fd5b50565b6000813590506123dc816123b6565b92915050565b6000602082840312156123f8576123f7611f30565b5b6000612406848285016123cd565b91505092915050565b612418816123ac565b82525050565b6000602082019050612433600083018461240f565b92915050565b600067ffffffffffffffff8211156124545761245361210e565b5b602082029050602081019050919050565b600080fd5b600061247d61247884612439565b61216e565b905080838252602082019050602084028301858111156124a05761249f612465565b5b835b818110156124c957806124b58882611fb9565b8452602084019350506020810190506124a2565b5050509392505050565b600082601f8301126124e8576124e76120f3565b5b81356124f884826020860161246a565b91505092915050565b600067ffffffffffffffff82111561251c5761251b61210e565b5b612525826120fd565b9050602081019050919050565b600061254561254084612501565b61216e565b905082815260208101848484011115612561576125606120f8565b5b61256c8482856121ba565b509392505050565b600082601f830112612589576125886120f3565b5b8135612599848260208601612532565b91505092915050565b600080600080600060a086880312156125be576125bd611f30565b5b60006125cc88828901611f83565b95505060206125dd88828901611f83565b945050604086013567ffffffffffffffff8111156125fe576125fd611f35565b5b61260a888289016124d3565b935050606086013567ffffffffffffffff81111561262b5761262a611f35565b5b612637888289016124d3565b925050608086013567ffffffffffffffff81111561265857612657611f35565b5b61266488828901612574565b9150509295509295909350565b6000806040838503121561268857612687611f30565b5b6000612696858286016123cd565b92505060206126a785828601611f83565b9150509250929050565b600067ffffffffffffffff8211156126cc576126cb61210e565b5b602082029050602081019050919050565b60006126f06126eb846126b1565b61216e565b9050808382526020820190506020840283018581111561271357612712612465565b5b835b8181101561273c57806127288882611f83565b845260208401935050602081019050612715565b5050509392505050565b600082601f83011261275b5761275a6120f3565b5b813561276b8482602086016126dd565b91505092915050565b6000806040838503121561278b5761278a611f30565b5b600083013567ffffffffffffffff8111156127a9576127a8611f35565b5b6127b585828601612746565b925050602083013567ffffffffffffffff8111156127d6576127d5611f35565b5b6127e2858286016124d3565b9150509250929050565b600081519050919050565b600082825260208201905092915050565b6000819050602082019050919050565b61282181611f98565b82525050565b60006128338383612818565b60208301905092915050565b6000602082019050919050565b6000612857826127ec565b61286181856127f7565b935061286c83612808565b8060005b8381101561289d5781516128848882612827565b975061288f8361283f565b925050600181019050612870565b5085935050505092915050565b600060208201905081810360008301526128c4818461284c565b905092915050565b6128d5816120bd565b81146128e057600080fd5b50565b6000813590506128f2816128cc565b92915050565b6000806040838503121561290f5761290e611f30565b5b600061291d85828601611f83565b925050602061292e858286016128e3565b9150509250929050565b6000806040838503121561294f5761294e611f30565b5b600061295d85828601611f83565b925050602061296e85828601611f83565b9150509250929050565b600080600080600060a0868803121561299457612993611f30565b5b60006129a288828901611f83565b95505060206129b388828901611f83565b94505060406129c488828901611fb9565b93505060606129d588828901611fb9565b925050608086013567ffffffffffffffff8111156129f6576129f5611f35565b5b612a0288828901612574565b9150509295509295909350565b7f455243313135353a2062616c616e636520717565727920666f7220746865207a60008201527f65726f2061646472657373000000000000000000000000000000000000000000602082015250565b6000612a6b602b836122ba565b9150612a7682612a0f565b604082019050919050565b60006020820190508181036000830152612a9a81612a5e565b9050919050565b7f4d45544152554e434f4c4c454354494f4e3a206e6565642044454641554c545f60008201527f41444d494e5f524f4c4500000000000000000000000000000000000000000000602082015250565b6000612afd602a836122ba565b9150612b0882612aa1565b604082019050919050565b60006020820190508181036000830152612b2c81612af0565b9050919050565b7f4e487b7100000000000000000000000000000000000000000000000000000000600052602260045260246000fd5b60006002820490506001821680612b7a57607f821691505b60208210811415612b8e57612b8d612b33565b5b50919050565b7f4d45544152554e434f4c4c454354494f4e3a206e656564204d494e5445525f5260008201527f4f4c450000000000000000000000000000000000000000000000000000000000602082015250565b6000612bf06023836122ba565b9150612bfb82612b94565b604082019050919050565b60006020820190508181036000830152612c1f81612be3565b9050919050565b7f455243313135353a207472616e736665722063616c6c6572206973206e6f742060008201527f6f776e6572206e6f7220617070726f7665640000000000000000000000000000602082015250565b6000612c826032836122ba565b9150612c8d82612c26565b604082019050919050565b60006020820190508181036000830152612cb181612c75565b9050919050565b7f416363657373436f6e74726f6c3a2063616e206f6e6c792072656e6f756e636560008201527f20726f6c657320666f722073656c660000000000000000000000000000000000602082015250565b6000612d14602f836122ba565b9150612d1f82612cb8565b604082019050919050565b60006020820190508181036000830152612d4381612d07565b9050919050565b7f455243313135353a206163636f756e747320616e6420696473206c656e67746860008201527f206d69736d617463680000000000000000000000000000000000000000000000602082015250565b6000612da66029836122ba565b9150612db182612d4a565b604082019050919050565b60006020820190508181036000830152612dd581612d99565b9050919050565b7f4e487b7100000000000000000000000000000000000000000000000000000000600052603260045260246000fd5b7f4e487b7100000000000000000000000000000000000000000000000000000000600052601160045260246000fd5b6000612e4582611f98565b91507fffffffffffffffffffffffffffffffffffffffffffffffffffffffffffffffff821415612e7857612e77612e0b565b5b600182019050919050565b7f455243313135353a2063616c6c6572206973206e6f74206f776e6572206e6f7260008201527f20617070726f7665640000000000000000000000000000000000000000000000602082015250565b6000612edf6029836122ba565b9150612eea82612e83565b604082019050919050565b60006020820190508181036000830152612f0e81612ed2565b9050919050565b7f455243313135353a206d696e7420746f20746865207a65726f2061646472657360008201527f7300000000000000000000000000000000000000000000000000000000000000602082015250565b6000612f716021836122ba565b9150612f7c82612f15565b604082019050919050565b60006020820190508181036000830152612fa081612f64565b9050919050565b6000612fb282611f98565b9150612fbd83611f98565b9250827fffffffffffffffffffffffffffffffffffffffffffffffffffffffffffffffff03821115612ff257612ff1612e0b565b5b828201905092915050565b6000604082019050613012600083018561200e565b61301f602083018461200e565b9392505050565b7f455243313135353a2069647320616e6420616d6f756e7473206c656e6774682060008201527f6d69736d61746368000000000000000000000000000000000000000000000000602082015250565b60006130826028836122ba565b915061308d82613026565b604082019050919050565b600060208201905081810360008301526130b181613075565b9050919050565b7f455243313135353a207472616e7366657220746f20746865207a65726f20616460008201527f6472657373000000000000000000000000000000000000000000000000000000602082015250565b60006131146025836122ba565b915061311f826130b8565b604082019050919050565b6000602082019050818103600083015261314381613107565b9050919050565b7f455243313135353a20696e73756666696369656e742062616c616e636520666f60008201527f72207472616e7366657200000000000000000000000000000000000000000000602082015250565b60006131a6602a836122ba565b91506131b18261314a565b604082019050919050565b600060208201905081810360008301526131d581613199565b9050919050565b600060408201905081810360008301526131f6818561284c565b9050818103602083015261320a818461284c565b90509392505050565b600081905092915050565b7f416363657373436f6e74726f6c3a206163636f756e7420000000000000000000600082015250565b6000613254601783613213565b915061325f8261321e565b601782019050919050565b6000613275826122af565b61327f8185613213565b935061328f8185602086016122cb565b80840191505092915050565b7f206973206d697373696e6720726f6c6520000000000000000000000000000000600082015250565b60006132d1601183613213565b91506132dc8261329b565b601182019050919050565b60006132f282613247565b91506132fe828561326a565b9150613309826132c4565b9150613315828461326a565b91508190509392505050565b7f455243313135353a2073657474696e6720617070726f76616c2073746174757360008201527f20666f722073656c660000000000000000000000000000000000000000000000602082015250565b600061337d6029836122ba565b915061338882613321565b604082019050919050565b600060208201905081810360008301526133ac81613370565b9050919050565b6133bc81611f5a565b82525050565b600081519050919050565b600082825260208201905092915050565b60006133e9826133c2565b6133f381856133cd565b93506134038185602086016122cb565b61340c816120fd565b840191505092915050565b600060a08201905061342c60008301886133b3565b61343960208301876133b3565b613446604083018661200e565b613453606083018561200e565b818103608083015261346581846133de565b90509695505050505050565b60008151905061348081612064565b92915050565b60006020828403121561349c5761349b611f30565b5b60006134aa84828501613471565b91505092915050565b60008160e01c9050919050565b600060033d11156134df5760046000803e6134dc6000516134b3565b90505b90565b600060443d10156134f257613575565b6134fa611f26565b60043d036004823e80513d602482011167ffffffffffffffff82111715613522575050613575565b808201805167ffffffffffffffff8111156135405750505050613575565b80602083010160043d03850181111561355d575050505050613575565b61356c8260200185018661213d565b82955050505050505b90565b7f455243313135353a207472616e7366657220746f206e6f6e204552433131353560008201527f526563656976657220696d706c656d656e746572000000000000000000000000602082015250565b60006135d46034836122ba565b91506135df82613578565b604082019050919050565b60006020820190508181036000830152613603816135c7565b9050919050565b7f455243313135353a204552433131353552656365697665722072656a6563746560008201527f6420746f6b656e73000000000000000000000000000000000000000000000000602082015250565b60006136666028836122ba565b91506136718261360a565b604082019050919050565b6000602082019050818103600083015261369581613659565b9050919050565b600060a0820190506136b160008301886133b3565b6136be60208301876133b3565b81810360408301526136d0818661284c565b905081810360608301526136e4818561284c565b905081810360808301526136f881846133de565b90509695505050505050565b600061370f82611f98565b915061371a83611f98565b9250817fffffffffffffffffffffffffffffffffffffffffffffffffffffffffffffffff048311821515161561375357613752612e0b565b5b828202905092915050565b600061376982611f98565b9150600082141561377d5761377c612e0b565b5b600182039050919050565b7f537472696e67733a20686578206c656e67746820696e73756666696369656e74600082015250565b60006137be6020836122ba565b91506137c982613788565b602082019050919050565b600060208201905081810360008301526137ed816137b1565b905091905056fea2646970667358221220910f6ce02c85c62f186e8bcaf98e2772c6814528de54c16896c9ef8e053c78da64736f6c634300080b0033",
  "devdoc": {
    "kind": "dev",
    "methods": {
      "balanceOf(address,uint256)": {
        "details": "See {IERC1155-balanceOf}. Requirements: - `account` cannot be the zero address."
      },
      "balanceOfBatch(address[],uint256[])": {
        "details": "See {IERC1155-balanceOfBatch}. Requirements: - `accounts` and `ids` must have the same length."
      },
      "getRoleAdmin(bytes32)": {
        "details": "Returns the admin role that controls `role`. See {grantRole} and {revokeRole}. To change a role's admin, use {_setRoleAdmin}."
      },
      "grantRole(bytes32,address)": {
        "details": "Grants `role` to `account`. If `account` had not been already granted `role`, emits a {RoleGranted} event. Requirements: - the caller must have ``role``'s admin role."
      },
      "hasRole(bytes32,address)": {
        "details": "Returns `true` if `account` has been granted `role`."
      },
      "isApprovedForAll(address,address)": {
        "details": "See {IERC1155-isApprovedForAll}."
      },
      "renounceRole(bytes32,address)": {
        "details": "Revokes `role` from the calling account. Roles are often managed via {grantRole} and {revokeRole}: this function's purpose is to provide a mechanism for accounts to lose their privileges if they are compromised (such as when a trusted device is misplaced). If the calling account had been revoked `role`, emits a {RoleRevoked} event. Requirements: - the caller must be `account`."
      },
      "revokeRole(bytes32,address)": {
        "details": "Revokes `role` from `account`. If `account` had been granted `role`, emits a {RoleRevoked} event. Requirements: - the caller must have ``role``'s admin role."
      },
      "safeBatchTransferFrom(address,address,uint256[],uint256[],bytes)": {
        "details": "See {IERC1155-safeBatchTransferFrom}."
      },
      "safeTransferFrom(address,address,uint256,uint256,bytes)": {
        "details": "See {IERC1155-safeTransferFrom}."
      },
      "setApprovalForAll(address,bool)": {
        "details": "See {IERC1155-setApprovalForAll}."
      },
      "uri(uint256)": {
        "details": "See {IERC1155MetadataURI-uri}. This implementation returns the same URI for *all* token types. It relies on the token type ID substitution mechanism https://eips.ethereum.org/EIPS/eip-1155#metadata[defined in the EIP]. Clients calling this function must replace the `\\{id\\}` substring with the actual token type ID."
      }
    },
    "version": 1
  },
  "userdoc": {
    "kind": "user",
    "methods": {},
    "version": 1
  },
  "storageLayout": {
    "storage": [
      {
        "astId": 447,
        "contract": "contracts/MetarunCollection.sol:MetarunCollection",
        "label": "_balances",
        "offset": 0,
        "slot": "0",
        "type": "t_mapping(t_uint256,t_mapping(t_address,t_uint256))"
      },
      {
        "astId": 453,
        "contract": "contracts/MetarunCollection.sol:MetarunCollection",
        "label": "_operatorApprovals",
        "offset": 0,
        "slot": "1",
        "type": "t_mapping(t_address,t_mapping(t_address,t_bool))"
      },
      {
        "astId": 455,
        "contract": "contracts/MetarunCollection.sol:MetarunCollection",
        "label": "_uri",
        "offset": 0,
        "slot": "2",
        "type": "t_string_storage"
      },
      {
        "astId": 24,
        "contract": "contracts/MetarunCollection.sol:MetarunCollection",
        "label": "_roles",
        "offset": 0,
        "slot": "3",
        "type": "t_mapping(t_bytes32,t_struct(RoleData)19_storage)"
      }
    ],
    "types": {
      "t_address": {
        "encoding": "inplace",
        "label": "address",
        "numberOfBytes": "20"
      },
      "t_bool": {
        "encoding": "inplace",
        "label": "bool",
        "numberOfBytes": "1"
      },
      "t_bytes32": {
        "encoding": "inplace",
        "label": "bytes32",
        "numberOfBytes": "32"
      },
      "t_mapping(t_address,t_bool)": {
        "encoding": "mapping",
        "key": "t_address",
        "label": "mapping(address => bool)",
        "numberOfBytes": "32",
        "value": "t_bool"
      },
      "t_mapping(t_address,t_mapping(t_address,t_bool))": {
        "encoding": "mapping",
        "key": "t_address",
        "label": "mapping(address => mapping(address => bool))",
        "numberOfBytes": "32",
        "value": "t_mapping(t_address,t_bool)"
      },
      "t_mapping(t_address,t_uint256)": {
        "encoding": "mapping",
        "key": "t_address",
        "label": "mapping(address => uint256)",
        "numberOfBytes": "32",
        "value": "t_uint256"
      },
      "t_mapping(t_bytes32,t_struct(RoleData)19_storage)": {
        "encoding": "mapping",
        "key": "t_bytes32",
        "label": "mapping(bytes32 => struct AccessControl.RoleData)",
        "numberOfBytes": "32",
        "value": "t_struct(RoleData)19_storage"
      },
      "t_mapping(t_uint256,t_mapping(t_address,t_uint256))": {
        "encoding": "mapping",
        "key": "t_uint256",
        "label": "mapping(uint256 => mapping(address => uint256))",
        "numberOfBytes": "32",
        "value": "t_mapping(t_address,t_uint256)"
      },
      "t_string_storage": {
        "encoding": "bytes",
        "label": "string",
        "numberOfBytes": "32"
      },
      "t_struct(RoleData)19_storage": {
        "encoding": "inplace",
        "label": "struct AccessControl.RoleData",
        "members": [
          {
            "astId": 16,
            "contract": "contracts/MetarunCollection.sol:MetarunCollection",
            "label": "members",
            "offset": 0,
            "slot": "0",
            "type": "t_mapping(t_address,t_bool)"
          },
          {
            "astId": 18,
            "contract": "contracts/MetarunCollection.sol:MetarunCollection",
            "label": "adminRole",
            "offset": 0,
            "slot": "1",
            "type": "t_bytes32"
          }
        ],
        "numberOfBytes": "64"
      },
      "t_uint256": {
        "encoding": "inplace",
        "label": "uint256",
        "numberOfBytes": "32"
      }
    }
  }
}