{
  "address": "0x465cDf2385F00D8EcaC965Bafb12539F08F06c7d",
  "abi": [
    {
      "inputs": [
        {
          "internalType": "address",
          "name": "_token",
          "type": "address"
        }
      ],
      "stateMutability": "nonpayable",
      "type": "constructor"
    },
    {
      "anonymous": false,
      "inputs": [
        {
          "indexed": true,
          "internalType": "bytes32",
          "name": "orderHash",
          "type": "bytes32"
        },
        {
          "indexed": true,
          "internalType": "address",
          "name": "seller",
          "type": "address"
        },
        {
          "indexed": true,
          "internalType": "address",
          "name": "buyer",
          "type": "address"
        },
        {
          "indexed": false,
          "internalType": "uint256",
          "name": "tokenId",
          "type": "uint256"
        },
        {
          "indexed": false,
          "internalType": "uint256",
          "name": "amount",
          "type": "uint256"
        },
        {
          "indexed": false,
          "internalType": "uint256",
          "name": "price",
          "type": "uint256"
        }
      ],
      "name": "Purchase",
      "type": "event"
    },
    {
      "inputs": [
        {
          "components": [
            {
              "internalType": "address payable",
              "name": "seller",
              "type": "address"
            },
            {
              "internalType": "uint256",
              "name": "tokenId",
              "type": "uint256"
            },
            {
              "internalType": "uint256",
              "name": "amount",
              "type": "uint256"
            },
            {
              "internalType": "uint256",
              "name": "expirationTime",
              "type": "uint256"
            },
            {
              "internalType": "uint256",
              "name": "price",
              "type": "uint256"
            },
            {
              "internalType": "uint256",
              "name": "salt",
              "type": "uint256"
            }
          ],
          "internalType": "struct MetarunExchange.SellOrder",
          "name": "sellOrder",
          "type": "tuple"
        },
        {
          "internalType": "bytes",
          "name": "signature",
          "type": "bytes"
        }
      ],
      "name": "buy",
      "outputs": [],
      "stateMutability": "payable",
      "type": "function"
    },
    {
      "inputs": [
        {
          "components": [
            {
              "internalType": "address payable",
              "name": "seller",
              "type": "address"
            },
            {
              "internalType": "uint256",
              "name": "tokenId",
              "type": "uint256"
            },
            {
              "internalType": "uint256",
              "name": "amount",
              "type": "uint256"
            },
            {
              "internalType": "uint256",
              "name": "expirationTime",
              "type": "uint256"
            },
            {
              "internalType": "uint256",
              "name": "price",
              "type": "uint256"
            },
            {
              "internalType": "uint256",
              "name": "salt",
              "type": "uint256"
            }
          ],
          "internalType": "struct MetarunExchange.SellOrder",
          "name": "sellOrder",
          "type": "tuple"
        }
      ],
      "name": "hashSellOrder",
      "outputs": [
        {
          "internalType": "bytes32",
          "name": "",
          "type": "bytes32"
        }
      ],
      "stateMutability": "view",
      "type": "function"
    },
    {
      "inputs": [],
      "name": "token",
      "outputs": [
        {
          "internalType": "contract IERC1155",
          "name": "",
          "type": "address"
        }
      ],
      "stateMutability": "view",
      "type": "function"
    }
  ],
  "transactionHash": "0x96d370b51cdfd9736e008ceadb466fdbb1a9950702380a0c1ebee08aa58d0e02",
  "args": [
    "0xEF612d98a32fE1b31cA427F2fC8390263FA88F44"
  ],
  "numDeployments": 1,
  "solcInputHash": "748eaff5b8025a1500de438a0d1a5ee7",
  "bytecode": "0x6101406040523480156200001257600080fd5b5060405162001a0f38038062001a0f8339818101604052810190620000389190620002b5565b6040518060400160405280600c81526020017f6d65746172756e2e67616d6500000000000000000000000000000000000000008152506040518060400160405280600381526020017f302e31000000000000000000000000000000000000000000000000000000000081525060008280519060200120905060008280519060200120905060007f8b73c3c69bb8fe3d512ecc4cf759cc79239f7b179b0ffacaa9a75d522b39400f90508260e081815250508161010081815250504660a081815250506200010d8184846200020f60201b60201c565b608081815250503073ffffffffffffffffffffffffffffffffffffffff1660c08173ffffffffffffffffffffffffffffffffffffffff16815250508061012081815250505050505050600073ffffffffffffffffffffffffffffffffffffffff168173ffffffffffffffffffffffffffffffffffffffff1603620001c8576040517f08c379a0000000000000000000000000000000000000000000000000000000008152600401620001bf9062000348565b60405180910390fd5b806000806101000a81548173ffffffffffffffffffffffffffffffffffffffff021916908373ffffffffffffffffffffffffffffffffffffffff160217905550506200040e565b600083838346306040516020016200022c959493929190620003b1565b6040516020818303038152906040528051906020012090509392505050565b600080fd5b600073ffffffffffffffffffffffffffffffffffffffff82169050919050565b60006200027d8262000250565b9050919050565b6200028f8162000270565b81146200029b57600080fd5b50565b600081519050620002af8162000284565b92915050565b600060208284031215620002ce57620002cd6200024b565b5b6000620002de848285016200029e565b91505092915050565b600082825260208201905092915050565b7f746f6b656e20616464726573732063616e6e6f74206265207a65726f00000000600082015250565b600062000330601c83620002e7565b91506200033d82620002f8565b602082019050919050565b60006020820190508181036000830152620003638162000321565b9050919050565b6000819050919050565b6200037f816200036a565b82525050565b6000819050919050565b6200039a8162000385565b82525050565b620003ab8162000270565b82525050565b600060a082019050620003c8600083018862000374565b620003d7602083018762000374565b620003e6604083018662000374565b620003f560608301856200038f565b620004046080830184620003a0565b9695505050505050565b60805160a05160c05160e05161010051610120516115b16200045e60003960006105e10152600061062301526000610602015260006105370152600061058d015260006105b601526115b16000f3fe6080604052600436106100345760003560e01c80635e53f14514610039578063a76c881614610076578063fc0c546a14610092575b600080fd5b34801561004557600080fd5b50610060600480360381019061005b9190610c3a565b6100bd565b60405161006d9190610c80565b60405180910390f35b610090600480360381019061008b9190610d55565b610144565b005b34801561009e57600080fd5b506100a76104ce565b6040516100b49190610e10565b60405180910390f35b6000807f506f2e315ad03a56810fd6bd4798a950bff51cd12e2a1f40bae2969ad4b6cd699050600081846000015185602001518660400151876060015188608001518960a0015160405160200161011a9796959493929190610e49565b60405160208183030381529060405280519060200120905061013b816104f2565b92505050919050565b600061014f836100bd565b9050600061015d828461050c565b9050600073ffffffffffffffffffffffffffffffffffffffff168173ffffffffffffffffffffffffffffffffffffffff16036101ce576040517f08c379a00000000000000000000000000000000000000000000000000000000081526004016101c590610f15565b60405180910390fd5b836000015173ffffffffffffffffffffffffffffffffffffffff168173ffffffffffffffffffffffffffffffffffffffff1614610240576040517f08c379a000000000000000000000000000000000000000000000000000000000815260040161023790610f81565b60405180910390fd5b83608001513414610286576040517f08c379a000000000000000000000000000000000000000000000000000000000815260040161027d90610fed565b60405180910390fd5b6001600083815260200190815260200160002060009054906101000a900460ff16156102e7576040517f08c379a00000000000000000000000000000000000000000000000000000000081526004016102de90611059565b60405180910390fd5b8360600151421061032d576040517f08c379a0000000000000000000000000000000000000000000000000000000008152600401610324906110c5565b60405180910390fd5b6000610338856100bd565b90503373ffffffffffffffffffffffffffffffffffffffff16856000015173ffffffffffffffffffffffffffffffffffffffff16827f39d7ae3c050edb013db51816405491a59692cc2bae0e948a82fa619991fadaa8886020015189604001518a608001516040516103ac939291906110e5565b60405180910390a460008054906101000a900473ffffffffffffffffffffffffffffffffffffffff1673ffffffffffffffffffffffffffffffffffffffff1663f242432a866000015133886020015189604001516040518563ffffffff1660e01b815260040161041f9493929190611195565b600060405180830381600087803b15801561043957600080fd5b505af115801561044d573d6000803e3d6000fd5b50505050846000015173ffffffffffffffffffffffffffffffffffffffff166108fc349081150290604051600060405180830381858888f1935050505015801561049b573d6000803e3d6000fd5b50600180600085815260200190815260200160002060006101000a81548160ff0219169083151502179055505050505050565b60008054906101000a900473ffffffffffffffffffffffffffffffffffffffff1681565b60006105056104ff610533565b8361064d565b9050919050565b600080600061051b8585610680565b9150915061052881610701565b819250505092915050565b60007f000000000000000000000000000000000000000000000000000000000000000073ffffffffffffffffffffffffffffffffffffffff163073ffffffffffffffffffffffffffffffffffffffff161480156105af57507f000000000000000000000000000000000000000000000000000000000000000046145b156105dc577f0000000000000000000000000000000000000000000000000000000000000000905061064a565b6106477f00000000000000000000000000000000000000000000000000000000000000007f00000000000000000000000000000000000000000000000000000000000000007f00000000000000000000000000000000000000000000000000000000000000006108cd565b90505b90565b60008282604051602001610662929190611265565b60405160208183030381529060405280519060200120905092915050565b60008060418351036106c15760008060006020860151925060408601519150606086015160001a90506106b587828585610907565b945094505050506106fa565b60408351036106f15760008060208501519150604085015190506106e6868383610a13565b9350935050506106fa565b60006002915091505b9250929050565b600060048111156107155761071461129c565b5b8160048111156107285761072761129c565b5b03156108ca57600160048111156107425761074161129c565b5b8160048111156107555761075461129c565b5b03610795576040517f08c379a000000000000000000000000000000000000000000000000000000000815260040161078c90611317565b60405180910390fd5b600260048111156107a9576107a861129c565b5b8160048111156107bc576107bb61129c565b5b036107fc576040517f08c379a00000000000000000000000000000000000000000000000000000000081526004016107f390611383565b60405180910390fd5b600360048111156108105761080f61129c565b5b8160048111156108235761082261129c565b5b03610863576040517f08c379a000000000000000000000000000000000000000000000000000000000815260040161085a90611415565b60405180910390fd5b6004808111156108765761087561129c565b5b8160048111156108895761088861129c565b5b036108c9576040517f08c379a00000000000000000000000000000000000000000000000000000000081526004016108c0906114a7565b60405180910390fd5b5b50565b600083838346306040516020016108e89594939291906114c7565b6040516020818303038152906040528051906020012090509392505050565b6000807f7fffffffffffffffffffffffffffffff5d576e7357a4501ddfe92f46681b20a08360001c1115610942576000600391509150610a0a565b601b8560ff161415801561095a5750601c8560ff1614155b1561096c576000600491509150610a0a565b6000600187878787604051600081526020016040526040516109919493929190611536565b6020604051602081039080840390855afa1580156109b3573d6000803e3d6000fd5b505050602060405103519050600073ffffffffffffffffffffffffffffffffffffffff168173ffffffffffffffffffffffffffffffffffffffff1603610a0157600060019250925050610a0a565b80600092509250505b94509492505050565b6000806000807f7fffffffffffffffffffffffffffffffffffffffffffffffffffffffffffffff85169150601b8560ff1c019050610a5387828885610907565b935093505050935093915050565b6000604051905090565b600080fd5b600080fd5b600080fd5b6000601f19601f8301169050919050565b7f4e487b7100000000000000000000000000000000000000000000000000000000600052604160045260246000fd5b610ac382610a7a565b810181811067ffffffffffffffff82111715610ae257610ae1610a8b565b5b80604052505050565b6000610af5610a61565b9050610b018282610aba565b919050565b600073ffffffffffffffffffffffffffffffffffffffff82169050919050565b6000610b3182610b06565b9050919050565b610b4181610b26565b8114610b4c57600080fd5b50565b600081359050610b5e81610b38565b92915050565b6000819050919050565b610b7781610b64565b8114610b8257600080fd5b50565b600081359050610b9481610b6e565b92915050565b600060c08284031215610bb057610baf610a75565b5b610bba60c0610aeb565b90506000610bca84828501610b4f565b6000830152506020610bde84828501610b85565b6020830152506040610bf284828501610b85565b6040830152506060610c0684828501610b85565b6060830152506080610c1a84828501610b85565b60808301525060a0610c2e84828501610b85565b60a08301525092915050565b600060c08284031215610c5057610c4f610a6b565b5b6000610c5e84828501610b9a565b91505092915050565b6000819050919050565b610c7a81610c67565b82525050565b6000602082019050610c956000830184610c71565b92915050565b600080fd5b600080fd5b600067ffffffffffffffff821115610cc057610cbf610a8b565b5b610cc982610a7a565b9050602081019050919050565b82818337600083830152505050565b6000610cf8610cf384610ca5565b610aeb565b905082815260208101848484011115610d1457610d13610ca0565b5b610d1f848285610cd6565b509392505050565b600082601f830112610d3c57610d3b610c9b565b5b8135610d4c848260208601610ce5565b91505092915050565b60008060e08385031215610d6c57610d6b610a6b565b5b6000610d7a85828601610b9a565b92505060c083013567ffffffffffffffff811115610d9b57610d9a610a70565b5b610da785828601610d27565b9150509250929050565b6000819050919050565b6000610dd6610dd1610dcc84610b06565b610db1565b610b06565b9050919050565b6000610de882610dbb565b9050919050565b6000610dfa82610ddd565b9050919050565b610e0a81610def565b82525050565b6000602082019050610e256000830184610e01565b92915050565b610e3481610b26565b82525050565b610e4381610b64565b82525050565b600060e082019050610e5e600083018a610c71565b610e6b6020830189610e2b565b610e786040830188610e3a565b610e856060830187610e3a565b610e926080830186610e3a565b610e9f60a0830185610e3a565b610eac60c0830184610e3a565b98975050505050505050565b600082825260208201905092915050565b7f4241445f5349474e415455524500000000000000000000000000000000000000600082015250565b6000610eff600d83610eb8565b9150610f0a82610ec9565b602082019050919050565b60006020820190508181036000830152610f2e81610ef2565b9050919050565b7f424144205349474e455200000000000000000000000000000000000000000000600082015250565b6000610f6b600a83610eb8565b9150610f7682610f35565b602082019050919050565b60006020820190508181036000830152610f9a81610f5e565b9050919050565b7f4241442056414c55450000000000000000000000000000000000000000000000600082015250565b6000610fd7600983610eb8565b9150610fe282610fa1565b602082019050919050565b6000602082019050818103600083015261100681610fca565b9050919050565b7f414c52454144595f444f4e450000000000000000000000000000000000000000600082015250565b6000611043600c83610eb8565b915061104e8261100d565b602082019050919050565b6000602082019050818103600083015261107281611036565b9050919050565b7f4558504952454400000000000000000000000000000000000000000000000000600082015250565b60006110af600783610eb8565b91506110ba82611079565b602082019050919050565b600060208201905081810360008301526110de816110a2565b9050919050565b60006060820190506110fa6000830186610e3a565b6111076020830185610e3a565b6111146040830184610e3a565b949350505050565b600061112782610ddd565b9050919050565b6111378161111c565b82525050565b600061114882610b06565b9050919050565b6111588161113d565b82525050565b600082825260208201905092915050565b50565b600061117f60008361115e565b915061118a8261116f565b600082019050919050565b600060a0820190506111aa600083018761112e565b6111b7602083018661114f565b6111c46040830185610e3a565b6111d16060830184610e3a565b81810360808301526111e281611172565b905095945050505050565b600081905092915050565b7f1901000000000000000000000000000000000000000000000000000000000000600082015250565b600061122e6002836111ed565b9150611239826111f8565b600282019050919050565b6000819050919050565b61125f61125a82610c67565b611244565b82525050565b600061127082611221565b915061127c828561124e565b60208201915061128c828461124e565b6020820191508190509392505050565b7f4e487b7100000000000000000000000000000000000000000000000000000000600052602160045260246000fd5b7f45434453413a20696e76616c6964207369676e61747572650000000000000000600082015250565b6000611301601883610eb8565b915061130c826112cb565b602082019050919050565b60006020820190508181036000830152611330816112f4565b9050919050565b7f45434453413a20696e76616c6964207369676e6174757265206c656e67746800600082015250565b600061136d601f83610eb8565b915061137882611337565b602082019050919050565b6000602082019050818103600083015261139c81611360565b9050919050565b7f45434453413a20696e76616c6964207369676e6174757265202773272076616c60008201527f7565000000000000000000000000000000000000000000000000000000000000602082015250565b60006113ff602283610eb8565b915061140a826113a3565b604082019050919050565b6000602082019050818103600083015261142e816113f2565b9050919050565b7f45434453413a20696e76616c6964207369676e6174757265202776272076616c60008201527f7565000000000000000000000000000000000000000000000000000000000000602082015250565b6000611491602283610eb8565b915061149c82611435565b604082019050919050565b600060208201905081810360008301526114c081611484565b9050919050565b600060a0820190506114dc6000830188610c71565b6114e96020830187610c71565b6114f66040830186610c71565b6115036060830185610e3a565b611510608083018461114f565b9695505050505050565b600060ff82169050919050565b6115308161151a565b82525050565b600060808201905061154b6000830187610c71565b6115586020830186611527565b6115656040830185610c71565b6115726060830184610c71565b9594505050505056fea26469706673582212206f685ae2750ab3ea38712f7076f0f41629f6c19c2bdaab0da0091d4745cca12264736f6c634300080d0033",
  "devdoc": {
    "details": "Ensures the sale of tokens (exchanging them on Ether) by matching orders",
    "events": {
      "Purchase(bytes32,address,address,uint256,uint256,uint256)": {
        "details": "Gets emitted on token purchase"
      }
    },
    "kind": "dev",
    "methods": {},
    "title": "Metarun ERC-1155 exchange",
    "version": 1
  },
  "userdoc": {
    "kind": "user",
    "methods": {},
    "version": 1
  },
  "storageLayout": {
    "storage": [
      {
        "astId": 7217,
        "contract": "contracts/MetarunExchange.sol:MetarunExchange",
        "label": "token",
        "offset": 0,
        "slot": "0",
        "type": "t_contract(IERC1155)3527"
      },
      {
        "astId": 7221,
        "contract": "contracts/MetarunExchange.sol:MetarunExchange",
        "label": "sellOrderPerformed",
        "offset": 0,
        "slot": "1",
        "type": "t_mapping(t_bytes32,t_bool)"
      }
    ],
    "types": {
      "t_bool": {
        "encoding": "inplace",
        "label": "bool",
        "numberOfBytes": "1"
      },
      "t_bytes32": {
        "encoding": "inplace",
        "label": "bytes32",
        "numberOfBytes": "32"
      },
      "t_contract(IERC1155)3527": {
        "encoding": "inplace",
        "label": "contract IERC1155",
        "numberOfBytes": "20"
      },
      "t_mapping(t_bytes32,t_bool)": {
        "encoding": "mapping",
        "key": "t_bytes32",
        "label": "mapping(bytes32 => bool)",
        "numberOfBytes": "32",
        "value": "t_bool"
      }
    }
  }
}