{
  "address": "0x3dc2065905580be720918FFe7100E377669Da309",
  "abi": [
    {
      "anonymous": false,
      "inputs": [
        {
          "indexed": true,
          "internalType": "address",
          "name": "account",
          "type": "address"
        },
        {
          "indexed": true,
          "internalType": "address",
          "name": "operator",
          "type": "address"
        },
        {
          "indexed": false,
          "internalType": "bool",
          "name": "approved",
          "type": "bool"
        }
      ],
      "name": "ApprovalForAll",
      "type": "event"
    },
    {
      "anonymous": false,
      "inputs": [
        {
          "indexed": true,
          "internalType": "bytes32",
          "name": "role",
          "type": "bytes32"
        },
        {
          "indexed": true,
          "internalType": "bytes32",
          "name": "previousAdminRole",
          "type": "bytes32"
        },
        {
          "indexed": true,
          "internalType": "bytes32",
          "name": "newAdminRole",
          "type": "bytes32"
        }
      ],
      "name": "RoleAdminChanged",
      "type": "event"
    },
    {
      "anonymous": false,
      "inputs": [
        {
          "indexed": true,
          "internalType": "bytes32",
          "name": "role",
          "type": "bytes32"
        },
        {
          "indexed": true,
          "internalType": "address",
          "name": "account",
          "type": "address"
        },
        {
          "indexed": true,
          "internalType": "address",
          "name": "sender",
          "type": "address"
        }
      ],
      "name": "RoleGranted",
      "type": "event"
    },
    {
      "anonymous": false,
      "inputs": [
        {
          "indexed": true,
          "internalType": "bytes32",
          "name": "role",
          "type": "bytes32"
        },
        {
          "indexed": true,
          "internalType": "address",
          "name": "account",
          "type": "address"
        },
        {
          "indexed": true,
          "internalType": "address",
          "name": "sender",
          "type": "address"
        }
      ],
      "name": "RoleRevoked",
      "type": "event"
    },
    {
      "anonymous": false,
      "inputs": [
        {
          "indexed": true,
          "internalType": "address",
          "name": "operator",
          "type": "address"
        },
        {
          "indexed": true,
          "internalType": "address",
          "name": "from",
          "type": "address"
        },
        {
          "indexed": true,
          "internalType": "address",
          "name": "to",
          "type": "address"
        },
        {
          "indexed": false,
          "internalType": "uint256[]",
          "name": "ids",
          "type": "uint256[]"
        },
        {
          "indexed": false,
          "internalType": "uint256[]",
          "name": "values",
          "type": "uint256[]"
        }
      ],
      "name": "TransferBatch",
      "type": "event"
    },
    {
      "anonymous": false,
      "inputs": [
        {
          "indexed": true,
          "internalType": "address",
          "name": "operator",
          "type": "address"
        },
        {
          "indexed": true,
          "internalType": "address",
          "name": "from",
          "type": "address"
        },
        {
          "indexed": true,
          "internalType": "address",
          "name": "to",
          "type": "address"
        },
        {
          "indexed": false,
          "internalType": "uint256",
          "name": "id",
          "type": "uint256"
        },
        {
          "indexed": false,
          "internalType": "uint256",
          "name": "value",
          "type": "uint256"
        }
      ],
      "name": "TransferSingle",
      "type": "event"
    },
    {
      "anonymous": false,
      "inputs": [
        {
          "indexed": false,
          "internalType": "string",
          "name": "value",
          "type": "string"
        },
        {
          "indexed": true,
          "internalType": "uint256",
          "name": "id",
          "type": "uint256"
        }
      ],
      "name": "URI",
      "type": "event"
    },
    {
      "inputs": [],
      "name": "ARTIFACT_TOKEN_KIND",
      "outputs": [
        {
          "internalType": "uint256",
          "name": "",
          "type": "uint256"
        }
      ],
      "stateMutability": "view",
      "type": "function"
    },
    {
      "inputs": [],
      "name": "BRONZE_GIVEAWAY_KIND",
      "outputs": [
        {
          "internalType": "uint256",
          "name": "",
          "type": "uint256"
        }
      ],
      "stateMutability": "view",
      "type": "function"
    },
    {
      "inputs": [],
      "name": "BRONZE_TICKET_KIND",
      "outputs": [
        {
          "internalType": "uint256",
          "name": "",
          "type": "uint256"
        }
      ],
      "stateMutability": "view",
      "type": "function"
    },
    {
      "inputs": [],
      "name": "COLLISION_DAMAGE_TOKEN_ID",
      "outputs": [
        {
          "internalType": "uint256",
          "name": "",
          "type": "uint256"
        }
      ],
      "stateMutability": "view",
      "type": "function"
    },
    {
      "inputs": [],
      "name": "COMMON_SKIN_KIND",
      "outputs": [
        {
          "internalType": "uint256",
          "name": "",
          "type": "uint256"
        }
      ],
      "stateMutability": "view",
      "type": "function"
    },
    {
      "inputs": [],
      "name": "CRAFTSMAN_CHARACTER_KIND",
      "outputs": [
        {
          "internalType": "uint256",
          "name": "",
          "type": "uint256"
        }
      ],
      "stateMutability": "view",
      "type": "function"
    },
    {
      "inputs": [],
      "name": "DEFAULT_ADMIN_ROLE",
      "outputs": [
        {
          "internalType": "bytes32",
          "name": "",
          "type": "bytes32"
        }
      ],
      "stateMutability": "view",
      "type": "function"
    },
    {
      "inputs": [],
      "name": "FIGHTER_CHARACTER_KIND",
      "outputs": [
        {
          "internalType": "uint256",
          "name": "",
          "type": "uint256"
        }
      ],
      "stateMutability": "view",
      "type": "function"
    },
    {
      "inputs": [],
      "name": "FUNGIBLE_TOKEN_KIND",
      "outputs": [
        {
          "internalType": "uint256",
          "name": "",
          "type": "uint256"
        }
      ],
      "stateMutability": "view",
      "type": "function"
    },
    {
      "inputs": [],
      "name": "GOLD_GIVEAWAY_KIND",
      "outputs": [
        {
          "internalType": "uint256",
          "name": "",
          "type": "uint256"
        }
      ],
      "stateMutability": "view",
      "type": "function"
    },
    {
      "inputs": [],
      "name": "GOLD_TICKET_KIND",
      "outputs": [
        {
          "internalType": "uint256",
          "name": "",
          "type": "uint256"
        }
      ],
      "stateMutability": "view",
      "type": "function"
    },
    {
      "inputs": [],
      "name": "HEALTH_TOKEN_ID",
      "outputs": [
        {
          "internalType": "uint256",
          "name": "",
          "type": "uint256"
        }
      ],
      "stateMutability": "view",
      "type": "function"
    },
    {
      "inputs": [],
      "name": "MANA_TOKEN_ID",
      "outputs": [
        {
          "internalType": "uint256",
          "name": "",
          "type": "uint256"
        }
      ],
      "stateMutability": "view",
      "type": "function"
    },
    {
      "inputs": [],
      "name": "MINTER_ROLE",
      "outputs": [
        {
          "internalType": "bytes32",
          "name": "",
          "type": "bytes32"
        }
      ],
      "stateMutability": "view",
      "type": "function"
    },
    {
      "inputs": [],
      "name": "MYTHICAL_SKIN_KIND",
      "outputs": [
        {
          "internalType": "uint256",
          "name": "",
          "type": "uint256"
        }
      ],
      "stateMutability": "view",
      "type": "function"
    },
    {
      "inputs": [],
      "name": "OPAL_TOKEN_ID",
      "outputs": [
        {
          "internalType": "uint256",
          "name": "",
          "type": "uint256"
        }
      ],
      "stateMutability": "view",
      "type": "function"
    },
    {
      "inputs": [],
      "name": "PET_TOKEN_KIND",
      "outputs": [
        {
          "internalType": "uint256",
          "name": "",
          "type": "uint256"
        }
      ],
      "stateMutability": "view",
      "type": "function"
    },
    {
      "inputs": [],
      "name": "RARE_SKIN_KIND",
      "outputs": [
        {
          "internalType": "uint256",
          "name": "",
          "type": "uint256"
        }
      ],
      "stateMutability": "view",
      "type": "function"
    },
    {
      "inputs": [],
      "name": "SETTER_ROLE",
      "outputs": [
        {
          "internalType": "bytes32",
          "name": "",
          "type": "bytes32"
        }
      ],
      "stateMutability": "view",
      "type": "function"
    },
    {
      "inputs": [],
      "name": "SILVER_GIVEAWAY_KIND",
      "outputs": [
        {
          "internalType": "uint256",
          "name": "",
          "type": "uint256"
        }
      ],
      "stateMutability": "view",
      "type": "function"
    },
    {
      "inputs": [],
      "name": "SILVER_TICKET_KIND",
      "outputs": [
        {
          "internalType": "uint256",
          "name": "",
          "type": "uint256"
        }
      ],
      "stateMutability": "view",
      "type": "function"
    },
    {
      "inputs": [],
      "name": "SPEED_TOKEN_ID",
      "outputs": [
        {
          "internalType": "uint256",
          "name": "",
          "type": "uint256"
        }
      ],
      "stateMutability": "view",
      "type": "function"
    },
    {
      "inputs": [],
      "name": "SPRINTER_CHARACTER_KIND",
      "outputs": [
        {
          "internalType": "uint256",
          "name": "",
          "type": "uint256"
        }
      ],
      "stateMutability": "view",
      "type": "function"
    },
    {
      "inputs": [
        {
          "internalType": "address",
          "name": "account",
          "type": "address"
        },
        {
          "internalType": "uint256",
          "name": "id",
          "type": "uint256"
        }
      ],
      "name": "balanceOf",
      "outputs": [
        {
          "internalType": "uint256",
          "name": "",
          "type": "uint256"
        }
      ],
      "stateMutability": "view",
      "type": "function"
    },
    {
      "inputs": [
        {
          "internalType": "address[]",
          "name": "accounts",
          "type": "address[]"
        },
        {
          "internalType": "uint256[]",
          "name": "ids",
          "type": "uint256[]"
        }
      ],
      "name": "balanceOfBatch",
      "outputs": [
        {
          "internalType": "uint256[]",
          "name": "",
          "type": "uint256[]"
        }
      ],
      "stateMutability": "view",
      "type": "function"
    },
    {
      "inputs": [
        {
          "internalType": "address",
          "name": "account",
          "type": "address"
        },
        {
          "internalType": "uint256",
          "name": "id",
          "type": "uint256"
        },
        {
          "internalType": "uint256",
          "name": "value",
          "type": "uint256"
        }
      ],
      "name": "burn",
      "outputs": [],
      "stateMutability": "nonpayable",
      "type": "function"
    },
    {
      "inputs": [
        {
          "internalType": "address",
          "name": "account",
          "type": "address"
        },
        {
          "internalType": "uint256[]",
          "name": "ids",
          "type": "uint256[]"
        },
        {
          "internalType": "uint256[]",
          "name": "values",
          "type": "uint256[]"
        }
      ],
      "name": "burnBatch",
      "outputs": [],
      "stateMutability": "nonpayable",
      "type": "function"
    },
    {
      "inputs": [
        {
          "internalType": "uint256",
          "name": "id",
          "type": "uint256"
        }
      ],
      "name": "exists",
      "outputs": [
        {
          "internalType": "bool",
          "name": "",
          "type": "bool"
        }
      ],
      "stateMutability": "view",
      "type": "function"
    },
    {
      "inputs": [
        {
          "internalType": "uint256",
          "name": "id",
          "type": "uint256"
        }
      ],
      "name": "getKind",
      "outputs": [
        {
          "internalType": "uint256",
          "name": "",
          "type": "uint256"
        }
      ],
      "stateMutability": "pure",
      "type": "function"
    },
    {
      "inputs": [
        {
          "internalType": "uint256",
          "name": "kind",
          "type": "uint256"
        }
      ],
      "name": "getKindSupply",
      "outputs": [
        {
          "internalType": "uint256",
          "name": "",
          "type": "uint256"
        }
      ],
      "stateMutability": "view",
      "type": "function"
    },
    {
      "inputs": [
        {
          "internalType": "uint256",
          "name": "id",
          "type": "uint256"
        }
      ],
      "name": "getPerks",
      "outputs": [
        {
          "components": [
            {
              "internalType": "uint256",
              "name": "level",
              "type": "uint256"
            },
            {
              "internalType": "uint256",
              "name": "runs",
              "type": "uint256"
            },
            {
              "internalType": "uint256",
              "name": "wins",
              "type": "uint256"
            },
            {
              "internalType": "uint256",
              "name": "ability",
              "type": "uint256"
            },
            {
              "internalType": "uint256",
              "name": "health",
              "type": "uint256"
            },
            {
              "internalType": "uint256",
              "name": "mana",
              "type": "uint256"
            },
            {
              "internalType": "uint256",
              "name": "speed",
              "type": "uint256"
            },
            {
              "internalType": "uint256",
              "name": "collisionDamage",
              "type": "uint256"
            },
            {
              "internalType": "uint256",
              "name": "runsPerDayLimit",
              "type": "uint256"
            },
            {
              "internalType": "uint256",
              "name": "runsTotalLimit",
              "type": "uint256"
            }
          ],
          "internalType": "struct MetarunCollection.Perks",
          "name": "",
          "type": "tuple"
        }
      ],
      "stateMutability": "view",
      "type": "function"
    },
    {
      "inputs": [
        {
          "internalType": "bytes32",
          "name": "role",
          "type": "bytes32"
        }
      ],
      "name": "getRoleAdmin",
      "outputs": [
        {
          "internalType": "bytes32",
          "name": "",
          "type": "bytes32"
        }
      ],
      "stateMutability": "view",
      "type": "function"
    },
    {
      "inputs": [
        {
          "internalType": "bytes32",
          "name": "role",
          "type": "bytes32"
        },
        {
          "internalType": "address",
          "name": "account",
          "type": "address"
        }
      ],
      "name": "grantRole",
      "outputs": [],
      "stateMutability": "nonpayable",
      "type": "function"
    },
    {
      "inputs": [
        {
          "internalType": "bytes32",
          "name": "role",
          "type": "bytes32"
        },
        {
          "internalType": "address",
          "name": "account",
          "type": "address"
        }
      ],
      "name": "hasRole",
      "outputs": [
        {
          "internalType": "bool",
          "name": "",
          "type": "bool"
        }
      ],
      "stateMutability": "view",
      "type": "function"
    },
    {
      "inputs": [
        {
          "internalType": "string",
          "name": "uri",
          "type": "string"
        }
      ],
      "name": "initialize",
      "outputs": [],
      "stateMutability": "nonpayable",
      "type": "function"
    },
    {
      "inputs": [
        {
          "internalType": "address",
          "name": "account",
          "type": "address"
        },
        {
          "internalType": "address",
          "name": "operator",
          "type": "address"
        }
      ],
      "name": "isApprovedForAll",
      "outputs": [
        {
          "internalType": "bool",
          "name": "",
          "type": "bool"
        }
      ],
      "stateMutability": "view",
      "type": "function"
    },
    {
      "inputs": [
        {
          "internalType": "uint256",
          "name": "id",
          "type": "uint256"
        }
      ],
      "name": "isGameToken",
      "outputs": [
        {
          "internalType": "bool",
          "name": "",
          "type": "bool"
        }
      ],
      "stateMutability": "pure",
      "type": "function"
    },
    {
      "inputs": [
        {
          "internalType": "uint256",
          "name": "id",
          "type": "uint256"
        },
        {
          "internalType": "uint256",
          "name": "kind",
          "type": "uint256"
        }
      ],
      "name": "isKind",
      "outputs": [
        {
          "internalType": "bool",
          "name": "",
          "type": "bool"
        }
      ],
      "stateMutability": "pure",
      "type": "function"
    },
    {
      "inputs": [
        {
          "internalType": "address",
          "name": "to",
          "type": "address"
        },
        {
          "internalType": "uint256",
          "name": "id",
          "type": "uint256"
        },
        {
          "internalType": "uint256",
          "name": "amount",
          "type": "uint256"
        }
      ],
      "name": "mint",
      "outputs": [],
      "stateMutability": "nonpayable",
      "type": "function"
    },
    {
      "inputs": [
        {
          "internalType": "address",
          "name": "to",
          "type": "address"
        },
        {
          "internalType": "uint256",
          "name": "kind",
          "type": "uint256"
        },
        {
          "internalType": "uint256",
          "name": "count",
          "type": "uint256"
        }
      ],
      "name": "mintBatch",
      "outputs": [],
      "stateMutability": "nonpayable",
      "type": "function"
    },
    {
      "inputs": [
        {
          "internalType": "bytes32",
          "name": "role",
          "type": "bytes32"
        },
        {
          "internalType": "address",
          "name": "account",
          "type": "address"
        }
      ],
      "name": "renounceRole",
      "outputs": [],
      "stateMutability": "nonpayable",
      "type": "function"
    },
    {
      "inputs": [
        {
          "internalType": "bytes32",
          "name": "role",
          "type": "bytes32"
        },
        {
          "internalType": "address",
          "name": "account",
          "type": "address"
        }
      ],
      "name": "revokeRole",
      "outputs": [],
      "stateMutability": "nonpayable",
      "type": "function"
    },
    {
      "inputs": [
        {
          "internalType": "address",
          "name": "from",
          "type": "address"
        },
        {
          "internalType": "address",
          "name": "to",
          "type": "address"
        },
        {
          "internalType": "uint256[]",
          "name": "ids",
          "type": "uint256[]"
        },
        {
          "internalType": "uint256[]",
          "name": "amounts",
          "type": "uint256[]"
        },
        {
          "internalType": "bytes",
          "name": "data",
          "type": "bytes"
        }
      ],
      "name": "safeBatchTransferFrom",
      "outputs": [],
      "stateMutability": "nonpayable",
      "type": "function"
    },
    {
      "inputs": [
        {
          "internalType": "address",
          "name": "from",
          "type": "address"
        },
        {
          "internalType": "address",
          "name": "to",
          "type": "address"
        },
        {
          "internalType": "uint256",
          "name": "id",
          "type": "uint256"
        },
        {
          "internalType": "uint256",
          "name": "amount",
          "type": "uint256"
        },
        {
          "internalType": "bytes",
          "name": "data",
          "type": "bytes"
        }
      ],
      "name": "safeTransferFrom",
      "outputs": [],
      "stateMutability": "nonpayable",
      "type": "function"
    },
    {
      "inputs": [
        {
          "internalType": "address",
          "name": "operator",
          "type": "address"
        },
        {
          "internalType": "bool",
          "name": "approved",
          "type": "bool"
        }
      ],
      "name": "setApprovalForAll",
      "outputs": [],
      "stateMutability": "nonpayable",
      "type": "function"
    },
    {
      "inputs": [
        {
          "internalType": "uint256",
          "name": "id",
          "type": "uint256"
        },
        {
          "components": [
            {
              "internalType": "uint256",
              "name": "level",
              "type": "uint256"
            },
            {
              "internalType": "uint256",
              "name": "runs",
              "type": "uint256"
            },
            {
              "internalType": "uint256",
              "name": "wins",
              "type": "uint256"
            },
            {
              "internalType": "uint256",
              "name": "ability",
              "type": "uint256"
            },
            {
              "internalType": "uint256",
              "name": "health",
              "type": "uint256"
            },
            {
              "internalType": "uint256",
              "name": "mana",
              "type": "uint256"
            },
            {
              "internalType": "uint256",
              "name": "speed",
              "type": "uint256"
            },
            {
              "internalType": "uint256",
              "name": "collisionDamage",
              "type": "uint256"
            },
            {
              "internalType": "uint256",
              "name": "runsPerDayLimit",
              "type": "uint256"
            },
            {
              "internalType": "uint256",
              "name": "runsTotalLimit",
              "type": "uint256"
            }
          ],
          "internalType": "struct MetarunCollection.Perks",
          "name": "perks",
          "type": "tuple"
        }
      ],
      "name": "setPerks",
      "outputs": [],
      "stateMutability": "nonpayable",
      "type": "function"
    },
    {
      "inputs": [
        {
          "internalType": "string",
          "name": "newUri",
          "type": "string"
        }
      ],
      "name": "setURI",
      "outputs": [],
      "stateMutability": "nonpayable",
      "type": "function"
    },
    {
      "inputs": [
        {
          "internalType": "bytes4",
          "name": "interfaceId",
          "type": "bytes4"
        }
      ],
      "name": "supportsInterface",
      "outputs": [
        {
          "internalType": "bool",
          "name": "",
          "type": "bool"
        }
      ],
      "stateMutability": "view",
      "type": "function"
    },
    {
      "inputs": [
        {
          "internalType": "uint256",
          "name": "id",
          "type": "uint256"
        }
      ],
      "name": "totalSupply",
      "outputs": [
        {
          "internalType": "uint256",
          "name": "",
          "type": "uint256"
        }
      ],
      "stateMutability": "view",
      "type": "function"
    },
    {
      "inputs": [
        {
          "internalType": "uint256",
          "name": "",
          "type": "uint256"
        }
      ],
      "name": "uri",
      "outputs": [
        {
          "internalType": "string",
          "name": "",
          "type": "string"
        }
      ],
      "stateMutability": "view",
      "type": "function"
    }
  ],
  "transactionHash": "0xc0741bfb139f10bee87fde591b6207d8b8dde3d388911c805b2caa0ec02850cb",
  "args": [],
  "numDeployments": 6,
  "solcInputHash": "2e2429d4f6399d1f36ca87e31757d18d",
  "bytecode": "0x608060405234801561001057600080fd5b506130da806100206000396000f3fe608060405234801561001057600080fd5b50600436106102455760003560e01c8062fdd58e1461024a578063010a2ae11461027057806301ffc9a71461027957806302fe53051461029c5780630e5bda98146102b15780630e89341c146102b9578063156e29f6146102d95780632147e111146102ec578063248a9ca3146102f457806327efa6ea146103075780632b2a43c01461030f5780632d1e97f8146103185780632e81aaea146103215780632eb2c2d6146103345780632f2ff15d146103475780632f85a8271461035a57806336568abe1461036d578063387570ca1461038057806345ada2ab14610389578063492e17fe146103925780634e1273f4146103a55780634f558e79146103c5578063528575fd146103d8578063565554ff146103e157806365a9bf89146103ea5780636b20c454146103f35780636ca8fede1461040657806377041f181461041e578063792f96cf146104315780638478ff27146104395780638a6ad02e146104425780639177595e1461046357806391d148541461046b5780639c3ddd4a1461047e578063a2011b3f14610487578063a217fddf146102ec578063a22cb4651461049c578063b73eeaf6146104af578063bd85b039146104b7578063ca16487b146104d7578063d539139314610563578063d547741f14610578578063d91a1d7f1461058b578063df4b5aeb14610594578063e985e9c51461059c578063edd75e94146105d8578063f242432a146105e1578063f5298aca146105f4578063f62d188814610607578063fe4ba8c11461061a575b600080fd5b61025d610258366004612351565b610622565b6040519081526020015b60405180910390f35b61025d61030181565b61028c610287366004612391565b6106bb565b6040519015158152602001610267565b6102af6102aa366004612482565b6106cc565b005b61025d610729565b6102cc6102c73660046124d2565b61073b565b6040516102679190612547565b6102af6102e736600461255a565b6107cf565b61025d600081565b61025d6103023660046124d2565b6108de565b61025d600181565b61025d61020081565b61025d61010081565b6102af61032f36600461255a565b6108f3565b6102af610342366004612641565b610b81565b6102af6103553660046126ea565b610c18565b61028c6103683660046124d2565b610c3a565b6102af61037b3660046126ea565b610cd5565b61025d61030281565b61025d61030081565b61028c6103a0366004612716565b610d53565b6103b86103b3366004612738565b610d61565b604051610267919061283d565b61028c6103d33660046124d2565b610e8a565b61025d61040281565b61025d61050081565b61025d61040081565b6102af610401366004612850565b610e9e565b61025d6104143660046124d2565b60101c61ffff1690565b6102af61042c3660046128c3565b610ee1565b61025d610fe2565b61025d61040481565b61025d6104503660046124d2565b600090815261012d602052604090205490565b61025d610ff1565b61028c6104793660046126ea565b611000565b61025d61040581565b61025d60008051602061306583398151915281565b6102af6104aa36600461296a565b61102b565b61025d600281565b61025d6104c53660046124d2565b600090815260fb602052604090205490565b6104ea6104e53660046124d2565b611036565b6040516102679190600061014082019050825182526020830151602083015260408301516040830152606083015160608301526080830151608083015260a083015160a083015260c083015160c083015260e083015160e083015261010080840151818401525061012080840151818401525092915050565b61025d60008051602061308583398151915281565b6102af6105863660046126ea565b611148565b61025d61040181565b61025d611165565b61028c6105aa3660046129a6565b6001600160a01b03918216600090815260666020908152604080832093909416825291909152205460ff1690565b61025d61040381565b6102af6105ef3660046129d0565b611174565b6102af61060236600461255a565b6111b9565b6102af610615366004612482565b6111fc565b61025d6112fd565b60006001600160a01b0383166106935760405162461bcd60e51b815260206004820152602b60248201527f455243313135353a2062616c616e636520717565727920666f7220746865207a60448201526a65726f206164647265737360a81b60648201526084015b60405180910390fd5b5060009081526065602090815260408083206001600160a01b03949094168352929052205490565b60006106c68261130c565b92915050565b6106d7600033611000565b61071d5760405162461bcd60e51b81526020600482015260176024820152766e6565642044454641554c545f41444d494e5f524f4c4560481b604482015260640161068a565b61072681611331565b50565b61073863050000006003612a4a565b81565b60606067805461074a90612a62565b80601f016020809104026020016040519081016040528092919081815260200182805461077690612a62565b80156107c35780601f10610798576101008083540402835291602001916107c3565b820191906000526020600020905b8154815290600101906020018083116107a657829003601f168201915b50505050509050919050565b6107e760008051602061308583398151915233611000565b61083f5760405162461bcd60e51b815260206004820152602360248201527f4d45544152554e434f4c4c454354494f4e3a206e656564204d494e5445525f526044820152624f4c4560e81b606482015260840161068a565b61084b82610500610d53565b610895578060011461086f5760405162461bcd60e51b815260040161068a90612a9c565b61087882610e8a565b156108955760405162461bcd60e51b815260040161068a90612a9c565b6108b083838360405180602001604052806000815250611344565b61ffff601083901c16600090815261012d602052604081208054916108d483612ad3565b9190505550505050565b60009081526097602052604090206001015490565b61090b60008051602061308583398151915233611000565b61094a5760405162461bcd60e51b815260206004820152601060248201526f4e4545445f4d494e5445525f524f4c4560801b604482015260640161068a565b610500820361098d5760405162461bcd60e51b815260206004820152600f60248201526e155394d552551050931157d2d25391608a1b604482015260640161068a565b600081116109cf5760405162461bcd60e51b815260206004820152600f60248201526e434f554e545f554e444552464c4f5760881b604482015260640161068a565b6000816001600160401b038111156109e9576109e96123ae565b604051908082528060200260200182016040528015610a12578160200160208202803683370190505b5090506000601084901b5b83821015610ab657610a2f8186610d53565b610a6b5760405162461bcd60e51b815260206004820152600d60248201526c4b494e445f4f564552464c4f5760981b604482015260640161068a565b610a7481610e8a565b610aa45780838381518110610a8b57610a8b612aec565b602090810291909101015281610aa081612ad3565b9250505b80610aae81612ad3565b915050610a1d565b6000846001600160401b03811115610ad057610ad06123ae565b604051908082528060200260200182016040528015610af9578160200160208202803683370190505b50905060005b85811015610b38576001828281518110610b1b57610b1b612aec565b602090810291909101015280610b3081612ad3565b915050610aff565b50610b548785836040518060200160405280600081525061140a565b600086815261012d602052604081208054879290610b73908490612a4a565b909155505050505050505050565b6001600160a01b038516331480610b9d5750610b9d85336105aa565b610c045760405162461bcd60e51b815260206004820152603260248201527f455243313135353a207472616e736665722063616c6c6572206973206e6f74206044820152711bdddb995c881b9bdc88185c1c1c9bdd995960721b606482015260840161068a565b610c118585858585611553565b5050505050565b610c21826108de565b610c2b81336116ee565b610c358383611752565b505050565b6000610c47826000610d53565b80610c585750610c58826001610d53565b80610c695750610c69826002610d53565b80610c7b5750610c7b82610400610d53565b80610c8d5750610c8d82610401610d53565b80610c9f5750610c9f82610402610d53565b80610cb15750610cb182610403610d53565b80610cc35750610cc382610404610d53565b806106c657506106c682610405610d53565b6001600160a01b0381163314610d455760405162461bcd60e51b815260206004820152602f60248201527f416363657373436f6e74726f6c3a2063616e206f6e6c792072656e6f756e636560448201526e103937b632b9903337b91039b2b63360891b606482015260840161068a565b610d4f82826117d8565b5050565b60109190911c61ffff161490565b60608151835114610dc65760405162461bcd60e51b815260206004820152602960248201527f455243313135353a206163636f756e747320616e6420696473206c656e677468604482015268040dad2e6dac2e8c6d60bb1b606482015260840161068a565b600083516001600160401b03811115610de157610de16123ae565b604051908082528060200260200182016040528015610e0a578160200160208202803683370190505b50905060005b8451811015610e8257610e55858281518110610e2e57610e2e612aec565b6020026020010151858381518110610e4857610e48612aec565b6020026020010151610622565b828281518110610e6757610e67612aec565b6020908102919091010152610e7b81612ad3565b9050610e10565b509392505050565b600090815260fb6020526040902054151590565b6001600160a01b038316331480610eba5750610eba83336105aa565b610ed65760405162461bcd60e51b815260040161068a90612b02565b610c3583838361183f565b610eea82610c3a565b80610efc5750610efc82610200610d53565b610f185760405162461bcd60e51b815260040161068a90612b4b565b610f3060008051602061306583398151915233611000565b610f6f5760405162461bcd60e51b815260206004820152601060248201526f6e656564205345545445525f524f4c4560801b604482015260640161068a565b600091825261012e602090815260409283902082518155908201516001820155918101516002830155606081015160038301556080810151600483015560a0810151600583015560c0810151600683015560e0810151600783015561010081015160088301556101200151600990910155565b61073863050000006000612a4a565b61073863050000006004612a4a565b60009182526097602090815260408084206001600160a01b0393909316845291905290205460ff1690565b610d4f3383836119be565b61108c604051806101400160405280600081526020016000815260200160008152602001600081526020016000815260200160008152602001600081526020016000815260200160008152602001600081525090565b61109582610c3a565b806110a757506110a782610200610d53565b6110c35760405162461bcd60e51b815260040161068a90612b4b565b50600090815261012e6020908152604091829020825161014081018452815481526001820154928101929092526002810154928201929092526003820154606082015260048201546080820152600582015460a0820152600682015460c0820152600782015460e0820152600882015461010082015260099091015461012082015290565b611151826108de565b61115b81336116ee565b610c3583836117d8565b61073863050000006002612a4a565b6001600160a01b038516331480611190575061119085336105aa565b6111ac5760405162461bcd60e51b815260040161068a90612b02565b610c118585858585611a9e565b6001600160a01b0383163314806111d557506111d583336105aa565b6111f15760405162461bcd60e51b815260040161068a90612b02565b610c35838383611bad565b600054610100900460ff166112175760005460ff161561121f565b61121f611ca0565b6112825760405162461bcd60e51b815260206004820152602e60248201527f496e697469616c697a61626c653a20636f6e747261637420697320616c72656160448201526d191e481a5b9a5d1a585b1a5e995960921b606482015260840161068a565b600054610100900460ff161580156112a4576000805461ffff19166101011790555b6112ad82611cb1565b6112b8600033611ce1565b6112d060008051602061308583398151915233611ce1565b6112e860008051602061306583398151915233611ce1565b8015610d4f576000805461ff00191690555050565b61073863050000006001612a4a565b60006001600160e01b03198216637965db0b60e01b14806106c657506106c682611ceb565b8051610d4f90606790602084019061229c565b6001600160a01b03841661136a5760405162461bcd60e51b815260040161068a90612ba4565b3361138a8160008761137b88611d3b565b61138488611d3b565b87611d86565b60008481526065602090815260408083206001600160a01b0389168452909152812080548592906113bc908490612a4a565b909155505060408051858152602081018590526001600160a01b038088169260009291851691600080516020613045833981519152910160405180910390a4610c1181600087878787611d94565b6001600160a01b0384166114305760405162461bcd60e51b815260040161068a90612ba4565b81518351146114515760405162461bcd60e51b815260040161068a90612be5565b3361146181600087878787611d86565b60005b84518110156114fd5783818151811061147f5761147f612aec565b60200260200101516065600087848151811061149d5761149d612aec565b602002602001015181526020019081526020016000206000886001600160a01b03166001600160a01b0316815260200190815260200160002060008282546114e59190612a4a565b909155508190506114f581612ad3565b915050611464565b50846001600160a01b031660006001600160a01b0316826001600160a01b0316600080516020613025833981519152878760405161153c929190612c2d565b60405180910390a4610c1181600087878787611ef6565b81518351146115745760405162461bcd60e51b815260040161068a90612be5565b6001600160a01b03841661159a5760405162461bcd60e51b815260040161068a90612c5b565b336115a9818787878787611d86565b60005b84518110156116925760008582815181106115c9576115c9612aec565b6020026020010151905060008583815181106115e7576115e7612aec565b60209081029190910181015160008481526065835260408082206001600160a01b038e1683529093529190912054909150818110156116385760405162461bcd60e51b815260040161068a90612ca0565b60008381526065602090815260408083206001600160a01b038e8116855292528083208585039055908b16825281208054849290611677908490612a4a565b925050819055505050508061168b90612ad3565b90506115ac565b50846001600160a01b0316866001600160a01b0316826001600160a01b031660008051602061302583398151915287876040516116d0929190612c2d565b60405180910390a46116e6818787878787611ef6565b505050505050565b6116f88282611000565b610d4f57611710816001600160a01b03166014611fb8565b61171b836020611fb8565b60405160200161172c929190612cea565b60408051601f198184030181529082905262461bcd60e51b825261068a91600401612547565b61175c8282611000565b610d4f5760008281526097602090815260408083206001600160a01b03851684529091529020805460ff191660011790556117943390565b6001600160a01b0316816001600160a01b0316837f2f8788117e7eff1d82e926ec794901d17c78024a50270940304540a733656f0d60405160405180910390a45050565b6117e28282611000565b15610d4f5760008281526097602090815260408083206001600160a01b0385168085529252808320805460ff1916905551339285917ff6391f5c32d9c69d2a47ea670b442974b53935d1edc7fd64eb21e047a839171b9190a45050565b6001600160a01b0383166118655760405162461bcd60e51b815260040161068a90612d59565b80518251146118865760405162461bcd60e51b815260040161068a90612be5565b60003390506118a981856000868660405180602001604052806000815250611d86565b60005b83518110156119715760008482815181106118c9576118c9612aec565b6020026020010151905060008483815181106118e7576118e7612aec565b60209081029190910181015160008481526065835260408082206001600160a01b038c1683529093529190912054909150818110156119385760405162461bcd60e51b815260040161068a90612d9c565b60009283526065602090815260408085206001600160a01b038b168652909152909220910390558061196981612ad3565b9150506118ac565b5060006001600160a01b0316846001600160a01b0316826001600160a01b031660008051602061302583398151915286866040516119b0929190612c2d565b60405180910390a450505050565b816001600160a01b0316836001600160a01b031603611a315760405162461bcd60e51b815260206004820152602960248201527f455243313135353a2073657474696e6720617070726f76616c20737461747573604482015268103337b91039b2b63360b91b606482015260840161068a565b6001600160a01b03838116600081815260666020908152604080832094871680845294825291829020805460ff191686151590811790915591519182527f17307eab39ab6107e8899845ad3d59bd9653f200f220920489ca2b5937696c31910160405180910390a3505050565b6001600160a01b038416611ac45760405162461bcd60e51b815260040161068a90612c5b565b33611ad481878761137b88611d3b565b60008481526065602090815260408083206001600160a01b038a16845290915290205483811015611b175760405162461bcd60e51b815260040161068a90612ca0565b60008581526065602090815260408083206001600160a01b038b8116855292528083208785039055908816825281208054869290611b56908490612a4a565b909155505060408051868152602081018690526001600160a01b03808916928a82169291861691600080516020613045833981519152910160405180910390a4611ba4828888888888611d94565b50505050505050565b6001600160a01b038316611bd35760405162461bcd60e51b815260040161068a90612d59565b33611c0281856000611be487611d3b565b611bed87611d3b565b60405180602001604052806000815250611d86565b60008381526065602090815260408083206001600160a01b038816845290915290205482811015611c455760405162461bcd60e51b815260040161068a90612d9c565b60008481526065602090815260408083206001600160a01b0389811680865291845282852088870390558251898152938401889052909290861691600080516020613045833981519152910160405180910390a45050505050565b6000611cab3061215a565b15905090565b600054610100900460ff16611cd85760405162461bcd60e51b815260040161068a90612de0565b61072681612169565b610d4f8282611752565b60006001600160e01b03198216636cdb3d1360e11b1480611d1c57506001600160e01b031982166303a24d0760e21b145b806106c657506301ffc9a760e01b6001600160e01b03198316146106c6565b60408051600180825281830190925260609160009190602080830190803683370190505090508281600081518110611d7557611d75612aec565b602090810291909101015292915050565b6116e6868686868686612190565b611da6846001600160a01b031661215a565b156116e65760405163f23a6e6160e01b81526001600160a01b0385169063f23a6e6190611ddf9089908990889088908890600401612e2b565b6020604051808303816000875af1925050508015611e1a575060408051601f3d908101601f19168201909252611e1791810190612e70565b60015b611ec657611e26612e8d565b806308c379a003611e5f5750611e3a612ea8565b80611e455750611e61565b8060405162461bcd60e51b815260040161068a9190612547565b505b60405162461bcd60e51b815260206004820152603460248201527f455243313135353a207472616e7366657220746f206e6f6e20455243313135356044820152732932b1b2b4bb32b91034b6b83632b6b2b73a32b960611b606482015260840161068a565b6001600160e01b0319811663f23a6e6160e01b14611ba45760405162461bcd60e51b815260040161068a90612f31565b611f08846001600160a01b031661215a565b156116e65760405163bc197c8160e01b81526001600160a01b0385169063bc197c8190611f419089908990889088908890600401612f79565b6020604051808303816000875af1925050508015611f7c575060408051601f3d908101601f19168201909252611f7991810190612e70565b60015b611f8857611e26612e8d565b6001600160e01b0319811663bc197c8160e01b14611ba45760405162461bcd60e51b815260040161068a90612f31565b60606000611fc7836002612fd7565b611fd2906002612a4a565b6001600160401b03811115611fe957611fe96123ae565b6040519080825280601f01601f191660200182016040528015612013576020820181803683370190505b509050600360fc1b8160008151811061202e5761202e612aec565b60200101906001600160f81b031916908160001a905350600f60fb1b8160018151811061205d5761205d612aec565b60200101906001600160f81b031916908160001a9053506000612081846002612fd7565b61208c906001612a4a565b90505b6001811115612104576f181899199a1a9b1b9c1cb0b131b232b360811b85600f16601081106120c0576120c0612aec565b1a60f81b8282815181106120d6576120d6612aec565b60200101906001600160f81b031916908160001a90535060049490941c936120fd81612ff6565b905061208f565b5083156121535760405162461bcd60e51b815260206004820181905260248201527f537472696e67733a20686578206c656e67746820696e73756666696369656e74604482015260640161068a565b9392505050565b6001600160a01b03163b151590565b600054610100900460ff1661071d5760405162461bcd60e51b815260040161068a90612de0565b6001600160a01b0385166122175760005b8351811015612215578281815181106121bc576121bc612aec565b602002602001015160fb60008684815181106121da576121da612aec565b6020026020010151815260200190815260200160002060008282546121ff9190612a4a565b9091555061220e905081612ad3565b90506121a1565b505b6001600160a01b0384166116e65760005b8351811015611ba45782818151811061224357612243612aec565b602002602001015160fb600086848151811061226157612261612aec565b602002602001015181526020019081526020016000206000828254612286919061300d565b90915550612295905081612ad3565b9050612228565b8280546122a890612a62565b90600052602060002090601f0160209004810192826122ca5760008555612310565b82601f106122e357805160ff1916838001178555612310565b82800160010185558215612310579182015b828111156123105782518255916020019190600101906122f5565b5061231c929150612320565b5090565b5b8082111561231c5760008155600101612321565b80356001600160a01b038116811461234c57600080fd5b919050565b6000806040838503121561236457600080fd5b61236d83612335565b946020939093013593505050565b6001600160e01b03198116811461072657600080fd5b6000602082840312156123a357600080fd5b81356121538161237b565b634e487b7160e01b600052604160045260246000fd5b61014081016001600160401b03811182821017156123e4576123e46123ae565b60405250565b601f8201601f191681016001600160401b038111828210171561240f5761240f6123ae565b6040525050565b604051612422816123c4565b90565b60006001600160401b0383111561243e5761243e6123ae565b604051612455601f8501601f1916602001826123ea565b80915083815284848401111561246a57600080fd5b83836020830137600060208583010152509392505050565b60006020828403121561249457600080fd5b81356001600160401b038111156124aa57600080fd5b8201601f810184136124bb57600080fd5b6124ca84823560208401612425565b949350505050565b6000602082840312156124e457600080fd5b5035919050565b60005b838110156125065781810151838201526020016124ee565b83811115612515576000848401525b50505050565b600081518084526125338160208601602086016124eb565b601f01601f19169290920160200192915050565b602081526000612153602083018461251b565b60008060006060848603121561256f57600080fd5b61257884612335565b95602085013595506040909401359392505050565b60006001600160401b038211156125a6576125a66123ae565b5060051b60200190565b600082601f8301126125c157600080fd5b813560206125ce8261258d565b6040516125db82826123ea565b83815260059390931b85018201928281019150868411156125fb57600080fd5b8286015b8481101561261657803583529183019183016125ff565b509695505050505050565b600082601f83011261263257600080fd5b61215383833560208501612425565b600080600080600060a0868803121561265957600080fd5b61266286612335565b945061267060208701612335565b935060408601356001600160401b038082111561268c57600080fd5b61269889838a016125b0565b945060608801359150808211156126ae57600080fd5b6126ba89838a016125b0565b935060808801359150808211156126d057600080fd5b506126dd88828901612621565b9150509295509295909350565b600080604083850312156126fd57600080fd5b8235915061270d60208401612335565b90509250929050565b6000806040838503121561272957600080fd5b50508035926020909101359150565b6000806040838503121561274b57600080fd5b82356001600160401b038082111561276257600080fd5b818501915085601f83011261277657600080fd5b813560206127838261258d565b60405161279082826123ea565b83815260059390931b85018201928281019150898411156127b057600080fd5b948201945b838610156127d5576127c686612335565b825294820194908201906127b5565b965050860135925050808211156127eb57600080fd5b506127f8858286016125b0565b9150509250929050565b600081518084526020808501945080840160005b8381101561283257815187529582019590820190600101612816565b509495945050505050565b6020815260006121536020830184612802565b60008060006060848603121561286557600080fd5b61286e84612335565b925060208401356001600160401b038082111561288a57600080fd5b612896878388016125b0565b935060408601359150808211156128ac57600080fd5b506128b9868287016125b0565b9150509250925092565b6000808284036101608112156128d857600080fd5b8335925061014080601f19830112156128f057600080fd5b6128f8612416565b91506020850135825260408501356020830152606085013560408301526080850135606083015260a0850135608083015260c085013560a083015260e085013560c08301526101008086013560e084015261012080870135828501528287013581850152505050809150509250929050565b6000806040838503121561297d57600080fd5b61298683612335565b91506020830135801515811461299b57600080fd5b809150509250929050565b600080604083850312156129b957600080fd5b6129c283612335565b915061270d60208401612335565b600080600080600060a086880312156129e857600080fd5b6129f186612335565b94506129ff60208701612335565b9350604086013592506060860135915060808601356001600160401b03811115612a2857600080fd5b6126dd88828901612621565b634e487b7160e01b600052601160045260246000fd5b60008219821115612a5d57612a5d612a34565b500190565b600181811c90821680612a7657607f821691505b602082108103612a9657634e487b7160e01b600052602260045260246000fd5b50919050565b6020808252601e908201527f43616e6e6f74206d696e74206d6f7265207468616e206f6e65206974656d0000604082015260600190565b600060018201612ae557612ae5612a34565b5060010190565b634e487b7160e01b600052603260045260246000fd5b60208082526029908201527f455243313135353a2063616c6c6572206973206e6f74206f776e6572206e6f7260408201526808185c1c1c9bdd995960ba1b606082015260800190565b60208082526039908201527f5065726b732061726520617661696c61626c65206f6e6c7920666f7220636861604082015278726163746572732c207065747320616e64207469636b65747360381b606082015260800190565b60208082526021908201527f455243313135353a206d696e7420746f20746865207a65726f206164647265736040820152607360f81b606082015260800190565b60208082526028908201527f455243313135353a2069647320616e6420616d6f756e7473206c656e677468206040820152670dad2e6dac2e8c6d60c31b606082015260800190565b604081526000612c406040830185612802565b8281036020840152612c528185612802565b95945050505050565b60208082526025908201527f455243313135353a207472616e7366657220746f20746865207a65726f206164604082015264647265737360d81b606082015260800190565b6020808252602a908201527f455243313135353a20696e73756666696369656e742062616c616e636520666f60408201526939103a3930b739b332b960b11b606082015260800190565b76020b1b1b2b9b9a1b7b73a3937b61d1030b1b1b7bab73a1604d1b815260008351612d1c8160178501602088016124eb565b7001034b99036b4b9b9b4b733903937b6329607d1b6017918401918201528351612d4d8160288401602088016124eb565b01602801949350505050565b60208082526023908201527f455243313135353a206275726e2066726f6d20746865207a65726f206164647260408201526265737360e81b606082015260800190565b60208082526024908201527f455243313135353a206275726e20616d6f756e7420657863656564732062616c604082015263616e636560e01b606082015260800190565b6020808252602b908201527f496e697469616c697a61626c653a20636f6e7472616374206973206e6f74206960408201526a6e697469616c697a696e6760a81b606082015260800190565b6001600160a01b03868116825285166020820152604081018490526060810183905260a060808201819052600090612e659083018461251b565b979650505050505050565b600060208284031215612e8257600080fd5b81516121538161237b565b600060033d11156124225760046000803e5060005160e01c90565b600060443d1015612eb65790565b6040516003193d81016004833e81513d6001600160401b038083116024840183101715612ee557505050505090565b8285019150815181811115612efd5750505050505090565b843d8701016020828501011115612f175750505050505090565b612f26602082860101876123ea565b509095945050505050565b60208082526028908201527f455243313135353a204552433131353552656365697665722072656a656374656040820152676420746f6b656e7360c01b606082015260800190565b6001600160a01b0386811682528516602082015260a060408201819052600090612fa590830186612802565b8281036060840152612fb78186612802565b90508281036080840152612fcb818561251b565b98975050505050505050565b6000816000190483118215151615612ff157612ff1612a34565b500290565b60008161300557613005612a34565b506000190190565b60008282101561301f5761301f612a34565b50039056fe4a39dc06d4c0dbc64b70af90fd698a233a518aa5d07e595d983b8c0526c8f7fbc3d58168c5ae7397731d063d5bbf3d657854427343f4c083240f7aacaa2d0f6261c92169ef077349011ff0b1383c894d86c5f0b41d986366b58a6cf31e93beda9f2df0fed2c77648de5860a4cc508cd0818c85b8b8a1ab4ceeef8d981c8956a6a2646970667358221220260bea020deab743d68d110c07ffe3f24f85c40cc25dd0e23dd8dda88d8ef5dd64736f6c634300080d0033",
  "devdoc": {
    "kind": "dev",
    "methods": {
      "balanceOf(address,uint256)": {
        "details": "See {IERC1155-balanceOf}. Requirements: - `account` cannot be the zero address."
      },
      "balanceOfBatch(address[],uint256[])": {
        "details": "See {IERC1155-balanceOfBatch}. Requirements: - `accounts` and `ids` must have the same length."
      },
      "exists(uint256)": {
        "details": "Indicates whether any token exist with a given id, or not."
      },
      "getRoleAdmin(bytes32)": {
        "details": "Returns the admin role that controls `role`. See {grantRole} and {revokeRole}. To change a role's admin, use {_setRoleAdmin}."
      },
      "grantRole(bytes32,address)": {
        "details": "Grants `role` to `account`. If `account` had not been already granted `role`, emits a {RoleGranted} event. Requirements: - the caller must have ``role``'s admin role."
      },
      "hasRole(bytes32,address)": {
        "details": "Returns `true` if `account` has been granted `role`."
      },
      "isApprovedForAll(address,address)": {
        "details": "See {IERC1155-isApprovedForAll}."
      },
      "renounceRole(bytes32,address)": {
        "details": "Revokes `role` from the calling account. Roles are often managed via {grantRole} and {revokeRole}: this function's purpose is to provide a mechanism for accounts to lose their privileges if they are compromised (such as when a trusted device is misplaced). If the calling account had been revoked `role`, emits a {RoleRevoked} event. Requirements: - the caller must be `account`."
      },
      "revokeRole(bytes32,address)": {
        "details": "Revokes `role` from `account`. If `account` had been granted `role`, emits a {RoleRevoked} event. Requirements: - the caller must have ``role``'s admin role."
      },
      "safeBatchTransferFrom(address,address,uint256[],uint256[],bytes)": {
        "details": "See {IERC1155-safeBatchTransferFrom}."
      },
      "safeTransferFrom(address,address,uint256,uint256,bytes)": {
        "details": "See {IERC1155-safeTransferFrom}."
      },
      "setApprovalForAll(address,bool)": {
        "details": "See {IERC1155-setApprovalForAll}."
      },
      "totalSupply(uint256)": {
        "details": "Total amount of tokens in with a given id."
      },
      "uri(uint256)": {
        "details": "See {IERC1155MetadataURI-uri}. This implementation returns the same URI for *all* token types. It relies on the token type ID substitution mechanism https://eips.ethereum.org/EIPS/eip-1155#metadata[defined in the EIP]. Clients calling this function must replace the `\\{id\\}` substring with the actual token type ID."
      }
    },
    "version": 1
  },
  "userdoc": {
    "kind": "user",
    "methods": {},
    "version": 1
  },
  "storageLayout": {
    "storage": [
      {
        "astId": 532,
        "contract": "contracts/MetarunCollection.sol:MetarunCollection",
        "label": "_initialized",
        "offset": 0,
        "slot": "0",
        "type": "t_bool"
      },
      {
        "astId": 535,
        "contract": "contracts/MetarunCollection.sol:MetarunCollection",
        "label": "_initializing",
        "offset": 1,
        "slot": "0",
        "type": "t_bool"
      },
      {
        "astId": 2848,
        "contract": "contracts/MetarunCollection.sol:MetarunCollection",
        "label": "__gap",
        "offset": 0,
        "slot": "1",
        "type": "t_array(t_uint256)50_storage"
      },
      {
        "astId": 3652,
        "contract": "contracts/MetarunCollection.sol:MetarunCollection",
        "label": "__gap",
        "offset": 0,
        "slot": "51",
        "type": "t_array(t_uint256)50_storage"
      },
      {
        "astId": 628,
        "contract": "contracts/MetarunCollection.sol:MetarunCollection",
        "label": "_balances",
        "offset": 0,
        "slot": "101",
        "type": "t_mapping(t_uint256,t_mapping(t_address,t_uint256))"
      },
      {
        "astId": 634,
        "contract": "contracts/MetarunCollection.sol:MetarunCollection",
        "label": "_operatorApprovals",
        "offset": 0,
        "slot": "102",
        "type": "t_mapping(t_address,t_mapping(t_address,t_bool))"
      },
      {
        "astId": 636,
        "contract": "contracts/MetarunCollection.sol:MetarunCollection",
        "label": "_uri",
        "offset": 0,
        "slot": "103",
        "type": "t_string_storage"
      },
      {
        "astId": 1716,
        "contract": "contracts/MetarunCollection.sol:MetarunCollection",
        "label": "__gap",
        "offset": 0,
        "slot": "104",
        "type": "t_array(t_uint256)47_storage"
      },
      {
        "astId": 39,
        "contract": "contracts/MetarunCollection.sol:MetarunCollection",
        "label": "_roles",
        "offset": 0,
        "slot": "151",
        "type": "t_mapping(t_bytes32,t_struct(RoleData)34_storage)"
      },
      {
        "astId": 327,
        "contract": "contracts/MetarunCollection.sol:MetarunCollection",
        "label": "__gap",
        "offset": 0,
        "slot": "152",
        "type": "t_array(t_uint256)49_storage"
      },
      {
        "astId": 1968,
        "contract": "contracts/MetarunCollection.sol:MetarunCollection",
        "label": "__gap",
        "offset": 0,
        "slot": "201",
        "type": "t_array(t_uint256)50_storage"
      },
      {
        "astId": 1994,
        "contract": "contracts/MetarunCollection.sol:MetarunCollection",
        "label": "_totalSupply",
        "offset": 0,
        "slot": "251",
        "type": "t_mapping(t_uint256,t_uint256)"
      },
      {
        "astId": 2121,
        "contract": "contracts/MetarunCollection.sol:MetarunCollection",
        "label": "__gap",
        "offset": 0,
        "slot": "252",
        "type": "t_array(t_uint256)49_storage"
      },
      {
        "astId": 7409,
        "contract": "contracts/MetarunCollection.sol:MetarunCollection",
        "label": "kindSupply",
        "offset": 0,
        "slot": "301",
        "type": "t_mapping(t_uint256,t_uint256)"
      },
      {
        "astId": 7435,
        "contract": "contracts/MetarunCollection.sol:MetarunCollection",
        "label": "tokenPerks",
        "offset": 0,
        "slot": "302",
        "type": "t_mapping(t_uint256,t_struct(Perks)7430_storage)"
      }
    ],
    "types": {
      "t_address": {
        "encoding": "inplace",
        "label": "address",
        "numberOfBytes": "20"
      },
      "t_array(t_uint256)47_storage": {
        "base": "t_uint256",
        "encoding": "inplace",
        "label": "uint256[47]",
        "numberOfBytes": "1504"
      },
      "t_array(t_uint256)49_storage": {
        "base": "t_uint256",
        "encoding": "inplace",
        "label": "uint256[49]",
        "numberOfBytes": "1568"
      },
      "t_array(t_uint256)50_storage": {
        "base": "t_uint256",
        "encoding": "inplace",
        "label": "uint256[50]",
        "numberOfBytes": "1600"
      },
      "t_bool": {
        "encoding": "inplace",
        "label": "bool",
        "numberOfBytes": "1"
      },
      "t_bytes32": {
        "encoding": "inplace",
        "label": "bytes32",
        "numberOfBytes": "32"
      },
      "t_mapping(t_address,t_bool)": {
        "encoding": "mapping",
        "key": "t_address",
        "label": "mapping(address => bool)",
        "numberOfBytes": "32",
        "value": "t_bool"
      },
      "t_mapping(t_address,t_mapping(t_address,t_bool))": {
        "encoding": "mapping",
        "key": "t_address",
        "label": "mapping(address => mapping(address => bool))",
        "numberOfBytes": "32",
        "value": "t_mapping(t_address,t_bool)"
      },
      "t_mapping(t_address,t_uint256)": {
        "encoding": "mapping",
        "key": "t_address",
        "label": "mapping(address => uint256)",
        "numberOfBytes": "32",
        "value": "t_uint256"
      },
      "t_mapping(t_bytes32,t_struct(RoleData)34_storage)": {
        "encoding": "mapping",
        "key": "t_bytes32",
        "label": "mapping(bytes32 => struct AccessControlUpgradeable.RoleData)",
        "numberOfBytes": "32",
        "value": "t_struct(RoleData)34_storage"
      },
      "t_mapping(t_uint256,t_mapping(t_address,t_uint256))": {
        "encoding": "mapping",
        "key": "t_uint256",
        "label": "mapping(uint256 => mapping(address => uint256))",
        "numberOfBytes": "32",
        "value": "t_mapping(t_address,t_uint256)"
      },
      "t_mapping(t_uint256,t_struct(Perks)7430_storage)": {
        "encoding": "mapping",
        "key": "t_uint256",
        "label": "mapping(uint256 => struct MetarunCollection.Perks)",
        "numberOfBytes": "32",
        "value": "t_struct(Perks)7430_storage"
      },
      "t_mapping(t_uint256,t_uint256)": {
        "encoding": "mapping",
        "key": "t_uint256",
        "label": "mapping(uint256 => uint256)",
        "numberOfBytes": "32",
        "value": "t_uint256"
      },
      "t_string_storage": {
        "encoding": "bytes",
        "label": "string",
        "numberOfBytes": "32"
      },
      "t_struct(Perks)7430_storage": {
        "encoding": "inplace",
        "label": "struct MetarunCollection.Perks",
        "members": [
          {
            "astId": 7411,
            "contract": "contracts/MetarunCollection.sol:MetarunCollection",
            "label": "level",
            "offset": 0,
            "slot": "0",
            "type": "t_uint256"
          },
          {
            "astId": 7413,
            "contract": "contracts/MetarunCollection.sol:MetarunCollection",
            "label": "runs",
            "offset": 0,
            "slot": "1",
            "type": "t_uint256"
          },
          {
            "astId": 7415,
            "contract": "contracts/MetarunCollection.sol:MetarunCollection",
            "label": "wins",
            "offset": 0,
            "slot": "2",
            "type": "t_uint256"
          },
          {
            "astId": 7417,
            "contract": "contracts/MetarunCollection.sol:MetarunCollection",
            "label": "ability",
            "offset": 0,
            "slot": "3",
            "type": "t_uint256"
          },
          {
            "astId": 7419,
            "contract": "contracts/MetarunCollection.sol:MetarunCollection",
            "label": "health",
            "offset": 0,
            "slot": "4",
            "type": "t_uint256"
          },
          {
            "astId": 7421,
            "contract": "contracts/MetarunCollection.sol:MetarunCollection",
            "label": "mana",
            "offset": 0,
            "slot": "5",
            "type": "t_uint256"
          },
          {
            "astId": 7423,
            "contract": "contracts/MetarunCollection.sol:MetarunCollection",
            "label": "speed",
            "offset": 0,
            "slot": "6",
            "type": "t_uint256"
          },
          {
            "astId": 7425,
            "contract": "contracts/MetarunCollection.sol:MetarunCollection",
            "label": "collisionDamage",
            "offset": 0,
            "slot": "7",
            "type": "t_uint256"
          },
          {
            "astId": 7427,
            "contract": "contracts/MetarunCollection.sol:MetarunCollection",
            "label": "runsPerDayLimit",
            "offset": 0,
            "slot": "8",
            "type": "t_uint256"
          },
          {
            "astId": 7429,
            "contract": "contracts/MetarunCollection.sol:MetarunCollection",
            "label": "runsTotalLimit",
            "offset": 0,
            "slot": "9",
            "type": "t_uint256"
          }
        ],
        "numberOfBytes": "320"
      },
      "t_struct(RoleData)34_storage": {
        "encoding": "inplace",
        "label": "struct AccessControlUpgradeable.RoleData",
        "members": [
          {
            "astId": 31,
            "contract": "contracts/MetarunCollection.sol:MetarunCollection",
            "label": "members",
            "offset": 0,
            "slot": "0",
            "type": "t_mapping(t_address,t_bool)"
          },
          {
            "astId": 33,
            "contract": "contracts/MetarunCollection.sol:MetarunCollection",
            "label": "adminRole",
            "offset": 0,
            "slot": "1",
            "type": "t_bytes32"
          }
        ],
        "numberOfBytes": "64"
      },
      "t_uint256": {
        "encoding": "inplace",
        "label": "uint256",
        "numberOfBytes": "32"
      }
    }
  }
}