{
  "address": "0x16236D59616cea0ef8389AdaadCf57BcC06599bA",
  "abi": [
    {
      "anonymous": false,
      "inputs": [
        {
          "indexed": true,
          "internalType": "address",
          "name": "account",
          "type": "address"
        },
        {
          "indexed": true,
          "internalType": "address",
          "name": "operator",
          "type": "address"
        },
        {
          "indexed": false,
          "internalType": "bool",
          "name": "approved",
          "type": "bool"
        }
      ],
      "name": "ApprovalForAll",
      "type": "event"
    },
    {
      "anonymous": false,
      "inputs": [
        {
          "indexed": true,
          "internalType": "bytes32",
          "name": "role",
          "type": "bytes32"
        },
        {
          "indexed": true,
          "internalType": "bytes32",
          "name": "previousAdminRole",
          "type": "bytes32"
        },
        {
          "indexed": true,
          "internalType": "bytes32",
          "name": "newAdminRole",
          "type": "bytes32"
        }
      ],
      "name": "RoleAdminChanged",
      "type": "event"
    },
    {
      "anonymous": false,
      "inputs": [
        {
          "indexed": true,
          "internalType": "bytes32",
          "name": "role",
          "type": "bytes32"
        },
        {
          "indexed": true,
          "internalType": "address",
          "name": "account",
          "type": "address"
        },
        {
          "indexed": true,
          "internalType": "address",
          "name": "sender",
          "type": "address"
        }
      ],
      "name": "RoleGranted",
      "type": "event"
    },
    {
      "anonymous": false,
      "inputs": [
        {
          "indexed": true,
          "internalType": "bytes32",
          "name": "role",
          "type": "bytes32"
        },
        {
          "indexed": true,
          "internalType": "address",
          "name": "account",
          "type": "address"
        },
        {
          "indexed": true,
          "internalType": "address",
          "name": "sender",
          "type": "address"
        }
      ],
      "name": "RoleRevoked",
      "type": "event"
    },
    {
      "anonymous": false,
      "inputs": [
        {
          "indexed": true,
          "internalType": "address",
          "name": "operator",
          "type": "address"
        },
        {
          "indexed": true,
          "internalType": "address",
          "name": "from",
          "type": "address"
        },
        {
          "indexed": true,
          "internalType": "address",
          "name": "to",
          "type": "address"
        },
        {
          "indexed": false,
          "internalType": "uint256[]",
          "name": "ids",
          "type": "uint256[]"
        },
        {
          "indexed": false,
          "internalType": "uint256[]",
          "name": "values",
          "type": "uint256[]"
        }
      ],
      "name": "TransferBatch",
      "type": "event"
    },
    {
      "anonymous": false,
      "inputs": [
        {
          "indexed": true,
          "internalType": "address",
          "name": "operator",
          "type": "address"
        },
        {
          "indexed": true,
          "internalType": "address",
          "name": "from",
          "type": "address"
        },
        {
          "indexed": true,
          "internalType": "address",
          "name": "to",
          "type": "address"
        },
        {
          "indexed": false,
          "internalType": "uint256",
          "name": "id",
          "type": "uint256"
        },
        {
          "indexed": false,
          "internalType": "uint256",
          "name": "value",
          "type": "uint256"
        }
      ],
      "name": "TransferSingle",
      "type": "event"
    },
    {
      "anonymous": false,
      "inputs": [
        {
          "indexed": false,
          "internalType": "string",
          "name": "value",
          "type": "string"
        },
        {
          "indexed": true,
          "internalType": "uint256",
          "name": "id",
          "type": "uint256"
        }
      ],
      "name": "URI",
      "type": "event"
    },
    {
      "inputs": [],
      "name": "ARTIFACT_TOKEN_KIND",
      "outputs": [
        {
          "internalType": "uint256",
          "name": "",
          "type": "uint256"
        }
      ],
      "stateMutability": "view",
      "type": "function"
    },
    {
      "inputs": [],
      "name": "COLLISION_DAMAGE_TOKEN_ID",
      "outputs": [
        {
          "internalType": "uint256",
          "name": "",
          "type": "uint256"
        }
      ],
      "stateMutability": "view",
      "type": "function"
    },
    {
      "inputs": [],
      "name": "COMMON_SKIN_KIND",
      "outputs": [
        {
          "internalType": "uint256",
          "name": "",
          "type": "uint256"
        }
      ],
      "stateMutability": "view",
      "type": "function"
    },
    {
      "inputs": [],
      "name": "CRAFTSMAN_CHARACTER_KIND",
      "outputs": [
        {
          "internalType": "uint256",
          "name": "",
          "type": "uint256"
        }
      ],
      "stateMutability": "view",
      "type": "function"
    },
    {
      "inputs": [],
      "name": "DEFAULT_ADMIN_ROLE",
      "outputs": [
        {
          "internalType": "bytes32",
          "name": "",
          "type": "bytes32"
        }
      ],
      "stateMutability": "view",
      "type": "function"
    },
    {
      "inputs": [],
      "name": "FIGHTER_CHARACTER_KIND",
      "outputs": [
        {
          "internalType": "uint256",
          "name": "",
          "type": "uint256"
        }
      ],
      "stateMutability": "view",
      "type": "function"
    },
    {
      "inputs": [],
      "name": "FUNGIBLE_TOKEN_KIND",
      "outputs": [
        {
          "internalType": "uint256",
          "name": "",
          "type": "uint256"
        }
      ],
      "stateMutability": "view",
      "type": "function"
    },
    {
      "inputs": [],
      "name": "HEALTH_TOKEN_ID",
      "outputs": [
        {
          "internalType": "uint256",
          "name": "",
          "type": "uint256"
        }
      ],
      "stateMutability": "view",
      "type": "function"
    },
    {
      "inputs": [],
      "name": "MANA_TOKEN_ID",
      "outputs": [
        {
          "internalType": "uint256",
          "name": "",
          "type": "uint256"
        }
      ],
      "stateMutability": "view",
      "type": "function"
    },
    {
      "inputs": [],
      "name": "MINTER_ROLE",
      "outputs": [
        {
          "internalType": "bytes32",
          "name": "",
          "type": "bytes32"
        }
      ],
      "stateMutability": "view",
      "type": "function"
    },
    {
      "inputs": [],
      "name": "MYTHICAL_SKIN_KIND",
      "outputs": [
        {
          "internalType": "uint256",
          "name": "",
          "type": "uint256"
        }
      ],
      "stateMutability": "view",
      "type": "function"
    },
    {
      "inputs": [],
      "name": "OPAL_TOKEN_ID",
      "outputs": [
        {
          "internalType": "uint256",
          "name": "",
          "type": "uint256"
        }
      ],
      "stateMutability": "view",
      "type": "function"
    },
    {
      "inputs": [],
      "name": "PET_TOKEN_KIND",
      "outputs": [
        {
          "internalType": "uint256",
          "name": "",
          "type": "uint256"
        }
      ],
      "stateMutability": "view",
      "type": "function"
    },
    {
      "inputs": [],
      "name": "RARE_SKIN_KIND",
      "outputs": [
        {
          "internalType": "uint256",
          "name": "",
          "type": "uint256"
        }
      ],
      "stateMutability": "view",
      "type": "function"
    },
    {
      "inputs": [],
      "name": "SETTER_ROLE",
      "outputs": [
        {
          "internalType": "bytes32",
          "name": "",
          "type": "bytes32"
        }
      ],
      "stateMutability": "view",
      "type": "function"
    },
    {
      "inputs": [],
      "name": "SPEED_TOKEN_ID",
      "outputs": [
        {
          "internalType": "uint256",
          "name": "",
          "type": "uint256"
        }
      ],
      "stateMutability": "view",
      "type": "function"
    },
    {
      "inputs": [],
      "name": "SPRINTER_CHARACTER_KIND",
      "outputs": [
        {
          "internalType": "uint256",
          "name": "",
          "type": "uint256"
        }
      ],
      "stateMutability": "view",
      "type": "function"
    },
    {
      "inputs": [
        {
          "internalType": "address",
          "name": "account",
          "type": "address"
        },
        {
          "internalType": "uint256",
          "name": "id",
          "type": "uint256"
        }
      ],
      "name": "balanceOf",
      "outputs": [
        {
          "internalType": "uint256",
          "name": "",
          "type": "uint256"
        }
      ],
      "stateMutability": "view",
      "type": "function"
    },
    {
      "inputs": [
        {
          "internalType": "address[]",
          "name": "accounts",
          "type": "address[]"
        },
        {
          "internalType": "uint256[]",
          "name": "ids",
          "type": "uint256[]"
        }
      ],
      "name": "balanceOfBatch",
      "outputs": [
        {
          "internalType": "uint256[]",
          "name": "",
          "type": "uint256[]"
        }
      ],
      "stateMutability": "view",
      "type": "function"
    },
    {
      "inputs": [
        {
          "internalType": "address",
          "name": "account",
          "type": "address"
        },
        {
          "internalType": "uint256",
          "name": "id",
          "type": "uint256"
        },
        {
          "internalType": "uint256",
          "name": "value",
          "type": "uint256"
        }
      ],
      "name": "burn",
      "outputs": [],
      "stateMutability": "nonpayable",
      "type": "function"
    },
    {
      "inputs": [
        {
          "internalType": "address",
          "name": "account",
          "type": "address"
        },
        {
          "internalType": "uint256[]",
          "name": "ids",
          "type": "uint256[]"
        },
        {
          "internalType": "uint256[]",
          "name": "values",
          "type": "uint256[]"
        }
      ],
      "name": "burnBatch",
      "outputs": [],
      "stateMutability": "nonpayable",
      "type": "function"
    },
    {
      "inputs": [
        {
          "internalType": "uint256",
          "name": "id",
          "type": "uint256"
        }
      ],
      "name": "exists",
      "outputs": [
        {
          "internalType": "bool",
          "name": "",
          "type": "bool"
        }
      ],
      "stateMutability": "view",
      "type": "function"
    },
    {
      "inputs": [
        {
          "internalType": "uint256",
          "name": "id",
          "type": "uint256"
        }
      ],
      "name": "getKind",
      "outputs": [
        {
          "internalType": "uint256",
          "name": "",
          "type": "uint256"
        }
      ],
      "stateMutability": "pure",
      "type": "function"
    },
    {
      "inputs": [
        {
          "internalType": "uint256",
          "name": "kind",
          "type": "uint256"
        }
      ],
      "name": "getKindSupply",
      "outputs": [
        {
          "internalType": "uint256",
          "name": "",
          "type": "uint256"
        }
      ],
      "stateMutability": "view",
      "type": "function"
    },
    {
      "inputs": [
        {
          "internalType": "uint256",
          "name": "id",
          "type": "uint256"
        }
      ],
      "name": "getPerks",
      "outputs": [
        {
          "components": [
            {
              "internalType": "uint256",
              "name": "level",
              "type": "uint256"
            },
            {
              "internalType": "uint256",
              "name": "runs",
              "type": "uint256"
            },
            {
              "internalType": "uint256",
              "name": "wins",
              "type": "uint256"
            },
            {
              "internalType": "uint256",
              "name": "ability",
              "type": "uint256"
            },
            {
              "internalType": "uint256",
              "name": "health",
              "type": "uint256"
            },
            {
              "internalType": "uint256",
              "name": "mana",
              "type": "uint256"
            },
            {
              "internalType": "uint256",
              "name": "speed",
              "type": "uint256"
            },
            {
              "internalType": "uint256",
              "name": "collisionDamage",
              "type": "uint256"
            }
          ],
          "internalType": "struct MetarunCollection.Perks",
          "name": "",
          "type": "tuple"
        }
      ],
      "stateMutability": "view",
      "type": "function"
    },
    {
      "inputs": [
        {
          "internalType": "bytes32",
          "name": "role",
          "type": "bytes32"
        }
      ],
      "name": "getRoleAdmin",
      "outputs": [
        {
          "internalType": "bytes32",
          "name": "",
          "type": "bytes32"
        }
      ],
      "stateMutability": "view",
      "type": "function"
    },
    {
      "inputs": [
        {
          "internalType": "bytes32",
          "name": "role",
          "type": "bytes32"
        },
        {
          "internalType": "address",
          "name": "account",
          "type": "address"
        }
      ],
      "name": "grantRole",
      "outputs": [],
      "stateMutability": "nonpayable",
      "type": "function"
    },
    {
      "inputs": [
        {
          "internalType": "bytes32",
          "name": "role",
          "type": "bytes32"
        },
        {
          "internalType": "address",
          "name": "account",
          "type": "address"
        }
      ],
      "name": "hasRole",
      "outputs": [
        {
          "internalType": "bool",
          "name": "",
          "type": "bool"
        }
      ],
      "stateMutability": "view",
      "type": "function"
    },
    {
      "inputs": [
        {
          "internalType": "string",
          "name": "uri",
          "type": "string"
        }
      ],
      "name": "initialize",
      "outputs": [],
      "stateMutability": "nonpayable",
      "type": "function"
    },
    {
      "inputs": [
        {
          "internalType": "address",
          "name": "account",
          "type": "address"
        },
        {
          "internalType": "address",
          "name": "operator",
          "type": "address"
        }
      ],
      "name": "isApprovedForAll",
      "outputs": [
        {
          "internalType": "bool",
          "name": "",
          "type": "bool"
        }
      ],
      "stateMutability": "view",
      "type": "function"
    },
    {
      "inputs": [
        {
          "internalType": "uint256",
          "name": "id",
          "type": "uint256"
        }
      ],
      "name": "isCharacter",
      "outputs": [
        {
          "internalType": "bool",
          "name": "",
          "type": "bool"
        }
      ],
      "stateMutability": "pure",
      "type": "function"
    },
    {
      "inputs": [
        {
          "internalType": "uint256",
          "name": "id",
          "type": "uint256"
        },
        {
          "internalType": "uint256",
          "name": "kind",
          "type": "uint256"
        }
      ],
      "name": "isKind",
      "outputs": [
        {
          "internalType": "bool",
          "name": "",
          "type": "bool"
        }
      ],
      "stateMutability": "pure",
      "type": "function"
    },
    {
      "inputs": [
        {
          "internalType": "address",
          "name": "to",
          "type": "address"
        },
        {
          "internalType": "uint256",
          "name": "id",
          "type": "uint256"
        },
        {
          "internalType": "uint256",
          "name": "amount",
          "type": "uint256"
        }
      ],
      "name": "mint",
      "outputs": [],
      "stateMutability": "nonpayable",
      "type": "function"
    },
    {
      "inputs": [
        {
          "internalType": "address",
          "name": "to",
          "type": "address"
        },
        {
          "internalType": "uint256",
          "name": "kind",
          "type": "uint256"
        },
        {
          "internalType": "uint256",
          "name": "count",
          "type": "uint256"
        }
      ],
      "name": "mintBatch",
      "outputs": [],
      "stateMutability": "nonpayable",
      "type": "function"
    },
    {
      "inputs": [
        {
          "internalType": "bytes32",
          "name": "role",
          "type": "bytes32"
        },
        {
          "internalType": "address",
          "name": "account",
          "type": "address"
        }
      ],
      "name": "renounceRole",
      "outputs": [],
      "stateMutability": "nonpayable",
      "type": "function"
    },
    {
      "inputs": [
        {
          "internalType": "bytes32",
          "name": "role",
          "type": "bytes32"
        },
        {
          "internalType": "address",
          "name": "account",
          "type": "address"
        }
      ],
      "name": "revokeRole",
      "outputs": [],
      "stateMutability": "nonpayable",
      "type": "function"
    },
    {
      "inputs": [
        {
          "internalType": "address",
          "name": "from",
          "type": "address"
        },
        {
          "internalType": "address",
          "name": "to",
          "type": "address"
        },
        {
          "internalType": "uint256[]",
          "name": "ids",
          "type": "uint256[]"
        },
        {
          "internalType": "uint256[]",
          "name": "amounts",
          "type": "uint256[]"
        },
        {
          "internalType": "bytes",
          "name": "data",
          "type": "bytes"
        }
      ],
      "name": "safeBatchTransferFrom",
      "outputs": [],
      "stateMutability": "nonpayable",
      "type": "function"
    },
    {
      "inputs": [
        {
          "internalType": "address",
          "name": "from",
          "type": "address"
        },
        {
          "internalType": "address",
          "name": "to",
          "type": "address"
        },
        {
          "internalType": "uint256",
          "name": "id",
          "type": "uint256"
        },
        {
          "internalType": "uint256",
          "name": "amount",
          "type": "uint256"
        },
        {
          "internalType": "bytes",
          "name": "data",
          "type": "bytes"
        }
      ],
      "name": "safeTransferFrom",
      "outputs": [],
      "stateMutability": "nonpayable",
      "type": "function"
    },
    {
      "inputs": [
        {
          "internalType": "address",
          "name": "operator",
          "type": "address"
        },
        {
          "internalType": "bool",
          "name": "approved",
          "type": "bool"
        }
      ],
      "name": "setApprovalForAll",
      "outputs": [],
      "stateMutability": "nonpayable",
      "type": "function"
    },
    {
      "inputs": [
        {
          "internalType": "uint256",
          "name": "id",
          "type": "uint256"
        },
        {
          "components": [
            {
              "internalType": "uint256",
              "name": "level",
              "type": "uint256"
            },
            {
              "internalType": "uint256",
              "name": "runs",
              "type": "uint256"
            },
            {
              "internalType": "uint256",
              "name": "wins",
              "type": "uint256"
            },
            {
              "internalType": "uint256",
              "name": "ability",
              "type": "uint256"
            },
            {
              "internalType": "uint256",
              "name": "health",
              "type": "uint256"
            },
            {
              "internalType": "uint256",
              "name": "mana",
              "type": "uint256"
            },
            {
              "internalType": "uint256",
              "name": "speed",
              "type": "uint256"
            },
            {
              "internalType": "uint256",
              "name": "collisionDamage",
              "type": "uint256"
            }
          ],
          "internalType": "struct MetarunCollection.Perks",
          "name": "perks",
          "type": "tuple"
        }
      ],
      "name": "setPerks",
      "outputs": [],
      "stateMutability": "nonpayable",
      "type": "function"
    },
    {
      "inputs": [
        {
          "internalType": "string",
          "name": "newUri",
          "type": "string"
        }
      ],
      "name": "setURI",
      "outputs": [],
      "stateMutability": "nonpayable",
      "type": "function"
    },
    {
      "inputs": [
        {
          "internalType": "bytes4",
          "name": "interfaceId",
          "type": "bytes4"
        }
      ],
      "name": "supportsInterface",
      "outputs": [
        {
          "internalType": "bool",
          "name": "",
          "type": "bool"
        }
      ],
      "stateMutability": "view",
      "type": "function"
    },
    {
      "inputs": [
        {
          "internalType": "uint256",
          "name": "id",
          "type": "uint256"
        }
      ],
      "name": "totalSupply",
      "outputs": [
        {
          "internalType": "uint256",
          "name": "",
          "type": "uint256"
        }
      ],
      "stateMutability": "view",
      "type": "function"
    },
    {
      "inputs": [
        {
          "internalType": "uint256",
          "name": "",
          "type": "uint256"
        }
      ],
      "name": "uri",
      "outputs": [
        {
          "internalType": "string",
          "name": "",
          "type": "string"
        }
      ],
      "stateMutability": "view",
      "type": "function"
    }
  ],
  "transactionHash": "0xc82c528dc56bbd92a3df7f87f53a4455a694bc9e93f97436bd126f7451f657aa",
  "args": [],
  "numDeployments": 1,
  "solcInputHash": "748eaff5b8025a1500de438a0d1a5ee7",
  "bytecode": "0x608060405234801561001057600080fd5b506157de80620000216000396000f3fe608060405234801561001057600080fd5b50600436106102735760003560e01c8063565554ff11610151578063b7569fd5116100c3578063df4b5aeb11610087578063df4b5aeb146107c2578063e985e9c5146107e0578063f242432a14610810578063f5298aca1461082c578063f62d188814610848578063fe4ba8c11461086457610273565b8063b7569fd5146106f8578063bd85b03914610728578063ca16487b14610758578063d539139314610788578063d547741f146107a657610273565b80639177595e116101155780639177595e1461063457806391d1485414610652578063a2011b3f14610682578063a217fddf146106a0578063a22cb465146106be578063b73eeaf6146106da57610273565b8063565554ff1461057c5780636b20c4541461059a5780636ca8fede146105b6578063792f96cf146105e65780638a6ad02e1461060457610273565b80632b2a43c0116101ea57806336568abe116101ae57806336568abe14610494578063387570ca146104b057806345ada2ab146104ce578063492e17fe146104ec5780634e1273f41461051c5780634f558e791461054c57610273565b80632b2a43c0146104045780632d1e97f8146104225780632e81aaea146104405780632eb2c2d61461045c5780632f2ff15d1461047857610273565b80630e89341c1161023c5780630e89341c14610330578063156e29f61461036057806317f309df1461037c5780632147e11114610398578063248a9ca3146103b657806327efa6ea146103e657610273565b8062fdd58e14610278578063010a2ae1146102a857806301ffc9a7146102c657806302fe5305146102f65780630e5bda9814610312575b600080fd5b610292600480360381019061028d9190613782565b610882565b60405161029f91906137d1565b60405180910390f35b6102b061094b565b6040516102bd91906137d1565b60405180910390f35b6102e060048036038101906102db9190613844565b610951565b6040516102ed919061388c565b60405180910390f35b610310600480360381019061030b91906139ed565b610963565b005b61031a6109c2565b60405161032791906137d1565b60405180910390f35b61034a60048036038101906103459190613a36565b6109d8565b6040516103579190613aeb565b60405180910390f35b61037a60048036038101906103759190613b0d565b610a6c565b005b61039660048036038101906103919190613c2f565b610bcb565b005b6103a0610d02565b6040516103ad91906137d1565b60405180910390f35b6103d060048036038101906103cb9190613ca6565b610d07565b6040516103dd9190613ce2565b60405180910390f35b6103ee610d27565b6040516103fb91906137d1565b60405180910390f35b61040c610d2c565b60405161041991906137d1565b60405180910390f35b61042a610d32565b60405161043791906137d1565b60405180910390f35b61045a60048036038101906104559190613b0d565b610d38565b005b61047660048036038101906104719190613e66565b611003565b005b610492600480360381019061048d9190613f35565b6110a4565b005b6104ae60048036038101906104a99190613f35565b6110cd565b005b6104b8611150565b6040516104c591906137d1565b60405180910390f35b6104d6611156565b6040516104e391906137d1565b60405180910390f35b61050660048036038101906105019190613f75565b61115c565b604051610513919061388c565b60405180910390f35b61053660048036038101906105319190614078565b611171565b60405161054391906141ae565b60405180910390f35b61056660048036038101906105619190613a36565b61128a565b604051610573919061388c565b60405180910390f35b61058461129e565b60405161059191906137d1565b60405180910390f35b6105b460048036038101906105af91906141d0565b6112a4565b005b6105d060048036038101906105cb9190613a36565b611341565b6040516105dd91906137d1565b60405180910390f35b6105ee611355565b6040516105fb91906137d1565b60405180910390f35b61061e60048036038101906106199190613a36565b61136b565b60405161062b91906137d1565b60405180910390f35b61063c611389565b60405161064991906137d1565b60405180910390f35b61066c60048036038101906106679190613f35565b61139f565b604051610679919061388c565b60405180910390f35b61068a61140a565b6040516106979190613ce2565b60405180910390f35b6106a861142e565b6040516106b59190613ce2565b60405180910390f35b6106d860048036038101906106d39190614287565b611435565b005b6106e261144b565b6040516106ef91906137d1565b60405180910390f35b610712600480360381019061070d9190613a36565b611450565b60405161071f919061388c565b60405180910390f35b610742600480360381019061073d9190613a36565b611488565b60405161074f91906137d1565b60405180910390f35b610772600480360381019061076d9190613a36565b6114a5565b60405161077f9190614369565b60405180910390f35b61079061157f565b60405161079d9190613ce2565b60405180910390f35b6107c060048036038101906107bb9190613f35565b6115a3565b005b6107ca6115cc565b6040516107d791906137d1565b60405180910390f35b6107fa60048036038101906107f59190614385565b6115e2565b604051610807919061388c565b60405180910390f35b61082a600480360381019061082591906143c5565b611676565b005b61084660048036038101906108419190613b0d565b611717565b005b610862600480360381019061085d91906139ed565b6117b4565b005b61086c611918565b60405161087991906137d1565b60405180910390f35b60008073ffffffffffffffffffffffffffffffffffffffff168373ffffffffffffffffffffffffffffffffffffffff16036108f2576040517f08c379a00000000000000000000000000000000000000000000000000000000081526004016108e9906144ce565b60405180910390fd5b6065600083815260200190815260200160002060008473ffffffffffffffffffffffffffffffffffffffff1673ffffffffffffffffffffffffffffffffffffffff16815260200190815260200160002054905092915050565b61030181565b600061095c8261192e565b9050919050565b6109776000801b6109726119a8565b61139f565b6109b6576040517f08c379a00000000000000000000000000000000000000000000000000000000081526004016109ad9061453a565b60405180910390fd5b6109bf816119b0565b50565b60036010610500901b6109d59190614589565b81565b6060606780546109e79061460e565b80601f0160208091040260200160405190810160405280929190818152602001828054610a139061460e565b8015610a605780601f10610a3557610100808354040283529160200191610a60565b820191906000526020600020905b815481529060010190602001808311610a4357829003601f168201915b50505050509050919050565b610a9d7f9f2df0fed2c77648de5860a4cc508cd0818c85b8b8a1ab4ceeef8d981c8956a6610a986119a8565b61139f565b610adc576040517f08c379a0000000000000000000000000000000000000000000000000000000008152600401610ad3906146b1565b60405180910390fd5b610ae88261050061115c565b610b795760018114610b2f576040517f08c379a0000000000000000000000000000000000000000000000000000000008152600401610b269061471d565b60405180910390fd5b610b388261128a565b15610b78576040517f08c379a0000000000000000000000000000000000000000000000000000000008152600401610b6f9061471d565b60405180910390fd5b5b610b94838383604051806020016040528060008152506119ca565b61012d6000610ba284611341565b81526020019081526020016000206000815480929190610bc19061473d565b9190505550505050565b610bd482611450565b80610be75750610be68261020061115c565b5b610c26576040517f08c379a0000000000000000000000000000000000000000000000000000000008152600401610c1d906147f7565b60405180910390fd5b610c577f61c92169ef077349011ff0b1383c894d86c5f0b41d986366b58a6cf31e93beda610c526119a8565b61139f565b610c96576040517f08c379a0000000000000000000000000000000000000000000000000000000008152600401610c8d90614863565b60405180910390fd5b8061012e6000848152602001908152602001600020600082015181600001556020820151816001015560408201518160020155606082015181600301556080820151816004015560a0820151816005015560c0820151816006015560e082015181600701559050505050565b600081565b600060976000838152602001908152602001600020600101549050919050565b600181565b61020081565b61010081565b610d697f9f2df0fed2c77648de5860a4cc508cd0818c85b8b8a1ab4ceeef8d981c8956a6610d646119a8565b61139f565b610da8576040517f08c379a0000000000000000000000000000000000000000000000000000000008152600401610d9f906148cf565b60405180910390fd5b6105008203610dec576040517f08c379a0000000000000000000000000000000000000000000000000000000008152600401610de39061493b565b60405180910390fd5b60008111610e2f576040517f08c379a0000000000000000000000000000000000000000000000000000000008152600401610e26906149a7565b60405180910390fd5b60008167ffffffffffffffff811115610e4b57610e4a6138c2565b5b604051908082528060200260200182016040528015610e795781602001602082028036833780820191505090505b509050600080601085901b90505b83821015610f2757610e99818661115c565b610ed8576040517f08c379a0000000000000000000000000000000000000000000000000000000008152600401610ecf90614a13565b60405180910390fd5b610ee18161128a565b610f145780838381518110610ef957610ef8614a33565b5b6020026020010181815250508180610f109061473d565b9250505b8080610f1f9061473d565b915050610e87565b60008467ffffffffffffffff811115610f4357610f426138c2565b5b604051908082528060200260200182016040528015610f715781602001602082028036833780820191505090505b50905060005b85811015610fb3576001828281518110610f9457610f93614a33565b5b6020026020010181815250508080610fab9061473d565b915050610f77565b50610fcf87858360405180602001604052806000815250611b60565b8461012d60008881526020019081526020016000206000828254610ff39190614589565b9250508190555050505050505050565b61100b6119a8565b73ffffffffffffffffffffffffffffffffffffffff168573ffffffffffffffffffffffffffffffffffffffff16148061105157506110508561104b6119a8565b6115e2565b5b611090576040517f08c379a000000000000000000000000000000000000000000000000000000000815260040161108790614ad4565b60405180910390fd5b61109d8585858585611d7e565b5050505050565b6110ad82610d07565b6110be816110b96119a8565b612094565b6110c88383612131565b505050565b6110d56119a8565b73ffffffffffffffffffffffffffffffffffffffff168173ffffffffffffffffffffffffffffffffffffffff1614611142576040517f08c379a000000000000000000000000000000000000000000000000000000000815260040161113990614b66565b60405180910390fd5b61114c8282612212565b5050565b61030281565b61030081565b60008161116884611341565b14905092915050565b606081518351146111b7576040517f08c379a00000000000000000000000000000000000000000000000000000000081526004016111ae90614bf8565b60405180910390fd5b6000835167ffffffffffffffff8111156111d4576111d36138c2565b5b6040519080825280602002602001820160405280156112025781602001602082028036833780820191505090505b50905060005b845181101561127f5761124f85828151811061122757611226614a33565b5b602002602001015185838151811061124257611241614a33565b5b6020026020010151610882565b82828151811061126257611261614a33565b5b602002602001018181525050806112789061473d565b9050611208565b508091505092915050565b60008061129683611488565b119050919050565b61050081565b6112ac6119a8565b73ffffffffffffffffffffffffffffffffffffffff168373ffffffffffffffffffffffffffffffffffffffff1614806112f257506112f1836112ec6119a8565b6115e2565b5b611331576040517f08c379a000000000000000000000000000000000000000000000000000000000815260040161132890614c8a565b60405180910390fd5b61133c8383836122f4565b505050565b600060108263ffff000016901c9050919050565b60006010610500901b6113689190614589565b81565b600061012d6000838152602001908152602001600020549050919050565b60046010610500901b61139c9190614589565b81565b60006097600084815260200190815260200160002060000160008373ffffffffffffffffffffffffffffffffffffffff1673ffffffffffffffffffffffffffffffffffffffff16815260200190815260200160002060009054906101000a900460ff16905092915050565b7f61c92169ef077349011ff0b1383c894d86c5f0b41d986366b58a6cf31e93beda81565b6000801b81565b6114476114406119a8565b83836125a6565b5050565b600281565b600061145d82600061115c565b8061146f575061146e82600161115c565b5b80611481575061148082600261115c565b5b9050919050565b600060fb6000838152602001908152602001600020549050919050565b6114ad6135f2565b6114b682611450565b806114c957506114c88261020061115c565b5b611508576040517f08c379a00000000000000000000000000000000000000000000000000000000081526004016114ff906147f7565b60405180910390fd5b61012e600083815260200190815260200160002060405180610100016040529081600082015481526020016001820154815260200160028201548152602001600382015481526020016004820154815260200160058201548152602001600682015481526020016007820154815250509050919050565b7f9f2df0fed2c77648de5860a4cc508cd0818c85b8b8a1ab4ceeef8d981c8956a681565b6115ac82610d07565b6115bd816115b86119a8565b612094565b6115c78383612212565b505050565b60026010610500901b6115df9190614589565b81565b6000606660008473ffffffffffffffffffffffffffffffffffffffff1673ffffffffffffffffffffffffffffffffffffffff16815260200190815260200160002060008373ffffffffffffffffffffffffffffffffffffffff1673ffffffffffffffffffffffffffffffffffffffff16815260200190815260200160002060009054906101000a900460ff16905092915050565b61167e6119a8565b73ffffffffffffffffffffffffffffffffffffffff168573ffffffffffffffffffffffffffffffffffffffff1614806116c457506116c3856116be6119a8565b6115e2565b5b611703576040517f08c379a00000000000000000000000000000000000000000000000000000000081526004016116fa90614c8a565b60405180910390fd5b6117108585858585612712565b5050505050565b61171f6119a8565b73ffffffffffffffffffffffffffffffffffffffff168373ffffffffffffffffffffffffffffffffffffffff16148061176557506117648361175f6119a8565b6115e2565b5b6117a4576040517f08c379a000000000000000000000000000000000000000000000000000000000815260040161179b90614c8a565b60405180910390fd5b6117af838383612996565b505050565b600060019054906101000a900460ff166117dc5760008054906101000a900460ff16156117e5565b6117e4612bb4565b5b611824576040517f08c379a000000000000000000000000000000000000000000000000000000000815260040161181b90614d1c565b60405180910390fd5b60008060019054906101000a900460ff161590508015611874576001600060016101000a81548160ff02191690831515021790555060016000806101000a81548160ff0219169083151502179055505b61187d82612bc5565b6118916000801b61188c6119a8565b612c20565b6118c27f9f2df0fed2c77648de5860a4cc508cd0818c85b8b8a1ab4ceeef8d981c8956a66118bd6119a8565b612c20565b6118f37f61c92169ef077349011ff0b1383c894d86c5f0b41d986366b58a6cf31e93beda6118ee6119a8565b612c20565b80156119145760008060016101000a81548160ff0219169083151502179055505b5050565b60016010610500901b61192b9190614589565b81565b60007f7965db0b000000000000000000000000000000000000000000000000000000007bffffffffffffffffffffffffffffffffffffffffffffffffffffffff1916827bffffffffffffffffffffffffffffffffffffffffffffffffffffffff191614806119a157506119a082612c2e565b5b9050919050565b600033905090565b80606790805190602001906119c6929190613637565b5050565b600073ffffffffffffffffffffffffffffffffffffffff168473ffffffffffffffffffffffffffffffffffffffff1603611a39576040517f08c379a0000000000000000000000000000000000000000000000000000000008152600401611a3090614dae565b60405180910390fd5b6000611a436119a8565b9050611a6481600087611a5588612d10565b611a5e88612d10565b87612d8a565b826065600086815260200190815260200160002060008773ffffffffffffffffffffffffffffffffffffffff1673ffffffffffffffffffffffffffffffffffffffff1681526020019081526020016000206000828254611ac49190614589565b925050819055508473ffffffffffffffffffffffffffffffffffffffff16600073ffffffffffffffffffffffffffffffffffffffff168273ffffffffffffffffffffffffffffffffffffffff167fc3d58168c5ae7397731d063d5bbf3d657854427343f4c083240f7aacaa2d0f628787604051611b42929190614dce565b60405180910390a4611b5981600087878787612da0565b5050505050565b600073ffffffffffffffffffffffffffffffffffffffff168473ffffffffffffffffffffffffffffffffffffffff1603611bcf576040517f08c379a0000000000000000000000000000000000000000000000000000000008152600401611bc690614dae565b60405180910390fd5b8151835114611c13576040517f08c379a0000000000000000000000000000000000000000000000000000000008152600401611c0a90614e69565b60405180910390fd5b6000611c1d6119a8565b9050611c2e81600087878787612d8a565b60005b8451811015611ce857838181518110611c4d57611c4c614a33565b5b602002602001015160656000878481518110611c6c57611c6b614a33565b5b6020026020010151815260200190815260200160002060008873ffffffffffffffffffffffffffffffffffffffff1673ffffffffffffffffffffffffffffffffffffffff1681526020019081526020016000206000828254611cce9190614589565b925050819055508080611ce09061473d565b915050611c31565b508473ffffffffffffffffffffffffffffffffffffffff16600073ffffffffffffffffffffffffffffffffffffffff168273ffffffffffffffffffffffffffffffffffffffff167f4a39dc06d4c0dbc64b70af90fd698a233a518aa5d07e595d983b8c0526c8f7fb8787604051611d60929190614e89565b60405180910390a4611d7781600087878787612f77565b5050505050565b8151835114611dc2576040517f08c379a0000000000000000000000000000000000000000000000000000000008152600401611db990614e69565b60405180910390fd5b600073ffffffffffffffffffffffffffffffffffffffff168473ffffffffffffffffffffffffffffffffffffffff1603611e31576040517f08c379a0000000000000000000000000000000000000000000000000000000008152600401611e2890614f32565b60405180910390fd5b6000611e3b6119a8565b9050611e4b818787878787612d8a565b60005b8451811015611fff576000858281518110611e6c57611e6b614a33565b5b602002602001015190506000858381518110611e8b57611e8a614a33565b5b6020026020010151905060006065600084815260200190815260200160002060008b73ffffffffffffffffffffffffffffffffffffffff1673ffffffffffffffffffffffffffffffffffffffff16815260200190815260200160002054905081811015611f2d576040517f08c379a0000000000000000000000000000000000000000000000000000000008152600401611f2490614fc4565b60405180910390fd5b8181036065600085815260200190815260200160002060008c73ffffffffffffffffffffffffffffffffffffffff1673ffffffffffffffffffffffffffffffffffffffff16815260200190815260200160002081905550816065600085815260200190815260200160002060008b73ffffffffffffffffffffffffffffffffffffffff1673ffffffffffffffffffffffffffffffffffffffff1681526020019081526020016000206000828254611fe49190614589565b9250508190555050505080611ff89061473d565b9050611e4e565b508473ffffffffffffffffffffffffffffffffffffffff168673ffffffffffffffffffffffffffffffffffffffff168273ffffffffffffffffffffffffffffffffffffffff167f4a39dc06d4c0dbc64b70af90fd698a233a518aa5d07e595d983b8c0526c8f7fb8787604051612076929190614e89565b60405180910390a461208c818787878787612f77565b505050505050565b61209e828261139f565b61212d576120c38173ffffffffffffffffffffffffffffffffffffffff16601461314e565b6120d18360001c602061314e565b6040516020016120e29291906150b8565b6040516020818303038152906040526040517f08c379a00000000000000000000000000000000000000000000000000000000081526004016121249190613aeb565b60405180910390fd5b5050565b61213b828261139f565b61220e5760016097600084815260200190815260200160002060000160008373ffffffffffffffffffffffffffffffffffffffff1673ffffffffffffffffffffffffffffffffffffffff16815260200190815260200160002060006101000a81548160ff0219169083151502179055506121b36119a8565b73ffffffffffffffffffffffffffffffffffffffff168173ffffffffffffffffffffffffffffffffffffffff16837f2f8788117e7eff1d82e926ec794901d17c78024a50270940304540a733656f0d60405160405180910390a45b5050565b61221c828261139f565b156122f05760006097600084815260200190815260200160002060000160008373ffffffffffffffffffffffffffffffffffffffff1673ffffffffffffffffffffffffffffffffffffffff16815260200190815260200160002060006101000a81548160ff0219169083151502179055506122956119a8565b73ffffffffffffffffffffffffffffffffffffffff168173ffffffffffffffffffffffffffffffffffffffff16837ff6391f5c32d9c69d2a47ea670b442974b53935d1edc7fd64eb21e047a839171b60405160405180910390a45b5050565b600073ffffffffffffffffffffffffffffffffffffffff168373ffffffffffffffffffffffffffffffffffffffff1603612363576040517f08c379a000000000000000000000000000000000000000000000000000000000815260040161235a90615164565b60405180910390fd5b80518251146123a7576040517f08c379a000000000000000000000000000000000000000000000000000000000815260040161239e90614e69565b60405180910390fd5b60006123b16119a8565b90506123d181856000868660405180602001604052806000815250612d8a565b60005b83518110156125205760008482815181106123f2576123f1614a33565b5b60200260200101519050600084838151811061241157612410614a33565b5b6020026020010151905060006065600084815260200190815260200160002060008973ffffffffffffffffffffffffffffffffffffffff1673ffffffffffffffffffffffffffffffffffffffff168152602001908152602001600020549050818110156124b3576040517f08c379a00000000000000000000000000000000000000000000000000000000081526004016124aa906151f6565b60405180910390fd5b8181036065600085815260200190815260200160002060008a73ffffffffffffffffffffffffffffffffffffffff1673ffffffffffffffffffffffffffffffffffffffff1681526020019081526020016000208190555050505080806125189061473d565b9150506123d4565b50600073ffffffffffffffffffffffffffffffffffffffff168473ffffffffffffffffffffffffffffffffffffffff168273ffffffffffffffffffffffffffffffffffffffff167f4a39dc06d4c0dbc64b70af90fd698a233a518aa5d07e595d983b8c0526c8f7fb8686604051612598929190614e89565b60405180910390a450505050565b8173ffffffffffffffffffffffffffffffffffffffff168373ffffffffffffffffffffffffffffffffffffffff1603612614576040517f08c379a000000000000000000000000000000000000000000000000000000000815260040161260b90615288565b60405180910390fd5b80606660008573ffffffffffffffffffffffffffffffffffffffff1673ffffffffffffffffffffffffffffffffffffffff16815260200190815260200160002060008473ffffffffffffffffffffffffffffffffffffffff1673ffffffffffffffffffffffffffffffffffffffff16815260200190815260200160002060006101000a81548160ff0219169083151502179055508173ffffffffffffffffffffffffffffffffffffffff168373ffffffffffffffffffffffffffffffffffffffff167f17307eab39ab6107e8899845ad3d59bd9653f200f220920489ca2b5937696c3183604051612705919061388c565b60405180910390a3505050565b600073ffffffffffffffffffffffffffffffffffffffff168473ffffffffffffffffffffffffffffffffffffffff1603612781576040517f08c379a000000000000000000000000000000000000000000000000000000000815260040161277890614f32565b60405180910390fd5b600061278b6119a8565b90506127ab81878761279c88612d10565b6127a588612d10565b87612d8a565b60006065600086815260200190815260200160002060008873ffffffffffffffffffffffffffffffffffffffff1673ffffffffffffffffffffffffffffffffffffffff16815260200190815260200160002054905083811015612843576040517f08c379a000000000000000000000000000000000000000000000000000000000815260040161283a90614fc4565b60405180910390fd5b8381036065600087815260200190815260200160002060008973ffffffffffffffffffffffffffffffffffffffff1673ffffffffffffffffffffffffffffffffffffffff16815260200190815260200160002081905550836065600087815260200190815260200160002060008873ffffffffffffffffffffffffffffffffffffffff1673ffffffffffffffffffffffffffffffffffffffff16815260200190815260200160002060008282546128fa9190614589565b925050819055508573ffffffffffffffffffffffffffffffffffffffff168773ffffffffffffffffffffffffffffffffffffffff168373ffffffffffffffffffffffffffffffffffffffff167fc3d58168c5ae7397731d063d5bbf3d657854427343f4c083240f7aacaa2d0f628888604051612977929190614dce565b60405180910390a461298d828888888888612da0565b50505050505050565b600073ffffffffffffffffffffffffffffffffffffffff168373ffffffffffffffffffffffffffffffffffffffff1603612a05576040517f08c379a00000000000000000000000000000000000000000000000000000000081526004016129fc90615164565b60405180910390fd5b6000612a0f6119a8565b9050612a3f81856000612a2187612d10565b612a2a87612d10565b60405180602001604052806000815250612d8a565b60006065600085815260200190815260200160002060008673ffffffffffffffffffffffffffffffffffffffff1673ffffffffffffffffffffffffffffffffffffffff16815260200190815260200160002054905082811015612ad7576040517f08c379a0000000000000000000000000000000000000000000000000000000008152600401612ace906151f6565b60405180910390fd5b8281036065600086815260200190815260200160002060008773ffffffffffffffffffffffffffffffffffffffff1673ffffffffffffffffffffffffffffffffffffffff16815260200190815260200160002081905550600073ffffffffffffffffffffffffffffffffffffffff168573ffffffffffffffffffffffffffffffffffffffff168373ffffffffffffffffffffffffffffffffffffffff167fc3d58168c5ae7397731d063d5bbf3d657854427343f4c083240f7aacaa2d0f628787604051612ba5929190614dce565b60405180910390a45050505050565b6000612bbf3061338a565b15905090565b600060019054906101000a900460ff16612c14576040517f08c379a0000000000000000000000000000000000000000000000000000000008152600401612c0b9061531a565b60405180910390fd5b612c1d816133ad565b50565b612c2a8282612131565b5050565b60007fd9b67a26000000000000000000000000000000000000000000000000000000007bffffffffffffffffffffffffffffffffffffffffffffffffffffffff1916827bffffffffffffffffffffffffffffffffffffffffffffffffffffffff19161480612cf957507f0e89341c000000000000000000000000000000000000000000000000000000007bffffffffffffffffffffffffffffffffffffffffffffffffffffffff1916827bffffffffffffffffffffffffffffffffffffffffffffffffffffffff1916145b80612d095750612d0882613408565b5b9050919050565b60606000600167ffffffffffffffff811115612d2f57612d2e6138c2565b5b604051908082528060200260200182016040528015612d5d5781602001602082028036833780820191505090505b5090508281600081518110612d7557612d74614a33565b5b60200260200101818152505080915050919050565b612d98868686868686613472565b505050505050565b612dbf8473ffffffffffffffffffffffffffffffffffffffff1661338a565b15612f6f578373ffffffffffffffffffffffffffffffffffffffff1663f23a6e6187878686866040518663ffffffff1660e01b8152600401612e0595949392919061539e565b6020604051808303816000875af1925050508015612e4157506040513d601f19601f82011682018060405250810190612e3e919061540d565b60015b612ee657612e4d615447565b806308c379a003612ea95750612e61615469565b80612e6c5750612eab565b806040517f08c379a0000000000000000000000000000000000000000000000000000000008152600401612ea09190613aeb565b60405180910390fd5b505b6040517f08c379a0000000000000000000000000000000000000000000000000000000008152600401612edd9061556b565b60405180910390fd5b63f23a6e6160e01b7bffffffffffffffffffffffffffffffffffffffffffffffffffffffff1916817bffffffffffffffffffffffffffffffffffffffffffffffffffffffff191614612f6d576040517f08c379a0000000000000000000000000000000000000000000000000000000008152600401612f64906155fd565b60405180910390fd5b505b505050505050565b612f968473ffffffffffffffffffffffffffffffffffffffff1661338a565b15613146578373ffffffffffffffffffffffffffffffffffffffff1663bc197c8187878686866040518663ffffffff1660e01b8152600401612fdc95949392919061561d565b6020604051808303816000875af192505050801561301857506040513d601f19601f82011682018060405250810190613015919061540d565b60015b6130bd57613024615447565b806308c379a0036130805750613038615469565b806130435750613082565b806040517f08c379a00000000000000000000000000000000000000000000000000000000081526004016130779190613aeb565b60405180910390fd5b505b6040517f08c379a00000000000000000000000000000000000000000000000000000000081526004016130b49061556b565b60405180910390fd5b63bc197c8160e01b7bffffffffffffffffffffffffffffffffffffffffffffffffffffffff1916817bffffffffffffffffffffffffffffffffffffffffffffffffffffffff191614613144576040517f08c379a000000000000000000000000000000000000000000000000000000000815260040161313b906155fd565b60405180910390fd5b505b505050505050565b6060600060028360026131619190615685565b61316b9190614589565b67ffffffffffffffff811115613184576131836138c2565b5b6040519080825280601f01601f1916602001820160405280156131b65781602001600182028036833780820191505090505b5090507f3000000000000000000000000000000000000000000000000000000000000000816000815181106131ee576131ed614a33565b5b60200101907effffffffffffffffffffffffffffffffffffffffffffffffffffffffffffff1916908160001a9053507f78000000000000000000000000000000000000000000000000000000000000008160018151811061325257613251614a33565b5b60200101907effffffffffffffffffffffffffffffffffffffffffffffffffffffffffffff1916908160001a905350600060018460026132929190615685565b61329c9190614589565b90505b600181111561333c577f3031323334353637383961626364656600000000000000000000000000000000600f8616601081106132de576132dd614a33565b5b1a60f81b8282815181106132f5576132f4614a33565b5b60200101907effffffffffffffffffffffffffffffffffffffffffffffffffffffffffffff1916908160001a905350600485901c945080613335906156df565b905061329f565b5060008414613380576040517f08c379a000000000000000000000000000000000000000000000000000000000815260040161337790615754565b60405180910390fd5b8091505092915050565b6000808273ffffffffffffffffffffffffffffffffffffffff163b119050919050565b600060019054906101000a900460ff166133fc576040517f08c379a00000000000000000000000000000000000000000000000000000000081526004016133f39061531a565b60405180910390fd5b613405816119b0565b50565b60007f01ffc9a7000000000000000000000000000000000000000000000000000000007bffffffffffffffffffffffffffffffffffffffffffffffffffffffff1916827bffffffffffffffffffffffffffffffffffffffffffffffffffffffff1916149050919050565b6134808686868686866135ea565b600073ffffffffffffffffffffffffffffffffffffffff168573ffffffffffffffffffffffffffffffffffffffff16036135315760005b835181101561352f578281815181106134d3576134d2614a33565b5b602002602001015160fb60008684815181106134f2576134f1614a33565b5b6020026020010151815260200190815260200160002060008282546135179190614589565b92505081905550806135289061473d565b90506134b7565b505b600073ffffffffffffffffffffffffffffffffffffffff168473ffffffffffffffffffffffffffffffffffffffff16036135e25760005b83518110156135e05782818151811061358457613583614a33565b5b602002602001015160fb60008684815181106135a3576135a2614a33565b5b6020026020010151815260200190815260200160002060008282546135c89190615774565b92505081905550806135d99061473d565b9050613568565b505b505050505050565b505050505050565b60405180610100016040528060008152602001600081526020016000815260200160008152602001600081526020016000815260200160008152602001600081525090565b8280546136439061460e565b90600052602060002090601f01602090048101928261366557600085556136ac565b82601f1061367e57805160ff19168380011785556136ac565b828001600101855582156136ac579182015b828111156136ab578251825591602001919060010190613690565b5b5090506136b991906136bd565b5090565b5b808211156136d65760008160009055506001016136be565b5090565b6000604051905090565b600080fd5b600080fd5b600073ffffffffffffffffffffffffffffffffffffffff82169050919050565b6000613719826136ee565b9050919050565b6137298161370e565b811461373457600080fd5b50565b60008135905061374681613720565b92915050565b6000819050919050565b61375f8161374c565b811461376a57600080fd5b50565b60008135905061377c81613756565b92915050565b60008060408385031215613799576137986136e4565b5b60006137a785828601613737565b92505060206137b88582860161376d565b9150509250929050565b6137cb8161374c565b82525050565b60006020820190506137e660008301846137c2565b92915050565b60007fffffffff0000000000000000000000000000000000000000000000000000000082169050919050565b613821816137ec565b811461382c57600080fd5b50565b60008135905061383e81613818565b92915050565b60006020828403121561385a576138596136e4565b5b60006138688482850161382f565b91505092915050565b60008115159050919050565b61388681613871565b82525050565b60006020820190506138a1600083018461387d565b92915050565b600080fd5b600080fd5b6000601f19601f8301169050919050565b7f4e487b7100000000000000000000000000000000000000000000000000000000600052604160045260246000fd5b6138fa826138b1565b810181811067ffffffffffffffff82111715613919576139186138c2565b5b80604052505050565b600061392c6136da565b905061393882826138f1565b919050565b600067ffffffffffffffff821115613958576139576138c2565b5b613961826138b1565b9050602081019050919050565b82818337600083830152505050565b600061399061398b8461393d565b613922565b9050828152602081018484840111156139ac576139ab6138ac565b5b6139b784828561396e565b509392505050565b600082601f8301126139d4576139d36138a7565b5b81356139e484826020860161397d565b91505092915050565b600060208284031215613a0357613a026136e4565b5b600082013567ffffffffffffffff811115613a2157613a206136e9565b5b613a2d848285016139bf565b91505092915050565b600060208284031215613a4c57613a4b6136e4565b5b6000613a5a8482850161376d565b91505092915050565b600081519050919050565b600082825260208201905092915050565b60005b83811015613a9d578082015181840152602081019050613a82565b83811115613aac576000848401525b50505050565b6000613abd82613a63565b613ac78185613a6e565b9350613ad7818560208601613a7f565b613ae0816138b1565b840191505092915050565b60006020820190508181036000830152613b058184613ab2565b905092915050565b600080600060608486031215613b2657613b256136e4565b5b6000613b3486828701613737565b9350506020613b458682870161376d565b9250506040613b568682870161376d565b9150509250925092565b600080fd5b60006101008284031215613b7c57613b7b613b60565b5b613b87610100613922565b90506000613b978482850161376d565b6000830152506020613bab8482850161376d565b6020830152506040613bbf8482850161376d565b6040830152506060613bd38482850161376d565b6060830152506080613be78482850161376d565b60808301525060a0613bfb8482850161376d565b60a08301525060c0613c0f8482850161376d565b60c08301525060e0613c238482850161376d565b60e08301525092915050565b6000806101208385031215613c4757613c466136e4565b5b6000613c558582860161376d565b9250506020613c6685828601613b65565b9150509250929050565b6000819050919050565b613c8381613c70565b8114613c8e57600080fd5b50565b600081359050613ca081613c7a565b92915050565b600060208284031215613cbc57613cbb6136e4565b5b6000613cca84828501613c91565b91505092915050565b613cdc81613c70565b82525050565b6000602082019050613cf76000830184613cd3565b92915050565b600067ffffffffffffffff821115613d1857613d176138c2565b5b602082029050602081019050919050565b600080fd5b6000613d41613d3c84613cfd565b613922565b90508083825260208201905060208402830185811115613d6457613d63613d29565b5b835b81811015613d8d5780613d79888261376d565b845260208401935050602081019050613d66565b5050509392505050565b600082601f830112613dac57613dab6138a7565b5b8135613dbc848260208601613d2e565b91505092915050565b600067ffffffffffffffff821115613de057613ddf6138c2565b5b613de9826138b1565b9050602081019050919050565b6000613e09613e0484613dc5565b613922565b905082815260208101848484011115613e2557613e246138ac565b5b613e3084828561396e565b509392505050565b600082601f830112613e4d57613e4c6138a7565b5b8135613e5d848260208601613df6565b91505092915050565b600080600080600060a08688031215613e8257613e816136e4565b5b6000613e9088828901613737565b9550506020613ea188828901613737565b945050604086013567ffffffffffffffff811115613ec257613ec16136e9565b5b613ece88828901613d97565b935050606086013567ffffffffffffffff811115613eef57613eee6136e9565b5b613efb88828901613d97565b925050608086013567ffffffffffffffff811115613f1c57613f1b6136e9565b5b613f2888828901613e38565b9150509295509295909350565b60008060408385031215613f4c57613f4b6136e4565b5b6000613f5a85828601613c91565b9250506020613f6b85828601613737565b9150509250929050565b60008060408385031215613f8c57613f8b6136e4565b5b6000613f9a8582860161376d565b9250506020613fab8582860161376d565b9150509250929050565b600067ffffffffffffffff821115613fd057613fcf6138c2565b5b602082029050602081019050919050565b6000613ff4613fef84613fb5565b613922565b9050808382526020820190506020840283018581111561401757614016613d29565b5b835b81811015614040578061402c8882613737565b845260208401935050602081019050614019565b5050509392505050565b600082601f83011261405f5761405e6138a7565b5b813561406f848260208601613fe1565b91505092915050565b6000806040838503121561408f5761408e6136e4565b5b600083013567ffffffffffffffff8111156140ad576140ac6136e9565b5b6140b98582860161404a565b925050602083013567ffffffffffffffff8111156140da576140d96136e9565b5b6140e685828601613d97565b9150509250929050565b600081519050919050565b600082825260208201905092915050565b6000819050602082019050919050565b6141258161374c565b82525050565b6000614137838361411c565b60208301905092915050565b6000602082019050919050565b600061415b826140f0565b61416581856140fb565b93506141708361410c565b8060005b838110156141a1578151614188888261412b565b975061419383614143565b925050600181019050614174565b5085935050505092915050565b600060208201905081810360008301526141c88184614150565b905092915050565b6000806000606084860312156141e9576141e86136e4565b5b60006141f786828701613737565b935050602084013567ffffffffffffffff811115614218576142176136e9565b5b61422486828701613d97565b925050604084013567ffffffffffffffff811115614245576142446136e9565b5b61425186828701613d97565b9150509250925092565b61426481613871565b811461426f57600080fd5b50565b6000813590506142818161425b565b92915050565b6000806040838503121561429e5761429d6136e4565b5b60006142ac85828601613737565b92505060206142bd85828601614272565b9150509250929050565b610100820160008201516142de600085018261411c565b5060208201516142f1602085018261411c565b506040820151614304604085018261411c565b506060820151614317606085018261411c565b50608082015161432a608085018261411c565b5060a082015161433d60a085018261411c565b5060c082015161435060c085018261411c565b5060e082015161436360e085018261411c565b50505050565b60006101008201905061437f60008301846142c7565b92915050565b6000806040838503121561439c5761439b6136e4565b5b60006143aa85828601613737565b92505060206143bb85828601613737565b9150509250929050565b600080600080600060a086880312156143e1576143e06136e4565b5b60006143ef88828901613737565b955050602061440088828901613737565b94505060406144118882890161376d565b93505060606144228882890161376d565b925050608086013567ffffffffffffffff811115614443576144426136e9565b5b61444f88828901613e38565b9150509295509295909350565b7f455243313135353a2062616c616e636520717565727920666f7220746865207a60008201527f65726f2061646472657373000000000000000000000000000000000000000000602082015250565b60006144b8602b83613a6e565b91506144c38261445c565b604082019050919050565b600060208201905081810360008301526144e7816144ab565b9050919050565b7f6e6565642044454641554c545f41444d494e5f524f4c45000000000000000000600082015250565b6000614524601783613a6e565b915061452f826144ee565b602082019050919050565b6000602082019050818103600083015261455381614517565b9050919050565b7f4e487b7100000000000000000000000000000000000000000000000000000000600052601160045260246000fd5b60006145948261374c565b915061459f8361374c565b9250827fffffffffffffffffffffffffffffffffffffffffffffffffffffffffffffffff038211156145d4576145d361455a565b5b828201905092915050565b7f4e487b7100000000000000000000000000000000000000000000000000000000600052602260045260246000fd5b6000600282049050600182168061462657607f821691505b602082108103614639576146386145df565b5b50919050565b7f4d45544152554e434f4c4c454354494f4e3a206e656564204d494e5445525f5260008201527f4f4c450000000000000000000000000000000000000000000000000000000000602082015250565b600061469b602383613a6e565b91506146a68261463f565b604082019050919050565b600060208201905081810360008301526146ca8161468e565b9050919050565b7f43616e6e6f74206d696e74206d6f7265207468616e206f6e65206974656d0000600082015250565b6000614707601e83613a6e565b9150614712826146d1565b602082019050919050565b60006020820190508181036000830152614736816146fa565b9050919050565b60006147488261374c565b91507fffffffffffffffffffffffffffffffffffffffffffffffffffffffffffffffff820361477a5761477961455a565b5b600182019050919050565b7f5065726b732061726520617661696c61626c65206f6e6c7920666f722063686160008201527f7261637465727320616e64207065747300000000000000000000000000000000602082015250565b60006147e1603083613a6e565b91506147ec82614785565b604082019050919050565b60006020820190508181036000830152614810816147d4565b9050919050565b7f6e656564205345545445525f524f4c4500000000000000000000000000000000600082015250565b600061484d601083613a6e565b915061485882614817565b602082019050919050565b6000602082019050818103600083015261487c81614840565b9050919050565b7f4e4545445f4d494e5445525f524f4c4500000000000000000000000000000000600082015250565b60006148b9601083613a6e565b91506148c482614883565b602082019050919050565b600060208201905081810360008301526148e8816148ac565b9050919050565b7f554e5355495441424c455f4b494e440000000000000000000000000000000000600082015250565b6000614925600f83613a6e565b9150614930826148ef565b602082019050919050565b6000602082019050818103600083015261495481614918565b9050919050565b7f434f554e545f554e444552464c4f570000000000000000000000000000000000600082015250565b6000614991600f83613a6e565b915061499c8261495b565b602082019050919050565b600060208201905081810360008301526149c081614984565b9050919050565b7f4b494e445f4f564552464c4f5700000000000000000000000000000000000000600082015250565b60006149fd600d83613a6e565b9150614a08826149c7565b602082019050919050565b60006020820190508181036000830152614a2c816149f0565b9050919050565b7f4e487b7100000000000000000000000000000000000000000000000000000000600052603260045260246000fd5b7f455243313135353a207472616e736665722063616c6c6572206973206e6f742060008201527f6f776e6572206e6f7220617070726f7665640000000000000000000000000000602082015250565b6000614abe603283613a6e565b9150614ac982614a62565b604082019050919050565b60006020820190508181036000830152614aed81614ab1565b9050919050565b7f416363657373436f6e74726f6c3a2063616e206f6e6c792072656e6f756e636560008201527f20726f6c657320666f722073656c660000000000000000000000000000000000602082015250565b6000614b50602f83613a6e565b9150614b5b82614af4565b604082019050919050565b60006020820190508181036000830152614b7f81614b43565b9050919050565b7f455243313135353a206163636f756e747320616e6420696473206c656e67746860008201527f206d69736d617463680000000000000000000000000000000000000000000000602082015250565b6000614be2602983613a6e565b9150614bed82614b86565b604082019050919050565b60006020820190508181036000830152614c1181614bd5565b9050919050565b7f455243313135353a2063616c6c6572206973206e6f74206f776e6572206e6f7260008201527f20617070726f7665640000000000000000000000000000000000000000000000602082015250565b6000614c74602983613a6e565b9150614c7f82614c18565b604082019050919050565b60006020820190508181036000830152614ca381614c67565b9050919050565b7f496e697469616c697a61626c653a20636f6e747261637420697320616c72656160008201527f647920696e697469616c697a6564000000000000000000000000000000000000602082015250565b6000614d06602e83613a6e565b9150614d1182614caa565b604082019050919050565b60006020820190508181036000830152614d3581614cf9565b9050919050565b7f455243313135353a206d696e7420746f20746865207a65726f2061646472657360008201527f7300000000000000000000000000000000000000000000000000000000000000602082015250565b6000614d98602183613a6e565b9150614da382614d3c565b604082019050919050565b60006020820190508181036000830152614dc781614d8b565b9050919050565b6000604082019050614de360008301856137c2565b614df060208301846137c2565b9392505050565b7f455243313135353a2069647320616e6420616d6f756e7473206c656e6774682060008201527f6d69736d61746368000000000000000000000000000000000000000000000000602082015250565b6000614e53602883613a6e565b9150614e5e82614df7565b604082019050919050565b60006020820190508181036000830152614e8281614e46565b9050919050565b60006040820190508181036000830152614ea38185614150565b90508181036020830152614eb78184614150565b90509392505050565b7f455243313135353a207472616e7366657220746f20746865207a65726f20616460008201527f6472657373000000000000000000000000000000000000000000000000000000602082015250565b6000614f1c602583613a6e565b9150614f2782614ec0565b604082019050919050565b60006020820190508181036000830152614f4b81614f0f565b9050919050565b7f455243313135353a20696e73756666696369656e742062616c616e636520666f60008201527f72207472616e7366657200000000000000000000000000000000000000000000602082015250565b6000614fae602a83613a6e565b9150614fb982614f52565b604082019050919050565b60006020820190508181036000830152614fdd81614fa1565b9050919050565b600081905092915050565b7f416363657373436f6e74726f6c3a206163636f756e7420000000000000000000600082015250565b6000615025601783614fe4565b915061503082614fef565b601782019050919050565b600061504682613a63565b6150508185614fe4565b9350615060818560208601613a7f565b80840191505092915050565b7f206973206d697373696e6720726f6c6520000000000000000000000000000000600082015250565b60006150a2601183614fe4565b91506150ad8261506c565b601182019050919050565b60006150c382615018565b91506150cf828561503b565b91506150da82615095565b91506150e6828461503b565b91508190509392505050565b7f455243313135353a206275726e2066726f6d20746865207a65726f206164647260008201527f6573730000000000000000000000000000000000000000000000000000000000602082015250565b600061514e602383613a6e565b9150615159826150f2565b604082019050919050565b6000602082019050818103600083015261517d81615141565b9050919050565b7f455243313135353a206275726e20616d6f756e7420657863656564732062616c60008201527f616e636500000000000000000000000000000000000000000000000000000000602082015250565b60006151e0602483613a6e565b91506151eb82615184565b604082019050919050565b6000602082019050818103600083015261520f816151d3565b9050919050565b7f455243313135353a2073657474696e6720617070726f76616c2073746174757360008201527f20666f722073656c660000000000000000000000000000000000000000000000602082015250565b6000615272602983613a6e565b915061527d82615216565b604082019050919050565b600060208201905081810360008301526152a181615265565b9050919050565b7f496e697469616c697a61626c653a20636f6e7472616374206973206e6f74206960008201527f6e697469616c697a696e67000000000000000000000000000000000000000000602082015250565b6000615304602b83613a6e565b915061530f826152a8565b604082019050919050565b60006020820190508181036000830152615333816152f7565b9050919050565b6153438161370e565b82525050565b600081519050919050565b600082825260208201905092915050565b600061537082615349565b61537a8185615354565b935061538a818560208601613a7f565b615393816138b1565b840191505092915050565b600060a0820190506153b3600083018861533a565b6153c0602083018761533a565b6153cd60408301866137c2565b6153da60608301856137c2565b81810360808301526153ec8184615365565b90509695505050505050565b60008151905061540781613818565b92915050565b600060208284031215615423576154226136e4565b5b6000615431848285016153f8565b91505092915050565b60008160e01c9050919050565b600060033d11156154665760046000803e61546360005161543a565b90505b90565b600060443d106154f65761547b6136da565b60043d036004823e80513d602482011167ffffffffffffffff821117156154a35750506154f6565b808201805167ffffffffffffffff8111156154c157505050506154f6565b80602083010160043d0385018111156154de5750505050506154f6565b6154ed826020018501866138f1565b82955050505050505b90565b7f455243313135353a207472616e7366657220746f206e6f6e204552433131353560008201527f526563656976657220696d706c656d656e746572000000000000000000000000602082015250565b6000615555603483613a6e565b9150615560826154f9565b604082019050919050565b6000602082019050818103600083015261558481615548565b9050919050565b7f455243313135353a204552433131353552656365697665722072656a6563746560008201527f6420746f6b656e73000000000000000000000000000000000000000000000000602082015250565b60006155e7602883613a6e565b91506155f28261558b565b604082019050919050565b60006020820190508181036000830152615616816155da565b9050919050565b600060a082019050615632600083018861533a565b61563f602083018761533a565b81810360408301526156518186614150565b905081810360608301526156658185614150565b905081810360808301526156798184615365565b90509695505050505050565b60006156908261374c565b915061569b8361374c565b9250817fffffffffffffffffffffffffffffffffffffffffffffffffffffffffffffffff04831182151516156156d4576156d361455a565b5b828202905092915050565b60006156ea8261374c565b9150600082036156fd576156fc61455a565b5b600182039050919050565b7f537472696e67733a20686578206c656e67746820696e73756666696369656e74600082015250565b600061573e602083613a6e565b915061574982615708565b602082019050919050565b6000602082019050818103600083015261576d81615731565b9050919050565b600061577f8261374c565b915061578a8361374c565b92508282101561579d5761579c61455a565b5b82820390509291505056fea26469706673582212209c8386332649102ecbed4ae3ae638869af402cc160fb807b83786c60f397cc7564736f6c634300080d0033",
  "devdoc": {
    "kind": "dev",
    "methods": {
      "balanceOf(address,uint256)": {
        "details": "See {IERC1155-balanceOf}. Requirements: - `account` cannot be the zero address."
      },
      "balanceOfBatch(address[],uint256[])": {
        "details": "See {IERC1155-balanceOfBatch}. Requirements: - `accounts` and `ids` must have the same length."
      },
      "exists(uint256)": {
        "details": "Indicates whether any token exist with a given id, or not."
      },
      "getRoleAdmin(bytes32)": {
        "details": "Returns the admin role that controls `role`. See {grantRole} and {revokeRole}. To change a role's admin, use {_setRoleAdmin}."
      },
      "grantRole(bytes32,address)": {
        "details": "Grants `role` to `account`. If `account` had not been already granted `role`, emits a {RoleGranted} event. Requirements: - the caller must have ``role``'s admin role."
      },
      "hasRole(bytes32,address)": {
        "details": "Returns `true` if `account` has been granted `role`."
      },
      "isApprovedForAll(address,address)": {
        "details": "See {IERC1155-isApprovedForAll}."
      },
      "renounceRole(bytes32,address)": {
        "details": "Revokes `role` from the calling account. Roles are often managed via {grantRole} and {revokeRole}: this function's purpose is to provide a mechanism for accounts to lose their privileges if they are compromised (such as when a trusted device is misplaced). If the calling account had been revoked `role`, emits a {RoleRevoked} event. Requirements: - the caller must be `account`."
      },
      "revokeRole(bytes32,address)": {
        "details": "Revokes `role` from `account`. If `account` had been granted `role`, emits a {RoleRevoked} event. Requirements: - the caller must have ``role``'s admin role."
      },
      "safeBatchTransferFrom(address,address,uint256[],uint256[],bytes)": {
        "details": "See {IERC1155-safeBatchTransferFrom}."
      },
      "safeTransferFrom(address,address,uint256,uint256,bytes)": {
        "details": "See {IERC1155-safeTransferFrom}."
      },
      "setApprovalForAll(address,bool)": {
        "details": "See {IERC1155-setApprovalForAll}."
      },
      "totalSupply(uint256)": {
        "details": "Total amount of tokens in with a given id."
      },
      "uri(uint256)": {
        "details": "See {IERC1155MetadataURI-uri}. This implementation returns the same URI for *all* token types. It relies on the token type ID substitution mechanism https://eips.ethereum.org/EIPS/eip-1155#metadata[defined in the EIP]. Clients calling this function must replace the `\\{id\\}` substring with the actual token type ID."
      }
    },
    "version": 1
  },
  "userdoc": {
    "kind": "user",
    "methods": {},
    "version": 1
  },
  "storageLayout": {
    "storage": [
      {
        "astId": 532,
        "contract": "contracts/MetarunCollection.sol:MetarunCollection",
        "label": "_initialized",
        "offset": 0,
        "slot": "0",
        "type": "t_bool"
      },
      {
        "astId": 535,
        "contract": "contracts/MetarunCollection.sol:MetarunCollection",
        "label": "_initializing",
        "offset": 1,
        "slot": "0",
        "type": "t_bool"
      },
      {
        "astId": 2723,
        "contract": "contracts/MetarunCollection.sol:MetarunCollection",
        "label": "__gap",
        "offset": 0,
        "slot": "1",
        "type": "t_array(t_uint256)50_storage"
      },
      {
        "astId": 2970,
        "contract": "contracts/MetarunCollection.sol:MetarunCollection",
        "label": "__gap",
        "offset": 0,
        "slot": "51",
        "type": "t_array(t_uint256)50_storage"
      },
      {
        "astId": 628,
        "contract": "contracts/MetarunCollection.sol:MetarunCollection",
        "label": "_balances",
        "offset": 0,
        "slot": "101",
        "type": "t_mapping(t_uint256,t_mapping(t_address,t_uint256))"
      },
      {
        "astId": 634,
        "contract": "contracts/MetarunCollection.sol:MetarunCollection",
        "label": "_operatorApprovals",
        "offset": 0,
        "slot": "102",
        "type": "t_mapping(t_address,t_mapping(t_address,t_bool))"
      },
      {
        "astId": 636,
        "contract": "contracts/MetarunCollection.sol:MetarunCollection",
        "label": "_uri",
        "offset": 0,
        "slot": "103",
        "type": "t_string_storage"
      },
      {
        "astId": 1716,
        "contract": "contracts/MetarunCollection.sol:MetarunCollection",
        "label": "__gap",
        "offset": 0,
        "slot": "104",
        "type": "t_array(t_uint256)47_storage"
      },
      {
        "astId": 39,
        "contract": "contracts/MetarunCollection.sol:MetarunCollection",
        "label": "_roles",
        "offset": 0,
        "slot": "151",
        "type": "t_mapping(t_bytes32,t_struct(RoleData)34_storage)"
      },
      {
        "astId": 327,
        "contract": "contracts/MetarunCollection.sol:MetarunCollection",
        "label": "__gap",
        "offset": 0,
        "slot": "152",
        "type": "t_array(t_uint256)49_storage"
      },
      {
        "astId": 1968,
        "contract": "contracts/MetarunCollection.sol:MetarunCollection",
        "label": "__gap",
        "offset": 0,
        "slot": "201",
        "type": "t_array(t_uint256)50_storage"
      },
      {
        "astId": 1994,
        "contract": "contracts/MetarunCollection.sol:MetarunCollection",
        "label": "_totalSupply",
        "offset": 0,
        "slot": "251",
        "type": "t_mapping(t_uint256,t_uint256)"
      },
      {
        "astId": 2121,
        "contract": "contracts/MetarunCollection.sol:MetarunCollection",
        "label": "__gap",
        "offset": 0,
        "slot": "252",
        "type": "t_array(t_uint256)49_storage"
      },
      {
        "astId": 6768,
        "contract": "contracts/MetarunCollection.sol:MetarunCollection",
        "label": "kindSupply",
        "offset": 0,
        "slot": "301",
        "type": "t_mapping(t_uint256,t_uint256)"
      },
      {
        "astId": 6790,
        "contract": "contracts/MetarunCollection.sol:MetarunCollection",
        "label": "tokenPerks",
        "offset": 0,
        "slot": "302",
        "type": "t_mapping(t_uint256,t_struct(Perks)6785_storage)"
      }
    ],
    "types": {
      "t_address": {
        "encoding": "inplace",
        "label": "address",
        "numberOfBytes": "20"
      },
      "t_array(t_uint256)47_storage": {
        "base": "t_uint256",
        "encoding": "inplace",
        "label": "uint256[47]",
        "numberOfBytes": "1504"
      },
      "t_array(t_uint256)49_storage": {
        "base": "t_uint256",
        "encoding": "inplace",
        "label": "uint256[49]",
        "numberOfBytes": "1568"
      },
      "t_array(t_uint256)50_storage": {
        "base": "t_uint256",
        "encoding": "inplace",
        "label": "uint256[50]",
        "numberOfBytes": "1600"
      },
      "t_bool": {
        "encoding": "inplace",
        "label": "bool",
        "numberOfBytes": "1"
      },
      "t_bytes32": {
        "encoding": "inplace",
        "label": "bytes32",
        "numberOfBytes": "32"
      },
      "t_mapping(t_address,t_bool)": {
        "encoding": "mapping",
        "key": "t_address",
        "label": "mapping(address => bool)",
        "numberOfBytes": "32",
        "value": "t_bool"
      },
      "t_mapping(t_address,t_mapping(t_address,t_bool))": {
        "encoding": "mapping",
        "key": "t_address",
        "label": "mapping(address => mapping(address => bool))",
        "numberOfBytes": "32",
        "value": "t_mapping(t_address,t_bool)"
      },
      "t_mapping(t_address,t_uint256)": {
        "encoding": "mapping",
        "key": "t_address",
        "label": "mapping(address => uint256)",
        "numberOfBytes": "32",
        "value": "t_uint256"
      },
      "t_mapping(t_bytes32,t_struct(RoleData)34_storage)": {
        "encoding": "mapping",
        "key": "t_bytes32",
        "label": "mapping(bytes32 => struct AccessControlUpgradeable.RoleData)",
        "numberOfBytes": "32",
        "value": "t_struct(RoleData)34_storage"
      },
      "t_mapping(t_uint256,t_mapping(t_address,t_uint256))": {
        "encoding": "mapping",
        "key": "t_uint256",
        "label": "mapping(uint256 => mapping(address => uint256))",
        "numberOfBytes": "32",
        "value": "t_mapping(t_address,t_uint256)"
      },
      "t_mapping(t_uint256,t_struct(Perks)6785_storage)": {
        "encoding": "mapping",
        "key": "t_uint256",
        "label": "mapping(uint256 => struct MetarunCollection.Perks)",
        "numberOfBytes": "32",
        "value": "t_struct(Perks)6785_storage"
      },
      "t_mapping(t_uint256,t_uint256)": {
        "encoding": "mapping",
        "key": "t_uint256",
        "label": "mapping(uint256 => uint256)",
        "numberOfBytes": "32",
        "value": "t_uint256"
      },
      "t_string_storage": {
        "encoding": "bytes",
        "label": "string",
        "numberOfBytes": "32"
      },
      "t_struct(Perks)6785_storage": {
        "encoding": "inplace",
        "label": "struct MetarunCollection.Perks",
        "members": [
          {
            "astId": 6770,
            "contract": "contracts/MetarunCollection.sol:MetarunCollection",
            "label": "level",
            "offset": 0,
            "slot": "0",
            "type": "t_uint256"
          },
          {
            "astId": 6772,
            "contract": "contracts/MetarunCollection.sol:MetarunCollection",
            "label": "runs",
            "offset": 0,
            "slot": "1",
            "type": "t_uint256"
          },
          {
            "astId": 6774,
            "contract": "contracts/MetarunCollection.sol:MetarunCollection",
            "label": "wins",
            "offset": 0,
            "slot": "2",
            "type": "t_uint256"
          },
          {
            "astId": 6776,
            "contract": "contracts/MetarunCollection.sol:MetarunCollection",
            "label": "ability",
            "offset": 0,
            "slot": "3",
            "type": "t_uint256"
          },
          {
            "astId": 6778,
            "contract": "contracts/MetarunCollection.sol:MetarunCollection",
            "label": "health",
            "offset": 0,
            "slot": "4",
            "type": "t_uint256"
          },
          {
            "astId": 6780,
            "contract": "contracts/MetarunCollection.sol:MetarunCollection",
            "label": "mana",
            "offset": 0,
            "slot": "5",
            "type": "t_uint256"
          },
          {
            "astId": 6782,
            "contract": "contracts/MetarunCollection.sol:MetarunCollection",
            "label": "speed",
            "offset": 0,
            "slot": "6",
            "type": "t_uint256"
          },
          {
            "astId": 6784,
            "contract": "contracts/MetarunCollection.sol:MetarunCollection",
            "label": "collisionDamage",
            "offset": 0,
            "slot": "7",
            "type": "t_uint256"
          }
        ],
        "numberOfBytes": "256"
      },
      "t_struct(RoleData)34_storage": {
        "encoding": "inplace",
        "label": "struct AccessControlUpgradeable.RoleData",
        "members": [
          {
            "astId": 31,
            "contract": "contracts/MetarunCollection.sol:MetarunCollection",
            "label": "members",
            "offset": 0,
            "slot": "0",
            "type": "t_mapping(t_address,t_bool)"
          },
          {
            "astId": 33,
            "contract": "contracts/MetarunCollection.sol:MetarunCollection",
            "label": "adminRole",
            "offset": 0,
            "slot": "1",
            "type": "t_bytes32"
          }
        ],
        "numberOfBytes": "64"
      },
      "t_uint256": {
        "encoding": "inplace",
        "label": "uint256",
        "numberOfBytes": "32"
      }
    }
  }
}