{
  "address": "0x35CafeE025Fd33860d3B66e1c84380620e35C63b",
  "abi": [
    {
      "anonymous": false,
      "inputs": [
        {
          "indexed": false,
          "internalType": "address",
          "name": "owner",
          "type": "address"
        },
        {
          "indexed": false,
          "internalType": "uint256",
          "name": "mysteryBoxId",
          "type": "uint256"
        },
        {
          "indexed": false,
          "internalType": "bytes32",
          "name": "referrer",
          "type": "bytes32"
        }
      ],
      "name": "MysteryBoxBought",
      "type": "event"
    },
    {
      "anonymous": false,
      "inputs": [
        {
          "indexed": true,
          "internalType": "bytes32",
          "name": "role",
          "type": "bytes32"
        },
        {
          "indexed": true,
          "internalType": "bytes32",
          "name": "previousAdminRole",
          "type": "bytes32"
        },
        {
          "indexed": true,
          "internalType": "bytes32",
          "name": "newAdminRole",
          "type": "bytes32"
        }
      ],
      "name": "RoleAdminChanged",
      "type": "event"
    },
    {
      "anonymous": false,
      "inputs": [
        {
          "indexed": true,
          "internalType": "bytes32",
          "name": "role",
          "type": "bytes32"
        },
        {
          "indexed": true,
          "internalType": "address",
          "name": "account",
          "type": "address"
        },
        {
          "indexed": true,
          "internalType": "address",
          "name": "sender",
          "type": "address"
        }
      ],
      "name": "RoleGranted",
      "type": "event"
    },
    {
      "anonymous": false,
      "inputs": [
        {
          "indexed": true,
          "internalType": "bytes32",
          "name": "role",
          "type": "bytes32"
        },
        {
          "indexed": true,
          "internalType": "address",
          "name": "account",
          "type": "address"
        },
        {
          "indexed": true,
          "internalType": "address",
          "name": "sender",
          "type": "address"
        }
      ],
      "name": "RoleRevoked",
      "type": "event"
    },
    {
      "inputs": [],
      "name": "BUSD",
      "outputs": [
        {
          "internalType": "contract IERC20",
          "name": "",
          "type": "address"
        }
      ],
      "stateMutability": "view",
      "type": "function"
    },
    {
      "inputs": [],
      "name": "DEFAULT_ADMIN_ROLE",
      "outputs": [
        {
          "internalType": "bytes32",
          "name": "",
          "type": "bytes32"
        }
      ],
      "stateMutability": "view",
      "type": "function"
    },
    {
      "inputs": [
        {
          "internalType": "bytes32",
          "name": "referrer",
          "type": "bytes32"
        }
      ],
      "name": "buy",
      "outputs": [],
      "stateMutability": "nonpayable",
      "type": "function"
    },
    {
      "inputs": [],
      "name": "collection",
      "outputs": [
        {
          "internalType": "contract MetarunCollection",
          "name": "",
          "type": "address"
        }
      ],
      "stateMutability": "view",
      "type": "function"
    },
    {
      "inputs": [],
      "name": "currentBoxCount",
      "outputs": [
        {
          "internalType": "uint256",
          "name": "",
          "type": "uint256"
        }
      ],
      "stateMutability": "view",
      "type": "function"
    },
    {
      "inputs": [],
      "name": "currentBoxId",
      "outputs": [
        {
          "internalType": "uint256",
          "name": "",
          "type": "uint256"
        }
      ],
      "stateMutability": "view",
      "type": "function"
    },
    {
      "inputs": [
        {
          "internalType": "bytes32",
          "name": "role",
          "type": "bytes32"
        }
      ],
      "name": "getRoleAdmin",
      "outputs": [
        {
          "internalType": "bytes32",
          "name": "",
          "type": "bytes32"
        }
      ],
      "stateMutability": "view",
      "type": "function"
    },
    {
      "inputs": [
        {
          "internalType": "bytes32",
          "name": "role",
          "type": "bytes32"
        },
        {
          "internalType": "address",
          "name": "account",
          "type": "address"
        }
      ],
      "name": "grantRole",
      "outputs": [],
      "stateMutability": "nonpayable",
      "type": "function"
    },
    {
      "inputs": [
        {
          "internalType": "bytes32",
          "name": "role",
          "type": "bytes32"
        },
        {
          "internalType": "address",
          "name": "account",
          "type": "address"
        }
      ],
      "name": "hasRole",
      "outputs": [
        {
          "internalType": "bool",
          "name": "",
          "type": "bool"
        }
      ],
      "stateMutability": "view",
      "type": "function"
    },
    {
      "inputs": [
        {
          "internalType": "address",
          "name": "_busd",
          "type": "address"
        },
        {
          "internalType": "address",
          "name": "_collection",
          "type": "address"
        }
      ],
      "name": "initialize",
      "outputs": [],
      "stateMutability": "nonpayable",
      "type": "function"
    },
    {
      "inputs": [],
      "name": "maxBoxCount",
      "outputs": [
        {
          "internalType": "uint256",
          "name": "",
          "type": "uint256"
        }
      ],
      "stateMutability": "view",
      "type": "function"
    },
    {
      "inputs": [],
      "name": "mysteryBoxKind",
      "outputs": [
        {
          "internalType": "uint256",
          "name": "",
          "type": "uint256"
        }
      ],
      "stateMutability": "view",
      "type": "function"
    },
    {
      "inputs": [],
      "name": "mysteryBoxPrice",
      "outputs": [
        {
          "internalType": "uint256",
          "name": "",
          "type": "uint256"
        }
      ],
      "stateMutability": "view",
      "type": "function"
    },
    {
      "inputs": [
        {
          "internalType": "bytes32",
          "name": "role",
          "type": "bytes32"
        },
        {
          "internalType": "address",
          "name": "account",
          "type": "address"
        }
      ],
      "name": "renounceRole",
      "outputs": [],
      "stateMutability": "nonpayable",
      "type": "function"
    },
    {
      "inputs": [
        {
          "internalType": "bytes32",
          "name": "role",
          "type": "bytes32"
        },
        {
          "internalType": "address",
          "name": "account",
          "type": "address"
        }
      ],
      "name": "revokeRole",
      "outputs": [],
      "stateMutability": "nonpayable",
      "type": "function"
    },
    {
      "inputs": [
        {
          "internalType": "uint256",
          "name": "value",
          "type": "uint256"
        }
      ],
      "name": "setMysteryBoxPrice",
      "outputs": [],
      "stateMutability": "nonpayable",
      "type": "function"
    },
    {
      "inputs": [
        {
          "internalType": "bytes4",
          "name": "interfaceId",
          "type": "bytes4"
        }
      ],
      "name": "supportsInterface",
      "outputs": [
        {
          "internalType": "bool",
          "name": "",
          "type": "bool"
        }
      ],
      "stateMutability": "view",
      "type": "function"
    },
    {
      "inputs": [
        {
          "internalType": "address",
          "name": "payee",
          "type": "address"
        }
      ],
      "name": "withdrawPayments",
      "outputs": [],
      "stateMutability": "nonpayable",
      "type": "function"
    }
  ],
  "transactionHash": "0xbc65e4f7da322d604b1aa3870e5e035bdde0477b934562dee506d550dd85e4c2",
  "args": [],
  "numDeployments": 5,
  "solcInputHash": "6dc681bb925a3543760f4a26517bc9a2",
  "bytecode": "0x608060405234801561001057600080fd5b50610fe5806100206000396000f3fe608060405234801561001057600080fd5b50600436106100e65760003560e01c806301ffc9a7146100eb578063248a9ca3146101135780632f2ff15d1461013457806331b3eb941461014957806336568abe1461015c578063484f4ea91461016f578063485cc9551461018f5780635122d0c1146101a257806361cefff4146101ab57806378084c9d146101b45780637d943c94146101c75780637de1e536146101d0578063901fa4f3146101e357806391d14854146101ec5780639c9a1061146101ff578063a217fddf14610212578063cc22bf801461021a578063d547741f14610223575b600080fd5b6100fe6100f9366004610ccb565b610236565b60405190151581526020015b60405180910390f35b610126610121366004610cf5565b61026d565b60405190815260200161010a565b610147610142366004610d2a565b610282565b005b610147610157366004610d56565b6102a4565b61014761016a366004610d2a565b6103fe565b609854610182906001600160a01b031681565b60405161010a9190610d71565b61014761019d366004610d85565b61047c565b61012661896781565b610126609c5481565b6101476101c2366004610cf5565b6105f1565b610126609b5481565b609754610182906001600160a01b031681565b610126609a5481565b6100fe6101fa366004610d2a565b61061d565b61014761020d366004610cf5565b610648565b610126600081565b61012660995481565b610147610231366004610d2a565b61094e565b60006001600160e01b03198216637965db0b60e01b148061026757506301ffc9a760e01b6001600160e01b03198316145b92915050565b60009081526065602052604090206001015490565b61028b8261026d565b610295813361096b565b61029f83836109cf565b505050565b6102af60003361061d565b6102d45760405162461bcd60e51b81526004016102cb90610daf565b60405180910390fd5b6098546040516370a0823160e01b81526000916001600160a01b0316906370a0823190610305903090600401610d71565b602060405180830381865afa158015610322573d6000803e3d6000fd5b505050506040513d601f19601f820116820180604052508101906103469190610df1565b9050806000036103875760405162461bcd60e51b815260206004820152600c60248201526b5a65726f2062616c616e636560a01b60448201526064016102cb565b60985460405163a9059cbb60e01b81526001600160a01b038481166004830152602482018490529091169063a9059cbb906044016020604051808303816000875af11580156103da573d6000803e3d6000fd5b505050506040513d601f19601f8201168201806040525081019061029f9190610e0a565b6001600160a01b038116331461046e5760405162461bcd60e51b815260206004820152602f60248201527f416363657373436f6e74726f6c3a2063616e206f6e6c792072656e6f756e636560448201526e103937b632b9903337b91039b2b63360891b60648201526084016102cb565b6104788282610a55565b5050565b600054610100900460ff166104975760005460ff161561049b565b303b155b6104fe5760405162461bcd60e51b815260206004820152602e60248201527f496e697469616c697a61626c653a20636f6e747261637420697320616c72656160448201526d191e481a5b9a5d1a585b1a5e995960921b60648201526084016102cb565b600054610100900460ff16158015610520576000805461ffff19166101011790555b610528610abc565b609880546001600160a01b038086166001600160a01b03199283161790925560978054928516929091168217905560408051630992751960e41b815290516399275190916004808201926020929091908290030181865afa158015610591573d6000803e3d6000fd5b505050506040513d601f19601f820116820180604052508101906105b59190610df1565b609b5560006099819055609a81905568056ba3d73af34f0000609c556105db90336109cf565b801561029f576000805461ff0019169055505050565b6105fc60003361061d565b6106185760405162461bcd60e51b81526004016102cb90610daf565b609c55565b60009182526065602090815260408084206001600160a01b0393909316845291905290205460ff1690565b6001609a600082825461065b9190610e42565b9091555050609a5461896710156106b45760405162461bcd60e51b815260206004820152601d60248201527f4d6178206e756d626572206f6620626f7865732070757263686173656400000060448201526064016102cb565b609954609b5460101b175b609754604051634f558e7960e01b8152600481018390526001600160a01b0390911690634f558e7990602401602060405180830381865afa158015610708573d6000803e3d6000fd5b505050506040513d601f19601f8201168201806040525081019061072c9190610e0a565b1561075c5761073c600182610e42565b90506001609960008282546107519190610e42565b909155506106bf9050565b60016099600082825461076f9190610e42565b9091555050609754609b546040516324970bff60e11b81526004810184905260248101919091526001600160a01b039091169063492e17fe90604401602060405180830381865afa1580156107c8573d6000803e3d6000fd5b505050506040513d601f19601f820116820180604052508101906107ec9190610e0a565b6108285760405162461bcd60e51b815260206004820152600d60248201526c4b494e445f4f564552464c4f5760981b60448201526064016102cb565b609854609c546040516323b872dd60e01b815233600482015230602482015260448101919091526001600160a01b03909116906323b872dd906064016020604051808303816000875af1158015610883573d6000803e3d6000fd5b505050506040513d601f19601f820116820180604052508101906108a79190610e0a565b50609754604051630ab714fb60e11b81526001600160a01b039091169063156e29f6906108dd9033908590600190600401610e5a565b600060405180830381600087803b1580156108f757600080fd5b505af115801561090b573d6000803e3d6000fd5b505050507f48d054a25fa11bdb41c3b95ee4dec1f53b62bb3998832a0fa147881e1bcd6b1433828460405161094293929190610e5a565b60405180910390a15050565b6109578261026d565b610961813361096b565b61029f8383610a55565b610975828261061d565b6104785761098d816001600160a01b03166014610b29565b610998836020610b29565b6040516020016109a9929190610eab565b60408051601f198184030181529082905262461bcd60e51b82526102cb91600401610f1a565b6109d9828261061d565b6104785760008281526065602090815260408083206001600160a01b03851684529091529020805460ff19166001179055610a113390565b6001600160a01b0316816001600160a01b0316837f2f8788117e7eff1d82e926ec794901d17c78024a50270940304540a733656f0d60405160405180910390a45050565b610a5f828261061d565b156104785760008281526065602090815260408083206001600160a01b0385168085529252808320805460ff1916905551339285917ff6391f5c32d9c69d2a47ea670b442974b53935d1edc7fd64eb21e047a839171b9190a45050565b600054610100900460ff16610b275760405162461bcd60e51b815260206004820152602b60248201527f496e697469616c697a61626c653a20636f6e7472616374206973206e6f74206960448201526a6e697469616c697a696e6760a81b60648201526084016102cb565b565b60606000610b38836002610f4d565b610b43906002610e42565b6001600160401b03811115610b5a57610b5a610f6c565b6040519080825280601f01601f191660200182016040528015610b84576020820181803683370190505b509050600360fc1b81600081518110610b9f57610b9f610f82565b60200101906001600160f81b031916908160001a905350600f60fb1b81600181518110610bce57610bce610f82565b60200101906001600160f81b031916908160001a9053506000610bf2846002610f4d565b610bfd906001610e42565b90505b6001811115610c75576f181899199a1a9b1b9c1cb0b131b232b360811b85600f1660108110610c3157610c31610f82565b1a60f81b828281518110610c4757610c47610f82565b60200101906001600160f81b031916908160001a90535060049490941c93610c6e81610f98565b9050610c00565b508315610cc45760405162461bcd60e51b815260206004820181905260248201527f537472696e67733a20686578206c656e67746820696e73756666696369656e7460448201526064016102cb565b9392505050565b600060208284031215610cdd57600080fd5b81356001600160e01b031981168114610cc457600080fd5b600060208284031215610d0757600080fd5b5035919050565b80356001600160a01b0381168114610d2557600080fd5b919050565b60008060408385031215610d3d57600080fd5b82359150610d4d60208401610d0e565b90509250929050565b600060208284031215610d6857600080fd5b610cc482610d0e565b6001600160a01b0391909116815260200190565b60008060408385031215610d9857600080fd5b610da183610d0e565b9150610d4d60208401610d0e565b60208082526022908201527f596f752073686f756c6420686176652044454641554c545f41444d494e5f524f6040820152614c4560f01b606082015260800190565b600060208284031215610e0357600080fd5b5051919050565b600060208284031215610e1c57600080fd5b81518015158114610cc457600080fd5b634e487b7160e01b600052601160045260246000fd5b60008219821115610e5557610e55610e2c565b500190565b6001600160a01b039390931683526020830191909152604082015260600190565b60005b83811015610e96578181015183820152602001610e7e565b83811115610ea5576000848401525b50505050565b76020b1b1b2b9b9a1b7b73a3937b61d1030b1b1b7bab73a1604d1b815260008351610edd816017850160208801610e7b565b7001034b99036b4b9b9b4b733903937b6329607d1b6017918401918201528351610f0e816028840160208801610e7b565b01602801949350505050565b6020815260008251806020840152610f39816040850160208701610e7b565b601f01601f19169190910160400192915050565b6000816000190483118215151615610f6757610f67610e2c565b500290565b634e487b7160e01b600052604160045260246000fd5b634e487b7160e01b600052603260045260246000fd5b600081610fa757610fa7610e2c565b50600019019056fea26469706673582212201c119940e0cda18f70280e001e2d72765ddc3c8ecd4cd0198af17359d269664364736f6c634300080d0033",
  "devdoc": {
    "details": "Ensures purchase of mystery box",
    "kind": "dev",
    "methods": {
      "buy(bytes32)": {
        "details": "Buy mystery box",
        "params": {
          "referrer": "purchase initializer"
        }
      },
      "getRoleAdmin(bytes32)": {
        "details": "Returns the admin role that controls `role`. See {grantRole} and {revokeRole}. To change a role's admin, use {_setRoleAdmin}."
      },
      "grantRole(bytes32,address)": {
        "details": "Grants `role` to `account`. If `account` had not been already granted `role`, emits a {RoleGranted} event. Requirements: - the caller must have ``role``'s admin role."
      },
      "hasRole(bytes32,address)": {
        "details": "Returns `true` if `account` has been granted `role`."
      },
      "initialize(address,address)": {
        "details": "the constructor arguments:",
        "params": {
          "_busd": "BUSD token - the same accepted to buy the mystery box",
          "_collection": "ERC1155 token of NFT collection"
        }
      },
      "renounceRole(bytes32,address)": {
        "details": "Revokes `role` from the calling account. Roles are often managed via {grantRole} and {revokeRole}: this function's purpose is to provide a mechanism for accounts to lose their privileges if they are compromised (such as when a trusted device is misplaced). If the calling account had been revoked `role`, emits a {RoleRevoked} event. Requirements: - the caller must be `account`."
      },
      "revokeRole(bytes32,address)": {
        "details": "Revokes `role` from `account`. If `account` had been granted `role`, emits a {RoleRevoked} event. Requirements: - the caller must have ``role``'s admin role."
      },
      "setMysteryBoxPrice(uint256)": {
        "details": "Update mystery box price",
        "params": {
          "value": "new price of mystery box"
        }
      },
      "supportsInterface(bytes4)": {
        "details": "See {IERC165-supportsInterface}."
      },
      "withdrawPayments(address)": {
        "details": "Send all BUSD tokens from the contract address to the recipient",
        "params": {
          "payee": "recipient of funds"
        }
      }
    },
    "title": "Mystery Box Sale",
    "version": 1
  },
  "userdoc": {
    "kind": "user",
    "methods": {},
    "version": 1
  },
  "storageLayout": {
    "storage": [
      {
        "astId": 532,
        "contract": "contracts/MysteryBoxSale.sol:MysteryBoxSale",
        "label": "_initialized",
        "offset": 0,
        "slot": "0",
        "type": "t_bool"
      },
      {
        "astId": 535,
        "contract": "contracts/MysteryBoxSale.sol:MysteryBoxSale",
        "label": "_initializing",
        "offset": 1,
        "slot": "0",
        "type": "t_bool"
      },
      {
        "astId": 2848,
        "contract": "contracts/MysteryBoxSale.sol:MysteryBoxSale",
        "label": "__gap",
        "offset": 0,
        "slot": "1",
        "type": "t_array(t_uint256)50_storage"
      },
      {
        "astId": 3652,
        "contract": "contracts/MysteryBoxSale.sol:MysteryBoxSale",
        "label": "__gap",
        "offset": 0,
        "slot": "51",
        "type": "t_array(t_uint256)50_storage"
      },
      {
        "astId": 39,
        "contract": "contracts/MysteryBoxSale.sol:MysteryBoxSale",
        "label": "_roles",
        "offset": 0,
        "slot": "101",
        "type": "t_mapping(t_bytes32,t_struct(RoleData)34_storage)"
      },
      {
        "astId": 327,
        "contract": "contracts/MysteryBoxSale.sol:MysteryBoxSale",
        "label": "__gap",
        "offset": 0,
        "slot": "102",
        "type": "t_array(t_uint256)49_storage"
      },
      {
        "astId": 8396,
        "contract": "contracts/MysteryBoxSale.sol:MysteryBoxSale",
        "label": "collection",
        "offset": 0,
        "slot": "151",
        "type": "t_contract(MetarunCollection)7972"
      },
      {
        "astId": 8399,
        "contract": "contracts/MysteryBoxSale.sol:MysteryBoxSale",
        "label": "BUSD",
        "offset": 0,
        "slot": "152",
        "type": "t_contract(IERC20)4762"
      },
      {
        "astId": 8401,
        "contract": "contracts/MysteryBoxSale.sol:MysteryBoxSale",
        "label": "currentBoxId",
        "offset": 0,
        "slot": "153",
        "type": "t_uint256"
      },
      {
        "astId": 8403,
        "contract": "contracts/MysteryBoxSale.sol:MysteryBoxSale",
        "label": "currentBoxCount",
        "offset": 0,
        "slot": "154",
        "type": "t_uint256"
      },
      {
        "astId": 8405,
        "contract": "contracts/MysteryBoxSale.sol:MysteryBoxSale",
        "label": "mysteryBoxKind",
        "offset": 0,
        "slot": "155",
        "type": "t_uint256"
      },
      {
        "astId": 8407,
        "contract": "contracts/MysteryBoxSale.sol:MysteryBoxSale",
        "label": "mysteryBoxPrice",
        "offset": 0,
        "slot": "156",
        "type": "t_uint256"
      }
    ],
    "types": {
      "t_address": {
        "encoding": "inplace",
        "label": "address",
        "numberOfBytes": "20"
      },
      "t_array(t_uint256)49_storage": {
        "base": "t_uint256",
        "encoding": "inplace",
        "label": "uint256[49]",
        "numberOfBytes": "1568"
      },
      "t_array(t_uint256)50_storage": {
        "base": "t_uint256",
        "encoding": "inplace",
        "label": "uint256[50]",
        "numberOfBytes": "1600"
      },
      "t_bool": {
        "encoding": "inplace",
        "label": "bool",
        "numberOfBytes": "1"
      },
      "t_bytes32": {
        "encoding": "inplace",
        "label": "bytes32",
        "numberOfBytes": "32"
      },
      "t_contract(IERC20)4762": {
        "encoding": "inplace",
        "label": "contract IERC20",
        "numberOfBytes": "20"
      },
      "t_contract(MetarunCollection)7972": {
        "encoding": "inplace",
        "label": "contract MetarunCollection",
        "numberOfBytes": "20"
      },
      "t_mapping(t_address,t_bool)": {
        "encoding": "mapping",
        "key": "t_address",
        "label": "mapping(address => bool)",
        "numberOfBytes": "32",
        "value": "t_bool"
      },
      "t_mapping(t_bytes32,t_struct(RoleData)34_storage)": {
        "encoding": "mapping",
        "key": "t_bytes32",
        "label": "mapping(bytes32 => struct AccessControlUpgradeable.RoleData)",
        "numberOfBytes": "32",
        "value": "t_struct(RoleData)34_storage"
      },
      "t_struct(RoleData)34_storage": {
        "encoding": "inplace",
        "label": "struct AccessControlUpgradeable.RoleData",
        "members": [
          {
            "astId": 31,
            "contract": "contracts/MysteryBoxSale.sol:MysteryBoxSale",
            "label": "members",
            "offset": 0,
            "slot": "0",
            "type": "t_mapping(t_address,t_bool)"
          },
          {
            "astId": 33,
            "contract": "contracts/MysteryBoxSale.sol:MysteryBoxSale",
            "label": "adminRole",
            "offset": 0,
            "slot": "1",
            "type": "t_bytes32"
          }
        ],
        "numberOfBytes": "64"
      },
      "t_uint256": {
        "encoding": "inplace",
        "label": "uint256",
        "numberOfBytes": "32"
      }
    }
  }
}