{
  "address": "0xF06c28B00149C3d4CC7Bf52D5CBb13a43741dC83",
  "abi": [
    {
      "anonymous": false,
      "inputs": [
        {
          "indexed": true,
          "internalType": "bytes32",
          "name": "role",
          "type": "bytes32"
        },
        {
          "indexed": true,
          "internalType": "bytes32",
          "name": "previousAdminRole",
          "type": "bytes32"
        },
        {
          "indexed": true,
          "internalType": "bytes32",
          "name": "newAdminRole",
          "type": "bytes32"
        }
      ],
      "name": "RoleAdminChanged",
      "type": "event"
    },
    {
      "anonymous": false,
      "inputs": [
        {
          "indexed": true,
          "internalType": "bytes32",
          "name": "role",
          "type": "bytes32"
        },
        {
          "indexed": true,
          "internalType": "address",
          "name": "account",
          "type": "address"
        },
        {
          "indexed": true,
          "internalType": "address",
          "name": "sender",
          "type": "address"
        }
      ],
      "name": "RoleGranted",
      "type": "event"
    },
    {
      "anonymous": false,
      "inputs": [
        {
          "indexed": true,
          "internalType": "bytes32",
          "name": "role",
          "type": "bytes32"
        },
        {
          "indexed": true,
          "internalType": "address",
          "name": "account",
          "type": "address"
        },
        {
          "indexed": true,
          "internalType": "address",
          "name": "sender",
          "type": "address"
        }
      ],
      "name": "RoleRevoked",
      "type": "event"
    },
    {
      "inputs": [],
      "name": "DEFAULT_ADMIN_ROLE",
      "outputs": [
        {
          "internalType": "bytes32",
          "name": "",
          "type": "bytes32"
        }
      ],
      "stateMutability": "view",
      "type": "function"
    },
    {
      "inputs": [],
      "name": "EXECUTOR_ROLE",
      "outputs": [
        {
          "internalType": "bytes32",
          "name": "",
          "type": "bytes32"
        }
      ],
      "stateMutability": "view",
      "type": "function"
    },
    {
      "inputs": [
        {
          "components": [
            {
              "internalType": "address",
              "name": "winner",
              "type": "address"
            },
            {
              "internalType": "address",
              "name": "looser",
              "type": "address"
            },
            {
              "internalType": "uint256",
              "name": "winnerCharacterTokenId",
              "type": "uint256"
            },
            {
              "internalType": "uint256",
              "name": "looserCharacterTokenId",
              "type": "uint256"
            },
            {
              "internalType": "uint256",
              "name": "winnerOpal",
              "type": "uint256"
            },
            {
              "internalType": "uint256",
              "name": "looserOpal",
              "type": "uint256"
            },
            {
              "internalType": "uint256",
              "name": "winnerExperience",
              "type": "uint256"
            }
          ],
          "internalType": "struct RunExecutor.Run",
          "name": "run",
          "type": "tuple"
        }
      ],
      "name": "executeRun",
      "outputs": [],
      "stateMutability": "nonpayable",
      "type": "function"
    },
    {
      "inputs": [
        {
          "internalType": "bytes32",
          "name": "role",
          "type": "bytes32"
        }
      ],
      "name": "getRoleAdmin",
      "outputs": [
        {
          "internalType": "bytes32",
          "name": "",
          "type": "bytes32"
        }
      ],
      "stateMutability": "view",
      "type": "function"
    },
    {
      "inputs": [
        {
          "internalType": "bytes32",
          "name": "role",
          "type": "bytes32"
        },
        {
          "internalType": "address",
          "name": "account",
          "type": "address"
        }
      ],
      "name": "grantRole",
      "outputs": [],
      "stateMutability": "nonpayable",
      "type": "function"
    },
    {
      "inputs": [
        {
          "internalType": "bytes32",
          "name": "role",
          "type": "bytes32"
        },
        {
          "internalType": "address",
          "name": "account",
          "type": "address"
        }
      ],
      "name": "hasRole",
      "outputs": [
        {
          "internalType": "bool",
          "name": "",
          "type": "bool"
        }
      ],
      "stateMutability": "view",
      "type": "function"
    },
    {
      "inputs": [
        {
          "internalType": "address",
          "name": "metarunCollectionAddress",
          "type": "address"
        }
      ],
      "name": "initialize",
      "outputs": [],
      "stateMutability": "nonpayable",
      "type": "function"
    },
    {
      "inputs": [],
      "name": "metarunCollection",
      "outputs": [
        {
          "internalType": "contract MetarunCollection",
          "name": "",
          "type": "address"
        }
      ],
      "stateMutability": "view",
      "type": "function"
    },
    {
      "inputs": [
        {
          "internalType": "bytes32",
          "name": "role",
          "type": "bytes32"
        },
        {
          "internalType": "address",
          "name": "account",
          "type": "address"
        }
      ],
      "name": "renounceRole",
      "outputs": [],
      "stateMutability": "nonpayable",
      "type": "function"
    },
    {
      "inputs": [
        {
          "internalType": "bytes32",
          "name": "role",
          "type": "bytes32"
        },
        {
          "internalType": "address",
          "name": "account",
          "type": "address"
        }
      ],
      "name": "revokeRole",
      "outputs": [],
      "stateMutability": "nonpayable",
      "type": "function"
    },
    {
      "inputs": [
        {
          "internalType": "bytes4",
          "name": "interfaceId",
          "type": "bytes4"
        }
      ],
      "name": "supportsInterface",
      "outputs": [
        {
          "internalType": "bool",
          "name": "",
          "type": "bool"
        }
      ],
      "stateMutability": "view",
      "type": "function"
    }
  ],
  "transactionHash": "0xa57601ad3205654758f88e81b0276bc383167ef13fa5eb90be1e04519f3f7ecc",
  "args": [],
  "numDeployments": 2,
  "solcInputHash": "e28337d3a19a99ec7f230b55afac2c23",
  "bytecode": "0x608060405234801561001057600080fd5b506119a1806100206000396000f3fe608060405234801561001057600080fd5b50600436106100a95760003560e01c80636e797605116100715780636e7976051461016457806391d1485414610180578063a217fddf146101b0578063c4d66de8146101ce578063c9c4caa4146101ea578063d547741f14610208576100a9565b806301ffc9a7146100ae57806307bd0265146100de578063248a9ca3146100fc5780632f2ff15d1461012c57806336568abe14610148575b600080fd5b6100c860048036038101906100c39190610ec2565b610224565b6040516100d59190610f0a565b60405180910390f35b6100e661029e565b6040516100f39190610f3e565b60405180910390f35b61011660048036038101906101119190610f85565b6102c2565b6040516101239190610f3e565b60405180910390f35b61014660048036038101906101419190611010565b6102e2565b005b610162600480360381019061015d9190611010565b61030b565b005b61017e600480360381019061017991906111cb565b61038e565b005b61019a60048036038101906101959190611010565b6106a8565b6040516101a79190610f0a565b60405180910390f35b6101b8610713565b6040516101c59190610f3e565b60405180910390f35b6101e860048036038101906101e391906111f8565b61071a565b005b6101f2610879565b6040516101ff9190611284565b60405180910390f35b610222600480360381019061021d9190611010565b61089f565b005b60007f7965db0b000000000000000000000000000000000000000000000000000000007bffffffffffffffffffffffffffffffffffffffffffffffffffffffff1916827bffffffffffffffffffffffffffffffffffffffffffffffffffffffff191614806102975750610296826108c8565b5b9050919050565b7fd8aa0f3194971a2a116679f7c2090f6939c8d4e01a2a8d7e41d55e5351469e6381565b600060656000838152602001908152602001600020600101549050919050565b6102eb826102c2565b6102fc816102f7610932565b61093a565b61030683836109d7565b505050565b610313610932565b73ffffffffffffffffffffffffffffffffffffffff168173ffffffffffffffffffffffffffffffffffffffff1614610380576040517f08c379a000000000000000000000000000000000000000000000000000000000815260040161037790611322565b60405180910390fd5b61038a8282610ab8565b5050565b6103bf7fd8aa0f3194971a2a116679f7c2090f6939c8d4e01a2a8d7e41d55e5351469e636103ba610932565b6106a8565b6103fe576040517f08c379a00000000000000000000000000000000000000000000000000000000081526004016103f5906113b4565b60405180910390fd5b6000816080015111610445576040517f08c379a000000000000000000000000000000000000000000000000000000000815260040161043c90611446565b60405180910390fd5b609760009054906101000a900473ffffffffffffffffffffffffffffffffffffffff1673ffffffffffffffffffffffffffffffffffffffff1663156e29f68260000151609760009054906101000a900473ffffffffffffffffffffffffffffffffffffffff1673ffffffffffffffffffffffffffffffffffffffff16639177595e6040518163ffffffff1660e01b8152600401602060405180830381865afa1580156104f5573d6000803e3d6000fd5b505050506040513d601f19601f82011682018060405250810190610519919061147b565b84608001516040518463ffffffff1660e01b815260040161053c939291906114c6565b600060405180830381600087803b15801561055657600080fd5b505af115801561056a573d6000803e3d6000fd5b5050505060008160a0015111156106a557609760009054906101000a900473ffffffffffffffffffffffffffffffffffffffff1673ffffffffffffffffffffffffffffffffffffffff1663156e29f68260200151609760009054906101000a900473ffffffffffffffffffffffffffffffffffffffff1673ffffffffffffffffffffffffffffffffffffffff16639177595e6040518163ffffffff1660e01b8152600401602060405180830381865afa15801561062b573d6000803e3d6000fd5b505050506040513d601f19601f8201168201806040525081019061064f919061147b565b8460a001516040518463ffffffff1660e01b8152600401610672939291906114c6565b600060405180830381600087803b15801561068c57600080fd5b505af11580156106a0573d6000803e3d6000fd5b505050505b50565b60006065600084815260200190815260200160002060000160008373ffffffffffffffffffffffffffffffffffffffff1673ffffffffffffffffffffffffffffffffffffffff16815260200190815260200160002060009054906101000a900460ff16905092915050565b6000801b81565b600060019054906101000a900460ff166107425760008054906101000a900460ff161561074b565b61074a610b9a565b5b61078a576040517f08c379a00000000000000000000000000000000000000000000000000000000081526004016107819061156f565b60405180910390fd5b60008060019054906101000a900460ff1615905080156107da576001600060016101000a81548160ff02191690831515021790555060016000806101000a81548160ff0219169083151502179055505b6107e2610bab565b81609760006101000a81548173ffffffffffffffffffffffffffffffffffffffff021916908373ffffffffffffffffffffffffffffffffffffffff1602179055506108547fd8aa0f3194971a2a116679f7c2090f6939c8d4e01a2a8d7e41d55e5351469e6361084f610932565b6109d7565b80156108755760008060016101000a81548160ff0219169083151502179055505b5050565b609760009054906101000a900473ffffffffffffffffffffffffffffffffffffffff1681565b6108a8826102c2565b6108b9816108b4610932565b61093a565b6108c38383610ab8565b505050565b60007f01ffc9a7000000000000000000000000000000000000000000000000000000007bffffffffffffffffffffffffffffffffffffffffffffffffffffffff1916827bffffffffffffffffffffffffffffffffffffffffffffffffffffffff1916149050919050565b600033905090565b61094482826106a8565b6109d3576109698173ffffffffffffffffffffffffffffffffffffffff166014610bfc565b6109778360001c6020610bfc565b6040516020016109889291906116a1565b6040516020818303038152906040526040517f08c379a00000000000000000000000000000000000000000000000000000000081526004016109ca9190611714565b60405180910390fd5b5050565b6109e182826106a8565b610ab45760016065600084815260200190815260200160002060000160008373ffffffffffffffffffffffffffffffffffffffff1673ffffffffffffffffffffffffffffffffffffffff16815260200190815260200160002060006101000a81548160ff021916908315150217905550610a59610932565b73ffffffffffffffffffffffffffffffffffffffff168173ffffffffffffffffffffffffffffffffffffffff16837f2f8788117e7eff1d82e926ec794901d17c78024a50270940304540a733656f0d60405160405180910390a45b5050565b610ac282826106a8565b15610b965760006065600084815260200190815260200160002060000160008373ffffffffffffffffffffffffffffffffffffffff1673ffffffffffffffffffffffffffffffffffffffff16815260200190815260200160002060006101000a81548160ff021916908315150217905550610b3b610932565b73ffffffffffffffffffffffffffffffffffffffff168173ffffffffffffffffffffffffffffffffffffffff16837ff6391f5c32d9c69d2a47ea670b442974b53935d1edc7fd64eb21e047a839171b60405160405180910390a45b5050565b6000610ba530610e38565b15905090565b600060019054906101000a900460ff16610bfa576040517f08c379a0000000000000000000000000000000000000000000000000000000008152600401610bf1906117a8565b60405180910390fd5b565b606060006002836002610c0f91906117f7565b610c199190611851565b67ffffffffffffffff811115610c3257610c31611066565b5b6040519080825280601f01601f191660200182016040528015610c645781602001600182028036833780820191505090505b5090507f300000000000000000000000000000000000000000000000000000000000000081600081518110610c9c57610c9b6118a7565b5b60200101907effffffffffffffffffffffffffffffffffffffffffffffffffffffffffffff1916908160001a9053507f780000000000000000000000000000000000000000000000000000000000000081600181518110610d0057610cff6118a7565b5b60200101907effffffffffffffffffffffffffffffffffffffffffffffffffffffffffffff1916908160001a90535060006001846002610d4091906117f7565b610d4a9190611851565b90505b6001811115610dea577f3031323334353637383961626364656600000000000000000000000000000000600f861660108110610d8c57610d8b6118a7565b5b1a60f81b828281518110610da357610da26118a7565b5b60200101907effffffffffffffffffffffffffffffffffffffffffffffffffffffffffffff1916908160001a905350600485901c945080610de3906118d6565b9050610d4d565b5060008414610e2e576040517f08c379a0000000000000000000000000000000000000000000000000000000008152600401610e259061194b565b60405180910390fd5b8091505092915050565b6000808273ffffffffffffffffffffffffffffffffffffffff163b119050919050565b6000604051905090565b600080fd5b60007fffffffff0000000000000000000000000000000000000000000000000000000082169050919050565b610e9f81610e6a565b8114610eaa57600080fd5b50565b600081359050610ebc81610e96565b92915050565b600060208284031215610ed857610ed7610e65565b5b6000610ee684828501610ead565b91505092915050565b60008115159050919050565b610f0481610eef565b82525050565b6000602082019050610f1f6000830184610efb565b92915050565b6000819050919050565b610f3881610f25565b82525050565b6000602082019050610f536000830184610f2f565b92915050565b610f6281610f25565b8114610f6d57600080fd5b50565b600081359050610f7f81610f59565b92915050565b600060208284031215610f9b57610f9a610e65565b5b6000610fa984828501610f70565b91505092915050565b600073ffffffffffffffffffffffffffffffffffffffff82169050919050565b6000610fdd82610fb2565b9050919050565b610fed81610fd2565b8114610ff857600080fd5b50565b60008135905061100a81610fe4565b92915050565b6000806040838503121561102757611026610e65565b5b600061103585828601610f70565b925050602061104685828601610ffb565b9150509250929050565b600080fd5b6000601f19601f8301169050919050565b7f4e487b7100000000000000000000000000000000000000000000000000000000600052604160045260246000fd5b61109e82611055565b810181811067ffffffffffffffff821117156110bd576110bc611066565b5b80604052505050565b60006110d0610e5b565b90506110dc8282611095565b919050565b6000819050919050565b6110f4816110e1565b81146110ff57600080fd5b50565b600081359050611111816110eb565b92915050565b600060e0828403121561112d5761112c611050565b5b61113760e06110c6565b9050600061114784828501610ffb565b600083015250602061115b84828501610ffb565b602083015250604061116f84828501611102565b604083015250606061118384828501611102565b606083015250608061119784828501611102565b60808301525060a06111ab84828501611102565b60a08301525060c06111bf84828501611102565b60c08301525092915050565b600060e082840312156111e1576111e0610e65565b5b60006111ef84828501611117565b91505092915050565b60006020828403121561120e5761120d610e65565b5b600061121c84828501610ffb565b91505092915050565b6000819050919050565b600061124a61124561124084610fb2565b611225565b610fb2565b9050919050565b600061125c8261122f565b9050919050565b600061126e82611251565b9050919050565b61127e81611263565b82525050565b60006020820190506112996000830184611275565b92915050565b600082825260208201905092915050565b7f416363657373436f6e74726f6c3a2063616e206f6e6c792072656e6f756e636560008201527f20726f6c657320666f722073656c660000000000000000000000000000000000602082015250565b600061130c602f8361129f565b9150611317826112b0565b604082019050919050565b6000602082019050818103600083015261133b816112ff565b9050919050565b7f52756e4578656375746f723a2074782073656e6465722073686f756c6420686160008201527f7665204558454355544f525f524f4c4500000000000000000000000000000000602082015250565b600061139e60308361129f565b91506113a982611342565b604082019050919050565b600060208201905081810360008301526113cd81611391565b9050919050565b7f52756e4578656375746f723a2077696e6e65722773206f70616c20746f20626560008201527f206d696e7465642073686f756c6420626520646566696e656400000000000000602082015250565b600061143060398361129f565b915061143b826113d4565b604082019050919050565b6000602082019050818103600083015261145f81611423565b9050919050565b600081519050611475816110eb565b92915050565b60006020828403121561149157611490610e65565b5b600061149f84828501611466565b91505092915050565b6114b181610fd2565b82525050565b6114c0816110e1565b82525050565b60006060820190506114db60008301866114a8565b6114e860208301856114b7565b6114f560408301846114b7565b949350505050565b7f496e697469616c697a61626c653a20636f6e747261637420697320616c72656160008201527f647920696e697469616c697a6564000000000000000000000000000000000000602082015250565b6000611559602e8361129f565b9150611564826114fd565b604082019050919050565b600060208201905081810360008301526115888161154c565b9050919050565b600081905092915050565b7f416363657373436f6e74726f6c3a206163636f756e7420000000000000000000600082015250565b60006115d060178361158f565b91506115db8261159a565b601782019050919050565b600081519050919050565b60005b8381101561160f5780820151818401526020810190506115f4565b8381111561161e576000848401525b50505050565b600061162f826115e6565b611639818561158f565b93506116498185602086016115f1565b80840191505092915050565b7f206973206d697373696e6720726f6c6520000000000000000000000000000000600082015250565b600061168b60118361158f565b915061169682611655565b601182019050919050565b60006116ac826115c3565b91506116b88285611624565b91506116c38261167e565b91506116cf8284611624565b91508190509392505050565b60006116e6826115e6565b6116f0818561129f565b93506117008185602086016115f1565b61170981611055565b840191505092915050565b6000602082019050818103600083015261172e81846116db565b905092915050565b7f496e697469616c697a61626c653a20636f6e7472616374206973206e6f74206960008201527f6e697469616c697a696e67000000000000000000000000000000000000000000602082015250565b6000611792602b8361129f565b915061179d82611736565b604082019050919050565b600060208201905081810360008301526117c181611785565b9050919050565b7f4e487b7100000000000000000000000000000000000000000000000000000000600052601160045260246000fd5b6000611802826110e1565b915061180d836110e1565b9250817fffffffffffffffffffffffffffffffffffffffffffffffffffffffffffffffff0483118215151615611846576118456117c8565b5b828202905092915050565b600061185c826110e1565b9150611867836110e1565b9250827fffffffffffffffffffffffffffffffffffffffffffffffffffffffffffffffff0382111561189c5761189b6117c8565b5b828201905092915050565b7f4e487b7100000000000000000000000000000000000000000000000000000000600052603260045260246000fd5b60006118e1826110e1565b9150600082036118f4576118f36117c8565b5b600182039050919050565b7f537472696e67733a20686578206c656e67746820696e73756666696369656e74600082015250565b600061193560208361129f565b9150611940826118ff565b602082019050919050565b6000602082019050818103600083015261196481611928565b905091905056fea264697066735822122007c0e9164c2976987cdffe0b53aeb777b7b0b9b33f493a1c4efcf044a43fa5bf64736f6c634300080d0033",
  "devdoc": {
    "kind": "dev",
    "methods": {
      "getRoleAdmin(bytes32)": {
        "details": "Returns the admin role that controls `role`. See {grantRole} and {revokeRole}. To change a role's admin, use {_setRoleAdmin}."
      },
      "grantRole(bytes32,address)": {
        "details": "Grants `role` to `account`. If `account` had not been already granted `role`, emits a {RoleGranted} event. Requirements: - the caller must have ``role``'s admin role."
      },
      "hasRole(bytes32,address)": {
        "details": "Returns `true` if `account` has been granted `role`."
      },
      "renounceRole(bytes32,address)": {
        "details": "Revokes `role` from the calling account. Roles are often managed via {grantRole} and {revokeRole}: this function's purpose is to provide a mechanism for accounts to lose their privileges if they are compromised (such as when a trusted device is misplaced). If the calling account had been revoked `role`, emits a {RoleRevoked} event. Requirements: - the caller must be `account`."
      },
      "revokeRole(bytes32,address)": {
        "details": "Revokes `role` from `account`. If `account` had been granted `role`, emits a {RoleRevoked} event. Requirements: - the caller must have ``role``'s admin role."
      },
      "supportsInterface(bytes4)": {
        "details": "See {IERC165-supportsInterface}."
      }
    },
    "version": 1
  },
  "userdoc": {
    "kind": "user",
    "methods": {},
    "version": 1
  },
  "storageLayout": {
    "storage": [
      {
        "astId": 408,
        "contract": "contracts/RunExecutor.sol:RunExecutor",
        "label": "_initialized",
        "offset": 0,
        "slot": "0",
        "type": "t_bool"
      },
      {
        "astId": 411,
        "contract": "contracts/RunExecutor.sol:RunExecutor",
        "label": "_initializing",
        "offset": 1,
        "slot": "0",
        "type": "t_bool"
      },
      {
        "astId": 2297,
        "contract": "contracts/RunExecutor.sol:RunExecutor",
        "label": "__gap",
        "offset": 0,
        "slot": "1",
        "type": "t_array(t_uint256)50_storage"
      },
      {
        "astId": 2544,
        "contract": "contracts/RunExecutor.sol:RunExecutor",
        "label": "__gap",
        "offset": 0,
        "slot": "51",
        "type": "t_array(t_uint256)50_storage"
      },
      {
        "astId": 39,
        "contract": "contracts/RunExecutor.sol:RunExecutor",
        "label": "_roles",
        "offset": 0,
        "slot": "101",
        "type": "t_mapping(t_bytes32,t_struct(RoleData)34_storage)"
      },
      {
        "astId": 327,
        "contract": "contracts/RunExecutor.sol:RunExecutor",
        "label": "__gap",
        "offset": 0,
        "slot": "102",
        "type": "t_array(t_uint256)49_storage"
      },
      {
        "astId": 3111,
        "contract": "contracts/RunExecutor.sol:RunExecutor",
        "label": "metarunCollection",
        "offset": 0,
        "slot": "151",
        "type": "t_contract(MetarunCollection)3084"
      }
    ],
    "types": {
      "t_address": {
        "encoding": "inplace",
        "label": "address",
        "numberOfBytes": "20"
      },
      "t_array(t_uint256)49_storage": {
        "base": "t_uint256",
        "encoding": "inplace",
        "label": "uint256[49]",
        "numberOfBytes": "1568"
      },
      "t_array(t_uint256)50_storage": {
        "base": "t_uint256",
        "encoding": "inplace",
        "label": "uint256[50]",
        "numberOfBytes": "1600"
      },
      "t_bool": {
        "encoding": "inplace",
        "label": "bool",
        "numberOfBytes": "1"
      },
      "t_bytes32": {
        "encoding": "inplace",
        "label": "bytes32",
        "numberOfBytes": "32"
      },
      "t_contract(MetarunCollection)3084": {
        "encoding": "inplace",
        "label": "contract MetarunCollection",
        "numberOfBytes": "20"
      },
      "t_mapping(t_address,t_bool)": {
        "encoding": "mapping",
        "key": "t_address",
        "label": "mapping(address => bool)",
        "numberOfBytes": "32",
        "value": "t_bool"
      },
      "t_mapping(t_bytes32,t_struct(RoleData)34_storage)": {
        "encoding": "mapping",
        "key": "t_bytes32",
        "label": "mapping(bytes32 => struct AccessControlUpgradeable.RoleData)",
        "numberOfBytes": "32",
        "value": "t_struct(RoleData)34_storage"
      },
      "t_struct(RoleData)34_storage": {
        "encoding": "inplace",
        "label": "struct AccessControlUpgradeable.RoleData",
        "members": [
          {
            "astId": 31,
            "contract": "contracts/RunExecutor.sol:RunExecutor",
            "label": "members",
            "offset": 0,
            "slot": "0",
            "type": "t_mapping(t_address,t_bool)"
          },
          {
            "astId": 33,
            "contract": "contracts/RunExecutor.sol:RunExecutor",
            "label": "adminRole",
            "offset": 0,
            "slot": "1",
            "type": "t_bytes32"
          }
        ],
        "numberOfBytes": "64"
      },
      "t_uint256": {
        "encoding": "inplace",
        "label": "uint256",
        "numberOfBytes": "32"
      }
    }
  }
}