{
  "address": "0xfc64218a88827b26f227E32800d8998c00F0C07E",
  "abi": [
    {
      "anonymous": false,
      "inputs": [
        {
          "indexed": true,
          "internalType": "bytes32",
          "name": "role",
          "type": "bytes32"
        },
        {
          "indexed": true,
          "internalType": "bytes32",
          "name": "previousAdminRole",
          "type": "bytes32"
        },
        {
          "indexed": true,
          "internalType": "bytes32",
          "name": "newAdminRole",
          "type": "bytes32"
        }
      ],
      "name": "RoleAdminChanged",
      "type": "event"
    },
    {
      "anonymous": false,
      "inputs": [
        {
          "indexed": true,
          "internalType": "bytes32",
          "name": "role",
          "type": "bytes32"
        },
        {
          "indexed": true,
          "internalType": "address",
          "name": "account",
          "type": "address"
        },
        {
          "indexed": true,
          "internalType": "address",
          "name": "sender",
          "type": "address"
        }
      ],
      "name": "RoleGranted",
      "type": "event"
    },
    {
      "anonymous": false,
      "inputs": [
        {
          "indexed": true,
          "internalType": "bytes32",
          "name": "role",
          "type": "bytes32"
        },
        {
          "indexed": true,
          "internalType": "address",
          "name": "account",
          "type": "address"
        },
        {
          "indexed": true,
          "internalType": "address",
          "name": "sender",
          "type": "address"
        }
      ],
      "name": "RoleRevoked",
      "type": "event"
    },
    {
      "inputs": [],
      "name": "DEFAULT_ADMIN_ROLE",
      "outputs": [
        {
          "internalType": "bytes32",
          "name": "",
          "type": "bytes32"
        }
      ],
      "stateMutability": "view",
      "type": "function"
    },
    {
      "inputs": [],
      "name": "EXECUTOR_ROLE",
      "outputs": [
        {
          "internalType": "bytes32",
          "name": "",
          "type": "bytes32"
        }
      ],
      "stateMutability": "view",
      "type": "function"
    },
    {
      "inputs": [
        {
          "components": [
            {
              "internalType": "address",
              "name": "adds",
              "type": "address"
            },
            {
              "internalType": "uint256",
              "name": "opal",
              "type": "uint256"
            },
            {
              "internalType": "uint256",
              "name": "tokenId",
              "type": "uint256"
            }
          ],
          "internalType": "struct RunExecutor.RunnerInfo",
          "name": "winnerInfo",
          "type": "tuple"
        },
        {
          "components": [
            {
              "internalType": "uint256",
              "name": "level",
              "type": "uint256"
            },
            {
              "internalType": "uint256",
              "name": "runs",
              "type": "uint256"
            },
            {
              "internalType": "uint256",
              "name": "wins",
              "type": "uint256"
            },
            {
              "internalType": "uint256",
              "name": "ability",
              "type": "uint256"
            },
            {
              "internalType": "uint256",
              "name": "health",
              "type": "uint256"
            },
            {
              "internalType": "uint256",
              "name": "mana",
              "type": "uint256"
            },
            {
              "internalType": "uint256",
              "name": "speed",
              "type": "uint256"
            },
            {
              "internalType": "uint256",
              "name": "collisionDamage",
              "type": "uint256"
            },
            {
              "internalType": "uint256",
              "name": "runsPerDayLimit",
              "type": "uint256"
            },
            {
              "internalType": "uint256",
              "name": "runsTotalLimit",
              "type": "uint256"
            }
          ],
          "internalType": "struct MetarunCollection.Perks",
          "name": "winnerPerks",
          "type": "tuple"
        },
        {
          "components": [
            {
              "internalType": "address",
              "name": "adds",
              "type": "address"
            },
            {
              "internalType": "uint256",
              "name": "opal",
              "type": "uint256"
            },
            {
              "internalType": "uint256",
              "name": "tokenId",
              "type": "uint256"
            }
          ],
          "internalType": "struct RunExecutor.RunnerInfo",
          "name": "loserInfo",
          "type": "tuple"
        },
        {
          "components": [
            {
              "internalType": "uint256",
              "name": "level",
              "type": "uint256"
            },
            {
              "internalType": "uint256",
              "name": "runs",
              "type": "uint256"
            },
            {
              "internalType": "uint256",
              "name": "wins",
              "type": "uint256"
            },
            {
              "internalType": "uint256",
              "name": "ability",
              "type": "uint256"
            },
            {
              "internalType": "uint256",
              "name": "health",
              "type": "uint256"
            },
            {
              "internalType": "uint256",
              "name": "mana",
              "type": "uint256"
            },
            {
              "internalType": "uint256",
              "name": "speed",
              "type": "uint256"
            },
            {
              "internalType": "uint256",
              "name": "collisionDamage",
              "type": "uint256"
            },
            {
              "internalType": "uint256",
              "name": "runsPerDayLimit",
              "type": "uint256"
            },
            {
              "internalType": "uint256",
              "name": "runsTotalLimit",
              "type": "uint256"
            }
          ],
          "internalType": "struct MetarunCollection.Perks",
          "name": "loserPerks",
          "type": "tuple"
        }
      ],
      "name": "executeRun",
      "outputs": [],
      "stateMutability": "nonpayable",
      "type": "function"
    },
    {
      "inputs": [
        {
          "components": [
            {
              "internalType": "address",
              "name": "adds",
              "type": "address"
            },
            {
              "internalType": "uint256",
              "name": "opal",
              "type": "uint256"
            },
            {
              "internalType": "uint256",
              "name": "tokenId",
              "type": "uint256"
            }
          ],
          "internalType": "struct RunExecutor.RunnerInfo",
          "name": "winnerInfo",
          "type": "tuple"
        },
        {
          "components": [
            {
              "internalType": "uint256",
              "name": "level",
              "type": "uint256"
            },
            {
              "internalType": "uint256",
              "name": "runs",
              "type": "uint256"
            },
            {
              "internalType": "uint256",
              "name": "wins",
              "type": "uint256"
            },
            {
              "internalType": "uint256",
              "name": "ability",
              "type": "uint256"
            },
            {
              "internalType": "uint256",
              "name": "health",
              "type": "uint256"
            },
            {
              "internalType": "uint256",
              "name": "mana",
              "type": "uint256"
            },
            {
              "internalType": "uint256",
              "name": "speed",
              "type": "uint256"
            },
            {
              "internalType": "uint256",
              "name": "collisionDamage",
              "type": "uint256"
            },
            {
              "internalType": "uint256",
              "name": "runsPerDayLimit",
              "type": "uint256"
            },
            {
              "internalType": "uint256",
              "name": "runsTotalLimit",
              "type": "uint256"
            }
          ],
          "internalType": "struct MetarunCollection.Perks",
          "name": "winnerPerks",
          "type": "tuple"
        },
        {
          "components": [
            {
              "internalType": "address",
              "name": "adds",
              "type": "address"
            },
            {
              "internalType": "uint256",
              "name": "opal",
              "type": "uint256"
            },
            {
              "internalType": "uint256",
              "name": "tokenId",
              "type": "uint256"
            }
          ],
          "internalType": "struct RunExecutor.RunnerInfo",
          "name": "secondInfo",
          "type": "tuple"
        },
        {
          "components": [
            {
              "internalType": "uint256",
              "name": "level",
              "type": "uint256"
            },
            {
              "internalType": "uint256",
              "name": "runs",
              "type": "uint256"
            },
            {
              "internalType": "uint256",
              "name": "wins",
              "type": "uint256"
            },
            {
              "internalType": "uint256",
              "name": "ability",
              "type": "uint256"
            },
            {
              "internalType": "uint256",
              "name": "health",
              "type": "uint256"
            },
            {
              "internalType": "uint256",
              "name": "mana",
              "type": "uint256"
            },
            {
              "internalType": "uint256",
              "name": "speed",
              "type": "uint256"
            },
            {
              "internalType": "uint256",
              "name": "collisionDamage",
              "type": "uint256"
            },
            {
              "internalType": "uint256",
              "name": "runsPerDayLimit",
              "type": "uint256"
            },
            {
              "internalType": "uint256",
              "name": "runsTotalLimit",
              "type": "uint256"
            }
          ],
          "internalType": "struct MetarunCollection.Perks",
          "name": "secondPerks",
          "type": "tuple"
        },
        {
          "components": [
            {
              "internalType": "address",
              "name": "adds",
              "type": "address"
            },
            {
              "internalType": "uint256",
              "name": "opal",
              "type": "uint256"
            },
            {
              "internalType": "uint256",
              "name": "tokenId",
              "type": "uint256"
            }
          ],
          "internalType": "struct RunExecutor.RunnerInfo",
          "name": "loserInfo",
          "type": "tuple"
        },
        {
          "components": [
            {
              "internalType": "uint256",
              "name": "level",
              "type": "uint256"
            },
            {
              "internalType": "uint256",
              "name": "runs",
              "type": "uint256"
            },
            {
              "internalType": "uint256",
              "name": "wins",
              "type": "uint256"
            },
            {
              "internalType": "uint256",
              "name": "ability",
              "type": "uint256"
            },
            {
              "internalType": "uint256",
              "name": "health",
              "type": "uint256"
            },
            {
              "internalType": "uint256",
              "name": "mana",
              "type": "uint256"
            },
            {
              "internalType": "uint256",
              "name": "speed",
              "type": "uint256"
            },
            {
              "internalType": "uint256",
              "name": "collisionDamage",
              "type": "uint256"
            },
            {
              "internalType": "uint256",
              "name": "runsPerDayLimit",
              "type": "uint256"
            },
            {
              "internalType": "uint256",
              "name": "runsTotalLimit",
              "type": "uint256"
            }
          ],
          "internalType": "struct MetarunCollection.Perks",
          "name": "loserPerks",
          "type": "tuple"
        }
      ],
      "name": "executeThreeParticipantsRun",
      "outputs": [],
      "stateMutability": "nonpayable",
      "type": "function"
    },
    {
      "inputs": [
        {
          "internalType": "bytes32",
          "name": "role",
          "type": "bytes32"
        }
      ],
      "name": "getRoleAdmin",
      "outputs": [
        {
          "internalType": "bytes32",
          "name": "",
          "type": "bytes32"
        }
      ],
      "stateMutability": "view",
      "type": "function"
    },
    {
      "inputs": [
        {
          "internalType": "bytes32",
          "name": "role",
          "type": "bytes32"
        },
        {
          "internalType": "address",
          "name": "account",
          "type": "address"
        }
      ],
      "name": "grantRole",
      "outputs": [],
      "stateMutability": "nonpayable",
      "type": "function"
    },
    {
      "inputs": [
        {
          "internalType": "bytes32",
          "name": "role",
          "type": "bytes32"
        },
        {
          "internalType": "address",
          "name": "account",
          "type": "address"
        }
      ],
      "name": "hasRole",
      "outputs": [
        {
          "internalType": "bool",
          "name": "",
          "type": "bool"
        }
      ],
      "stateMutability": "view",
      "type": "function"
    },
    {
      "inputs": [
        {
          "internalType": "address",
          "name": "metarunCollectionAddress",
          "type": "address"
        }
      ],
      "name": "initialize",
      "outputs": [],
      "stateMutability": "nonpayable",
      "type": "function"
    },
    {
      "inputs": [],
      "name": "metarunCollection",
      "outputs": [
        {
          "internalType": "contract MetarunCollection",
          "name": "",
          "type": "address"
        }
      ],
      "stateMutability": "view",
      "type": "function"
    },
    {
      "inputs": [
        {
          "internalType": "bytes32",
          "name": "role",
          "type": "bytes32"
        },
        {
          "internalType": "address",
          "name": "account",
          "type": "address"
        }
      ],
      "name": "renounceRole",
      "outputs": [],
      "stateMutability": "nonpayable",
      "type": "function"
    },
    {
      "inputs": [
        {
          "internalType": "bytes32",
          "name": "role",
          "type": "bytes32"
        },
        {
          "internalType": "address",
          "name": "account",
          "type": "address"
        }
      ],
      "name": "revokeRole",
      "outputs": [],
      "stateMutability": "nonpayable",
      "type": "function"
    },
    {
      "inputs": [
        {
          "internalType": "bytes4",
          "name": "interfaceId",
          "type": "bytes4"
        }
      ],
      "name": "supportsInterface",
      "outputs": [
        {
          "internalType": "bool",
          "name": "",
          "type": "bool"
        }
      ],
      "stateMutability": "view",
      "type": "function"
    }
  ],
  "transactionHash": "0x6fb2c7cfc3f8e3990005404e3dfcc780cd6d39fd4ffc594e5e4742db3d822021",
  "args": [],
  "numDeployments": 4,
  "solcInputHash": "2e2429d4f6399d1f36ca87e31757d18d",
  "bytecode": "0x608060405234801561001057600080fd5b5061118d806100206000396000f3fe608060405234801561001057600080fd5b50600436106100a45760003560e01c806301ffc9a7146100a957806307bd0265146100d1578063248a9ca3146100f45780632f2ff15d1461010757806336568abe1461011c57806370fdd9951461012f57806391d1485414610142578063a217fddf14610155578063c4d66de81461015d578063c9c4caa414610170578063d547741f1461019b578063e49a950c146101ae575b600080fd5b6100bc6100b7366004610c4b565b6101c1565b60405190151581526020015b60405180910390f35b6100e660008051602061113883398151915281565b6040519081526020016100c8565b6100e6610102366004610c75565b6101f8565b61011a610115366004610caa565b61020d565b005b61011a61012a366004610caa565b61022f565b61011a61013d366004610e16565b6102b2565b6100bc610150366004610caa565b610356565b6100e6600081565b61011a61016b366004610e71565b610381565b609754610183906001600160a01b031681565b6040516001600160a01b0390911681526020016100c8565b61011a6101a9366004610caa565b610480565b61011a6101bc366004610e8c565b61049d565b60006001600160e01b03198216637965db0b60e01b14806101f257506301ffc9a760e01b6001600160e01b03198316145b92915050565b60009081526065602052604090206001015490565b610216826101f8565b610220813361056f565b61022a83836105d3565b505050565b6001600160a01b03811633146102a45760405162461bcd60e51b815260206004820152602f60248201527f416363657373436f6e74726f6c3a2063616e206f6e6c792072656e6f756e636560448201526e103937b632b9903337b91039b2b63360891b60648201526084015b60405180910390fd5b6102ae8282610659565b5050565b6102ca60008051602061113883398151915233610356565b6102e65760405162461bcd60e51b815260040161029b90610f0b565b83516001600160a01b03161561032457600084602001511161031a5760405162461bcd60e51b815260040161029b90610f5b565b61032484846106c0565b81516001600160a01b031615801590610341575060008260200151115b156103505761035082826106c0565b50505050565b60009182526065602090815260408084206001600160a01b0393909316845291905290205460ff1690565b600054610100900460ff1661039c5760005460ff16156103a0565b303b155b6104035760405162461bcd60e51b815260206004820152602e60248201527f496e697469616c697a61626c653a20636f6e747261637420697320616c72656160448201526d191e481a5b9a5d1a585b1a5e995960921b606482015260840161029b565b600054610100900460ff16158015610425576000805461ffff19166101011790555b61042d610a32565b609780546001600160a01b0319166001600160a01b038416179055610453600033610a9f565b61046b600080516020611138833981519152336105d3565b80156102ae576000805461ff00191690555050565b610489826101f8565b610493813361056f565b61022a8383610659565b6104b560008051602061113883398151915233610356565b6104d15760405162461bcd60e51b815260040161029b90610f0b565b85516001600160a01b03161561050f5760008660200151116105055760405162461bcd60e51b815260040161029b90610f5b565b61050f86866106c0565b83516001600160a01b03161580159061052c575060008460200151115b1561053b5761053b84846106c0565b81516001600160a01b031615801590610558575060008260200151115b156105675761056782826106c0565b505050505050565b6105798282610356565b6102ae57610591816001600160a01b03166014610aa9565b61059c836020610aa9565b6040516020016105ad929190610fe0565b60408051601f198184030181529082905262461bcd60e51b825261029b9160040161104f565b6105dd8282610356565b6102ae5760008281526065602090815260408083206001600160a01b03851684529091529020805460ff191660011790556106153390565b6001600160a01b0316816001600160a01b0316837f2f8788117e7eff1d82e926ec794901d17c78024a50270940304540a733656f0d60405160405180910390a45050565b6106638282610356565b156102ae5760008281526065602090815260408083206001600160a01b0385168085529252808320805460ff1916905551339285917ff6391f5c32d9c69d2a47ea670b442974b53935d1edc7fd64eb21e047a839171b9190a45050565b6097546040808401519051632f85a82760e01b81526001600160a01b0390921691632f85a827916106f79160040190815260200190565b602060405180830381865afa158015610714573d6000803e3d6000fd5b505050506040513d601f19601f820116820180604052508101906107389190611082565b6107a55760405162461bcd60e51b815260206004820152603860248201527f52756e4578656375746f723a207061727469636970616e74277320746f6b656e6044820152771034b21039b437bab6321031329033b0b6b2903a37b5b2b760411b606482015260840161029b565b60975482516040808501519051627eeac760e11b81526001600160a01b039283166004820152602481019190915291169062fdd58e90604401602060405180830381865afa1580156107fb573d6000803e3d6000fd5b505050506040513d601f19601f8201168201806040525081019061081f91906110a4565b6001146108885760405162461bcd60e51b815260206004820152603160248201527f52756e4578656375746f723a207061727469636970616e742073686f756c642060448201527037bbb71034ba399031b430b930b1ba32b960791b606482015260840161029b565b6097548251604080516348bbacaf60e11b815290516001600160a01b039093169263156e29f692918491639177595e916004808201926020929091908290030181865afa1580156108dd573d6000803e3d6000fd5b505050506040513d601f19601f8201168201806040525081019061090191906110a4565b60208601516040516001600160e01b031960e086901b1681526001600160a01b03909316600484015260248301919091526044820152606401600060405180830381600087803b15801561095457600080fd5b505af1158015610968573d6000803e3d6000fd5b50506097546040858101518151630ee083e360e31b81526004810191909152855160248201526020860151604482015290850151606482015260608501516084820152608085015160a482015260a085015160c482015260c085015160e482015260e08501516101048201526101008501516101248201526101208501516101448201526001600160a01b0390911692506377041f18915061016401600060405180830381600087803b158015610a1e57600080fd5b505af1158015610567573d6000803e3d6000fd5b600054610100900460ff16610a9d5760405162461bcd60e51b815260206004820152602b60248201527f496e697469616c697a61626c653a20636f6e7472616374206973206e6f74206960448201526a6e697469616c697a696e6760a81b606482015260840161029b565b565b6102ae82826105d3565b60606000610ab88360026110d3565b610ac39060026110f2565b6001600160401b03811115610ada57610ada610cd6565b6040519080825280601f01601f191660200182016040528015610b04576020820181803683370190505b509050600360fc1b81600081518110610b1f57610b1f61110a565b60200101906001600160f81b031916908160001a905350600f60fb1b81600181518110610b4e57610b4e61110a565b60200101906001600160f81b031916908160001a9053506000610b728460026110d3565b610b7d9060016110f2565b90505b6001811115610bf5576f181899199a1a9b1b9c1cb0b131b232b360811b85600f1660108110610bb157610bb161110a565b1a60f81b828281518110610bc757610bc761110a565b60200101906001600160f81b031916908160001a90535060049490941c93610bee81611120565b9050610b80565b508315610c445760405162461bcd60e51b815260206004820181905260248201527f537472696e67733a20686578206c656e67746820696e73756666696369656e74604482015260640161029b565b9392505050565b600060208284031215610c5d57600080fd5b81356001600160e01b031981168114610c4457600080fd5b600060208284031215610c8757600080fd5b5035919050565b80356001600160a01b0381168114610ca557600080fd5b919050565b60008060408385031215610cbd57600080fd5b82359150610ccd60208401610c8e565b90509250929050565b634e487b7160e01b600052604160045260246000fd5b60405161014081016001600160401b0381118282101715610d1d57634e487b7160e01b600052604160045260246000fd5b60405290565b600060608284031215610d3557600080fd5b604051606081016001600160401b0381118282101715610d6557634e487b7160e01b600052604160045260246000fd5b604052905080610d7483610c8e565b815260208301356020820152604083013560408201525092915050565b60006101408284031215610da457600080fd5b610dac610cec565b9050813581526020820135602082015260408201356040820152606082013560608201526080820135608082015260a082013560a082015260c082013560c082015260e082013560e082015261010080830135818301525061012080830135818301525092915050565b6000806000806103408587031215610e2d57600080fd5b610e378686610d23565b9350610e468660608701610d91565b9250610e56866101a08701610d23565b9150610e66866102008701610d91565b905092959194509250565b600060208284031215610e8357600080fd5b610c4482610c8e565b6000806000806000806104e08789031215610ea657600080fd5b610eb08888610d23565b9550610ebf8860608901610d91565b9450610ecf886101a08901610d23565b9350610edf886102008901610d91565b9250610eef886103408901610d23565b9150610eff886103a08901610d91565b90509295509295509295565b60208082526030908201527f52756e4578656375746f723a2074782073656e6465722073686f756c6420686160408201526f7665204558454355544f525f524f4c4560801b606082015260800190565b60208082526039908201527f52756e4578656375746f723a2077696e6e65722773206f70616c20746f206265604082015278081b5a5b9d1959081cda1bdd5b19081899481919599a5b9959603a1b606082015260800190565b60005b83811015610fcf578181015183820152602001610fb7565b838111156103505750506000910152565b76020b1b1b2b9b9a1b7b73a3937b61d1030b1b1b7bab73a1604d1b815260008351611012816017850160208801610fb4565b7001034b99036b4b9b9b4b733903937b6329607d1b6017918401918201528351611043816028840160208801610fb4565b01602801949350505050565b602081526000825180602084015261106e816040850160208701610fb4565b601f01601f19169190910160400192915050565b60006020828403121561109457600080fd5b81518015158114610c4457600080fd5b6000602082840312156110b657600080fd5b5051919050565b634e487b7160e01b600052601160045260246000fd5b60008160001904831182151516156110ed576110ed6110bd565b500290565b60008219821115611105576111056110bd565b500190565b634e487b7160e01b600052603260045260246000fd5b60008161112f5761112f6110bd565b50600019019056fed8aa0f3194971a2a116679f7c2090f6939c8d4e01a2a8d7e41d55e5351469e63a2646970667358221220be2bbf0f791ca147981c4c75efbab6eb91323a75e3193024b0c2d84cd54f1c9964736f6c634300080d0033",
  "devdoc": {
    "kind": "dev",
    "methods": {
      "getRoleAdmin(bytes32)": {
        "details": "Returns the admin role that controls `role`. See {grantRole} and {revokeRole}. To change a role's admin, use {_setRoleAdmin}."
      },
      "grantRole(bytes32,address)": {
        "details": "Grants `role` to `account`. If `account` had not been already granted `role`, emits a {RoleGranted} event. Requirements: - the caller must have ``role``'s admin role."
      },
      "hasRole(bytes32,address)": {
        "details": "Returns `true` if `account` has been granted `role`."
      },
      "renounceRole(bytes32,address)": {
        "details": "Revokes `role` from the calling account. Roles are often managed via {grantRole} and {revokeRole}: this function's purpose is to provide a mechanism for accounts to lose their privileges if they are compromised (such as when a trusted device is misplaced). If the calling account had been revoked `role`, emits a {RoleRevoked} event. Requirements: - the caller must be `account`."
      },
      "revokeRole(bytes32,address)": {
        "details": "Revokes `role` from `account`. If `account` had been granted `role`, emits a {RoleRevoked} event. Requirements: - the caller must have ``role``'s admin role."
      },
      "supportsInterface(bytes4)": {
        "details": "See {IERC165-supportsInterface}."
      }
    },
    "version": 1
  },
  "userdoc": {
    "kind": "user",
    "methods": {},
    "version": 1
  },
  "storageLayout": {
    "storage": [
      {
        "astId": 532,
        "contract": "contracts/RunExecutor.sol:RunExecutor",
        "label": "_initialized",
        "offset": 0,
        "slot": "0",
        "type": "t_bool"
      },
      {
        "astId": 535,
        "contract": "contracts/RunExecutor.sol:RunExecutor",
        "label": "_initializing",
        "offset": 1,
        "slot": "0",
        "type": "t_bool"
      },
      {
        "astId": 2848,
        "contract": "contracts/RunExecutor.sol:RunExecutor",
        "label": "__gap",
        "offset": 0,
        "slot": "1",
        "type": "t_array(t_uint256)50_storage"
      },
      {
        "astId": 3652,
        "contract": "contracts/RunExecutor.sol:RunExecutor",
        "label": "__gap",
        "offset": 0,
        "slot": "51",
        "type": "t_array(t_uint256)50_storage"
      },
      {
        "astId": 39,
        "contract": "contracts/RunExecutor.sol:RunExecutor",
        "label": "_roles",
        "offset": 0,
        "slot": "101",
        "type": "t_mapping(t_bytes32,t_struct(RoleData)34_storage)"
      },
      {
        "astId": 327,
        "contract": "contracts/RunExecutor.sol:RunExecutor",
        "label": "__gap",
        "offset": 0,
        "slot": "102",
        "type": "t_array(t_uint256)49_storage"
      },
      {
        "astId": 8307,
        "contract": "contracts/RunExecutor.sol:RunExecutor",
        "label": "metarunCollection",
        "offset": 0,
        "slot": "151",
        "type": "t_contract(MetarunCollection)7882"
      }
    ],
    "types": {
      "t_address": {
        "encoding": "inplace",
        "label": "address",
        "numberOfBytes": "20"
      },
      "t_array(t_uint256)49_storage": {
        "base": "t_uint256",
        "encoding": "inplace",
        "label": "uint256[49]",
        "numberOfBytes": "1568"
      },
      "t_array(t_uint256)50_storage": {
        "base": "t_uint256",
        "encoding": "inplace",
        "label": "uint256[50]",
        "numberOfBytes": "1600"
      },
      "t_bool": {
        "encoding": "inplace",
        "label": "bool",
        "numberOfBytes": "1"
      },
      "t_bytes32": {
        "encoding": "inplace",
        "label": "bytes32",
        "numberOfBytes": "32"
      },
      "t_contract(MetarunCollection)7882": {
        "encoding": "inplace",
        "label": "contract MetarunCollection",
        "numberOfBytes": "20"
      },
      "t_mapping(t_address,t_bool)": {
        "encoding": "mapping",
        "key": "t_address",
        "label": "mapping(address => bool)",
        "numberOfBytes": "32",
        "value": "t_bool"
      },
      "t_mapping(t_bytes32,t_struct(RoleData)34_storage)": {
        "encoding": "mapping",
        "key": "t_bytes32",
        "label": "mapping(bytes32 => struct AccessControlUpgradeable.RoleData)",
        "numberOfBytes": "32",
        "value": "t_struct(RoleData)34_storage"
      },
      "t_struct(RoleData)34_storage": {
        "encoding": "inplace",
        "label": "struct AccessControlUpgradeable.RoleData",
        "members": [
          {
            "astId": 31,
            "contract": "contracts/RunExecutor.sol:RunExecutor",
            "label": "members",
            "offset": 0,
            "slot": "0",
            "type": "t_mapping(t_address,t_bool)"
          },
          {
            "astId": 33,
            "contract": "contracts/RunExecutor.sol:RunExecutor",
            "label": "adminRole",
            "offset": 0,
            "slot": "1",
            "type": "t_bytes32"
          }
        ],
        "numberOfBytes": "64"
      },
      "t_uint256": {
        "encoding": "inplace",
        "label": "uint256",
        "numberOfBytes": "32"
      }
    }
  }
}