{
  "address": "0x95994B7800bD1734E2d5F97235f1D6774f04DE12",
  "abi": [
    {
      "anonymous": false,
      "inputs": [
        {
          "indexed": true,
          "internalType": "address",
          "name": "previousOwner",
          "type": "address"
        },
        {
          "indexed": true,
          "internalType": "address",
          "name": "newOwner",
          "type": "address"
        }
      ],
      "name": "OwnershipTransferred",
      "type": "event"
    },
    {
      "inputs": [
        {
          "components": [
            {
              "internalType": "address",
              "name": "winner",
              "type": "address"
            },
            {
              "internalType": "address",
              "name": "looser",
              "type": "address"
            },
            {
              "internalType": "uint256",
              "name": "winnerCharacterTokenId",
              "type": "uint256"
            },
            {
              "internalType": "uint256",
              "name": "looserCharacterTokenId",
              "type": "uint256"
            },
            {
              "internalType": "uint256",
              "name": "winnerOpal",
              "type": "uint256"
            },
            {
              "internalType": "uint256",
              "name": "looserOpal",
              "type": "uint256"
            },
            {
              "internalType": "uint256",
              "name": "winnerExperience",
              "type": "uint256"
            }
          ],
          "internalType": "struct RunExecutor.Run",
          "name": "run",
          "type": "tuple"
        }
      ],
      "name": "executeRun",
      "outputs": [],
      "stateMutability": "nonpayable",
      "type": "function"
    },
    {
      "inputs": [
        {
          "internalType": "address",
          "name": "metarunCollectionAddress",
          "type": "address"
        }
      ],
      "name": "initialize",
      "outputs": [],
      "stateMutability": "nonpayable",
      "type": "function"
    },
    {
      "inputs": [],
      "name": "owner",
      "outputs": [
        {
          "internalType": "address",
          "name": "",
          "type": "address"
        }
      ],
      "stateMutability": "view",
      "type": "function"
    },
    {
      "inputs": [],
      "name": "renounceOwnership",
      "outputs": [],
      "stateMutability": "nonpayable",
      "type": "function"
    },
    {
      "inputs": [
        {
          "internalType": "address",
          "name": "newOwner",
          "type": "address"
        }
      ],
      "name": "transferOwnership",
      "outputs": [],
      "stateMutability": "nonpayable",
      "type": "function"
    }
  ],
  "transactionHash": "0x6e6614e10537f55e36419b89631341731f75d4c080e1d9c6b0d07e7fb1ccc40d",
  "args": [],
  "numDeployments": 2,
  "solcInputHash": "a5564cb9c98f4f0949dbfb5002c9cc50",
  "bytecode": "0x608060405234801561001057600080fd5b5061159e806100206000396000f3fe608060405234801561001057600080fd5b50600436106100575760003560e01c80636e7976051461005c578063715018a6146100785780638da5cb5b14610082578063c4d66de8146100a0578063f2fde38b146100bc575b600080fd5b61007660048036038101906100719190610d9b565b6100d8565b005b610080610720565b005b61008a6107a8565b6040516100979190610dd7565b60405180910390f35b6100ba60048036038101906100b59190610df2565b6107d2565b005b6100d660048036038101906100d19190610df2565b610900565b005b6100e06109f7565b73ffffffffffffffffffffffffffffffffffffffff166100fe6107a8565b73ffffffffffffffffffffffffffffffffffffffff1614610154576040517f08c379a000000000000000000000000000000000000000000000000000000000815260040161014b90610e7c565b60405180910390fd5b600081608001511161019b576040517f08c379a000000000000000000000000000000000000000000000000000000000815260040161019290610f0e565b60405180910390fd5b606560009054906101000a900473ffffffffffffffffffffffffffffffffffffffff1673ffffffffffffffffffffffffffffffffffffffff1663b7569fd582604001516040518263ffffffff1660e01b81526004016101fa9190610f3d565b602060405180830381865afa158015610217573d6000803e3d6000fd5b505050506040513d601f19601f8201168201806040525081019061023b9190610f90565b61027a576040517f08c379a00000000000000000000000000000000000000000000000000000000081526004016102719061102f565b60405180910390fd5b606560009054906101000a900473ffffffffffffffffffffffffffffffffffffffff1673ffffffffffffffffffffffffffffffffffffffff1663b7569fd582606001516040518263ffffffff1660e01b81526004016102d99190610f3d565b602060405180830381865afa1580156102f6573d6000803e3d6000fd5b505050506040513d601f19601f8201168201806040525081019061031a9190610f90565b610359576040517f08c379a0000000000000000000000000000000000000000000000000000000008152600401610350906110c1565b60405180910390fd5b606560009054906101000a900473ffffffffffffffffffffffffffffffffffffffff1673ffffffffffffffffffffffffffffffffffffffff1663156e29f68260000151606560009054906101000a900473ffffffffffffffffffffffffffffffffffffffff1673ffffffffffffffffffffffffffffffffffffffff16639177595e6040518163ffffffff1660e01b8152600401602060405180830381865afa158015610409573d6000803e3d6000fd5b505050506040513d601f19601f8201168201806040525081019061042d91906110f6565b84608001516040518463ffffffff1660e01b815260040161045093929190611123565b600060405180830381600087803b15801561046a57600080fd5b505af115801561047e573d6000803e3d6000fd5b5050505060008160a0015111156105b957606560009054906101000a900473ffffffffffffffffffffffffffffffffffffffff1673ffffffffffffffffffffffffffffffffffffffff1663156e29f68260200151606560009054906101000a900473ffffffffffffffffffffffffffffffffffffffff1673ffffffffffffffffffffffffffffffffffffffff16639177595e6040518163ffffffff1660e01b8152600401602060405180830381865afa15801561053f573d6000803e3d6000fd5b505050506040513d601f19601f8201168201806040525081019061056391906110f6565b8460a001516040518463ffffffff1660e01b815260040161058693929190611123565b600060405180830381600087803b1580156105a057600080fd5b505af11580156105b4573d6000803e3d6000fd5b505050505b60008160c00151111561071d576000606560009054906101000a900473ffffffffffffffffffffffffffffffffffffffff1673ffffffffffffffffffffffffffffffffffffffff1663ca16487b83604001516040518263ffffffff1660e01b81526004016106279190610f3d565b61010060405180830381865afa158015610645573d6000803e3d6000fd5b505050506040513d601f19601f820116820180604052508101906106699190611224565b90508160c00151816000018181516106819190611281565b91508181525050606560009054906101000a900473ffffffffffffffffffffffffffffffffffffffff1673ffffffffffffffffffffffffffffffffffffffff166317f309df8360400151836040518363ffffffff1660e01b81526004016106e9929190611388565b600060405180830381600087803b15801561070357600080fd5b505af1158015610717573d6000803e3d6000fd5b50505050505b50565b6107286109f7565b73ffffffffffffffffffffffffffffffffffffffff166107466107a8565b73ffffffffffffffffffffffffffffffffffffffff161461079c576040517f08c379a000000000000000000000000000000000000000000000000000000000815260040161079390610e7c565b60405180910390fd5b6107a660006109ff565b565b6000603360009054906101000a900473ffffffffffffffffffffffffffffffffffffffff16905090565b600060019054906101000a900460ff166107fa5760008054906101000a900460ff1615610803565b610802610ac5565b5b610842576040517f08c379a000000000000000000000000000000000000000000000000000000000815260040161083990611424565b60405180910390fd5b60008060019054906101000a900460ff161590508015610892576001600060016101000a81548160ff02191690831515021790555060016000806101000a81548160ff0219169083151502179055505b61089a610ad6565b81606560006101000a81548173ffffffffffffffffffffffffffffffffffffffff021916908373ffffffffffffffffffffffffffffffffffffffff16021790555080156108fc5760008060016101000a81548160ff0219169083151502179055505b5050565b6109086109f7565b73ffffffffffffffffffffffffffffffffffffffff166109266107a8565b73ffffffffffffffffffffffffffffffffffffffff161461097c576040517f08c379a000000000000000000000000000000000000000000000000000000000815260040161097390610e7c565b60405180910390fd5b600073ffffffffffffffffffffffffffffffffffffffff168173ffffffffffffffffffffffffffffffffffffffff16036109eb576040517f08c379a00000000000000000000000000000000000000000000000000000000081526004016109e2906114b6565b60405180910390fd5b6109f4816109ff565b50565b600033905090565b6000603360009054906101000a900473ffffffffffffffffffffffffffffffffffffffff16905081603360006101000a81548173ffffffffffffffffffffffffffffffffffffffff021916908373ffffffffffffffffffffffffffffffffffffffff1602179055508173ffffffffffffffffffffffffffffffffffffffff168173ffffffffffffffffffffffffffffffffffffffff167f8be0079c531659141344cd1fd0a4f28419497f9722a3daafe3b4186f6b6457e060405160405180910390a35050565b6000610ad030610b2f565b15905090565b600060019054906101000a900460ff16610b25576040517f08c379a0000000000000000000000000000000000000000000000000000000008152600401610b1c90611548565b60405180910390fd5b610b2d610b52565b565b6000808273ffffffffffffffffffffffffffffffffffffffff163b119050919050565b600060019054906101000a900460ff16610ba1576040517f08c379a0000000000000000000000000000000000000000000000000000000008152600401610b9890611548565b60405180910390fd5b610bb1610bac6109f7565b6109ff565b565b6000604051905090565b600080fd5b600080fd5b6000601f19601f8301169050919050565b7f4e487b7100000000000000000000000000000000000000000000000000000000600052604160045260246000fd5b610c1082610bc7565b810181811067ffffffffffffffff82111715610c2f57610c2e610bd8565b5b80604052505050565b6000610c42610bb3565b9050610c4e8282610c07565b919050565b600073ffffffffffffffffffffffffffffffffffffffff82169050919050565b6000610c7e82610c53565b9050919050565b610c8e81610c73565b8114610c9957600080fd5b50565b600081359050610cab81610c85565b92915050565b6000819050919050565b610cc481610cb1565b8114610ccf57600080fd5b50565b600081359050610ce181610cbb565b92915050565b600060e08284031215610cfd57610cfc610bc2565b5b610d0760e0610c38565b90506000610d1784828501610c9c565b6000830152506020610d2b84828501610c9c565b6020830152506040610d3f84828501610cd2565b6040830152506060610d5384828501610cd2565b6060830152506080610d6784828501610cd2565b60808301525060a0610d7b84828501610cd2565b60a08301525060c0610d8f84828501610cd2565b60c08301525092915050565b600060e08284031215610db157610db0610bbd565b5b6000610dbf84828501610ce7565b91505092915050565b610dd181610c73565b82525050565b6000602082019050610dec6000830184610dc8565b92915050565b600060208284031215610e0857610e07610bbd565b5b6000610e1684828501610c9c565b91505092915050565b600082825260208201905092915050565b7f4f776e61626c653a2063616c6c6572206973206e6f7420746865206f776e6572600082015250565b6000610e66602083610e1f565b9150610e7182610e30565b602082019050919050565b60006020820190508181036000830152610e9581610e59565b9050919050565b7f52756e4578656375746f723a2077696e6e65722773206f70616c20746f20626560008201527f206d696e7465642073686f756c6420626520646566696e656400000000000000602082015250565b6000610ef8603983610e1f565b9150610f0382610e9c565b604082019050919050565b60006020820190508181036000830152610f2781610eeb565b9050919050565b610f3781610cb1565b82525050565b6000602082019050610f526000830184610f2e565b92915050565b60008115159050919050565b610f6d81610f58565b8114610f7857600080fd5b50565b600081519050610f8a81610f64565b92915050565b600060208284031215610fa657610fa5610bbd565b5b6000610fb484828501610f7b565b91505092915050565b7f52756e4578656375746f723a2077696e6e65722773206368617261637465722060008201527f746f6b656e2069642073686f756c642062652076616c69640000000000000000602082015250565b6000611019603883610e1f565b915061102482610fbd565b604082019050919050565b600060208201905081810360008301526110488161100c565b9050919050565b7f52756e4578656375746f723a206c6f6f7365722773206368617261637465722060008201527f746f6b656e2069642073686f756c642062652076616c69640000000000000000602082015250565b60006110ab603883610e1f565b91506110b68261104f565b604082019050919050565b600060208201905081810360008301526110da8161109e565b9050919050565b6000815190506110f081610cbb565b92915050565b60006020828403121561110c5761110b610bbd565b5b600061111a848285016110e1565b91505092915050565b60006060820190506111386000830186610dc8565b6111456020830185610f2e565b6111526040830184610f2e565b949350505050565b6000610100828403121561117157611170610bc2565b5b61117c610100610c38565b9050600061118c848285016110e1565b60008301525060206111a0848285016110e1565b60208301525060406111b4848285016110e1565b60408301525060606111c8848285016110e1565b60608301525060806111dc848285016110e1565b60808301525060a06111f0848285016110e1565b60a08301525060c0611204848285016110e1565b60c08301525060e0611218848285016110e1565b60e08301525092915050565b6000610100828403121561123b5761123a610bbd565b5b60006112498482850161115a565b91505092915050565b7f4e487b7100000000000000000000000000000000000000000000000000000000600052601160045260246000fd5b600061128c82610cb1565b915061129783610cb1565b9250827fffffffffffffffffffffffffffffffffffffffffffffffffffffffffffffffff038211156112cc576112cb611252565b5b828201905092915050565b6112e081610cb1565b82525050565b610100820160008201516112fd60008501826112d7565b50602082015161131060208501826112d7565b50604082015161132360408501826112d7565b50606082015161133660608501826112d7565b50608082015161134960808501826112d7565b5060a082015161135c60a08501826112d7565b5060c082015161136f60c08501826112d7565b5060e082015161138260e08501826112d7565b50505050565b60006101208201905061139e6000830185610f2e565b6113ab60208301846112e6565b9392505050565b7f496e697469616c697a61626c653a20636f6e747261637420697320616c72656160008201527f647920696e697469616c697a6564000000000000000000000000000000000000602082015250565b600061140e602e83610e1f565b9150611419826113b2565b604082019050919050565b6000602082019050818103600083015261143d81611401565b9050919050565b7f4f776e61626c653a206e6577206f776e657220697320746865207a65726f206160008201527f6464726573730000000000000000000000000000000000000000000000000000602082015250565b60006114a0602683610e1f565b91506114ab82611444565b604082019050919050565b600060208201905081810360008301526114cf81611493565b9050919050565b7f496e697469616c697a61626c653a20636f6e7472616374206973206e6f74206960008201527f6e697469616c697a696e67000000000000000000000000000000000000000000602082015250565b6000611532602b83610e1f565b915061153d826114d6565b604082019050919050565b6000602082019050818103600083015261156181611525565b905091905056fea264697066735822122050868ceb69388429aa481640b47ce938d22c6d53f0b8a308658fc1318db5fa3664736f6c634300080d0033",
  "devdoc": {
    "kind": "dev",
    "methods": {
      "owner()": {
        "details": "Returns the address of the current owner."
      },
      "renounceOwnership()": {
        "details": "Leaves the contract without owner. It will not be possible to call `onlyOwner` functions anymore. Can only be called by the current owner. NOTE: Renouncing ownership will leave the contract without an owner, thereby removing any functionality that is only available to the owner."
      },
      "transferOwnership(address)": {
        "details": "Transfers ownership of the contract to a new account (`newOwner`). Can only be called by the current owner."
      }
    },
    "version": 1
  },
  "userdoc": {
    "kind": "user",
    "methods": {},
    "version": 1
  },
  "storageLayout": {
    "storage": [
      {
        "astId": 532,
        "contract": "contracts/RunExecutor.sol:RunExecutor",
        "label": "_initialized",
        "offset": 0,
        "slot": "0",
        "type": "t_bool"
      },
      {
        "astId": 535,
        "contract": "contracts/RunExecutor.sol:RunExecutor",
        "label": "_initializing",
        "offset": 1,
        "slot": "0",
        "type": "t_bool"
      },
      {
        "astId": 2421,
        "contract": "contracts/RunExecutor.sol:RunExecutor",
        "label": "__gap",
        "offset": 0,
        "slot": "1",
        "type": "t_array(t_uint256)50_storage"
      },
      {
        "astId": 412,
        "contract": "contracts/RunExecutor.sol:RunExecutor",
        "label": "_owner",
        "offset": 0,
        "slot": "51",
        "type": "t_address"
      },
      {
        "astId": 524,
        "contract": "contracts/RunExecutor.sol:RunExecutor",
        "label": "__gap",
        "offset": 0,
        "slot": "52",
        "type": "t_array(t_uint256)49_storage"
      },
      {
        "astId": 3235,
        "contract": "contracts/RunExecutor.sol:RunExecutor",
        "label": "_metarunCollection",
        "offset": 0,
        "slot": "101",
        "type": "t_contract(MetarunCollection)3208"
      }
    ],
    "types": {
      "t_address": {
        "encoding": "inplace",
        "label": "address",
        "numberOfBytes": "20"
      },
      "t_array(t_uint256)49_storage": {
        "base": "t_uint256",
        "encoding": "inplace",
        "label": "uint256[49]",
        "numberOfBytes": "1568"
      },
      "t_array(t_uint256)50_storage": {
        "base": "t_uint256",
        "encoding": "inplace",
        "label": "uint256[50]",
        "numberOfBytes": "1600"
      },
      "t_bool": {
        "encoding": "inplace",
        "label": "bool",
        "numberOfBytes": "1"
      },
      "t_contract(MetarunCollection)3208": {
        "encoding": "inplace",
        "label": "contract MetarunCollection",
        "numberOfBytes": "20"
      },
      "t_uint256": {
        "encoding": "inplace",
        "label": "uint256",
        "numberOfBytes": "32"
      }
    }
  }
}