{
  "address": "0x5904ba321CA98601F98fE197E8feCF06f57270AC",
  "abi": [
    {
      "anonymous": false,
      "inputs": [
        {
          "indexed": true,
          "internalType": "bytes32",
          "name": "role",
          "type": "bytes32"
        },
        {
          "indexed": true,
          "internalType": "bytes32",
          "name": "previousAdminRole",
          "type": "bytes32"
        },
        {
          "indexed": true,
          "internalType": "bytes32",
          "name": "newAdminRole",
          "type": "bytes32"
        }
      ],
      "name": "RoleAdminChanged",
      "type": "event"
    },
    {
      "anonymous": false,
      "inputs": [
        {
          "indexed": true,
          "internalType": "bytes32",
          "name": "role",
          "type": "bytes32"
        },
        {
          "indexed": true,
          "internalType": "address",
          "name": "account",
          "type": "address"
        },
        {
          "indexed": true,
          "internalType": "address",
          "name": "sender",
          "type": "address"
        }
      ],
      "name": "RoleGranted",
      "type": "event"
    },
    {
      "anonymous": false,
      "inputs": [
        {
          "indexed": true,
          "internalType": "bytes32",
          "name": "role",
          "type": "bytes32"
        },
        {
          "indexed": true,
          "internalType": "address",
          "name": "account",
          "type": "address"
        },
        {
          "indexed": true,
          "internalType": "address",
          "name": "sender",
          "type": "address"
        }
      ],
      "name": "RoleRevoked",
      "type": "event"
    },
    {
      "inputs": [],
      "name": "DEFAULT_ADMIN_ROLE",
      "outputs": [
        {
          "internalType": "bytes32",
          "name": "",
          "type": "bytes32"
        }
      ],
      "stateMutability": "view",
      "type": "function"
    },
    {
      "inputs": [],
      "name": "EXECUTOR_ROLE",
      "outputs": [
        {
          "internalType": "bytes32",
          "name": "",
          "type": "bytes32"
        }
      ],
      "stateMutability": "view",
      "type": "function"
    },
    {
      "inputs": [
        {
          "components": [
            {
              "internalType": "address",
              "name": "winner",
              "type": "address"
            },
            {
              "internalType": "address",
              "name": "looser",
              "type": "address"
            },
            {
              "internalType": "uint256",
              "name": "winnerCharacterTokenId",
              "type": "uint256"
            },
            {
              "internalType": "uint256",
              "name": "looserCharacterTokenId",
              "type": "uint256"
            },
            {
              "internalType": "uint256",
              "name": "winnerOpal",
              "type": "uint256"
            },
            {
              "internalType": "uint256",
              "name": "looserOpal",
              "type": "uint256"
            },
            {
              "internalType": "uint256",
              "name": "winnerExperience",
              "type": "uint256"
            }
          ],
          "internalType": "struct RunExecutor.Run",
          "name": "run",
          "type": "tuple"
        }
      ],
      "name": "executeRun",
      "outputs": [],
      "stateMutability": "nonpayable",
      "type": "function"
    },
    {
      "inputs": [
        {
          "internalType": "bytes32",
          "name": "role",
          "type": "bytes32"
        }
      ],
      "name": "getRoleAdmin",
      "outputs": [
        {
          "internalType": "bytes32",
          "name": "",
          "type": "bytes32"
        }
      ],
      "stateMutability": "view",
      "type": "function"
    },
    {
      "inputs": [
        {
          "internalType": "bytes32",
          "name": "role",
          "type": "bytes32"
        },
        {
          "internalType": "address",
          "name": "account",
          "type": "address"
        }
      ],
      "name": "grantRole",
      "outputs": [],
      "stateMutability": "nonpayable",
      "type": "function"
    },
    {
      "inputs": [
        {
          "internalType": "bytes32",
          "name": "role",
          "type": "bytes32"
        },
        {
          "internalType": "address",
          "name": "account",
          "type": "address"
        }
      ],
      "name": "hasRole",
      "outputs": [
        {
          "internalType": "bool",
          "name": "",
          "type": "bool"
        }
      ],
      "stateMutability": "view",
      "type": "function"
    },
    {
      "inputs": [
        {
          "internalType": "address",
          "name": "metarunCollectionAddress",
          "type": "address"
        }
      ],
      "name": "initialize",
      "outputs": [],
      "stateMutability": "nonpayable",
      "type": "function"
    },
    {
      "inputs": [],
      "name": "metarunCollection",
      "outputs": [
        {
          "internalType": "contract MetarunCollection",
          "name": "",
          "type": "address"
        }
      ],
      "stateMutability": "view",
      "type": "function"
    },
    {
      "inputs": [
        {
          "internalType": "bytes32",
          "name": "role",
          "type": "bytes32"
        },
        {
          "internalType": "address",
          "name": "account",
          "type": "address"
        }
      ],
      "name": "renounceRole",
      "outputs": [],
      "stateMutability": "nonpayable",
      "type": "function"
    },
    {
      "inputs": [
        {
          "internalType": "bytes32",
          "name": "role",
          "type": "bytes32"
        },
        {
          "internalType": "address",
          "name": "account",
          "type": "address"
        }
      ],
      "name": "revokeRole",
      "outputs": [],
      "stateMutability": "nonpayable",
      "type": "function"
    },
    {
      "inputs": [
        {
          "internalType": "bytes4",
          "name": "interfaceId",
          "type": "bytes4"
        }
      ],
      "name": "supportsInterface",
      "outputs": [
        {
          "internalType": "bool",
          "name": "",
          "type": "bool"
        }
      ],
      "stateMutability": "view",
      "type": "function"
    }
  ],
  "transactionHash": "0x63f65e66a1275cbb1af4cf1cf4439fb4057c625b6b4b6b7a837926769dd82079",
  "args": [],
  "numDeployments": 1,
  "solcInputHash": "77d441b2a2c4f17b3d50f8bb13a0f693",
  "bytecode": "0x608060405234801561001057600080fd5b5061202e806100206000396000f3fe608060405234801561001057600080fd5b50600436106100a95760003560e01c80636e797605116100715780636e7976051461016457806391d1485414610180578063a217fddf146101b0578063c4d66de8146101ce578063c9c4caa4146101ea578063d547741f14610208576100a9565b806301ffc9a7146100ae57806307bd0265146100de578063248a9ca3146100fc5780632f2ff15d1461012c57806336568abe14610148575b600080fd5b6100c860048036038101906100c391906111e4565b610224565b6040516100d5919061122c565b60405180910390f35b6100e661029e565b6040516100f39190611260565b60405180910390f35b610116600480360381019061011191906112a7565b6102c2565b6040516101239190611260565b60405180910390f35b61014660048036038101906101419190611332565b6102e2565b005b610162600480360381019061015d9190611332565b61030b565b005b61017e600480360381019061017991906114ed565b61038e565b005b61019a60048036038101906101959190611332565b6109ca565b6040516101a7919061122c565b60405180910390f35b6101b8610a35565b6040516101c59190611260565b60405180910390f35b6101e860048036038101906101e3919061151a565b610a3c565b005b6101f2610b9b565b6040516101ff91906115a6565b60405180910390f35b610222600480360381019061021d9190611332565b610bc1565b005b60007f7965db0b000000000000000000000000000000000000000000000000000000007bffffffffffffffffffffffffffffffffffffffffffffffffffffffff1916827bffffffffffffffffffffffffffffffffffffffffffffffffffffffff19161480610297575061029682610bea565b5b9050919050565b7fd8aa0f3194971a2a116679f7c2090f6939c8d4e01a2a8d7e41d55e5351469e6381565b600060656000838152602001908152602001600020600101549050919050565b6102eb826102c2565b6102fc816102f7610c54565b610c5c565b6103068383610cf9565b505050565b610313610c54565b73ffffffffffffffffffffffffffffffffffffffff168173ffffffffffffffffffffffffffffffffffffffff1614610380576040517f08c379a000000000000000000000000000000000000000000000000000000000815260040161037790611644565b60405180910390fd5b61038a8282610dda565b5050565b6103bf7fd8aa0f3194971a2a116679f7c2090f6939c8d4e01a2a8d7e41d55e5351469e636103ba610c54565b6109ca565b6103fe576040517f08c379a00000000000000000000000000000000000000000000000000000000081526004016103f5906116d6565b60405180910390fd5b6000816080015111610445576040517f08c379a000000000000000000000000000000000000000000000000000000000815260040161043c90611768565b60405180910390fd5b609760009054906101000a900473ffffffffffffffffffffffffffffffffffffffff1673ffffffffffffffffffffffffffffffffffffffff1663b7569fd582604001516040518263ffffffff1660e01b81526004016104a49190611797565b602060405180830381865afa1580156104c1573d6000803e3d6000fd5b505050506040513d601f19601f820116820180604052508101906104e591906117de565b610524576040517f08c379a000000000000000000000000000000000000000000000000000000000815260040161051b9061187d565b60405180910390fd5b609760009054906101000a900473ffffffffffffffffffffffffffffffffffffffff1673ffffffffffffffffffffffffffffffffffffffff1663b7569fd582606001516040518263ffffffff1660e01b81526004016105839190611797565b602060405180830381865afa1580156105a0573d6000803e3d6000fd5b505050506040513d601f19601f820116820180604052508101906105c491906117de565b610603576040517f08c379a00000000000000000000000000000000000000000000000000000000081526004016105fa9061190f565b60405180910390fd5b609760009054906101000a900473ffffffffffffffffffffffffffffffffffffffff1673ffffffffffffffffffffffffffffffffffffffff1663156e29f68260000151609760009054906101000a900473ffffffffffffffffffffffffffffffffffffffff1673ffffffffffffffffffffffffffffffffffffffff16639177595e6040518163ffffffff1660e01b8152600401602060405180830381865afa1580156106b3573d6000803e3d6000fd5b505050506040513d601f19601f820116820180604052508101906106d79190611944565b84608001516040518463ffffffff1660e01b81526004016106fa93929190611980565b600060405180830381600087803b15801561071457600080fd5b505af1158015610728573d6000803e3d6000fd5b5050505060008160a00151111561086357609760009054906101000a900473ffffffffffffffffffffffffffffffffffffffff1673ffffffffffffffffffffffffffffffffffffffff1663156e29f68260200151609760009054906101000a900473ffffffffffffffffffffffffffffffffffffffff1673ffffffffffffffffffffffffffffffffffffffff16639177595e6040518163ffffffff1660e01b8152600401602060405180830381865afa1580156107e9573d6000803e3d6000fd5b505050506040513d601f19601f8201168201806040525081019061080d9190611944565b8460a001516040518463ffffffff1660e01b815260040161083093929190611980565b600060405180830381600087803b15801561084a57600080fd5b505af115801561085e573d6000803e3d6000fd5b505050505b60008160c0015111156109c7576000609760009054906101000a900473ffffffffffffffffffffffffffffffffffffffff1673ffffffffffffffffffffffffffffffffffffffff1663ca16487b83604001516040518263ffffffff1660e01b81526004016108d19190611797565b61010060405180830381865afa1580156108ef573d6000803e3d6000fd5b505050506040513d601f19601f820116820180604052508101906109139190611a81565b90508160c001518160000181815161092b9190611ade565b91508181525050609760009054906101000a900473ffffffffffffffffffffffffffffffffffffffff1673ffffffffffffffffffffffffffffffffffffffff166317f309df8360400151836040518363ffffffff1660e01b8152600401610993929190611be5565b600060405180830381600087803b1580156109ad57600080fd5b505af11580156109c1573d6000803e3d6000fd5b50505050505b50565b60006065600084815260200190815260200160002060000160008373ffffffffffffffffffffffffffffffffffffffff1673ffffffffffffffffffffffffffffffffffffffff16815260200190815260200160002060009054906101000a900460ff16905092915050565b6000801b81565b600060019054906101000a900460ff16610a645760008054906101000a900460ff1615610a6d565b610a6c610ebc565b5b610aac576040517f08c379a0000000000000000000000000000000000000000000000000000000008152600401610aa390611c81565b60405180910390fd5b60008060019054906101000a900460ff161590508015610afc576001600060016101000a81548160ff02191690831515021790555060016000806101000a81548160ff0219169083151502179055505b610b04610ecd565b81609760006101000a81548173ffffffffffffffffffffffffffffffffffffffff021916908373ffffffffffffffffffffffffffffffffffffffff160217905550610b767fd8aa0f3194971a2a116679f7c2090f6939c8d4e01a2a8d7e41d55e5351469e63610b71610c54565b610cf9565b8015610b975760008060016101000a81548160ff0219169083151502179055505b5050565b609760009054906101000a900473ffffffffffffffffffffffffffffffffffffffff1681565b610bca826102c2565b610bdb81610bd6610c54565b610c5c565b610be58383610dda565b505050565b60007f01ffc9a7000000000000000000000000000000000000000000000000000000007bffffffffffffffffffffffffffffffffffffffffffffffffffffffff1916827bffffffffffffffffffffffffffffffffffffffffffffffffffffffff1916149050919050565b600033905090565b610c6682826109ca565b610cf557610c8b8173ffffffffffffffffffffffffffffffffffffffff166014610f1e565b610c998360001c6020610f1e565b604051602001610caa929190611db3565b6040516020818303038152906040526040517f08c379a0000000000000000000000000000000000000000000000000000000008152600401610cec9190611e26565b60405180910390fd5b5050565b610d0382826109ca565b610dd65760016065600084815260200190815260200160002060000160008373ffffffffffffffffffffffffffffffffffffffff1673ffffffffffffffffffffffffffffffffffffffff16815260200190815260200160002060006101000a81548160ff021916908315150217905550610d7b610c54565b73ffffffffffffffffffffffffffffffffffffffff168173ffffffffffffffffffffffffffffffffffffffff16837f2f8788117e7eff1d82e926ec794901d17c78024a50270940304540a733656f0d60405160405180910390a45b5050565b610de482826109ca565b15610eb85760006065600084815260200190815260200160002060000160008373ffffffffffffffffffffffffffffffffffffffff1673ffffffffffffffffffffffffffffffffffffffff16815260200190815260200160002060006101000a81548160ff021916908315150217905550610e5d610c54565b73ffffffffffffffffffffffffffffffffffffffff168173ffffffffffffffffffffffffffffffffffffffff16837ff6391f5c32d9c69d2a47ea670b442974b53935d1edc7fd64eb21e047a839171b60405160405180910390a45b5050565b6000610ec73061115a565b15905090565b600060019054906101000a900460ff16610f1c576040517f08c379a0000000000000000000000000000000000000000000000000000000008152600401610f1390611eba565b60405180910390fd5b565b606060006002836002610f319190611eda565b610f3b9190611ade565b67ffffffffffffffff811115610f5457610f53611388565b5b6040519080825280601f01601f191660200182016040528015610f865781602001600182028036833780820191505090505b5090507f300000000000000000000000000000000000000000000000000000000000000081600081518110610fbe57610fbd611f34565b5b60200101907effffffffffffffffffffffffffffffffffffffffffffffffffffffffffffff1916908160001a9053507f78000000000000000000000000000000000000000000000000000000000000008160018151811061102257611021611f34565b5b60200101907effffffffffffffffffffffffffffffffffffffffffffffffffffffffffffff1916908160001a905350600060018460026110629190611eda565b61106c9190611ade565b90505b600181111561110c577f3031323334353637383961626364656600000000000000000000000000000000600f8616601081106110ae576110ad611f34565b5b1a60f81b8282815181106110c5576110c4611f34565b5b60200101907effffffffffffffffffffffffffffffffffffffffffffffffffffffffffffff1916908160001a905350600485901c94508061110590611f63565b905061106f565b5060008414611150576040517f08c379a000000000000000000000000000000000000000000000000000000000815260040161114790611fd8565b60405180910390fd5b8091505092915050565b6000808273ffffffffffffffffffffffffffffffffffffffff163b119050919050565b6000604051905090565b600080fd5b60007fffffffff0000000000000000000000000000000000000000000000000000000082169050919050565b6111c18161118c565b81146111cc57600080fd5b50565b6000813590506111de816111b8565b92915050565b6000602082840312156111fa576111f9611187565b5b6000611208848285016111cf565b91505092915050565b60008115159050919050565b61122681611211565b82525050565b6000602082019050611241600083018461121d565b92915050565b6000819050919050565b61125a81611247565b82525050565b60006020820190506112756000830184611251565b92915050565b61128481611247565b811461128f57600080fd5b50565b6000813590506112a18161127b565b92915050565b6000602082840312156112bd576112bc611187565b5b60006112cb84828501611292565b91505092915050565b600073ffffffffffffffffffffffffffffffffffffffff82169050919050565b60006112ff826112d4565b9050919050565b61130f816112f4565b811461131a57600080fd5b50565b60008135905061132c81611306565b92915050565b6000806040838503121561134957611348611187565b5b600061135785828601611292565b92505060206113688582860161131d565b9150509250929050565b600080fd5b6000601f19601f8301169050919050565b7f4e487b7100000000000000000000000000000000000000000000000000000000600052604160045260246000fd5b6113c082611377565b810181811067ffffffffffffffff821117156113df576113de611388565b5b80604052505050565b60006113f261117d565b90506113fe82826113b7565b919050565b6000819050919050565b61141681611403565b811461142157600080fd5b50565b6000813590506114338161140d565b92915050565b600060e0828403121561144f5761144e611372565b5b61145960e06113e8565b905060006114698482850161131d565b600083015250602061147d8482850161131d565b602083015250604061149184828501611424565b60408301525060606114a584828501611424565b60608301525060806114b984828501611424565b60808301525060a06114cd84828501611424565b60a08301525060c06114e184828501611424565b60c08301525092915050565b600060e0828403121561150357611502611187565b5b600061151184828501611439565b91505092915050565b6000602082840312156115305761152f611187565b5b600061153e8482850161131d565b91505092915050565b6000819050919050565b600061156c611567611562846112d4565b611547565b6112d4565b9050919050565b600061157e82611551565b9050919050565b600061159082611573565b9050919050565b6115a081611585565b82525050565b60006020820190506115bb6000830184611597565b92915050565b600082825260208201905092915050565b7f416363657373436f6e74726f6c3a2063616e206f6e6c792072656e6f756e636560008201527f20726f6c657320666f722073656c660000000000000000000000000000000000602082015250565b600061162e602f836115c1565b9150611639826115d2565b604082019050919050565b6000602082019050818103600083015261165d81611621565b9050919050565b7f52756e4578656375746f723a2074782073656e6465722073686f756c6420686160008201527f7665204558454355544f525f524f4c4500000000000000000000000000000000602082015250565b60006116c06030836115c1565b91506116cb82611664565b604082019050919050565b600060208201905081810360008301526116ef816116b3565b9050919050565b7f52756e4578656375746f723a2077696e6e65722773206f70616c20746f20626560008201527f206d696e7465642073686f756c6420626520646566696e656400000000000000602082015250565b60006117526039836115c1565b915061175d826116f6565b604082019050919050565b6000602082019050818103600083015261178181611745565b9050919050565b61179181611403565b82525050565b60006020820190506117ac6000830184611788565b92915050565b6117bb81611211565b81146117c657600080fd5b50565b6000815190506117d8816117b2565b92915050565b6000602082840312156117f4576117f3611187565b5b6000611802848285016117c9565b91505092915050565b7f52756e4578656375746f723a2077696e6e65722773206368617261637465722060008201527f746f6b656e2069642073686f756c642062652076616c69640000000000000000602082015250565b60006118676038836115c1565b91506118728261180b565b604082019050919050565b600060208201905081810360008301526118968161185a565b9050919050565b7f52756e4578656375746f723a206c6f6f7365722773206368617261637465722060008201527f746f6b656e2069642073686f756c642062652076616c69640000000000000000602082015250565b60006118f96038836115c1565b91506119048261189d565b604082019050919050565b60006020820190508181036000830152611928816118ec565b9050919050565b60008151905061193e8161140d565b92915050565b60006020828403121561195a57611959611187565b5b60006119688482850161192f565b91505092915050565b61197a816112f4565b82525050565b60006060820190506119956000830186611971565b6119a26020830185611788565b6119af6040830184611788565b949350505050565b600061010082840312156119ce576119cd611372565b5b6119d96101006113e8565b905060006119e98482850161192f565b60008301525060206119fd8482850161192f565b6020830152506040611a118482850161192f565b6040830152506060611a258482850161192f565b6060830152506080611a398482850161192f565b60808301525060a0611a4d8482850161192f565b60a08301525060c0611a618482850161192f565b60c08301525060e0611a758482850161192f565b60e08301525092915050565b60006101008284031215611a9857611a97611187565b5b6000611aa6848285016119b7565b91505092915050565b7f4e487b7100000000000000000000000000000000000000000000000000000000600052601160045260246000fd5b6000611ae982611403565b9150611af483611403565b9250827fffffffffffffffffffffffffffffffffffffffffffffffffffffffffffffffff03821115611b2957611b28611aaf565b5b828201905092915050565b611b3d81611403565b82525050565b61010082016000820151611b5a6000850182611b34565b506020820151611b6d6020850182611b34565b506040820151611b806040850182611b34565b506060820151611b936060850182611b34565b506080820151611ba66080850182611b34565b5060a0820151611bb960a0850182611b34565b5060c0820151611bcc60c0850182611b34565b5060e0820151611bdf60e0850182611b34565b50505050565b600061012082019050611bfb6000830185611788565b611c086020830184611b43565b9392505050565b7f496e697469616c697a61626c653a20636f6e747261637420697320616c72656160008201527f647920696e697469616c697a6564000000000000000000000000000000000000602082015250565b6000611c6b602e836115c1565b9150611c7682611c0f565b604082019050919050565b60006020820190508181036000830152611c9a81611c5e565b9050919050565b600081905092915050565b7f416363657373436f6e74726f6c3a206163636f756e7420000000000000000000600082015250565b6000611ce2601783611ca1565b9150611ced82611cac565b601782019050919050565b600081519050919050565b60005b83811015611d21578082015181840152602081019050611d06565b83811115611d30576000848401525b50505050565b6000611d4182611cf8565b611d4b8185611ca1565b9350611d5b818560208601611d03565b80840191505092915050565b7f206973206d697373696e6720726f6c6520000000000000000000000000000000600082015250565b6000611d9d601183611ca1565b9150611da882611d67565b601182019050919050565b6000611dbe82611cd5565b9150611dca8285611d36565b9150611dd582611d90565b9150611de18284611d36565b91508190509392505050565b6000611df882611cf8565b611e0281856115c1565b9350611e12818560208601611d03565b611e1b81611377565b840191505092915050565b60006020820190508181036000830152611e408184611ded565b905092915050565b7f496e697469616c697a61626c653a20636f6e7472616374206973206e6f74206960008201527f6e697469616c697a696e67000000000000000000000000000000000000000000602082015250565b6000611ea4602b836115c1565b9150611eaf82611e48565b604082019050919050565b60006020820190508181036000830152611ed381611e97565b9050919050565b6000611ee582611403565b9150611ef083611403565b9250817fffffffffffffffffffffffffffffffffffffffffffffffffffffffffffffffff0483118215151615611f2957611f28611aaf565b5b828202905092915050565b7f4e487b7100000000000000000000000000000000000000000000000000000000600052603260045260246000fd5b6000611f6e82611403565b915060008203611f8157611f80611aaf565b5b600182039050919050565b7f537472696e67733a20686578206c656e67746820696e73756666696369656e74600082015250565b6000611fc26020836115c1565b9150611fcd82611f8c565b602082019050919050565b60006020820190508181036000830152611ff181611fb5565b905091905056fea26469706673582212203758171bf9da16545162dfbe403a861c1a060fe2b64da402b2d0d52a618096ad64736f6c634300080d0033",
  "devdoc": {
    "kind": "dev",
    "methods": {
      "getRoleAdmin(bytes32)": {
        "details": "Returns the admin role that controls `role`. See {grantRole} and {revokeRole}. To change a role's admin, use {_setRoleAdmin}."
      },
      "grantRole(bytes32,address)": {
        "details": "Grants `role` to `account`. If `account` had not been already granted `role`, emits a {RoleGranted} event. Requirements: - the caller must have ``role``'s admin role."
      },
      "hasRole(bytes32,address)": {
        "details": "Returns `true` if `account` has been granted `role`."
      },
      "renounceRole(bytes32,address)": {
        "details": "Revokes `role` from the calling account. Roles are often managed via {grantRole} and {revokeRole}: this function's purpose is to provide a mechanism for accounts to lose their privileges if they are compromised (such as when a trusted device is misplaced). If the calling account had been revoked `role`, emits a {RoleRevoked} event. Requirements: - the caller must be `account`."
      },
      "revokeRole(bytes32,address)": {
        "details": "Revokes `role` from `account`. If `account` had been granted `role`, emits a {RoleRevoked} event. Requirements: - the caller must have ``role``'s admin role."
      },
      "supportsInterface(bytes4)": {
        "details": "See {IERC165-supportsInterface}."
      }
    },
    "version": 1
  },
  "userdoc": {
    "kind": "user",
    "methods": {},
    "version": 1
  },
  "storageLayout": {
    "storage": [
      {
        "astId": 408,
        "contract": "contracts/RunExecutor.sol:RunExecutor",
        "label": "_initialized",
        "offset": 0,
        "slot": "0",
        "type": "t_bool"
      },
      {
        "astId": 411,
        "contract": "contracts/RunExecutor.sol:RunExecutor",
        "label": "_initializing",
        "offset": 1,
        "slot": "0",
        "type": "t_bool"
      },
      {
        "astId": 2297,
        "contract": "contracts/RunExecutor.sol:RunExecutor",
        "label": "__gap",
        "offset": 0,
        "slot": "1",
        "type": "t_array(t_uint256)50_storage"
      },
      {
        "astId": 2544,
        "contract": "contracts/RunExecutor.sol:RunExecutor",
        "label": "__gap",
        "offset": 0,
        "slot": "51",
        "type": "t_array(t_uint256)50_storage"
      },
      {
        "astId": 39,
        "contract": "contracts/RunExecutor.sol:RunExecutor",
        "label": "_roles",
        "offset": 0,
        "slot": "101",
        "type": "t_mapping(t_bytes32,t_struct(RoleData)34_storage)"
      },
      {
        "astId": 327,
        "contract": "contracts/RunExecutor.sol:RunExecutor",
        "label": "__gap",
        "offset": 0,
        "slot": "102",
        "type": "t_array(t_uint256)49_storage"
      },
      {
        "astId": 3111,
        "contract": "contracts/RunExecutor.sol:RunExecutor",
        "label": "metarunCollection",
        "offset": 0,
        "slot": "151",
        "type": "t_contract(MetarunCollection)3084"
      }
    ],
    "types": {
      "t_address": {
        "encoding": "inplace",
        "label": "address",
        "numberOfBytes": "20"
      },
      "t_array(t_uint256)49_storage": {
        "base": "t_uint256",
        "encoding": "inplace",
        "label": "uint256[49]",
        "numberOfBytes": "1568"
      },
      "t_array(t_uint256)50_storage": {
        "base": "t_uint256",
        "encoding": "inplace",
        "label": "uint256[50]",
        "numberOfBytes": "1600"
      },
      "t_bool": {
        "encoding": "inplace",
        "label": "bool",
        "numberOfBytes": "1"
      },
      "t_bytes32": {
        "encoding": "inplace",
        "label": "bytes32",
        "numberOfBytes": "32"
      },
      "t_contract(MetarunCollection)3084": {
        "encoding": "inplace",
        "label": "contract MetarunCollection",
        "numberOfBytes": "20"
      },
      "t_mapping(t_address,t_bool)": {
        "encoding": "mapping",
        "key": "t_address",
        "label": "mapping(address => bool)",
        "numberOfBytes": "32",
        "value": "t_bool"
      },
      "t_mapping(t_bytes32,t_struct(RoleData)34_storage)": {
        "encoding": "mapping",
        "key": "t_bytes32",
        "label": "mapping(bytes32 => struct AccessControlUpgradeable.RoleData)",
        "numberOfBytes": "32",
        "value": "t_struct(RoleData)34_storage"
      },
      "t_struct(RoleData)34_storage": {
        "encoding": "inplace",
        "label": "struct AccessControlUpgradeable.RoleData",
        "members": [
          {
            "astId": 31,
            "contract": "contracts/RunExecutor.sol:RunExecutor",
            "label": "members",
            "offset": 0,
            "slot": "0",
            "type": "t_mapping(t_address,t_bool)"
          },
          {
            "astId": 33,
            "contract": "contracts/RunExecutor.sol:RunExecutor",
            "label": "adminRole",
            "offset": 0,
            "slot": "1",
            "type": "t_bytes32"
          }
        ],
        "numberOfBytes": "64"
      },
      "t_uint256": {
        "encoding": "inplace",
        "label": "uint256",
        "numberOfBytes": "32"
      }
    }
  }
}