{
  "contractName": "IDOCreator",
  "abi": [
    {
      "inputs": [
        {
          "internalType": "contract IidoMaster",
          "name": "_idoMaster",
          "type": "address"
        },
        {
          "internalType": "contract ITierSystem",
          "name": "_tierSystem",
          "type": "address"
        }
      ],
      "stateMutability": "nonpayable",
      "type": "constructor"
    },
    {
      "anonymous": false,
      "inputs": [
        {
          "indexed": true,
          "internalType": "address",
          "name": "previousOwner",
          "type": "address"
        },
        {
          "indexed": true,
          "internalType": "address",
          "name": "newOwner",
          "type": "address"
        }
      ],
      "name": "OwnershipTransferred",
      "type": "event"
    },
    {
      "inputs": [],
      "name": "idoMaster",
      "outputs": [
        {
          "internalType": "contract IidoMaster",
          "name": "",
          "type": "address"
        }
      ],
      "stateMutability": "view",
      "type": "function",
      "constant": true
    },
    {
      "inputs": [],
      "name": "owner",
      "outputs": [
        {
          "internalType": "address",
          "name": "",
          "type": "address"
        }
      ],
      "stateMutability": "view",
      "type": "function",
      "constant": true
    },
    {
      "inputs": [],
      "name": "renounceOwnership",
      "outputs": [],
      "stateMutability": "nonpayable",
      "type": "function"
    },
    {
      "inputs": [],
      "name": "tierSystem",
      "outputs": [
        {
          "internalType": "contract ITierSystem",
          "name": "",
          "type": "address"
        }
      ],
      "stateMutability": "view",
      "type": "function",
      "constant": true
    },
    {
      "inputs": [
        {
          "internalType": "address",
          "name": "newOwner",
          "type": "address"
        }
      ],
      "name": "transferOwnership",
      "outputs": [],
      "stateMutability": "nonpayable",
      "type": "function"
    },
    {
      "inputs": [
        {
          "internalType": "uint256",
          "name": "_tokenPrice",
          "type": "uint256"
        },
        {
          "internalType": "contract ERC20",
          "name": "_rewardToken",
          "type": "address"
        },
        {
          "internalType": "uint256",
          "name": "_startTimestamp",
          "type": "uint256"
        },
        {
          "internalType": "uint256",
          "name": "_finishTimestamp",
          "type": "uint256"
        },
        {
          "internalType": "uint256",
          "name": "_startClaimTimestamp",
          "type": "uint256"
        },
        {
          "internalType": "uint256",
          "name": "_minEthPayment",
          "type": "uint256"
        },
        {
          "internalType": "uint256",
          "name": "_maxEthPayment",
          "type": "uint256"
        },
        {
          "internalType": "uint256",
          "name": "_maxDistributedTokenAmount",
          "type": "uint256"
        },
        {
          "internalType": "bool",
          "name": "_hasWhitelisting",
          "type": "bool"
        },
        {
          "internalType": "bool",
          "name": "_enableTierSystem",
          "type": "bool"
        }
      ],
      "name": "createIDO",
      "outputs": [
        {
          "internalType": "address",
          "name": "",
          "type": "address"
        }
      ],
      "stateMutability": "nonpayable",
      "type": "function"
    },
    {
      "inputs": [
        {
          "internalType": "contract ITierSystem",
          "name": "_tierSystem",
          "type": "address"
        }
      ],
      "name": "setTierSystem",
      "outputs": [],
      "stateMutability": "nonpayable",
      "type": "function"
    },
    {
      "inputs": [],
      "name": "version",
      "outputs": [
        {
          "internalType": "uint256",
          "name": "",
          "type": "uint256"
        }
      ],
      "stateMutability": "pure",
      "type": "function",
      "constant": true
    }
  ],
  "bytecode": "0x608060405234801561001057600080fd5b50604051615d2d380380615d2d8339818101604052604081101561003357600080fd5b810190808051906020019092919080519060200190929190505050600061005e61018560201b60201c565b9050806000806101000a81548173ffffffffffffffffffffffffffffffffffffffff021916908373ffffffffffffffffffffffffffffffffffffffff1602179055508073ffffffffffffffffffffffffffffffffffffffff16600073ffffffffffffffffffffffffffffffffffffffff167f8be0079c531659141344cd1fd0a4f28419497f9722a3daafe3b4186f6b6457e060405160405180910390a35081600160006101000a81548173ffffffffffffffffffffffffffffffffffffffff021916908373ffffffffffffffffffffffffffffffffffffffff16021790555080600260006101000a81548173ffffffffffffffffffffffffffffffffffffffff021916908373ffffffffffffffffffffffffffffffffffffffff160217905550505061018d565b600033905090565b615b918061019c6000396000f3fe60806040523480156200001157600080fd5b5060043610620000945760003560e01c8063a4ad01661162000063578063a4ad016614620001cb578063bdb58e031462000212578063f2fde38b1462000248578063f8caa7e5146200028f5762000094565b80631b655af9146200009957806354fd4d501462000169578063715018a614620001895780638da5cb5b1462000195575b600080fd5b6200013d6004803603610140811015620000b257600080fd5b8101908080359060200190929190803573ffffffffffffffffffffffffffffffffffffffff169060200190929190803590602001909291908035906020019092919080359060200190929190803590602001909291908035906020019092919080359060200190929190803515159060200190929190803515159060200190929190505050620002c5565b604051808273ffffffffffffffffffffffffffffffffffffffff16815260200191505060405180910390f35b6200017362000e78565b6040518082815260200191505060405180910390f35b6200019362000e81565b005b6200019f62000ff3565b604051808273ffffffffffffffffffffffffffffffffffffffff16815260200191505060405180910390f35b6200021060048036036020811015620001e357600080fd5b81019080803573ffffffffffffffffffffffffffffffffffffffff1690602001909291905050506200101c565b005b6200021c62001114565b604051808273ffffffffffffffffffffffffffffffffffffffff16815260200191505060405180910390f35b6200028d600480360360208110156200026057600080fd5b81019080803573ffffffffffffffffffffffffffffffffffffffff1690602001909291905050506200113a565b005b6200029962001333565b604051808273ffffffffffffffffffffffffffffffffffffffff16815260200191505060405180910390f35b600080600160009054906101000a900473ffffffffffffffffffffffffffffffffffffffff1673ffffffffffffffffffffffffffffffffffffffff166369e154046040518163ffffffff1660e01b815260040160206040518083038186803b1580156200033157600080fd5b505afa15801562000346573d6000803e3d6000fd5b505050506040513d60208110156200035d57600080fd5b81019080805190602001909291905050501115620009b65760006200058f600160009054906101000a900473ffffffffffffffffffffffffffffffffffffffff1673ffffffffffffffffffffffffffffffffffffffff1663378efa376040518163ffffffff1660e01b815260040160206040518083038186803b158015620003e457600080fd5b505afa158015620003f9573d6000803e3d6000fd5b505050506040513d60208110156200041057600080fd5b810190808051906020019092919050505062000580600160009054906101000a900473ffffffffffffffffffffffffffffffffffffffff1673ffffffffffffffffffffffffffffffffffffffff166303807ee56040518163ffffffff1660e01b815260040160206040518083038186803b1580156200048e57600080fd5b505afa158015620004a3573d6000803e3d6000fd5b505050506040513d6020811015620004ba57600080fd5b8101908080519060200190929190505050600160009054906101000a900473ffffffffffffffffffffffffffffffffffffffff1673ffffffffffffffffffffffffffffffffffffffff166369e154046040518163ffffffff1660e01b815260040160206040518083038186803b1580156200053457600080fd5b505afa15801562000549573d6000803e3d6000fd5b505050506040513d60208110156200056057600080fd5b81019080805190602001909291905050506200135990919063ffffffff16565b620013e490919063ffffffff16565b9050620007c333600160009054906101000a900473ffffffffffffffffffffffffffffffffffffffff1673ffffffffffffffffffffffffffffffffffffffff1663f25f4b566040518163ffffffff1660e01b815260040160206040518083038186803b158015620005ff57600080fd5b505afa15801562000614573d6000803e3d6000fd5b505050506040513d60208110156200062b57600080fd5b8101908080519060200190929190505050620006f684600160009054906101000a900473ffffffffffffffffffffffffffffffffffffffff1673ffffffffffffffffffffffffffffffffffffffff166369e154046040518163ffffffff1660e01b815260040160206040518083038186803b158015620006aa57600080fd5b505afa158015620006bf573d6000803e3d6000fd5b505050506040513d6020811015620006d657600080fd5b81019080805190602001909291905050506200146f90919063ffffffff16565b600160009054906101000a900473ffffffffffffffffffffffffffffffffffffffff1673ffffffffffffffffffffffffffffffffffffffff1663647846a56040518163ffffffff1660e01b815260040160206040518083038186803b1580156200075f57600080fd5b505afa15801562000774573d6000803e3d6000fd5b505050506040513d60208110156200078b57600080fd5b810190808051906020019092919050505073ffffffffffffffffffffffffffffffffffffffff16620014f3909392919063ffffffff16565b6000811115620009b457620008a1333083600160009054906101000a900473ffffffffffffffffffffffffffffffffffffffff1673ffffffffffffffffffffffffffffffffffffffff1663647846a56040518163ffffffff1660e01b815260040160206040518083038186803b1580156200083d57600080fd5b505afa15801562000852573d6000803e3d6000fd5b505050506040513d60208110156200086957600080fd5b810190808051906020019092919050505073ffffffffffffffffffffffffffffffffffffffff16620014f3909392919063ffffffff16565b600160009054906101000a900473ffffffffffffffffffffffffffffffffffffffff1673ffffffffffffffffffffffffffffffffffffffff1663647846a56040518163ffffffff1660e01b815260040160206040518083038186803b1580156200090a57600080fd5b505afa1580156200091f573d6000803e3d6000fd5b505050506040513d60208110156200093657600080fd5b810190808051906020019092919050505073ffffffffffffffffffffffffffffffffffffffff166342966c68826040518263ffffffff1660e01b815260040180828152602001915050600060405180830381600087803b1580156200099a57600080fd5b505af1158015620009af573d6000803e3d6000fd5b505050505b505b6000600160009054906101000a900473ffffffffffffffffffffffffffffffffffffffff16600160009054906101000a900473ffffffffffffffffffffffffffffffffffffffff1673ffffffffffffffffffffffffffffffffffffffff1663c8d771af6040518163ffffffff1660e01b815260040160206040518083038186803b15801562000a4457600080fd5b505afa15801562000a59573d6000803e3d6000fd5b505050506040513d602081101562000a7057600080fd5b81019080805190602001909291905050508d8d8d8d8d8d8d8d8d8d600260009054906101000a900473ffffffffffffffffffffffffffffffffffffffff1660405162000abc9062001966565b808e73ffffffffffffffffffffffffffffffffffffffff1681526020018d81526020018c81526020018b73ffffffffffffffffffffffffffffffffffffffff1681526020018a8152602001898152602001888152602001878152602001868152602001858152602001841515815260200183151581526020018273ffffffffffffffffffffffffffffffffffffffff1681526020019d5050505050505050505050505050604051809103906000f08015801562000b7d573d6000803e3d6000fd5b5090508073ffffffffffffffffffffffffffffffffffffffff1663f2fde38b336040518263ffffffff1660e01b8152600401808273ffffffffffffffffffffffffffffffffffffffff168152602001915050600060405180830381600087803b15801562000bea57600080fd5b505af115801562000bff573d6000803e3d6000fd5b5050505062000c323382878e73ffffffffffffffffffffffffffffffffffffffff16620014f3909392919063ffffffff16565b848b73ffffffffffffffffffffffffffffffffffffffff166370a08231836040518263ffffffff1660e01b8152600401808273ffffffffffffffffffffffffffffffffffffffff16815260200191505060206040518083038186803b15801562000c9b57600080fd5b505afa15801562000cb0573d6000803e3d6000fd5b505050506040513d602081101562000cc757600080fd5b81019080805190602001909291905050501462000d4c576040517f08c379a00000000000000000000000000000000000000000000000000000000081526004018080602001828103825260118152602001807f556e737570706f7274656420746f6b656e00000000000000000000000000000081525060200191505060405180910390fd5b600160009054906101000a900473ffffffffffffffffffffffffffffffffffffffff1673ffffffffffffffffffffffffffffffffffffffff1663760ad28c828e60008f8f8f8f8f8f8f6040518b63ffffffff1660e01b8152600401808b73ffffffffffffffffffffffffffffffffffffffff1681526020018a81526020018973ffffffffffffffffffffffffffffffffffffffff1681526020018873ffffffffffffffffffffffffffffffffffffffff1681526020018781526020018681526020018581526020018481526020018381526020018281526020019a5050505050505050505050600060405180830381600087803b15801562000e4d57600080fd5b505af115801562000e62573d6000803e3d6000fd5b50505050809150509a9950505050505050505050565b60006065905090565b62000e8b620015b6565b73ffffffffffffffffffffffffffffffffffffffff1662000eab62000ff3565b73ffffffffffffffffffffffffffffffffffffffff161462000f35576040517f08c379a00000000000000000000000000000000000000000000000000000000081526004018080602001828103825260208152602001807f4f776e61626c653a2063616c6c6572206973206e6f7420746865206f776e657281525060200191505060405180910390fd5b600073ffffffffffffffffffffffffffffffffffffffff1660008054906101000a900473ffffffffffffffffffffffffffffffffffffffff1673ffffffffffffffffffffffffffffffffffffffff167f8be0079c531659141344cd1fd0a4f28419497f9722a3daafe3b4186f6b6457e060405160405180910390a360008060006101000a81548173ffffffffffffffffffffffffffffffffffffffff021916908373ffffffffffffffffffffffffffffffffffffffff160217905550565b60008060009054906101000a900473ffffffffffffffffffffffffffffffffffffffff16905090565b62001026620015b6565b73ffffffffffffffffffffffffffffffffffffffff166200104662000ff3565b73ffffffffffffffffffffffffffffffffffffffff1614620010d0576040517f08c379a00000000000000000000000000000000000000000000000000000000081526004018080602001828103825260208152602001807f4f776e61626c653a2063616c6c6572206973206e6f7420746865206f776e657281525060200191505060405180910390fd5b80600260006101000a81548173ffffffffffffffffffffffffffffffffffffffff021916908373ffffffffffffffffffffffffffffffffffffffff16021790555050565b600160009054906101000a900473ffffffffffffffffffffffffffffffffffffffff1681565b62001144620015b6565b73ffffffffffffffffffffffffffffffffffffffff166200116462000ff3565b73ffffffffffffffffffffffffffffffffffffffff1614620011ee576040517f08c379a00000000000000000000000000000000000000000000000000000000081526004018080602001828103825260208152602001807f4f776e61626c653a2063616c6c6572206973206e6f7420746865206f776e657281525060200191505060405180910390fd5b600073ffffffffffffffffffffffffffffffffffffffff168173ffffffffffffffffffffffffffffffffffffffff16141562001276576040517f08c379a000000000000000000000000000000000000000000000000000000000815260040180806020018281038252602681526020018062005ac56026913960400191505060405180910390fd5b8073ffffffffffffffffffffffffffffffffffffffff1660008054906101000a900473ffffffffffffffffffffffffffffffffffffffff1673ffffffffffffffffffffffffffffffffffffffff167f8be0079c531659141344cd1fd0a4f28419497f9722a3daafe3b4186f6b6457e060405160405180910390a3806000806101000a81548173ffffffffffffffffffffffffffffffffffffffff021916908373ffffffffffffffffffffffffffffffffffffffff16021790555050565b600260009054906101000a900473ffffffffffffffffffffffffffffffffffffffff1681565b6000808314156200136e5760009050620013de565b60008284029050828482816200138057fe5b0414620013d9576040517f08c379a000000000000000000000000000000000000000000000000000000000815260040180806020018281038252602181526020018062005b116021913960400191505060405180910390fd5b809150505b92915050565b60008082116200145c576040517f08c379a000000000000000000000000000000000000000000000000000000000815260040180806020018281038252601a8152602001807f536166654d6174683a206469766973696f6e206279207a65726f00000000000081525060200191505060405180910390fd5b8183816200146657fe5b04905092915050565b600082821115620014e8576040517f08c379a000000000000000000000000000000000000000000000000000000000815260040180806020018281038252601e8152602001807f536166654d6174683a207375627472616374696f6e206f766572666c6f77000081525060200191505060405180910390fd5b818303905092915050565b620015b0846323b872dd60e01b858585604051602401808473ffffffffffffffffffffffffffffffffffffffff1681526020018373ffffffffffffffffffffffffffffffffffffffff1681526020018281526020019350505050604051602081830303815290604052907bffffffffffffffffffffffffffffffffffffffffffffffffffffffff19166020820180517bffffffffffffffffffffffffffffffffffffffffffffffffffffffff8381831617835250505050620015be565b50505050565b600033905090565b606062001622826040518060400160405280602081526020017f5361666545524332303a206c6f772d6c6576656c2063616c6c206661696c65648152508573ffffffffffffffffffffffffffffffffffffffff16620016b39092919063ffffffff16565b9050600081511115620016ae578080602001905160208110156200164557600080fd5b8101908080519060200190929190505050620016ad576040517f08c379a000000000000000000000000000000000000000000000000000000000815260040180806020018281038252602a81526020018062005b32602a913960400191505060405180910390fd5b5b505050565b6060620016c48484600085620016cd565b90509392505050565b6060824710156200172a576040517f08c379a000000000000000000000000000000000000000000000000000000000815260040180806020018281038252602681526020018062005aeb6026913960400191505060405180910390fd5b620017358562001881565b620017a8576040517f08c379a000000000000000000000000000000000000000000000000000000000815260040180806020018281038252601d8152602001807f416464726573733a2063616c6c20746f206e6f6e2d636f6e747261637400000081525060200191505060405180910390fd5b600060608673ffffffffffffffffffffffffffffffffffffffff1685876040518082805190602001908083835b60208310620017fa5780518252602082019150602081019050602083039250620017d5565b6001836020036101000a03801982511681845116808217855250505050505090500191505060006040518083038185875af1925050503d80600081146200185e576040519150601f19603f3d011682016040523d82523d6000602084013e62001863565b606091505b50915091506200187582828662001894565b92505050949350505050565b600080823b905060008111915050919050565b60608315620018a6578290506200195f565b600083511115620018ba5782518084602001fd5b816040517f08c379a00000000000000000000000000000000000000000000000000000000081526004018080602001828103825283818151815260200191508051906020019080838360005b838110156200192357808201518184015260208101905062001906565b50505050905090810190601f168015620019515780820380516001836020036101000a031916815260200191505b509250505060405180910390fd5b9392505050565b61415080620019758339019056fe608060405260008060146101000a81548160ff0219169083151502179055506000600260006101000a81548160ff0219169083151502179055503480156200004657600080fd5b50604051620041503803806200415083398181016040526101a08110156200006d57600080fd5b8101908080519060200190929190805190602001909291908051906020019092919080519060200190929190805190602001909291908051906020019092919080519060200190929190805190602001909291908051906020019092919080519060200190929190805190602001909291908051906020019092919080519060200190929190505050826000620001096200048d60201b60201c565b9050806000806101000a81548173ffffffffffffffffffffffffffffffffffffffff021916908373ffffffffffffffffffffffffffffffffffffffff1602179055508073ffffffffffffffffffffffffffffffffffffffff16600073ffffffffffffffffffffffffffffffffffffffff167f8be0079c531659141344cd1fd0a4f28419497f9722a3daafe3b4186f6b6457e060405160405180910390a35080600260006101000a81548160ff0219169083151502179055505060016003819055508c601060006101000a81548173ffffffffffffffffffffffffffffffffffffffff021916908373ffffffffffffffffffffffffffffffffffffffff1602179055508b6011819055508a60048190555089600560006101000a81548173ffffffffffffffffffffffffffffffffffffffff021916908373ffffffffffffffffffffffffffffffffffffffff160217905550600560009054906101000a900473ffffffffffffffffffffffffffffffffffffffff1673ffffffffffffffffffffffffffffffffffffffff1663313ce5676040518163ffffffff1660e01b815260040160206040518083038186803b158015620002c357600080fd5b505afa158015620002d8573d6000803e3d6000fd5b505050506040513d6020811015620002ef57600080fd5b810190808051906020019092919050505060ff166006819055508789106200037f576040517f08c379a000000000000000000000000000000000000000000000000000000000815260040180806020018281038252601e8152602001807f5374617274206d757374206265206c657373207468616e2066696e697368000081525060200191505060405180910390fd5b428811620003f5576040517f08c379a000000000000000000000000000000000000000000000000000000000815260040180806020018281038252601c8152602001807f46696e697368206d757374206265206d6f7265207468616e206e6f770000000081525060200191505060405180910390fd5b88600781905550876008819055508660098190555085600a8190555084600b8190555083600c8190555081601260006101000a81548160ff02191690831515021790555080600f60006101000a81548173ffffffffffffffffffffffffffffffffffffffff021916908373ffffffffffffffffffffffffffffffffffffffff1602179055505050505050505050505050505062000495565b600033905090565b613cab80620004a56000396000f3fe6080604052600436106102725760003560e01c80635c975abb1161014f578063b8e50cab116100c1578063d1e5587e1161007a578063d1e5587e14610c7e578063e0ee43a214610ca9578063e6fd48bc14610cd4578063f2fde38b14610cff578063f7c618c114610d50578063f8caa7e514610d9157610272565b8063b8e50cab14610a9f578063bdb58e0314610aca578063c4c1c94f14610b0b578063c6a0e27d14610bd0578063c8d771af14610be7578063cc49ede714610c1257610272565b80637ff9b596116101135780637ff9b5961461089f5780638456cb59146108ca5780638da5cb5b146108e15780639b19251a14610922578063a4ad016614610989578063b38aab9d146109da57610272565b80635c975abb1461072e5780635e4ba17c1461075b5780636644cc2b146108205780636eaaabd51461084b578063715018a61461088857610272565b8063384711cc116101e85780634b1a4c0c116101ac5780634b1a4c0c1461062e5780634e71d92d14610659578063519a13191461067057806354fd4d50146106ad578063586360ce146106d85780635b857a1b1461070357610272565b8063384711cc146104f55780633aeb6c711461055a5780633af32abf146105855780633f4ba83a146105ec57806343d7d3211461060357610272565b80631959a0021161023a5780631959a002146103b25780631b9265b81461042557806324600fc31461042f578063254800d4146104465780632ce7183214610471578063313ce567146104ca57610272565b8063065aa5451461027757806307662345146102a45780631514617e146102d15780631726cbc8146102fc5780631916558714610361575b600080fd5b34801561028357600080fd5b5061028c610dd2565b60405180821515815260200191505060405180910390f35b3480156102b057600080fd5b506102b9610de5565b60405180821515815260200191505060405180910390f35b3480156102dd57600080fd5b506102e6610df8565b6040518082815260200191505060405180910390f35b34801561030857600080fd5b5061034b6004803603602081101561031f57600080fd5b81019080803573ffffffffffffffffffffffffffffffffffffffff169060200190929190505050610dfe565b6040518082815260200191505060405180910390f35b34801561036d57600080fd5b506103b06004803603602081101561038457600080fd5b81019080803573ffffffffffffffffffffffffffffffffffffffff169060200190929190505050610e64565b005b3480156103be57600080fd5b50610401600480360360208110156103d557600080fd5b81019080803573ffffffffffffffffffffffffffffffffffffffff16906020019092919050505061107a565b60405180848152602001838152602001828152602001935050505060405180910390f35b61042d6110a4565b005b34801561043b57600080fd5b506104446116ef565b005b34801561045257600080fd5b5061045b611a06565b6040518082815260200191505060405180910390f35b34801561047d57600080fd5b506104c86004803603608081101561049457600080fd5b8101908080359060200190929190803590602001909291908035906020019092919080359060200190929190505050611a0c565b005b3480156104d657600080fd5b506104df611cfb565b6040518082815260200191505060405180910390f35b34801561050157600080fd5b506105446004803603602081101561051857600080fd5b81019080803573ffffffffffffffffffffffffffffffffffffffff169060200190929190505050611d01565b6040518082815260200191505060405180910390f35b34801561056657600080fd5b5061056f611e44565b6040518082815260200191505060405180910390f35b34801561059157600080fd5b506105d4600480360360208110156105a857600080fd5b81019080803573ffffffffffffffffffffffffffffffffffffffff169060200190929190505050611e4a565b60405180821515815260200191505060405180910390f35b3480156105f857600080fd5b50610601611ea0565b005b34801561060f57600080fd5b50610618612019565b6040518082815260200191505060405180910390f35b34801561063a57600080fd5b5061064361201f565b6040518082815260200191505060405180910390f35b34801561066557600080fd5b5061066e612025565b005b34801561067c57600080fd5b506106ab6004803603602081101561069357600080fd5b810190808035151590602001909291905050506120b3565b005b3480156106b957600080fd5b506106c26121c7565b6040518082815260200191505060405180910390f35b3480156106e457600080fd5b506106ed6121d0565b6040518082815260200191505060405180910390f35b34801561070f57600080fd5b506107186121d6565b6040518082815260200191505060405180910390f35b34801561073a57600080fd5b506107436121dc565b60405180821515815260200191505060405180910390f35b34801561076757600080fd5b5061081e6004803603602081101561077e57600080fd5b810190808035906020019064010000000081111561079b57600080fd5b8201836020820111156107ad57600080fd5b803590602001918460208302840111640100000000831117156107cf57600080fd5b919080806020026020016040519081016040528093929190818152602001838360200280828437600081840152601f19601f8201169050808301925050505050505091929192905050506121ef565b005b34801561082c57600080fd5b506108356123cc565b6040518082815260200191505060405180910390f35b34801561085757600080fd5b506108866004803603602081101561086e57600080fd5b810190808035151590602001909291905050506123d2565b005b34801561089457600080fd5b5061089d6124e6565b005b3480156108ab57600080fd5b506108b4612653565b6040518082815260200191505060405180910390f35b3480156108d657600080fd5b506108df612659565b005b3480156108ed57600080fd5b506108f66127d4565b604051808273ffffffffffffffffffffffffffffffffffffffff16815260200191505060405180910390f35b34801561092e57600080fd5b506109716004803603602081101561094557600080fd5b81019080803573ffffffffffffffffffffffffffffffffffffffff1690602001909291905050506127fd565b60405180821515815260200191505060405180910390f35b34801561099557600080fd5b506109d8600480360360208110156109ac57600080fd5b81019080803573ffffffffffffffffffffffffffffffffffffffff16906020019092919050505061281d565b005b3480156109e657600080fd5b50610a9d600480360360208110156109fd57600080fd5b8101908080359060200190640100000000811115610a1a57600080fd5b820183602082011115610a2c57600080fd5b80359060200191846020830284011164010000000083111715610a4e57600080fd5b919080806020026020016040519081016040528093929190818152602001838360200280828437600081840152601f19601f820116905080830192505050505050509192919290505050612910565b005b348015610aab57600080fd5b50610ab46129cc565b6040518082815260200191505060405180910390f35b348015610ad657600080fd5b50610adf6129d2565b604051808273ffffffffffffffffffffffffffffffffffffffff16815260200191505060405180910390f35b348015610b1757600080fd5b50610bce60048036036020811015610b2e57600080fd5b8101908080359060200190640100000000811115610b4b57600080fd5b820183602082011115610b5d57600080fd5b80359060200191846020830284011164010000000083111715610b7f57600080fd5b919080806020026020016040519081016040528093929190818152602001838360200280828437600081840152601f19601f8201169050808301925050505050505091929192905050506129f8565b005b348015610bdc57600080fd5b50610be5612b8e565b005b348015610bf357600080fd5b50610bfc612eb4565b6040518082815260200191505060405180910390f35b348015610c1e57600080fd5b50610c6160048036036020811015610c3557600080fd5b81019080803573ffffffffffffffffffffffffffffffffffffffff169060200190929190505050612eba565b604051808381526020018281526020019250505060405180910390f35b348015610c8a57600080fd5b50610c93612f39565b6040518082815260200191505060405180910390f35b348015610cb557600080fd5b50610cbe612f3f565b6040518082815260200191505060405180910390f35b348015610ce057600080fd5b50610ce9612f45565b6040518082815260200191505060405180910390f35b348015610d0b57600080fd5b50610d4e60048036036020811015610d2257600080fd5b81019080803573ffffffffffffffffffffffffffffffffffffffff169060200190929190505050612f4b565b005b348015610d5c57600080fd5b50610d6561313d565b604051808273ffffffffffffffffffffffffffffffffffffffff16815260200191505060405180910390f35b348015610d9d57600080fd5b50610da6613163565b604051808273ffffffffffffffffffffffffffffffffffffffff16815260200191505060405180910390f35b601260009054906101000a900460ff1681565b600260009054906101000a900460ff1681565b60175481565b6000610e5d601860008473ffffffffffffffffffffffffffffffffffffffff1673ffffffffffffffffffffffffffffffffffffffff16815260200190815260200160002060010154610e4f84611d01565b61318990919063ffffffff16565b9050919050565b60026003541415610edd576040517f08c379a000000000000000000000000000000000000000000000000000000000815260040180806020018281038252601f8152602001807f5265656e7472616e637947756172643a207265656e7472616e742063616c6c0081525060200191505060405180910390fd5b60026003819055506000610ef082610dfe565b905060008111610f68576040517f08c379a00000000000000000000000000000000000000000000000000000000081526004018080602001828103825260128152602001807f4e6f7468696e6720746f2072656c65617365000000000000000000000000000081525060200191505060405180910390fd5b6000601860008473ffffffffffffffffffffffffffffffffffffffff1673ffffffffffffffffffffffffffffffffffffffff1681526020019081526020016000209050610fc282826001015461320c90919063ffffffff16565b8160010181905550610fe182826000015461318990919063ffffffff16565b81600001819055506110368383600560009054906101000a900473ffffffffffffffffffffffffffffffffffffffff1673ffffffffffffffffffffffffffffffffffffffff166132949092919063ffffffff16565b7f87281fabebb3053dede10cd89db97c95421a1fb9385cd5d0bb6cf8db8dd11ae7826040518082815260200191505060405180910390a15050600160038190555050565b60136020528060005260406000206000915090508060000154908060010154908060020154905083565b6002600354141561111d576040517f08c379a000000000000000000000000000000000000000000000000000000000815260040180806020018281038252601f8152602001807f5265656e7472616e637947756172643a207265656e7472616e742063616c6c0081525060200191505060405180910390fd5b6002600381905550600260009054906101000a900460ff161561114d5761114333611e4a565b61114c57600080fd5b5b600060149054906101000a900460ff16156111d0576040517f08c379a00000000000000000000000000000000000000000000000000000000081526004018080602001828103825260128152602001807f48617320746f20626520756e706175736564000000000000000000000000000081525060200191505060405180910390fd5b600a54341015611248576040517f08c379a00000000000000000000000000000000000000000000000000000000081526004018080602001828103825260148152602001807f4c657373207468656e206d696e20616d6f756e7400000000000000000000000081525060200191505060405180910390fd5b6007544210156112c0576040517f08c379a000000000000000000000000000000000000000000000000000000000815260040180806020018281038252600b8152602001807f4e6f74207374617274656400000000000000000000000000000000000000000081525060200191505060405180910390fd5b6008544210611337576040517f08c379a00000000000000000000000000000000000000000000000000000000081526004018080602001828103825260058152602001807f456e64656400000000000000000000000000000000000000000000000000000081525060200191505060405180910390fd5b600061134234613336565b9050600c5461135c82600d5461320c90919063ffffffff16565b11156113d0576040517f08c379a000000000000000000000000000000000000000000000000000000000815260040180806020018281038252600a8152602001807f4f76657266696c6c65640000000000000000000000000000000000000000000081525060200191505060405180910390fd5b6000601360003373ffffffffffffffffffffffffffffffffffffffff1673ffffffffffffffffffffffffffffffffffffffff1681526020019081526020016000209050601260009054906101000a900460ff161561158657600f60009054906101000a900473ffffffffffffffffffffffffffffffffffffffff1673ffffffffffffffffffffffffffffffffffffffff166390d8260f33600b546040518363ffffffff1660e01b8152600401808373ffffffffffffffffffffffffffffffffffffffff1681526020018281526020019250505060206040518083038186803b1580156114bb57600080fd5b505afa1580156114cf573d6000803e3d6000fd5b505050506040513d60208110156114e557600080fd5b810190808051906020019092919050505061150d34836002015461320c90919063ffffffff16565b1115611581576040517f08c379a00000000000000000000000000000000000000000000000000000000081526004018080602001828103825260148152602001807f4d6f7265207468656e206d617820616d6f756e7400000000000000000000000081525060200191505060405180910390fd5b611615565b600b546115a034836002015461320c90919063ffffffff16565b1115611614576040517f08c379a00000000000000000000000000000000000000000000000000000000081526004018080602001828103825260148152602001807f4d6f7265207468656e206d617820616d6f756e7400000000000000000000000081525060200191505060405180910390fd5b5b61162a82600d5461320c90919063ffffffff16565b600d8190555061164734826002015461320c90919063ffffffff16565b816002018190555061166682826001015461320c90919063ffffffff16565b816001018190555061168582826000015461320c90919063ffffffff16565b81600001819055503373ffffffffffffffffffffffffffffffffffffffff167fb55d4ca2fc644ca3f8cdc9c907826e24acd68d2b2d4d73f48b8f2378dbaedf5d3484604051808381526020018281526020019250505060405180910390a250506001600381905550565b6116f761336b565b73ffffffffffffffffffffffffffffffffffffffff166117156127d4565b73ffffffffffffffffffffffffffffffffffffffff161461179e576040517f08c379a00000000000000000000000000000000000000000000000000000000081526004018080602001828103825260208152602001807f4f776e61626c653a2063616c6c6572206973206e6f7420746865206f776e657281525060200191505060405180910390fd5b60026003541415611817576040517f08c379a000000000000000000000000000000000000000000000000000000000815260040180806020018281038252601f8152602001807f5265656e7472616e637947756172643a207265656e7472616e742063616c6c0081525060200191505060405180910390fd5b60026003819055506000601154111561197857600061185460646118466011544761337390919063ffffffff16565b6133f990919063ffffffff16565b9050601060009054906101000a900473ffffffffffffffffffffffffffffffffffffffff1673ffffffffffffffffffffffffffffffffffffffff1663f25f4b566040518163ffffffff1660e01b815260040160206040518083038186803b1580156118be57600080fd5b505afa1580156118d2573d6000803e3d6000fd5b505050506040513d60208110156118e857600080fd5b810190808051906020019092919050505073ffffffffffffffffffffffffffffffffffffffff166108fc829081150290604051600060405180830381858888f1935050505015801561193e573d6000803e3d6000fd5b507ff907e46c2c93b7a34a4dbaff501b7c2931c081cec48af83b6c04effcbdbe012c816040518082815260200191505060405180910390a1505b60004790503373ffffffffffffffffffffffffffffffffffffffff166108fc829081150290604051600060405180830381858888f193505050501580156119c3573d6000803e3d6000fd5b507f4a37b25aab49761ecf63117fe82b98d750917451133cf797507bc9fb5b96044a816040518082815260200191505060405180910390a1506001600381905550565b60155481565b611a1461336b565b73ffffffffffffffffffffffffffffffffffffffff16611a326127d4565b73ffffffffffffffffffffffffffffffffffffffff1614611abb576040517f08c379a00000000000000000000000000000000000000000000000000000000081526004018080602001828103825260208152602001807f4f776e61626c653a2063616c6c6572206973206e6f7420746865206f776e657281525060200191505060405180910390fd5b6007544210611b32576040517f08c379a000000000000000000000000000000000000000000000000000000000815260040180806020018281038252600f8152602001807f416c72656164792073746172746564000000000000000000000000000000000081525060200191505060405180910390fd5b6064841115611ba9576040517f08c379a000000000000000000000000000000000000000000000000000000000815260040180806020018281038252601e8152602001807f56657374696e672070657263656e74206d757374206265203c3d20313030000081525060200191505060405180910390fd5b6000841115611c825760008211611c28576040517f08c379a000000000000000000000000000000000000000000000000000000000815260040180806020018281038252601f8152602001807f696e74657276616c206d7573742062652067726561746572207468616e20300081525060200191505060405180910390fd5b81811015611c81576040517f08c379a0000000000000000000000000000000000000000000000000000000008152600401808060200182810382526027815260200180613c046027913960400191505060405180910390fd5b5b836014819055508260158190555081601681905550806017819055507fe5a61c66c681285927bfe4081737907047293e1a7bae913f41dc7960de5efc996014546015546016546017546040518085815260200184815260200183815260200182815260200194505050505060405180910390a150505050565b60065481565b6000601554421015611d165760009050611e3f565b611d1e613b9d565b601860008473ffffffffffffffffffffffffffffffffffffffff1673ffffffffffffffffffffffffffffffffffffffff1681526020019081526020016000206040518060400160405290816000820154815260200160018201548152505090506000816000015190506000611da083602001518361320c90919063ffffffff16565b9050611db960175460155461320c90919063ffffffff16565b4210611dca57809350505050611e3f565b6000611df5601654611de76015544261318990919063ffffffff16565b6133f990919063ffffffff16565b90506000611e106016546017546133f990919063ffffffff16565b9050611e3781611e29848661337390919063ffffffff16565b6133f990919063ffffffff16565b955050505050505b919050565b60145481565b6000600160008373ffffffffffffffffffffffffffffffffffffffff1673ffffffffffffffffffffffffffffffffffffffff16815260200190815260200160002060009054906101000a900460ff169050919050565b611ea861336b565b73ffffffffffffffffffffffffffffffffffffffff16611ec66127d4565b73ffffffffffffffffffffffffffffffffffffffff1614611f4f576040517f08c379a00000000000000000000000000000000000000000000000000000000081526004018080602001828103825260208152602001807f4f776e61626c653a2063616c6c6572206973206e6f7420746865206f776e657281525060200191505060405180910390fd5b600060149054906101000a900460ff16611fd1576040517f08c379a00000000000000000000000000000000000000000000000000000000081526004018080602001828103825260108152602001807f48617320746f206265207061757365640000000000000000000000000000000081525060200191505060405180910390fd5b60008060146101000a81548160ff0219169083151502179055507f7805862f689e2f13df9f062ff482ad3ad112aca9e0847911ed832e158c525b3360405160405180910390a1565b60085481565b600d5481565b600060149054906101000a900460ff16156120a8576040517f08c379a00000000000000000000000000000000000000000000000000000000081526004018080602001828103825260128152602001807f48617320746f20626520756e706175736564000000000000000000000000000081525060200191505060405180910390fd5b6120b133613482565b565b6120bb61336b565b73ffffffffffffffffffffffffffffffffffffffff166120d96127d4565b73ffffffffffffffffffffffffffffffffffffffff1614612162576040517f08c379a00000000000000000000000000000000000000000000000000000000081526004018080602001828103825260208152602001807f4f776e61626c653a2063616c6c6572206973206e6f7420746865206f776e657281525060200191505060405180910390fd5b80601260006101000a81548160ff0219169083151502179055507f5b3d36c746703d7a5e70e83f8d648f2f4363d2f954492ec5cf7c29f2ce61323d601260009054906101000a900460ff1660405180821515815260200191505060405180910390a150565b60006065905090565b600e5481565b600b5481565b600060149054906101000a900460ff1681565b6121f761336b565b73ffffffffffffffffffffffffffffffffffffffff166122156127d4565b73ffffffffffffffffffffffffffffffffffffffff161461229e576040517f08c379a00000000000000000000000000000000000000000000000000000000081526004018080602001828103825260208152602001807f4f776e61626c653a2063616c6c6572206973206e6f7420746865206f776e657281525060200191505060405180910390fd5b60005b81518110156123c85760008282815181106122b857fe5b60200260200101519050600160008273ffffffffffffffffffffffffffffffffffffffff1673ffffffffffffffffffffffffffffffffffffffff16815260200190815260200160002060009054906101000a900460ff16156123ba576000600160008373ffffffffffffffffffffffffffffffffffffffff1673ffffffffffffffffffffffffffffffffffffffff16815260200190815260200160002060006101000a81548160ff0219169083151502179055507fcdd2e9b91a56913d370075169cefa1602ba36be5301664f752192bb1709df75781604051808273ffffffffffffffffffffffffffffffffffffffff16815260200191505060405180910390a15b5080806001019150506122a1565b5050565b600a5481565b6123da61336b565b73ffffffffffffffffffffffffffffffffffffffff166123f86127d4565b73ffffffffffffffffffffffffffffffffffffffff1614612481576040517f08c379a00000000000000000000000000000000000000000000000000000000081526004018080602001828103825260208152602001807f4f776e61626c653a2063616c6c6572206973206e6f7420746865206f776e657281525060200191505060405180910390fd5b80600260006101000a81548160ff0219169083151502179055507f81a1b67ab393231a9f3a2ce8c84cc6c46c76cc94cf733e155af6fb539873fa39600260009054906101000a900460ff1660405180821515815260200191505060405180910390a150565b6124ee61336b565b73ffffffffffffffffffffffffffffffffffffffff1661250c6127d4565b73ffffffffffffffffffffffffffffffffffffffff1614612595576040517f08c379a00000000000000000000000000000000000000000000000000000000081526004018080602001828103825260208152602001807f4f776e61626c653a2063616c6c6572206973206e6f7420746865206f776e657281525060200191505060405180910390fd5b600073ffffffffffffffffffffffffffffffffffffffff1660008054906101000a900473ffffffffffffffffffffffffffffffffffffffff1673ffffffffffffffffffffffffffffffffffffffff167f8be0079c531659141344cd1fd0a4f28419497f9722a3daafe3b4186f6b6457e060405160405180910390a360008060006101000a81548173ffffffffffffffffffffffffffffffffffffffff021916908373ffffffffffffffffffffffffffffffffffffffff160217905550565b60045481565b61266161336b565b73ffffffffffffffffffffffffffffffffffffffff1661267f6127d4565b73ffffffffffffffffffffffffffffffffffffffff1614612708576040517f08c379a00000000000000000000000000000000000000000000000000000000081526004018080602001828103825260208152602001807f4f776e61626c653a2063616c6c6572206973206e6f7420746865206f776e657281525060200191505060405180910390fd5b600060149054906101000a900460ff161561278b576040517f08c379a00000000000000000000000000000000000000000000000000000000081526004018080602001828103825260128152602001807f48617320746f20626520756e706175736564000000000000000000000000000081525060200191505060405180910390fd5b6001600060146101000a81548160ff0219169083151502179055507f6985a02210a168e66602d3235cb6db0e70f92b3ba4d376a33c0f3d9434bff62560405160405180910390a1565b60008060009054906101000a900473ffffffffffffffffffffffffffffffffffffffff16905090565b60016020528060005260406000206000915054906101000a900460ff1681565b61282561336b565b73ffffffffffffffffffffffffffffffffffffffff166128436127d4565b73ffffffffffffffffffffffffffffffffffffffff16146128cc576040517f08c379a00000000000000000000000000000000000000000000000000000000081526004018080602001828103825260208152602001807f4f776e61626c653a2063616c6c6572206973206e6f7420746865206f776e657281525060200191505060405180910390fd5b80600f60006101000a81548173ffffffffffffffffffffffffffffffffffffffff021916908373ffffffffffffffffffffffffffffffffffffffff16021790555050565b600060149054906101000a900460ff1615612993576040517f08c379a00000000000000000000000000000000000000000000000000000000081526004018080602001828103825260128152602001807f48617320746f20626520756e706175736564000000000000000000000000000081525060200191505060405180910390fd5b60005b81518110156129c8576129bb8282815181106129ae57fe5b6020026020010151613482565b8080600101915050612996565b5050565b60165481565b601060009054906101000a900473ffffffffffffffffffffffffffffffffffffffff1681565b612a0061336b565b73ffffffffffffffffffffffffffffffffffffffff16612a1e6127d4565b73ffffffffffffffffffffffffffffffffffffffff1614612aa7576040517f08c379a00000000000000000000000000000000000000000000000000000000081526004018080602001828103825260208152602001807f4f776e61626c653a2063616c6c6572206973206e6f7420746865206f776e657281525060200191505060405180910390fd5b60005b8151811015612b8a576001806000848481518110612ac457fe5b602002602001015173ffffffffffffffffffffffffffffffffffffffff1673ffffffffffffffffffffffffffffffffffffffff16815260200190815260200160002060006101000a81548160ff0219169083151502179055507fa850ae9193f515cbae8d35e8925bd2be26627fc91bce650b8652ed254e9cab03828281518110612b4a57fe5b6020026020010151604051808273ffffffffffffffffffffffffffffffffffffffff16815260200191505060405180910390a18080600101915050612aaa565b5050565b612b9661336b565b73ffffffffffffffffffffffffffffffffffffffff16612bb46127d4565b73ffffffffffffffffffffffffffffffffffffffff1614612c3d576040517f08c379a00000000000000000000000000000000000000000000000000000000081526004018080602001828103825260208152602001807f4f776e61626c653a2063616c6c6572206973206e6f7420746865206f776e657281525060200191505060405180910390fd5b60026003541415612cb6576040517f08c379a000000000000000000000000000000000000000000000000000000000815260040180806020018281038252601f8152602001807f5265656e7472616e637947756172643a207265656e7472616e742063616c6c0081525060200191505060405180910390fd5b60026003819055506008544211612d35576040517f08c379a00000000000000000000000000000000000000000000000000000000081526004018080602001828103825260178152602001807f416c6c6f772061667465722066696e6973682074696d6500000000000000000081525060200191505060405180910390fd5b6000612e23600d54612e15600e54600560009054906101000a900473ffffffffffffffffffffffffffffffffffffffff1673ffffffffffffffffffffffffffffffffffffffff166370a08231306040518263ffffffff1660e01b8152600401808273ffffffffffffffffffffffffffffffffffffffff16815260200191505060206040518083038186803b158015612dcc57600080fd5b505afa158015612de0573d6000803e3d6000fd5b505050506040513d6020811015612df657600080fd5b810190808051906020019092919050505061320c90919063ffffffff16565b61318990919063ffffffff16565b9050612e723382600560009054906101000a900473ffffffffffffffffffffffffffffffffffffffff1673ffffffffffffffffffffffffffffffffffffffff166132949092919063ffffffff16565b7fbce7c33bc3bf1bb5e55b3b1db71bb682916756e28abd95200251299059cf0fed816040518082815260200191505060405180910390a1506001600381905550565b60115481565b600080612ec5613b9d565b601860008573ffffffffffffffffffffffffffffffffffffffff1673ffffffffffffffffffffffffffffffffffffffff168152602001908152602001600020604051806040016040529081600082015481526020016001820154815250509050806000015181602001519250925050915091565b60095481565b600c5481565b60075481565b612f5361336b565b73ffffffffffffffffffffffffffffffffffffffff16612f716127d4565b73ffffffffffffffffffffffffffffffffffffffff1614612ffa576040517f08c379a00000000000000000000000000000000000000000000000000000000081526004018080602001828103825260208152602001807f4f776e61626c653a2063616c6c6572206973206e6f7420746865206f776e657281525060200191505060405180910390fd5b600073ffffffffffffffffffffffffffffffffffffffff168173ffffffffffffffffffffffffffffffffffffffff161415613080576040517f08c379a0000000000000000000000000000000000000000000000000000000008152600401808060200182810382526026815260200180613bb86026913960400191505060405180910390fd5b8073ffffffffffffffffffffffffffffffffffffffff1660008054906101000a900473ffffffffffffffffffffffffffffffffffffffff1673ffffffffffffffffffffffffffffffffffffffff167f8be0079c531659141344cd1fd0a4f28419497f9722a3daafe3b4186f6b6457e060405160405180910390a3806000806101000a81548173ffffffffffffffffffffffffffffffffffffffff021916908373ffffffffffffffffffffffffffffffffffffffff16021790555050565b600560009054906101000a900473ffffffffffffffffffffffffffffffffffffffff1681565b600f60009054906101000a900473ffffffffffffffffffffffffffffffffffffffff1681565b600082821115613201576040517f08c379a000000000000000000000000000000000000000000000000000000000815260040180806020018281038252601e8152602001807f536166654d6174683a207375627472616374696f6e206f766572666c6f77000081525060200191505060405180910390fd5b818303905092915050565b60008082840190508381101561328a576040517f08c379a000000000000000000000000000000000000000000000000000000000815260040180806020018281038252601b8152602001807f536166654d6174683a206164646974696f6e206f766572666c6f77000000000081525060200191505060405180910390fd5b8091505092915050565b6133318363a9059cbb60e01b8484604051602401808373ffffffffffffffffffffffffffffffffffffffff16815260200182815260200192505050604051602081830303815290604052907bffffffffffffffffffffffffffffffffffffffffffffffffffffffff19166020820180517bffffffffffffffffffffffffffffffffffffffffffffffffffffffff83818316178352505050506136f5565b505050565b6000613364600454613356600654600a0a8561337390919063ffffffff16565b6133f990919063ffffffff16565b9050919050565b600033905090565b60008083141561338657600090506133f3565b600082840290508284828161339757fe5b04146133ee576040517f08c379a0000000000000000000000000000000000000000000000000000000008152600401808060200182810382526021815260200180613c2b6021913960400191505060405180910390fd5b809150505b92915050565b6000808211613470576040517f08c379a000000000000000000000000000000000000000000000000000000000815260040180806020018281038252601a8152602001807f536166654d6174683a206469766973696f6e206279207a65726f00000000000081525060200191505060405180910390fd5b81838161347957fe5b04905092915050565b600260035414156134fb576040517f08c379a000000000000000000000000000000000000000000000000000000000815260040180806020018281038252601f8152602001807f5265656e7472616e637947756172643a207265656e7472616e742063616c6c0081525060200191505060405180910390fd5b6002600381905550600954421161357a576040517f08c379a00000000000000000000000000000000000000000000000000000000081526004018080602001828103825260188152602001807f446973747269627574696f6e206e6f742073746172746564000000000000000081525060200191505060405180910390fd5b6000601360008373ffffffffffffffffffffffffffffffffffffffff1673ffffffffffffffffffffffffffffffffffffffff168152602001908152602001600020905060008160000154905060008111156136e857600082600001819055506135ee81600e5461320c90919063ffffffff16565b600e819055506000601454111561364c576000613629606461361b6014548561337390919063ffffffff16565b6133f990919063ffffffff16565b905061363584826137e4565b613648818361318990919063ffffffff16565b9150505b6136998382600560009054906101000a900473ffffffffffffffffffffffffffffffffffffffff1673ffffffffffffffffffffffffffffffffffffffff166132949092919063ffffffff16565b8273ffffffffffffffffffffffffffffffffffffffff167f6352c5382c4a4578e712449ca65e83cdb392d045dfcf1cad9615189db2da244b826040518082815260200191505060405180910390a25b5050600160038190555050565b6060613757826040518060400160405280602081526020017f5361666545524332303a206c6f772d6c6576656c2063616c6c206661696c65648152508573ffffffffffffffffffffffffffffffffffffffff166138fd9092919063ffffffff16565b90506000815111156137df5780806020019051602081101561377857600080fd5b81019080805190602001909291905050506137de576040517f08c379a000000000000000000000000000000000000000000000000000000000815260040180806020018281038252602a815260200180613c4c602a913960400191505060405180910390fd5b5b505050565b6000601860008473ffffffffffffffffffffffffffffffffffffffff1673ffffffffffffffffffffffffffffffffffffffff168152602001908152602001600020905060008160000154146138a1576040517f08c379a00000000000000000000000000000000000000000000000000000000081526004018080602001828103825260178152602001807f56657374696e6720616c7265616479206372656174656400000000000000000081525060200191505060405180910390fd5b8181600001819055508273ffffffffffffffffffffffffffffffffffffffff167f2f5488c5b0350655053f3d00e1693b26a49ecd0242b2c0df881ccda054490d30836040518082815260200191505060405180910390a2505050565b606061390c8484600085613915565b90509392505050565b606082471015613970576040517f08c379a0000000000000000000000000000000000000000000000000000000008152600401808060200182810382526026815260200180613bde6026913960400191505060405180910390fd5b61397985613abe565b6139eb576040517f08c379a000000000000000000000000000000000000000000000000000000000815260040180806020018281038252601d8152602001807f416464726573733a2063616c6c20746f206e6f6e2d636f6e747261637400000081525060200191505060405180910390fd5b600060608673ffffffffffffffffffffffffffffffffffffffff1685876040518082805190602001908083835b60208310613a3b5780518252602082019150602081019050602083039250613a18565b6001836020036101000a03801982511681845116808217855250505050505090500191505060006040518083038185875af1925050503d8060008114613a9d576040519150601f19603f3d011682016040523d82523d6000602084013e613aa2565b606091505b5091509150613ab2828286613ad1565b92505050949350505050565b600080823b905060008111915050919050565b60608315613ae157829050613b96565b600083511115613af45782518084602001fd5b816040517f08c379a00000000000000000000000000000000000000000000000000000000081526004018080602001828103825283818151815260200191508051906020019080838360005b83811015613b5b578082015181840152602081019050613b40565b50505050905090810190601f168015613b885780820380516001836020036101000a031916815260200191505b509250505060405180910390fd5b9392505050565b60405180604001604052806000815260200160008152509056fe4f776e61626c653a206e6577206f776e657220697320746865207a65726f2061646472657373416464726573733a20696e73756666696369656e742062616c616e636520666f722063616c6c696e74657276616c2063616e6e6f7420626520626967676572207468616e206475726174696f6e536166654d6174683a206d756c7469706c69636174696f6e206f766572666c6f775361666545524332303a204552433230206f7065726174696f6e20646964206e6f742073756363656564a26469706673582212200b8792c2fa76b78658814c8e61d7f148323ca955901d2d7d907fd9b25759041a64736f6c634300060c00334f776e61626c653a206e6577206f776e657220697320746865207a65726f2061646472657373416464726573733a20696e73756666696369656e742062616c616e636520666f722063616c6c536166654d6174683a206d756c7469706c69636174696f6e206f766572666c6f775361666545524332303a204552433230206f7065726174696f6e20646964206e6f742073756363656564a2646970667358221220fb0b0a8baf31ca06c0107845188d697dba7e81c4b9d512f63eb41d67b8f0a7ea64736f6c634300060c0033",
  "immutableReferences": {},
  "source": "pragma solidity 0.6.12;\n\nimport \"@openzeppelin/contracts/access/Ownable.sol\";\nimport \"@openzeppelin/contracts/math/SafeMath.sol\";\nimport \"@openzeppelin/contracts/token/ERC20/SafeERC20.sol\";\nimport \"@openzeppelin/contracts/token/ERC20/ERC20Burnable.sol\";\nimport \"./IDOPool.sol\";\nimport \"./interfaces/IidoMaster.sol\";\n\ncontract IDOCreator is Ownable {\n    using SafeMath for uint256;\n    using SafeERC20 for ERC20Burnable;\n    using SafeERC20 for ERC20;\n\n    IidoMaster  public  idoMaster;\n    ITierSystem  public  tierSystem;\n    \n    constructor(\n        IidoMaster _idoMaster,\n        ITierSystem _tierSystem\n    ) public {\n        idoMaster = _idoMaster;\n        tierSystem = _tierSystem;\n    }\n\n    function createIDO(\n        uint256 _tokenPrice,\n        ERC20 _rewardToken,\n        uint256 _startTimestamp,\n        uint256 _finishTimestamp,\n        uint256 _startClaimTimestamp,\n        uint256 _minEthPayment,\n        uint256 _maxEthPayment,\n        uint256 _maxDistributedTokenAmount,\n        bool _hasWhitelisting,\n        bool _enableTierSystem\n    ) external returns (address){\n        \n        if(idoMaster.feeAmount() > 0){\n            uint256 burnAmount = idoMaster.feeAmount().mul(idoMaster.burnPercent()).div(idoMaster.divider());\n            idoMaster.feeToken().safeTransferFrom(\n                msg.sender,\n                idoMaster.feeWallet(),\n                idoMaster.feeAmount().sub(burnAmount)\n            );\n           \n            if(burnAmount > 0) {\n                idoMaster.feeToken().safeTransferFrom(msg.sender, address(this), burnAmount);\n                idoMaster.feeToken().burn(burnAmount);\n            }\n        }\n\n        IDOPool idoPool =\n            new IDOPool(\n                idoMaster,\n                idoMaster.feeFundsPercent(),\n                _tokenPrice,\n                _rewardToken,\n                _startTimestamp,\n                _finishTimestamp,\n                _startClaimTimestamp,\n                _minEthPayment,\n                _maxEthPayment,\n                _maxDistributedTokenAmount,\n                _hasWhitelisting,\n                _enableTierSystem,\n                tierSystem\n            );\n\n        idoPool.transferOwnership(msg.sender);\n\n        _rewardToken.safeTransferFrom(\n            msg.sender,\n            address(idoPool),\n            _maxDistributedTokenAmount\n        );\n\n        require(_rewardToken.balanceOf(address(idoPool)) == _maxDistributedTokenAmount,  \"Unsupported token\");\n\n        idoMaster.registrateIDO(address(idoPool),   \n                                _tokenPrice,\n                                address(0),\n                                address(_rewardToken),\n                                _startTimestamp,\n                                _finishTimestamp,\n                                _startClaimTimestamp,\n                                _minEthPayment,\n                                _maxEthPayment,\n                                _maxDistributedTokenAmount);\n\n         return address(idoPool);\n    }\n\n    function isContract(address _addr) private view returns (bool) {\n        uint32 size;\n        assembly {\n            size := extcodesize(_addr)\n        }\n        return (size > 0);\n    }\n\n    function setTierSystem(ITierSystem _tierSystem) external onlyOwner {\n        tierSystem = _tierSystem;\n    }\n\n    // ============ Version Control ============\n    function version() external pure returns (uint256) {\n        return 101; // 1.0.1\n    }\n}",
  "sourcePath": "/Users/kirill/Prog/TosDis/tosdis/contracts/StakeMaster/contracts/IDOCreator.sol",
  "compiler": {
    "name": "solc",
    "version": "0.6.12+commit.27d51765.Emscripten.clang"
  },
  "schemaVersion": "3.4.5",
  "updatedAt": "2022-02-19T12:18:14.086Z",
  "networkType": "ethereum",
  "devdoc": {
    "kind": "dev",
    "methods": {
      "owner()": {
        "details": "Returns the address of the current owner."
      },
      "renounceOwnership()": {
        "details": "Leaves the contract without owner. It will not be possible to call `onlyOwner` functions anymore. Can only be called by the current owner. NOTE: Renouncing ownership will leave the contract without an owner, thereby removing any functionality that is only available to the owner."
      },
      "transferOwnership(address)": {
        "details": "Transfers ownership of the contract to a new account (`newOwner`). Can only be called by the current owner."
      }
    },
    "version": 1
  },
  "userdoc": {
    "kind": "user",
    "methods": {},
    "version": 1
  }
}