{
  "contractName": "IDOMaster",
  "abi": [
    {
      "inputs": [
        {
          "internalType": "contract ERC20Burnable",
          "name": "_feeToken",
          "type": "address"
        },
        {
          "internalType": "address payable",
          "name": "_feeWallet",
          "type": "address"
        },
        {
          "internalType": "uint256",
          "name": "_feeAmount",
          "type": "uint256"
        },
        {
          "internalType": "uint256",
          "name": "_burnPercent",
          "type": "uint256"
        }
      ],
      "stateMutability": "nonpayable",
      "type": "constructor"
    },
    {
      "anonymous": false,
      "inputs": [
        {
          "indexed": false,
          "internalType": "uint256",
          "name": "newBurnPercent",
          "type": "uint256"
        },
        {
          "indexed": false,
          "internalType": "uint256",
          "name": "divider",
          "type": "uint256"
        }
      ],
      "name": "BurnPercentUpdated",
      "type": "event"
    },
    {
      "anonymous": false,
      "inputs": [
        {
          "indexed": false,
          "internalType": "address",
          "name": "idoCreator",
          "type": "address"
        }
      ],
      "name": "CreatorUpdated",
      "type": "event"
    },
    {
      "anonymous": false,
      "inputs": [
        {
          "indexed": false,
          "internalType": "uint256",
          "name": "newFeeAmount",
          "type": "uint256"
        }
      ],
      "name": "FeeAmountUpdated",
      "type": "event"
    },
    {
      "anonymous": false,
      "inputs": [
        {
          "indexed": false,
          "internalType": "address",
          "name": "newFeeWallet",
          "type": "address"
        }
      ],
      "name": "FeeWalletUpdated",
      "type": "event"
    },
    {
      "anonymous": false,
      "inputs": [
        {
          "indexed": false,
          "internalType": "address",
          "name": "idoPool",
          "type": "address"
        },
        {
          "indexed": false,
          "internalType": "uint256",
          "name": "tokenPrice",
          "type": "uint256"
        },
        {
          "indexed": false,
          "internalType": "address",
          "name": "payableToken",
          "type": "address"
        },
        {
          "indexed": false,
          "internalType": "address",
          "name": "rewardToken",
          "type": "address"
        },
        {
          "indexed": false,
          "internalType": "uint256",
          "name": "startTimestamp",
          "type": "uint256"
        },
        {
          "indexed": false,
          "internalType": "uint256",
          "name": "finishTimestamp",
          "type": "uint256"
        },
        {
          "indexed": false,
          "internalType": "uint256",
          "name": "startClaimTimestamp",
          "type": "uint256"
        },
        {
          "indexed": false,
          "internalType": "uint256",
          "name": "minEthPayment",
          "type": "uint256"
        },
        {
          "indexed": false,
          "internalType": "uint256",
          "name": "maxEthPayment",
          "type": "uint256"
        },
        {
          "indexed": false,
          "internalType": "uint256",
          "name": "maxDistributedTokenAmount",
          "type": "uint256"
        }
      ],
      "name": "IDOCreated",
      "type": "event"
    },
    {
      "anonymous": false,
      "inputs": [
        {
          "indexed": true,
          "internalType": "address",
          "name": "previousOwner",
          "type": "address"
        },
        {
          "indexed": true,
          "internalType": "address",
          "name": "newOwner",
          "type": "address"
        }
      ],
      "name": "OwnershipTransferred",
      "type": "event"
    },
    {
      "anonymous": false,
      "inputs": [
        {
          "indexed": false,
          "internalType": "address",
          "name": "newFeeToken",
          "type": "address"
        }
      ],
      "name": "TokenFeeUpdated",
      "type": "event"
    },
    {
      "inputs": [],
      "name": "burnPercent",
      "outputs": [
        {
          "internalType": "uint256",
          "name": "",
          "type": "uint256"
        }
      ],
      "stateMutability": "view",
      "type": "function",
      "constant": true
    },
    {
      "inputs": [],
      "name": "creatorProxy",
      "outputs": [
        {
          "internalType": "address",
          "name": "",
          "type": "address"
        }
      ],
      "stateMutability": "view",
      "type": "function",
      "constant": true
    },
    {
      "inputs": [],
      "name": "divider",
      "outputs": [
        {
          "internalType": "uint256",
          "name": "",
          "type": "uint256"
        }
      ],
      "stateMutability": "view",
      "type": "function",
      "constant": true
    },
    {
      "inputs": [],
      "name": "feeAmount",
      "outputs": [
        {
          "internalType": "uint256",
          "name": "",
          "type": "uint256"
        }
      ],
      "stateMutability": "view",
      "type": "function",
      "constant": true
    },
    {
      "inputs": [],
      "name": "feeFundsPercent",
      "outputs": [
        {
          "internalType": "uint256",
          "name": "",
          "type": "uint256"
        }
      ],
      "stateMutability": "view",
      "type": "function",
      "constant": true
    },
    {
      "inputs": [],
      "name": "feeToken",
      "outputs": [
        {
          "internalType": "contract ERC20Burnable",
          "name": "",
          "type": "address"
        }
      ],
      "stateMutability": "view",
      "type": "function",
      "constant": true
    },
    {
      "inputs": [],
      "name": "feeWallet",
      "outputs": [
        {
          "internalType": "address payable",
          "name": "",
          "type": "address"
        }
      ],
      "stateMutability": "view",
      "type": "function",
      "constant": true
    },
    {
      "inputs": [
        {
          "internalType": "address",
          "name": "",
          "type": "address"
        }
      ],
      "name": "idoInfo",
      "outputs": [
        {
          "internalType": "uint256",
          "name": "tokenPrice",
          "type": "uint256"
        },
        {
          "internalType": "address",
          "name": "payableToken",
          "type": "address"
        },
        {
          "internalType": "address",
          "name": "payToken",
          "type": "address"
        },
        {
          "internalType": "address",
          "name": "rewardToken",
          "type": "address"
        },
        {
          "internalType": "uint256",
          "name": "startTimestamp",
          "type": "uint256"
        },
        {
          "internalType": "uint256",
          "name": "finishTimestamp",
          "type": "uint256"
        },
        {
          "internalType": "uint256",
          "name": "startClaimTimestamp",
          "type": "uint256"
        },
        {
          "internalType": "uint256",
          "name": "minEthPayment",
          "type": "uint256"
        },
        {
          "internalType": "uint256",
          "name": "maxEthPayment",
          "type": "uint256"
        },
        {
          "internalType": "uint256",
          "name": "maxDistributedTokenAmount",
          "type": "uint256"
        }
      ],
      "stateMutability": "view",
      "type": "function",
      "constant": true
    },
    {
      "inputs": [],
      "name": "owner",
      "outputs": [
        {
          "internalType": "address",
          "name": "",
          "type": "address"
        }
      ],
      "stateMutability": "view",
      "type": "function",
      "constant": true
    },
    {
      "inputs": [],
      "name": "renounceOwnership",
      "outputs": [],
      "stateMutability": "nonpayable",
      "type": "function"
    },
    {
      "inputs": [
        {
          "internalType": "address",
          "name": "newOwner",
          "type": "address"
        }
      ],
      "name": "transferOwnership",
      "outputs": [],
      "stateMutability": "nonpayable",
      "type": "function"
    },
    {
      "inputs": [
        {
          "internalType": "address",
          "name": "_newFeeToken",
          "type": "address"
        }
      ],
      "name": "setFeeToken",
      "outputs": [],
      "stateMutability": "nonpayable",
      "type": "function"
    },
    {
      "inputs": [
        {
          "internalType": "uint256",
          "name": "_newFeeAmount",
          "type": "uint256"
        }
      ],
      "name": "setFeeAmount",
      "outputs": [],
      "stateMutability": "nonpayable",
      "type": "function"
    },
    {
      "inputs": [
        {
          "internalType": "address payable",
          "name": "_newFeeWallet",
          "type": "address"
        }
      ],
      "name": "setFeeWallet",
      "outputs": [],
      "stateMutability": "nonpayable",
      "type": "function"
    },
    {
      "inputs": [
        {
          "internalType": "uint256",
          "name": "_newBurnPercent",
          "type": "uint256"
        },
        {
          "internalType": "uint256",
          "name": "_newDivider",
          "type": "uint256"
        }
      ],
      "name": "setBurnPercent",
      "outputs": [],
      "stateMutability": "nonpayable",
      "type": "function"
    },
    {
      "inputs": [
        {
          "internalType": "uint256",
          "name": "_feeFundsPercent",
          "type": "uint256"
        }
      ],
      "name": "setFeeFundsPercent",
      "outputs": [],
      "stateMutability": "nonpayable",
      "type": "function"
    },
    {
      "inputs": [
        {
          "internalType": "address",
          "name": "_creator",
          "type": "address"
        }
      ],
      "name": "setCreatorProxy",
      "outputs": [],
      "stateMutability": "nonpayable",
      "type": "function"
    },
    {
      "inputs": [
        {
          "internalType": "address",
          "name": "_poolAddress",
          "type": "address"
        },
        {
          "internalType": "uint256",
          "name": "_tokenPrice",
          "type": "uint256"
        },
        {
          "internalType": "address",
          "name": "_payableToken",
          "type": "address"
        },
        {
          "internalType": "address",
          "name": "_rewardToken",
          "type": "address"
        },
        {
          "internalType": "uint256",
          "name": "_startTimestamp",
          "type": "uint256"
        },
        {
          "internalType": "uint256",
          "name": "_finishTimestamp",
          "type": "uint256"
        },
        {
          "internalType": "uint256",
          "name": "_startClaimTimestamp",
          "type": "uint256"
        },
        {
          "internalType": "uint256",
          "name": "_minEthPayment",
          "type": "uint256"
        },
        {
          "internalType": "uint256",
          "name": "_maxEthPayment",
          "type": "uint256"
        },
        {
          "internalType": "uint256",
          "name": "_maxDistributedTokenAmount",
          "type": "uint256"
        }
      ],
      "name": "registrateIDO",
      "outputs": [],
      "stateMutability": "nonpayable",
      "type": "function"
    },
    {
      "inputs": [],
      "name": "version",
      "outputs": [
        {
          "internalType": "uint256",
          "name": "",
          "type": "uint256"
        }
      ],
      "stateMutability": "pure",
      "type": "function",
      "constant": true
    }
  ],
  "bytecode": "0x6080604052600060075534801561001557600080fd5b506040516118cf3803806118cf8339818101604052608081101561003857600080fd5b810190808051906020019092919080519060200190929190805190602001909291908051906020019092919050505060006100776101b660201b60201c565b9050806000806101000a81548173ffffffffffffffffffffffffffffffffffffffff021916908373ffffffffffffffffffffffffffffffffffffffff1602179055508073ffffffffffffffffffffffffffffffffffffffff16600073ffffffffffffffffffffffffffffffffffffffff167f8be0079c531659141344cd1fd0a4f28419497f9722a3daafe3b4186f6b6457e060405160405180910390a35083600160006101000a81548173ffffffffffffffffffffffffffffffffffffffff021916908373ffffffffffffffffffffffffffffffffffffffff1602179055508160048190555082600260006101000a81548173ffffffffffffffffffffffffffffffffffffffff021916908373ffffffffffffffffffffffffffffffffffffffff160217905550806005819055506064600681905550505050506101be565b600033905090565b611702806101cd6000396000f3fe608060405234801561001057600080fd5b50600436106101215760003560e01c80636b392680116100ad57806390d49b9d1161007157806390d49b9d1461042b578063c8d771af1461046f578063c9991da01461048d578063f25f4b5614610566578063f2fde38b1461059a57610121565b80636b392680146102bc578063715018a6146102ea578063760ad28c146102f45780638da5cb5b146103bf5780638dc12991146103f357610121565b80633c23a7db116100f45780633c23a7db146101da5780634f6efa6d1461021e57806354fd4d501461024c578063647846a51461026a57806369e154041461029e57610121565b806303807ee51461012657806315cce22414610144578063378efa371461018857806338c2f5c6146101a6575b600080fd5b61012e6105de565b6040518082815260200191505060405180910390f35b6101866004803603602081101561015a57600080fd5b81019080803573ffffffffffffffffffffffffffffffffffffffff1690602001909291905050506105e4565b005b6101906107b8565b6040518082815260200191505060405180910390f35b6101ae6107be565b604051808273ffffffffffffffffffffffffffffffffffffffff16815260200191505060405180910390f35b61021c600480360360208110156101f057600080fd5b81019080803573ffffffffffffffffffffffffffffffffffffffff1690602001909291905050506107e4565b005b61024a6004803603602081101561023457600080fd5b81019080803590602001909291905050506109da565b005b610254610b23565b6040518082815260200191505060405180910390f35b610272610b2c565b604051808273ffffffffffffffffffffffffffffffffffffffff16815260200191505060405180910390f35b6102a6610b52565b6040518082815260200191505060405180910390f35b6102e8600480360360208110156102d257600080fd5b8101908080359060200190929190505050610b58565b005b6102f2610c61565b005b6103bd600480360361014081101561030b57600080fd5b81019080803573ffffffffffffffffffffffffffffffffffffffff16906020019092919080359060200190929190803573ffffffffffffffffffffffffffffffffffffffff169060200190929190803573ffffffffffffffffffffffffffffffffffffffff169060200190929190803590602001909291908035906020019092919080359060200190929190803590602001909291908035906020019092919080359060200190929190505050610de7565b005b6103c7611080565b604051808273ffffffffffffffffffffffffffffffffffffffff16815260200191505060405180910390f35b6104296004803603604081101561040957600080fd5b8101908080359060200190929190803590602001909291905050506110a9565b005b61046d6004803603602081101561044157600080fd5b81019080803573ffffffffffffffffffffffffffffffffffffffff16906020019092919050505061121b565b005b610477611374565b6040518082815260200191505060405180910390f35b6104cf600480360360208110156104a357600080fd5b81019080803573ffffffffffffffffffffffffffffffffffffffff16906020019092919050505061137a565b604051808b81526020018a73ffffffffffffffffffffffffffffffffffffffff1681526020018973ffffffffffffffffffffffffffffffffffffffff1681526020018873ffffffffffffffffffffffffffffffffffffffff1681526020018781526020018681526020018581526020018481526020018381526020018281526020019a505050505050505050505060405180910390f35b61056e61142e565b604051808273ffffffffffffffffffffffffffffffffffffffff16815260200191505060405180910390f35b6105dc600480360360208110156105b057600080fd5b81019080803573ffffffffffffffffffffffffffffffffffffffff169060200190929190505050611454565b005b60055481565b6105ec61165f565b73ffffffffffffffffffffffffffffffffffffffff1660008054906101000a900473ffffffffffffffffffffffffffffffffffffffff1673ffffffffffffffffffffffffffffffffffffffff16146106ac576040517f08c379a00000000000000000000000000000000000000000000000000000000081526004018080602001828103825260208152602001807f4f776e61626c653a2063616c6c6572206973206e6f7420746865206f776e657281525060200191505060405180910390fd5b6106b581611667565b610727576040517f08c379a000000000000000000000000000000000000000000000000000000000815260040180806020018281038252601a8152602001807f4e65772061646472657373206973206e6f74206120746f6b656e00000000000081525060200191505060405180910390fd5b80600160006101000a81548173ffffffffffffffffffffffffffffffffffffffff021916908373ffffffffffffffffffffffffffffffffffffffff1602179055507f9e892f555b0a5cac6c8cc33c82ebb9308207bd16dfdca9d0289b96d7e4186c8a81604051808273ffffffffffffffffffffffffffffffffffffffff16815260200191505060405180910390a150565b60065481565b600360009054906101000a900473ffffffffffffffffffffffffffffffffffffffff1681565b6107ec61165f565b73ffffffffffffffffffffffffffffffffffffffff1660008054906101000a900473ffffffffffffffffffffffffffffffffffffffff1673ffffffffffffffffffffffffffffffffffffffff16146108ac576040517f08c379a00000000000000000000000000000000000000000000000000000000081526004018080602001828103825260208152602001807f4f776e61626c653a2063616c6c6572206973206e6f7420746865206f776e657281525060200191505060405180910390fd5b6108b581611667565b610927576040517f08c379a000000000000000000000000000000000000000000000000000000000815260040180806020018281038252600d8152602001807f4572726f7220616464726573730000000000000000000000000000000000000081525060200191505060405180910390fd5b80600360006101000a81548173ffffffffffffffffffffffffffffffffffffffff021916908373ffffffffffffffffffffffffffffffffffffffff1602179055507f40ce16136d64bc46500073cc9655e1b0b622a8a3023a5b4a35ea71b2dc4a24b3600360009054906101000a900473ffffffffffffffffffffffffffffffffffffffff16604051808273ffffffffffffffffffffffffffffffffffffffff16815260200191505060405180910390a150565b6109e261165f565b73ffffffffffffffffffffffffffffffffffffffff1660008054906101000a900473ffffffffffffffffffffffffffffffffffffffff1673ffffffffffffffffffffffffffffffffffffffff1614610aa2576040517f08c379a00000000000000000000000000000000000000000000000000000000081526004018080602001828103825260208152602001807f4f776e61626c653a2063616c6c6572206973206e6f7420746865206f776e657281525060200191505060405180910390fd5b6063811115610b19576040517f08c379a000000000000000000000000000000000000000000000000000000000815260040180806020018281038252601e8152602001807f4665652050657263656e746167652068617320746f206265203c20313030000081525060200191505060405180910390fd5b8060078190555050565b60006065905090565b600160009054906101000a900473ffffffffffffffffffffffffffffffffffffffff1681565b60045481565b610b6061165f565b73ffffffffffffffffffffffffffffffffffffffff1660008054906101000a900473ffffffffffffffffffffffffffffffffffffffff1673ffffffffffffffffffffffffffffffffffffffff1614610c20576040517f08c379a00000000000000000000000000000000000000000000000000000000081526004018080602001828103825260208152602001807f4f776e61626c653a2063616c6c6572206973206e6f7420746865206f776e657281525060200191505060405180910390fd5b806004819055507fbb128cd9921d003aff00ed910fe24b1655b2bf1f4a2090cc3523f61bdc172316816040518082815260200191505060405180910390a150565b610c6961165f565b73ffffffffffffffffffffffffffffffffffffffff1660008054906101000a900473ffffffffffffffffffffffffffffffffffffffff1673ffffffffffffffffffffffffffffffffffffffff1614610d29576040517f08c379a00000000000000000000000000000000000000000000000000000000081526004018080602001828103825260208152602001807f4f776e61626c653a2063616c6c6572206973206e6f7420746865206f776e657281525060200191505060405180910390fd5b600073ffffffffffffffffffffffffffffffffffffffff1660008054906101000a900473ffffffffffffffffffffffffffffffffffffffff1673ffffffffffffffffffffffffffffffffffffffff167f8be0079c531659141344cd1fd0a4f28419497f9722a3daafe3b4186f6b6457e060405160405180910390a360008060006101000a81548173ffffffffffffffffffffffffffffffffffffffff021916908373ffffffffffffffffffffffffffffffffffffffff160217905550565b600360009054906101000a900473ffffffffffffffffffffffffffffffffffffffff1673ffffffffffffffffffffffffffffffffffffffff163373ffffffffffffffffffffffffffffffffffffffff1614610eaa576040517f08c379a00000000000000000000000000000000000000000000000000000000081526004018080602001828103825260178152602001807f7265676973747261746549444f3a2062616420726f6c6500000000000000000081525060200191505060405180910390fd5b6000600860008c73ffffffffffffffffffffffffffffffffffffffff1673ffffffffffffffffffffffffffffffffffffffff1681526020019081526020016000209050898160000181905550888160010160006101000a81548173ffffffffffffffffffffffffffffffffffffffff021916908373ffffffffffffffffffffffffffffffffffffffff160217905550878160030160006101000a81548173ffffffffffffffffffffffffffffffffffffffff021916908373ffffffffffffffffffffffffffffffffffffffff1602179055508681600401819055508581600501819055508481600601819055508381600701819055508281600801819055508181600901819055507fe9e7e0cb5e8252ec5c06ed6ebd6935b69c39a77bf5042ee458980341c4bddf518b8b8b8b8b8b8b8b8b8b604051808b73ffffffffffffffffffffffffffffffffffffffff1681526020018a81526020018973ffffffffffffffffffffffffffffffffffffffff1681526020018873ffffffffffffffffffffffffffffffffffffffff1681526020018781526020018681526020018581526020018481526020018381526020018281526020019a505050505050505050505060405180910390a15050505050505050505050565b60008060009054906101000a900473ffffffffffffffffffffffffffffffffffffffff16905090565b6110b161165f565b73ffffffffffffffffffffffffffffffffffffffff1660008054906101000a900473ffffffffffffffffffffffffffffffffffffffff1673ffffffffffffffffffffffffffffffffffffffff1614611171576040517f08c379a00000000000000000000000000000000000000000000000000000000081526004018080602001828103825260208152602001807f4f776e61626c653a2063616c6c6572206973206e6f7420746865206f776e657281525060200191505060405180910390fd5b808211156111ca576040517f08c379a00000000000000000000000000000000000000000000000000000000081526004018080602001828103825260268152602001806116a76026913960400191505060405180910390fd5b81600581905550806006819055507fb62d69c6ddf4f4bd443dca17ea7405d8018efb872e82e77bb8ef13b5be2f2e9c8282604051808381526020018281526020019250505060405180910390a15050565b61122361165f565b73ffffffffffffffffffffffffffffffffffffffff1660008054906101000a900473ffffffffffffffffffffffffffffffffffffffff1673ffffffffffffffffffffffffffffffffffffffff16146112e3576040517f08c379a00000000000000000000000000000000000000000000000000000000081526004018080602001828103825260208152602001807f4f776e61626c653a2063616c6c6572206973206e6f7420746865206f776e657281525060200191505060405180910390fd5b80600260006101000a81548173ffffffffffffffffffffffffffffffffffffffff021916908373ffffffffffffffffffffffffffffffffffffffff1602179055507f29acee77dafcfa0143d74a7ea236018f3a6e1fa71e27fc59bbfbc6b8ca8edccd81604051808273ffffffffffffffffffffffffffffffffffffffff16815260200191505060405180910390a150565b60075481565b60086020528060005260406000206000915090508060000154908060010160009054906101000a900473ffffffffffffffffffffffffffffffffffffffff16908060020160009054906101000a900473ffffffffffffffffffffffffffffffffffffffff16908060030160009054906101000a900473ffffffffffffffffffffffffffffffffffffffff1690806004015490806005015490806006015490806007015490806008015490806009015490508a565b600260009054906101000a900473ffffffffffffffffffffffffffffffffffffffff1681565b61145c61165f565b73ffffffffffffffffffffffffffffffffffffffff1660008054906101000a900473ffffffffffffffffffffffffffffffffffffffff1673ffffffffffffffffffffffffffffffffffffffff161461151c576040517f08c379a00000000000000000000000000000000000000000000000000000000081526004018080602001828103825260208152602001807f4f776e61626c653a2063616c6c6572206973206e6f7420746865206f776e657281525060200191505060405180910390fd5b600073ffffffffffffffffffffffffffffffffffffffff168173ffffffffffffffffffffffffffffffffffffffff1614156115a2576040517f08c379a00000000000000000000000000000000000000000000000000000000081526004018080602001828103825260268152602001806116816026913960400191505060405180910390fd5b8073ffffffffffffffffffffffffffffffffffffffff1660008054906101000a900473ffffffffffffffffffffffffffffffffffffffff1673ffffffffffffffffffffffffffffffffffffffff167f8be0079c531659141344cd1fd0a4f28419497f9722a3daafe3b4186f6b6457e060405160405180910390a3806000806101000a81548173ffffffffffffffffffffffffffffffffffffffff021916908373ffffffffffffffffffffffffffffffffffffffff16021790555050565b600033905090565b600080823b905060008163ffffffff161191505091905056fe4f776e61626c653a206e6577206f776e657220697320746865207a65726f20616464726573734275726e2070657263656e74206d757374206265206c657373207468616e2064697669646572a2646970667358221220d4fc04a0edae472eeacd4a936524d828e4fb303d79136667901574cebc1dd0fd64736f6c634300060c0033",
  "immutableReferences": {},
  "source": "pragma solidity 0.6.12;\n\nimport \"@openzeppelin/contracts/access/Ownable.sol\";\nimport \"@openzeppelin/contracts/math/SafeMath.sol\";\nimport \"@openzeppelin/contracts/token/ERC20/SafeERC20.sol\";\nimport \"@openzeppelin/contracts/token/ERC20/ERC20Burnable.sol\";\nimport \"./interfaces/IidoMaster.sol\";\n\ncontract IDOMaster is IidoMaster, Ownable{\n    using SafeMath for uint256;\n    using SafeERC20 for ERC20Burnable;\n    using SafeERC20 for ERC20;\n\n    ERC20Burnable public override feeToken;\n    address payable public override feeWallet;\n    address public creatorProxy;\n    uint256 public override feeAmount;\n    uint256 public override burnPercent;\n    uint256 public override divider;\n\n    uint256 public override feeFundsPercent = 0; /* Default Fee 0% */\n\n    mapping(address => IDOInfo) public idoInfo;\n\n    struct IDOInfo {\n        uint256 tokenPrice;\n        address payableToken;\n        address payToken;\n        address rewardToken;\n        uint256 startTimestamp;\n        uint256 finishTimestamp;\n        uint256 startClaimTimestamp;\n        uint256 minEthPayment;\n        uint256 maxEthPayment;\n        uint256 maxDistributedTokenAmount;\n    }\n\n\n    event IDOCreated(address idoPool, \n        uint256 tokenPrice, \n        address payableToken,\n        address rewardToken,\n        uint256 startTimestamp,\n        uint256 finishTimestamp,\n        uint256 startClaimTimestamp,\n        uint256 minEthPayment,\n        uint256 maxEthPayment,\n        uint256 maxDistributedTokenAmount);\n\n    event CreatorUpdated(address idoCreator);\n    event TokenFeeUpdated(address newFeeToken);\n    event FeeAmountUpdated(uint256 newFeeAmount);\n    event BurnPercentUpdated(uint256 newBurnPercent, uint256 divider);\n    event FeeWalletUpdated(address newFeeWallet);\n\n    constructor(\n        ERC20Burnable _feeToken,\n        address payable _feeWallet,\n        uint256 _feeAmount,\n        uint256 _burnPercent\n    ) public {\n        feeToken = _feeToken;\n        feeAmount = _feeAmount;\n        feeWallet = _feeWallet;\n        burnPercent = _burnPercent;\n        divider = 100;\n    }\n\n    function setFeeToken(address _newFeeToken) external onlyOwner {\n        require(isContract(_newFeeToken), \"New address is not a token\");\n        feeToken = ERC20Burnable(_newFeeToken);\n\n        emit TokenFeeUpdated(_newFeeToken);\n    }\n\n    function setFeeAmount(uint256 _newFeeAmount) external onlyOwner {\n        feeAmount = _newFeeAmount;\n\n        emit FeeAmountUpdated(_newFeeAmount);\n    }\n\n    function setFeeWallet(address payable _newFeeWallet) external onlyOwner {\n        feeWallet = _newFeeWallet;\n\n        emit FeeWalletUpdated(_newFeeWallet);\n    }\n\n    function setBurnPercent(uint256 _newBurnPercent, uint256 _newDivider)\n        external\n        onlyOwner\n    {\n        require(_newBurnPercent <= _newDivider, \"Burn percent must be less than divider\");\n        burnPercent = _newBurnPercent;\n        divider = _newDivider;\n\n        emit BurnPercentUpdated(_newBurnPercent, _newDivider);\n    }\n\n\n    function setFeeFundsPercent(uint256 _feeFundsPercent)\n        external\n        onlyOwner\n    {\n        // require(_feeFundsPercent >= feePercentage, \"Fee Percentage has to be >= 1\");\n        require(_feeFundsPercent <= 99, \"Fee Percentage has to be < 100\");\n        feeFundsPercent = _feeFundsPercent;\n    }\n\n    function setCreatorProxy(address _creator) external onlyOwner {\n        require(isContract(_creator), \"Error address\");\n        creatorProxy = _creator;\n        emit CreatorUpdated(creatorProxy);\n    }\n\n    function registrateIDO(\n        address _poolAddress,\n        uint256 _tokenPrice,\n        address _payableToken,\n        address _rewardToken,\n        uint256 _startTimestamp,\n        uint256 _finishTimestamp,\n        uint256 _startClaimTimestamp,\n        uint256 _minEthPayment,\n        uint256 _maxEthPayment,\n        uint256 _maxDistributedTokenAmount\n    ) external override {\n\n    require(msg.sender ==  creatorProxy, \"registrateIDO: bad role\");\n\n    IDOInfo storage info = idoInfo[_poolAddress];\n    info.tokenPrice = _tokenPrice;\n    info.payableToken = _payableToken;\n    info.rewardToken = _rewardToken;\n    info.startTimestamp = _startTimestamp;\n    info.finishTimestamp = _finishTimestamp;\n    info.startClaimTimestamp = _startClaimTimestamp;\n    info.minEthPayment = _minEthPayment;\n    info.maxEthPayment = _maxEthPayment;\n    info.maxDistributedTokenAmount = _maxDistributedTokenAmount;\n\n    emit IDOCreated(_poolAddress,\n            _tokenPrice,\n            _payableToken,\n            _rewardToken,\n            _startTimestamp,\n            _finishTimestamp,\n            _startClaimTimestamp,\n            _minEthPayment,\n            _maxEthPayment,\n            _maxDistributedTokenAmount);\n    }\n\n    function isContract(address _addr) private view returns (bool) {\n        uint32 size;\n        assembly {\n            size := extcodesize(_addr)\n        }\n        return (size > 0);\n    }\n\n    // ============ Version Control ============\n    function version() external pure returns (uint256) {\n        return 101; // 1.0.1\n    }\n}",
  "sourcePath": "/Users/kirill/Prog/TosDis/tosdis/contracts/StakeMaster/contracts/IDOMaster.sol",
  "compiler": {
    "name": "solc",
    "version": "0.6.12+commit.27d51765.Emscripten.clang"
  },
  "schemaVersion": "3.3.2",
  "updatedAt": "2022-01-05T15:36:04.423Z",
  "networkType": "ethereum",
  "devdoc": {
    "kind": "dev",
    "methods": {
      "owner()": {
        "details": "Returns the address of the current owner."
      },
      "renounceOwnership()": {
        "details": "Leaves the contract without owner. It will not be possible to call `onlyOwner` functions anymore. Can only be called by the current owner. NOTE: Renouncing ownership will leave the contract without an owner, thereby removing any functionality that is only available to the owner."
      },
      "transferOwnership(address)": {
        "details": "Transfers ownership of the contract to a new account (`newOwner`). Can only be called by the current owner."
      }
    },
    "version": 1
  },
  "userdoc": {
    "kind": "user",
    "methods": {},
    "version": 1
  }
}