{
  "contractName": "IDOPool",
  "abi": [
    {
      "inputs": [
        {
          "internalType": "contract IidoMaster",
          "name": "_idoMaster",
          "type": "address"
        },
        {
          "internalType": "uint256",
          "name": "_feeFundsPercent",
          "type": "uint256"
        },
        {
          "internalType": "uint256",
          "name": "_tokenPrice",
          "type": "uint256"
        },
        {
          "internalType": "contract ERC20",
          "name": "_rewardToken",
          "type": "address"
        },
        {
          "internalType": "uint256",
          "name": "_startTimestamp",
          "type": "uint256"
        },
        {
          "internalType": "uint256",
          "name": "_finishTimestamp",
          "type": "uint256"
        },
        {
          "internalType": "uint256",
          "name": "_startClaimTimestamp",
          "type": "uint256"
        },
        {
          "internalType": "uint256",
          "name": "_minEthPayment",
          "type": "uint256"
        },
        {
          "internalType": "uint256",
          "name": "_maxEthPayment",
          "type": "uint256"
        },
        {
          "internalType": "uint256",
          "name": "_maxDistributedTokenAmount",
          "type": "uint256"
        },
        {
          "internalType": "bool",
          "name": "_hasWhitelisting",
          "type": "bool"
        },
        {
          "internalType": "bool",
          "name": "_enableTierSystem",
          "type": "bool"
        },
        {
          "internalType": "contract ITierSystem",
          "name": "_tierSystem",
          "type": "address"
        }
      ],
      "stateMutability": "nonpayable",
      "type": "constructor"
    },
    {
      "anonymous": false,
      "inputs": [
        {
          "indexed": false,
          "internalType": "address",
          "name": "account",
          "type": "address"
        }
      ],
      "name": "AddedToWhitelist",
      "type": "event"
    },
    {
      "anonymous": false,
      "inputs": [
        {
          "indexed": false,
          "internalType": "bool",
          "name": "newValue",
          "type": "bool"
        }
      ],
      "name": "EnableTierSystemUpdated",
      "type": "event"
    },
    {
      "anonymous": false,
      "inputs": [
        {
          "indexed": false,
          "internalType": "uint256",
          "name": "amount",
          "type": "uint256"
        }
      ],
      "name": "FundsFeeWithdrawn",
      "type": "event"
    },
    {
      "anonymous": false,
      "inputs": [
        {
          "indexed": false,
          "internalType": "uint256",
          "name": "amount",
          "type": "uint256"
        }
      ],
      "name": "FundsWithdrawn",
      "type": "event"
    },
    {
      "anonymous": false,
      "inputs": [
        {
          "indexed": false,
          "internalType": "bool",
          "name": "newValue",
          "type": "bool"
        }
      ],
      "name": "HasWhitelistingUpdated",
      "type": "event"
    },
    {
      "anonymous": false,
      "inputs": [
        {
          "indexed": false,
          "internalType": "uint256",
          "name": "amount",
          "type": "uint256"
        }
      ],
      "name": "NotSoldWithdrawn",
      "type": "event"
    },
    {
      "anonymous": false,
      "inputs": [
        {
          "indexed": true,
          "internalType": "address",
          "name": "previousOwner",
          "type": "address"
        },
        {
          "indexed": true,
          "internalType": "address",
          "name": "newOwner",
          "type": "address"
        }
      ],
      "name": "OwnershipTransferred",
      "type": "event"
    },
    {
      "anonymous": false,
      "inputs": [],
      "name": "Pause",
      "type": "event"
    },
    {
      "anonymous": false,
      "inputs": [
        {
          "indexed": false,
          "internalType": "address",
          "name": "account",
          "type": "address"
        }
      ],
      "name": "RemovedFromWhitelist",
      "type": "event"
    },
    {
      "anonymous": false,
      "inputs": [
        {
          "indexed": true,
          "internalType": "address",
          "name": "holder",
          "type": "address"
        },
        {
          "indexed": false,
          "internalType": "uint256",
          "name": "ethAmount",
          "type": "uint256"
        },
        {
          "indexed": false,
          "internalType": "uint256",
          "name": "tokenAmount",
          "type": "uint256"
        }
      ],
      "name": "TokensDebt",
      "type": "event"
    },
    {
      "anonymous": false,
      "inputs": [
        {
          "indexed": true,
          "internalType": "address",
          "name": "holder",
          "type": "address"
        },
        {
          "indexed": false,
          "internalType": "uint256",
          "name": "amount",
          "type": "uint256"
        }
      ],
      "name": "TokensWithdrawn",
      "type": "event"
    },
    {
      "anonymous": false,
      "inputs": [],
      "name": "Unpause",
      "type": "event"
    },
    {
      "anonymous": false,
      "inputs": [
        {
          "indexed": true,
          "internalType": "address",
          "name": "holder",
          "type": "address"
        },
        {
          "indexed": false,
          "internalType": "uint256",
          "name": "amount",
          "type": "uint256"
        }
      ],
      "name": "VestingCreated",
      "type": "event"
    },
    {
      "anonymous": false,
      "inputs": [
        {
          "indexed": false,
          "internalType": "uint256",
          "name": "amount",
          "type": "uint256"
        }
      ],
      "name": "VestingReleased",
      "type": "event"
    },
    {
      "anonymous": false,
      "inputs": [
        {
          "indexed": false,
          "internalType": "uint256",
          "name": "_vestingPercent",
          "type": "uint256"
        },
        {
          "indexed": false,
          "internalType": "uint256",
          "name": "_vestingStart",
          "type": "uint256"
        },
        {
          "indexed": false,
          "internalType": "uint256",
          "name": "_vestingInterval",
          "type": "uint256"
        },
        {
          "indexed": false,
          "internalType": "uint256",
          "name": "_vestingDuration",
          "type": "uint256"
        }
      ],
      "name": "VestingUpdated",
      "type": "event"
    },
    {
      "inputs": [
        {
          "internalType": "address[]",
          "name": "_addresses",
          "type": "address[]"
        }
      ],
      "name": "add",
      "outputs": [],
      "stateMutability": "nonpayable",
      "type": "function"
    },
    {
      "inputs": [],
      "name": "decimals",
      "outputs": [
        {
          "internalType": "uint256",
          "name": "",
          "type": "uint256"
        }
      ],
      "stateMutability": "view",
      "type": "function"
    },
    {
      "inputs": [],
      "name": "distributedTokens",
      "outputs": [
        {
          "internalType": "uint256",
          "name": "",
          "type": "uint256"
        }
      ],
      "stateMutability": "view",
      "type": "function"
    },
    {
      "inputs": [],
      "name": "enableTierSystem",
      "outputs": [
        {
          "internalType": "bool",
          "name": "",
          "type": "bool"
        }
      ],
      "stateMutability": "view",
      "type": "function"
    },
    {
      "inputs": [],
      "name": "feeFundsPercent",
      "outputs": [
        {
          "internalType": "uint256",
          "name": "",
          "type": "uint256"
        }
      ],
      "stateMutability": "view",
      "type": "function"
    },
    {
      "inputs": [],
      "name": "finishTimestamp",
      "outputs": [
        {
          "internalType": "uint256",
          "name": "",
          "type": "uint256"
        }
      ],
      "stateMutability": "view",
      "type": "function"
    },
    {
      "inputs": [],
      "name": "hasWhitelisting",
      "outputs": [
        {
          "internalType": "bool",
          "name": "",
          "type": "bool"
        }
      ],
      "stateMutability": "view",
      "type": "function"
    },
    {
      "inputs": [],
      "name": "idoMaster",
      "outputs": [
        {
          "internalType": "contract IidoMaster",
          "name": "",
          "type": "address"
        }
      ],
      "stateMutability": "view",
      "type": "function"
    },
    {
      "inputs": [
        {
          "internalType": "address",
          "name": "_address",
          "type": "address"
        }
      ],
      "name": "isWhitelisted",
      "outputs": [
        {
          "internalType": "bool",
          "name": "",
          "type": "bool"
        }
      ],
      "stateMutability": "view",
      "type": "function"
    },
    {
      "inputs": [],
      "name": "maxDistributedTokenAmount",
      "outputs": [
        {
          "internalType": "uint256",
          "name": "",
          "type": "uint256"
        }
      ],
      "stateMutability": "view",
      "type": "function"
    },
    {
      "inputs": [],
      "name": "maxEthPayment",
      "outputs": [
        {
          "internalType": "uint256",
          "name": "",
          "type": "uint256"
        }
      ],
      "stateMutability": "view",
      "type": "function"
    },
    {
      "inputs": [],
      "name": "minEthPayment",
      "outputs": [
        {
          "internalType": "uint256",
          "name": "",
          "type": "uint256"
        }
      ],
      "stateMutability": "view",
      "type": "function"
    },
    {
      "inputs": [],
      "name": "owner",
      "outputs": [
        {
          "internalType": "address",
          "name": "",
          "type": "address"
        }
      ],
      "stateMutability": "view",
      "type": "function"
    },
    {
      "inputs": [],
      "name": "pause",
      "outputs": [],
      "stateMutability": "nonpayable",
      "type": "function"
    },
    {
      "inputs": [],
      "name": "paused",
      "outputs": [
        {
          "internalType": "bool",
          "name": "",
          "type": "bool"
        }
      ],
      "stateMutability": "view",
      "type": "function"
    },
    {
      "inputs": [
        {
          "internalType": "address[]",
          "name": "_addresses",
          "type": "address[]"
        }
      ],
      "name": "remove",
      "outputs": [],
      "stateMutability": "nonpayable",
      "type": "function"
    },
    {
      "inputs": [],
      "name": "renounceOwnership",
      "outputs": [],
      "stateMutability": "nonpayable",
      "type": "function"
    },
    {
      "inputs": [],
      "name": "rewardToken",
      "outputs": [
        {
          "internalType": "contract ERC20",
          "name": "",
          "type": "address"
        }
      ],
      "stateMutability": "view",
      "type": "function"
    },
    {
      "inputs": [],
      "name": "startClaimTimestamp",
      "outputs": [
        {
          "internalType": "uint256",
          "name": "",
          "type": "uint256"
        }
      ],
      "stateMutability": "view",
      "type": "function"
    },
    {
      "inputs": [],
      "name": "startTimestamp",
      "outputs": [
        {
          "internalType": "uint256",
          "name": "",
          "type": "uint256"
        }
      ],
      "stateMutability": "view",
      "type": "function"
    },
    {
      "inputs": [],
      "name": "tierSystem",
      "outputs": [
        {
          "internalType": "contract ITierSystem",
          "name": "",
          "type": "address"
        }
      ],
      "stateMutability": "view",
      "type": "function"
    },
    {
      "inputs": [],
      "name": "tokenPrice",
      "outputs": [
        {
          "internalType": "uint256",
          "name": "",
          "type": "uint256"
        }
      ],
      "stateMutability": "view",
      "type": "function"
    },
    {
      "inputs": [],
      "name": "tokensForDistribution",
      "outputs": [
        {
          "internalType": "uint256",
          "name": "",
          "type": "uint256"
        }
      ],
      "stateMutability": "view",
      "type": "function"
    },
    {
      "inputs": [
        {
          "internalType": "address",
          "name": "newOwner",
          "type": "address"
        }
      ],
      "name": "transferOwnership",
      "outputs": [],
      "stateMutability": "nonpayable",
      "type": "function"
    },
    {
      "inputs": [],
      "name": "unpause",
      "outputs": [],
      "stateMutability": "nonpayable",
      "type": "function"
    },
    {
      "inputs": [
        {
          "internalType": "address",
          "name": "",
          "type": "address"
        }
      ],
      "name": "userInfo",
      "outputs": [
        {
          "internalType": "uint256",
          "name": "debt",
          "type": "uint256"
        },
        {
          "internalType": "uint256",
          "name": "total",
          "type": "uint256"
        },
        {
          "internalType": "uint256",
          "name": "totalInvestedETH",
          "type": "uint256"
        }
      ],
      "stateMutability": "view",
      "type": "function"
    },
    {
      "inputs": [],
      "name": "vestingDuration",
      "outputs": [
        {
          "internalType": "uint256",
          "name": "",
          "type": "uint256"
        }
      ],
      "stateMutability": "view",
      "type": "function"
    },
    {
      "inputs": [],
      "name": "vestingInterval",
      "outputs": [
        {
          "internalType": "uint256",
          "name": "",
          "type": "uint256"
        }
      ],
      "stateMutability": "view",
      "type": "function"
    },
    {
      "inputs": [],
      "name": "vestingPercent",
      "outputs": [
        {
          "internalType": "uint256",
          "name": "",
          "type": "uint256"
        }
      ],
      "stateMutability": "view",
      "type": "function"
    },
    {
      "inputs": [],
      "name": "vestingStart",
      "outputs": [
        {
          "internalType": "uint256",
          "name": "",
          "type": "uint256"
        }
      ],
      "stateMutability": "view",
      "type": "function"
    },
    {
      "inputs": [
        {
          "internalType": "address",
          "name": "",
          "type": "address"
        }
      ],
      "name": "whitelist",
      "outputs": [
        {
          "internalType": "bool",
          "name": "",
          "type": "bool"
        }
      ],
      "stateMutability": "view",
      "type": "function"
    },
    {
      "inputs": [
        {
          "internalType": "uint256",
          "name": "_vestingPercent",
          "type": "uint256"
        },
        {
          "internalType": "uint256",
          "name": "_vestingStart",
          "type": "uint256"
        },
        {
          "internalType": "uint256",
          "name": "_vestingInterval",
          "type": "uint256"
        },
        {
          "internalType": "uint256",
          "name": "_vestingDuration",
          "type": "uint256"
        }
      ],
      "name": "setVesting",
      "outputs": [],
      "stateMutability": "nonpayable",
      "type": "function"
    },
    {
      "inputs": [],
      "name": "pay",
      "outputs": [],
      "stateMutability": "payable",
      "type": "function"
    },
    {
      "inputs": [
        {
          "internalType": "address[]",
          "name": "_addresses",
          "type": "address[]"
        }
      ],
      "name": "claimFor",
      "outputs": [],
      "stateMutability": "nonpayable",
      "type": "function"
    },
    {
      "inputs": [],
      "name": "claim",
      "outputs": [],
      "stateMutability": "nonpayable",
      "type": "function"
    },
    {
      "inputs": [
        {
          "internalType": "bool",
          "name": "value",
          "type": "bool"
        }
      ],
      "name": "setHasWhitelisting",
      "outputs": [],
      "stateMutability": "nonpayable",
      "type": "function"
    },
    {
      "inputs": [
        {
          "internalType": "bool",
          "name": "value",
          "type": "bool"
        }
      ],
      "name": "setEnableTierSystem",
      "outputs": [],
      "stateMutability": "nonpayable",
      "type": "function"
    },
    {
      "inputs": [
        {
          "internalType": "contract ITierSystem",
          "name": "_tierSystem",
          "type": "address"
        }
      ],
      "name": "setTierSystem",
      "outputs": [],
      "stateMutability": "nonpayable",
      "type": "function"
    },
    {
      "inputs": [],
      "name": "withdrawFunds",
      "outputs": [],
      "stateMutability": "nonpayable",
      "type": "function"
    },
    {
      "inputs": [],
      "name": "withdrawNotSoldTokens",
      "outputs": [],
      "stateMutability": "nonpayable",
      "type": "function"
    },
    {
      "inputs": [
        {
          "internalType": "address",
          "name": "beneficiary",
          "type": "address"
        }
      ],
      "name": "getVesting",
      "outputs": [
        {
          "internalType": "uint256",
          "name": "",
          "type": "uint256"
        },
        {
          "internalType": "uint256",
          "name": "",
          "type": "uint256"
        }
      ],
      "stateMutability": "view",
      "type": "function"
    },
    {
      "inputs": [
        {
          "internalType": "address",
          "name": "beneficiary",
          "type": "address"
        }
      ],
      "name": "release",
      "outputs": [],
      "stateMutability": "nonpayable",
      "type": "function"
    },
    {
      "inputs": [
        {
          "internalType": "address",
          "name": "beneficiary",
          "type": "address"
        }
      ],
      "name": "releasableAmount",
      "outputs": [
        {
          "internalType": "uint256",
          "name": "",
          "type": "uint256"
        }
      ],
      "stateMutability": "view",
      "type": "function"
    },
    {
      "inputs": [
        {
          "internalType": "address",
          "name": "beneficiary",
          "type": "address"
        }
      ],
      "name": "vestedAmount",
      "outputs": [
        {
          "internalType": "uint256",
          "name": "",
          "type": "uint256"
        }
      ],
      "stateMutability": "view",
      "type": "function"
    },
    {
      "inputs": [],
      "name": "version",
      "outputs": [
        {
          "internalType": "uint256",
          "name": "",
          "type": "uint256"
        }
      ],
      "stateMutability": "pure",
      "type": "function"
    }
  ],
  "bytecode": "0x608060405260008060146101000a81548160ff0219169083151502179055506000600260006101000a81548160ff0219169083151502179055503480156200004657600080fd5b50604051620041503803806200415083398181016040526101a08110156200006d57600080fd5b8101908080519060200190929190805190602001909291908051906020019092919080519060200190929190805190602001909291908051906020019092919080519060200190929190805190602001909291908051906020019092919080519060200190929190805190602001909291908051906020019092919080519060200190929190505050826000620001096200048d60201b60201c565b9050806000806101000a81548173ffffffffffffffffffffffffffffffffffffffff021916908373ffffffffffffffffffffffffffffffffffffffff1602179055508073ffffffffffffffffffffffffffffffffffffffff16600073ffffffffffffffffffffffffffffffffffffffff167f8be0079c531659141344cd1fd0a4f28419497f9722a3daafe3b4186f6b6457e060405160405180910390a35080600260006101000a81548160ff0219169083151502179055505060016003819055508c601060006101000a81548173ffffffffffffffffffffffffffffffffffffffff021916908373ffffffffffffffffffffffffffffffffffffffff1602179055508b6011819055508a60048190555089600560006101000a81548173ffffffffffffffffffffffffffffffffffffffff021916908373ffffffffffffffffffffffffffffffffffffffff160217905550600560009054906101000a900473ffffffffffffffffffffffffffffffffffffffff1673ffffffffffffffffffffffffffffffffffffffff1663313ce5676040518163ffffffff1660e01b815260040160206040518083038186803b158015620002c357600080fd5b505afa158015620002d8573d6000803e3d6000fd5b505050506040513d6020811015620002ef57600080fd5b810190808051906020019092919050505060ff166006819055508789106200037f576040517f08c379a000000000000000000000000000000000000000000000000000000000815260040180806020018281038252601e8152602001807f5374617274206d757374206265206c657373207468616e2066696e697368000081525060200191505060405180910390fd5b428811620003f5576040517f08c379a000000000000000000000000000000000000000000000000000000000815260040180806020018281038252601c8152602001807f46696e697368206d757374206265206d6f7265207468616e206e6f770000000081525060200191505060405180910390fd5b88600781905550876008819055508660098190555085600a8190555084600b8190555083600c8190555081601260006101000a81548160ff02191690831515021790555080600f60006101000a81548173ffffffffffffffffffffffffffffffffffffffff021916908373ffffffffffffffffffffffffffffffffffffffff1602179055505050505050505050505050505062000495565b600033905090565b613cab80620004a56000396000f3fe6080604052600436106102725760003560e01c80635c975abb1161014f578063b8e50cab116100c1578063d1e5587e1161007a578063d1e5587e14610c7e578063e0ee43a214610ca9578063e6fd48bc14610cd4578063f2fde38b14610cff578063f7c618c114610d50578063f8caa7e514610d9157610272565b8063b8e50cab14610a9f578063bdb58e0314610aca578063c4c1c94f14610b0b578063c6a0e27d14610bd0578063c8d771af14610be7578063cc49ede714610c1257610272565b80637ff9b596116101135780637ff9b5961461089f5780638456cb59146108ca5780638da5cb5b146108e15780639b19251a14610922578063a4ad016614610989578063b38aab9d146109da57610272565b80635c975abb1461072e5780635e4ba17c1461075b5780636644cc2b146108205780636eaaabd51461084b578063715018a61461088857610272565b8063384711cc116101e85780634b1a4c0c116101ac5780634b1a4c0c1461062e5780634e71d92d14610659578063519a13191461067057806354fd4d50146106ad578063586360ce146106d85780635b857a1b1461070357610272565b8063384711cc146104f55780633aeb6c711461055a5780633af32abf146105855780633f4ba83a146105ec57806343d7d3211461060357610272565b80631959a0021161023a5780631959a002146103b25780631b9265b81461042557806324600fc31461042f578063254800d4146104465780632ce7183214610471578063313ce567146104ca57610272565b8063065aa5451461027757806307662345146102a45780631514617e146102d15780631726cbc8146102fc5780631916558714610361575b600080fd5b34801561028357600080fd5b5061028c610dd2565b60405180821515815260200191505060405180910390f35b3480156102b057600080fd5b506102b9610de5565b60405180821515815260200191505060405180910390f35b3480156102dd57600080fd5b506102e6610df8565b6040518082815260200191505060405180910390f35b34801561030857600080fd5b5061034b6004803603602081101561031f57600080fd5b81019080803573ffffffffffffffffffffffffffffffffffffffff169060200190929190505050610dfe565b6040518082815260200191505060405180910390f35b34801561036d57600080fd5b506103b06004803603602081101561038457600080fd5b81019080803573ffffffffffffffffffffffffffffffffffffffff169060200190929190505050610e64565b005b3480156103be57600080fd5b50610401600480360360208110156103d557600080fd5b81019080803573ffffffffffffffffffffffffffffffffffffffff16906020019092919050505061107a565b60405180848152602001838152602001828152602001935050505060405180910390f35b61042d6110a4565b005b34801561043b57600080fd5b506104446116ef565b005b34801561045257600080fd5b5061045b611a06565b6040518082815260200191505060405180910390f35b34801561047d57600080fd5b506104c86004803603608081101561049457600080fd5b8101908080359060200190929190803590602001909291908035906020019092919080359060200190929190505050611a0c565b005b3480156104d657600080fd5b506104df611cfb565b6040518082815260200191505060405180910390f35b34801561050157600080fd5b506105446004803603602081101561051857600080fd5b81019080803573ffffffffffffffffffffffffffffffffffffffff169060200190929190505050611d01565b6040518082815260200191505060405180910390f35b34801561056657600080fd5b5061056f611e44565b6040518082815260200191505060405180910390f35b34801561059157600080fd5b506105d4600480360360208110156105a857600080fd5b81019080803573ffffffffffffffffffffffffffffffffffffffff169060200190929190505050611e4a565b60405180821515815260200191505060405180910390f35b3480156105f857600080fd5b50610601611ea0565b005b34801561060f57600080fd5b50610618612019565b6040518082815260200191505060405180910390f35b34801561063a57600080fd5b5061064361201f565b6040518082815260200191505060405180910390f35b34801561066557600080fd5b5061066e612025565b005b34801561067c57600080fd5b506106ab6004803603602081101561069357600080fd5b810190808035151590602001909291905050506120b3565b005b3480156106b957600080fd5b506106c26121c7565b6040518082815260200191505060405180910390f35b3480156106e457600080fd5b506106ed6121d0565b6040518082815260200191505060405180910390f35b34801561070f57600080fd5b506107186121d6565b6040518082815260200191505060405180910390f35b34801561073a57600080fd5b506107436121dc565b60405180821515815260200191505060405180910390f35b34801561076757600080fd5b5061081e6004803603602081101561077e57600080fd5b810190808035906020019064010000000081111561079b57600080fd5b8201836020820111156107ad57600080fd5b803590602001918460208302840111640100000000831117156107cf57600080fd5b919080806020026020016040519081016040528093929190818152602001838360200280828437600081840152601f19601f8201169050808301925050505050505091929192905050506121ef565b005b34801561082c57600080fd5b506108356123cc565b6040518082815260200191505060405180910390f35b34801561085757600080fd5b506108866004803603602081101561086e57600080fd5b810190808035151590602001909291905050506123d2565b005b34801561089457600080fd5b5061089d6124e6565b005b3480156108ab57600080fd5b506108b4612653565b6040518082815260200191505060405180910390f35b3480156108d657600080fd5b506108df612659565b005b3480156108ed57600080fd5b506108f66127d4565b604051808273ffffffffffffffffffffffffffffffffffffffff16815260200191505060405180910390f35b34801561092e57600080fd5b506109716004803603602081101561094557600080fd5b81019080803573ffffffffffffffffffffffffffffffffffffffff1690602001909291905050506127fd565b60405180821515815260200191505060405180910390f35b34801561099557600080fd5b506109d8600480360360208110156109ac57600080fd5b81019080803573ffffffffffffffffffffffffffffffffffffffff16906020019092919050505061281d565b005b3480156109e657600080fd5b50610a9d600480360360208110156109fd57600080fd5b8101908080359060200190640100000000811115610a1a57600080fd5b820183602082011115610a2c57600080fd5b80359060200191846020830284011164010000000083111715610a4e57600080fd5b919080806020026020016040519081016040528093929190818152602001838360200280828437600081840152601f19601f820116905080830192505050505050509192919290505050612910565b005b348015610aab57600080fd5b50610ab46129cc565b6040518082815260200191505060405180910390f35b348015610ad657600080fd5b50610adf6129d2565b604051808273ffffffffffffffffffffffffffffffffffffffff16815260200191505060405180910390f35b348015610b1757600080fd5b50610bce60048036036020811015610b2e57600080fd5b8101908080359060200190640100000000811115610b4b57600080fd5b820183602082011115610b5d57600080fd5b80359060200191846020830284011164010000000083111715610b7f57600080fd5b919080806020026020016040519081016040528093929190818152602001838360200280828437600081840152601f19601f8201169050808301925050505050505091929192905050506129f8565b005b348015610bdc57600080fd5b50610be5612b8e565b005b348015610bf357600080fd5b50610bfc612eb4565b6040518082815260200191505060405180910390f35b348015610c1e57600080fd5b50610c6160048036036020811015610c3557600080fd5b81019080803573ffffffffffffffffffffffffffffffffffffffff169060200190929190505050612eba565b604051808381526020018281526020019250505060405180910390f35b348015610c8a57600080fd5b50610c93612f39565b6040518082815260200191505060405180910390f35b348015610cb557600080fd5b50610cbe612f3f565b6040518082815260200191505060405180910390f35b348015610ce057600080fd5b50610ce9612f45565b6040518082815260200191505060405180910390f35b348015610d0b57600080fd5b50610d4e60048036036020811015610d2257600080fd5b81019080803573ffffffffffffffffffffffffffffffffffffffff169060200190929190505050612f4b565b005b348015610d5c57600080fd5b50610d6561313d565b604051808273ffffffffffffffffffffffffffffffffffffffff16815260200191505060405180910390f35b348015610d9d57600080fd5b50610da6613163565b604051808273ffffffffffffffffffffffffffffffffffffffff16815260200191505060405180910390f35b601260009054906101000a900460ff1681565b600260009054906101000a900460ff1681565b60175481565b6000610e5d601860008473ffffffffffffffffffffffffffffffffffffffff1673ffffffffffffffffffffffffffffffffffffffff16815260200190815260200160002060010154610e4f84611d01565b61318990919063ffffffff16565b9050919050565b60026003541415610edd576040517f08c379a000000000000000000000000000000000000000000000000000000000815260040180806020018281038252601f8152602001807f5265656e7472616e637947756172643a207265656e7472616e742063616c6c0081525060200191505060405180910390fd5b60026003819055506000610ef082610dfe565b905060008111610f68576040517f08c379a00000000000000000000000000000000000000000000000000000000081526004018080602001828103825260128152602001807f4e6f7468696e6720746f2072656c65617365000000000000000000000000000081525060200191505060405180910390fd5b6000601860008473ffffffffffffffffffffffffffffffffffffffff1673ffffffffffffffffffffffffffffffffffffffff1681526020019081526020016000209050610fc282826001015461320c90919063ffffffff16565b8160010181905550610fe182826000015461318990919063ffffffff16565b81600001819055506110368383600560009054906101000a900473ffffffffffffffffffffffffffffffffffffffff1673ffffffffffffffffffffffffffffffffffffffff166132949092919063ffffffff16565b7f87281fabebb3053dede10cd89db97c95421a1fb9385cd5d0bb6cf8db8dd11ae7826040518082815260200191505060405180910390a15050600160038190555050565b60136020528060005260406000206000915090508060000154908060010154908060020154905083565b6002600354141561111d576040517f08c379a000000000000000000000000000000000000000000000000000000000815260040180806020018281038252601f8152602001807f5265656e7472616e637947756172643a207265656e7472616e742063616c6c0081525060200191505060405180910390fd5b6002600381905550600260009054906101000a900460ff161561114d5761114333611e4a565b61114c57600080fd5b5b600060149054906101000a900460ff16156111d0576040517f08c379a00000000000000000000000000000000000000000000000000000000081526004018080602001828103825260128152602001807f48617320746f20626520756e706175736564000000000000000000000000000081525060200191505060405180910390fd5b600a54341015611248576040517f08c379a00000000000000000000000000000000000000000000000000000000081526004018080602001828103825260148152602001807f4c657373207468656e206d696e20616d6f756e7400000000000000000000000081525060200191505060405180910390fd5b6007544210156112c0576040517f08c379a000000000000000000000000000000000000000000000000000000000815260040180806020018281038252600b8152602001807f4e6f74207374617274656400000000000000000000000000000000000000000081525060200191505060405180910390fd5b6008544210611337576040517f08c379a00000000000000000000000000000000000000000000000000000000081526004018080602001828103825260058152602001807f456e64656400000000000000000000000000000000000000000000000000000081525060200191505060405180910390fd5b600061134234613336565b9050600c5461135c82600d5461320c90919063ffffffff16565b11156113d0576040517f08c379a000000000000000000000000000000000000000000000000000000000815260040180806020018281038252600a8152602001807f4f76657266696c6c65640000000000000000000000000000000000000000000081525060200191505060405180910390fd5b6000601360003373ffffffffffffffffffffffffffffffffffffffff1673ffffffffffffffffffffffffffffffffffffffff1681526020019081526020016000209050601260009054906101000a900460ff161561158657600f60009054906101000a900473ffffffffffffffffffffffffffffffffffffffff1673ffffffffffffffffffffffffffffffffffffffff166390d8260f33600b546040518363ffffffff1660e01b8152600401808373ffffffffffffffffffffffffffffffffffffffff1681526020018281526020019250505060206040518083038186803b1580156114bb57600080fd5b505afa1580156114cf573d6000803e3d6000fd5b505050506040513d60208110156114e557600080fd5b810190808051906020019092919050505061150d34836002015461320c90919063ffffffff16565b1115611581576040517f08c379a00000000000000000000000000000000000000000000000000000000081526004018080602001828103825260148152602001807f4d6f7265207468656e206d617820616d6f756e7400000000000000000000000081525060200191505060405180910390fd5b611615565b600b546115a034836002015461320c90919063ffffffff16565b1115611614576040517f08c379a00000000000000000000000000000000000000000000000000000000081526004018080602001828103825260148152602001807f4d6f7265207468656e206d617820616d6f756e7400000000000000000000000081525060200191505060405180910390fd5b5b61162a82600d5461320c90919063ffffffff16565b600d8190555061164734826002015461320c90919063ffffffff16565b816002018190555061166682826001015461320c90919063ffffffff16565b816001018190555061168582826000015461320c90919063ffffffff16565b81600001819055503373ffffffffffffffffffffffffffffffffffffffff167fb55d4ca2fc644ca3f8cdc9c907826e24acd68d2b2d4d73f48b8f2378dbaedf5d3484604051808381526020018281526020019250505060405180910390a250506001600381905550565b6116f761336b565b73ffffffffffffffffffffffffffffffffffffffff166117156127d4565b73ffffffffffffffffffffffffffffffffffffffff161461179e576040517f08c379a00000000000000000000000000000000000000000000000000000000081526004018080602001828103825260208152602001807f4f776e61626c653a2063616c6c6572206973206e6f7420746865206f776e657281525060200191505060405180910390fd5b60026003541415611817576040517f08c379a000000000000000000000000000000000000000000000000000000000815260040180806020018281038252601f8152602001807f5265656e7472616e637947756172643a207265656e7472616e742063616c6c0081525060200191505060405180910390fd5b60026003819055506000601154111561197857600061185460646118466011544761337390919063ffffffff16565b6133f990919063ffffffff16565b9050601060009054906101000a900473ffffffffffffffffffffffffffffffffffffffff1673ffffffffffffffffffffffffffffffffffffffff1663f25f4b566040518163ffffffff1660e01b815260040160206040518083038186803b1580156118be57600080fd5b505afa1580156118d2573d6000803e3d6000fd5b505050506040513d60208110156118e857600080fd5b810190808051906020019092919050505073ffffffffffffffffffffffffffffffffffffffff166108fc829081150290604051600060405180830381858888f1935050505015801561193e573d6000803e3d6000fd5b507ff907e46c2c93b7a34a4dbaff501b7c2931c081cec48af83b6c04effcbdbe012c816040518082815260200191505060405180910390a1505b60004790503373ffffffffffffffffffffffffffffffffffffffff166108fc829081150290604051600060405180830381858888f193505050501580156119c3573d6000803e3d6000fd5b507f4a37b25aab49761ecf63117fe82b98d750917451133cf797507bc9fb5b96044a816040518082815260200191505060405180910390a1506001600381905550565b60155481565b611a1461336b565b73ffffffffffffffffffffffffffffffffffffffff16611a326127d4565b73ffffffffffffffffffffffffffffffffffffffff1614611abb576040517f08c379a00000000000000000000000000000000000000000000000000000000081526004018080602001828103825260208152602001807f4f776e61626c653a2063616c6c6572206973206e6f7420746865206f776e657281525060200191505060405180910390fd5b6007544210611b32576040517f08c379a000000000000000000000000000000000000000000000000000000000815260040180806020018281038252600f8152602001807f416c72656164792073746172746564000000000000000000000000000000000081525060200191505060405180910390fd5b6064841115611ba9576040517f08c379a000000000000000000000000000000000000000000000000000000000815260040180806020018281038252601e8152602001807f56657374696e672070657263656e74206d757374206265203c3d20313030000081525060200191505060405180910390fd5b6000841115611c825760008211611c28576040517f08c379a000000000000000000000000000000000000000000000000000000000815260040180806020018281038252601f8152602001807f696e74657276616c206d7573742062652067726561746572207468616e20300081525060200191505060405180910390fd5b81811015611c81576040517f08c379a0000000000000000000000000000000000000000000000000000000008152600401808060200182810382526027815260200180613c046027913960400191505060405180910390fd5b5b836014819055508260158190555081601681905550806017819055507fe5a61c66c681285927bfe4081737907047293e1a7bae913f41dc7960de5efc996014546015546016546017546040518085815260200184815260200183815260200182815260200194505050505060405180910390a150505050565b60065481565b6000601554421015611d165760009050611e3f565b611d1e613b9d565b601860008473ffffffffffffffffffffffffffffffffffffffff1673ffffffffffffffffffffffffffffffffffffffff1681526020019081526020016000206040518060400160405290816000820154815260200160018201548152505090506000816000015190506000611da083602001518361320c90919063ffffffff16565b9050611db960175460155461320c90919063ffffffff16565b4210611dca57809350505050611e3f565b6000611df5601654611de76015544261318990919063ffffffff16565b6133f990919063ffffffff16565b90506000611e106016546017546133f990919063ffffffff16565b9050611e3781611e29848661337390919063ffffffff16565b6133f990919063ffffffff16565b955050505050505b919050565b60145481565b6000600160008373ffffffffffffffffffffffffffffffffffffffff1673ffffffffffffffffffffffffffffffffffffffff16815260200190815260200160002060009054906101000a900460ff169050919050565b611ea861336b565b73ffffffffffffffffffffffffffffffffffffffff16611ec66127d4565b73ffffffffffffffffffffffffffffffffffffffff1614611f4f576040517f08c379a00000000000000000000000000000000000000000000000000000000081526004018080602001828103825260208152602001807f4f776e61626c653a2063616c6c6572206973206e6f7420746865206f776e657281525060200191505060405180910390fd5b600060149054906101000a900460ff16611fd1576040517f08c379a00000000000000000000000000000000000000000000000000000000081526004018080602001828103825260108152602001807f48617320746f206265207061757365640000000000000000000000000000000081525060200191505060405180910390fd5b60008060146101000a81548160ff0219169083151502179055507f7805862f689e2f13df9f062ff482ad3ad112aca9e0847911ed832e158c525b3360405160405180910390a1565b60085481565b600d5481565b600060149054906101000a900460ff16156120a8576040517f08c379a00000000000000000000000000000000000000000000000000000000081526004018080602001828103825260128152602001807f48617320746f20626520756e706175736564000000000000000000000000000081525060200191505060405180910390fd5b6120b133613482565b565b6120bb61336b565b73ffffffffffffffffffffffffffffffffffffffff166120d96127d4565b73ffffffffffffffffffffffffffffffffffffffff1614612162576040517f08c379a00000000000000000000000000000000000000000000000000000000081526004018080602001828103825260208152602001807f4f776e61626c653a2063616c6c6572206973206e6f7420746865206f776e657281525060200191505060405180910390fd5b80601260006101000a81548160ff0219169083151502179055507f5b3d36c746703d7a5e70e83f8d648f2f4363d2f954492ec5cf7c29f2ce61323d601260009054906101000a900460ff1660405180821515815260200191505060405180910390a150565b60006065905090565b600e5481565b600b5481565b600060149054906101000a900460ff1681565b6121f761336b565b73ffffffffffffffffffffffffffffffffffffffff166122156127d4565b73ffffffffffffffffffffffffffffffffffffffff161461229e576040517f08c379a00000000000000000000000000000000000000000000000000000000081526004018080602001828103825260208152602001807f4f776e61626c653a2063616c6c6572206973206e6f7420746865206f776e657281525060200191505060405180910390fd5b60005b81518110156123c85760008282815181106122b857fe5b60200260200101519050600160008273ffffffffffffffffffffffffffffffffffffffff1673ffffffffffffffffffffffffffffffffffffffff16815260200190815260200160002060009054906101000a900460ff16156123ba576000600160008373ffffffffffffffffffffffffffffffffffffffff1673ffffffffffffffffffffffffffffffffffffffff16815260200190815260200160002060006101000a81548160ff0219169083151502179055507fcdd2e9b91a56913d370075169cefa1602ba36be5301664f752192bb1709df75781604051808273ffffffffffffffffffffffffffffffffffffffff16815260200191505060405180910390a15b5080806001019150506122a1565b5050565b600a5481565b6123da61336b565b73ffffffffffffffffffffffffffffffffffffffff166123f86127d4565b73ffffffffffffffffffffffffffffffffffffffff1614612481576040517f08c379a00000000000000000000000000000000000000000000000000000000081526004018080602001828103825260208152602001807f4f776e61626c653a2063616c6c6572206973206e6f7420746865206f776e657281525060200191505060405180910390fd5b80600260006101000a81548160ff0219169083151502179055507f81a1b67ab393231a9f3a2ce8c84cc6c46c76cc94cf733e155af6fb539873fa39600260009054906101000a900460ff1660405180821515815260200191505060405180910390a150565b6124ee61336b565b73ffffffffffffffffffffffffffffffffffffffff1661250c6127d4565b73ffffffffffffffffffffffffffffffffffffffff1614612595576040517f08c379a00000000000000000000000000000000000000000000000000000000081526004018080602001828103825260208152602001807f4f776e61626c653a2063616c6c6572206973206e6f7420746865206f776e657281525060200191505060405180910390fd5b600073ffffffffffffffffffffffffffffffffffffffff1660008054906101000a900473ffffffffffffffffffffffffffffffffffffffff1673ffffffffffffffffffffffffffffffffffffffff167f8be0079c531659141344cd1fd0a4f28419497f9722a3daafe3b4186f6b6457e060405160405180910390a360008060006101000a81548173ffffffffffffffffffffffffffffffffffffffff021916908373ffffffffffffffffffffffffffffffffffffffff160217905550565b60045481565b61266161336b565b73ffffffffffffffffffffffffffffffffffffffff1661267f6127d4565b73ffffffffffffffffffffffffffffffffffffffff1614612708576040517f08c379a00000000000000000000000000000000000000000000000000000000081526004018080602001828103825260208152602001807f4f776e61626c653a2063616c6c6572206973206e6f7420746865206f776e657281525060200191505060405180910390fd5b600060149054906101000a900460ff161561278b576040517f08c379a00000000000000000000000000000000000000000000000000000000081526004018080602001828103825260128152602001807f48617320746f20626520756e706175736564000000000000000000000000000081525060200191505060405180910390fd5b6001600060146101000a81548160ff0219169083151502179055507f6985a02210a168e66602d3235cb6db0e70f92b3ba4d376a33c0f3d9434bff62560405160405180910390a1565b60008060009054906101000a900473ffffffffffffffffffffffffffffffffffffffff16905090565b60016020528060005260406000206000915054906101000a900460ff1681565b61282561336b565b73ffffffffffffffffffffffffffffffffffffffff166128436127d4565b73ffffffffffffffffffffffffffffffffffffffff16146128cc576040517f08c379a00000000000000000000000000000000000000000000000000000000081526004018080602001828103825260208152602001807f4f776e61626c653a2063616c6c6572206973206e6f7420746865206f776e657281525060200191505060405180910390fd5b80600f60006101000a81548173ffffffffffffffffffffffffffffffffffffffff021916908373ffffffffffffffffffffffffffffffffffffffff16021790555050565b600060149054906101000a900460ff1615612993576040517f08c379a00000000000000000000000000000000000000000000000000000000081526004018080602001828103825260128152602001807f48617320746f20626520756e706175736564000000000000000000000000000081525060200191505060405180910390fd5b60005b81518110156129c8576129bb8282815181106129ae57fe5b6020026020010151613482565b8080600101915050612996565b5050565b60165481565b601060009054906101000a900473ffffffffffffffffffffffffffffffffffffffff1681565b612a0061336b565b73ffffffffffffffffffffffffffffffffffffffff16612a1e6127d4565b73ffffffffffffffffffffffffffffffffffffffff1614612aa7576040517f08c379a00000000000000000000000000000000000000000000000000000000081526004018080602001828103825260208152602001807f4f776e61626c653a2063616c6c6572206973206e6f7420746865206f776e657281525060200191505060405180910390fd5b60005b8151811015612b8a576001806000848481518110612ac457fe5b602002602001015173ffffffffffffffffffffffffffffffffffffffff1673ffffffffffffffffffffffffffffffffffffffff16815260200190815260200160002060006101000a81548160ff0219169083151502179055507fa850ae9193f515cbae8d35e8925bd2be26627fc91bce650b8652ed254e9cab03828281518110612b4a57fe5b6020026020010151604051808273ffffffffffffffffffffffffffffffffffffffff16815260200191505060405180910390a18080600101915050612aaa565b5050565b612b9661336b565b73ffffffffffffffffffffffffffffffffffffffff16612bb46127d4565b73ffffffffffffffffffffffffffffffffffffffff1614612c3d576040517f08c379a00000000000000000000000000000000000000000000000000000000081526004018080602001828103825260208152602001807f4f776e61626c653a2063616c6c6572206973206e6f7420746865206f776e657281525060200191505060405180910390fd5b60026003541415612cb6576040517f08c379a000000000000000000000000000000000000000000000000000000000815260040180806020018281038252601f8152602001807f5265656e7472616e637947756172643a207265656e7472616e742063616c6c0081525060200191505060405180910390fd5b60026003819055506008544211612d35576040517f08c379a00000000000000000000000000000000000000000000000000000000081526004018080602001828103825260178152602001807f416c6c6f772061667465722066696e6973682074696d6500000000000000000081525060200191505060405180910390fd5b6000612e23600d54612e15600e54600560009054906101000a900473ffffffffffffffffffffffffffffffffffffffff1673ffffffffffffffffffffffffffffffffffffffff166370a08231306040518263ffffffff1660e01b8152600401808273ffffffffffffffffffffffffffffffffffffffff16815260200191505060206040518083038186803b158015612dcc57600080fd5b505afa158015612de0573d6000803e3d6000fd5b505050506040513d6020811015612df657600080fd5b810190808051906020019092919050505061320c90919063ffffffff16565b61318990919063ffffffff16565b9050612e723382600560009054906101000a900473ffffffffffffffffffffffffffffffffffffffff1673ffffffffffffffffffffffffffffffffffffffff166132949092919063ffffffff16565b7fbce7c33bc3bf1bb5e55b3b1db71bb682916756e28abd95200251299059cf0fed816040518082815260200191505060405180910390a1506001600381905550565b60115481565b600080612ec5613b9d565b601860008573ffffffffffffffffffffffffffffffffffffffff1673ffffffffffffffffffffffffffffffffffffffff168152602001908152602001600020604051806040016040529081600082015481526020016001820154815250509050806000015181602001519250925050915091565b60095481565b600c5481565b60075481565b612f5361336b565b73ffffffffffffffffffffffffffffffffffffffff16612f716127d4565b73ffffffffffffffffffffffffffffffffffffffff1614612ffa576040517f08c379a00000000000000000000000000000000000000000000000000000000081526004018080602001828103825260208152602001807f4f776e61626c653a2063616c6c6572206973206e6f7420746865206f776e657281525060200191505060405180910390fd5b600073ffffffffffffffffffffffffffffffffffffffff168173ffffffffffffffffffffffffffffffffffffffff161415613080576040517f08c379a0000000000000000000000000000000000000000000000000000000008152600401808060200182810382526026815260200180613bb86026913960400191505060405180910390fd5b8073ffffffffffffffffffffffffffffffffffffffff1660008054906101000a900473ffffffffffffffffffffffffffffffffffffffff1673ffffffffffffffffffffffffffffffffffffffff167f8be0079c531659141344cd1fd0a4f28419497f9722a3daafe3b4186f6b6457e060405160405180910390a3806000806101000a81548173ffffffffffffffffffffffffffffffffffffffff021916908373ffffffffffffffffffffffffffffffffffffffff16021790555050565b600560009054906101000a900473ffffffffffffffffffffffffffffffffffffffff1681565b600f60009054906101000a900473ffffffffffffffffffffffffffffffffffffffff1681565b600082821115613201576040517f08c379a000000000000000000000000000000000000000000000000000000000815260040180806020018281038252601e8152602001807f536166654d6174683a207375627472616374696f6e206f766572666c6f77000081525060200191505060405180910390fd5b818303905092915050565b60008082840190508381101561328a576040517f08c379a000000000000000000000000000000000000000000000000000000000815260040180806020018281038252601b8152602001807f536166654d6174683a206164646974696f6e206f766572666c6f77000000000081525060200191505060405180910390fd5b8091505092915050565b6133318363a9059cbb60e01b8484604051602401808373ffffffffffffffffffffffffffffffffffffffff16815260200182815260200192505050604051602081830303815290604052907bffffffffffffffffffffffffffffffffffffffffffffffffffffffff19166020820180517bffffffffffffffffffffffffffffffffffffffffffffffffffffffff83818316178352505050506136f5565b505050565b6000613364600454613356600654600a0a8561337390919063ffffffff16565b6133f990919063ffffffff16565b9050919050565b600033905090565b60008083141561338657600090506133f3565b600082840290508284828161339757fe5b04146133ee576040517f08c379a0000000000000000000000000000000000000000000000000000000008152600401808060200182810382526021815260200180613c2b6021913960400191505060405180910390fd5b809150505b92915050565b6000808211613470576040517f08c379a000000000000000000000000000000000000000000000000000000000815260040180806020018281038252601a8152602001807f536166654d6174683a206469766973696f6e206279207a65726f00000000000081525060200191505060405180910390fd5b81838161347957fe5b04905092915050565b600260035414156134fb576040517f08c379a000000000000000000000000000000000000000000000000000000000815260040180806020018281038252601f8152602001807f5265656e7472616e637947756172643a207265656e7472616e742063616c6c0081525060200191505060405180910390fd5b6002600381905550600954421161357a576040517f08c379a00000000000000000000000000000000000000000000000000000000081526004018080602001828103825260188152602001807f446973747269627574696f6e206e6f742073746172746564000000000000000081525060200191505060405180910390fd5b6000601360008373ffffffffffffffffffffffffffffffffffffffff1673ffffffffffffffffffffffffffffffffffffffff168152602001908152602001600020905060008160000154905060008111156136e857600082600001819055506135ee81600e5461320c90919063ffffffff16565b600e819055506000601454111561364c576000613629606461361b6014548561337390919063ffffffff16565b6133f990919063ffffffff16565b905061363584826137e4565b613648818361318990919063ffffffff16565b9150505b6136998382600560009054906101000a900473ffffffffffffffffffffffffffffffffffffffff1673ffffffffffffffffffffffffffffffffffffffff166132949092919063ffffffff16565b8273ffffffffffffffffffffffffffffffffffffffff167f6352c5382c4a4578e712449ca65e83cdb392d045dfcf1cad9615189db2da244b826040518082815260200191505060405180910390a25b5050600160038190555050565b6060613757826040518060400160405280602081526020017f5361666545524332303a206c6f772d6c6576656c2063616c6c206661696c65648152508573ffffffffffffffffffffffffffffffffffffffff166138fd9092919063ffffffff16565b90506000815111156137df5780806020019051602081101561377857600080fd5b81019080805190602001909291905050506137de576040517f08c379a000000000000000000000000000000000000000000000000000000000815260040180806020018281038252602a815260200180613c4c602a913960400191505060405180910390fd5b5b505050565b6000601860008473ffffffffffffffffffffffffffffffffffffffff1673ffffffffffffffffffffffffffffffffffffffff168152602001908152602001600020905060008160000154146138a1576040517f08c379a00000000000000000000000000000000000000000000000000000000081526004018080602001828103825260178152602001807f56657374696e6720616c7265616479206372656174656400000000000000000081525060200191505060405180910390fd5b8181600001819055508273ffffffffffffffffffffffffffffffffffffffff167f2f5488c5b0350655053f3d00e1693b26a49ecd0242b2c0df881ccda054490d30836040518082815260200191505060405180910390a2505050565b606061390c8484600085613915565b90509392505050565b606082471015613970576040517f08c379a0000000000000000000000000000000000000000000000000000000008152600401808060200182810382526026815260200180613bde6026913960400191505060405180910390fd5b61397985613abe565b6139eb576040517f08c379a000000000000000000000000000000000000000000000000000000000815260040180806020018281038252601d8152602001807f416464726573733a2063616c6c20746f206e6f6e2d636f6e747261637400000081525060200191505060405180910390fd5b600060608673ffffffffffffffffffffffffffffffffffffffff1685876040518082805190602001908083835b60208310613a3b5780518252602082019150602081019050602083039250613a18565b6001836020036101000a03801982511681845116808217855250505050505090500191505060006040518083038185875af1925050503d8060008114613a9d576040519150601f19603f3d011682016040523d82523d6000602084013e613aa2565b606091505b5091509150613ab2828286613ad1565b92505050949350505050565b600080823b905060008111915050919050565b60608315613ae157829050613b96565b600083511115613af45782518084602001fd5b816040517f08c379a00000000000000000000000000000000000000000000000000000000081526004018080602001828103825283818151815260200191508051906020019080838360005b83811015613b5b578082015181840152602081019050613b40565b50505050905090810190601f168015613b885780820380516001836020036101000a031916815260200191505b509250505060405180910390fd5b9392505050565b60405180604001604052806000815260200160008152509056fe4f776e61626c653a206e6577206f776e657220697320746865207a65726f2061646472657373416464726573733a20696e73756666696369656e742062616c616e636520666f722063616c6c696e74657276616c2063616e6e6f7420626520626967676572207468616e206475726174696f6e536166654d6174683a206d756c7469706c69636174696f6e206f766572666c6f775361666545524332303a204552433230206f7065726174696f6e20646964206e6f742073756363656564a26469706673582212200b8792c2fa76b78658814c8e61d7f148323ca955901d2d7d907fd9b25759041a64736f6c634300060c0033",
  "immutableReferences": {},
  "source": "pragma solidity 0.6.12;\n\nimport \"@openzeppelin/contracts/access/Ownable.sol\";\nimport \"@openzeppelin/contracts/utils/ReentrancyGuard.sol\";\nimport \"@openzeppelin/contracts/math/SafeMath.sol\";\nimport \"@openzeppelin/contracts/token/ERC20/SafeERC20.sol\";\nimport \"@openzeppelin/contracts/token/ERC20/ERC20.sol\";\nimport \"./Pausable.sol\";\nimport \"./Whitelist.sol\";\nimport \"./interfaces/IidoMaster.sol\";\nimport \"./interfaces/ITierSystem.sol\";\n\n contract IDOPool is Ownable, Pausable, Whitelist, ReentrancyGuard  {\n    using SafeMath for uint256;\n    using SafeERC20 for ERC20;\n\n    uint256 public tokenPrice;\n    ERC20 public rewardToken;\n    uint256 public decimals;\n    uint256 public startTimestamp;\n    uint256 public finishTimestamp;\n    uint256 public startClaimTimestamp;\n    uint256 public minEthPayment;\n    uint256 public maxEthPayment;\n    uint256 public maxDistributedTokenAmount;\n    uint256 public tokensForDistribution;\n    uint256 public distributedTokens;\n\n\n    ITierSystem  public  tierSystem;\n    IidoMaster  public  idoMaster;\n    uint256 public feeFundsPercent;\n    bool public enableTierSystem;\n\n    struct UserInfo {\n        uint debt;\n        uint total;\n        uint totalInvestedETH;\n    }\n\n    mapping(address => UserInfo) public userInfo;\n\n    event TokensDebt(\n        address indexed holder,\n        uint256 ethAmount,\n        uint256 tokenAmount\n    );\n    \n    event TokensWithdrawn(address indexed holder, uint256 amount);\n    event HasWhitelistingUpdated(bool newValue);\n    event EnableTierSystemUpdated(bool newValue);\n    event FundsWithdrawn(uint256 amount);\n    event FundsFeeWithdrawn(uint256 amount);\n    event NotSoldWithdrawn(uint256 amount);\n\n    uint256 public vestingPercent;\n    uint256 public vestingStart;\n    uint256 public vestingInterval;\n    uint256 public vestingDuration;\n\n    event VestingUpdated(uint256 _vestingPercent,\n                    uint256 _vestingStart,\n                    uint256 _vestingInterval,\n                    uint256 _vestingDuration);\n    event VestingCreated(address indexed holder, uint256 amount);\n    event VestingReleased(uint256 amount);\n\n    struct Vesting {\n        uint256 balance;\n        uint256 released;\n    }\n\n    mapping (address => Vesting) private _vestings;\n\n    constructor(\n        IidoMaster _idoMaster,\n        uint256 _feeFundsPercent, \n        uint256 _tokenPrice,\n        ERC20 _rewardToken,\n        uint256 _startTimestamp,\n        uint256 _finishTimestamp,\n        uint256 _startClaimTimestamp,\n        uint256 _minEthPayment,\n        uint256 _maxEthPayment,\n        uint256 _maxDistributedTokenAmount,\n        bool _hasWhitelisting,\n        bool _enableTierSystem,\n        ITierSystem _tierSystem\n        \n    ) public Whitelist(_hasWhitelisting) {\n        idoMaster = _idoMaster;\n        feeFundsPercent = _feeFundsPercent;\n        tokenPrice = _tokenPrice;\n        rewardToken = _rewardToken;\n        decimals = rewardToken.decimals();\n\n        require( _startTimestamp < _finishTimestamp,  \"Start must be less than finish\");\n        require( _finishTimestamp > now, \"Finish must be more than now\");\n        \n        startTimestamp = _startTimestamp;\n        finishTimestamp = _finishTimestamp;\n        startClaimTimestamp = _startClaimTimestamp;\n        minEthPayment = _minEthPayment;\n        maxEthPayment = _maxEthPayment;\n        maxDistributedTokenAmount = _maxDistributedTokenAmount;\n        enableTierSystem = _enableTierSystem;\n        tierSystem = _tierSystem;\n    }\n\n\n  function setVesting(uint256 _vestingPercent,\n                    uint256 _vestingStart,\n                    uint256 _vestingInterval,\n                    uint256 _vestingDuration) external onlyOwner {\n\n        require(now < startTimestamp, \"Already started\");\n\n        require(_vestingPercent <= 100, \"Vesting percent must be <= 100\");\n        if(_vestingPercent > 0)\n        {\n            require(_vestingInterval > 0 , \"interval must be greater than 0\");\n            require(_vestingDuration >= _vestingInterval, \"interval cannot be bigger than duration\");\n        }\n\n        vestingPercent = _vestingPercent;\n        vestingStart = _vestingStart;\n        vestingInterval = _vestingInterval;\n        vestingDuration = _vestingDuration;\n\n        emit VestingUpdated(vestingPercent,\n                            vestingStart,\n                            vestingInterval,\n                            vestingDuration);\n    }\n\n\n    function pay() payable external nonReentrant onlyWhitelisted whenNotPaused{\n        require(msg.value >= minEthPayment, \"Less then min amount\");\n        require(now >= startTimestamp, \"Not started\");\n        require(now < finishTimestamp, \"Ended\");\n        \n        uint256 tokenAmount = getTokenAmount(msg.value);\n        require(tokensForDistribution.add(tokenAmount) <= maxDistributedTokenAmount, \"Overfilled\");\n\n        UserInfo storage user = userInfo[msg.sender];\n\n        if(enableTierSystem){\n            require(user.totalInvestedETH.add(msg.value) <= tierSystem.getMaxEthPayment(msg.sender, maxEthPayment), \"More then max amount\");\n        }\n        else{\n            require(user.totalInvestedETH.add(msg.value) <= maxEthPayment, \"More then max amount\");\n        }\n\n        tokensForDistribution = tokensForDistribution.add(tokenAmount);\n        user.totalInvestedETH = user.totalInvestedETH.add(msg.value);\n        user.total = user.total.add(tokenAmount);\n        user.debt = user.debt.add(tokenAmount);\n        \n        emit TokensDebt(msg.sender, msg.value, tokenAmount);\n    }\n\n    function getTokenAmount(uint256 ethAmount)\n        internal\n        view\n        returns (uint256)\n    {\n        return ethAmount.mul(10**decimals).div(tokenPrice);\n    }\n\n\n    /// @dev Allows to claim tokens for the specific user.\n    /// @param _addresses Token receivers.\n    function claimFor(address[] memory _addresses) external whenNotPaused{\n         for (uint i = 0; i < _addresses.length; i++) {\n            proccessClaim(_addresses[i]);\n        }\n    }\n\n    /// @dev Allows to claim tokens for themselves.\n    function claim() external whenNotPaused{\n        proccessClaim(msg.sender);\n    }\n\n    /// @dev Proccess the claim.\n    /// @param _receiver Token receiver.\n    function proccessClaim(\n        address _receiver\n    ) internal nonReentrant{\n        require(now > startClaimTimestamp, \"Distribution not started\");\n        UserInfo storage user = userInfo[_receiver];\n        uint256 _amount = user.debt;\n        if (_amount > 0) {\n            user.debt = 0;            \n            distributedTokens = distributedTokens.add(_amount);\n\n            if(vestingPercent > 0)\n            {   \n                uint256 vestingAmount = _amount.mul(vestingPercent).div(100);\n                createVesting(_receiver, vestingAmount);\n                _amount = _amount.sub(vestingAmount);\n            }\n\n            rewardToken.safeTransfer(_receiver, _amount);\n            emit TokensWithdrawn(_receiver,_amount);\n        }\n    }\n\n    function setHasWhitelisting(bool value) external onlyOwner{\n        hasWhitelisting = value;\n        emit HasWhitelistingUpdated(hasWhitelisting);\n    } \n\n    function setEnableTierSystem(bool value) external onlyOwner{\n        enableTierSystem = value;\n        emit EnableTierSystemUpdated(enableTierSystem);\n    } \n\n    function setTierSystem(ITierSystem _tierSystem) external onlyOwner {    \n        tierSystem = _tierSystem;\n    }\n\n    function withdrawFunds() external onlyOwner nonReentrant{\n        if(feeFundsPercent>0){\n            uint256 feeAmount = address(this).balance.mul(feeFundsPercent).div(100);\n            idoMaster.feeWallet().transfer(feeAmount); /* Fee Address */\n            emit FundsFeeWithdrawn(feeAmount);\n        }\n        uint256 amount = address(this).balance;\n        msg.sender.transfer(amount);\n        emit FundsWithdrawn(amount);\n    } \n     \n\n    function withdrawNotSoldTokens() external onlyOwner nonReentrant{\n        require(now > finishTimestamp, \"Allow after finish time\");\n        uint256 amount = rewardToken.balanceOf(address(this)).add(distributedTokens).sub(tokensForDistribution);\n        rewardToken.safeTransfer(msg.sender, amount);\n        emit NotSoldWithdrawn(amount);\n    }\n\n    function getVesting(address beneficiary) public view returns (uint256, uint256) {\n        Vesting memory v = _vestings[beneficiary];\n        return (v.balance, v.released);\n    }\n\n    function createVesting(\n        address beneficiary,\n        uint256 amount\n    ) private {\n        Vesting storage vest = _vestings[beneficiary];\n        require(vest.balance == 0, \"Vesting already created\");\n\n        vest.balance = amount;\n\n        emit VestingCreated(beneficiary, amount);\n    }\n\n     function release(address beneficiary) external nonReentrant {\n        uint256 unreleased = releasableAmount(beneficiary);\n        require(unreleased > 0, \"Nothing to release\");\n\n        Vesting storage vest = _vestings[beneficiary];\n\n        vest.released = vest.released.add(unreleased);\n        vest.balance = vest.balance.sub(unreleased);\n\n        rewardToken.safeTransfer(beneficiary, unreleased);\n        emit VestingReleased(unreleased);\n    }\n\n    function releasableAmount(address beneficiary) public view returns (uint256) {\n        return vestedAmount(beneficiary).sub(_vestings[beneficiary].released);\n    }\n\n    function vestedAmount(address beneficiary) public view returns (uint256) {\n        if (block.timestamp < vestingStart) {\n            return 0;\n        }\n\n        Vesting memory vest = _vestings[beneficiary];\n        uint256 currentBalance = vest.balance;\n        uint256 totalBalance = currentBalance.add(vest.released);\n\n        if (block.timestamp >= vestingStart.add(vestingDuration)) {\n            return totalBalance;\n        } else {\n            uint256 numberOfInvervals = block.timestamp.sub(vestingStart).div(vestingInterval);\n            uint256 totalIntervals = vestingDuration.div(vestingInterval);\n            return totalBalance.mul(numberOfInvervals).div(totalIntervals);\n        }\n    }\n\n    // ============ Version Control ============\n    function version() external pure returns (uint256) {\n        return 101; // 1.0.1\n    }\n}\n",
  "sourcePath": "/Users/kirill/Prog/TosDis/tosdis/contracts/StakeMaster/contracts/IDOPool.sol",
  "compiler": {
    "name": "solc",
    "version": "0.6.12+commit.27d51765.Emscripten.clang"
  },
  "schemaVersion": "3.4.4",
  "updatedAt": "2022-02-18T22:38:29.112Z",
  "devdoc": {
    "kind": "dev",
    "methods": {
      "claim()": {
        "details": "Allows to claim tokens for themselves."
      },
      "claimFor(address[])": {
        "details": "Allows to claim tokens for the specific user.",
        "params": {
          "_addresses": "Token receivers."
        }
      },
      "owner()": {
        "details": "Returns the address of the current owner."
      },
      "pause()": {
        "details": "called by the owner to pause, triggers stopped state"
      },
      "renounceOwnership()": {
        "details": "Leaves the contract without owner. It will not be possible to call `onlyOwner` functions anymore. Can only be called by the current owner. NOTE: Renouncing ownership will leave the contract without an owner, thereby removing any functionality that is only available to the owner."
      },
      "transferOwnership(address)": {
        "details": "Transfers ownership of the contract to a new account (`newOwner`). Can only be called by the current owner."
      },
      "unpause()": {
        "details": "called by the owner to unpause, returns to normal state"
      }
    },
    "version": 1
  },
  "userdoc": {
    "kind": "user",
    "methods": {},
    "version": 1
  }
}