{
  "address": "0x0b95C5439581F6752bFA1C637d3C8AFB758E589c",
  "abi": [
    {
      "inputs": [
        {
          "internalType": "address",
          "name": "_token",
          "type": "address"
        }
      ],
      "stateMutability": "nonpayable",
      "type": "constructor"
    },
    {
      "anonymous": false,
      "inputs": [
        {
          "indexed": true,
          "internalType": "bytes32",
          "name": "orderHash",
          "type": "bytes32"
        },
        {
          "indexed": true,
          "internalType": "address",
          "name": "seller",
          "type": "address"
        },
        {
          "indexed": true,
          "internalType": "address",
          "name": "buyer",
          "type": "address"
        },
        {
          "indexed": false,
          "internalType": "uint256",
          "name": "tokenId",
          "type": "uint256"
        },
        {
          "indexed": false,
          "internalType": "uint256",
          "name": "amount",
          "type": "uint256"
        },
        {
          "indexed": false,
          "internalType": "uint256",
          "name": "price",
          "type": "uint256"
        }
      ],
      "name": "Purchase",
      "type": "event"
    },
    {
      "inputs": [
        {
          "components": [
            {
              "internalType": "address payable",
              "name": "seller",
              "type": "address"
            },
            {
              "internalType": "uint256",
              "name": "tokenId",
              "type": "uint256"
            },
            {
              "internalType": "uint256",
              "name": "amount",
              "type": "uint256"
            },
            {
              "internalType": "uint256",
              "name": "expirationTime",
              "type": "uint256"
            },
            {
              "internalType": "uint256",
              "name": "price",
              "type": "uint256"
            },
            {
              "internalType": "uint256",
              "name": "salt",
              "type": "uint256"
            }
          ],
          "internalType": "struct MetarunExchange.SellOrder",
          "name": "sellOrder",
          "type": "tuple"
        },
        {
          "internalType": "bytes",
          "name": "signature",
          "type": "bytes"
        }
      ],
      "name": "buy",
      "outputs": [],
      "stateMutability": "payable",
      "type": "function"
    },
    {
      "inputs": [
        {
          "components": [
            {
              "internalType": "address payable",
              "name": "seller",
              "type": "address"
            },
            {
              "internalType": "uint256",
              "name": "tokenId",
              "type": "uint256"
            },
            {
              "internalType": "uint256",
              "name": "amount",
              "type": "uint256"
            },
            {
              "internalType": "uint256",
              "name": "expirationTime",
              "type": "uint256"
            },
            {
              "internalType": "uint256",
              "name": "price",
              "type": "uint256"
            },
            {
              "internalType": "uint256",
              "name": "salt",
              "type": "uint256"
            }
          ],
          "internalType": "struct MetarunExchange.SellOrder",
          "name": "sellOrder",
          "type": "tuple"
        }
      ],
      "name": "hashSellOrder",
      "outputs": [
        {
          "internalType": "bytes32",
          "name": "",
          "type": "bytes32"
        }
      ],
      "stateMutability": "view",
      "type": "function"
    },
    {
      "inputs": [],
      "name": "token",
      "outputs": [
        {
          "internalType": "contract IERC1155",
          "name": "",
          "type": "address"
        }
      ],
      "stateMutability": "view",
      "type": "function"
    }
  ],
  "transactionHash": "0x131a6c5f18ff476e05c2075b1d6197f8a5c8ec352df8693ed39b3c9a602fb163",
  "args": [
    "0x167eaf00ddbbbf83d789098ba9A4CBCc69d7C8cE"
  ],
  "numDeployments": 1,
  "solcInputHash": "a5039eef16b9aa9fed0340f6504a7afb",
  "bytecode": "0x6101406040523480156200001257600080fd5b5060405162001873380380620018738339818101604052810190620000389190620002b6565b6040518060400160405280600c81526020017f6d65746172756e2e67616d6500000000000000000000000000000000000000008152506040518060400160405280600381526020017f302e31000000000000000000000000000000000000000000000000000000000081525060008280519060200120905060008280519060200120905060007f8b73c3c69bb8fe3d512ecc4cf759cc79239f7b179b0ffacaa9a75d522b39400f90508260e081815250508161010081815250504660a081815250506200010d8184846200021060201b60201c565b608081815250503073ffffffffffffffffffffffffffffffffffffffff1660c08173ffffffffffffffffffffffffffffffffffffffff16815250508061012081815250505050505050600073ffffffffffffffffffffffffffffffffffffffff168173ffffffffffffffffffffffffffffffffffffffff161415620001c9576040517f08c379a0000000000000000000000000000000000000000000000000000000008152600401620001c09062000349565b60405180910390fd5b806000806101000a81548173ffffffffffffffffffffffffffffffffffffffff021916908373ffffffffffffffffffffffffffffffffffffffff160217905550506200040f565b600083838346306040516020016200022d959493929190620003b2565b6040516020818303038152906040528051906020012090509392505050565b600080fd5b600073ffffffffffffffffffffffffffffffffffffffff82169050919050565b60006200027e8262000251565b9050919050565b620002908162000271565b81146200029c57600080fd5b50565b600081519050620002b08162000285565b92915050565b600060208284031215620002cf57620002ce6200024c565b5b6000620002df848285016200029f565b91505092915050565b600082825260208201905092915050565b7f746f6b656e20616464726573732063616e6e6f74206265207a65726f00000000600082015250565b600062000331601c83620002e8565b91506200033e82620002f9565b602082019050919050565b60006020820190508181036000830152620003648162000322565b9050919050565b6000819050919050565b62000380816200036b565b82525050565b6000819050919050565b6200039b8162000386565b82525050565b620003ac8162000271565b82525050565b600060a082019050620003c9600083018862000375565b620003d8602083018762000375565b620003e7604083018662000375565b620003f6606083018562000390565b620004056080830184620003a1565b9695505050505050565b60805160a05160c05160e05161010051610120516114146200045f6000396000610510015260006105520152600061053101526000610466015260006104bc015260006104e501526114146000f3fe6080604052600436106100345760003560e01c80635e53f14514610039578063a76c881614610076578063fc0c546a14610092575b600080fd5b34801561004557600080fd5b50610060600480360381019061005b9190610b75565b6100bd565b60405161006d9190610bbb565b60405180910390f35b610090600480360381019061008b9190610c90565b610144565b005b34801561009e57600080fd5b506100a76103fd565b6040516100b49190610d4b565b60405180910390f35b6000807f506f2e315ad03a56810fd6bd4798a950bff51cd12e2a1f40bae2969ad4b6cd699050600081846000015185602001518660400151876060015188608001518960a0015160405160200161011a9796959493929190610d84565b60405160208183030381529060405280519060200120905061013b81610421565b92505050919050565b600061014f836100bd565b9050600061015d828461043b565b9050600073ffffffffffffffffffffffffffffffffffffffff168173ffffffffffffffffffffffffffffffffffffffff1614156101cf576040517f08c379a00000000000000000000000000000000000000000000000000000000081526004016101c690610e50565b60405180910390fd5b836000015173ffffffffffffffffffffffffffffffffffffffff168173ffffffffffffffffffffffffffffffffffffffff1614610241576040517f08c379a000000000000000000000000000000000000000000000000000000000815260040161023890610ebc565b60405180910390fd5b83608001513414610287576040517f08c379a000000000000000000000000000000000000000000000000000000000815260040161027e90610f28565b60405180910390fd5b6000610292856100bd565b90503373ffffffffffffffffffffffffffffffffffffffff16856000015173ffffffffffffffffffffffffffffffffffffffff16827f39d7ae3c050edb013db51816405491a59692cc2bae0e948a82fa619991fadaa8886020015189604001518a6080015160405161030693929190610f48565b60405180910390a460008054906101000a900473ffffffffffffffffffffffffffffffffffffffff1673ffffffffffffffffffffffffffffffffffffffff1663f242432a866000015133886020015189604001516040518563ffffffff1660e01b81526004016103799493929190610ff8565b600060405180830381600087803b15801561039357600080fd5b505af11580156103a7573d6000803e3d6000fd5b50505050846000015173ffffffffffffffffffffffffffffffffffffffff166108fc349081150290604051600060405180830381858888f193505050501580156103f5573d6000803e3d6000fd5b505050505050565b60008054906101000a900473ffffffffffffffffffffffffffffffffffffffff1681565b600061043461042e610462565b8361057c565b9050919050565b600080600061044a85856105af565b9150915061045781610632565b819250505092915050565b60007f000000000000000000000000000000000000000000000000000000000000000073ffffffffffffffffffffffffffffffffffffffff163073ffffffffffffffffffffffffffffffffffffffff161480156104de57507f000000000000000000000000000000000000000000000000000000000000000046145b1561050b577f00000000000000000000000000000000000000000000000000000000000000009050610579565b6105767f00000000000000000000000000000000000000000000000000000000000000007f00000000000000000000000000000000000000000000000000000000000000007f0000000000000000000000000000000000000000000000000000000000000000610807565b90505b90565b600082826040516020016105919291906110c8565b60405160208183030381529060405280519060200120905092915050565b6000806041835114156105f15760008060006020860151925060408601519150606086015160001a90506105e587828585610841565b9450945050505061062b565b60408351141561062257600080602085015191506040850151905061061786838361094e565b93509350505061062b565b60006002915091505b9250929050565b60006004811115610646576106456110ff565b5b816004811115610659576106586110ff565b5b141561066457610804565b60016004811115610678576106776110ff565b5b81600481111561068b5761068a6110ff565b5b14156106cc576040517f08c379a00000000000000000000000000000000000000000000000000000000081526004016106c39061117a565b60405180910390fd5b600260048111156106e0576106df6110ff565b5b8160048111156106f3576106f26110ff565b5b1415610734576040517f08c379a000000000000000000000000000000000000000000000000000000000815260040161072b906111e6565b60405180910390fd5b60036004811115610748576107476110ff565b5b81600481111561075b5761075a6110ff565b5b141561079c576040517f08c379a000000000000000000000000000000000000000000000000000000000815260040161079390611278565b60405180910390fd5b6004808111156107af576107ae6110ff565b5b8160048111156107c2576107c16110ff565b5b1415610803576040517f08c379a00000000000000000000000000000000000000000000000000000000081526004016107fa9061130a565b60405180910390fd5b5b50565b6000838383463060405160200161082295949392919061132a565b6040516020818303038152906040528051906020012090509392505050565b6000807f7fffffffffffffffffffffffffffffff5d576e7357a4501ddfe92f46681b20a08360001c111561087c576000600391509150610945565b601b8560ff16141580156108945750601c8560ff1614155b156108a6576000600491509150610945565b6000600187878787604051600081526020016040526040516108cb9493929190611399565b6020604051602081039080840390855afa1580156108ed573d6000803e3d6000fd5b505050602060405103519050600073ffffffffffffffffffffffffffffffffffffffff168173ffffffffffffffffffffffffffffffffffffffff16141561093c57600060019250925050610945565b80600092509250505b94509492505050565b6000806000807f7fffffffffffffffffffffffffffffffffffffffffffffffffffffffffffffff85169150601b8560ff1c01905061098e87828885610841565b935093505050935093915050565b6000604051905090565b600080fd5b600080fd5b600080fd5b6000601f19601f8301169050919050565b7f4e487b7100000000000000000000000000000000000000000000000000000000600052604160045260246000fd5b6109fe826109b5565b810181811067ffffffffffffffff82111715610a1d57610a1c6109c6565b5b80604052505050565b6000610a3061099c565b9050610a3c82826109f5565b919050565b600073ffffffffffffffffffffffffffffffffffffffff82169050919050565b6000610a6c82610a41565b9050919050565b610a7c81610a61565b8114610a8757600080fd5b50565b600081359050610a9981610a73565b92915050565b6000819050919050565b610ab281610a9f565b8114610abd57600080fd5b50565b600081359050610acf81610aa9565b92915050565b600060c08284031215610aeb57610aea6109b0565b5b610af560c0610a26565b90506000610b0584828501610a8a565b6000830152506020610b1984828501610ac0565b6020830152506040610b2d84828501610ac0565b6040830152506060610b4184828501610ac0565b6060830152506080610b5584828501610ac0565b60808301525060a0610b6984828501610ac0565b60a08301525092915050565b600060c08284031215610b8b57610b8a6109a6565b5b6000610b9984828501610ad5565b91505092915050565b6000819050919050565b610bb581610ba2565b82525050565b6000602082019050610bd06000830184610bac565b92915050565b600080fd5b600080fd5b600067ffffffffffffffff821115610bfb57610bfa6109c6565b5b610c04826109b5565b9050602081019050919050565b82818337600083830152505050565b6000610c33610c2e84610be0565b610a26565b905082815260208101848484011115610c4f57610c4e610bdb565b5b610c5a848285610c11565b509392505050565b600082601f830112610c7757610c76610bd6565b5b8135610c87848260208601610c20565b91505092915050565b60008060e08385031215610ca757610ca66109a6565b5b6000610cb585828601610ad5565b92505060c083013567ffffffffffffffff811115610cd657610cd56109ab565b5b610ce285828601610c62565b9150509250929050565b6000819050919050565b6000610d11610d0c610d0784610a41565b610cec565b610a41565b9050919050565b6000610d2382610cf6565b9050919050565b6000610d3582610d18565b9050919050565b610d4581610d2a565b82525050565b6000602082019050610d606000830184610d3c565b92915050565b610d6f81610a61565b82525050565b610d7e81610a9f565b82525050565b600060e082019050610d99600083018a610bac565b610da66020830189610d66565b610db36040830188610d75565b610dc06060830187610d75565b610dcd6080830186610d75565b610dda60a0830185610d75565b610de760c0830184610d75565b98975050505050505050565b600082825260208201905092915050565b7f4241445f5349474e415455524500000000000000000000000000000000000000600082015250565b6000610e3a600d83610df3565b9150610e4582610e04565b602082019050919050565b60006020820190508181036000830152610e6981610e2d565b9050919050565b7f424144205349474e455200000000000000000000000000000000000000000000600082015250565b6000610ea6600a83610df3565b9150610eb182610e70565b602082019050919050565b60006020820190508181036000830152610ed581610e99565b9050919050565b7f4241442056414c55450000000000000000000000000000000000000000000000600082015250565b6000610f12600983610df3565b9150610f1d82610edc565b602082019050919050565b60006020820190508181036000830152610f4181610f05565b9050919050565b6000606082019050610f5d6000830186610d75565b610f6a6020830185610d75565b610f776040830184610d75565b949350505050565b6000610f8a82610d18565b9050919050565b610f9a81610f7f565b82525050565b6000610fab82610a41565b9050919050565b610fbb81610fa0565b82525050565b600082825260208201905092915050565b50565b6000610fe2600083610fc1565b9150610fed82610fd2565b600082019050919050565b600060a08201905061100d6000830187610f91565b61101a6020830186610fb2565b6110276040830185610d75565b6110346060830184610d75565b818103608083015261104581610fd5565b905095945050505050565b600081905092915050565b7f1901000000000000000000000000000000000000000000000000000000000000600082015250565b6000611091600283611050565b915061109c8261105b565b600282019050919050565b6000819050919050565b6110c26110bd82610ba2565b6110a7565b82525050565b60006110d382611084565b91506110df82856110b1565b6020820191506110ef82846110b1565b6020820191508190509392505050565b7f4e487b7100000000000000000000000000000000000000000000000000000000600052602160045260246000fd5b7f45434453413a20696e76616c6964207369676e61747572650000000000000000600082015250565b6000611164601883610df3565b915061116f8261112e565b602082019050919050565b6000602082019050818103600083015261119381611157565b9050919050565b7f45434453413a20696e76616c6964207369676e6174757265206c656e67746800600082015250565b60006111d0601f83610df3565b91506111db8261119a565b602082019050919050565b600060208201905081810360008301526111ff816111c3565b9050919050565b7f45434453413a20696e76616c6964207369676e6174757265202773272076616c60008201527f7565000000000000000000000000000000000000000000000000000000000000602082015250565b6000611262602283610df3565b915061126d82611206565b604082019050919050565b6000602082019050818103600083015261129181611255565b9050919050565b7f45434453413a20696e76616c6964207369676e6174757265202776272076616c60008201527f7565000000000000000000000000000000000000000000000000000000000000602082015250565b60006112f4602283610df3565b91506112ff82611298565b604082019050919050565b60006020820190508181036000830152611323816112e7565b9050919050565b600060a08201905061133f6000830188610bac565b61134c6020830187610bac565b6113596040830186610bac565b6113666060830185610d75565b6113736080830184610fb2565b9695505050505050565b600060ff82169050919050565b6113938161137d565b82525050565b60006080820190506113ae6000830187610bac565b6113bb602083018661138a565b6113c86040830185610bac565b6113d56060830184610bac565b9594505050505056fea26469706673582212205f10ab35d4d9f04f178ce6e0351d72b7d6175380d7561d00e9320a3294ac9a9a64736f6c634300080b0033",
  "devdoc": {
    "details": "Ensures the sale of tokens (exchanging them on Ether) by matching orders",
    "events": {
      "Purchase(bytes32,address,address,uint256,uint256,uint256)": {
        "details": "Gets emitted on token purchase"
      }
    },
    "kind": "dev",
    "methods": {},
    "title": "Metarun ERC-1155 exchange",
    "version": 1
  },
  "userdoc": {
    "kind": "user",
    "methods": {},
    "version": 1
  },
  "storageLayout": {
    "storage": [
      {
        "astId": 890,
        "contract": "contracts/MetarunExchange.sol:MetarunExchange",
        "label": "token",
        "offset": 0,
        "slot": "0",
        "type": "t_contract(IERC1155)121"
      }
    ],
    "types": {
      "t_contract(IERC1155)121": {
        "encoding": "inplace",
        "label": "contract IERC1155",
        "numberOfBytes": "20"
      }
    }
  }
}