{
  "address": "0xeAb8d75A6A0AC2497f7a403Cf70D4b2D0bF0ad67",
  "abi": [
    {
      "inputs": [
        {
          "internalType": "address",
          "name": "token",
          "type": "address"
        }
      ],
      "stateMutability": "nonpayable",
      "type": "constructor"
    },
    {
      "anonymous": false,
      "inputs": [
        {
          "indexed": false,
          "internalType": "uint256",
          "name": "amount",
          "type": "uint256"
        }
      ],
      "name": "Released",
      "type": "event"
    },
    {
      "inputs": [
        {
          "internalType": "address",
          "name": "beneficiary",
          "type": "address"
        },
        {
          "internalType": "uint256",
          "name": "start",
          "type": "uint256"
        },
        {
          "internalType": "uint256",
          "name": "interval",
          "type": "uint256"
        },
        {
          "internalType": "uint256",
          "name": "duration",
          "type": "uint256"
        },
        {
          "internalType": "uint256",
          "name": "amount",
          "type": "uint256"
        }
      ],
      "name": "createVesting",
      "outputs": [],
      "stateMutability": "nonpayable",
      "type": "function"
    },
    {
      "inputs": [
        {
          "internalType": "address",
          "name": "beneficiary",
          "type": "address"
        }
      ],
      "name": "getVesting",
      "outputs": [
        {
          "internalType": "uint256",
          "name": "",
          "type": "uint256"
        },
        {
          "internalType": "uint256",
          "name": "",
          "type": "uint256"
        },
        {
          "internalType": "uint256",
          "name": "",
          "type": "uint256"
        },
        {
          "internalType": "uint256",
          "name": "",
          "type": "uint256"
        },
        {
          "internalType": "uint256",
          "name": "",
          "type": "uint256"
        }
      ],
      "stateMutability": "view",
      "type": "function"
    },
    {
      "inputs": [
        {
          "internalType": "uint256",
          "name": "start",
          "type": "uint256"
        }
      ],
      "name": "postponeVesting",
      "outputs": [],
      "stateMutability": "nonpayable",
      "type": "function"
    },
    {
      "inputs": [
        {
          "internalType": "address",
          "name": "beneficiary",
          "type": "address"
        }
      ],
      "name": "releasableAmount",
      "outputs": [
        {
          "internalType": "uint256",
          "name": "",
          "type": "uint256"
        }
      ],
      "stateMutability": "view",
      "type": "function"
    },
    {
      "inputs": [
        {
          "internalType": "address",
          "name": "beneficiary",
          "type": "address"
        }
      ],
      "name": "release",
      "outputs": [],
      "stateMutability": "nonpayable",
      "type": "function"
    },
    {
      "inputs": [
        {
          "internalType": "address",
          "name": "beneficiary",
          "type": "address"
        }
      ],
      "name": "vestedAmount",
      "outputs": [
        {
          "internalType": "uint256",
          "name": "",
          "type": "uint256"
        }
      ],
      "stateMutability": "view",
      "type": "function"
    }
  ],
  "transactionHash": "0x9916f085a83b5a6a61187c8518987c7b3f55d626ab0543dadfd04ba93ae3528c",
  "args": [
    "0x493aB143bb745B82353550D6cDBD81fc13066876"
  ],
  "numDeployments": 1,
  "solcInputHash": "e6cba9a528ca57314ec31f95fdeafe4a",
  "bytecode": "0x60806040523480156200001157600080fd5b50604051620019c9380380620019c9833981810160405281019062000037919062000164565b6001600081905550600073ffffffffffffffffffffffffffffffffffffffff168173ffffffffffffffffffffffffffffffffffffffff161415620000b2576040517f08c379a0000000000000000000000000000000000000000000000000000000008152600401620000a990620001f7565b60405180910390fd5b80600160006101000a81548173ffffffffffffffffffffffffffffffffffffffff021916908373ffffffffffffffffffffffffffffffffffffffff1602179055505062000219565b600080fd5b600073ffffffffffffffffffffffffffffffffffffffff82169050919050565b60006200012c82620000ff565b9050919050565b6200013e816200011f565b81146200014a57600080fd5b50565b6000815190506200015e8162000133565b92915050565b6000602082840312156200017d576200017c620000fa565b5b60006200018d848285016200014d565b91505092915050565b600082825260208201905092915050565b7f746f6b656e20616464726573732063616e6e6f74206265207a65726f00000000600082015250565b6000620001df601c8362000196565b9150620001ec82620001a7565b602082019050919050565b600060208201905081810360008301526200021281620001d0565b9050919050565b6117a080620002296000396000f3fe608060405234801561001057600080fd5b50600436106100625760003560e01c80631726cbc8146100675780631916558714610097578063384711cc146100b3578063b5ec0b97146100e3578063cc49ede7146100ff578063eab23abe14610133575b600080fd5b610081600480360381019061007c9190610c82565b61014f565b60405161008e9190610cc8565b60405180910390f35b6100b160048036038101906100ac9190610c82565b6101b5565b005b6100cd60048036038101906100c89190610c82565b610365565b6040516100da9190610cc8565b60405180910390f35b6100fd60048036038101906100f89190610d0f565b6104b8565b005b61011960048036038101906101149190610c82565b61059d565b60405161012a959493929190610d3c565b60405180910390f35b61014d60048036038101906101489190610d8f565b610651565b005b60006101ae600260008473ffffffffffffffffffffffffffffffffffffffff1673ffffffffffffffffffffffffffffffffffffffff168152602001908152602001600020600401546101a084610365565b61084390919063ffffffff16565b9050919050565b600260005414156101fb576040517f08c379a00000000000000000000000000000000000000000000000000000000081526004016101f290610e67565b60405180910390fd5b6002600081905550600061020e8261014f565b905060008111610253576040517f08c379a000000000000000000000000000000000000000000000000000000000815260040161024a90610ef9565b60405180910390fd5b6000600260008473ffffffffffffffffffffffffffffffffffffffff1673ffffffffffffffffffffffffffffffffffffffff16815260200190815260200160002090506102ad82826004015461085990919063ffffffff16565b81600401819055506102cc82826003015461084390919063ffffffff16565b81600301819055506103218383600160009054906101000a900473ffffffffffffffffffffffffffffffffffffffff1673ffffffffffffffffffffffffffffffffffffffff1661086f9092919063ffffffff16565b7ffb81f9b30d73d830c3544b34d827c08142579ee75710b490bab0b3995468c565826040516103509190610cc8565b60405180910390a15050600160008190555050565b600080600260008473ffffffffffffffffffffffffffffffffffffffff1673ffffffffffffffffffffffffffffffffffffffff1681526020019081526020016000206040518060a0016040529081600082015481526020016001820154815260200160028201548152602001600382015481526020016004820154815250509050600081606001519050600061040883608001518361085990919063ffffffff16565b90506104258360400151846000015161085990919063ffffffff16565b4210610436578093505050506104b3565b6000610465846020015161045786600001514261084390919063ffffffff16565b6108f590919063ffffffff16565b90506000610484856020015186604001516108f590919063ffffffff16565b90506104ab8161049d848661090b90919063ffffffff16565b6108f590919063ffffffff16565b955050505050505b919050565b6000600260006104c6610921565b73ffffffffffffffffffffffffffffffffffffffff1673ffffffffffffffffffffffffffffffffffffffff168152602001908152602001600020905060008160030154141561054a576040517f08c379a000000000000000000000000000000000000000000000000000000000815260040161054190610fb1565b60405180910390fd5b81816000015410610590576040517f08c379a000000000000000000000000000000000000000000000000000000000815260040161058790611069565b60405180910390fd5b8181600001819055505050565b600080600080600080600260008873ffffffffffffffffffffffffffffffffffffffff1673ffffffffffffffffffffffffffffffffffffffff1681526020019081526020016000206040518060a001604052908160008201548152602001600182015481526020016002820154815260200160038201548152602001600482015481525050905080600001518160200151826040015183606001518460800151955095509550955095505091939590929450565b60026000541415610697576040517f08c379a000000000000000000000000000000000000000000000000000000000815260040161068e90610e67565b60405180910390fd5b6002600081905550600083116106e2576040517f08c379a00000000000000000000000000000000000000000000000000000000081526004016106d9906110fb565b60405180910390fd5b82821015610725576040517f08c379a000000000000000000000000000000000000000000000000000000000815260040161071c906111b3565b60405180910390fd5b6000600260008773ffffffffffffffffffffffffffffffffffffffff1673ffffffffffffffffffffffffffffffffffffffff168152602001908152602001600020905060008160030154146107af576040517f08c379a00000000000000000000000000000000000000000000000000000000081526004016107a69061126b565b60405180910390fd5b6108056107ba610921565b3084600160009054906101000a900473ffffffffffffffffffffffffffffffffffffffff1673ffffffffffffffffffffffffffffffffffffffff16610929909392919063ffffffff16565b848160000181905550838160010181905550828160020181905550818160030181905550600081600401819055505060016000819055505050505050565b6000818361085191906112ba565b905092915050565b6000818361086791906112ee565b905092915050565b6108f08363a9059cbb60e01b848460405160240161088e929190611353565b604051602081830303815290604052907bffffffffffffffffffffffffffffffffffffffffffffffffffffffff19166020820180517bffffffffffffffffffffffffffffffffffffffffffffffffffffffff83818316178352505050506109b2565b505050565b6000818361090391906113ab565b905092915050565b6000818361091991906113dc565b905092915050565b600033905090565b6109ac846323b872dd60e01b85858560405160240161094a93929190611436565b604051602081830303815290604052907bffffffffffffffffffffffffffffffffffffffffffffffffffffffff19166020820180517bffffffffffffffffffffffffffffffffffffffffffffffffffffffff83818316178352505050506109b2565b50505050565b6000610a14826040518060400160405280602081526020017f5361666545524332303a206c6f772d6c6576656c2063616c6c206661696c65648152508573ffffffffffffffffffffffffffffffffffffffff16610a799092919063ffffffff16565b9050600081511115610a745780806020019051810190610a3491906114a5565b610a73576040517f08c379a0000000000000000000000000000000000000000000000000000000008152600401610a6a90611544565b60405180910390fd5b5b505050565b6060610a888484600085610a91565b90509392505050565b606082471015610ad6576040517f08c379a0000000000000000000000000000000000000000000000000000000008152600401610acd906115d6565b60405180910390fd5b610adf85610ba5565b610b1e576040517f08c379a0000000000000000000000000000000000000000000000000000000008152600401610b1590611642565b60405180910390fd5b6000808673ffffffffffffffffffffffffffffffffffffffff168587604051610b4791906116dc565b60006040518083038185875af1925050503d8060008114610b84576040519150601f19603f3d011682016040523d82523d6000602084013e610b89565b606091505b5091509150610b99828286610bb8565b92505050949350505050565b600080823b905060008111915050919050565b60608315610bc857829050610c18565b600083511115610bdb5782518084602001fd5b816040517f08c379a0000000000000000000000000000000000000000000000000000000008152600401610c0f9190611748565b60405180910390fd5b9392505050565b600080fd5b600073ffffffffffffffffffffffffffffffffffffffff82169050919050565b6000610c4f82610c24565b9050919050565b610c5f81610c44565b8114610c6a57600080fd5b50565b600081359050610c7c81610c56565b92915050565b600060208284031215610c9857610c97610c1f565b5b6000610ca684828501610c6d565b91505092915050565b6000819050919050565b610cc281610caf565b82525050565b6000602082019050610cdd6000830184610cb9565b92915050565b610cec81610caf565b8114610cf757600080fd5b50565b600081359050610d0981610ce3565b92915050565b600060208284031215610d2557610d24610c1f565b5b6000610d3384828501610cfa565b91505092915050565b600060a082019050610d516000830188610cb9565b610d5e6020830187610cb9565b610d6b6040830186610cb9565b610d786060830185610cb9565b610d856080830184610cb9565b9695505050505050565b600080600080600060a08688031215610dab57610daa610c1f565b5b6000610db988828901610c6d565b9550506020610dca88828901610cfa565b9450506040610ddb88828901610cfa565b9350506060610dec88828901610cfa565b9250506080610dfd88828901610cfa565b9150509295509295909350565b600082825260208201905092915050565b7f5265656e7472616e637947756172643a207265656e7472616e742063616c6c00600082015250565b6000610e51601f83610e0a565b9150610e5c82610e1b565b602082019050919050565b60006020820190508181036000830152610e8081610e44565b9050919050565b7f546f6b656e56657374696e67202372656c656173653a206e6f7468696e67207460008201527f6f2072656c656173650000000000000000000000000000000000000000000000602082015250565b6000610ee3602983610e0a565b9150610eee82610e87565b604082019050919050565b60006020820190508181036000830152610f1281610ed6565b9050919050565b7f546f6b656e56657374696e672023706f7374706f6e6556657374696e673a207660008201527f657374696e6720666f722062656e656669636961727920646f6573206e6f742060208201527f6578697374000000000000000000000000000000000000000000000000000000604082015250565b6000610f9b604583610e0a565b9150610fa682610f19565b606082019050919050565b60006020820190508181036000830152610fca81610f8e565b9050919050565b7f546f6b656e56657374696e672023706f7374706f6e6556657374696e673a206e60008201527f657720737461727420646174652063616e6e6f74206265206561726c6965722060208201527f7468616e206f726967696e616c20737461727420646174650000000000000000604082015250565b6000611053605883610e0a565b915061105e82610fd1565b606082019050919050565b6000602082019050818103600083015261108281611046565b9050919050565b7f546f6b656e56657374696e67202363726561746556657374696e673a20696e7460008201527f657276616c206d7573742062652067726561746572207468616e203000000000602082015250565b60006110e5603c83610e0a565b91506110f082611089565b604082019050919050565b60006020820190508181036000830152611114816110d8565b9050919050565b7f546f6b656e56657374696e67202363726561746556657374696e673a20696e7460008201527f657276616c2063616e6e6f7420626520626967676572207468616e206475726160208201527f74696f6e00000000000000000000000000000000000000000000000000000000604082015250565b600061119d604483610e0a565b91506111a88261111b565b606082019050919050565b600060208201905081810360008301526111cc81611190565b9050919050565b7f546f6b656e56657374696e67202363726561746556657374696e673a2076657360008201527f74696e6720666f722062656e656669636961727920616c72656164792063726560208201527f6174656400000000000000000000000000000000000000000000000000000000604082015250565b6000611255604483610e0a565b9150611260826111d3565b606082019050919050565b6000602082019050818103600083015261128481611248565b9050919050565b7f4e487b7100000000000000000000000000000000000000000000000000000000600052601160045260246000fd5b60006112c582610caf565b91506112d083610caf565b9250828210156112e3576112e261128b565b5b828203905092915050565b60006112f982610caf565b915061130483610caf565b9250827fffffffffffffffffffffffffffffffffffffffffffffffffffffffffffffffff038211156113395761133861128b565b5b828201905092915050565b61134d81610c44565b82525050565b60006040820190506113686000830185611344565b6113756020830184610cb9565b9392505050565b7f4e487b7100000000000000000000000000000000000000000000000000000000600052601260045260246000fd5b60006113b682610caf565b91506113c183610caf565b9250826113d1576113d061137c565b5b828204905092915050565b60006113e782610caf565b91506113f283610caf565b9250817fffffffffffffffffffffffffffffffffffffffffffffffffffffffffffffffff048311821515161561142b5761142a61128b565b5b828202905092915050565b600060608201905061144b6000830186611344565b6114586020830185611344565b6114656040830184610cb9565b949350505050565b60008115159050919050565b6114828161146d565b811461148d57600080fd5b50565b60008151905061149f81611479565b92915050565b6000602082840312156114bb576114ba610c1f565b5b60006114c984828501611490565b91505092915050565b7f5361666545524332303a204552433230206f7065726174696f6e20646964206e60008201527f6f74207375636365656400000000000000000000000000000000000000000000602082015250565b600061152e602a83610e0a565b9150611539826114d2565b604082019050919050565b6000602082019050818103600083015261155d81611521565b9050919050565b7f416464726573733a20696e73756666696369656e742062616c616e636520666f60008201527f722063616c6c0000000000000000000000000000000000000000000000000000602082015250565b60006115c0602683610e0a565b91506115cb82611564565b604082019050919050565b600060208201905081810360008301526115ef816115b3565b9050919050565b7f416464726573733a2063616c6c20746f206e6f6e2d636f6e7472616374000000600082015250565b600061162c601d83610e0a565b9150611637826115f6565b602082019050919050565b6000602082019050818103600083015261165b8161161f565b9050919050565b600081519050919050565b600081905092915050565b60005b8381101561169657808201518184015260208101905061167b565b838111156116a5576000848401525b50505050565b60006116b682611662565b6116c0818561166d565b93506116d0818560208601611678565b80840191505092915050565b60006116e882846116ab565b915081905092915050565b600081519050919050565b6000601f19601f8301169050919050565b600061171a826116f3565b6117248185610e0a565b9350611734818560208601611678565b61173d816116fe565b840191505092915050565b60006020820190508181036000830152611762818461170f565b90509291505056fea2646970667358221220b3a267655dc1675744eb4bd01e3e5f20bf6d694c00008e5d57de7af8c2c18db364736f6c634300080b0033",
  "devdoc": {
    "details": "A token holder contract that can release its token balance gradually like a typical vesting scheme, with a cliff and vesting period. Optionally revocable by the owner.",
    "kind": "dev",
    "methods": {},
    "title": "TokenVesting",
    "version": 1
  },
  "userdoc": {
    "kind": "user",
    "methods": {},
    "version": 1
  },
  "storageLayout": {
    "storage": [
      {
        "astId": 10,
        "contract": "contracts/TokenVesting.sol:TokenVesting",
        "label": "_status",
        "offset": 0,
        "slot": "0",
        "type": "t_uint256"
      },
      {
        "astId": 998,
        "contract": "contracts/TokenVesting.sol:TokenVesting",
        "label": "_token",
        "offset": 0,
        "slot": "1",
        "type": "t_contract(IERC20)117"
      },
      {
        "astId": 1014,
        "contract": "contracts/TokenVesting.sol:TokenVesting",
        "label": "_vestings",
        "offset": 0,
        "slot": "2",
        "type": "t_mapping(t_address,t_struct(Vesting)1009_storage)"
      }
    ],
    "types": {
      "t_address": {
        "encoding": "inplace",
        "label": "address",
        "numberOfBytes": "20"
      },
      "t_contract(IERC20)117": {
        "encoding": "inplace",
        "label": "contract IERC20",
        "numberOfBytes": "20"
      },
      "t_mapping(t_address,t_struct(Vesting)1009_storage)": {
        "encoding": "mapping",
        "key": "t_address",
        "label": "mapping(address => struct TokenVesting.Vesting)",
        "numberOfBytes": "32",
        "value": "t_struct(Vesting)1009_storage"
      },
      "t_struct(Vesting)1009_storage": {
        "encoding": "inplace",
        "label": "struct TokenVesting.Vesting",
        "members": [
          {
            "astId": 1000,
            "contract": "contracts/TokenVesting.sol:TokenVesting",
            "label": "start",
            "offset": 0,
            "slot": "0",
            "type": "t_uint256"
          },
          {
            "astId": 1002,
            "contract": "contracts/TokenVesting.sol:TokenVesting",
            "label": "interval",
            "offset": 0,
            "slot": "1",
            "type": "t_uint256"
          },
          {
            "astId": 1004,
            "contract": "contracts/TokenVesting.sol:TokenVesting",
            "label": "duration",
            "offset": 0,
            "slot": "2",
            "type": "t_uint256"
          },
          {
            "astId": 1006,
            "contract": "contracts/TokenVesting.sol:TokenVesting",
            "label": "balance",
            "offset": 0,
            "slot": "3",
            "type": "t_uint256"
          },
          {
            "astId": 1008,
            "contract": "contracts/TokenVesting.sol:TokenVesting",
            "label": "released",
            "offset": 0,
            "slot": "4",
            "type": "t_uint256"
          }
        ],
        "numberOfBytes": "160"
      },
      "t_uint256": {
        "encoding": "inplace",
        "label": "uint256",
        "numberOfBytes": "32"
      }
    }
  }
}