{
  "address": "0xfDf0DC270DCC6b1309016401FF0678Ed71b6e616",
  "abi": [
    {
      "inputs": [
        {
          "internalType": "address",
          "name": "token",
          "type": "address"
        }
      ],
      "stateMutability": "nonpayable",
      "type": "constructor"
    },
    {
      "anonymous": false,
      "inputs": [
        {
          "indexed": false,
          "internalType": "uint256",
          "name": "amount",
          "type": "uint256"
        }
      ],
      "name": "Released",
      "type": "event"
    },
    {
      "inputs": [
        {
          "internalType": "address",
          "name": "beneficiary",
          "type": "address"
        },
        {
          "internalType": "uint256",
          "name": "start",
          "type": "uint256"
        },
        {
          "internalType": "uint256",
          "name": "interval",
          "type": "uint256"
        },
        {
          "internalType": "uint256",
          "name": "duration",
          "type": "uint256"
        },
        {
          "internalType": "uint256",
          "name": "amount",
          "type": "uint256"
        }
      ],
      "name": "createVesting",
      "outputs": [],
      "stateMutability": "nonpayable",
      "type": "function"
    },
    {
      "inputs": [
        {
          "internalType": "address",
          "name": "beneficiary",
          "type": "address"
        }
      ],
      "name": "getVesting",
      "outputs": [
        {
          "internalType": "uint256",
          "name": "",
          "type": "uint256"
        },
        {
          "internalType": "uint256",
          "name": "",
          "type": "uint256"
        },
        {
          "internalType": "uint256",
          "name": "",
          "type": "uint256"
        },
        {
          "internalType": "uint256",
          "name": "",
          "type": "uint256"
        },
        {
          "internalType": "uint256",
          "name": "",
          "type": "uint256"
        }
      ],
      "stateMutability": "view",
      "type": "function"
    },
    {
      "inputs": [
        {
          "internalType": "uint256",
          "name": "start",
          "type": "uint256"
        }
      ],
      "name": "postponeVesting",
      "outputs": [],
      "stateMutability": "nonpayable",
      "type": "function"
    },
    {
      "inputs": [
        {
          "internalType": "address",
          "name": "beneficiary",
          "type": "address"
        }
      ],
      "name": "releasableAmount",
      "outputs": [
        {
          "internalType": "uint256",
          "name": "",
          "type": "uint256"
        }
      ],
      "stateMutability": "view",
      "type": "function"
    },
    {
      "inputs": [
        {
          "internalType": "address",
          "name": "beneficiary",
          "type": "address"
        }
      ],
      "name": "release",
      "outputs": [],
      "stateMutability": "nonpayable",
      "type": "function"
    },
    {
      "inputs": [
        {
          "internalType": "address",
          "name": "beneficiary",
          "type": "address"
        }
      ],
      "name": "vestedAmount",
      "outputs": [
        {
          "internalType": "uint256",
          "name": "",
          "type": "uint256"
        }
      ],
      "stateMutability": "view",
      "type": "function"
    }
  ],
  "transactionHash": "0x4d5ffddbbc0ea987e8ae5a66ab08177045588d6943d41237799fd5ac5e34de01",
  "args": [
    "0x538f809c51BB2F9ad3c260cFe1C471dC6A2d58D4"
  ],
  "numDeployments": 1,
  "solcInputHash": "796b4c3103983be3e4344ce7abf3fc39",
  "bytecode": "0x60806040523480156200001157600080fd5b5060405162001b5038038062001b50833981810160405281019062000037919062000164565b6001600081905550600073ffffffffffffffffffffffffffffffffffffffff168173ffffffffffffffffffffffffffffffffffffffff161415620000b2576040517f08c379a0000000000000000000000000000000000000000000000000000000008152600401620000a990620001f7565b60405180910390fd5b80600160006101000a81548173ffffffffffffffffffffffffffffffffffffffff021916908373ffffffffffffffffffffffffffffffffffffffff1602179055505062000219565b600080fd5b600073ffffffffffffffffffffffffffffffffffffffff82169050919050565b60006200012c82620000ff565b9050919050565b6200013e816200011f565b81146200014a57600080fd5b50565b6000815190506200015e8162000133565b92915050565b6000602082840312156200017d576200017c620000fa565b5b60006200018d848285016200014d565b91505092915050565b600082825260208201905092915050565b7f746f6b656e20616464726573732063616e6e6f74206265207a65726f00000000600082015250565b6000620001df601c8362000196565b9150620001ec82620001a7565b602082019050919050565b600060208201905081810360008301526200021281620001d0565b9050919050565b61192780620002296000396000f3fe608060405234801561001057600080fd5b50600436106100625760003560e01c80631726cbc8146100675780631916558714610097578063384711cc146100b3578063b5ec0b97146100e3578063cc49ede7146100ff578063eab23abe14610133575b600080fd5b610081600480360381019061007c9190610dd9565b61014f565b60405161008e9190610e1f565b60405180910390f35b6100b160048036038101906100ac9190610dd9565b610247565b005b6100cd60048036038101906100c89190610dd9565b6103f7565b6040516100da9190610e1f565b60405180910390f35b6100fd60048036038101906100f89190610e66565b61054a565b005b61011960048036038101906101149190610dd9565b61062f565b60405161012a959493929190610e93565b60405180910390f35b61014d60048036038101906101489190610ee6565b6106e3565b005b60008061015b836103f7565b90506000600260008573ffffffffffffffffffffffffffffffffffffffff1673ffffffffffffffffffffffffffffffffffffffff1681526020019081526020016000206004015490506101e36040518060400160405280601981526020017f766573746564416d6f756e742862656e65666963696172792900000000000000815250836108d5565b6102226040518060400160405280600881526020017f72656c6561736564000000000000000000000000000000000000000000000000815250826108d5565b61023e6000610230866103f7565b61097190919063ffffffff16565b92505050919050565b6002600054141561028d576040517f08c379a000000000000000000000000000000000000000000000000000000000815260040161028490610fbe565b60405180910390fd5b600260008190555060006102a08261014f565b9050600081116102e5576040517f08c379a00000000000000000000000000000000000000000000000000000000081526004016102dc90611050565b60405180910390fd5b6000600260008473ffffffffffffffffffffffffffffffffffffffff1673ffffffffffffffffffffffffffffffffffffffff168152602001908152602001600020905061033f82826004015461098790919063ffffffff16565b816004018190555061035e82826003015461097190919063ffffffff16565b81600301819055506103b38383600160009054906101000a900473ffffffffffffffffffffffffffffffffffffffff1673ffffffffffffffffffffffffffffffffffffffff1661099d9092919063ffffffff16565b7ffb81f9b30d73d830c3544b34d827c08142579ee75710b490bab0b3995468c565826040516103e29190610e1f565b60405180910390a15050600160008190555050565b600080600260008473ffffffffffffffffffffffffffffffffffffffff1673ffffffffffffffffffffffffffffffffffffffff1681526020019081526020016000206040518060a0016040529081600082015481526020016001820154815260200160028201548152602001600382015481526020016004820154815250509050600081606001519050600061049a83608001518361098790919063ffffffff16565b90506104b78360400151846000015161098790919063ffffffff16565b42106104c857809350505050610545565b60006104f784602001516104e986600001514261097190919063ffffffff16565b610a2390919063ffffffff16565b9050600061051685602001518660400151610a2390919063ffffffff16565b905061053d8161052f8486610a3990919063ffffffff16565b610a2390919063ffffffff16565b955050505050505b919050565b600060026000610558610a4f565b73ffffffffffffffffffffffffffffffffffffffff1673ffffffffffffffffffffffffffffffffffffffff16815260200190815260200160002090506000816003015414156105dc576040517f08c379a00000000000000000000000000000000000000000000000000000000081526004016105d390611108565b60405180910390fd5b81816000015410610622576040517f08c379a0000000000000000000000000000000000000000000000000000000008152600401610619906111c0565b60405180910390fd5b8181600001819055505050565b600080600080600080600260008873ffffffffffffffffffffffffffffffffffffffff1673ffffffffffffffffffffffffffffffffffffffff1681526020019081526020016000206040518060a001604052908160008201548152602001600182015481526020016002820154815260200160038201548152602001600482015481525050905080600001518160200151826040015183606001518460800151955095509550955095505091939590929450565b60026000541415610729576040517f08c379a000000000000000000000000000000000000000000000000000000000815260040161072090610fbe565b60405180910390fd5b600260008190555060008311610774576040517f08c379a000000000000000000000000000000000000000000000000000000000815260040161076b90611252565b60405180910390fd5b828210156107b7576040517f08c379a00000000000000000000000000000000000000000000000000000000081526004016107ae9061130a565b60405180910390fd5b6000600260008773ffffffffffffffffffffffffffffffffffffffff1673ffffffffffffffffffffffffffffffffffffffff16815260200190815260200160002090506000816003015414610841576040517f08c379a0000000000000000000000000000000000000000000000000000000008152600401610838906113c2565b60405180910390fd5b61089761084c610a4f565b3084600160009054906101000a900473ffffffffffffffffffffffffffffffffffffffff1673ffffffffffffffffffffffffffffffffffffffff16610a57909392919063ffffffff16565b848160000181905550838160010181905550828160020181905550818160030181905550600081600401819055505060016000819055505050505050565b61096d82826040516024016108eb92919061146a565b6040516020818303038152906040527f9710a9d0000000000000000000000000000000000000000000000000000000007bffffffffffffffffffffffffffffffffffffffffffffffffffffffff19166020820180517bffffffffffffffffffffffffffffffffffffffffffffffffffffffff8381831617835250505050610ae0565b5050565b6000818361097f91906114c9565b905092915050565b6000818361099591906114fd565b905092915050565b610a1e8363a9059cbb60e01b84846040516024016109bc929190611562565b604051602081830303815290604052907bffffffffffffffffffffffffffffffffffffffffffffffffffffffff19166020820180517bffffffffffffffffffffffffffffffffffffffffffffffffffffffff8381831617835250505050610b09565b505050565b60008183610a3191906115ba565b905092915050565b60008183610a4791906115eb565b905092915050565b600033905090565b610ada846323b872dd60e01b858585604051602401610a7893929190611645565b604051602081830303815290604052907bffffffffffffffffffffffffffffffffffffffffffffffffffffffff19166020820180517bffffffffffffffffffffffffffffffffffffffffffffffffffffffff8381831617835250505050610b09565b50505050565b60008151905060006a636f6e736f6c652e6c6f679050602083016000808483855afa5050505050565b6000610b6b826040518060400160405280602081526020017f5361666545524332303a206c6f772d6c6576656c2063616c6c206661696c65648152508573ffffffffffffffffffffffffffffffffffffffff16610bd09092919063ffffffff16565b9050600081511115610bcb5780806020019051810190610b8b91906116b4565b610bca576040517f08c379a0000000000000000000000000000000000000000000000000000000008152600401610bc190611753565b60405180910390fd5b5b505050565b6060610bdf8484600085610be8565b90509392505050565b606082471015610c2d576040517f08c379a0000000000000000000000000000000000000000000000000000000008152600401610c24906117e5565b60405180910390fd5b610c3685610cfc565b610c75576040517f08c379a0000000000000000000000000000000000000000000000000000000008152600401610c6c90611851565b60405180910390fd5b6000808673ffffffffffffffffffffffffffffffffffffffff168587604051610c9e91906118b8565b60006040518083038185875af1925050503d8060008114610cdb576040519150601f19603f3d011682016040523d82523d6000602084013e610ce0565b606091505b5091509150610cf0828286610d0f565b92505050949350505050565b600080823b905060008111915050919050565b60608315610d1f57829050610d6f565b600083511115610d325782518084602001fd5b816040517f08c379a0000000000000000000000000000000000000000000000000000000008152600401610d6691906118cf565b60405180910390fd5b9392505050565b600080fd5b600073ffffffffffffffffffffffffffffffffffffffff82169050919050565b6000610da682610d7b565b9050919050565b610db681610d9b565b8114610dc157600080fd5b50565b600081359050610dd381610dad565b92915050565b600060208284031215610def57610dee610d76565b5b6000610dfd84828501610dc4565b91505092915050565b6000819050919050565b610e1981610e06565b82525050565b6000602082019050610e346000830184610e10565b92915050565b610e4381610e06565b8114610e4e57600080fd5b50565b600081359050610e6081610e3a565b92915050565b600060208284031215610e7c57610e7b610d76565b5b6000610e8a84828501610e51565b91505092915050565b600060a082019050610ea86000830188610e10565b610eb56020830187610e10565b610ec26040830186610e10565b610ecf6060830185610e10565b610edc6080830184610e10565b9695505050505050565b600080600080600060a08688031215610f0257610f01610d76565b5b6000610f1088828901610dc4565b9550506020610f2188828901610e51565b9450506040610f3288828901610e51565b9350506060610f4388828901610e51565b9250506080610f5488828901610e51565b9150509295509295909350565b600082825260208201905092915050565b7f5265656e7472616e637947756172643a207265656e7472616e742063616c6c00600082015250565b6000610fa8601f83610f61565b9150610fb382610f72565b602082019050919050565b60006020820190508181036000830152610fd781610f9b565b9050919050565b7f546f6b656e56657374696e67202372656c656173653a206e6f7468696e67207460008201527f6f2072656c656173650000000000000000000000000000000000000000000000602082015250565b600061103a602983610f61565b915061104582610fde565b604082019050919050565b600060208201905081810360008301526110698161102d565b9050919050565b7f546f6b656e56657374696e672023706f7374706f6e6556657374696e673a207660008201527f657374696e6720666f722062656e656669636961727920646f6573206e6f742060208201527f6578697374000000000000000000000000000000000000000000000000000000604082015250565b60006110f2604583610f61565b91506110fd82611070565b606082019050919050565b60006020820190508181036000830152611121816110e5565b9050919050565b7f546f6b656e56657374696e672023706f7374706f6e6556657374696e673a206e60008201527f657720737461727420646174652063616e6e6f74206265206561726c6965722060208201527f7468616e206f726967696e616c20737461727420646174650000000000000000604082015250565b60006111aa605883610f61565b91506111b582611128565b606082019050919050565b600060208201905081810360008301526111d98161119d565b9050919050565b7f546f6b656e56657374696e67202363726561746556657374696e673a20696e7460008201527f657276616c206d7573742062652067726561746572207468616e203000000000602082015250565b600061123c603c83610f61565b9150611247826111e0565b604082019050919050565b6000602082019050818103600083015261126b8161122f565b9050919050565b7f546f6b656e56657374696e67202363726561746556657374696e673a20696e7460008201527f657276616c2063616e6e6f7420626520626967676572207468616e206475726160208201527f74696f6e00000000000000000000000000000000000000000000000000000000604082015250565b60006112f4604483610f61565b91506112ff82611272565b606082019050919050565b60006020820190508181036000830152611323816112e7565b9050919050565b7f546f6b656e56657374696e67202363726561746556657374696e673a2076657360008201527f74696e6720666f722062656e656669636961727920616c72656164792063726560208201527f6174656400000000000000000000000000000000000000000000000000000000604082015250565b60006113ac604483610f61565b91506113b78261132a565b606082019050919050565b600060208201905081810360008301526113db8161139f565b9050919050565b600081519050919050565b60005b8381101561140b5780820151818401526020810190506113f0565b8381111561141a576000848401525b50505050565b6000601f19601f8301169050919050565b600061143c826113e2565b6114468185610f61565b93506114568185602086016113ed565b61145f81611420565b840191505092915050565b600060408201905081810360008301526114848185611431565b90506114936020830184610e10565b9392505050565b7f4e487b7100000000000000000000000000000000000000000000000000000000600052601160045260246000fd5b60006114d482610e06565b91506114df83610e06565b9250828210156114f2576114f161149a565b5b828203905092915050565b600061150882610e06565b915061151383610e06565b9250827fffffffffffffffffffffffffffffffffffffffffffffffffffffffffffffffff038211156115485761154761149a565b5b828201905092915050565b61155c81610d9b565b82525050565b60006040820190506115776000830185611553565b6115846020830184610e10565b9392505050565b7f4e487b7100000000000000000000000000000000000000000000000000000000600052601260045260246000fd5b60006115c582610e06565b91506115d083610e06565b9250826115e0576115df61158b565b5b828204905092915050565b60006115f682610e06565b915061160183610e06565b9250817fffffffffffffffffffffffffffffffffffffffffffffffffffffffffffffffff048311821515161561163a5761163961149a565b5b828202905092915050565b600060608201905061165a6000830186611553565b6116676020830185611553565b6116746040830184610e10565b949350505050565b60008115159050919050565b6116918161167c565b811461169c57600080fd5b50565b6000815190506116ae81611688565b92915050565b6000602082840312156116ca576116c9610d76565b5b60006116d88482850161169f565b91505092915050565b7f5361666545524332303a204552433230206f7065726174696f6e20646964206e60008201527f6f74207375636365656400000000000000000000000000000000000000000000602082015250565b600061173d602a83610f61565b9150611748826116e1565b604082019050919050565b6000602082019050818103600083015261176c81611730565b9050919050565b7f416464726573733a20696e73756666696369656e742062616c616e636520666f60008201527f722063616c6c0000000000000000000000000000000000000000000000000000602082015250565b60006117cf602683610f61565b91506117da82611773565b604082019050919050565b600060208201905081810360008301526117fe816117c2565b9050919050565b7f416464726573733a2063616c6c20746f206e6f6e2d636f6e7472616374000000600082015250565b600061183b601d83610f61565b915061184682611805565b602082019050919050565b6000602082019050818103600083015261186a8161182e565b9050919050565b600081519050919050565b600081905092915050565b600061189282611871565b61189c818561187c565b93506118ac8185602086016113ed565b80840191505092915050565b60006118c48284611887565b915081905092915050565b600060208201905081810360008301526118e98184611431565b90509291505056fea2646970667358221220389802a7acd9645ccdcd01f949e7073867a2b6537d4541ceba89e049aaa2403864736f6c634300080b0033",
  "devdoc": {
    "details": "A token holder contract that can release its token balance gradually like a typical vesting scheme, with a cliff and vesting period. Optionally revocable by the owner.",
    "kind": "dev",
    "methods": {},
    "title": "TokenVesting",
    "version": 1
  },
  "userdoc": {
    "kind": "user",
    "methods": {},
    "version": 1
  },
  "storageLayout": {
    "storage": [
      {
        "astId": 10,
        "contract": "contracts/TokenVesting.sol:TokenVesting",
        "label": "_status",
        "offset": 0,
        "slot": "0",
        "type": "t_uint256"
      },
      {
        "astId": 999,
        "contract": "contracts/TokenVesting.sol:TokenVesting",
        "label": "_token",
        "offset": 0,
        "slot": "1",
        "type": "t_contract(IERC20)117"
      },
      {
        "astId": 1015,
        "contract": "contracts/TokenVesting.sol:TokenVesting",
        "label": "_vestings",
        "offset": 0,
        "slot": "2",
        "type": "t_mapping(t_address,t_struct(Vesting)1010_storage)"
      }
    ],
    "types": {
      "t_address": {
        "encoding": "inplace",
        "label": "address",
        "numberOfBytes": "20"
      },
      "t_contract(IERC20)117": {
        "encoding": "inplace",
        "label": "contract IERC20",
        "numberOfBytes": "20"
      },
      "t_mapping(t_address,t_struct(Vesting)1010_storage)": {
        "encoding": "mapping",
        "key": "t_address",
        "label": "mapping(address => struct TokenVesting.Vesting)",
        "numberOfBytes": "32",
        "value": "t_struct(Vesting)1010_storage"
      },
      "t_struct(Vesting)1010_storage": {
        "encoding": "inplace",
        "label": "struct TokenVesting.Vesting",
        "members": [
          {
            "astId": 1001,
            "contract": "contracts/TokenVesting.sol:TokenVesting",
            "label": "start",
            "offset": 0,
            "slot": "0",
            "type": "t_uint256"
          },
          {
            "astId": 1003,
            "contract": "contracts/TokenVesting.sol:TokenVesting",
            "label": "interval",
            "offset": 0,
            "slot": "1",
            "type": "t_uint256"
          },
          {
            "astId": 1005,
            "contract": "contracts/TokenVesting.sol:TokenVesting",
            "label": "duration",
            "offset": 0,
            "slot": "2",
            "type": "t_uint256"
          },
          {
            "astId": 1007,
            "contract": "contracts/TokenVesting.sol:TokenVesting",
            "label": "balance",
            "offset": 0,
            "slot": "3",
            "type": "t_uint256"
          },
          {
            "astId": 1009,
            "contract": "contracts/TokenVesting.sol:TokenVesting",
            "label": "released",
            "offset": 0,
            "slot": "4",
            "type": "t_uint256"
          }
        ],
        "numberOfBytes": "160"
      },
      "t_uint256": {
        "encoding": "inplace",
        "label": "uint256",
        "numberOfBytes": "32"
      }
    }
  }
}