{
  "address": "0x599dd9AAa8e5bE3884C58e895008A1cEEb8EB676",
  "abi": [
    {
      "anonymous": false,
      "inputs": [
        {
          "indexed": true,
          "internalType": "address",
          "name": "user",
          "type": "address"
        },
        {
          "indexed": true,
          "internalType": "uint256",
          "name": "stakeId",
          "type": "uint256"
        },
        {
          "indexed": false,
          "internalType": "uint256",
          "name": "amount",
          "type": "uint256"
        },
        {
          "indexed": false,
          "internalType": "uint256",
          "name": "harvestTime",
          "type": "uint256"
        }
      ],
      "name": "Harvest",
      "type": "event"
    },
    {
      "anonymous": false,
      "inputs": [
        {
          "indexed": true,
          "internalType": "address",
          "name": "previousOwner",
          "type": "address"
        },
        {
          "indexed": true,
          "internalType": "address",
          "name": "newOwner",
          "type": "address"
        }
      ],
      "name": "OwnershipTransferred",
      "type": "event"
    },
    {
      "anonymous": false,
      "inputs": [
        {
          "indexed": true,
          "internalType": "address",
          "name": "user",
          "type": "address"
        },
        {
          "indexed": true,
          "internalType": "uint256",
          "name": "stakeId",
          "type": "uint256"
        },
        {
          "indexed": false,
          "internalType": "uint256",
          "name": "amount",
          "type": "uint256"
        },
        {
          "indexed": false,
          "internalType": "uint256",
          "name": "startTime",
          "type": "uint256"
        },
        {
          "indexed": false,
          "internalType": "uint256",
          "name": "endTime",
          "type": "uint256"
        }
      ],
      "name": "Stake",
      "type": "event"
    },
    {
      "anonymous": false,
      "inputs": [
        {
          "indexed": true,
          "internalType": "address",
          "name": "user",
          "type": "address"
        },
        {
          "indexed": true,
          "internalType": "uint256",
          "name": "stakeId",
          "type": "uint256"
        },
        {
          "indexed": false,
          "internalType": "uint256",
          "name": "amount",
          "type": "uint256"
        },
        {
          "indexed": false,
          "internalType": "uint256",
          "name": "startTime",
          "type": "uint256"
        },
        {
          "indexed": false,
          "internalType": "uint256",
          "name": "endTime",
          "type": "uint256"
        },
        {
          "indexed": false,
          "internalType": "bool",
          "name": "early",
          "type": "bool"
        }
      ],
      "name": "Unstake",
      "type": "event"
    },
    {
      "inputs": [],
      "name": "allocatedTokens",
      "outputs": [
        {
          "internalType": "uint256",
          "name": "",
          "type": "uint256"
        }
      ],
      "stateMutability": "view",
      "type": "function"
    },
    {
      "inputs": [],
      "name": "earlyUnstakeFee",
      "outputs": [
        {
          "internalType": "uint256",
          "name": "",
          "type": "uint256"
        }
      ],
      "stateMutability": "view",
      "type": "function"
    },
    {
      "inputs": [
        {
          "internalType": "address",
          "name": "_userAddress",
          "type": "address"
        },
        {
          "internalType": "uint256",
          "name": "_stakeId",
          "type": "uint256"
        }
      ],
      "name": "getStake",
      "outputs": [
        {
          "internalType": "bool",
          "name": "staked",
          "type": "bool"
        },
        {
          "internalType": "uint256",
          "name": "stakedAmount",
          "type": "uint256"
        },
        {
          "internalType": "uint256",
          "name": "startTime",
          "type": "uint256"
        },
        {
          "internalType": "uint256",
          "name": "endTime",
          "type": "uint256"
        },
        {
          "internalType": "uint256",
          "name": "totalYield",
          "type": "uint256"
        },
        {
          "internalType": "uint256",
          "name": "harvestedYield",
          "type": "uint256"
        },
        {
          "internalType": "uint256",
          "name": "lastHarvestTime",
          "type": "uint256"
        },
        {
          "internalType": "uint256",
          "name": "harvestableYield",
          "type": "uint256"
        },
        {
          "internalType": "uint256",
          "name": "skins",
          "type": "uint256"
        }
      ],
      "stateMutability": "view",
      "type": "function"
    },
    {
      "inputs": [
        {
          "internalType": "address",
          "name": "_userAddress",
          "type": "address"
        }
      ],
      "name": "getStakesLength",
      "outputs": [
        {
          "internalType": "uint256",
          "name": "",
          "type": "uint256"
        }
      ],
      "stateMutability": "view",
      "type": "function"
    },
    {
      "inputs": [
        {
          "internalType": "uint256",
          "name": "_stakeId",
          "type": "uint256"
        }
      ],
      "name": "harvest",
      "outputs": [],
      "stateMutability": "nonpayable",
      "type": "function"
    },
    {
      "inputs": [
        {
          "internalType": "address",
          "name": "_token",
          "type": "address"
        },
        {
          "internalType": "uint256",
          "name": "_stakeDuration",
          "type": "uint256"
        },
        {
          "internalType": "uint256",
          "name": "_yieldRate",
          "type": "uint256"
        },
        {
          "internalType": "uint256",
          "name": "_earlyUnstakeFee",
          "type": "uint256"
        },
        {
          "internalType": "address",
          "name": "_nftCollection",
          "type": "address"
        }
      ],
      "name": "initialize",
      "outputs": [],
      "stateMutability": "nonpayable",
      "type": "function"
    },
    {
      "inputs": [],
      "name": "mrunPerSkin",
      "outputs": [
        {
          "internalType": "uint256",
          "name": "",
          "type": "uint256"
        }
      ],
      "stateMutability": "view",
      "type": "function"
    },
    {
      "inputs": [],
      "name": "nftCollection",
      "outputs": [
        {
          "internalType": "contract IERC1155mintBatch",
          "name": "",
          "type": "address"
        }
      ],
      "stateMutability": "view",
      "type": "function"
    },
    {
      "inputs": [],
      "name": "owner",
      "outputs": [
        {
          "internalType": "address",
          "name": "",
          "type": "address"
        }
      ],
      "stateMutability": "view",
      "type": "function"
    },
    {
      "inputs": [],
      "name": "renounceOwnership",
      "outputs": [],
      "stateMutability": "nonpayable",
      "type": "function"
    },
    {
      "inputs": [
        {
          "internalType": "uint256",
          "name": "_amount",
          "type": "uint256"
        }
      ],
      "name": "setMrunPerSkin",
      "outputs": [],
      "stateMutability": "nonpayable",
      "type": "function"
    },
    {
      "inputs": [
        {
          "internalType": "uint256",
          "name": "_amount",
          "type": "uint256"
        }
      ],
      "name": "stake",
      "outputs": [],
      "stateMutability": "nonpayable",
      "type": "function"
    },
    {
      "inputs": [],
      "name": "stakeDuration",
      "outputs": [
        {
          "internalType": "uint256",
          "name": "",
          "type": "uint256"
        }
      ],
      "stateMutability": "view",
      "type": "function"
    },
    {
      "inputs": [],
      "name": "stakedTokens",
      "outputs": [
        {
          "internalType": "uint256",
          "name": "",
          "type": "uint256"
        }
      ],
      "stateMutability": "view",
      "type": "function"
    },
    {
      "inputs": [
        {
          "internalType": "address",
          "name": "",
          "type": "address"
        },
        {
          "internalType": "uint256",
          "name": "",
          "type": "uint256"
        }
      ],
      "name": "stakes",
      "outputs": [
        {
          "internalType": "bool",
          "name": "staked",
          "type": "bool"
        },
        {
          "internalType": "uint256",
          "name": "stakedAmount",
          "type": "uint256"
        },
        {
          "internalType": "uint256",
          "name": "startTime",
          "type": "uint256"
        },
        {
          "internalType": "uint256",
          "name": "endTime",
          "type": "uint256"
        },
        {
          "internalType": "uint256",
          "name": "totalYield",
          "type": "uint256"
        },
        {
          "internalType": "uint256",
          "name": "harvestedYield",
          "type": "uint256"
        },
        {
          "internalType": "uint256",
          "name": "lastHarvestTime",
          "type": "uint256"
        }
      ],
      "stateMutability": "view",
      "type": "function"
    },
    {
      "inputs": [],
      "name": "stakesOpen",
      "outputs": [
        {
          "internalType": "bool",
          "name": "",
          "type": "bool"
        }
      ],
      "stateMutability": "view",
      "type": "function"
    },
    {
      "inputs": [],
      "name": "start",
      "outputs": [],
      "stateMutability": "nonpayable",
      "type": "function"
    },
    {
      "inputs": [],
      "name": "stop",
      "outputs": [],
      "stateMutability": "nonpayable",
      "type": "function"
    },
    {
      "inputs": [],
      "name": "token",
      "outputs": [
        {
          "internalType": "contract IERC20mintable",
          "name": "",
          "type": "address"
        }
      ],
      "stateMutability": "view",
      "type": "function"
    },
    {
      "inputs": [
        {
          "internalType": "address",
          "name": "newOwner",
          "type": "address"
        }
      ],
      "name": "transferOwnership",
      "outputs": [],
      "stateMutability": "nonpayable",
      "type": "function"
    },
    {
      "inputs": [
        {
          "internalType": "uint256",
          "name": "_stakeId",
          "type": "uint256"
        }
      ],
      "name": "unstake",
      "outputs": [],
      "stateMutability": "nonpayable",
      "type": "function"
    },
    {
      "inputs": [],
      "name": "yieldRate",
      "outputs": [
        {
          "internalType": "uint256",
          "name": "",
          "type": "uint256"
        }
      ],
      "stateMutability": "view",
      "type": "function"
    }
  ],
  "transactionHash": "0xe5fd6dc7914fcbf5edba6521c5ba6a1c5438283ccdf9b6fb9214f65b849a026b",
  "args": [],
  "numDeployments": 1,
  "solcInputHash": "e3c7bf82989ffd770675ff484588ba8c",
  "bytecode": "0x60806040526000606d5534801561001557600080fd5b50612c6d806100256000396000f3fe608060405234801561001057600080fd5b50600436106101415760003560e01c8063715018a6116100b8578063cb6290091161007c578063cb6290091461030c578063cb913c821461032a578063cfd4766314610348578063ddc6326214610380578063f2fde38b1461039c578063fc0c546a146103b857610141565b8063715018a61461028e5780638da5cb5b14610298578063909767d9146102b6578063a694fc3a146102e6578063be9a65551461030257610141565b80633f9b679e1161010a5780633f9b679e146101c657806340f02ab6146101e2578063584b62a1146102005780636588103b146102365780636999ac93146102545780636c28e3491461027257610141565b80622f9569146101465780630711306d1461016457806307da68f5146101825780632e17de781461018c5780633c5cba87146101a8575b600080fd5b61014e6103d6565b60405161015b9190611c5d565b60405180910390f35b61016c6103dc565b6040516101799190611c5d565b60405180910390f35b61018a6103e2565b005b6101a660048036038101906101a19190611ca9565b6104ca565b005b6101b06109c9565b6040516101bd9190611c5d565b60405180910390f35b6101e060048036038101906101db9190611ca9565b6109cf565b005b6101ea610a55565b6040516101f79190611c5d565b60405180910390f35b61021a60048036038101906102159190611d34565b610a5b565b60405161022d9796959493929190611d8f565b60405180910390f35b61023e610ac7565b60405161024b9190611e5d565b60405180910390f35b61025c610aed565b6040516102699190611c5d565b60405180910390f35b61028c60048036038101906102879190611e78565b610af3565b005b610296610d71565b005b6102a0610df9565b6040516102ad9190611f02565b60405180910390f35b6102d060048036038101906102cb9190611f1d565b610e23565b6040516102dd9190611c5d565b60405180910390f35b61030060048036038101906102fb9190611ca9565b610e6f565b005b61030a61112c565b005b610314611215565b6040516103219190611c5d565b60405180910390f35b61033261121b565b60405161033f9190611f4a565b60405180910390f35b610362600480360381019061035d9190611d34565b61122e565b60405161037799989796959493929190611f65565b60405180910390f35b61039a60048036038101906103959190611ca9565b6113bd565b005b6103b660048036038101906103b19190611f1d565b6115f9565b005b6103c06116f1565b6040516103cd9190612013565b60405180910390f35b606c5481565b606a5481565b6103ea611717565b73ffffffffffffffffffffffffffffffffffffffff16610408610df9565b73ffffffffffffffffffffffffffffffffffffffff161461045e576040517f08c379a00000000000000000000000000000000000000000000000000000000081526004016104559061208b565b60405180910390fd5b606560009054906101000a900460ff166104ad576040517f08c379a00000000000000000000000000000000000000000000000000000000081526004016104a4906120f7565b60405180910390fd5b6000606560006101000a81548160ff021916908315150217905550565b6000806000806000806000806104e0338a61122e565b9850985050975097509750975097509750600088610533576040517f08c379a000000000000000000000000000000000000000000000000000000000815260040161052a90612163565b60405180910390fd5b8561053c61171f565b11156106c4576000606760003373ffffffffffffffffffffffffffffffffffffffff1673ffffffffffffffffffffffffffffffffffffffff1681526020019081526020016000208b8154811061059557610594612183565b5b906000526020600020906007020160000160006101000a81548160ff021916908315150217905550876068546105cb91906121e1565b606881905550600090506106223389606560019054906101000a900473ffffffffffffffffffffffffffffffffffffffff1673ffffffffffffffffffffffffffffffffffffffff166117279092919063ffffffff16565b60008211156106bf57606660009054906101000a900473ffffffffffffffffffffffffffffffffffffffff1673ffffffffffffffffffffffffffffffffffffffff16632e81aaea33610300856040518463ffffffff1660e01b815260040161068c93929190612250565b600060405180830381600087803b1580156106a657600080fd5b505af11580156106ba573d6000803e3d6000fd5b505050505b610968565b600083856106d29190612287565b905080866106e091906121e1565b606c546106ed91906121e1565b606c819055506000606760003373ffffffffffffffffffffffffffffffffffffffff1673ffffffffffffffffffffffffffffffffffffffff1681526020019081526020016000208c8154811061074657610745612183565b5b906000526020600020906007020160000160006101000a81548160ff02191690831515021790555061077661171f565b606760003373ffffffffffffffffffffffffffffffffffffffff1673ffffffffffffffffffffffffffffffffffffffff1681526020019081526020016000208c815481106107c7576107c6612183565b5b90600052602060002090600702016003018190555080606760003373ffffffffffffffffffffffffffffffffffffffff1673ffffffffffffffffffffffffffffffffffffffff1681526020019081526020016000208c8154811061082e5761082d612183565b5b9060005260206000209060070201600401819055508860685461085191906121e1565b606881905550600191506000612710606a548b61086e91906122dd565b6108789190612366565b90506000818b61088891906121e1565b90506108d73382606560019054906101000a900473ffffffffffffffffffffffffffffffffffffffff1673ffffffffffffffffffffffffffffffffffffffff166117279092919063ffffffff16565b606560019054906101000a900473ffffffffffffffffffffffffffffffffffffffff1673ffffffffffffffffffffffffffffffffffffffff166342966c68836040518263ffffffff1660e01b81526004016109329190611c5d565b600060405180830381600087803b15801561094c57600080fd5b505af1158015610960573d6000803e3d6000fd5b505050505050505b893373ffffffffffffffffffffffffffffffffffffffff167fc27678b8d9d59c0688159890347f79df5b543dff3fcad311f8142181a3661c148a8a8a866040516109b59493929190612397565b60405180910390a350505050505050505050565b606d5481565b6109d7611717565b73ffffffffffffffffffffffffffffffffffffffff166109f5610df9565b73ffffffffffffffffffffffffffffffffffffffff1614610a4b576040517f08c379a0000000000000000000000000000000000000000000000000000000008152600401610a429061208b565b60405180910390fd5b80606d8190555050565b60695481565b60676020528160005260406000208181548110610a7757600080fd5b9060005260206000209060070201600091509150508060000160009054906101000a900460ff16908060010154908060020154908060030154908060040154908060050154908060060154905087565b606660009054906101000a900473ffffffffffffffffffffffffffffffffffffffff1681565b606b5481565b600060019054906101000a900460ff16610b1b5760008054906101000a900460ff1615610b24565b610b236117ad565b5b610b63576040517f08c379a0000000000000000000000000000000000000000000000000000000008152600401610b5a9061244e565b60405180910390fd5b60008060019054906101000a900460ff161590508015610bb3576001600060016101000a81548160ff02191690831515021790555060016000806101000a81548160ff0219169083151502179055505b600073ffffffffffffffffffffffffffffffffffffffff168673ffffffffffffffffffffffffffffffffffffffff161415610c23576040517f08c379a0000000000000000000000000000000000000000000000000000000008152600401610c1a906124ba565b60405180910390fd5b60008411610c66576040517f08c379a0000000000000000000000000000000000000000000000000000000008152600401610c5d90612526565b60405180910390fd5b60008311610ca9576040517f08c379a0000000000000000000000000000000000000000000000000000000008152600401610ca090612592565b60405180910390fd5b85606560016101000a81548173ffffffffffffffffffffffffffffffffffffffff021916908373ffffffffffffffffffffffffffffffffffffffff1602179055508460698190555083606b8190555082606a8190555081606660006101000a81548173ffffffffffffffffffffffffffffffffffffffff021916908373ffffffffffffffffffffffffffffffffffffffff160217905550610d486117be565b8015610d695760008060016101000a81548160ff0219169083151502179055505b505050505050565b610d79611717565b73ffffffffffffffffffffffffffffffffffffffff16610d97610df9565b73ffffffffffffffffffffffffffffffffffffffff1614610ded576040517f08c379a0000000000000000000000000000000000000000000000000000000008152600401610de49061208b565b60405180910390fd5b610df76000611817565b565b6000603360009054906101000a900473ffffffffffffffffffffffffffffffffffffffff16905090565b6000606760008373ffffffffffffffffffffffffffffffffffffffff1673ffffffffffffffffffffffffffffffffffffffff168152602001908152602001600020805490509050919050565b606560009054906101000a900460ff16610ebe576040517f08c379a0000000000000000000000000000000000000000000000000000000008152600401610eb5906125fe565b60405180910390fd5b60008111610f01576040517f08c379a0000000000000000000000000000000000000000000000000000000008152600401610ef89061266a565b60405180910390fd5b6000612710606b5483610f1491906122dd565b610f1e9190612366565b90506000610f2a61171f565b90506000606954610f3961171f565b610f439190612287565b9050606760003373ffffffffffffffffffffffffffffffffffffffff1673ffffffffffffffffffffffffffffffffffffffff1681526020019081526020016000206040518060e001604052806001151581526020018681526020018481526020018381526020018581526020016000815260200184815250908060018154018082558091505060019003906000526020600020906007020160009091909190915060008201518160000160006101000a81548160ff0219169083151502179055506020820151816001015560408201518160020155606082015181600301556080820151816004015560a0820151816005015560c08201518160060155505082606c546110509190612287565b606c81905550836068546110649190612287565b6068819055506000600161107733610e23565b61108191906121e1565b9050803373ffffffffffffffffffffffffffffffffffffffff167f2720efa4b2dd4f3f8a347da3cbd290a522e9432da9072c5b8e6300496fdde2828786866040516110ce9392919061268a565b60405180910390a3611125333087606560019054906101000a900473ffffffffffffffffffffffffffffffffffffffff1673ffffffffffffffffffffffffffffffffffffffff166118dd909392919063ffffffff16565b5050505050565b611134611717565b73ffffffffffffffffffffffffffffffffffffffff16611152610df9565b73ffffffffffffffffffffffffffffffffffffffff16146111a8576040517f08c379a000000000000000000000000000000000000000000000000000000000815260040161119f9061208b565b60405180910390fd5b606560009054906101000a900460ff16156111f8576040517f08c379a00000000000000000000000000000000000000000000000000000000081526004016111ef9061270d565b60405180910390fd5b6001606560006101000a81548160ff021916908315150217905550565b60685481565b606560009054906101000a900460ff1681565b600080600080600080600080600080606760008d73ffffffffffffffffffffffffffffffffffffffff1673ffffffffffffffffffffffffffffffffffffffff1681526020019081526020016000208b8154811061128e5761128d612183565b5b90600052602060002090600702016040518060e00160405290816000820160009054906101000a900460ff161515151581526020016001820154815260200160028201548152602001600382015481526020016004820154815260200160058201548152602001600682015481525050905080600001519950806020015198508060400151975080606001519650806080015195508060a0015194508060c0015193508661133a61171f565b111561135357848661134c91906121e1565b925061138a565b878761135f91906121e1565b8461136861171f565b61137291906121e1565b8761137d91906122dd565b6113879190612366565b92505b6000606d5411156113aa57606d54896113a39190612366565b91506113af565b600091505b509295985092959850929598565b6000806113ca338461122e565b50975050965050505050506000811415611419576040517f08c379a000000000000000000000000000000000000000000000000000000000815260040161141090612779565b60405180910390fd5b80606c5461142791906121e1565b606c8190555080826114399190612287565b606760003373ffffffffffffffffffffffffffffffffffffffff1673ffffffffffffffffffffffffffffffffffffffff168152602001908152602001600020848154811061148a57611489612183565b5b9060005260206000209060070201600501819055506114a761171f565b606760003373ffffffffffffffffffffffffffffffffffffffff1673ffffffffffffffffffffffffffffffffffffffff16815260200190815260200160002084815481106114f8576114f7612183565b5b906000526020600020906007020160060181905550823373ffffffffffffffffffffffffffffffffffffffff167f4534f107610758c3931de9ad1e176476fcfb8c74adf920167e1d54ee84fcfe768361154f61171f565b60405161155d929190612799565b60405180910390a3606560019054906101000a900473ffffffffffffffffffffffffffffffffffffffff1673ffffffffffffffffffffffffffffffffffffffff166340c10f1933836040518363ffffffff1660e01b81526004016115c29291906127c2565b600060405180830381600087803b1580156115dc57600080fd5b505af11580156115f0573d6000803e3d6000fd5b50505050505050565b611601611717565b73ffffffffffffffffffffffffffffffffffffffff1661161f610df9565b73ffffffffffffffffffffffffffffffffffffffff1614611675576040517f08c379a000000000000000000000000000000000000000000000000000000000815260040161166c9061208b565b60405180910390fd5b600073ffffffffffffffffffffffffffffffffffffffff168173ffffffffffffffffffffffffffffffffffffffff1614156116e5576040517f08c379a00000000000000000000000000000000000000000000000000000000081526004016116dc9061285d565b60405180910390fd5b6116ee81611817565b50565b606560019054906101000a900473ffffffffffffffffffffffffffffffffffffffff1681565b600033905090565b600042905090565b6117a88363a9059cbb60e01b84846040516024016117469291906127c2565b604051602081830303815290604052907bffffffffffffffffffffffffffffffffffffffffffffffffffffffff19166020820180517bffffffffffffffffffffffffffffffffffffffffffffffffffffffff8381831617835250505050611966565b505050565b60006117b830611a2d565b15905090565b600060019054906101000a900460ff1661180d576040517f08c379a0000000000000000000000000000000000000000000000000000000008152600401611804906128ef565b60405180910390fd5b611815611a50565b565b6000603360009054906101000a900473ffffffffffffffffffffffffffffffffffffffff16905081603360006101000a81548173ffffffffffffffffffffffffffffffffffffffff021916908373ffffffffffffffffffffffffffffffffffffffff1602179055508173ffffffffffffffffffffffffffffffffffffffff168173ffffffffffffffffffffffffffffffffffffffff167f8be0079c531659141344cd1fd0a4f28419497f9722a3daafe3b4186f6b6457e060405160405180910390a35050565b611960846323b872dd60e01b8585856040516024016118fe9392919061290f565b604051602081830303815290604052907bffffffffffffffffffffffffffffffffffffffffffffffffffffffff19166020820180517bffffffffffffffffffffffffffffffffffffffffffffffffffffffff8381831617835250505050611966565b50505050565b60006119c8826040518060400160405280602081526020017f5361666545524332303a206c6f772d6c6576656c2063616c6c206661696c65648152508573ffffffffffffffffffffffffffffffffffffffff16611ab19092919063ffffffff16565b9050600081511115611a2857808060200190518101906119e89190612972565b611a27576040517f08c379a0000000000000000000000000000000000000000000000000000000008152600401611a1e90612a11565b60405180910390fd5b5b505050565b6000808273ffffffffffffffffffffffffffffffffffffffff163b119050919050565b600060019054906101000a900460ff16611a9f576040517f08c379a0000000000000000000000000000000000000000000000000000000008152600401611a96906128ef565b60405180910390fd5b611aaf611aaa611717565b611817565b565b6060611ac08484600085611ac9565b90509392505050565b606082471015611b0e576040517f08c379a0000000000000000000000000000000000000000000000000000000008152600401611b0590612aa3565b60405180910390fd5b611b1785611a2d565b611b56576040517f08c379a0000000000000000000000000000000000000000000000000000000008152600401611b4d90612b0f565b60405180910390fd5b6000808673ffffffffffffffffffffffffffffffffffffffff168587604051611b7f9190612ba9565b60006040518083038185875af1925050503d8060008114611bbc576040519150601f19603f3d011682016040523d82523d6000602084013e611bc1565b606091505b5091509150611bd1828286611bdd565b92505050949350505050565b60608315611bed57829050611c3d565b600083511115611c005782518084602001fd5b816040517f08c379a0000000000000000000000000000000000000000000000000000000008152600401611c349190612c15565b60405180910390fd5b9392505050565b6000819050919050565b611c5781611c44565b82525050565b6000602082019050611c726000830184611c4e565b92915050565b600080fd5b611c8681611c44565b8114611c9157600080fd5b50565b600081359050611ca381611c7d565b92915050565b600060208284031215611cbf57611cbe611c78565b5b6000611ccd84828501611c94565b91505092915050565b600073ffffffffffffffffffffffffffffffffffffffff82169050919050565b6000611d0182611cd6565b9050919050565b611d1181611cf6565b8114611d1c57600080fd5b50565b600081359050611d2e81611d08565b92915050565b60008060408385031215611d4b57611d4a611c78565b5b6000611d5985828601611d1f565b9250506020611d6a85828601611c94565b9150509250929050565b60008115159050919050565b611d8981611d74565b82525050565b600060e082019050611da4600083018a611d80565b611db16020830189611c4e565b611dbe6040830188611c4e565b611dcb6060830187611c4e565b611dd86080830186611c4e565b611de560a0830185611c4e565b611df260c0830184611c4e565b98975050505050505050565b6000819050919050565b6000611e23611e1e611e1984611cd6565b611dfe565b611cd6565b9050919050565b6000611e3582611e08565b9050919050565b6000611e4782611e2a565b9050919050565b611e5781611e3c565b82525050565b6000602082019050611e726000830184611e4e565b92915050565b600080600080600060a08688031215611e9457611e93611c78565b5b6000611ea288828901611d1f565b9550506020611eb388828901611c94565b9450506040611ec488828901611c94565b9350506060611ed588828901611c94565b9250506080611ee688828901611d1f565b9150509295509295909350565b611efc81611cf6565b82525050565b6000602082019050611f176000830184611ef3565b92915050565b600060208284031215611f3357611f32611c78565b5b6000611f4184828501611d1f565b91505092915050565b6000602082019050611f5f6000830184611d80565b92915050565b600061012082019050611f7b600083018c611d80565b611f88602083018b611c4e565b611f95604083018a611c4e565b611fa26060830189611c4e565b611faf6080830188611c4e565b611fbc60a0830187611c4e565b611fc960c0830186611c4e565b611fd660e0830185611c4e565b611fe4610100830184611c4e565b9a9950505050505050505050565b6000611ffd82611e2a565b9050919050565b61200d81611ff2565b82525050565b60006020820190506120286000830184612004565b92915050565b600082825260208201905092915050565b7f4f776e61626c653a2063616c6c6572206973206e6f7420746865206f776e6572600082015250565b600061207560208361202e565b91506120808261203f565b602082019050919050565b600060208201905081810360008301526120a481612068565b9050919050565b7f5374616b6573206172652073746f7070656420616c7265616479000000000000600082015250565b60006120e1601a8361202e565b91506120ec826120ab565b602082019050919050565b60006020820190508181036000830152612110816120d4565b9050919050565b7f556e7374616b656420616c726561647900000000000000000000000000000000600082015250565b600061214d60108361202e565b915061215882612117565b602082019050919050565b6000602082019050818103600083015261217c81612140565b9050919050565b7f4e487b7100000000000000000000000000000000000000000000000000000000600052603260045260246000fd5b7f4e487b7100000000000000000000000000000000000000000000000000000000600052601160045260246000fd5b60006121ec82611c44565b91506121f783611c44565b92508282101561220a576122096121b2565b5b828203905092915050565b6000819050919050565b600061223a61223561223084612215565b611dfe565b611c44565b9050919050565b61224a8161221f565b82525050565b60006060820190506122656000830186611ef3565b6122726020830185612241565b61227f6040830184611c4e565b949350505050565b600061229282611c44565b915061229d83611c44565b9250827fffffffffffffffffffffffffffffffffffffffffffffffffffffffffffffffff038211156122d2576122d16121b2565b5b828201905092915050565b60006122e882611c44565b91506122f383611c44565b9250817fffffffffffffffffffffffffffffffffffffffffffffffffffffffffffffffff048311821515161561232c5761232b6121b2565b5b828202905092915050565b7f4e487b7100000000000000000000000000000000000000000000000000000000600052601260045260246000fd5b600061237182611c44565b915061237c83611c44565b92508261238c5761238b612337565b5b828204905092915050565b60006080820190506123ac6000830187611c4e565b6123b96020830186611c4e565b6123c66040830185611c4e565b6123d36060830184611d80565b95945050505050565b7f496e697469616c697a61626c653a20636f6e747261637420697320616c72656160008201527f647920696e697469616c697a6564000000000000000000000000000000000000602082015250565b6000612438602e8361202e565b9150612443826123dc565b604082019050919050565b600060208201905081810360008301526124678161242b565b9050919050565b7f456d70747920746f6b656e206164647265737300000000000000000000000000600082015250565b60006124a460138361202e565b91506124af8261246e565b602082019050919050565b600060208201905081810360008301526124d381612497565b9050919050565b7f5a65726f207969656c6420726174650000000000000000000000000000000000600082015250565b6000612510600f8361202e565b915061251b826124da565b602082019050919050565b6000602082019050818103600083015261253f81612503565b9050919050565b7f5a65726f206561726c7920556e7374616b652046656500000000000000000000600082015250565b600061257c60168361202e565b915061258782612546565b602082019050919050565b600060208201905081810360008301526125ab8161256f565b9050919050565b7f7374616b653a206e6f74206f70656e0000000000000000000000000000000000600082015250565b60006125e8600f8361202e565b91506125f3826125b2565b602082019050919050565b60006020820190508181036000830152612617816125db565b9050919050565b7f7374616b653a207a65726f20616d6f756e740000000000000000000000000000600082015250565b600061265460128361202e565b915061265f8261261e565b602082019050919050565b6000602082019050818103600083015261268381612647565b9050919050565b600060608201905061269f6000830186611c4e565b6126ac6020830185611c4e565b6126b96040830184611c4e565b949350505050565b7f5374616b657320617265206f70656e20616c7265616479000000000000000000600082015250565b60006126f760178361202e565b9150612702826126c1565b602082019050919050565b60006020820190508181036000830152612726816126ea565b9050919050565b7f6861727665737461626c655969656c64206973207a65726f0000000000000000600082015250565b600061276360188361202e565b915061276e8261272d565b602082019050919050565b6000602082019050818103600083015261279281612756565b9050919050565b60006040820190506127ae6000830185611c4e565b6127bb6020830184611c4e565b9392505050565b60006040820190506127d76000830185611ef3565b6127e46020830184611c4e565b9392505050565b7f4f776e61626c653a206e6577206f776e657220697320746865207a65726f206160008201527f6464726573730000000000000000000000000000000000000000000000000000602082015250565b600061284760268361202e565b9150612852826127eb565b604082019050919050565b600060208201905081810360008301526128768161283a565b9050919050565b7f496e697469616c697a61626c653a20636f6e7472616374206973206e6f74206960008201527f6e697469616c697a696e67000000000000000000000000000000000000000000602082015250565b60006128d9602b8361202e565b91506128e48261287d565b604082019050919050565b60006020820190508181036000830152612908816128cc565b9050919050565b60006060820190506129246000830186611ef3565b6129316020830185611ef3565b61293e6040830184611c4e565b949350505050565b61294f81611d74565b811461295a57600080fd5b50565b60008151905061296c81612946565b92915050565b60006020828403121561298857612987611c78565b5b60006129968482850161295d565b91505092915050565b7f5361666545524332303a204552433230206f7065726174696f6e20646964206e60008201527f6f74207375636365656400000000000000000000000000000000000000000000602082015250565b60006129fb602a8361202e565b9150612a068261299f565b604082019050919050565b60006020820190508181036000830152612a2a816129ee565b9050919050565b7f416464726573733a20696e73756666696369656e742062616c616e636520666f60008201527f722063616c6c0000000000000000000000000000000000000000000000000000602082015250565b6000612a8d60268361202e565b9150612a9882612a31565b604082019050919050565b60006020820190508181036000830152612abc81612a80565b9050919050565b7f416464726573733a2063616c6c20746f206e6f6e2d636f6e7472616374000000600082015250565b6000612af9601d8361202e565b9150612b0482612ac3565b602082019050919050565b60006020820190508181036000830152612b2881612aec565b9050919050565b600081519050919050565b600081905092915050565b60005b83811015612b63578082015181840152602081019050612b48565b83811115612b72576000848401525b50505050565b6000612b8382612b2f565b612b8d8185612b3a565b9350612b9d818560208601612b45565b80840191505092915050565b6000612bb58284612b78565b915081905092915050565b600081519050919050565b6000601f19601f8301169050919050565b6000612be782612bc0565b612bf1818561202e565b9350612c01818560208601612b45565b612c0a81612bcb565b840191505092915050565b60006020820190508181036000830152612c2f8184612bdc565b90509291505056fea2646970667358221220ab4601afb3dac7d3e1d60d0bcb50e1ccf0e927dc958962d65b442fe0a415651764736f6c634300080b0033",
  "devdoc": {
    "kind": "dev",
    "methods": {
      "getStake(address,uint256)": {
        "details": "get the individual stake parameters of the user",
        "params": {
          "_stakeId": "stake index",
          "_userAddress": "account of staker"
        },
        "returns": {
          "endTime": "the time when unstaking (w.o. penalties) becomes possible",
          "harvestableYield": "The unlocked part of yield available for harvesting",
          "harvestedYield": "The part of yield user harvested already",
          "lastHarvestTime": "The time of last harvest event",
          "skins": "Reward nft skin type tokens",
          "staked": "the status of stake",
          "stakedAmount": "the number of deposited tokens",
          "startTime": "the moment of stake start",
          "totalYield": "entire yield for the stake (totally released on endTime)"
        }
      },
      "getStakesLength(address)": {
        "details": "get the count of user's stakes. Used on frontend to iterate and display individual stakes",
        "params": {
          "_userAddress": "account of staker"
        },
        "returns": {
          "_0": "stakes"
        }
      },
      "harvest(uint256)": {
        "details": "harvest accumulated rewards. Can be called many times.",
        "params": {
          "_stakeId": "Id of the stake"
        }
      },
      "initialize(address,uint256,uint256,uint256,address)": {
        "details": "the constructor arguments:",
        "params": {
          "_earlyUnstakeFee": "fee for unstaking before stake expiration",
          "_stakeDuration": "the stake duration in seconds",
          "_token": "address of token - the same accepted for staking and used to pay rewards",
          "_yieldRate": "reward rate in basis points (1/10000)"
        }
      },
      "owner()": {
        "details": "Returns the address of the current owner."
      },
      "renounceOwnership()": {
        "details": "Leaves the contract without owner. It will not be possible to call `onlyOwner` functions anymore. Can only be called by the current owner. NOTE: Renouncing ownership will leave the contract without an owner, thereby removing any functionality that is only available to the owner."
      },
      "stake(uint256)": {
        "details": "submit the stake",
        "params": {
          "_amount": "amount of tokens to be transferred from user's account"
        }
      },
      "start()": {
        "details": "start accepting new stakes. Called only by the owner"
      },
      "stop()": {
        "details": "stop accepting new stakes. Called only by the owner"
      },
      "transferOwnership(address)": {
        "details": "Transfers ownership of the contract to a new account (`newOwner`). Can only be called by the current owner."
      },
      "unstake(uint256)": {
        "details": "withdraw the `body` of user's stake. Can be called only once",
        "params": {
          "_stakeId": "Id of the stake"
        }
      }
    },
    "version": 1
  },
  "userdoc": {
    "kind": "user",
    "methods": {},
    "version": 1
  },
  "storageLayout": {
    "storage": [
      {
        "astId": 532,
        "contract": "contracts/FixedStaking.sol:FixedStaking",
        "label": "_initialized",
        "offset": 0,
        "slot": "0",
        "type": "t_bool"
      },
      {
        "astId": 535,
        "contract": "contracts/FixedStaking.sol:FixedStaking",
        "label": "_initializing",
        "offset": 1,
        "slot": "0",
        "type": "t_bool"
      },
      {
        "astId": 2723,
        "contract": "contracts/FixedStaking.sol:FixedStaking",
        "label": "__gap",
        "offset": 0,
        "slot": "1",
        "type": "t_array(t_uint256)50_storage"
      },
      {
        "astId": 412,
        "contract": "contracts/FixedStaking.sol:FixedStaking",
        "label": "_owner",
        "offset": 0,
        "slot": "51",
        "type": "t_address"
      },
      {
        "astId": 524,
        "contract": "contracts/FixedStaking.sol:FixedStaking",
        "label": "__gap",
        "offset": 0,
        "slot": "52",
        "type": "t_array(t_uint256)49_storage"
      },
      {
        "astId": 4233,
        "contract": "contracts/FixedStaking.sol:FixedStaking",
        "label": "stakesOpen",
        "offset": 0,
        "slot": "101",
        "type": "t_bool"
      },
      {
        "astId": 4236,
        "contract": "contracts/FixedStaking.sol:FixedStaking",
        "label": "token",
        "offset": 1,
        "slot": "101",
        "type": "t_contract(IERC20mintable)4198"
      },
      {
        "astId": 4239,
        "contract": "contracts/FixedStaking.sol:FixedStaking",
        "label": "nftCollection",
        "offset": 0,
        "slot": "102",
        "type": "t_contract(IERC1155mintBatch)4210"
      },
      {
        "astId": 4245,
        "contract": "contracts/FixedStaking.sol:FixedStaking",
        "label": "stakes",
        "offset": 0,
        "slot": "103",
        "type": "t_mapping(t_address,t_array(t_struct(StakeInfo)4231_storage)dyn_storage)"
      },
      {
        "astId": 4247,
        "contract": "contracts/FixedStaking.sol:FixedStaking",
        "label": "stakedTokens",
        "offset": 0,
        "slot": "104",
        "type": "t_uint256"
      },
      {
        "astId": 4249,
        "contract": "contracts/FixedStaking.sol:FixedStaking",
        "label": "stakeDuration",
        "offset": 0,
        "slot": "105",
        "type": "t_uint256"
      },
      {
        "astId": 4251,
        "contract": "contracts/FixedStaking.sol:FixedStaking",
        "label": "earlyUnstakeFee",
        "offset": 0,
        "slot": "106",
        "type": "t_uint256"
      },
      {
        "astId": 4253,
        "contract": "contracts/FixedStaking.sol:FixedStaking",
        "label": "yieldRate",
        "offset": 0,
        "slot": "107",
        "type": "t_uint256"
      },
      {
        "astId": 4255,
        "contract": "contracts/FixedStaking.sol:FixedStaking",
        "label": "allocatedTokens",
        "offset": 0,
        "slot": "108",
        "type": "t_uint256"
      },
      {
        "astId": 4258,
        "contract": "contracts/FixedStaking.sol:FixedStaking",
        "label": "mrunPerSkin",
        "offset": 0,
        "slot": "109",
        "type": "t_uint256"
      }
    ],
    "types": {
      "t_address": {
        "encoding": "inplace",
        "label": "address",
        "numberOfBytes": "20"
      },
      "t_array(t_struct(StakeInfo)4231_storage)dyn_storage": {
        "base": "t_struct(StakeInfo)4231_storage",
        "encoding": "dynamic_array",
        "label": "struct FixedStaking.StakeInfo[]",
        "numberOfBytes": "32"
      },
      "t_array(t_uint256)49_storage": {
        "base": "t_uint256",
        "encoding": "inplace",
        "label": "uint256[49]",
        "numberOfBytes": "1568"
      },
      "t_array(t_uint256)50_storage": {
        "base": "t_uint256",
        "encoding": "inplace",
        "label": "uint256[50]",
        "numberOfBytes": "1600"
      },
      "t_bool": {
        "encoding": "inplace",
        "label": "bool",
        "numberOfBytes": "1"
      },
      "t_contract(IERC1155mintBatch)4210": {
        "encoding": "inplace",
        "label": "contract IERC1155mintBatch",
        "numberOfBytes": "20"
      },
      "t_contract(IERC20mintable)4198": {
        "encoding": "inplace",
        "label": "contract IERC20mintable",
        "numberOfBytes": "20"
      },
      "t_mapping(t_address,t_array(t_struct(StakeInfo)4231_storage)dyn_storage)": {
        "encoding": "mapping",
        "key": "t_address",
        "label": "mapping(address => struct FixedStaking.StakeInfo[])",
        "numberOfBytes": "32",
        "value": "t_array(t_struct(StakeInfo)4231_storage)dyn_storage"
      },
      "t_struct(StakeInfo)4231_storage": {
        "encoding": "inplace",
        "label": "struct FixedStaking.StakeInfo",
        "members": [
          {
            "astId": 4218,
            "contract": "contracts/FixedStaking.sol:FixedStaking",
            "label": "staked",
            "offset": 0,
            "slot": "0",
            "type": "t_bool"
          },
          {
            "astId": 4220,
            "contract": "contracts/FixedStaking.sol:FixedStaking",
            "label": "stakedAmount",
            "offset": 0,
            "slot": "1",
            "type": "t_uint256"
          },
          {
            "astId": 4222,
            "contract": "contracts/FixedStaking.sol:FixedStaking",
            "label": "startTime",
            "offset": 0,
            "slot": "2",
            "type": "t_uint256"
          },
          {
            "astId": 4224,
            "contract": "contracts/FixedStaking.sol:FixedStaking",
            "label": "endTime",
            "offset": 0,
            "slot": "3",
            "type": "t_uint256"
          },
          {
            "astId": 4226,
            "contract": "contracts/FixedStaking.sol:FixedStaking",
            "label": "totalYield",
            "offset": 0,
            "slot": "4",
            "type": "t_uint256"
          },
          {
            "astId": 4228,
            "contract": "contracts/FixedStaking.sol:FixedStaking",
            "label": "harvestedYield",
            "offset": 0,
            "slot": "5",
            "type": "t_uint256"
          },
          {
            "astId": 4230,
            "contract": "contracts/FixedStaking.sol:FixedStaking",
            "label": "lastHarvestTime",
            "offset": 0,
            "slot": "6",
            "type": "t_uint256"
          }
        ],
        "numberOfBytes": "224"
      },
      "t_uint256": {
        "encoding": "inplace",
        "label": "uint256",
        "numberOfBytes": "32"
      }
    }
  }
}