{
  "address": "0xe9c1f08e99C27763E60f98eE5A723151b4f92C73",
  "abi": [
    {
      "anonymous": false,
      "inputs": [
        {
          "indexed": true,
          "internalType": "address",
          "name": "user",
          "type": "address"
        },
        {
          "indexed": true,
          "internalType": "uint256",
          "name": "stakeId",
          "type": "uint256"
        },
        {
          "indexed": false,
          "internalType": "uint256",
          "name": "amount",
          "type": "uint256"
        },
        {
          "indexed": false,
          "internalType": "uint256",
          "name": "harvestTime",
          "type": "uint256"
        }
      ],
      "name": "Harvest",
      "type": "event"
    },
    {
      "anonymous": false,
      "inputs": [
        {
          "indexed": true,
          "internalType": "address",
          "name": "previousOwner",
          "type": "address"
        },
        {
          "indexed": true,
          "internalType": "address",
          "name": "newOwner",
          "type": "address"
        }
      ],
      "name": "OwnershipTransferred",
      "type": "event"
    },
    {
      "anonymous": false,
      "inputs": [
        {
          "indexed": true,
          "internalType": "address",
          "name": "user",
          "type": "address"
        },
        {
          "indexed": true,
          "internalType": "uint256",
          "name": "stakeId",
          "type": "uint256"
        },
        {
          "indexed": false,
          "internalType": "uint256",
          "name": "amount",
          "type": "uint256"
        },
        {
          "indexed": false,
          "internalType": "uint256",
          "name": "startTime",
          "type": "uint256"
        },
        {
          "indexed": false,
          "internalType": "uint256",
          "name": "endTime",
          "type": "uint256"
        }
      ],
      "name": "Stake",
      "type": "event"
    },
    {
      "anonymous": false,
      "inputs": [
        {
          "indexed": true,
          "internalType": "address",
          "name": "user",
          "type": "address"
        },
        {
          "indexed": true,
          "internalType": "uint256",
          "name": "stakeId",
          "type": "uint256"
        },
        {
          "indexed": false,
          "internalType": "uint256",
          "name": "amount",
          "type": "uint256"
        },
        {
          "indexed": false,
          "internalType": "uint256",
          "name": "startTime",
          "type": "uint256"
        },
        {
          "indexed": false,
          "internalType": "uint256",
          "name": "endTime",
          "type": "uint256"
        },
        {
          "indexed": false,
          "internalType": "bool",
          "name": "early",
          "type": "bool"
        }
      ],
      "name": "Unstake",
      "type": "event"
    },
    {
      "inputs": [],
      "name": "earlyUnstakeFee",
      "outputs": [
        {
          "internalType": "uint256",
          "name": "",
          "type": "uint256"
        }
      ],
      "stateMutability": "view",
      "type": "function"
    },
    {
      "inputs": [
        {
          "internalType": "address",
          "name": "_userAddress",
          "type": "address"
        },
        {
          "internalType": "uint256",
          "name": "_stakeId",
          "type": "uint256"
        }
      ],
      "name": "getStake",
      "outputs": [
        {
          "internalType": "bool",
          "name": "staked",
          "type": "bool"
        },
        {
          "internalType": "uint256",
          "name": "stakedAmount",
          "type": "uint256"
        },
        {
          "internalType": "uint256",
          "name": "startTime",
          "type": "uint256"
        },
        {
          "internalType": "uint256",
          "name": "endTime",
          "type": "uint256"
        },
        {
          "internalType": "uint256",
          "name": "totalYield",
          "type": "uint256"
        },
        {
          "internalType": "uint256",
          "name": "harvestedYield",
          "type": "uint256"
        },
        {
          "internalType": "uint256",
          "name": "lastHarvestTime",
          "type": "uint256"
        },
        {
          "internalType": "uint256",
          "name": "harvestableYield",
          "type": "uint256"
        },
        {
          "internalType": "uint256",
          "name": "skinsAmount",
          "type": "uint256"
        }
      ],
      "stateMutability": "view",
      "type": "function"
    },
    {
      "inputs": [
        {
          "internalType": "address",
          "name": "_userAddress",
          "type": "address"
        }
      ],
      "name": "getStakesLength",
      "outputs": [
        {
          "internalType": "uint256",
          "name": "",
          "type": "uint256"
        }
      ],
      "stateMutability": "view",
      "type": "function"
    },
    {
      "inputs": [
        {
          "internalType": "uint256",
          "name": "_stakeId",
          "type": "uint256"
        }
      ],
      "name": "harvest",
      "outputs": [],
      "stateMutability": "nonpayable",
      "type": "function"
    },
    {
      "inputs": [
        {
          "internalType": "address",
          "name": "_token",
          "type": "address"
        },
        {
          "internalType": "uint256",
          "name": "_stakeDuration",
          "type": "uint256"
        },
        {
          "internalType": "uint256",
          "name": "_yieldRate",
          "type": "uint256"
        },
        {
          "internalType": "uint256",
          "name": "_earlyUnstakeFee",
          "type": "uint256"
        },
        {
          "internalType": "address",
          "name": "_nftCollection",
          "type": "address"
        }
      ],
      "name": "initialize",
      "outputs": [],
      "stateMutability": "nonpayable",
      "type": "function"
    },
    {
      "inputs": [],
      "name": "mrunPerSkin",
      "outputs": [
        {
          "internalType": "uint256",
          "name": "",
          "type": "uint256"
        }
      ],
      "stateMutability": "view",
      "type": "function"
    },
    {
      "inputs": [],
      "name": "nftCollection",
      "outputs": [
        {
          "internalType": "contract IERC1155mintBatch",
          "name": "",
          "type": "address"
        }
      ],
      "stateMutability": "view",
      "type": "function"
    },
    {
      "inputs": [],
      "name": "owner",
      "outputs": [
        {
          "internalType": "address",
          "name": "",
          "type": "address"
        }
      ],
      "stateMutability": "view",
      "type": "function"
    },
    {
      "inputs": [],
      "name": "renounceOwnership",
      "outputs": [],
      "stateMutability": "nonpayable",
      "type": "function"
    },
    {
      "inputs": [
        {
          "internalType": "uint256",
          "name": "_amount",
          "type": "uint256"
        }
      ],
      "name": "setMrunPerSkin",
      "outputs": [],
      "stateMutability": "nonpayable",
      "type": "function"
    },
    {
      "inputs": [
        {
          "internalType": "uint256",
          "name": "_skinKind",
          "type": "uint256"
        }
      ],
      "name": "setSkinKind",
      "outputs": [],
      "stateMutability": "nonpayable",
      "type": "function"
    },
    {
      "inputs": [],
      "name": "skinKind",
      "outputs": [
        {
          "internalType": "uint256",
          "name": "",
          "type": "uint256"
        }
      ],
      "stateMutability": "view",
      "type": "function"
    },
    {
      "inputs": [
        {
          "internalType": "uint256",
          "name": "_amount",
          "type": "uint256"
        }
      ],
      "name": "stake",
      "outputs": [],
      "stateMutability": "nonpayable",
      "type": "function"
    },
    {
      "inputs": [],
      "name": "stakeDuration",
      "outputs": [
        {
          "internalType": "uint256",
          "name": "",
          "type": "uint256"
        }
      ],
      "stateMutability": "view",
      "type": "function"
    },
    {
      "inputs": [],
      "name": "stakedTokens",
      "outputs": [
        {
          "internalType": "uint256",
          "name": "",
          "type": "uint256"
        }
      ],
      "stateMutability": "view",
      "type": "function"
    },
    {
      "inputs": [
        {
          "internalType": "address",
          "name": "",
          "type": "address"
        },
        {
          "internalType": "uint256",
          "name": "",
          "type": "uint256"
        }
      ],
      "name": "stakes",
      "outputs": [
        {
          "internalType": "bool",
          "name": "staked",
          "type": "bool"
        },
        {
          "internalType": "uint256",
          "name": "stakedAmount",
          "type": "uint256"
        },
        {
          "internalType": "uint256",
          "name": "startTime",
          "type": "uint256"
        },
        {
          "internalType": "uint256",
          "name": "endTime",
          "type": "uint256"
        },
        {
          "internalType": "uint256",
          "name": "totalYield",
          "type": "uint256"
        },
        {
          "internalType": "uint256",
          "name": "harvestedYield",
          "type": "uint256"
        },
        {
          "internalType": "uint256",
          "name": "lastHarvestTime",
          "type": "uint256"
        }
      ],
      "stateMutability": "view",
      "type": "function"
    },
    {
      "inputs": [],
      "name": "stakesOpen",
      "outputs": [
        {
          "internalType": "bool",
          "name": "",
          "type": "bool"
        }
      ],
      "stateMutability": "view",
      "type": "function"
    },
    {
      "inputs": [],
      "name": "start",
      "outputs": [],
      "stateMutability": "nonpayable",
      "type": "function"
    },
    {
      "inputs": [],
      "name": "stop",
      "outputs": [],
      "stateMutability": "nonpayable",
      "type": "function"
    },
    {
      "inputs": [],
      "name": "token",
      "outputs": [
        {
          "internalType": "contract IERC20mintable",
          "name": "",
          "type": "address"
        }
      ],
      "stateMutability": "view",
      "type": "function"
    },
    {
      "inputs": [
        {
          "internalType": "address",
          "name": "newOwner",
          "type": "address"
        }
      ],
      "name": "transferOwnership",
      "outputs": [],
      "stateMutability": "nonpayable",
      "type": "function"
    },
    {
      "inputs": [
        {
          "internalType": "uint256",
          "name": "_stakeId",
          "type": "uint256"
        }
      ],
      "name": "unstake",
      "outputs": [],
      "stateMutability": "nonpayable",
      "type": "function"
    },
    {
      "inputs": [],
      "name": "yieldRate",
      "outputs": [
        {
          "internalType": "uint256",
          "name": "",
          "type": "uint256"
        }
      ],
      "stateMutability": "view",
      "type": "function"
    }
  ],
  "transactionHash": "0xef248550daedbbec2364b7b6d1aeecdba485459b1f806a24b06535f198dd5bf1",
  "args": [],
  "numDeployments": 2,
  "solcInputHash": "c271c393d0d0dc60b491e4adf1973227",
  "bytecode": "0x608060405234801561001057600080fd5b50612e3e806100206000396000f3fe608060405234801561001057600080fd5b506004361061014d5760003560e01c80636c28e349116100c3578063cb6290091161007c578063cb62900914610334578063cb913c8214610352578063cfd4766314610370578063ddc63262146103a8578063f2fde38b146103c4578063fc0c546a146103e05761014d565b80636c28e3491461029a578063715018a6146102b65780638da5cb5b146102c0578063909767d9146102de578063a694fc3a1461030e578063be9a65551461032a5761014d565b80633cae445d116101155780633cae445d146101d25780633f9b679e146101ee57806340f02ab61461020a578063584b62a1146102285780636588103b1461025e5780636999ac931461027c5761014d565b80630711306d1461015257806307da68f51461017057806318b4a87e1461017a5780632e17de78146101985780633c5cba87146101b4575b600080fd5b61015a6103fe565b6040516101679190611d6b565b60405180910390f35b610178610404565b005b6101826104ec565b60405161018f9190611d6b565b60405180910390f35b6101b260048036038101906101ad9190611db7565b6104f2565b005b6101bc6109d2565b6040516101c99190611d6b565b60405180910390f35b6101ec60048036038101906101e79190611db7565b6109d8565b005b61020860048036038101906102039190611db7565b610a5e565b005b610212610ae4565b60405161021f9190611d6b565b60405180910390f35b610242600480360381019061023d9190611e42565b610aea565b6040516102559796959493929190611e9d565b60405180910390f35b610266610b56565b6040516102739190611f6b565b60405180910390f35b610284610b7c565b6040516102919190611d6b565b60405180910390f35b6102b460048036038101906102af9190611f86565b610b82565b005b6102be610e00565b005b6102c8610e88565b6040516102d59190612010565b60405180910390f35b6102f860048036038101906102f3919061202b565b610eb2565b6040516103059190611d6b565b60405180910390f35b61032860048036038101906103239190611db7565b610efe565b005b610332611209565b005b61033c611337565b6040516103499190611d6b565b60405180910390f35b61035a61133d565b6040516103679190612058565b60405180910390f35b61038a60048036038101906103859190611e42565b611350565b60405161039f99989796959493929190612073565b60405180910390f35b6103c260048036038101906103bd9190611db7565b6114df565b005b6103de60048036038101906103d9919061202b565b611707565b005b6103e86117ff565b6040516103f59190612121565b60405180910390f35b606a5481565b61040c611825565b73ffffffffffffffffffffffffffffffffffffffff1661042a610e88565b73ffffffffffffffffffffffffffffffffffffffff1614610480576040517f08c379a000000000000000000000000000000000000000000000000000000000815260040161047790612199565b60405180910390fd5b606560009054906101000a900460ff166104cf576040517f08c379a00000000000000000000000000000000000000000000000000000000081526004016104c690612205565b60405180910390fd5b6000606560006101000a81548160ff021916908315150217905550565b606d5481565b600080600080600080600080610508338a611350565b985098505097509750975097509750975060008861055b576040517f08c379a000000000000000000000000000000000000000000000000000000000815260040161055290612271565b60405180910390fd5b8561056461182d565b11156106ec576000606760003373ffffffffffffffffffffffffffffffffffffffff1673ffffffffffffffffffffffffffffffffffffffff1681526020019081526020016000208b815481106105bd576105bc612291565b5b906000526020600020906007020160000160006101000a81548160ff021916908315150217905550876068546105f391906122ef565b6068819055506000905061064a3389606560019054906101000a900473ffffffffffffffffffffffffffffffffffffffff1673ffffffffffffffffffffffffffffffffffffffff166118359092919063ffffffff16565b60008211156106e757606660009054906101000a900473ffffffffffffffffffffffffffffffffffffffff1673ffffffffffffffffffffffffffffffffffffffff16632e81aaea33606d54856040518463ffffffff1660e01b81526004016106b493929190612323565b600060405180830381600087803b1580156106ce57600080fd5b505af11580156106e2573d6000803e3d6000fd5b505050505b610971565b600083856106fa919061235a565b90506000606760003373ffffffffffffffffffffffffffffffffffffffff1673ffffffffffffffffffffffffffffffffffffffff1681526020019081526020016000208c8154811061074f5761074e612291565b5b906000526020600020906007020160000160006101000a81548160ff02191690831515021790555061077f61182d565b606760003373ffffffffffffffffffffffffffffffffffffffff1673ffffffffffffffffffffffffffffffffffffffff1681526020019081526020016000208c815481106107d0576107cf612291565b5b90600052602060002090600702016003018190555080606760003373ffffffffffffffffffffffffffffffffffffffff1673ffffffffffffffffffffffffffffffffffffffff1681526020019081526020016000208c8154811061083757610836612291565b5b9060005260206000209060070201600401819055508860685461085a91906122ef565b606881905550600191506000612710606a548b61087791906123b0565b6108819190612439565b90506000818b61089191906122ef565b90506108e03382606560019054906101000a900473ffffffffffffffffffffffffffffffffffffffff1673ffffffffffffffffffffffffffffffffffffffff166118359092919063ffffffff16565b606560019054906101000a900473ffffffffffffffffffffffffffffffffffffffff1673ffffffffffffffffffffffffffffffffffffffff166342966c68836040518263ffffffff1660e01b815260040161093b9190611d6b565b600060405180830381600087803b15801561095557600080fd5b505af1158015610969573d6000803e3d6000fd5b505050505050505b893373ffffffffffffffffffffffffffffffffffffffff167fc27678b8d9d59c0688159890347f79df5b543dff3fcad311f8142181a3661c148a8a8a866040516109be949392919061246a565b60405180910390a350505050505050505050565b606c5481565b6109e0611825565b73ffffffffffffffffffffffffffffffffffffffff166109fe610e88565b73ffffffffffffffffffffffffffffffffffffffff1614610a54576040517f08c379a0000000000000000000000000000000000000000000000000000000008152600401610a4b90612199565b60405180910390fd5b80606d8190555050565b610a66611825565b73ffffffffffffffffffffffffffffffffffffffff16610a84610e88565b73ffffffffffffffffffffffffffffffffffffffff1614610ada576040517f08c379a0000000000000000000000000000000000000000000000000000000008152600401610ad190612199565b60405180910390fd5b80606c8190555050565b60695481565b60676020528160005260406000208181548110610b0657600080fd5b9060005260206000209060070201600091509150508060000160009054906101000a900460ff16908060010154908060020154908060030154908060040154908060050154908060060154905087565b606660009054906101000a900473ffffffffffffffffffffffffffffffffffffffff1681565b606b5481565b600060019054906101000a900460ff16610baa5760008054906101000a900460ff1615610bb3565b610bb26118bb565b5b610bf2576040517f08c379a0000000000000000000000000000000000000000000000000000000008152600401610be990612521565b60405180910390fd5b60008060019054906101000a900460ff161590508015610c42576001600060016101000a81548160ff02191690831515021790555060016000806101000a81548160ff0219169083151502179055505b600073ffffffffffffffffffffffffffffffffffffffff168673ffffffffffffffffffffffffffffffffffffffff161415610cb2576040517f08c379a0000000000000000000000000000000000000000000000000000000008152600401610ca99061258d565b60405180910390fd5b60008411610cf5576040517f08c379a0000000000000000000000000000000000000000000000000000000008152600401610cec906125f9565b60405180910390fd5b60008311610d38576040517f08c379a0000000000000000000000000000000000000000000000000000000008152600401610d2f90612665565b60405180910390fd5b85606560016101000a81548173ffffffffffffffffffffffffffffffffffffffff021916908373ffffffffffffffffffffffffffffffffffffffff1602179055508460698190555083606b8190555082606a8190555081606660006101000a81548173ffffffffffffffffffffffffffffffffffffffff021916908373ffffffffffffffffffffffffffffffffffffffff160217905550610dd76118cc565b8015610df85760008060016101000a81548160ff0219169083151502179055505b505050505050565b610e08611825565b73ffffffffffffffffffffffffffffffffffffffff16610e26610e88565b73ffffffffffffffffffffffffffffffffffffffff1614610e7c576040517f08c379a0000000000000000000000000000000000000000000000000000000008152600401610e7390612199565b60405180910390fd5b610e866000611925565b565b6000603360009054906101000a900473ffffffffffffffffffffffffffffffffffffffff16905090565b6000606760008373ffffffffffffffffffffffffffffffffffffffff1673ffffffffffffffffffffffffffffffffffffffff168152602001908152602001600020805490509050919050565b606560009054906101000a900460ff16610f4d576040517f08c379a0000000000000000000000000000000000000000000000000000000008152600401610f44906126d1565b60405180910390fd5b60008111610f90576040517f08c379a0000000000000000000000000000000000000000000000000000000008152600401610f879061273d565b60405180910390fd5b600080606c541115610fad57606c5482610faa9190612439565b90505b6064811115610ff1576040517f08c379a0000000000000000000000000000000000000000000000000000000008152600401610fe8906127cf565b60405180910390fd5b6000612710606b548461100491906123b0565b61100e9190612439565b9050600061101a61182d565b9050600060695461102961182d565b611033919061235a565b9050606760003373ffffffffffffffffffffffffffffffffffffffff1673ffffffffffffffffffffffffffffffffffffffff1681526020019081526020016000206040518060e001604052806001151581526020018781526020018481526020018381526020018581526020016000815260200184815250908060018154018082558091505060019003906000526020600020906007020160009091909190915060008201518160000160006101000a81548160ff0219169083151502179055506020820151816001015560408201518160020155606082015181600301556080820151816004015560a0820151816005015560c08201518160060155505084606854611140919061235a565b6068819055506000600161115333610eb2565b61115d91906122ef565b9050803373ffffffffffffffffffffffffffffffffffffffff167f2720efa4b2dd4f3f8a347da3cbd290a522e9432da9072c5b8e6300496fdde2828886866040516111aa939291906127ef565b60405180910390a3611201333088606560019054906101000a900473ffffffffffffffffffffffffffffffffffffffff1673ffffffffffffffffffffffffffffffffffffffff166119eb909392919063ffffffff16565b505050505050565b611211611825565b73ffffffffffffffffffffffffffffffffffffffff1661122f610e88565b73ffffffffffffffffffffffffffffffffffffffff1614611285576040517f08c379a000000000000000000000000000000000000000000000000000000000815260040161127c90612199565b60405180910390fd5b606560009054906101000a900460ff16156112d5576040517f08c379a00000000000000000000000000000000000000000000000000000000081526004016112cc90612872565b60405180910390fd5b6000606d541161131a576040517f08c379a0000000000000000000000000000000000000000000000000000000008152600401611311906128de565b60405180910390fd5b6001606560006101000a81548160ff021916908315150217905550565b60685481565b606560009054906101000a900460ff1681565b600080600080600080600080600080606760008d73ffffffffffffffffffffffffffffffffffffffff1673ffffffffffffffffffffffffffffffffffffffff1681526020019081526020016000208b815481106113b0576113af612291565b5b90600052602060002090600702016040518060e00160405290816000820160009054906101000a900460ff161515151581526020016001820154815260200160028201548152602001600382015481526020016004820154815260200160058201548152602001600682015481525050905080600001519950806020015198508060400151975080606001519650806080015195508060a0015194508060c0015193508661145c61182d565b111561147557848661146e91906122ef565b92506114ac565b878761148191906122ef565b8461148a61182d565b61149491906122ef565b8761149f91906123b0565b6114a99190612439565b92505b6000606c5411156114cc57606c54896114c59190612439565b91506114d1565b600091505b509295985092959850929598565b6000806114ec3384611350565b5097505096505050505050600081141561153b576040517f08c379a00000000000000000000000000000000000000000000000000000000081526004016115329061294a565b60405180910390fd5b8082611547919061235a565b606760003373ffffffffffffffffffffffffffffffffffffffff1673ffffffffffffffffffffffffffffffffffffffff168152602001908152602001600020848154811061159857611597612291565b5b9060005260206000209060070201600501819055506115b561182d565b606760003373ffffffffffffffffffffffffffffffffffffffff1673ffffffffffffffffffffffffffffffffffffffff168152602001908152602001600020848154811061160657611605612291565b5b906000526020600020906007020160060181905550823373ffffffffffffffffffffffffffffffffffffffff167f4534f107610758c3931de9ad1e176476fcfb8c74adf920167e1d54ee84fcfe768361165d61182d565b60405161166b92919061296a565b60405180910390a3606560019054906101000a900473ffffffffffffffffffffffffffffffffffffffff1673ffffffffffffffffffffffffffffffffffffffff166340c10f1933836040518363ffffffff1660e01b81526004016116d0929190612993565b600060405180830381600087803b1580156116ea57600080fd5b505af11580156116fe573d6000803e3d6000fd5b50505050505050565b61170f611825565b73ffffffffffffffffffffffffffffffffffffffff1661172d610e88565b73ffffffffffffffffffffffffffffffffffffffff1614611783576040517f08c379a000000000000000000000000000000000000000000000000000000000815260040161177a90612199565b60405180910390fd5b600073ffffffffffffffffffffffffffffffffffffffff168173ffffffffffffffffffffffffffffffffffffffff1614156117f3576040517f08c379a00000000000000000000000000000000000000000000000000000000081526004016117ea90612a2e565b60405180910390fd5b6117fc81611925565b50565b606560019054906101000a900473ffffffffffffffffffffffffffffffffffffffff1681565b600033905090565b600042905090565b6118b68363a9059cbb60e01b8484604051602401611854929190612993565b604051602081830303815290604052907bffffffffffffffffffffffffffffffffffffffffffffffffffffffff19166020820180517bffffffffffffffffffffffffffffffffffffffffffffffffffffffff8381831617835250505050611a74565b505050565b60006118c630611b3b565b15905090565b600060019054906101000a900460ff1661191b576040517f08c379a000000000000000000000000000000000000000000000000000000000815260040161191290612ac0565b60405180910390fd5b611923611b5e565b565b6000603360009054906101000a900473ffffffffffffffffffffffffffffffffffffffff16905081603360006101000a81548173ffffffffffffffffffffffffffffffffffffffff021916908373ffffffffffffffffffffffffffffffffffffffff1602179055508173ffffffffffffffffffffffffffffffffffffffff168173ffffffffffffffffffffffffffffffffffffffff167f8be0079c531659141344cd1fd0a4f28419497f9722a3daafe3b4186f6b6457e060405160405180910390a35050565b611a6e846323b872dd60e01b858585604051602401611a0c93929190612ae0565b604051602081830303815290604052907bffffffffffffffffffffffffffffffffffffffffffffffffffffffff19166020820180517bffffffffffffffffffffffffffffffffffffffffffffffffffffffff8381831617835250505050611a74565b50505050565b6000611ad6826040518060400160405280602081526020017f5361666545524332303a206c6f772d6c6576656c2063616c6c206661696c65648152508573ffffffffffffffffffffffffffffffffffffffff16611bbf9092919063ffffffff16565b9050600081511115611b365780806020019051810190611af69190612b43565b611b35576040517f08c379a0000000000000000000000000000000000000000000000000000000008152600401611b2c90612be2565b60405180910390fd5b5b505050565b6000808273ffffffffffffffffffffffffffffffffffffffff163b119050919050565b600060019054906101000a900460ff16611bad576040517f08c379a0000000000000000000000000000000000000000000000000000000008152600401611ba490612ac0565b60405180910390fd5b611bbd611bb8611825565b611925565b565b6060611bce8484600085611bd7565b90509392505050565b606082471015611c1c576040517f08c379a0000000000000000000000000000000000000000000000000000000008152600401611c1390612c74565b60405180910390fd5b611c2585611b3b565b611c64576040517f08c379a0000000000000000000000000000000000000000000000000000000008152600401611c5b90612ce0565b60405180910390fd5b6000808673ffffffffffffffffffffffffffffffffffffffff168587604051611c8d9190612d7a565b60006040518083038185875af1925050503d8060008114611cca576040519150601f19603f3d011682016040523d82523d6000602084013e611ccf565b606091505b5091509150611cdf828286611ceb565b92505050949350505050565b60608315611cfb57829050611d4b565b600083511115611d0e5782518084602001fd5b816040517f08c379a0000000000000000000000000000000000000000000000000000000008152600401611d429190612de6565b60405180910390fd5b9392505050565b6000819050919050565b611d6581611d52565b82525050565b6000602082019050611d806000830184611d5c565b92915050565b600080fd5b611d9481611d52565b8114611d9f57600080fd5b50565b600081359050611db181611d8b565b92915050565b600060208284031215611dcd57611dcc611d86565b5b6000611ddb84828501611da2565b91505092915050565b600073ffffffffffffffffffffffffffffffffffffffff82169050919050565b6000611e0f82611de4565b9050919050565b611e1f81611e04565b8114611e2a57600080fd5b50565b600081359050611e3c81611e16565b92915050565b60008060408385031215611e5957611e58611d86565b5b6000611e6785828601611e2d565b9250506020611e7885828601611da2565b9150509250929050565b60008115159050919050565b611e9781611e82565b82525050565b600060e082019050611eb2600083018a611e8e565b611ebf6020830189611d5c565b611ecc6040830188611d5c565b611ed96060830187611d5c565b611ee66080830186611d5c565b611ef360a0830185611d5c565b611f0060c0830184611d5c565b98975050505050505050565b6000819050919050565b6000611f31611f2c611f2784611de4565b611f0c565b611de4565b9050919050565b6000611f4382611f16565b9050919050565b6000611f5582611f38565b9050919050565b611f6581611f4a565b82525050565b6000602082019050611f806000830184611f5c565b92915050565b600080600080600060a08688031215611fa257611fa1611d86565b5b6000611fb088828901611e2d565b9550506020611fc188828901611da2565b9450506040611fd288828901611da2565b9350506060611fe388828901611da2565b9250506080611ff488828901611e2d565b9150509295509295909350565b61200a81611e04565b82525050565b60006020820190506120256000830184612001565b92915050565b60006020828403121561204157612040611d86565b5b600061204f84828501611e2d565b91505092915050565b600060208201905061206d6000830184611e8e565b92915050565b600061012082019050612089600083018c611e8e565b612096602083018b611d5c565b6120a3604083018a611d5c565b6120b06060830189611d5c565b6120bd6080830188611d5c565b6120ca60a0830187611d5c565b6120d760c0830186611d5c565b6120e460e0830185611d5c565b6120f2610100830184611d5c565b9a9950505050505050505050565b600061210b82611f38565b9050919050565b61211b81612100565b82525050565b60006020820190506121366000830184612112565b92915050565b600082825260208201905092915050565b7f4f776e61626c653a2063616c6c6572206973206e6f7420746865206f776e6572600082015250565b600061218360208361213c565b915061218e8261214d565b602082019050919050565b600060208201905081810360008301526121b281612176565b9050919050565b7f5374616b6573206172652073746f7070656420616c7265616479000000000000600082015250565b60006121ef601a8361213c565b91506121fa826121b9565b602082019050919050565b6000602082019050818103600083015261221e816121e2565b9050919050565b7f556e7374616b656420616c726561647900000000000000000000000000000000600082015250565b600061225b60108361213c565b915061226682612225565b602082019050919050565b6000602082019050818103600083015261228a8161224e565b9050919050565b7f4e487b7100000000000000000000000000000000000000000000000000000000600052603260045260246000fd5b7f4e487b7100000000000000000000000000000000000000000000000000000000600052601160045260246000fd5b60006122fa82611d52565b915061230583611d52565b925082821015612318576123176122c0565b5b828203905092915050565b60006060820190506123386000830186612001565b6123456020830185611d5c565b6123526040830184611d5c565b949350505050565b600061236582611d52565b915061237083611d52565b9250827fffffffffffffffffffffffffffffffffffffffffffffffffffffffffffffffff038211156123a5576123a46122c0565b5b828201905092915050565b60006123bb82611d52565b91506123c683611d52565b9250817fffffffffffffffffffffffffffffffffffffffffffffffffffffffffffffffff04831182151516156123ff576123fe6122c0565b5b828202905092915050565b7f4e487b7100000000000000000000000000000000000000000000000000000000600052601260045260246000fd5b600061244482611d52565b915061244f83611d52565b92508261245f5761245e61240a565b5b828204905092915050565b600060808201905061247f6000830187611d5c565b61248c6020830186611d5c565b6124996040830185611d5c565b6124a66060830184611e8e565b95945050505050565b7f496e697469616c697a61626c653a20636f6e747261637420697320616c72656160008201527f647920696e697469616c697a6564000000000000000000000000000000000000602082015250565b600061250b602e8361213c565b9150612516826124af565b604082019050919050565b6000602082019050818103600083015261253a816124fe565b9050919050565b7f456d70747920746f6b656e206164647265737300000000000000000000000000600082015250565b600061257760138361213c565b915061258282612541565b602082019050919050565b600060208201905081810360008301526125a68161256a565b9050919050565b7f5a65726f207969656c6420726174650000000000000000000000000000000000600082015250565b60006125e3600f8361213c565b91506125ee826125ad565b602082019050919050565b60006020820190508181036000830152612612816125d6565b9050919050565b7f5a65726f206561726c7920556e7374616b652046656500000000000000000000600082015250565b600061264f60168361213c565b915061265a82612619565b602082019050919050565b6000602082019050818103600083015261267e81612642565b9050919050565b7f7374616b653a206e6f74206f70656e0000000000000000000000000000000000600082015250565b60006126bb600f8361213c565b91506126c682612685565b602082019050919050565b600060208201905081810360008301526126ea816126ae565b9050919050565b7f7374616b653a207a65726f20616d6f756e740000000000000000000000000000600082015250565b600061272760128361213c565b9150612732826126f1565b602082019050919050565b600060208201905081810360008301526127568161271a565b9050919050565b7f7374616b653a2072657761726420736b696e732063616e27742062652067726560008201527f61746572207468616e2031303000000000000000000000000000000000000000602082015250565b60006127b9602d8361213c565b91506127c48261275d565b604082019050919050565b600060208201905081810360008301526127e8816127ac565b9050919050565b60006060820190506128046000830186611d5c565b6128116020830185611d5c565b61281e6040830184611d5c565b949350505050565b7f5374616b657320617265206f70656e20616c7265616479000000000000000000600082015250565b600061285c60178361213c565b915061286782612826565b602082019050919050565b6000602082019050818103600083015261288b8161284f565b9050919050565b7f736b696e4b696e64207661726961626c65206e6f742073657400000000000000600082015250565b60006128c860198361213c565b91506128d382612892565b602082019050919050565b600060208201905081810360008301526128f7816128bb565b9050919050565b7f6861727665737461626c655969656c64206973207a65726f0000000000000000600082015250565b600061293460188361213c565b915061293f826128fe565b602082019050919050565b6000602082019050818103600083015261296381612927565b9050919050565b600060408201905061297f6000830185611d5c565b61298c6020830184611d5c565b9392505050565b60006040820190506129a86000830185612001565b6129b56020830184611d5c565b9392505050565b7f4f776e61626c653a206e6577206f776e657220697320746865207a65726f206160008201527f6464726573730000000000000000000000000000000000000000000000000000602082015250565b6000612a1860268361213c565b9150612a23826129bc565b604082019050919050565b60006020820190508181036000830152612a4781612a0b565b9050919050565b7f496e697469616c697a61626c653a20636f6e7472616374206973206e6f74206960008201527f6e697469616c697a696e67000000000000000000000000000000000000000000602082015250565b6000612aaa602b8361213c565b9150612ab582612a4e565b604082019050919050565b60006020820190508181036000830152612ad981612a9d565b9050919050565b6000606082019050612af56000830186612001565b612b026020830185612001565b612b0f6040830184611d5c565b949350505050565b612b2081611e82565b8114612b2b57600080fd5b50565b600081519050612b3d81612b17565b92915050565b600060208284031215612b5957612b58611d86565b5b6000612b6784828501612b2e565b91505092915050565b7f5361666545524332303a204552433230206f7065726174696f6e20646964206e60008201527f6f74207375636365656400000000000000000000000000000000000000000000602082015250565b6000612bcc602a8361213c565b9150612bd782612b70565b604082019050919050565b60006020820190508181036000830152612bfb81612bbf565b9050919050565b7f416464726573733a20696e73756666696369656e742062616c616e636520666f60008201527f722063616c6c0000000000000000000000000000000000000000000000000000602082015250565b6000612c5e60268361213c565b9150612c6982612c02565b604082019050919050565b60006020820190508181036000830152612c8d81612c51565b9050919050565b7f416464726573733a2063616c6c20746f206e6f6e2d636f6e7472616374000000600082015250565b6000612cca601d8361213c565b9150612cd582612c94565b602082019050919050565b60006020820190508181036000830152612cf981612cbd565b9050919050565b600081519050919050565b600081905092915050565b60005b83811015612d34578082015181840152602081019050612d19565b83811115612d43576000848401525b50505050565b6000612d5482612d00565b612d5e8185612d0b565b9350612d6e818560208601612d16565b80840191505092915050565b6000612d868284612d49565b915081905092915050565b600081519050919050565b6000601f19601f8301169050919050565b6000612db882612d91565b612dc2818561213c565b9350612dd2818560208601612d16565b612ddb81612d9c565b840191505092915050565b60006020820190508181036000830152612e008184612dad565b90509291505056fea2646970667358221220c1b4efff1c3b9efd534faa143e07407c5fae18de42c4375b660b375c5ae99c5764736f6c634300080b0033",
  "devdoc": {
    "kind": "dev",
    "methods": {
      "getStake(address,uint256)": {
        "details": "get the individual stake parameters of the user",
        "params": {
          "_stakeId": "stake index",
          "_userAddress": "account of staker"
        },
        "returns": {
          "endTime": "the time when unstaking (w.o. penalties) becomes possible",
          "harvestableYield": "The unlocked part of yield available for harvesting",
          "harvestedYield": "The part of yield user harvested already",
          "lastHarvestTime": "The time of last harvest event",
          "skinsAmount": "Reward nft skin type tokens",
          "staked": "the status of stake",
          "stakedAmount": "the number of deposited tokens",
          "startTime": "the moment of stake start",
          "totalYield": "entire yield for the stake (totally released on endTime)"
        }
      },
      "getStakesLength(address)": {
        "details": "get the count of user's stakes. Used on frontend to iterate and display individual stakes",
        "params": {
          "_userAddress": "account of staker"
        },
        "returns": {
          "_0": "stakes"
        }
      },
      "harvest(uint256)": {
        "details": "harvest accumulated rewards. Can be called many times.",
        "params": {
          "_stakeId": "Id of the stake"
        }
      },
      "initialize(address,uint256,uint256,uint256,address)": {
        "details": "the constructor arguments:",
        "params": {
          "_earlyUnstakeFee": "fee for unstaking before stake expiration",
          "_nftCollection": "ERC1155 token of NFT collection",
          "_stakeDuration": "the stake duration in seconds",
          "_token": "address of token - the same accepted for staking and used to pay rewards",
          "_yieldRate": "reward rate in basis points (1/10000)"
        }
      },
      "owner()": {
        "details": "Returns the address of the current owner."
      },
      "renounceOwnership()": {
        "details": "Leaves the contract without owner. It will not be possible to call `onlyOwner` functions anymore. Can only be called by the current owner. NOTE: Renouncing ownership will leave the contract without an owner, thereby removing any functionality that is only available to the owner."
      },
      "stake(uint256)": {
        "details": "submit the stake",
        "params": {
          "_amount": "amount of tokens to be transferred from user's account"
        }
      },
      "start()": {
        "details": "start accepting new stakes. Called only by the owner"
      },
      "stop()": {
        "details": "stop accepting new stakes. Called only by the owner"
      },
      "transferOwnership(address)": {
        "details": "Transfers ownership of the contract to a new account (`newOwner`). Can only be called by the current owner."
      },
      "unstake(uint256)": {
        "details": "withdraw the `body` of user's stake. Can be called only once",
        "params": {
          "_stakeId": "Id of the stake"
        }
      }
    },
    "version": 1
  },
  "userdoc": {
    "kind": "user",
    "methods": {},
    "version": 1
  },
  "storageLayout": {
    "storage": [
      {
        "astId": 532,
        "contract": "contracts/FixedStaking.sol:FixedStaking",
        "label": "_initialized",
        "offset": 0,
        "slot": "0",
        "type": "t_bool"
      },
      {
        "astId": 535,
        "contract": "contracts/FixedStaking.sol:FixedStaking",
        "label": "_initializing",
        "offset": 1,
        "slot": "0",
        "type": "t_bool"
      },
      {
        "astId": 2723,
        "contract": "contracts/FixedStaking.sol:FixedStaking",
        "label": "__gap",
        "offset": 0,
        "slot": "1",
        "type": "t_array(t_uint256)50_storage"
      },
      {
        "astId": 412,
        "contract": "contracts/FixedStaking.sol:FixedStaking",
        "label": "_owner",
        "offset": 0,
        "slot": "51",
        "type": "t_address"
      },
      {
        "astId": 524,
        "contract": "contracts/FixedStaking.sol:FixedStaking",
        "label": "__gap",
        "offset": 0,
        "slot": "52",
        "type": "t_array(t_uint256)49_storage"
      },
      {
        "astId": 5998,
        "contract": "contracts/FixedStaking.sol:FixedStaking",
        "label": "stakesOpen",
        "offset": 0,
        "slot": "101",
        "type": "t_bool"
      },
      {
        "astId": 6001,
        "contract": "contracts/FixedStaking.sol:FixedStaking",
        "label": "token",
        "offset": 1,
        "slot": "101",
        "type": "t_contract(IERC20mintable)5963"
      },
      {
        "astId": 6004,
        "contract": "contracts/FixedStaking.sol:FixedStaking",
        "label": "nftCollection",
        "offset": 0,
        "slot": "102",
        "type": "t_contract(IERC1155mintBatch)5975"
      },
      {
        "astId": 6010,
        "contract": "contracts/FixedStaking.sol:FixedStaking",
        "label": "stakes",
        "offset": 0,
        "slot": "103",
        "type": "t_mapping(t_address,t_array(t_struct(StakeInfo)5996_storage)dyn_storage)"
      },
      {
        "astId": 6012,
        "contract": "contracts/FixedStaking.sol:FixedStaking",
        "label": "stakedTokens",
        "offset": 0,
        "slot": "104",
        "type": "t_uint256"
      },
      {
        "astId": 6014,
        "contract": "contracts/FixedStaking.sol:FixedStaking",
        "label": "stakeDuration",
        "offset": 0,
        "slot": "105",
        "type": "t_uint256"
      },
      {
        "astId": 6016,
        "contract": "contracts/FixedStaking.sol:FixedStaking",
        "label": "earlyUnstakeFee",
        "offset": 0,
        "slot": "106",
        "type": "t_uint256"
      },
      {
        "astId": 6018,
        "contract": "contracts/FixedStaking.sol:FixedStaking",
        "label": "yieldRate",
        "offset": 0,
        "slot": "107",
        "type": "t_uint256"
      },
      {
        "astId": 6020,
        "contract": "contracts/FixedStaking.sol:FixedStaking",
        "label": "mrunPerSkin",
        "offset": 0,
        "slot": "108",
        "type": "t_uint256"
      },
      {
        "astId": 6022,
        "contract": "contracts/FixedStaking.sol:FixedStaking",
        "label": "skinKind",
        "offset": 0,
        "slot": "109",
        "type": "t_uint256"
      }
    ],
    "types": {
      "t_address": {
        "encoding": "inplace",
        "label": "address",
        "numberOfBytes": "20"
      },
      "t_array(t_struct(StakeInfo)5996_storage)dyn_storage": {
        "base": "t_struct(StakeInfo)5996_storage",
        "encoding": "dynamic_array",
        "label": "struct FixedStaking.StakeInfo[]",
        "numberOfBytes": "32"
      },
      "t_array(t_uint256)49_storage": {
        "base": "t_uint256",
        "encoding": "inplace",
        "label": "uint256[49]",
        "numberOfBytes": "1568"
      },
      "t_array(t_uint256)50_storage": {
        "base": "t_uint256",
        "encoding": "inplace",
        "label": "uint256[50]",
        "numberOfBytes": "1600"
      },
      "t_bool": {
        "encoding": "inplace",
        "label": "bool",
        "numberOfBytes": "1"
      },
      "t_contract(IERC1155mintBatch)5975": {
        "encoding": "inplace",
        "label": "contract IERC1155mintBatch",
        "numberOfBytes": "20"
      },
      "t_contract(IERC20mintable)5963": {
        "encoding": "inplace",
        "label": "contract IERC20mintable",
        "numberOfBytes": "20"
      },
      "t_mapping(t_address,t_array(t_struct(StakeInfo)5996_storage)dyn_storage)": {
        "encoding": "mapping",
        "key": "t_address",
        "label": "mapping(address => struct FixedStaking.StakeInfo[])",
        "numberOfBytes": "32",
        "value": "t_array(t_struct(StakeInfo)5996_storage)dyn_storage"
      },
      "t_struct(StakeInfo)5996_storage": {
        "encoding": "inplace",
        "label": "struct FixedStaking.StakeInfo",
        "members": [
          {
            "astId": 5983,
            "contract": "contracts/FixedStaking.sol:FixedStaking",
            "label": "staked",
            "offset": 0,
            "slot": "0",
            "type": "t_bool"
          },
          {
            "astId": 5985,
            "contract": "contracts/FixedStaking.sol:FixedStaking",
            "label": "stakedAmount",
            "offset": 0,
            "slot": "1",
            "type": "t_uint256"
          },
          {
            "astId": 5987,
            "contract": "contracts/FixedStaking.sol:FixedStaking",
            "label": "startTime",
            "offset": 0,
            "slot": "2",
            "type": "t_uint256"
          },
          {
            "astId": 5989,
            "contract": "contracts/FixedStaking.sol:FixedStaking",
            "label": "endTime",
            "offset": 0,
            "slot": "3",
            "type": "t_uint256"
          },
          {
            "astId": 5991,
            "contract": "contracts/FixedStaking.sol:FixedStaking",
            "label": "totalYield",
            "offset": 0,
            "slot": "4",
            "type": "t_uint256"
          },
          {
            "astId": 5993,
            "contract": "contracts/FixedStaking.sol:FixedStaking",
            "label": "harvestedYield",
            "offset": 0,
            "slot": "5",
            "type": "t_uint256"
          },
          {
            "astId": 5995,
            "contract": "contracts/FixedStaking.sol:FixedStaking",
            "label": "lastHarvestTime",
            "offset": 0,
            "slot": "6",
            "type": "t_uint256"
          }
        ],
        "numberOfBytes": "224"
      },
      "t_uint256": {
        "encoding": "inplace",
        "label": "uint256",
        "numberOfBytes": "32"
      }
    }
  }
}